:100000000C94E9030C9411040C9411040C94110445
:100010000C9411040C9411040C9411040C9411040C
:100020000C9411040C9411040C9411040C94EE1E05
:100030000C9411040C9411040C9411040C941104EC
:100040000C94C2200C9411040C9411040C9411040F
:100050000C9411040C9411040C9411040C941104CC
:100060000C9411040C941104484947482053434F01
:100070005245530042455354204F46204541434882
:10008000000000200D001FF800002004C30FA7E4AB
:10009000C60FA7F4CC19A074D819A3E4F031A3E4D7
:1000A000F03FA065F87FA0E59C61AFE58EC1AF850C
:1000B0008700200400001FF8004821000000000015
:1000C0000000000000000000000000000000000030
:1000D0000FFFE00000000000001FFFF00000000024
:1000E000000030001800000000007E60FE0C3C1C88
:1000F0000000007E60FF0C3C3C000000FE60FF8CB6
:100100003C78000000EE60078C38F0000001CE6003
:10011000078C79E0000001CE600F0C7BC00000036B
:10012000CE607E0C7F800000038E607C0C7F000020
:1001300000078E607E0C7F80000007FE600F0C734E
:100140008000000FFE60070CF3C000000FFE600788
:100150000CF1C000001E0E600F0CE1C000001C0E70
:1001600063FE0CE0E000003C0E63FC0DE0E00000EC
:10017000380E63F00DE0F0000000003000180000C1
:10018000000000001FFFF00000000000000FFFE073
:10019000000000000000000000000000000000005F
:1001A00000000000000000000000000000000080CF
:1001B0000880020200000000CA0D9A821212A800F4
:1001C00000AA0AA9022AAA900000A608A9023332AE
:1001D000900000C2089A839A99A800000C000000C1
:1001E0000000000005077F4141417F3E5B4F5B3EC1
:1001F0003E6B4F6B3E183C783C18183C7E3C181CFC
:10020000577D571C1C5E7F5E1C007E43437E007E34
:1002100073737E007E7F7F7E7F4141417F30483A0D
:10022000060E06297929067F4141417F60703F0211
:10023000042A1C361C2A7F3E1C080000081C3E7F36
:1002400014227F22143C3C3C7EFF18423C817E3EBF
:100250006375633E3E616B633E3E636B6B3E0402BF
:100260007F020410207F201008082A1C08081C2A7E
:100270000808143E554122637569756310181C18EF
:1002800010040C1C0C04000000000000005F0000C3
:100290000007000700147F147F14042A7F2A10230C
:1002A0001308646236495620500008070300001CFA
:1002B0002241000041221C002A1C3E1C2A08083E44
:1002C000080800E0600000080808080800606000F6
:1002D0000060100804033E5149453E00427F400043
:1002E00062514949462141494D331814127F102764
:1002F000454545393C4A49493041211109073649AC
:10030000494936064949291E00002400000080643E
:100310000000081422410014141414140041221483
:100320000802015909063E415D594E7C1211127CAA
:100330007F494949363E414141227F4141221C7F4C
:10034000494949417F090909013E414151327F082C
:1003500008087F00417F41002041413F017F081490
:1003600022417F404040407F020C027F7F02040810
:100370007F3E4141413E7F090909063E416141BE40
:100380007F09192946264949493201017F01013F68
:100390004040403F1F2040201F3F4038403F6314F3
:1003A00008146303047804036151494543007F4105
:1003B000410003040810600041417F000402010273
:1003C0000480808080800003070800205454784017
:1003D0007F284444383844444428384444287F38EB
:1003E00054545418087E09090218A4A49C787F0864
:1003F00004047800447D4000006080847D7F1010FC
:10040000284400417F40007C047804787C08040480
:10041000783844444438FC1824241818242418FC40
:100420007C080404080854545420043F4444203CED
:100430004040207C1C2040201C3C4020403C442864
:100440001028444C9090907C4464544C44000836EE
:10045000410000007F000000413608001804081029
:100460000C7F4141417F03053F213F1208120A10D2
:100470000A0E1C0E0C1E0C141A14161F161E131E28
:100480001E1B1E1E1F1E3F213F3A2F3A173D173FCE
:10049000213F181F02040A041F0E04040E1F0A1F26
:1004A0000A0E0E1F04110E2E252E2F2A2E26292964
:1004B000021F02081F08150E04040E150E15151B49
:1004C000151B040604040C040000000017000300C0
:1004D000031F0A1F16371A1904130A153A000300DE
:1004E000000E11110E000A040A040E04003000046C
:1004F00004040010001804031F111F121F101D1503
:100500001711151F07041F17151D1F151D01011FAA
:100510001F151F17151F000A00003200040A110AD8
:100520000A0A110A040115020E11171E051E1F15D5
:100530000A0E110A1F110E1F15111F05010E111DA4
:100540001F041F111F1108100F1F041B1F10101F65
:10055000061F1E040F0E110E1F09060E112E1F0579
:100560001A121509011F011F101F0F180F1F0C1F52
:100570001B041B031C03191513001F11030418117E
:100580001F000201022020200001020C121E1F1277
:100590000C0C12120C121F0C1A14041E05242A1E15
:1005A0001F021C141D1020201D1F0814111F101ED7
:1005B000041E1E021C0C120C3E0A040C123E1E04E9
:1005C0000214160A020F120E101E0E100E1E081E26
:1005D000120C1226281E322A26041E21001F00217A
:1005E0001E040102013F213F0A4E6F205344206345
:1005F000617264206F720A6E6F204C4F4144455205
:100600002E4845580A0A153A45786974001D204657
:100610006C617368696E670A20206C6F6164657233
:100620002E2E2E0A0A444F4E2754205455524E2047
:100630004F464621006D560A0A504C454153450A23
:100640005455524E204F4646004C4F57204241547D
:10065000544552590A00177361766500166261634A
:100660006B001574797065000A0A0A153A6F6B61A0
:100670007920163A6564697400596F7520656E7447
:10068000657265640A001753440016137800161348
:1006900014001510200015201000540A03E1818673
:1006A0007F3E186D830F0F0E0183866033186DC374
:1006B000198F1803C38E6033186DE330CF1803C34E
:1006C0009E603630CDE360CF3006C79E7E3E30CD93
:1006D000B360CF300CC6F6603330D9B660CF33CFBD
:1006E000CCF66061B0DB1E60CF30D86CE6C061B084
:1006F000DB1E618F19986CC6C063B19B0E330F0F60
:10070000B078C6FF7E1F1B061E0F05008930080249
:100710003802497868140000F6E8DBCFC3B8AEA40D
:100720009B928A827B746E68625C57524E49454147
:100730003E3A3734312E2C29272523211F1D1C1A20
:100740001917161514131211100F0E0D0C0B0A09A0
:10075000080706450068010000050068013801002F
:1007600000050038016801000071076D070101FFF5
:10077000030101F703000000070002010000030469
:1007800006000000000000000001020408102040E4
:10079000800102040810200102040810200404044F
:1007A000040404040402020202020203030303031A
:1007B000030000000023002600290000000000259F
:1007C0000028002B0000000000240027002A000061
:1007D000A80F11241FBECFEFD8E0DEBFCDBF11E0C0
:1007E000A0E0B1E0EAE4FCE402C005900D92A83B71
:1007F000B107D9F715E0A8EBB1E001C01D92A23214
:10080000B107E1F717E0C2EDD7E004C02297FE017F
:100810000E948525C03DD107C9F70E94C9230C94C9
:1008200023260C9400008430C0F46430B0F494E0CB
:10083000899FF0011124E60FF11DE759FD4F81E07A
:10084000808380938F020E940C2160938B027093AF
:100850008C0280938D0290938E02089510928F02E5
:10086000ECE6F2E0DF0113971C92DF0112971C9275
:10087000DF0111971C921082349682E0EC37F80762
:1008800089F70895FF920F931F93CF93DF93082F5B
:10089000C0E0FF24F394C01781F11092920280917E
:1008A0009202811128C064E070E080E090E00E9434
:1008B0002022D62F64E070E080E090E00E942022A9
:1008C000162F62E070E080E090E00E94202284E039
:1008D000D89FF0011124E10FF11DE758FD4F8081F1
:1008E0008032E9F66F5B6083612F8D2F0E941304C5
:1008F000F0929202D4CFCF5FCECFDF91CF911F91F4
:100900000F91FF900895CF93C5E029E245E06C2F49
:1009100082EE92E00E94331829E24C2F65E082EECD
:1009200092E00E946518C65FC73379F7CF910895AA
:10093000CF93DF9382EE92E00E945D1710926502E2
:10094000109266021092670210926802109293024F
:1009500089E792E0CDE7D2E041E852E0E5E8F2E055
:1009600020E2DC012D93CD012993DA012D93AD0115
:100970002193B2E0E938FB07A1F7DF91CF910C9406
:100980008304CF92DF92EF92FF92CF93DF9323E81D
:1009900030E049E061E382EE92E00E94EC1966E605
:1009A00074E082EE92E00E94841A80E38093EB026E
:1009B0008BE18093EC0268E071E082EE92E00E94AD
:1009C0000A23C0906502D0906602E0906702F09022
:1009D0006802C601E091E602E695F0E020E430E02E
:1009E000CAE0D0E08A3091053CF0BE010E94232588
:1009F000CB012E1B3F0BF6CF2093EB0283E28093BB
:100A0000EC022AE030E0B701A60182EE92E0DF912D
:100A1000CF91FF90EF90DF90CF900C94A4238F9212
:100A20009F92AF92BF92CF92DF92EF92FF920F937D
:100A30001F93CF93DF9364EE71E082EE92E00E9409
:100A4000841A86E0982EC0E0D0E088248394890C34
:100A500016E0E12CF12CCE0187599D4F5C01CE01AF
:100A600087589D4F6C01F501EE0DFF1D8081882395
:100A700079F061E082EE92E00E94B31709E029E08C
:100A8000492D612F82EE92E00E943C1860E00EC07A
:100A900060E082EE92E00E94B31709E029E0492D60
:100AA000612F82EE92E00E943C1861E082EE92E0BB
:100AB0000E94B31782E0810F8093EB028092EC02D8
:100AC000F601EE0DFF1D608182EE92E00E940C2384
:100AD00040E061E082EE92E00E94B71784E0E80E09
:100AE000F11C165F1E3209F0BECF21969AE0990ED6
:100AF0008EE29812AACFDF91CF911F910F91FF90B4
:100B0000EF90DF90CF90BF90AF909F908F900C941C
:100B1000C10482EE92E00E945D170E9483040C944F
:100B20000F051092650210926602109267021092F1
:100B3000680210929102109290021092890285E050
:100B40008093050180930401ECE7F2E080E2DF018D
:100B500012978C93DF0111978C938083349692E0E7
:100B6000EC38F907A1F70895CF92DF92EF92FF9248
:100B70000F93CF93DF93C82F66E674E082EE92E086
:100B80000E94841A61E082EE92E00E94B31700E2B4
:100B900020E545E062E082EE92E00E943C1860E0D1
:100BA00082EE92E00E94B3170EE12EE446E063E08D
:100BB00082EE92E00E943C1861E082EE92E00E9498
:100BC000B31787E08093EB0289E08093EC02CC239B
:100BD00019F062E171E002C060E271E082EE92E041
:100BE0000E940A2360E371E082EE92E00E940A23F1
:100BF00040916502509166026091670270916802AF
:100C00008091610290916202A0916302B0916402AE
:100C100084179507A607B70730F462E471E082EE07
:100C200092E00E940A2367E571E082EE92E00E9462
:100C30000A23C0906502D0906602E0906702F090AF
:100C40006802C601E091E602E695F0E029E130E0B5
:100C5000CAE0D0E08A3091053CF0BE010E94232515
:100C6000CB012E1B3F0BF6CF2093EB028FE080933E
:100C7000EC022AE030E0B701A60182EE92E0DF91BB
:100C8000CF910F91FF90EF90DF90CF900C94A42321
:100C9000AF92BF92CF92DF92EF92FF920F931F938A
:100CA000CF93DF93C1E5D2E02AE1C22E22E0D22E1B
:100CB00000E010E0E12CF12CB701600F711F88E11A
:100CC00095E00E94FA1FF601EE0DFF1D80832FEFC5
:100CD000E21AF20A8AE0E816F10471F71882198222
:100CE0001A821B8258012AE0A20EB11CE12CF12CC1
:100CF000B50188E195E00E94FA1F90E00E2C02C039
:100D0000880F991F0A94E2F7AA2797FDA095BA2F9A
:100D1000488159816A817B81840F951FA61FB71F67
:100D200088839983AA83BB832FEFA21AB20A28E093
:100D3000E20EF11C20E2E216F104D1F68F3F9F4F44
:100D4000AF4FBF4F21F4188219821A821B8224965A
:100D5000025F1F4F8BE0C80ED11C0634110509F04D
:100D6000A9CFC6E0D2E09FECC92E91E0D92E00E0D9
:100D700010E0E12CF12C580126E4A20EB11CB501C3
:100D80006E0D7F1D88E195E00E94FA1FF601EE0DC1
:100D9000FF1D80832FEFE21AF20A8AE0E816F104C1
:100DA00071F7188219821A821B82580120E5A20E5F
:100DB000B11CE12CF12CB50188E195E00E94FA1FED
:100DC00090E00E2C02C0880F991F0A94E2F7AA2720
:100DD00097FDA095BA2F488159816A817B81840F44
:100DE000951FA61FB71F88839983AA83BB832FEF04
:100DF000A21AB20A28E0E20EF11C20E2E216F10487
:100E0000D1F68F3F9F4FAF4FBF4F21F41882198209
:100E10001A821B822496025F1F4F8BE0C80ED11CE2
:100E20000634110509F0A5CF66E472E088EB91E085
:100E3000DF91CF911F910F91FF90EF90DF90CF90B6
:100E4000BF90AF900C94FE250F931F93CF93DF9329
:100E5000C0E0D0E08E010C5F1F4FFE01E758FD4F50
:100E6000BE0164577F4F408188E195E00E94FD1FDD
:100E70002196C017D10789F7C031D10559F70CE980
:100E800010E0C0E0D0E040916502509166026091B0
:100E90006702709168020C2E04C07695679557958D
:100EA00047950A94D2F7B80188E195E00E94FD1FAA
:100EB00028960F5F1F4FC032D10529F7DF91CF91E0
:100EC0001F910F9108950F931F93CF93DF93C0E06D
:100ED000D0E08E010C5F1F4FBE0164577F4F88E149
:100EE00095E00E94FA1FFE01E758FD4F808321968E
:100EF000C017D10789F7C031D10559F710926502A3
:100F000010926602109267021092680200E010E0F0
:100F1000CCE9D0E0BE0188E195E00E94FA1F90E0A4
:100F2000002E02C0880F991F0A94E2F7AA2797FDA6
:100F3000A095BA2F409165025091660260916702B8
:100F400070916802480F591F6A1F7B1F409365020A
:100F50005093660260936702709368022196085F5F
:100F60001F4FC03AD105B1F6DF91CF911F910F917C
:100F7000089584E992E00E94731666E674E082EEBA
:100F800092E00E94841A49EB50E062E870E084E944
:100F900092E00E94B61484E992E00E941C10109224
:100FA000AC0281E08093E802ECE6F2E0DF01139707
:100FB0001C92DF0112971C92DF0111971C92108284
:100FC000349682E0EC37F80789F710928F0210927E
:100FD0008A02109293021092920210929102109241
:100FE0009002109289021092CE0168E871E088EBBD
:100FF00091E00E94FE250E9498040E9448060E94EB
:1010000063070C9489056F927F928F929F92AF92A3
:10101000BF92CF92DF92EF92FF920F931F93CF93E5
:10102000DF93CDB7DEB72B970FB6F894DEBF0FBEB8
:10103000CDBF66E0662E712C01E512E04AE1C42EB8
:1010400042E0D42E812C912C74012FEFE21AF20A87
:10105000F80181919191A191B1918F0140815181CC
:10106000628173819601255F3F4F5901841795076F
:10107000A607B70748F5349740835183628373838B
:10108000F80180839183A283B383B601CE010196D8
:101090000E94FE25B501C6010E94FE25BE016F5FBC
:1010A0007F4FC5010E94FE258091050190E08816C2
:1010B000990619F4E092050107C0E816F90621F433
:1010C0008FEF8E0D809305016501F4E0EF16F104BA
:1010D00011F04701B9CF21E0621A7108611471045F
:1010E00009F0AACF56E0652E712C06E012E03FEC25
:1010F000C32E31E0D32E812C912C74013FEFE31AE3
:10110000F30AF80181919191A191B1918F014081F0
:101110005181628173819601255F3F4F5901841788
:101120009507A607B70748F5349740835183628334
:101130007383F80180839183A283B383B601CE01C8
:1011400001960E94FE25B501C6010E94FE25BE0142
:101150006F5F7F4FC5010E94FE258091040190E0E2
:101160008816990619F4E092040107C0E816F906FA
:1011700021F48FEF8E0D809304016501F4E0EF16EA
:10118000F10411F04701B9CF21E0621A710861142E
:10119000710409F0AACF2B960FB6F894DEBF0FBEEC
:1011A000CDBFDF91CF911F910F91FF90EF90DF9016
:1011B000CF90BF90AF909F908F907F906F90089549
:1011C0007F928F929F92AF92BF92CF92DF92EF92D7
:1011D000FF920F931F93CF93DF93EAE0CE2ED12C93
:1011E00084E992E00E944C118823D1F382EE92E0D0
:1011F0000E945D1764EE71E082EE92E00E94841A14
:1012000022E030E040E050E060E070E0CB010E947E
:101210004422675F6093EB0222E030E040E050E060
:1012200060E070E0CB010E9444226093EC02809168
:10123000CE01882319F064E770E002C068E670E030
:1012400082EE92E00E9427231092E9021092EB02B4
:101250008091E7028093EC0276E0E72E72E0F72EB1
:1012600001E512E0C0E0D0E0712C8091CE0188232E
:1012700019F08091040102C080910501781207C025
:1012800041E060E082EE92E00E94B71705C061E0A5
:1012900082EE92E00E94B317F80180819181A281D1
:1012A000B381892B8A2B8B2B31F46DE282EE92E095
:1012B0000E940C2314C08091CE01BE01882319F036
:1012C00061537E4F02C0665E7D4F82EE92E00E94C7
:1012D0000A236EE671E082EE92E00E940A2380917A
:1012E000CE01882311F0F70101C0F80180809180C0
:1012F000A280B380C40121E030E08A3091053CF047
:10130000B6010E942325CB012F5F3F4FF6CF2095DA
:1013100030958091E602829F202D11242C5A209333
:10132000EB0273948091E702789E802D11248093C4
:10133000EC0267E771E082EE92E00E940A232AE065
:1013400030E0B501A40182EE92E00E94B723F4E000
:10135000EF0EF11C0C5F1F4F2B9685E0781285CFA6
:1013600064E08EE992E00E94FD0F81111DC065E0EE
:101370008EE992E00E94FD0F811116C066E08EE9B1
:1013800092E00E94FD0F81110FC060E08EE992E0B3
:101390000E94FD0F811130C062E08EE992E00E9450
:1013A000FD0F811129C01CCF80919102811104C0D1
:1013B00080919002882389F081E080938A02DF91F6
:1013C000CF911F910F91FF90EF90DF90CF90BF9042
:1013D000AF909F908F907F900895DF91CF911F9154
:1013E0000F91FF90EF90DF90CF90BF90AF909F90C4
:1013F0008F907F900C94890581E09091CE0191119E
:1014000080E08093CE01ECCEAF92BF92CF92DF927C
:10141000EF92FF920F931F93CF93DF936B017C01A9
:101420000FEC11E0C0E0D0E0B80183EC91E00E9445
:10143000F525892B21F55E01AA0CBB1CAA0CBB1C4F
:10144000C5018A5F9D4F5C01FC0180819181A28171
:10145000B3818C159D05AE05BF0508F003C163EC93
:1014600071E0C8010E94FE25F501C082D182E282AE
:10147000F38281E08093CE01C093040128C02196BD
:10148000055F1F4FC530D10579F680911602909106
:101490001702A0911802B0911902C816D906EA06DF
:1014A000FB0608F4DFC0C0921602D0921702E09249
:1014B0001802F092190263EC71E08BEF91E00E9448
:1014C000FE2581E08093CE0184E08093040121E039
:1014D0008091610290916202A0916302B0916402D6
:1014E0008C159D05AE05BF05E0F463EC71E086E464
:1014F00092E00E94FE258091650290916602A09183
:101500006702B09168028093610290936202A09397
:101510006302B09364021092CE0184E080930501CF
:1015200003C0222309F492C00E940308F1E5EF2EC4
:10153000F2E0FF2EAAE1CA2EA2E0DA2EC0E0D0E04F
:1015400000E010E0F601E00FF11FB8016C0F7D1F05
:10155000408188E195E00E94FD1F0F5F1F4F0A3018
:10156000110581F75E018AE0A80EB11C00E010E0D1
:10157000F7014081518162817381002E04C076950C
:101580006795579547950A94D2F7B50188E195E09C
:101590000E94FD1F085F1F4FFFEFAF1ABF0A003206
:1015A000110531F72E9684E0E80EF11C9BE0C90E80
:1015B000D11CC634D10521F6C6E0D2E00FEC11E013
:1015C000E12CF12CC12CD12C5701E6E4AE0EB11C5C
:1015D000F801EC0DFD1DB5016C0D7D1D408188E10C
:1015E00095E00E94FD1FEFEFCE1ADE0AFAE0CF165B
:1015F000D10471F7570180E5A80EB11CC12CD12C84
:10160000488159816A817B810C2C04C0769567954D
:10161000579547950A94D2F7B50188E195E00E9465
:10162000FD1F98E0C90ED11CEFEFAE1ABE0AF0E222
:10163000CF16D10429F78EE0E80EF11C2496055F41
:101640001F4F96E4E916F10409F0BCCFDF91CF916A
:101650001F910F91FF90EF90DF90CF90BF90AF90D0
:101660000C94E00820E034CF0F931F93CF9390E0C9
:1016700002E010E0282F30E021543109492F50E0DA
:101680004217530724F4000F111F9F5FF7CF222743
:1016900017FD2095322F40916502509166026091AE
:1016A000670270916802400F511F621F731F4093C1
:1016B00065025093660260936702709368028B34F0
:1016C00008F48DC080918902811189C081E08093E6
:1016D00090028093890217E0C9E066E674E082EE2A
:1016E00092E00E94841A61E082EE92E00E94B317B9
:1016F00000E220E545E062E082EE92E00E943C18C4
:1017000060E082EE92E00E94B3170EE12EE446E024
:1017100063E082EE92E00E943C1861E082EE92E08B
:101720000E94B3171093EB02C093EC0269E771E0DB
:1017300082EE92E00E94392369E871E082EE92E045
:101740000E9439236AE971E082EE92E00E94392317
:1017500084E992E00E944C11882309F4BECF65E031
:101760008EE992E00E94FD0F882361F18091B8011B
:10177000811103C066E472E002C068EB71E084E9A5
:1017800092E00E94D21664EE71E082EE92E00E9436
:10179000841A4BE063EC71E084E992E00E94061247
:1017A00063EC71E088EB91E00E94FE256091650298
:1017B0007091660280916702909168020E94040A0B
:1017C0000E94910564E08EE992E00E94FD0F88235B
:1017D00009F483CFCF911F910F910C948905CF917C
:1017E0001F910F9108955F926F927F928F929F92B7
:1017F000AF92BF92CF92DF92EF92FF920F931F931F
:10180000CF93DF93682E81E080939302C0E0D0E015
:1018100080E040E2542E7C2E14E0C12ED12C0CEF3F
:10182000802E99249A94E12CF12C90E09E01275867
:101830003D4F5901D501AC0DBD1D2C91213208F44D
:1018400040C08701FD01E80DF91DEC0DFD1D349729
:101850002081213238F1911133C0F8013196EE0F19
:10186000FF1FEE0FFF1FEC0FFD1FE758FD4F3081EC
:10187000231327C06620C9F1D801AA0FBB1FAA0FE6
:10188000BB1FAC0FBD1FA758BD4F2F5F2C935082BD
:101890008C910E94340B672D802F0E94130481E0ED
:1018A00091E00FC0662009F18C9180835C92015019
:1018B0001109149781E00F3F2FEF120719F601C0AD
:1018C00090E03FEFE31AF30A24E0821A910834E033
:1018D000C30ED11C23E0E216F10409F0ABCF219630
:1018E000C430D10509F097CF01C081E0DF91CF91DD
:1018F0001F910F91FF90EF90DF90CF90BF90AF902E
:101900009F908F907F906F905F9008955F926F92FD
:101910007F928F929F92AF92BF92CF92DF92EF927F
:10192000FF920F931F93CF93DF93682E81E08093F4
:101930009302C0E0D0E080E0E0E25E2E7C2E812CBD
:10194000912C54E0E52EF12C90E09E0127583D4F5C
:1019500059019E0127573D4F6901F501E80DF91D19
:1019600024852132F0F18701F601E80DF91D0430DC
:101970001105B9F12081213238F1911131C0F801FE
:101980003197EE0FFF1FEE0FFF1FEC0FFD1FE75803
:10199000FD4F3081231325C0662099F1D801AA0F8D
:1019A000BB1FAA0FBB1FAC0FBD1FA758BD4F2F5F9A
:1019B0002C9350828C910E94340B672D802F0E94B3
:1019C000130481E091E00DC06620D9F0DF01149787
:1019D0008C9180835C920F5F1F4F349681E0C7CF5C
:1019E00090E021E0E21AF10834E0831A9108E11452
:1019F000F10409F0B2CF2196C430D10509F09ECF91
:101A000001C081E0DF91CF911F910F91FF90EF9086
:101A1000DF90CF90BF90AF909F908F907F906F900E
:101A20005F9008957F928F929F92AF92BF92CF92D4
:101A3000DF92EF92FF920F931F93CF93DF93882E45
:101A400081E080939302A9E7CA2EA2E0DA2EE12C6E
:101A5000F12C80E0B0E27B2E9E2CC3E0D0E090E041
:101A60005701AA0CBB1CAA0CBB1CF601EC0FFD1FF6
:101A700020812132D0F18E010F5F1F4F9E01233054
:101A8000310599F1D601A00FB11F4C914132F0F010
:101A900091112AC0D801AA0DBB1DA858BD4F2C9189
:101AA000421323C0882081F1F501E00FF11FE758B0
:101AB000FD4F4F5F40837C9280810E94340B602FEA
:101AC000892D0E94130481E091E00FC08820E1F08D
:101AD000F601E20FF31F80818C9370820F5F1F4F1E
:101AE0002F5F3F4F81E0CBCF90E0219708F0BDCF33
:101AF0009FEFE91AF90A24E0C20ED11C94E0E9161E
:101B0000F10409F0A9CF01C081E0DF91CF911F91CD
:101B10000F91FF90EF90DF90CF90BF90AF909F908C
:101B20008F907F9008952F923F924F925F926F9285
:101B30007F928F929F92AF92BF92CF92DF92EF925D
:101B4000FF920F931F93CF93DF93382E81E0809302
:101B5000930200E010E0C0E0D0E080E04EEFE42E21
:101B6000FF24FA94970129573240790150E2252E3B
:101B70005C2EF801E658FD4F6F0193E0492E20E0FE
:101B80003701601A710A4E01880C991C880C991C47
:101B9000F60191916F019132B8F15301AE0EBF1E63
:101BA000DF0112979C919132F0F021112AC0D501EA
:101BB000A80DB91DA658BD4F3C91931325C03320E5
:101BC00069F1F401EA0DFB1DE758FD4F9F5F90831B
:101BD0002C9280810E94340B6A2D852D0E94130463
:101BE00081E021E011C03320C9F08291DF0111971B
:101BF0008C932082C3018E0F9F1F019621F081E0FC
:101C0000CCCF20E001C081E04A9411F621960C5F10
:101C10001F4FC430D10509F0ABCF01C081E0DF9187
:101C2000CF911F910F91FF90EF90DF90CF90BF90D9
:101C3000AF909F908F907F906F905F904F903F906C
:101C40002F9008950F931F9381E08093E802809175
:101C50008F028823B9F00E940C2100918B02109111
:101C60008C0220918D0230918E02601B710B820BD1
:101C7000930B653F71408105910520F00E942E0471
:101C80000E94890584E992E00E944C11882309F49E
:101C90005CC166E08EE992E00E94FD0F882351F05E
:101CA0000E94240749EB50E061E870E084E992E08B
:101CB0000E94B61464E08EE992E00E94FD0F882332
:101CC00021F01092CE010E94E00865E08EE992E0DA
:101CD0000E94FD0F8111EFC080918A028111EBC03B
:101CE00061E08EE992E00E94FD0F882321F180914E
:101CF0009302811120C08091910281111CC00E9429
:101D00002E0481E00E94930D811115C080E00E9495
:101D1000120D8111E4C080E00E94F30B8111DFC03D
:101D20000E94860C91E08111DAC09093910210928A
:101D300093020E940F0563E08EE992E00E94FD0F7E
:101D4000882321F180919302811120C0809191021A
:101D500081111CC00E942E0481E00E94120D81118D
:101D600015C080E00E94930D8111BBC080E00E94ED
:101D7000F30B8111B6C00E94860C91E08111B1C0B5
:101D800090939102109293020E940F0560E08EE9F9
:101D900092E00E94FD0F882321F18091930281112E
:101DA00020C08091910281111CC00E942E0481E00C
:101DB0000E94F30B811115C080E00E94930D8111E8
:101DC00092C080E00E94120D81118DC00E94860C8D
:101DD00091E0811188C090939102109293020E9429
:101DE0000F0562E08EE992E00E94FD0F882321F149
:101DF00080919302811120C08091910281111CC0B9
:101E00000E942E0481E00E94860C811115C080E0A2
:101E10000E94930D811169C080E00E94120D811112
:101E200064C00E94F30B91E081115FC09093910216
:101E3000109293020E940F0580919302882321F152
:101E400080919102811120C00E940C2100918B028F
:101E500010918C0220918D0230918E02601B710BCB
:101E6000820B930B693C71058105910558F062E383
:101E700070E080E090E00E943B211092930281E0AC
:101E80000E9442040E940F0580919102882309F468
:101E90005CC0809190020E94B40584E992E00E94A7
:101EA0004C118823B1F365E08EE992E00E94FD0FAA
:101EB000882379F31CC082EE92E00E945D170E9495
:101EC0002E0410929102109290020E94980482E0D7
:101ED0000E9442040E940F0510928A0201CF90E0F6
:101EE00024CF90E04DCF90E076CF90E09FCF8091CF
:101EF000B801811103C066E472E002C068EB71E0D2
:101F000084E992E00E94D21664EE71E082EE92E0E3
:101F10000E94841A4BE063EC71E084E992E00E9435
:101F2000061263EC71E088EB91E00E94FE2560915F
:101F300065027091660280916702909168020E942A
:101F4000040A1F910F910C9491051F910F91089510
:101F5000E4E9F2E086E8DF011D928A95E9F783EB78
:101F600091E09093E3028093E2020895FC0188E0FF
:101F7000808389E0818387E0828386E0838384E0B5
:101F8000848382E0858381E186830895DF92EF92E6
:101F9000FF920F931F93CF93DF937C01EC0100E03E
:101FA00010E0DD24DA9462E088810E942A20888192
:101FB0000E949920F701E00FF11F892B21F48781FE
:101FC0008F5F878308C08781882349F08F3F11F492
:101FD000178201C0D78260E088810E942A200F5FAB
:101FE0001F4F219607301105F1F6DF91CF911F9118
:101FF0000F91FF90EF90DF900895FC01E60FF11D27
:1020000081E09781913009F080E00895262F30E03B
:10201000FC01E20FF31F8781423028F481508E3F8C
:1020200048F080E008958F3FE1F3642F0E9403257C
:102030009130B9F781E00895CF92DF92EF92FF924D
:102040000F931F93CF93DF93EC010A8D1B8D0095A7
:1020500010950E9418216B017C010E941821C094E8
:10206000D094E094F0946095709580959095C69E7C
:102070009001C79E300DD69E300D1124209F700117
:10208000219FF00C309FF00C11240980DA81C02DC3
:102090000E941821CE01860F971F8E0D9F1DDF9184
:1020A000CF911F910F91FF90EF90DF90CF900C9404
:1020B00018228F929F92AF92BF92CF92DF92EF92AF
:1020C000FF920F931F93CF93DF93EC015C0185E8A0
:1020D000A80EB11CD5018C91882309F44FC08C3017
:1020E00018F41CE0181B01C010E0FE01EA5AFF4F73
:1020F00081E080836E01BEE4CB0ED11C60E0C6019E
:102100000E94B3174E01E3E58E0E911CD4018C9111
:1021100003E0080F9DE2F92E4F2D481B410F23E0ED
:10212000E22E24E560E0C6010E94B31961E0C60119
:102130000E94B317F401808103E0080F4F2D481B64
:10214000410F24E560E0C6010E945319FE01E95ADF
:10215000FF4F84E08083FE01E85AFF4FD4018C9149
:10216000181B115D1083CD57DF4F68817981C6013F
:102170000E94E522F501808181508083DF91CF911B
:102180001F910F91FF90EF90DF90CF90BF90AF9095
:102190009F908F9008950F931F93CF93DF93EC013F
:1021A0008C01025B1F4F40E061E0C8010E94B7173D
:1021B000FE01E95AFF4FDE01AE5ABF4F85E59C9103
:1021C000891B8083FE01E85AFF4F1082698D6130C0
:1021D00009F43CC028F0888D653008F04EC049C035
:1021E000CE0185960E94931D60E0CE010E94651F7E
:1021F000C8010E945D17FE01EA5AFF4F81E080830B
:1022000069E476E0C8010E94E5226A8D7B8D4AE090
:1022100050E0C8010E94B12365E376E0C8010E9446
:10222000E522C8010E946E1783B7817F846083BF57
:1022300083B7816083BF83B7816083BF889583B78D
:102240008E7F83BF83B78E7F83BF21C0C059DF4F8E
:10225000488159816A817B814F705527662777278E
:10226000483051056105710510F467E009C068E761
:1022700007C0882361F06B5F03C0882341F06FE2E1
:10228000C801DF91CF911F910F910C940C23DF9126
:10229000CF911F910F9108958F929F92AF92BF920D
:1022A000EF92FF920F931F93CF93DF93EC017C018A
:1022B0000FE7E00EF11CF70180809180A280B380CF
:1022C0000E940C2195018401061B170B280B390B6A
:1022D000B901A8015E011EE7A10EB11CF5018081C4
:1022E00090E0A0E0B0E08E0106581F4F84179507DC
:1022F000A607B70750F4F80180819181A281B381CC
:10230000892B8A2B8B2B09F040C0F80180819181A9
:10231000A281B381892B8A2B8B2BA9F57E01F5E253
:10232000EF0EF11CC7010E94901DC7010E94FD1D08
:10233000C7010E94C11ECE010E945910CE010E9409
:10234000CB107E012EE4E20EF11CC7010E946E1735
:10235000FE01EC5AFF4F8081811103C0C7010E942A
:102360005D170E941821F801608371838283938333
:10237000FE01EC58FF4FCA58DF4F28813981621B9C
:10238000730B7183608380E036C00E940C21F501DD
:102390002081620F711D811D911DF7016083718382
:1023A00082839383FE01E059FF4F40815181628116
:1023B00073814F5F5F4F6F4F7F4F408351836283C5
:1023C0007383F80110821182128213820E941821F5
:1023D000FE01EA58FF4F6083718382839383CE01AD
:1023E0000E94691FCE010A960E94C60FCE01489630
:1023F0000E94401C81E0DF91CF911F910F91FF90CF
:10240000EF90BF90AF909F908F9008952F923F9242
:102410004F925F926F927F928F929F92AF92BF92F4
:10242000CF92DF92EF92FF920F931F93CF93DF93A0
:10243000CDB7DEB763970FB6F894DEBF0FBECDBF42
:102440006C011B01442EFC01EC5AFF4F1082842FBB
:1024500090E0FB01E80FF91F3197108230E33987D4
:1024600034E53A8712E0612E712C512C560143E578
:10247000A40EB11C460152E5850E911CD601A25B4B
:10248000BF4FBB8BAA8BF601E95AFF4FFE83ED834A
:102490009601285A3F4F38872F839C878B87019757
:1024A0009E878D87C6010E944C118823D9F386012F
:1024B000065F1F4F44E063E0C8010E9406108823B6
:1024C00029F06394C60185960E943E1F44E061E0B6
:1024D000C8010E940610882329F06A94C6018596D7
:1024E0000E943E1F44E062E0C8010E94061088235B
:1024F00029F07394C60185960E943E1F44E060E077
:10250000C8010E940610882329F07A94C601859696
:102510000E943E1F30E1731629F077FE04C0BFE031
:102520007B2E01C0712C48E0641629F067FE04C0C0
:10253000A7E06A2E01C0612CD5013C91F4012081F5
:102540002095279D202D1124295DFA858F2F99270D
:1025500087FD9095820F911D27FD9A9597FD019615
:10256000AC01559547955A83498359815F875A87AE
:1025700024E1231B3095369D200D11243985832FAE
:10258000992787FD9095820F911D27FD9A9597FDBC
:102590000196AC01559547955C834B835B81588BC5
:1025A000598764E0C8010E94FD0F882351F1E52D91
:1025B000FF27E7FDF0954D855E85E417F50794F458
:1025C000872D50E1659E800D1124882309F46ACF80
:1025D0008A3009F467CF8D3009F464CFE20DF31D22
:1025E000808311825394C60185960E94121F852D07
:1025F000992787FD9095AB85BC85A817B9070CF482
:10260000542C65E0C8010E94FD0F882379F05A948C
:10261000C60185960E94281F57FC07C0F101E50DF1
:10262000F11D57FCFA95108201C0512C66E0C801DB
:102630000E94FD0F882309F447C07601B5E2EB0E36
:10264000F11CC7010E94121FC6010E944C11882371
:10265000D9F369E776E08A899B890E942723B10133
:102660008A899B890E940A2368E676E08A899B8989
:102670000E94272364E0C8010E94FD0F8823D9F03F
:10268000C70163960FB6F894DEBF0FBECDBFDF91D2
:10269000CF911F910F91FF90EF90DF90CF90BF905F
:1026A000AF909F908F907F906F905F904F903F90F2
:1026B0002F900C94121F65E0C8010E94FD0F882323
:1026C00019F2C7010E94281F30E0F12C10E0212FE1
:1026D000230FF50180814F2DF89E400D112458895C
:1026E000450FD4018C91612F189F600D11245F85D7
:1026F000650F01E08A899B89398B0E94581B1F5FF7
:102700003989103121F7F394305F88E0F812DECF79
:10271000D4018C911AEFB981819FB00D11248B2FB8
:102720008250ED81FE818083D5018C918F5FBB81CA
:102730008B0FEF81F885808362E676E08A899B893A
:102740000E94E522D4018C91B981819FB00D1124A2
:102750008B2F8250ED81FE818083D5018C91880F73
:102760008E5FBB818B0FEF81F88580836CE576E00F
:102770008A899B890E94E522D4018C91B981819F2D
:10278000B00D11248B2F8250ED81FE818083D50105
:102790008C9190E00196982F990F980FBB819B0F19
:1027A000EF81F885908366E576E08A899B890E94AF
:1027B000E52260E08A899B890E94B317D5018C913C
:1027C000462D689E400D11244250BB814B0FF401F1
:1027D0008081672D789E600D11246150F9816F0F03
:1027E00027E08A899B890E94651861E08A899B8914
:1027F0000E94B317D5013C91F4012081E22FF0E053
:1028000005E0030F2E5FCF01019762E070E00E94A8
:102810002325280F462D639E400D112443503B81F4
:10282000430F672D7E9E600D112462505981650F04
:1028300073E0E72E8A899B890E9453194EE2D501E5
:102840008C91481B24E560E08A899B890E94651869
:1028500060E08A899B890E94B317F501808101E0BD
:10286000080F4FE2481B24E560E08A899B890E949B
:102870003C18AD81BE811C9210E3F5018081F12FDF
:10288000F81BAF81B885FC9361E08A899B890E941F
:10289000B317B1018A899B890E940A23F601E05986
:1028A000FF4F80819181A281B38187709927AA27E8
:1028B000BB270497A105B10508F0F4CD852D992714
:1028C00087FD9095ED85FE858E179F070CF0EACD6C
:1028D000D5018C91412F481BF4016081569E602DDB
:1028E000112401E02FE58A899B890E94581BDACDCB
:1028F0000F931F93CF93DF938C01EC01C25BDF4FEB
:10290000CE010E945D176DE076E0CE010E94E522C7
:10291000CE010E946E1783E00E94EC1F88EA91E0CE
:10292000EEEFFFE30995F801EC5AFF4F108268EED5
:1029300075E0CE010E942723CE010E946E17065F2C
:102940001F4FC8010E94C60F64E0C8010E94FD0F1E
:10295000811107C062E370E080E090E00E943B21BB
:10296000F0CFDF91CF911F910F9108952F923F9259
:102970004F925F926F927F928F929F92AF92BF928F
:10298000CF92DF92EF92FF920F931F93CF93DF933B
:10299000CDB7DEB72A970FB6F894DEBF0FBECDBF16
:1029A0009A8789871B012A013C018FE6680E711CFA
:1029B000F3018081882309F404C181E0E985FA8567
:1029C000EA5AFF4F8083E985FA85EB5AFF4F108260
:1029D000E985FA85EC5AFF4F1082E985FA85108E59
:1029E0008F01025B1F4F61E0C8010E94B317F10124
:1029F000F491FF83C984DA8487E5C80ED11CE98489
:102A0000FA8498E5E90EF11CE985FA85EE5AFF4F44
:102A1000FA83E98389859A8580599F4F9E838D83A8
:102A2000E985FA85ED5AFF4FFC83EB8389849A840C
:102A3000FAE08F0E911CA984BA8485E2A80EB11C1D
:102A400089859A850E944C118823D1F39F8199230F
:102A500021F0EB81FC81508101C050E02AE936E091
:102A600040E060E0C80158870E94EC195885411485
:102A7000510439F04CE0450F920160E0C8010E941A
:102A8000EC19F60110828CE0F7018083B101C801D6
:102A90000E94E522E981FA819081892F880F890FB0
:102AA00081958D5AF6018083EB81FC819081892F7D
:102AB000880F890F8195835DF7018083ED81FE8109
:102AC000808184FF03C066E976E002C062E976E0B7
:102AD000C8010E942723E981FA819081892F880FFC
:102AE000890F81958D5AF6018083F70180818F5F70
:102AF0008083E985FA8582A5882319F06EE876E05F
:102B000002C06AE876E0C8010E942723E981FA81C1
:102B10009081892F880F890F81958D5AF6018083C6
:102B2000F70180818F5F808366E876E0C8010E94AC
:102B3000272365E0C4010E94FD0F882351F0E98539
:102B4000FA8562A56F5FC5010E94541FC5010E94EE
:102B50003E1F64E0C4010E94FD0F811113C0F30108
:102B60002081822F90E0A0E0B0E0ED81FE814081E5
:102B7000518162817381481759076A077B07A8F062
:102B80002F3F99F08FEFF301808309851A850B5D44
:102B90001F4F60E0C8010E943A1DC8010E94121F29
:102BA00081E0E985FA85808F0CC066E0C4010E944F
:102BB000FD0F882309F444CF89859A850E947814F3
:102BC0002FCF2A960FB6F894DEBF0FBECDBFDF9190
:102BD000CF911F910F91FF90EF90DF90CF90BF901A
:102BE000AF909F908F907F906F905F904F903F90AD
:102BF0002F900895E0E8F7E72591349181E02130A6
:102C0000304C09F080E00895CF93DF93EC010E94EF
:102C1000FA159E01275A3F4FDE01A159BF4F882365
:102C200009F43CC0E6E9F7E78491F9018083E7E91C
:102C3000F7E7E491EC83E8E9F7E7E491ED83E9E96C
:102C4000F7E7859194919F838E83EBE9F7E7859170
:102C5000949199878887EDE9F7E7E491EBA7EEE98E
:102C6000F7E7E491EAA7EFE9F7E7E491EC93E0EA0C
:102C7000F7E7859194919D8F8C8FE2EAF7E7859134
:102C800094919F8F8E8FE4EAF7E78591949199A3B1
:102C900088A3E6EAF7E78591949120C08CE3F901D7
:102CA00080831C822FEF2D8380E293E09F838E83AD
:102CB00084ED93E09987888781E08BA78AA72C937E
:102CC0008CEA9DE09D8F8C8F8EED9DE09F8F8E8F87
:102CD00084E79EE099A388A38CE39FE09BA38AA34B
:102CE000DF91CF910895CF92DF92EF920F93CF9320
:102CF000DF93EC01FC01E258FF4F82E38083FE0189
:102D0000E658FF4F41E050E060E070E040835183BF
:102D100062837383FE01E159FF4F8FEF8083CE0101
:102D20000E940416CE010E94611F6FEFCE010E9427
:102D3000651F6E018AE0C80ED11CC6010E94B60F45
:102D4000C6010E94C60FCE0148960E94361C0EE0B6
:102D5000E02E0FE020E14BE06DE0CE01825B9F4F63
:102D60000E94981AA596CE010E94A61C65E0C60195
:102D70000E94FD0F882351F060E0CE01DF91CF91DA
:102D80000F91EF90DF90CF900C94541F40E06AE0D9
:102D900077E0CE01DF91CF910F91EF90DF90CF9050
:102DA0000C94451DCF93DF9300D0CDB7DEB7698378
:102DB0007A830E94FA1569817A81882351F0DB01B8
:102DC000EBE8F7E784918D933196E53987E7F807CB
:102DD000C9F70F900F90DF91CF9108958EBD0DB47C
:102DE00007FEFDCF8EB50895643508F047C0403327
:102DF00008F044C0FC01878D242F25952595259545
:102E0000E62FFF27E7FDF0954770823091F4DF0150
:102E1000A65EBC4F84E52802A00DB11D11248C9143
:102E200090E0042E02C0959587950A94E2F780956C
:102E30008170811112C084E52802E00DF11D11247A
:102E4000E65EFC4F81E090E0042E01C0880F0A94FA
:102E5000EAF780959081982310C084E52802E00D60
:102E6000F11D1124E65EFC4F81E090E0042E01C0CC
:102E7000880F0A94EAF79081982B908308951F9306
:102E8000CF93DF93EC01162FF89460E08E850E94BB
:102E900063208F8518161CF460E00E946320812F48
:102EA0000E94EE168F8518161CF461E00E946320C4
:102EB0007894DF91CF911F91089528EF31E0EAE1F6
:102EC000F3E0DF01A9011D9241505040E1F7DC0120
:102ED00019961C9219971A961C920895DF92EF92F8
:102EE000FF920F931F93CF93DF93EC018AE1E82EBB
:102EF00083E0F82ED12C6D2D6064CE010E943F1727
:102F000060E8CE010E943F1761E08E850E94632039
:102F10008F8518161CF460E00E94632000E010E02A
:102F2000F701E00FF11F80810E94EE160F5F1F4F27
:102F300004351105A9F78F8518161CF461E00E946D
:102F40006320D39484E5E80EF11C86E0D812D3CF39
:102F500060E4CE01DF91CF911F910F91FF90EF9030
:102F6000DF900C943F17FC01678F60A30895FC016C
:102F7000678F40A30895AF92BF92CF92DF92EF92F6
:102F8000FF920F931F93CF93DF93EC01162FF42E34
:102F9000E22EA02FBB27A7FDB095A41BB10947FDCA
:102FA000B395B7FF03C0B195A195B109EE2DFF27E9
:102FB000E7FDF095E11BF10917FDF395F7FF03C05D
:102FC000F195E195F109BB24B394EA17FB0714F0DE
:102FD000B12C06C08E2DE02E082F812F1F2DF82E2C
:102FE000E11634F48F2DF02E082F812F1E2DE82EA0
:102FF000CE2CC11AE02FFF27E7FDF095EF19F1095C
:10300000F7FCF395F7FF03C0F195E195F109AE2EBA
:10301000DC2CC7FE03C0DD24D394DC0CD594F01661
:1030200014F401E00FC00FEF0DC0BB2071F0412F71
:103030006F2DCE010E94F416DA18D7FE02C0F00EF2
:10304000DC0C1F5FE1168CF703C04F2D612FF1CF11
:10305000DF91CF911F910F91FF90EF90DF90CF9074
:10306000BF90AF9008950F93022F0150040F262FA9
:103070000E94BB170F910895DF92EF92FF920F937A
:103080001F93CF93DF937C01D42E162FC22FDD2701
:10309000C7FDD095C60FD11D67FDDA95812F992701
:1030A00087FD90958C179D0744F4202F4D2D612F9F
:1030B000C7010E9433181F5FF1CFDF91CF911F919D
:1030C0000F91FF90EF90DF9008950F932150260FFE
:1030D000042F0E94BB170F9108958F929F92AF9279
:1030E000BF92CF92DF92EF92FF920F931F93CF93F5
:1030F000DF93EC01E62ED42E122FCC24C394C21AF7
:10310000B22EB194BB0CF12C802F8470A82E802F8E
:103110008270982E802F8870882E0170F1160CF026
:103120004DC0C7FC04C01150B394B394CB0CF394BE
:103130008F2D880F8F5FC80EAA2071F0412F4D0D83
:103140006F2D6E0DCE010E94F4164F2D4D0D612F87
:103150006E0DCE010E94F416992071F04D2D411B89
:103160006F2D6E0DCE010E94F4164D2D4F19612F5B
:103170006E0DCE010E94F416882071F04F2D4D0D7A
:103180006E2D611BCE010E94F416412F4D0D6E2D48
:103190006F19CE010E94F416002309F4BFCF4D2D04
:1031A0004F196E2D611BCE010E94F4164D2D411B4F
:1031B0006E2D6F19CE010E94F416B0CFDF91CF9122
:1031C0001F910F91FF90EF90DF90CF90BF90AF9045
:1031D0009F908F9008958F929F92AF92BF92CF92BF
:1031E000DF92EF92FF920F931F93CF93DF93EC0147
:1031F000B62EA42E122FDD24D394D21AC22EC1943F
:10320000CC0CFF24F394802F8170882E9924939402
:103210009E0C02708FEF8F0D8117C4F5D7FC04C090
:103220001150C394C394DC0C8F2D880F8F5FD80E80
:10323000882099F0212F220F290D4A2D411B6F2D37
:103240006B0DCE010E94331823E02E0D4A2D4F192D
:10325000612F6B0DCE010E943318002399F0212FAE
:10326000220F290D4A2D411B6B2D6F19CE010E9493
:10327000331823E02E0D4A2D4F196B2D611BCE0103
:103280000E943318F394E394E394C4CFDF91CF9179
:103290001F910F91FF90EF90DF90CF90BF90AF9074
:1032A0009F908F9008959F92AF92BF92CF92DF929E
:1032B000EF92FF920F931F93CF93DF93EC01B62E03
:1032C000F42EA22EDE2CD194DD0C9D2C920E1E2D00
:1032D000160F292D612F0E946518CC24CA94C00EA8
:1032E000CF0C292D4C2D612FCE010E946518D00ED8
:1032F000FE0C2D2D4F2D6B2DCE010E943318BA0CD4
:103300006FEF6B0D2D2D4F2DCE010E94331801E074
:103310002E2D4F2D612FCE010E946D18DE2CD094E2
:10332000DB0C02E02E2D4F2D6D2DCE010E946D186D
:10333000CE1804E02E2D4C2D6D2DCE010E946D185F
:1033400008E02E2D4C2D612FCE010E946D18DF91CB
:10335000CF911F910F91FF90EF90DF90CF90BF9092
:10336000AF909F900895AF92BF92CF92DF92EF926D
:10337000FF920F931F93CF93DF93EC01A62EC42EE1
:10338000B22EF02E1E2DE194EE0CD12ED60E2E2D47
:103390002B0D6D2D0E943C18FA94FE0CC10E6FEFA0
:1033A0006A0D6B0D611BEF2C01E0212F4C2DCE011E
:1033B0000E94EB1802E0212F4C2D6D2DCE010E94B2
:1033C000EB18DF91CF911F910F91FF90EF90DF905D
:1033D000CF90BF90AF9008952F923F924F925F92FF
:1033E0006F927F928F929F92AF92BF92CF92DF9215
:1033F000EF92FF920F931F93CF93DF9300D000D0F3
:103400001F92CDB7DEB77C01262E542FF90104910F
:103410003196A4902901F2E04F0E511C10E0B80142
:10342000695F7F4F93E0759567959A95E1F77D8386
:103430006C8320E030E8C32ED12CB12C822F992749
:1034400087FD9095801791070CF046C0822F27FFCB
:1034500002C087E0820F682E659465946594822F80
:10346000877887FF03C08150886F8F5F460102C055
:10347000959487948A95E2F7312C772467FC7094B1
:10348000322F320D832D992787FD90958A159B0544
:103490000CF56C817D81869FF001879FF00D969FD2
:1034A000F00D1124E60DF71DE40DF51DE491F0E09B
:1034B000E821F921EF2B61F0432D450F632FC70160
:1034C00029833B835A830E94F4165A813B812981C8
:1034D0003394D8CF2F5FB2CF0F900F900F900F90F3
:1034E0000F90DF91CF911F910F91FF90EF90DF90A0
:1034F000CF90BF90AF909F908F907F906F905F9094
:103500004F903F902F900895DC01FB0184918F5FD5
:1035100014968C9314973196E491EF5F1596EC9383
:1035200015976E5F7F4F5E967C936E935D970895BF
:10353000EF920F93CF93DF93EC014D876C872E872B
:10354000E88A0F8781E088878F8F18A28F8366E6CD
:1035500074E0CE010E94841A0E94C81F81E00E947C
:10356000DE1F85E00E94EC1F8CE00E94E71F61E0F7
:103570008D850E942A2061E08C850E942A2061E0CE
:103580008E850E942A20888918161CF461E00E940A
:103590002A208F8518161CF461E00E942A20888951
:1035A00018166CF460E00E9463206AE070E080E02E
:1035B00090E00E943B2161E088890E9463208C8515
:1035C000992787FD9095FC01E356F84FE491F0E0D0
:1035D000EE0FFF1FE554F84F259134913C8B2B8B58
:1035E000FC01E757F84F84918A8F8D85992787FDD5
:1035F0009095FC01E356F84FE491F0E0EE0FFF1FC9
:10360000E554F84F259134913A8B298BFC01E7570B
:10361000F84F8491898F8F85992787FD9095FC01BC
:10362000E356F84FE491F0E0EE0FFF1FE554F84F3A
:10363000259134913E8B2D8BFC01E757F84F8491F7
:103640008B8F8E85992787FD9095FC01E356F84F67
:10365000E491F0E0EE0FFF1FE554F84F259134910F
:10366000388F2F8BFC01E757F84F84918C8F61E2E4
:10367000CE010E943F1764E1CE010E943F178B8567
:1036800087FF02C08FE78B876B856068CE010E9441
:103690003F1760E2CE010E943F176CE0CE010E940E
:1036A0003F17CE01DF91CF910F91EF900C946E17E1
:1036B0006F927F928F929F92AF92BF92CF92DF9242
:1036C000EF92FF920F931F93CF93DF93EC01162F8E
:1036D000F42EB02EEF8C64350CF081C08FE284178D
:1036E0000CF47DC0EC81F0E031970E9FC0010F9F7C
:1036F000900D1124860F911D67FD9A9518161906D5
:103700000CF06DC08D81809FC0011124840F911D2C
:1037100047FD9A95181619060CF061C0A62E962E34
:10372000C22ED12C8A2D811B992787FD90952C8143
:1037300030E0821793070CF051C0215031098217F5
:10374000930779F0C29ED001C39EB00DD29EB00DFA
:103750001124A80FB91FED8DFE8DEA0FFB1F749089
:1037600001C0712C8F2C6F2C282D2F19332727FD8A
:1037700030958D8190E0281739076CF570FE11C0E7
:1037800081E0B81206C0482D6A2DCE010E94F416C1
:103790001EC00B2D2B2D462D692DCE010E943C18ED
:1037A00016C088A19F8D891791F08F8F81E0B81284
:1037B00006C0482D6A2DCE010E94F41607C00B2DBD
:1037C0002B2D462D692DCE010E943C18EF8E76944C
:1037D0006B0C8394C9CF9B0CA394A4CFEF8EDF9185
:1037E000CF911F910F91FF90EF90DF90CF90BF90FE
:1037F000AF909F908F907F906F9008950F93CF938D
:10380000DF93EC01262F6A3039F42D8198858A8563
:10381000299F800D112422C06D3011F108854A8541
:1038200069850E94581B48855C812985549F200D1D
:10383000112429878F81882399F0332727FD30951C
:1038400084E590E0459F8019910911248217930720
:103850003CF49D818A85499F800D11248A871986B1
:1038600081E090E0DF91CF910F910895FC018CE30E
:103870009FE09383828384E0818381E0848708953D
:10388000CF93DF93EC018C858F7151F584E10E9419
:103890009C21BC01882777FD8095982F0E940424E5
:1038A00026EE3FE34EEC50E40E9490240E94D62383
:1038B0009B017B836A836115710581F084E08983B4
:1038C000FE0140E0848195812817390710F449836F
:1038D0000AC04F5F32964430A9F702C08FEF898348
:1038E0008C858F5F8C87DF91CF91089550E0DA014E
:1038F000AA0FBB1FA80FB91F1F963C911F97509688
:103900002C915097E32FF22FE60FF11DE60FF11DDA
:103910002591349190963C932E935F97F9012591D0
:103920003491FC01B481B29FA02D1124E40FF51F46
:10393000A1A3632F70E08A2F90E06817790708F43D
:10394000A32FAB9FA02D1124A2A3089521E0FC0179
:10395000248324E020A729E637E0308B278740E046
:1039600060E00E94761C61E070E083E00E94B92173
:10397000E1EBF0E08081887F81608083F894109291
:103980008000E1E8F0E0108210928500109284003F
:1039900088E191E09093890080938800808188601D
:1039A0008083808181608083EFE6F0E080818260A7
:1039B0008083789408950F93FC01862F642F011162
:1039C00029C08230D1F048F4882391F0813011F57C
:1039D00040E0CF010F910C94761C8330A9F0843025
:1039E000C9F48481489F602D1124658F268F12C0F1
:1039F0004B3008F06AE0668B0DC08481489F602DD3
:103A00001124618F228F06C08481489F602D11246C
:103A1000638F248F0F910895FC0121110EC0648BD8
:103A20008481489F402D1124458B15A214A213A216
:103A300081E0878B80931605108E0895809116057E
:103A4000882319F08091130501C080E08093B400B1
:103A50000895FC0161110DC0178A158A14A213A2E2
:103A6000108E1092130510921405109216050C94E6
:103A70001E1D0895CF93DF93EC01611103C00E94D6
:103A8000291D1982DF91CF9108950F931F93CF9332
:103A9000DF93EC018B0141110EC060E00E943A1DE2
:103AA0001E870D871B8A1A8A81E0898389E08E8BA5
:103AB000198E1B8E1D8EDF91CF911F910F9108954E
:103AC000CF93DF93EC01611128C08881882329F10D
:103AD0008981811122C089852F819885E22FF92F54
:103AE000E80FF11DE80FF11D859194918F3F2FEFA5
:103AF000920711F4188211C09C879927880F991F8B
:103B0000EA85FB85E80FF91F6591749140E0CE01CD
:103B10000E94451D89858F5F8987DF91CF91089528
:103B200060E00C94601D60E00C943A1D0F93CF93FD
:103B3000DF93EC0161115DC08981882309F459C0CC
:103B40008D89811156C02D853E858A899B89880F74
:103B5000991F820F931FFC01859194910097D1F4D6
:103B60008989813021F41B8A1A8AF90111C01982CE
:103B7000888160E0882331F0CE010E94601D8A892F
:103B80009B8925C0CE01DF91CF910F910C94291D07
:103B900085919491BC01769567957695679580FFA0
:103BA0001DC0AC0176E0569547957A95E1F7292F2F
:103BB00026952695269520514F716F7000E0CE0115
:103BC0000E94DB1C8A899B8901969B8B8A8B880FBC
:103BD000991FED85FE85E80FF91FDACF492F6F7326
:103BE00020E0CE010E940C1D8A899B8901969B8B47
:103BF0008A8BDF91CF910F91089560E00C94961D10
:103C0000CF93DF93EC016111B9C08F89882309F448
:103C1000B5C08D89811105C0CE01DF91CF910C9483
:103C2000291D81508D8B8DA1811138C08BA19CA144
:103C300001969C01220F331FEF8DF8A1E20FF31FB5
:103C400025913491422F47704EA3A901A3E05695C8
:103C50004795AA95E1F7BA0176956795232F2695A2
:103C600026952FA36F732C81629F602D11246DA365
:103C70004170409312059CA38BA329A130E08217C9
:103C8000930760F08AA1882329F0281B31093CA3FF
:103C90002BA304C060E0CE010E94291D8DA181509C
:103CA0008DA3288D2F5F288F4C893FA1340F8C85E1
:103CB000380F3A836B8D662361F070E0822F99276D
:103CC00087FD90950E9423258C8D869F300D1124B1
:103CD0003A838A8190E0CB966BE370E00E942325C3
:103CE0008A833E893B83698D662371F0772767FD60
:103CF0007095822F992787FD90950E9423258A8DA4
:103D0000869F300D11243B836D8D662391F0822FA9
:103D1000992787FD909570E00E942325CB0162E0F2
:103D200070E00E9423252E8D9B81289F900D1124E9
:103D30009B838B814F3339F08A300CF089E087FD0B
:103D400080E08B8301C01B82F894EA81F0E0E85E9A
:103D5000F84FE491E093150598A58D81989F802DEB
:103D600011249B81899F802D11249EA1899F802DE4
:103D7000112480931405809313057894DF91CF91DB
:103D8000089560E00C94001E60911405662329F1EB
:103D9000809117058F5F80931705909115058917FE
:103DA000E0F081E090911605911180E08093160576
:103DB0001092170580911205882369F090910601F1
:103DC00083E4989F802D1124895B809306010E94D3
:103DD0000325909313050C941E1D08951F920F92B6
:103DE0000FB60F9211242F933F934F935F936F93CE
:103DF0007F938F939F93AF93BF93EF93FF930E9413
:103E0000C41EFF91EF91BF91AF919F918F917F91D0
:103E10006F915F914F913F912F910F900FBE0F9037
:103E20001F901895CF93DF93EC0160E00E943A1D3C
:103E300081E697E09E878D871B8A1A8A81E08983B5
:103E400089E08E8B198E1B8E1D8EDF91CF91089588
:103E5000CF93DF93EC0160E00E943A1D89E597E083
:103E60009E878D871B8A1A8A81E0898389E08E8BE1
:103E7000198E1B8E1D8EDF91CF910895CF93DF9306
:103E8000EC0160E00E943A1D83E597E09E878D87F4
:103E90001B8A1A8A81E0898389E08E8B198E1B8E9A
:103EA0001D8EDF91CF910895FC01862F992787FD04
:103EB0009095668170E06F5F7F4F0E942325858318
:103EC000089521E0FC012083089570E085E00C94C2
:103ED000B921AF92BF92CF92DF92EF92FF920F93F0
:103EE0001F93CF93DF93EC0189819A812FE0289F64
:103EF0008001299F100D112485E10E949C21800FD3
:103F0000911F24E0969587952A95E1F79A838983F6
:103F10002881222391F1AC81AD80B12CC12CD12C10
:103F2000E885F9857F0100E010E06E817F819B01CB
:103F300040E050E08617970728F0BC01E817F90722
:103F400008F4BF0180E090E01F921F921F92AF9390
:103F50000E9460226B830F900F900F900F9070E083
:103F600085E0DF91CF911F910F91FF90EF90DF904F
:103F7000CF90BF90AF900C94B921DF91CF911F915A
:103F80000F91FF90EF90DF90CF90BF90AF9008958A
:103F900061E08AE00E94632061E08AE00E942A20BA
:103FA0008CB580618CBD8CB580648CBD61E08DE08A
:103FB0000E942A2061E08BE00C942A20811103C02A
:103FC0008CB5806202C08CB58F7D8CBD08959CB588
:103FD000937F982B9CBD08952CB5982F93702C7FC0
:103FE000922B9CBD9DB582FB882780F99E7F982BE4
:103FF0009DBD0895CB010C940526CB01642F0C9434
:104000000D26833081F028F4813099F08230A1F0C0
:1040100008958630A9F08730B9F08430D1F48091CA
:1040200080008F7D03C0809180008F778093800017
:10403000089584B58F7702C084B58F7D84BD0895BF
:104040008091B0008F7703C08091B0008F7D809306
:10405000B0000895CF93DF9390E0FC01E757F84F4D
:104060002491FC01E356F84F8491882349F190E0B4
:10407000880F991FFC01EB53F84FA591B49185541B
:10408000984FFC01C591D4919FB7611108C0F89475
:104090008C91209582238C93888182230AC0623080
:1040A00051F4F8948C91322F309583238C9388812E
:1040B000822B888304C0F8948C91822B8C939FBFB1
:1040C000DF91CF9108950F931F93CF93DF931F92AA
:1040D000CDB7DEB7282F30E0F901EB58F84F8491C7
:1040E000F901E757F84F1491F901E356F84F04919D
:1040F0000023C9F0882321F069830E94012069818F
:10410000E02FF0E0EE0FFF1FE554F84FA591B491BA
:104110009FB7F8948C91611103C01095812301C061
:10412000812B8C939FBF0F90DF91CF911F910F91A7
:104130000895CF93DF93282F30E0F901EB58F84F23
:104140008491F901E757F84FD491F901E356F84FFC
:10415000C491CC2391F081110E940120EC2FF0E05A
:10416000EE0FFF1FEF54F84FA591B4912C912D2322
:1041700081E090E021F480E002C080E090E0DF91F7
:10418000CF9108951F920F920FB60F9211242F9383
:104190003F938F939F93AF93BF9380911A05909114
:1041A0001B05A0911C05B0911D053091190523E058
:1041B000230F2D3720F40196A11DB11D05C026E85F
:1041C000230F0296A11DB11D2093190580931A0596
:1041D00090931B05A0931C05B0931D0580911E05AF
:1041E00090911F05A0912005B09121050196A11D78
:1041F000B11D80931E0590931F05A0932005B093D9
:104200002105BF91AF919F918F913F912F910F9079
:104210000FBE0F901F9018952FB7F89460911A0554
:1042200070911B0580911C0590911D052FBF08956D
:104230003FB7F89480911E0590911F05A09120052D
:10424000B091210526B5A89B05C02F3F19F0019616
:10425000A11DB11D3FBF6627782F892F9A2F620FAE
:10426000711D811D911D42E0660F771F881F991FE8
:104270004A95D1F70895CF92DF92EF92FF92CF93B4
:10428000DF936B017C010E941821EB01C114D10462
:10429000E104F10479F00E9418216C1B7D0B683E4B
:1042A0007340A0F381E0C81AD108E108F108C851B1
:1042B000DC4FECCFDF91CF91FF90EF90DF90CF906C
:1042C0000895789484B5826084BD84B5816084BD8E
:1042D00085B5826085BD85B5816085BDEEE6F0E07F
:1042E000808181608083E1E8F0E0108280818260DB
:1042F0008083808181608083E0E8F0E0808181605C
:104300008083E1EBF0E0808184608083E0EBF0E08B
:10431000808181608083EAE7F0E08081846080832F
:1043200080818260808380818160808380818068D9
:1043300080831092C10008958E3008F08E508770EF
:104340002091070190E4299F90011124822B8093F2
:104350007C0080917A00806480937A0080917A005A
:1043600086FDFCCF809178002091790090E0922B1F
:1043700008951F93CF93DF93182FEB0161E00E9404
:104380002A20209711F460E004C0CF3FD10539F412
:1043900061E0812FDF91CF911F910C946320E12F79
:1043A000F0E0EB58F84FE491E330F9F048F4E130F5
:1043B000B9F0E230A1F584B5806284BDC8BD34C0D7
:1043C000E630E9F0E73019F1E43049F580918000FA
:1043D000806280938000D0938B00C0938A0024C0B9
:1043E00084B5806884BDC7BD1FC08091800080688F
:1043F00080938000D0938900C093880015C080917D
:10440000B00080688093B000C093B3000DC080916D
:10441000B00080628093B000C093B40005C0C03883
:10442000D1050CF0B5CFAFCFDF91CF911F9108959B
:10443000009729F0BC0180E090E00C94EC250895F1
:10444000CF93DF9300D000D0CDB7DEB79B01AC0196
:10445000611571058105910569F069833A834B8384
:104460005C830E94E72529813A814B815C810E940F
:10447000592503C060E070E0CB010F900F900F90C2
:104480000F90DF91CF910895CF92DF92EF92FF923C
:104490006B017C01621773078407950764F4CA01F6
:1044A000B9016C197D098E099F090E9420226C0DAB
:1044B0007D1D8E1D9F1DFF90EF90DF90CF90089582
:1044C0004F925F926F927F92AF92BF92CF92DF92A4
:1044D000EF92FF920F931F93CF93DF93CDB7DEB789
:1044E00029013A01621B730B840B950B29893A89C8
:1044F0004B895C892A193B094C095D09298B3A8B48
:104500004B8B5C8B9B01AC0169897A898B899C8977
:104510000E94F324E418F50806091709A801970179
:104520000E9459252A0D3B1D4C1D5D1DCA01B90174
:10453000DF91CF911F910F91FF90EF90DF90CF907F
:10454000BF90AF907F906F905F904F900895CF9203
:10455000DF92EF92FF920F931F93CF93DF936C0143
:104560007A01EB01E60EF71E00E010E0CE15DF0544
:1045700061F06991D601ED91FC910190F081E02DFF
:10458000C6010995080F191FF1CFC801DF91CF911E
:104590001F910F91FF90EF90DF90CF9008956115DC
:1045A000710581F0DB010D900020E9F7AD0141506C
:1045B0005109461B570BDC01ED91FC910280F38100
:1045C000E02D099480E090E00895EF92FF920F9320
:1045D0001F93CF93DF938C01FB01C0E0D0E0649187
:1045E0007F018FEFE81AF80A662361F0D801ED9198
:1045F000FC910190F081E02DC8010995C80FD91FE9
:10460000F701EDCFCE01DF91CF911F910F91FF9078
:10461000EF9008950C94CF22DC01ED91FC91019074
:10462000F081E02D09940F931F93CF93DF93EC015A
:104630006DE00E940C238C016AE0CE010E940C23E5
:10464000800F911FDF91CF911F910F9108950F93CC
:104650001F93CF93DF93EC010E94E5228C01CE01E2
:104660000E941323800F911FDF91CF911F910F9113
:1046700008950F931F93CF93DF93EC010E94CF22F5
:104680008C01CE010E941323800F911FDF91CF91E7
:104690001F910F9108958F929F92AF92BF92CF92E8
:1046A000DF92EF92FF920F931F93CF93DF93CDB7DB
:1046B000DEB7A1970FB6F894DEBF0FBECDBF7C0169
:1046C000C42EE52FCB01D22E19A221E02D1510F01A
:1046D0002AE0D22E8E010F5D1F4F8D2C912CA12C24
:1046E000B12C6C2D7E2FA50194010E9437258C2DB5
:1046F000D29E80191124015011098A3014F4805D72
:1047000001C0895CF80180832115310541055105FF
:1047100021F0C22EE32FCA01E4CFB801C7010E94E5
:10472000CF22A1960FB6F894DEBF0FBECDBFDF91AA
:10473000CF911F910F91FF90EF90DF90CF90BF909E
:10474000AF909F908F9008952115310541F4DC01C1
:10475000ED91FC910190F081E02D642F09940C946F
:104760004B239A01AB0160E070E00C94A4230F93FB
:104770001F93CF93DF93EC010E94A4238C01CE0101
:104780000E941323800F911FDF91CF911F910F91F2
:1047900008950E9461210E94B907C0E0D0E00E9404
:1047A000220E2097E1F30E940000F9CF98D088F004
:1047B0009F5790F0B92F9927B751A0F0D1F0660F0D
:1047C000771F881F991F1AF0BA95C9F712C0B13028
:1047D00081F09FD0B1E008959CC0672F782F882783
:1047E000B85F39F0B93FCCF3869577956795B39567
:1047F000D9F73EF490958095709561957F4F8F4FD6
:104800009F4F0895E89409C097FB3EF490958095DA
:10481000709561957F4F8F4F9F4F9923A9F0F92F86
:1048200096E9BB279395F695879577956795B79504
:10483000F111F8CFFAF4BB0F11F460FF1BC06F5FEA
:104840007F4F8F4F9F4F16C0882311F096E911C0FC
:10485000772321F09EE8872F762F05C0662371F01D
:1048600096E8862F70E060E02AF09A95660F771F31
:10487000881FDAF7880F9695879597F9089597F925
:104880009F6780E870E060E008959FEF80EC0895F6
:1048900000240A941616170618060906089500241F
:1048A0000A9412161306140605060895092E039499
:1048B000000C11F4882352F0BB0F40F4BF2B11F40D
:1048C00060FF04C06F5F7F4F8F4F9F4F089557FD6C
:1048D0009058440F551F59F05F3F71F04795880F6E
:1048E00097FB991F61F09F3F79F087950895121605
:1048F00013061406551FF2CF4695F1DF08C01616B1
:1049000017061806991FF1CF869571056105089461
:104910000895E894BB2766277727CB0197F9089578
:104920000BD0C4CFB5DF28F0BADF18F0952309F01B
:10493000A6CFABCF1124EECFCADFA0F3959FD1F362
:10494000950F50E0551F629FF001729FBB27F00D3D
:10495000B11D639FAA27F00DB11DAA1F649F662792
:10496000B00DA11D661F829F2227B00DA11D621FE1
:10497000739FB00DA11D621F839FA00D611D221F9B
:10498000749F3327A00D611D231F849F600D211D7F
:10499000822F762F6A2F11249F5750408AF0E1F022
:1049A00088234AF0EE0FFF1FBB1F661F771F881F6B
:1049B00091505040A9F79E3F510570F060CFAACFAB
:1049C0005F3FECF3983EDCF3869577956795B79556
:1049D000F795E7959F5FC1F7FE2B880F911D969580
:1049E000879597F90895DB018F939F930E9478250F
:1049F000BF91AF91A29F800D911DA39F900DB29F7B
:104A0000900D11240895991B79E004C0991F961701
:104A100008F0961B881F7A95C9F780950895AA1B00
:104A2000BB1B51E107C0AA1FBB1FA617B70710F099
:104A3000A61BB70B881F991F5A95A9F780959095CB
:104A4000BC01CD01089597FB072E16F4009407D002
:104A500077FD09D00E940F2507FC05D03EF4909504
:104A600081959F4F0895709561957F4F0895A1E2BC
:104A70001A2EAA1BBB1BFD010DC0AA1FBB1FEE1FD8
:104A8000FF1FA217B307E407F50720F0A21BB30B23
:104A9000E40BF50B661F771F881F991F1A9469F79F
:104AA00060957095809590959B01AC01BD01CF01FB
:104AB0000895052E97FB1EF400940E94702557FD63
:104AC00007D00E94372507FC03D04EF40C947025C4
:104AD00050954095309521953F4F4F4F5F4F08952A
:104AE00090958095709561957F4F8F4F9F4F08955A
:104AF0000E948925A59F900DB49F900DA49F800DC5
:104B0000911D11240895EE0FFF1F0590F491E02DE3
:104B10000994A29FB001B39FC001A39F700D811D96
:104B20001124911DB29F700D811D1124911D0895B6
:104B30008F929F92AF92BF92CF92DF92EF92FF92AD
:104B4000CF93DF93EC01688179818A819B81611524
:104B500071058105910521F464E279ED8BE597E01B
:104B60002DE133EF41E050E00E94592549015A01FF
:104B70009B01AC01A7EAB1E40E9478256B017C019E
:104B8000ACEEB4EFA50194010E941E26C60ED71EFE
:104B9000E81EF91EF7FE06C081E0C81AD108E10838
:104BA00080E8F80AC882D982EA82FB82C701B6018E
:104BB0009F77DF91CF91FF90EF90DF90CF90BF90E4
:104BC000AF909F908F9008950E949825089580E05F
:104BD00091E00E949825089560930001709301016F
:104BE00080930201909303010895FB01DC018D91F4
:104BF000019080190110D9F3990B0895FB01DC0194
:104C000001900D920020E1F70895F999FECF92BD31
:104C100081BDF89A992780B50895262FF999FECF7E
:104C20001FBA92BD81BD20BD0FB6F894FA9AF99AC9
:104C30000FBE01960895B7FF0C9478250E94782541
:0A4C4000821B930B0895F894FFCF38
:104C4A0001000000050501015B2053636F726520B6
:104C5A005D00594F5520574F4E2041334B210A00D2
:104C6A0020202047414D45204F56455220210A0019
:104C7A0020202020202020202020706F696E74734D
:104C8A000A00202A2A204E455720484947485343BC
:104C9A004F5245202A2A000A205072657373201643
:104CAA0020746F20636F6E74696E75650A00202028
:104CBA002020202020202020002020202020594FA2
:104CCA005520574F4E20210A002020202015206B06
:104CDA0065657020676F696E67002020202020209C
:104CEA0020162073746F70004C4F414445520000E7
:084CFA00000000FE1BA72200D0
:00000001FF
