:100000000C944B030C9473030C9473030C947303C0
:100010000C9473030C9473030C9473030C94730388
:100020000C9473030C9473030C9473030C94CB1F04
:100030000C9473030C9473030C9473030C94730368
:100040000C943B220C9473030C9473030C94730371
:100050000C9473030C9473030C9473030C94730348
:100060000C9473030C947303401AFFFFFFFFFFFF10
:10007000FFFF0000000000000000383DF7DF070729
:10008000771E7C7DF7DF8F8F773EFEFDF7DFDFDFAA
:10009000777EFEFDF7DFDFDF777EEEE0E71DDDDC5C
:1000A0007770EEE0E71DDDDC7E70EEE0E79DDDDCE5
:1000B0007C70FEF8E79F9DDC787CFE7CE79F1DDC72
:1000C0007C3EFE3EE71F9DDC7E1FEE0EE71DDDDC65
:1000D0007707EE0EE71DDDDC7707EEFEE7DDDFDFFD
:1000E000777FEEFEE7DDDFDF777FEEFCE7DDCF8FAA
:1000F000777EEEF8E7DDC707777C000000000000A0
:100100000000FFFFFFFFFFFFFFFF000000000000F7
:100110000000A6C66AECE66E66CEAAAA8A4A8AAA39
:100120008AA8AAAEEA4ACAEC8EAC4AAA2A4A8AAA85
:100130008AA84ECAE4ECEEAAEACE070710102828D7
:10014000447C0007070C1424446818000707061AAB
:1001500064442818000707001E624428300007077F
:1001600000605846586000070700302844621E00AF
:10017000070700182844641A060707001868442473
:10018000140C0707007C4428281010070700302CA7
:10019000444850600707003028444CB0C0070700AF
:1001A0001828448CF0000707000C34C4340C0007F6
:1001B0000700F08C442818000707C0B04C442830D2
:1001C000000707605048442C3000070700202844EF
:1001D0004C3808070700404C820848300707408425
:1001E00002000848200707800200000004400A0AB5
:1001F0003600490080804040204040408040808060
:1002000041003E000A0A11002A804440808080405C
:1002100080408040408021001E000A0A1E0021000C
:10022000408080408040404040408880550022000F
:100230000A0A1F002080404080408080810080802A
:10024000404024801B000A0A000000001C0022001D
:10025000110021002A001400000000000A0A00001A
:100260000000160029002200210012000C000000EE
:1002700000000A0A000000000C001200210011001A
:1002800025001A00000000000A0A000000000C000F
:1002900012002100220029001600000000000A0AB6
:1002A00000000000000004000A0012000C00000022
:1002B000000000000A0A000000000000080014000E
:1002C00012000C000000000000000A0A00000000FC
:1002D00000000C0012000A000400000000000000F2
:1002E0000A0A0000000000000C00120014000800C0
:1002F00000000000000007051028FE443807052014
:10030000D8700000030340E040596F646127730018
:1003100020202020596F646127730020202020595D
:100320006F646127730003053F213F1208120A1012
:100330000A0E1C0E0C1E0C141A14161F161E131E69
:100340001E1B1E1E1F1E3F213F3A2F3A173D173F0F
:10035000213F181F02040A041F0E04040E1F0A1F67
:100360000A0E0E1F04110E2E252E2F2A2E262929A5
:10037000021F02081F08150E04040E150E15151B8A
:10038000151B040604040C04000000001700030001
:10039000031F0A1F16371A1904130A153A0003001F
:1003A000000E11110E000A040A040E0400300004AD
:1003B00004040010001804031F111F121F101D1544
:1003C0001711151F07041F17151D1F151D01011FEC
:1003D0001F151F17151F000A00003200040A110A1A
:1003E0000A0A110A040115020E11171E051E1F1517
:1003F0000A0E110A1F110E1F15111F05010E111DE6
:100400001F041F111F1108100F1F041B1F10101FA6
:10041000061F1E040F0E110E1F09060E112E1F05BA
:100420001A121509011F011F101F0F180F1F0C1F93
:100430001B041B031C03191513001F1103041811BF
:100440001F000201022020200001020C121E1F12B8
:100450000C0C12120C121F0C1A14041E05242A1E56
:100460001F021C141D1020201D1F0814111F101E18
:10047000041E1E021C0C120C3E0A040C123E1E042A
:100480000214160A020F120E101E0E100E1E081E67
:10049000120C1226281E322A26041E21001F0021BB
:1004A0001E040102013F213F0A4E6F205344206386
:1004B000617264206F720A6E6F204C4F4144455246
:1004C0002E4845580A0A153A45786974001D204699
:1004D0006C617368696E670A20206C6F6164657275
:1004E0002E2E2E0A0A444F4E2754205455524E2089
:1004F0004F464621006D560A0A504C454153450A65
:100500005455524E204F4646004C4F5720424154BE
:10051000544552590A00177361766500166261638B
:100520006B001574797065000A0A0A153A6F6B61E1
:100530007920163A6564697400596F7520656E7488
:10054000657265640A00540A03E181867F3E186D76
:10055000830F0F0E0183866033186DC3198F180344
:10056000C38E6033186DE330CF1803C39E603630FE
:10057000CDE360CF3006C79E7E3E30CDB360CF3036
:100580000CC6F6603330D9B660CF33CFCCF660619D
:10059000B0DB1E60CF30D86CE6C061B0DB1E618F6F
:1005A00019986CC6C063B19B0E330F0FB078C6FFAD
:1005B0007E1F1B061E0F17534400161378001613D8
:1005C00014001510200015201000000005008930CF
:1005D00008023802497868140000450068010000EC
:1005E00005006801380100000500380168010000BD
:1005F000F6E8DBCFC3B8AEA49B928A827B746E68A8
:10060000625C57524E4945413E3A3734312E2C29CF
:10061000272523211F1D1C1A191716151413121133
:10062000100F0E0D0C0B0A090807062F06330601E2
:1006300001F7030101FF0300000000240027002A46
:100640000000000000250028002B0000000000230F
:100650000026002900040404040404040402020225
:1006600002020203030303030301020408102040F3
:10067000800102040810200102040810200000007C
:100680000700020100000304060000000000000053
:1006900000009D03960311241FBECFEFD8E0DEBFFC
:1006A000CDBF12E0A0E0B1E0E2E1F4E502C00590C8
:1006B0000D92A23AB107D9F716E0A2EAB2E001C062
:1006C0001D92A138B107E1F716E0C4E9D6E004C0F5
:1006D0002297FE010E944729C239D107C9F70E941B
:1006E00069240C94FC290C94000081309105A1F43C
:1006F0006F5F7F4FD1F41092F3021092F2028DE9F6
:1007000092E09093F1028093F00288E293E060E03F
:1007100071E00E94F6260895892B39F46F5F7F4FB0
:1007200021F488E293E00E942927089580E090E078
:100730006FEF7FEF0E947503089581E090E06FEF07
:100740007FEF0E94750308958F929F92AF92BF92A0
:10075000CF92DF92EF92FF920F931F937C01162F9F
:1007600057EC852E52E0952E49EFA42E41E0B42E91
:100770006C0134E0CC0CDD1C3A95E1F7CA0CDB1CB3
:10078000C40160E0F601448520E0012F0E944C1D69
:10079000C40161E0F601408120E00E944C1DF60199
:1007A00020852195C40162E042850E944C1D94E0A1
:1007B000EE0CFF1C9A95E1F7F60124812A53C4013F
:1007C00063E046810E944C1DAE0CBF1CC401F501C4
:1007D0006281F6014685212F0E94BC1D1F910F9159
:1007E000FF90EF90DF90CF90BF90AF909F908F9051
:1007F000089580917A038F5F80937A0390917803B4
:10080000981770F410927A03809179038F5F81704A
:100810008093790390E0069661E070E00E94A40363
:10082000089520912F0330913003809176039091A9
:10083000770328173907ACF085E090E063E070E0BB
:100840000E94A403809133038F5F809333038091D0
:10085000760390917703805F984D90937703809310
:10086000760308951F9310923C0310923B0312E30A
:1008700074C0FD01EE0FFF1FEF5AFC4F0190F08195
:10088000E02D40915F0450916004609163046130F9
:1008900019F020E030E002C020E130E0CA0180968B
:1008A000820F931FE817F9070CF04EC03F96E4172C
:1008B000F5070CF449C0FD01EE0FFF1FE75AFC4F8E
:1008C0000190F081E02D409161045091620461300B
:1008D00019F020E030E002C020E130E0CA0140968B
:1008E000820F931FE817F9077CF53F96E417F50789
:1008F0005CF1AF58BC4F8C91823330F5662321F107
:1009000083E090E060E070E00E94A40320912F0358
:100910003091300380916304823019F080E090E0E0
:1009200002C080E293E028533F4F280F391F3093D5
:10093000300320932F0310926304E0913B03F09166
:100940003C03EF58FC4F108380913B0390913C0394
:10095000019690933C0380933B03A0913B03B0919D
:100960003C038091750390E0A817B9070CF481CF80
:100970001F91089520916804309169048FEF2F3FF3
:10098000380709F482C080916C0490916D04820F45
:10099000931F9093690480936804E0916E04F09132
:1009A0006F0420916A0430916B04E20FF31FF093FF
:1009B0006B04E0936A0468E070E00E94F528262F3B
:1009C000CF0168E070E00E94F528462F80EF92E0AA
:1009D000622F24E033E00E94D41580916804909146
:1009E00069048959924048F480916A0490916B049B
:1009F00097FD03C08957914034F08FEF9FEF90939C
:100A00006904809368042091450330914603609106
:100A1000680470916904C901879686179707ACF13D
:100A2000275030406217730784F1209147033091BB
:100A3000480340916A0450916B04C901879684175A
:100A400095071CF12750304042175307F4F077FD0B
:100A50001CC080914F038130C1F480913703909185
:100A600038032FEF8F3F920781F4909369048093AE
:100A7000680488E290E0909338038093370381E024
:100A800090E062E070E00E94A4030895EF92FF926C
:100A90001F93CF93DF9310923A0310923903C4C08F
:100AA000F901EE0FFF1FDF01AF59BC4FEF01CF5A25
:100AB000DC4F4D915C9188819981480F591F598372
:100AC0004883DF01A75ABC4FE759FC4F6081718111
:100AD0008D919C911197680F791F6D937C9357FFAF
:100AE00004C048565D4F59834883F901EE0FFF1F3C
:100AF000EF5AFC4F8081918142E08939940724F0BC
:100B0000885992409183808377FF09C0F901EE0FE5
:100B1000FF1FE75AFC4F68587E4F71836083F901CD
:100B2000EE0FFF1FE75AFC4F80819181A1E08937CA
:100B30009A0724F08857914091838083F901EF58F8
:100B4000FC4F80818F5F8083220F331FF901EF5AA2
:100B5000FC4F8081918168E070E00E94F528E62FCB
:100B6000275A3C4FD9018D919C9168E070E00E941A
:100B7000F528462F80EF92E06E2F24E033E00E94AC
:100B8000D415C0913903D0913A0371E7E72E73E091
:100B9000F72EEC0EFD1EF70180818F3108F43FC067
:100BA00010917503412F50E0415050409E01220F9B
:100BB000331FB9016F5A7C4FDA01AA0FBB1FFD0129
:100BC000EF5AFC4F80819181FB0191838083B901B1
:100BD000675A7C4FFD01E75AFC4F80819181FB01F0
:100BE00091838083B9016F597C4FFD01EF59FC4F10
:100BF00080819181FB019183808327593C4FA759C4
:100C0000BC4F8D919C91D9018D939C934F585C4F13
:100C1000FA018081D7018C931150109375032196AE
:100C2000D0933A03C09339032091390330913A03AA
:100C30008091750390E0281739070CF431CFDF91CC
:100C4000CF911F91FF90EF90089581E090E014C044
:100C5000B901660F771F620F731F660F771F66500B
:100C600080EF92E040E02AE331E00E94D4158091C9
:100C7000390390913A03019690933A038093390394
:100C80002091390330913A038091330390E0281783
:100C90003907F4F260912F03709130036A307105C7
:100CA00014F488E201C086E26436710514F430E081
:100CB00001C032E093E0683E790714F420E001C0FF
:100CC00022E097E26031790714F490E001C092E0ED
:100CD000831B821B891B8093F9021092FA0280EF1A
:100CE00092E04AE050E00E94E1258CE48093F90212
:100CF0006091340370E06F5F7F4F80EF92E04AE0D5
:100D000050E00E94E12508951F9380913703909150
:100D100038030197909338038093370365E070E0C0
:100D20000E94F528892B31F481E090E060E070E0CA
:100D30000E94A403809137039091380366EF7FEF00
:100D40000E94F528FB017396F0933A03E093390370
:100D5000809145039091460368E070E00E94F52879
:100D6000162F809147039091480368E070E00E943D
:100D7000F528462F9F0153E0220F331F5A95E1F7C4
:100D80002E0F3F1F265C3E4F80EF92E0612F0E94A6
:100D9000D4158091370390913803892BC1F48FEFDC
:100DA0009FEF9093380380933703809133038150F2
:100DB00080933303882329F488E293E061E071E0B3
:100DC00004C088E293E06AE071E00E9410271F915E
:100DD000089580913503909136031816190694F4FE
:100DE00001979093360380933503892B59F48091B2
:100DF00034038F5F8093340388E293E062E171E013
:100E00000E941027089510923603109235038FEF39
:100E10009FEF909338038093370380E491E09093A1
:100E200046038093450380EB90E0909348038093C2
:100E3000470310924C0310924B0310924E031092F2
:100E40004D0380914F03813039F410924F0310927B
:100E50004A031092490303C081E080934F0388E264
:100E600093E06BE171E00E94102708951092300327
:100E700010922F0383E08093330310923403109277
:100E800063048FEF9FEF909369048093680410923E
:100E90004A031092490380E197E29093770380938D
:100EA000760388E293E062E171E00E9410270895E2
:100EB00020912F03309130038091310390913203C0
:100EC0008217930724F43093320320933103109256
:100ED000F9021092FA0280EF92E063E271E00E9460
:100EE000F42560912F03709130036A30710514F47A
:100EF0008EE001C08CE06436710514F420E001C07E
:100F000022E093E0683E790714F490E001C092E09B
:100F1000821B891B8093F90286E08093FA0280EF9E
:100F200092E04AE050E00E94E12560913103709127
:100F300032036A30710514F482E401C080E464363F
:100F4000710514F420E001C022E093E0683E7907C7
:100F500014F490E001C092E0821B891B8093F90297
:100F600086E08093FA0280EF92E04AE050E00E942F
:100F7000E12580EF92E06AE04DE028E630E00E9453
:100F8000D4151092F9028AE28093FA0280EF92E07F
:100F900067E371E00E94F4258CEA92E064E00E942D
:100FA0006B12882351F088E293E06CE471E00E94B8
:100FB000102787EC92E00E94EF1F8CEA92E066E037
:100FC0000E946B12882341F082EA92E069E073E0AC
:100FD00048E650E00E94821B08950F9380EF92E054
:100FE00060E00E941E1380EF92E066E140E127E29C
:100FF00009E00E94B71380EF92E061E00E941E13A7
:1010000088E18093F90282E18093FA0280EF92E016
:1010100064E571E00E94F42580EF92E066E140E132
:1010200027E20E94ED1384E08093F9028AE2809324
:10103000FA0280EF92E06EE571E00E94F4258CEAFE
:1010400092E065E00E946B12882351F088E293E001
:1010500062E771E00E94102787EC92E00E94EF1F88
:101060000F91089580916304882309F494C08091BE
:101070006804909169048F5F9F4F09F08CC0809144
:101080005F0490916004893291050CF484C080560D
:1010900092400CF080C089E090E060E070E00E9437
:1010A000A40380915F049091600448969093690432
:1010B00080936804809161049091620440969093BB
:1010C0006B0480936A0463E070E080E090E00E942B
:1010D00040266150704080409040F3E0660F771FDB
:1010E000881F991FFA95D1F770936D0460936C0473
:1010F00063E070E080E090E00E9440266150704024
:1011000080409040E3E0660F771F881F991FEA95A3
:10111000D1F770936F0460936E0480916304823002
:1011200041F520915F0430916004809145039091D6
:101130004603281739071CF088EF9FEF02C088E0AC
:1011400090E090936D0480936C0420916104309141
:1011500062048091470390914803281739071CF0D7
:1011600088EF9FEF02C088E090E090936F04809337
:101170006E0480916C0490916D04892B61F48091D0
:101180006E0490916F04892B31F488E090E0909385
:101190006D0480936C04089580916304882309F49E
:1011A000E8C0809164049091650420915F043091BF
:1011B0006004820F931F9093600480935F042091DA
:1011C0006104309162044091660450916704240FD9
:1011D000351F309362042093610465E070E00E9443
:1011E000F528892B31F484E090E063E070E00E9400
:1011F000A4038091610490916204885D9F4F34F450
:1012000080E891E09093620480936104809161048E
:10121000909162048158914034F088ED9FEF909353
:1012200062048093610462E370E080E090E00E94D9
:1012300040266230710581059105B4F463E070E0E9
:1012400080E090E00E9440269B01AC01220F331FFA
:10125000441F551F260F371F481F591F235030406A
:10126000309367042093660420915F0430916004FA
:10127000C901C896895D924010F010926304C901BB
:1012800068E070E00E94F528E62F8091610490915B
:10129000620468E070E00E94F528462F80916304A4
:1012A00090E001979C01A3E0220F331FAA95E1F77C
:1012B000281B390B2A503D4F80EF92E06E2F0E9481
:1012C000D415409145035091460320915F0430911D
:1012D0006004CA018796821793070CF44AC0609194
:1012E0006304613019F080E090E002C080E190E09A
:1012F000205E3F4F280F391F485F5F4F421753074B
:10130000C4F5409147035091480320916104309106
:101310006204CA018796821793075CF1613019F065
:1013200080E090E002C080E190E0205F3F4F280F16
:10133000391F485F5F4F42175307DCF46623C9F03B
:1013400080914F038130A9F4809137039091380345
:101350008F5F9F4F71F41092630488E290E0909346
:1013600038038093370381E090E062E070E00E94F0
:10137000A403089580915B04883008F073C08091C5
:101380002F0390913003855F91400CF46BC08091E6
:101390006304882309F066C06AEF70E080E090E0A3
:1013A0000E94402662307105810591050CF05AC0FB
:1013B0006091340370E06C5F7F4F882777FD8095E4
:1013C000982F0E944026633071058105910514F421
:1013D00081E001C082E08093630488EC9FEF9093EA
:1013E000600480935F0483E090E0909365048093B1
:1013F000640462E070E080E090E00E9440266115A5
:1014000071058105910561F480EA92E09093600492
:1014100080935F048DEF9FEF909365048093640445
:1014200060E471E080E090E00E944026605E7F4FC3
:10143000709362046093610463E070E080E090E088
:101440000E9440269B01AC01220F331F441F551FF1
:10145000260F371F481F591F235030403093670411
:101460002093660408952F923F924F925F926F925D
:101470007F928F929F92AF92BF92CF92DF92EF9224
:10148000FF920F931F93CF93DF9381E080935003DC
:1014900010923A03109239033DC4FE01E550FC4F0F
:1014A000608170E068507040882777FD8095982FA4
:1014B0000E94C7276B017C0160933D0370933E033C
:1014C00080933F0390934003FE01E55EFB4F6081F4
:1014D00070E068507040882777FD8095982F0E94B3
:1014E000C7274B015C0160934103709342038093D3
:1014F0004303909344038E01000F111FBBE76B2E33
:10150000B3E07B2E600E711ED3016D917C91882714
:1015100077FD8095982F0E94C727A70196010E940A
:1015200030270E9494277B01F30171836083055467
:101530001C4FD8016D917C91882777FD8095982F5D
:101540000E94C727A50194010E9430270E9494277A
:101550009B01F80171836083F0EBEF16FFEFFF064C
:101560002CF4E8E9F2E0D301ED93FC93FE01EE0FD9
:10157000FF1FE558FC4F808191818959924024F0EA
:1015800080EB9FEF91838083205B3F4F4CF4FE0103
:10159000EE0FFF1FE554FC4FA8E7B1E0B183A08335
:1015A000FE01EE0FFF1FE554FC4F808191818957AA
:1015B000914024F020EB3FEF318320839E01220FE6
:1015C000331FF901E558FC4F8081918168E070E09C
:1015D0000E94F528E62F25543C4FD9018D919C910E
:1015E00068E070E00E94F528462FC55CDB4F28813B
:1015F000B6E12B9F9001112422513E4F80EF92E0E3
:101600006E2F0E94D415A0903903B0903A03F501D3
:10161000E55CFB4FF080E3E0EF1510F098E001C0CF
:1016200098E1F7E0FF1510F080E001C088E0182F86
:10163000190F10935D0423E02F1510F098E401C0FA
:1016400098E337E03F1510F080E001C088E0981B78
:1016500090935E042091450330914603D501AA0F73
:10166000BB1FFD01E558FC4FC081D181C92EDD248F
:1016700026014C0E5D1EC901089684159505ACF532
:10168000612F70E0295D3F4FCB018C0F9D1F281704
:1016900039075CF14091470350914803A554BC4F72
:1016A000ED91FC919A01285F3F4FC6018E0F9F1F5D
:1016B00028173907D4F4495D5F4F6E0F7F1F461717
:1016C00057079CF020914F03213079F48091370324
:1016D000909138038F5F9F4F41F488E290E09093A0
:1016E00038038093370320935C04612E77244301F1
:1016F0008C0E9D1E40915F0450916004A091630484
:10170000A13019F020E030E002C020E130E0CA0151
:101710008096820F931F881699060CF03FC04415DF
:101720005505E4F5F501EE0FFF1FE554FC4F019060
:10173000F081E02D6091610470916204A13019F094
:1017400040E050E002C040E150E093012E0F3F1F07
:10175000CB014096840F951F28173907FCF4EC0D38
:10176000FD1D6E177F07D4F4AA23C1F080912F03CB
:1017700090913003A23019F020E030E002C020E266
:1017800033E088539F4F820F931F909330038093D1
:101790002F0391E090935C041092630440916804DD
:1017A00050916904441555054CF5CA010F968815EA
:1017B000990524F120916A0430916B04F501EE0F34
:1017C000FF1FE554FC4F0190F081E02DC6018E0F04
:1017D0009F1F2817390794F4215F3F4FE60DF71D2F
:1017E0002E173F075CF057FD09C0A1E0A0935C04F1
:1017F000EFEFFFEFF0936904E093680480917503C5
:10180000282E3324E0905C0401E513E0C9E5D3E021
:10181000A1E7B3E060E070E0AA0CBB1C2BEB33E067
:10182000A20EB31E29C0F80180819181841595050F
:10183000ECF40F9688159905CCF048815981F50193
:1018400020813181C601820F931F4817590774F414
:10185000415F5F4F260D371D421753073CF08C91B7
:10186000823320F4F2E3FC93EE24E3946F5F7F4F26
:101870000E5F1F4F2296119662157305A4F2E09237
:101880005C0470933C0360933B0321E0E21609F093
:101890000CC280917803863010F490E001C092E091
:1018A000891B8093780333E03F1518F081E090E0C6
:1018B00002C082E090E020E030E047E04F1510F4F5
:1018C00021E030E0820F931F62E070E00E94A403E9
:1018D00010925C0480912F039091300300913903A2
:1018E00010913A03F801E55CFB4FE081E43018F415
:1018F00040E050E002C04EE150E0E83018F420E053
:1019000030E002C022E330E04496840F951F820F3E
:10191000931F9093300380932F0360915B04E80141
:10192000CC0FDD1FE83008F085C1062F10E0F8016C
:10193000EE0FFF1FAF0145585C4F9E0125583C4FED
:10194000D9018D919C914096DA018D939C93E55439
:10195000FC4FDE01A554BC4F8D919C911197409690
:1019600091838083F9018081918140969183808366
:101970008D919C91119740968D939C9364E070E0BB
:1019800080E090E00E944026E0913903F0913A0314
:10199000E55CFB4F8081843010F480E001C084E07E
:1019A000055C1B4F6C5F860FD8018C9364E070E080
:1019B00080E090E00E944026A0913903B0913A0364
:1019C000FD01E55CFB4F8081843010F480E001C0B4
:1019D00084E0A55CBB4F6C5F860F8C9380915B04A9
:1019E000C82FD0E06CE070E080E090E00E944026DC
:1019F000DC01CB01C550DC4F880F991F8D539E4FE2
:101A0000FC018081918164E070E00E94F528685FAC
:101A1000688380915B04C82FD0E06CE070E080E0C8
:101A200090E00E944026DC01CB01C55EDB4F880FB1
:101A3000991F85529E4FDC018D919C9164E070E06E
:101A40000E94F528685F68830091390310913A037A
:101A50006CE070E080E090E00E944026DC01CB0169
:101A600005501C4F880F991F8D539E4FFC0180819C
:101A7000918162E070E00E94F528685FD8016C9364
:101A80000091390310913A036CE070E080E090E03F
:101A90000E944026DC01CB01055E1B4F880F991F79
:101AA00085529E4FFC018081918162E070E00E942E
:101AB000F528685FD8016C934091390350913A033F
:101AC000BA0165507C4FFB01208180915B04A82FF7
:101AD000B0E0FD01E550FC4F8081281779F4EA0160
:101AE000C55EDB4F9881FD01E55EFB4F8081981755
:101AF00029F42195FB01208391959883A55CBB4F28
:101B00008C91883058F462E070E080E090E00E94B0
:101B100040266130710581059105B1F580915B0426
:101B2000C82FD0E06CE070E080E090E00E9440269A
:101B3000DC01CB01C550DC4F880F991F8D539E4FA0
:101B4000DC018D919C9162E070E00E94F528685F55
:101B5000688380915B04C82FD0E06CE070E080E087
:101B600090E00E944026DC01CB01C55EDB4F880F70
:101B7000991F85529E4FFC018081918162E070E047
:101B80000E94F528685F6883E0913903F0913A0379
:101B9000E55CFB4F8081883058F462E070E080E0C3
:101BA00090E00E9440266130710581059105C1F5E4
:101BB0000091390310913A036CE070E080E090E00E
:101BC0000E944026DC01CB0105501C4F880F991F55
:101BD0008D539E4FDC018D919C9162E070E00E94DC
:101BE000F528685FF80160830091390310913A038A
:101BF0006CE070E080E090E00E944026DC01CB01C8
:101C0000055E1B4F880F991F85529E4FDC018D91F9
:101C10009C9162E070E00E94F528685FF8016083A3
:101C200090915B0480E0903208F481E0890F80930A
:101C30005B043BC0615060935B04262F30E0AE0133
:101C400045585C4FD901AA0FBB1FFD01E558FC4F59
:101C500080819181FA0191838083C554DC4FA55422
:101C6000BC4F8D919C9199838883D801A55CBB4F13
:101C7000F901E55CFB4F80818C93D801A550BC4FE6
:101C8000F901E550FC4F80818C93055E1B4F255E6A
:101C90003B4FD9018C91F8018083662331F42CE30A
:101CA00030E030933603209335034091390350914F
:101CB0003A03DA01AA0FBB1FFD01E558FC4F019062
:101CC000F081E02D80915E04282F30E0C9018E0F55
:101CD0009F1F893B9105C4F080915D0490E0E80F5F
:101CE000F91FE85EF14084F4A554BC4FED91FC91DE
:101CF0002E0F3F1F293431053CF0E80FF91FE85340
:101D0000F14014F4109250034F5F5F4F50933A0329
:101D100040933903C0913903D0913A0380915B0419
:101D200090E0C817D9070CF4B8CBDF91CF911F9181
:101D30000F91FF90EF90DF90CF90BF90AF909F906A
:101D40008F907F906F905F904F903F902F9008956D
:101D5000CF92DF92EF92FF920F931F93CF93DF9377
:101D60008091340390E00296880F991F80935B0462
:101D7000813418F080E480935B045BE7C52E53E068
:101D8000D52E4BEBE42E43E0F42E00E010E056C0DD
:101D900060E471E080E090E00E944026EB01613A4F
:101DA000710514F0C054DE4F60E870E080E090E010
:101DB0000E944026D601CD93DD936D01F70161931A
:101DC00071937F0164E070E080E090E00E94402623
:101DD000F801E55CFB4F608364E070E080E090E038
:101DE0000E944026DC01CB01F801E550FC4F880F32
:101DF000991F8D539E4FDC018D919C9164E070E0A2
:101E00000E94F528685F60836CE070E080E090E0FD
:101E10000E944026DC01CB01F801E55EFB4F880FF4
:101E2000991F85529E4FDC018D919C9164E070E07A
:101E30000E94F528685F60830F5F1F4F80915B04ED
:101E400090E0081719070CF4A3CF82E080934F03AA
:101E500088E293E06AE071E00E94102788E28093B4
:101E6000780310927903DF91CF911F910F91FF902A
:101E7000EF90DF90CF9008951F9380914F038130B2
:101E800009F05DC180913703909138038F5F9F4FB8
:101E900009F04AC180914B0390914C032091450376
:101EA00030914603820F931F90934603809345031E
:101EB000E0914D03F0914E03209147033091480388
:101EC000E20FF31FF0934803E093470368E070E0EC
:101ED0000E94F528162FCF0168E070E00E94F528D7
:101EE000462F8091490390914A039C01B3E0220F51
:101EF000331FBA95E1F7280F391F265C3E4F80EF5C
:101F000092E0612F0E94D4158CEA92E065E040E0F7
:101F10000E947512882309F45EC088E090E060E0BA
:101F200070E00E94A4032091490330914A03220FDC
:101F3000331FF901ED57FE4F8081918168E070E019
:101F40000E94F528FB0180914B0390914C03E80F10
:101F5000F91FF0934C03E0934B032D553E4FD901ED
:101F60008D919C9168E070E00E94F52880914D036E
:101F700090914E03680F791F70934E0360934D0349
:101F8000399734F088E090E090934C0380934B03B2
:101F900080914B0390914C03885F9F4F34F488EFFE
:101FA0009FEF90934C0380934B036930710534F09D
:101FB00088E090E090934E0380934D0380914D0311
:101FC00090914E03885F9F4F34F488EF9FEF90937A
:101FD0004E0380934D038CEA92E063E040E00E9460
:101FE0007512882301F160E572E080E090E00E94C4
:101FF0004026685D7F4F709346036093450360E31E
:1020000071E080E090E00E944026685D7F4F709311
:1020100048036093470310924C0310924B031092B5
:102020004E0310924D038CEA92E060E040E00E9483
:102030007512882391F02091490330914A03C90118
:10204000019790934A038093490397FF06C0215F4D
:102050003F4F30934A03209349038CEA92E062E0B9
:1020600040E00E947512882369F0809149039091A5
:102070004A03019660E170E00E94F52890934A03BC
:10208000809349038CEA92E064E00E946B128823FB
:1020900009F44CC010917503143008F047C0412F6B
:1020A00050E0A0914903B0914A03AA0FBB1FFD0164
:1020B000ED57FE4F608171819A01220F331FF901A4
:1020C000EF59FC4F71836083AD55BE4F0D90BC91AD
:1020D000A02DF901E759FC4FB183A083F901EF5A14
:1020E000FC4F80914503909146034096860F971FC1
:1020F00091838083275A3C4F8091470390914803F6
:1021000040968A0F9B1FD9018D939C934F585C4F2B
:10211000FA0110821F5F1093750380E090E060E089
:1021200070E00E94A40302C00E94840680913903DB
:1021300090913A03019690933A03809339038091EA
:10214000450390914603FFEF883C9F0734F488567F
:102150009D4F909346038093450380914503909152
:10216000460322E08939920734F0885992409093CF
:102170004603809345038091470390914803AFEF56
:10218000883C9A0734F488589E4F90934803809374
:1021900047038091470390914803B1E089379B073B
:1021A00034F088579140909348038093470380917F
:1021B0005003813011F480934F038CEA92E066E083
:1021C0000E946B12882371F082EA92E060E173E072
:1021D00048E650E00E94821B88E293E062E771E0EB
:1021E0000E9410271F91089582EA92E00E94C91A66
:1021F000882309F452C088E293E06CE471E00E9405
:102200006A26882311F00E94360788E293E062E193
:1022100071E00E946A26882311F00E94A80E88E2CD
:1022200093E06AE071E00E946A26882311F00E9420
:10223000030788E293E06BE171E00E946A2688233D
:10224000C1F00E943C0F0E9446050E94330A0E9482
:10225000E9060E94BA090E94CC080E9432040E943A
:1022600032080E94BA040E9411040E9425060E94AE
:10227000F90388E293E062E771E00E946A2688230E
:1022800011F00E94580788E293E061E071E00E943B
:102290006A26882311F00E94ED0708950F931F937B
:1022A00002EA12E0C8010E94E51CC80169E10E942F
:1022B000A418C8016BE173E048E650E00E94821B5D
:1022C000C8010E947E1A88E293E062E771E00E94F2
:1022D00010271092BA021F910F910895882319F4C4
:1022E0008CB5806202C08CB58F7D8CBD08959CB585
:1022F000937F982B9CBD08952CB5382F33702C7F7D
:10230000322B3CBD2DB590E0959587959595879599
:1023100081702E7F822B8DBD08958AE061E00E943E
:1023200006248AE061E00E949A238CB580618CBD0E
:102330008CB580648CBD8DE061E00E949A238BE0B7
:1023400061E00E949A230895FC0181E08083089552
:1023500085E070E00E943A2308956F927F928F92F9
:102360009F92AF92BF92CF92DF92EF92FF920F9324
:102370001F93CF93DF93EC0189819A818C0124E034
:10238000000F111F2A95E1F7081B190B85E10E9428
:102390001823BC01600F711F84E0769567958A95BC
:1023A000E1F77A8369838881882381F12E813F81D7
:1023B0006217730710F4B90106C0888599858617DE
:1023C000970708F4BC0100D000D080E090E040E026
:1023D00050E0E884F98400E010E0AD80BB24CC2418
:1023E000DD246C80772488249924EDB7FEB76182C0
:1023F0007282838294820E94F7256B830F900F90E4
:102400000F900F9085E070E00E943A23DF91CF910A
:102410001F910F91FF90EF90DF90CF90BF90AF9002
:102420009F908F907F906F900895FC018CE39FE0C8
:102430009383828384E0818381E084870895CF93AE
:10244000DF93EC018C8590E08F719070892B69F59A
:1024500084E10E941823AA2797FDA095BA2FBC01FA
:10246000CD010E94C72726EE3FE34EEC50E40E94C8
:1024700053280E9499279B01AC017B836A836115D5
:10248000710589F084E08983B901FE0120E084812F
:1024900095816817790710F429830AC02F5F329657
:1024A0002430A9F702C08FEF89838C858F5F8C87DA
:1024B000DF91CF910895FC0188E0808389E08183DA
:1024C00087E0828386E0838384E0848382E085835F
:1024D00081E18683089520E0FC01E60FF11D8781EC
:1024E000813009F421E0822F0895E62FF0E0423098
:1024F00040F420E0E80FF91F878181508E3F88F477
:102500000FC0E80FF91F87818F3F11F420E009C049
:1025100020E090E0642F70E00E94E128019709F428
:1025200021E0822F08950F931F93CF93DF93EC0147
:1025300010E00FEF888162E00E949A2388810E9458
:1025400039242F81892B19F42F5F2F8307C0222371
:1025500049F02F3F11F41F8201C00F83888160E092
:102560000E949A231F5F2196173021F7DF91CF91A8
:102570001F910F910895FC01742F643508F05DC020
:1025800047FD5BC040330CF058C0878D823019F591
:10259000842F859585958595992787FD9095462F5C
:1025A000552747FD509524E530E0829FF001839F39
:1025B000F00D929FF00D1124E40FF51FE059FB4F31
:1025C000808190E0272F277002C0959587952A95E6
:1025D000E2F780958170972F959595959595462F63
:1025E000552747FD5095272F27708823A1F4E4E550
:1025F0009E02F0011124E40FF51FE059FB4F81E02A
:1026000090E002C0880F991F2A95E2F780952081FB
:10261000282320830895E4E59E02F0011124E40FAD
:10262000F51FE059FB4F81E090E002C0880F991F31
:102630002A95E2F72081282B20830895FC01678FDB
:1026400060A30895FC01678F40A30895AF92BF92E5
:10265000CF92DF92EF92FF920F931F93CF93DF936E
:10266000EC01162FF42EE22EAA24402F552747FD09
:1026700050958F2D992787FD9095481B590B57FF33
:1026800003C0509541955F4F2E2D332727FD309580
:10269000812F992787FD9095281B390B37FF03C0A1
:1026A000309521953F4F2417350744F4AA24A3946D
:1026B0008F2DF12E182F802F0E2DE82EE11634F4D9
:1026C0008E2DE12E182F802F0F2DF82EDE2CD11AF3
:1026D000202F332727FD30958F2D992787FD909543
:1026E000281B390B37FF03C0309521953F4FB22E81
:1026F000F0161CF0CC24CA9402C0CC24C3948D2DB7
:10270000D7FC8F5F082F059511C0AA2021F0CE01BC
:102710006F2D412F03C0CE01612F4F2D0E94BB12A0
:102720000B1907FF02C0FC0C0D0D1F5FE1166CF7C3
:10273000DF91CF911F910F91FF90EF90DF90CF909D
:10274000BF90AF9008950F93042F322F262F215062
:10275000230F0E9426130F9108950F93362F042FF5
:102760000150020F232F0E9426130F9108959F926C
:10277000AF92BF92CF92DF92EF92FF920F931F938F
:10278000CF93DF936C01B62E942EA02EC0E0D0E044
:10279000E62EFF24E7FCF094022F112707FD109589
:1027A0000E0D1F1D06C0C601492D2A2D0E94AD1316
:1027B00021966B2D6C0FCE018E0D9F1D80179107FA
:1027C00094F3DF91CF911F910F91FF90EF90DF90E5
:1027D000CF90BF90AF909F900895CF92DF92EF92ED
:1027E000FF920F931F937C01162FD42EC22E0E94AE
:1027F000A3134D2D4150400FC701612F2C2D0E9476
:10280000A313C701612F4D2D202F0E94AD1311502E
:102810001C0DC701612F4D2D202F0E94AD131F915C
:102820000F91FF90EF90DF90CF9008952F923F92FD
:102830005F926F927F928F929F92AF92BF92CF9250
:10284000DF92EF92FF920F931F93DF93CF9300D00D
:1028500000D000D0CDB7DEB79E838D83C62ED42E98
:10286000EE24E394E21A8EEF289F502C1124842E3C
:102870008A94962E9A94A42EA394B62EB394F22EF4
:10288000662423E0722E10E0C801847090709A8351
:102890008983F801E270F070FC83EB8398E0292EC5
:1028A000312C202231220170107054C0E7FC04C08A
:1028B000FA94F2E05F0EE50C639489819A81892B8A
:1028C00071F04F2D4D0D8D819E816B2D0E94BB129D
:1028D0006F2D6C0D8D819E814A2D0E94BB12EB8164
:1028E000FC81EF2B71F04D2D4F198D819E816B2D49
:1028F0000E94BB126F2D6C0D8D819E81482D0E9410
:10290000BB122114310471F06C2D6F198D819E81E1
:102910004A2D0E94BB124F2D4D0D8D819E81692D38
:102920000E94BB120115110571F06C2D6F198D817C
:102930009E81482D0E94BB124D2D4F198D819E8185
:10294000692D0E94BB12E70CF2E07F0E8A949A94E4
:10295000A394B3946F140CF4A9CF26960FB6F894F1
:10296000DEBF0FBECDBFCF91DF911F910F91FF90C2
:10297000EF90DF90CF90BF90AF909F908F907F901F
:102980006F905F903F902F9008954F925F926F925B
:102990007F928F929F92AF92BF92CF92DF92EF92EF
:1029A000FF920F931F93CF93DF93EC01A62E742E0B
:1029B0009E2DFF24F394F21A8EEF289F802C112471
:1029C000B42EBA9453E0C52ECE0CE22EDD2443E0A3
:1029D000942E10E031E0432E512C40225122692EDA
:1029E00063940270107034C0F7FC04C0EA9482E073
:1029F000880EF80CD3944114510489F06D2D6A0DA2
:102A0000472D4E192E2D220F260DCE010E94AD13FB
:102A10006E2D6A0DCE014B2D2C2D0E94AD1301158C
:102A2000110589F06A2D6D19472D4E192E2D220F93
:102A3000260DCE010E94AD136A2D6E19CE014B2DCD
:102A40002C2D0E94AD13F90C82E0980EBA94C80E9A
:102A5000DE1454F2DF91CF911F910F91FF90EF9010
:102A6000DF90CF90BF90AF909F908F907F906F90AE
:102A70005F904F9008957F928F929F92AF92BF92F6
:102A8000CF92DF92EF92FF920F931F936C01962EDD
:102A9000A42EF22E7E2C760E1EEFE19E102D112418
:102AA000812E820E672D282D0E94A313B02EBA0C02
:102AB000BA94C601672D4B2D282D0E94A313AE0C8E
:102AC000100FC601692D4A2D212F0E94AD13F90C5C
:102AD000FA94C6016F2D4A2D212F0E94AD13C60115
:102AE000672D4A2D2E2D01E00E941614FE18C601F6
:102AF0006F2D4A2D2E2D02E00E941614BE18C6011D
:102B00006F2D4B2D2E2D04E00E941614C601672D4B
:102B10004B2D2E2D08E00E9416141F910F91FF904F
:102B2000EF90DF90CF90BF90AF909F908F907F906D
:102B300008958F929F92AF92BF92CF92DF92EF92C1
:102B4000FF920F931F936C01162FA42E922EF02E3E
:102B5000BE2C8E2C860E2EEFE29EE02C11242E2D04
:102B6000290D682D0E94B713AB0CFA94FE0C11507E
:102B7000190D1B19C601612F4A2D2B2D01E0EF2CD9
:102B80000E94C514C601682D4A2D2B2D02E00E941B
:102B9000C5141F910F91FF90EF90DF90CF90BF90E1
:102BA000AF909F908F9008953F924F925F926F9257
:102BB0007F928F929F92AF92BF92CF92DF92EF92CD
:102BC000FF920F931F93CF93DF934C01362E442E29
:102BD000F901A490319654906F010894C11CD11C46
:102BE0008A2D992787FD9095079668E070E00E94EE
:102BF000F528E62EFF24E7FCF09400E0C0E0D0E0EA
:102C000060E8662E712C26C0E12FE595E595E595E7
:102C1000FF27E7FDF095EC0FFD1FEC0DFD1DE49186
:102C20002E2F30E0812F8770A30102C05595479564
:102C30008A95E2F724233523232B31F0612F630D8E
:102C4000C4014B2D0E94BB121F5F1A15ECF20F5FDF
:102C5000CE0DDF1D051524F410E0B02EB40CF5CF19
:102C6000DF91CF911F910F91FF90EF90DF90CF9068
:102C7000BF90AF909F908F907F906F905F904F909C
:102C80003F900895DC01FB0184918F5F14968C9333
:102C90001497319684918F5F15968C931597319682
:102CA0005E96FC93EE935D9708953F924F925F92EC
:102CB0006F927F928F929F92AF92BF92CF92DF924C
:102CC000EF92FF920F931F93CF93DF93EC01862E29
:102CD000A42E422F102F3F8C23E526170CF4ABC0F7
:102CE0003FE23A150CF4A7C0C02EDD248C8190E0A1
:102CF00001979C01C29EC001C39E900DD29E900D73
:102D00001124262F332727FD3095820F931F181685
:102D100019060CF090C08D8190E09C01C29EC0010C
:102D2000C39E900DD29E900D11242A2D332727FD8E
:102D30003095820F931F181619060CF07CC0992449
:102D4000442E55246DC09C0121503040421753073A
:102D500011F460E00EC0429EC001439E900D529E51
:102D6000900D1124840F951FED8DFE8DE80FF91F36
:102D700064914C9DC0014D9D900D5C9D900D112462
:102D8000682C680EBB24792C780C3FC0E62EFF24FB
:102D900060FF19C0113039F44B2D4A0DCE01672D5B
:102DA0000E94BB122EC02C9DC0012D9D900D3C9DFC
:102DB000900D11244A2D480FCE01662D212F012F91
:102DC0000E94B7131EC098A18F8D9817D1F09F8FC6
:102DD000113039F44B2D4A0DCE01672D0E94BB12E4
:102DE0000FC02C9DC0012D9D900D3C9D900D112478
:102DF0004A2D480FCE01662D212F012F0E94B713B7
:102E00003F8EF594E7946E2DB3942B2D332727FD39
:102E100030958D8190E0281739070CF4B7CF939443
:102E2000492D552747FD50958C8190E0481759074B
:102E30000CF489CF3F8EDF91CF911F910F91FF90BE
:102E4000EF90DF90CF90BF90AF909F908F907F904A
:102E50006F905F904F903F9008950F93CF93DF93C3
:102E6000EC01262F6A3049F48D819885899F802D49
:102E700011249A85980F9A8726C06D3029F16985AB
:102E80004A8508850E9455169C816885969F402D2D
:102E900011248985480F49878F818823A9F05527F8
:102EA00047FD5095699F9001112484E590E0821BB5
:102EB000930B8417950744F49D81699F902D1124ED
:102EC0008A85890F8A87198681E090E0DF91CF910A
:102ED0000F9108951F93CF93DF93EC01162FF89471
:102EE0008E8560E00E9406248F8518161CF460E031
:102EF0000E9406241EBD0DB407FEFDCF8EB58F8542
:102F000018161CF461E00E9406247894DF91CF919A
:102F10001F910895FF920F931F93CF93DF93EC01BE
:102F2000FF2400E010E06F2D6064CE010E946A175C
:102F3000CE0160E80E946A178E8561E00E94062437
:102F40008F8518161CF460E00E940624F801E059F1
:102F5000FB4F90E080818EBD0DB407FEFDCF8EB596
:102F60009F5F31969435B1F78F8518161CF461E098
:102F70000E940624F3940C5A1F4F86E0F81699F627
:102F8000CE0160E40E946A17DF91CF911F910F91EB
:102F9000FF900895CF93DF93DC0188EF91E0E0E7A5
:102FA000F4E0EF019C01199221503040E1F71996AD
:102FB0001C9219971A961C92DF91CF910895EF9267
:102FC0000F93CF93DF93EC014D876C872E87E88AB0
:102FD0000F8781E088878F8F18A28F83CE0166E2EA
:102FE00073E00E9442160E948D1181E00E946E11D2
:102FF00085E00E947C118CE00E9477118D8561E054
:103000000E949A238C8561E00E949A238E8561E05C
:103010000E949A23888918161CF461E00E949A2362
:103020008F8518161CF461E00E949A23888918166F
:103030006CF460E00E9406246AE070E080E090E0BA
:103040000E94B722888961E00E940624EC852E2F19
:10305000332727FD3095F901EB5AF94FE491F0E061
:10306000EE0FFF1FEF5BF94F859194919C8B8B8B3B
:103070002759394FF90184918A8FED852E2F3327F7
:1030800027FD3095F901EB5AF94FE491F0E0EE0F8E
:10309000FF1FEF5BF94F859194919A8B898B27598C
:1030A000394FF9018491898FEF852E2F332727FD22
:1030B0003095F901EB5AF94FE491F0E0EE0FFF1F64
:1030C000EF5BF94F859194919E8B8D8B2759394FEA
:1030D000F90184918B8FEE852E2F332727FD3095B4
:1030E000F901EB5AF94FE491F0E0EE0FFF1FEF5BAF
:1030F000F94F85919491988F8F8B2759394FF9010A
:1031000084918C8FCE0161E20E946A17CE0164E146
:103110000E946A178B8587FF02C08FE78B876B85BC
:103120006068CE010E946A17CE0160E20E946A17B1
:10313000CE016CE00E946A17CE010E948A17DF91CF
:10314000CF910F91EF900895FC01262FE258FF4F89
:1031500088EE93E070E00E94F5286083EE57F0401F
:10316000822F64E10E94D528882309F481E081A799
:103170000895CF93DF93DC01E0E8F7E78591949120
:10318000ED01C75ADF4FAD0141595F4F8150904C5F
:1031900009F04EC0E6E9F7E7E491E883E7E9F7E7ED
:1031A000E4911496EC931497E8E9F7E7E491159607
:1031B000EC931597E9E9F7E78591949117969C931D
:1031C0008E931697EBE9F7E78591949119969C9366
:1031D0008E931897EDE9F7E7E4919B96EC939B9714
:1031E000EEE9F7E7E4919A96EC939A97EFE9F7E71F
:1031F000E491EA01E883E0EAF7E7859194915D962E
:103200009C938E935C97E2EAF7E7859194915F96A1
:103210009C938E935E97E4EAF7E78591949191965B
:103220009C938E939097E6EAF7E78591949132C04C
:103230008CE3888314961C9214972FEF15962C9389
:10324000159780E293E017969C938E93169784EDE2
:1032500093E019969C938E93189781E09B968C939C
:103260009B979A968C939A97FA0120838CEA9DE01B
:103270005D969C938E935C978EED9DE05F969C93FC
:103280008E935E9784E79EE091969C938E939097A1
:103290008CE39FE093969C938E939297DF91CF91CE
:1032A0000895EF92FF920F931F93CF93DF937C01CA
:1032B0008C01025B1F4FC8010E94CA17C8016DEC48
:1032C00074E00E94A224C8010E948A1783E00E9431
:1032D0007C1188E791E0EEEFFFE3099584E590E04B
:1032E000E80EF91EF7011082C80168EA74E00E9436
:1032F000ED24C8010E948A17E701CA54D040CE01CC
:103300000E949312CE0164E00E946B12882339F46C
:1033100062E370E080E090E00E94B722F0CFDF919E
:10332000CF911F910F91FF90EF9008950F931F93EE
:10333000CF93DF93EC018C01025B1F4FC80161E06A
:1033400040E00E942213FE01E95AFF4FCE5ADF4FA0
:1033500085E59881891B808326961882C855D040C0
:10336000698D613009F43EC0613028F0888D653088
:1033700008F051C04BC0CE0185960E94EA1DCE01D7
:1033800060E00E94A811C8010E94CA17CA5ADF4F04
:1033900081E08883C655D040C80169E075E00E948D
:1033A000A2246A8D7B8DC8014AE050E00E949025DE
:1033B000C80165EF74E00E94A224C8010E948A1728
:1033C00083B7817F846083BF83B7816083BF83B706
:1033D000816083BF889583B78E7F83BF83B78E7FDD
:1033E00083BF1FC0C059DF4F88819981AA81BB81EB
:1033F0008F709070A070B0700897A105B10518F497
:10340000C80167E00CC0C80168E709C0882349F01B
:103410006B5FC80104C0882321F0C8016FE20E94DD
:10342000C524DF91CF911F910F910895AF92BF9264
:10343000CF92DF92EF92FF920F931F93CF93DF9380
:10344000EC01CB57DF4F8881C558D040882309F461
:103450004AC08C3010F010E002C01CE0181BCA5AA1
:10346000DF4F81E08883C655D0406EE4C62ED12C54
:10347000CC0EDD1EC60160E00E941E1353E5A52E92
:10348000B12CAC0EBD1EF50100814DE2F42E4F2D86
:10349000401B410F0D5FC60160E024E533E0E32EE1
:1034A0000E949915C60161E00E941E13F50100817A
:1034B000F01AF10E0D5FC60160E04F2D24E50E9469
:1034C0003B15C95ADF4F84E08993F5018081181BB1
:1034D000115D1883AB9669917991C6010E94A2246F
:1034E000888181508883DF91CF911F910F91FF9048
:1034F000EF90DF90CF90BF90AF9008954F925F9282
:103500006F927F928F929F92AF92BF92CF92DF92F3
:10351000EF92FF920F931F932C01FC01628C738C2E
:1035200060947094882499240E9491225B016C011C
:103530000E9491227B018C01F201418052800E9405
:103540009122460E571EA094B094C094D094E0945B
:10355000F09400951095C601B501A80197010E944D
:10356000B628A40193010E94B628460E571EC20138
:103570000E9462261F910F91FF90EF90DF90CF90F5
:10358000BF90AF909F908F907F906F905F904F9083
:103590000895AF92BF92CF92DF92EF92FF920F9376
:1035A0001F93CF93DF93EC01EFE7AE2EB12CA80E63
:1035B000B91EF501E080F180028113810E9483220F
:1035C000E61AF70A080B190B7EE7C72ED12CCC0E92
:1035D000DD1EF601808190E0A0E0B0E08E159F0531
:1035E000A007B10708F081C08E0106581F4FF801EF
:1035F00080819181A281B3810097A105B10509F471
:1036000074C00E948322F6012081620F711D811D0A
:10361000911DF5016083718382839383FE01E059DC
:10362000FF4F80819181A281B3810196A11DB11DBF
:1036300080839183A283B383F80110821182128266
:1036400013820E949122CA58DF4F688379838A834C
:103650009B83C657D040CE010E94AD11CE010A9681
:103660000E949312CE0148960E941F1281E032C040
:103670008E010B5D1F4FC8010E94381EC8010E94B9
:10368000AF1EC8010E94921FCE010E94161ACE01E1
:103690000E9496198E01025B1F4FC8010E948A1773
:1036A000CC5ADF4F8881C455D040882319F4C80113
:1036B0000E94CA170E949122C658DF4F68837983FF
:1036C0008A839B83249728813981621B730B7A93A9
:1036D0006A9380E0DF91CF911F910F91FF90EF905F
:1036E000DF90CF90BF90AF900895C658DF4F88818C
:1036F0009981AA81BB81CA57D0400097A105B10525
:1037000041F7B6CF2F923F924F925F926F927F9286
:103710008F929F92AF92BF92CF92DF92EF92FF92E1
:103720000F931F93DF93CF93CDB7DEB72B970FB6D1
:10373000F894DEBF0FBECDBF9B878A877A836983EB
:103740005C834B838C0101591F4FF80180818823D2
:1037500009F422C18A859B858A5A9F4F9B878A8755
:1037600081E0EA85FB85808312921292E455F04055
:10377000FB87EA87108E9EE4E92EF12CEE0EFF1EE9
:10378000C70161E00E941E138AE0282E312C8A8531
:103790009B85280E391EB5E26B2E712C680E791EA2
:1037A000E981FA81F491FD83A7E58A2E912C880E98
:1037B000991EF8E5CF2ED12CC80ED91EE2E54E2E6B
:1037C000512C480E591E8D5A9F4F9F838E8370E750
:1037D000A72EB12C8A859B85A80EB91E198708874C
:1037E0008A859B850E94C91A8823D1F39D819923DC
:1037F00011F410E003C0EE81FF811081C70160E089
:1038000040E026E435E00E94D4158B819C81892B11
:1038100041F0145FC70160E0412F2B813C810E9481
:10382000D415F40110828CE0F6018083C701698110
:103830007A810E94A224F201208130E0C901880F20
:10384000991F820F931F909581959F4F8D5AF40178
:103850008083EE81FF81208130E0C901880F991FAC
:10386000820F931F909581959F4F835DF601808312
:10387000F501808184FF04C0C70166EC75E003C0D8
:10388000C70162EC75E00E94ED24F201208130E076
:10389000C901880F991F820F931F909581959F4FA3
:1038A0008D5AF4018083F60180818F5F8083EA85E1
:1038B000FB8582A5882321F0C7016EEB75E003C06C
:1038C000C7016AEB75E00E94ED24F201808190E06F
:1038D0009C01220F331F280F391F309521953F4F30
:1038E0002D5AF4012083F60180818F5F8083C70108
:1038F00066EB75E00E94ED24C10165E00E946B1249
:10390000882351F0EA85FB8562A56F5FC3010E94A1
:10391000FB1FC3010E94F51FC10164E00E946B12EE
:10392000882399F4E885F9856081262F30E040E00E
:1039300050E0F50180819181A281B38182179307C4
:10394000A407B50708F16F3FF9F08A859B85815977
:103950009F4F9B878A878FEFEA85FB858083EF5691
:10396000F040FB87EA87C30160E00E94DF1DC301CE
:103970000E94EF1F81E0EA85FB85808F0DC08A855C
:103980009B850E9451192CCFC10166E00E946B12E9
:10399000882309F425CFF3CF2B960FB6F894DEBF1A
:1039A0000FBECDBFCF91DF911F910F91FF90EF9090
:1039B000DF90CF90BF90AF909F908F907F906F904F
:1039C0005F904F903F902F900895AF92BF92CF920B
:1039D000DF92EF920F93CF93DF936C018EE790E02D
:1039E000C80ED91E82E3F601808381E090E0A0E05A
:1039F000B0E0B293A293929382936F0185EF9FEF11
:103A0000C80ED91E8FEFF601808381E99FEFC80EA3
:103A1000D91EC6010E94B918C6010E94A411C60190
:103A20006FEF0E94A8114AE0A42EB12CAC0CBD1C73
:103A3000C5010E945B12C5010E949312C6014896FF
:103A40000E941512C601825B9F4F6DE04BE020E1A2
:103A50000FE03EE0E32E0E94DF17E601A596CE01BF
:103A60000E940820C50165E00E946B12882329F09E
:103A7000CE0160E00E94FB1F06C0CE016CEC75E039
:103A800040E00E94EE1DDF91CF910F91EF90DF900B
:103A9000CF90BF90AF9008950F93DC01002309F001
:103AA00069C0623009F443C0633030F4662359F0D2
:103AB000613009F05FC00DC0633009F444C0643068
:103AC00009F058C04CC04B3008F04AE056964C9371
:103AD00051C0842F90E0880F991F1F962D913C9123
:103AE0005097280F391FF9018591949190969C93D6
:103AF0008E935F97FC014591549114968C91149785
:103B0000849F602D112491966C939197252F3327D4
:103B1000862F90E02817390708F4652F14968C91AA
:103B20001497689F802D112492968C9323C014962D
:103B30008C911497489F802D112459968C935997F6
:103B40005A962C9317C014968C911497489F802DE9
:103B500011245B968C935B975C962C930BC0149608
:103B60008C911497489F802D11245D968C935D97BE
:103B70005E962C930F910895FC01222371F4648BBF
:103B80008481489F802D1124858B15A214A213A235
:103B900081E0878B80937106108E0895FC01662367
:103BA00069F4178A158A14A213A2108E1092740653
:103BB00010927306109271061092B4000895CF937C
:103BC000DF93EC01662319F40E94CE1D1982DF9168
:103BD000CF91089560E00E94DF1D08950F931F9319
:103BE000CF93DF93EC018B01442371F460E00E94DA
:103BF000DF1D1E870D871B8A1A8A81E0898389E071
:103C00008E8B198E1B8E1D8EDF91CF911F910F9180
:103C10000895CF93DF93EC01662339F588818823DB
:103C200021F18981882309F5898590E0880F991F02
:103C3000EF81F885E80FF91F859194912FEF8F3F61
:103C4000920711F4188211C09C8790E0880F991F89
:103C5000EA85FB85E80FF91F65917491CE0140E07C
:103C60000E94EE1D89858F5F8987DF91CF9108952E
:103C700060E00E94091E08950F93CF93DF93EC013B
:103C8000662309F068C08981882309F464C08D899E
:103C9000882309F060C0EA89FB89EE0FFF1F4D857C
:103CA0005E85E40FF51F259134912115310509F04A
:103CB00040C08989813031F41B8A1A8AFA01259122
:103CC000349137C019828881882379F0CE0160E071
:103CD0000E94091E8A899B89880F991FED85FE85A0
:103CE000E80FF91F2591349124C0CE0160E00E94B5
:103CF000CE1D31C0E6E036952795EA95E1F76F7065
:103D0000422F4F7175E0369527957A95E1F720514E
:103D1000CE0100E00E944C1D8A899B8901969B8BF5
:103D20008A8B880F991FED85FE85E80FF91F259175
:103D30003491B901769567957695679520FDDACF30
:103D40006F73432FCE0120E00E94BC1D8A899B899E
:103D500001969B8B8A8BDF91CF910F91089560E044
:103D60000E943C1E0895CF93DF93EC01662309F077
:103D7000D6C08F89882309F4D2C08D89882321F485
:103D8000CE010E94CE1DCBC081508D8B8DA188238A
:103D900009F03BC08BA19CA10196880F991FEF8D64
:103DA000F8A1E80FF91F85919491282F27702EA371
:103DB000AC0163E0569547956A95E1F79A0136950F
:103DC0002795892F9927869586958FA32F738C81A8
:103DD000289F202D11242DA34170409375068BA19F
:103DE0009CA101969CA38BA329A130E08217930785
:103DF00060F08AA1882329F0281B31093CA32BA35A
:103E000004C0CE0160E00E94CE1D8DA181508DA323
:103E1000988D9F5F988F2FA18C89280F8C85280FF4
:103E20002A836B8D662369F0892F992787FD9095EA
:103E300070E00E94F5288C8D869F802D1124820FC2
:103E40008A838A8190E0CB966BE370E00E94F5282C
:103E50008A832E892B83698D662379F0888D772755
:103E600067FD7095992787FD90950E94F5288A8DAA
:103E7000869F802D1124820F8B836D8D662399F090
:103E8000888D992787FD909570E00E94F528CB01D9
:103E900062E070E00E94F5289E8D899F802D11249C
:103EA0009B81890F8B838B818A300CF089E087FDA1
:103EB00080E08B838C898F3309F41B82F894EA812C
:103EC000F0E0E051FA4FE491E09372062D8130E08A
:103ED0008B81992787FD9095A901489F9001499F63
:103EE000300D589F300D112488A590E0A901489FFE
:103EF0009001499F300D589F300D11248EA19927B4
:103F000087FD9095AC01249FC001259F900D349FA3
:103F1000900D112480937306809374067894DF913A
:103F2000CF91089560E00E94B31E089560917306DA
:103F3000662381F1809170068F5F80937006909167
:103F40007206891738F130E080917106882309F4F0
:103F500031E03093710610927006809175068823C7
:103F6000A9F08091F30123E4829FC0011124895BB1
:103F70008093F30190E070E00E94E1288093740642
:103F800005C0809174068093B40008953323C9F767
:103F900080E0F9CF08951F920F920FB60F9211246F
:103FA0002F933F934F935F936F937F938F939F9341
:103FB000AF93BF93EF93FF930E94961FFF91EF91F2
:103FC000BF91AF919F918F917F916F915F914F9131
:103FD0003F912F910F900FBE0F901F90189568EE94
:103FE00075E040E00E94EE1D08956AED75E040E046
:103FF0000E94EE1D0895FC01862F668170E06F5FC0
:104000007F4F992787FD90950E94F5288583089515
:104010000F93FC0181E0848384E080A78BE296E02B
:10402000908B8787CF0161E040E020E000E00E94B4
:104030004C1D83E061E070E00E943A23E1EBF0E088
:104040008081887F81608083F89410928000E1E80D
:10405000F0E01082109285001092840088E191E0D7
:10406000909389008093880080818860808380811C
:1040700081608083EFE6F0E08081826080837894C5
:104080000F9108950F931F93CF93DF93BC0182305C
:10409000910510F462E070E0E0917F06F0918006F7
:1040A000A0E0B0E040E050E024C08081918186171C
:1040B0009707D0F08617970771F482819381109744
:1040C00029F013969C938E9312972CC090938006A0
:1040D00080937F0627C04115510519F08417950775
:1040E00018F4EF018D01AC01DF01828193819C0105
:1040F000F9013097D1F641155105F9F0CA01861B37
:10410000970B8430910580F48A819B8101151105FC
:1041100021F0F8019383828304C0909380068093FA
:104120007F06FE0132962FC0FE01E80FF91F619352
:10413000719302979983888326C08DB79EB788575D
:1041400090402091F4013091F50128173907C8F407
:10415000AC01421B530B4617570798F0CB01029650
:104160004817590770F0820F931F9093F5018093C1
:10417000F4019093F7018093F601F9016193719333
:1041800002C0E0E0F0E0CF01DF91CF911F910F91ED
:104190000895CF93DF939C01009709F48FC0EC0141
:1041A00022971B821A8260917F06709180066115AA
:1041B000710581F488819981820F931F2091F40108
:1041C0003091F5012817390739F5D093F501C093DF
:1041D000F40174C0DB0140E050E0AC17BD0708F10A
:1041E000BB83AA83FE0121913191E20FF31FAE1729
:1041F000BF0779F48D919C911197280F391F2E5F7D
:104200003F4F3983288312968D919C9113979B83FE
:104210008A834115510571F4D0938006C0937F06BF
:104220004DC012968D919C911397AD01009711F09E
:10423000DC01D3CFDA011396DC93CE931297FA0107
:1042400021913191E20FF31FCE17DF0769F48881C6
:104250009981280F391F2E5F3F4FFA013183208348
:104260008A819B8193838283E0E0F0E0DB011296F8
:104270008D919C911397009719F0BC01FD01F6CF29
:10428000AB014E5F5F4FDB018D919C91840F951FB9
:104290002091F4013091F5012817390779F430970E
:1042A00029F41092800610927F0602C013821282B7
:1042B000425050405093F5014093F401DF91CF916B
:1042C00008956F927F928F929F92AF92BF92CF92FA
:1042D000DF92EF92FF920F931F93CF93DF938C01A6
:1042E000009729F4CB010E9442208C01B4C08EEFCC
:1042F000E82E8FEFF82EE00EF11E5801A60EB71E25
:10430000AE14BF0408F4A5C0D7014D915C9111977C
:1043100046175707B8F04530510508F49CC0CA014C
:1043200004978617970708F496C042505040461BE2
:10433000570BF501419351936D937C93CF010E94EC
:10434000C92089C04B01841A950A3801640E751E74
:10435000A0917F06B0918006CC24DD24E0E0F0E05F
:1043600047C0A615B705A9F5CD91DC911197CE01EF
:1043700002968815990568F1CE0188199909029667
:1043800012962C91129713963C91059758F0F501CF
:1043900022833383C819D909D183C083D7016D9390
:1043A0007C9309C04E5F5F4F4C0F5D1FF701518337
:1043B0004083C901FC01C114D10431F0D601139628
:1043C000FC93EE93129747C0F0938006E0937F062C
:1043D00042C08D919C911197E817F90708F4FC01F0
:1043E0006D0112968C91129713969C919C01D901A4
:1043F000109709F0B6CF8091F4019091F5018615E0
:104400009705B1F4E617F70798F48DB79EB788576C
:104410009040A816B906E8F4B092F501A092F40114
:10442000B092F701A092F601F7017183608313C087
:10443000CB010E944220EC01009759F0D7014D9129
:104440005C91B8010E94AC29C8010E94C9208E016C
:1044500002C000E010E0C801DF91CF911F910F91E1
:10446000FF90EF90DF90CF90BF90AF909F908F9094
:104470007F906F9008951F920F920FB60F921124A4
:104480002F933F938F939F93AF93BF9380917A061F
:1044900090917B06A0917C06B0917D0630917E06BE
:1044A0000196A11DB11D232F2D5F2D3720F02D5713
:1044B0000196A11DB11D20937E0680937A069093EC
:1044C0007B06A0937C06B0937D0680917606909142
:1044D0007706A0917806B09179060196A11DB11DCD
:1044E0008093760690937706A0937806B09379062A
:1044F000BF91AF919F918F913F912F910F900FBEE0
:104500000F901F9018958FB7F89420917A063091EC
:104510007B0640917C0650917D068FBFB901CA0190
:1045200008959FB7F89420917606309177064091D0
:1045300078065091790686B5A89B06C08F3F21F07A
:104540002F5F3F4F4F4F5F4F9FBF542F432F322F4F
:104550002227280F311D411D511D82E0220F331FDC
:10456000441F551F8A95D1F7B901CA010895EF92EA
:10457000FF920F931F93CF93DF937B018C010E94D7
:104580009122EB010EC00E9491226C1B7D0B685E94
:104590007340C8F30894E108F10801091109C851F2
:1045A000DC4FE114F1040105110569F7DF91CF91AA
:1045B0001F910F91FF90EF900895789484B58260D9
:1045C00084BD84B5816084BD85B5826085BD85B5B7
:1045D000816085BDEEE6F0E0808181608083E1E866
:1045E000F0E010828081826080838081816080839E
:1045F000E0E8F0E0808181608083E1EBF0E08081A1
:1046000084608083E0EBF0E0808181608083EAE772
:10461000F0E08081846080838081826080838081FB
:10462000816080838081806880831092C1000895BA
:10463000982F8E3008F09E5097708091F8018295E7
:10464000880F880F807C892B80937C0080917A0072
:10465000806480937A0080917A0086FDFCCF20915F
:10466000780040917900942F80E030E0282B392B9E
:10467000C90108951F93CF93DF93182FEB0161E0D9
:104680000E949A23209709F44AC0CF3FD10509F42C
:1046900049C0E12FF0E0E358F94F84918330C1F035
:1046A000843028F4813051F08230B1F50CC086306E
:1046B00019F1873049F1843079F514C084B58068E8
:1046C00084BDC7BD33C084B5806284BDC8BD2EC063
:1046D00080918000806880938000D0938900C0938F
:1046E000880024C080918000806280938000D093F5
:1046F0008B00C0938A001AC08091B00080688093BC
:10470000B000C093B30012C08091B000806280936B
:10471000B000C093B4000AC0C038D1051CF4812F8A
:1047200060E002C0812F61E00E940624DF91CF91FA
:104730001F910895CF93DF93482F50E0CA01875906
:10474000994FFC0134914B5A594FFA0184918823B7
:1047500069F190E0880F991FFC01E95CF94FA59180
:10476000B491FC01EF5BF94FC591D491662351F4EC
:104770002FB7F8948C91932F909589238C938881EF
:1047800089230BC0623061F42FB7F8948C91932F7A
:10479000909589238C938881832B88832FBF06C0B3
:1047A0009FB7F8948C91832B8C939FBFDF91CF910F
:1047B0000895833071F0843028F48130A1F0823084
:1047C00021F514C08630B1F08730D1F08430E9F49F
:1047D00004C0809180008F7703C0809180008F7D1E
:1047E00080938000089584B58F7702C084B58F7D53
:1047F00084BD08958091B0008F778093B0000895B4
:104800008091B0008F7D8093B0000895FF920F9348
:104810001F93F62E482F50E0CA018358994FFC0190
:104820002491CA018759994FFC0114914B5A594F51
:10483000FA0104910023C9F0222319F0822F0E946B
:10484000D923E02FF0E0EE0FFF1FEF5BF94FA591AA
:10485000B4919FB7F894FF2021F48C911095812397
:1048600002C08C91812B8C939FBF1F910F91FF9061
:1048700008950F931F93482F50E0CA018358994F12
:10488000FC012491CA018759994FFC0104914B5AAC
:10489000594FFA011491112319F420E030E015C0AA
:1048A000222319F0822F0E94D923812F90E0880FB4
:1048B000991F855B994FFC01A591B4918C9120E0E3
:1048C00030E0802311F021E030E0C9011F910F9109
:1048D0000895CF93DF930E94DD220E944E11C0E025
:1048E000D0E00E94F4102097E1F30E940000F9CF7D
:1048F000CF92DF92EF92FF920F931F93CF93DF93AC
:104900007C016B018A01C0E0D0E00FC0D6016D913F
:104910006D01D701ED91FC910190F081E02DC7016F
:104920000995C80FD91F015010400115110571F7E5
:10493000CE01DF91CF911F910F91FF90EF90DF900B
:10494000CF900895EF92FF920F931F93CF93DF9331
:104950007C018B01C0E0D0E0F8010F5F1F4F649134
:10496000662359F0D701ED91FC910190F081E02D83
:10497000C7010995C80FD91FEFCFCE01DF91CF91A5
:104980001F910F91FF90EF900895DC01ED91FC9144
:104990000190F081E02D09950895EF92FF920F9319
:1049A0001F938C01DC01ED91FC910190F081E02DD1
:1049B0006DE009957C01D801ED91FC910190F081A9
:1049C000E02DC8016AE009959C012E0D3F1DC9012B
:1049D0001F910F91FF90EF900895EF92FF920F9328
:1049E0001F937C010E94A2248C01C7010E94CD2448
:1049F0009C01200F311FC9011F910F91FF90EF9073
:104A00000895CF93DF93EC016115710519F420E04F
:104A100030E00FC0DB010D900020E9F71197A61BD5
:104A2000B70BE881F9810280F381E02DAD01099592
:104A30009C01C901DF91CF9108954F925F927F92BF
:104A40008F929F92AF92BF92CF92DF92EF92FF929E
:104A50000F931F93DF93CF93CDB7DEB7A1970FB618
:104A6000F894DEBF0FBECDBF2C01742ECB012230D7
:104A700008F42AE019A231E2C32ED12CCC0EDD1E9F
:104A8000822E9924AA24BB24672D752FA501940199
:104A90000E94082979018A01C801B701A501940182
:104AA0000E94B628472D461B0894C108D1084A30F9
:104AB00014F4405D01C0495CF6014083E114F10447
:104AC0000105110521F07E2C5F2DC801DDCFC2014B
:104AD000B6010E940125A1960FB6F894DEBF0FBE65
:104AE000CDBFCF91DF911F910F91FF90EF90DF909D
:104AF000CF90BF90AF909F908F907F905F904F909E
:104B00000895DC012115310541F4ED91FC910190EE
:104B1000F081E02D642F099508950E941D250895C8
:104B2000EF92FF920F931F939A017B0100E010E038
:104B3000B801A7010E9481251F910F91FF90EF906E
:104B40000895CF92DF92EF92FF920F931F93CF932E
:104B5000DF93EC016A017B012115310541F4E88105
:104B6000F9810190F081E02D642F09951FC02A3052
:104B70003105D1F477FF17C0E881F9810190F08108
:104B8000E02D6DE209958C0144275527BA014C1997
:104B90005D096E097F09CE012AE00E941D2598015A
:104BA000280F391F04C02AE00E941D259C01C9015D
:104BB000DF91CF911F910F91FF90EF90DF90CF90F9
:104BC0000895EF92FF920F931F937B019A010027A4
:104BD000F7FC0095102FB801A7010E94A1251F9195
:104BE0000F91FF90EF9008950E94012508952F9254
:104BF0003F924F925F926F927F928F929F92AF926D
:104C0000BF92CF92DF92EF92FF920F931F93DF93A9
:104C1000CF93CDB7DEB73B014C0119012A016D8955
:104C20007E898F89988D6A197B098C099D09621A82
:104C3000730A840A950AA40193010E94B628E21817
:104C4000F30804091509A80197010E942A292A0DD1
:104C50003B1D4C1D5D1DB901CA01CF91DF911F9114
:104C60000F91FF90EF90DF90CF90BF90AF909F900B
:104C70008F907F906F905F904F903F902F9008950E
:104C8000EF92FF920F931F937B018C0161157105C9
:104C90008105910529F420E030E040E050E00BC0B0
:104CA0000E949E29A80197010E942A29AC01CB01EC
:104CB000DA019C01AD01B901CA011F910F91FF906A
:104CC000EF900895009729F0BC0180E090E00E94E9
:104CD000A3290895DC01FB0114968D919C911597F1
:104CE000892B31F461157105A9F090E0808108C02D
:104CF0000D90BC91A02D6115710529F490E08C9167
:104D0000882349F407C0CD010E94B5299C0190E099
:104D1000232B09F491E0892F08950F931F93CF93CC
:104D2000DF93EC018B016F5F7F4F888199810E9437
:104D30006121009711F480E005C0998388831B836B
:104D40000A8381E0DF91CF911F910F910895CF9356
:104D5000DF93EC0188819981892B29F08A819B81DD
:104D60008617970760F4CE010E948D26882341F0B4
:104D70008C819D81892B19F4E881F981108281E071
:104D8000DF91CF910895CF93DF93EC0188819981D2
:104D9000009711F00E94C920198218821D821C827E
:104DA0001B821A82DF91CF910895EF92FF920F93A9
:104DB0001F93CF93DF93EC017B018A01BA010E941C
:104DC000A726882321F4CE010E94C32607C01D8395
:104DD0000C8388819981B7010E94BE29CE01DF91A1
:104DE000CF911F910F91FF90EF900895CF93DF9394
:104DF000EC01198218821B821A821D821C821E827B
:104E00006115710551F0DB010D900020E9F7119754
:104E1000A61BB70BAD010E94D526DF91CF91089557
:104E20000F931F93182F092F6115710559F0DB019E
:104E30000D900020E9F71197A61BB70BAD010E945A
:104E4000D52602C00E94C326812F902F1F910F915B
:104E50000895FC01808191810E94C92008955058D5
:104E6000BB27AA270ED0E5C0D6D030F0DBD020F08B
:104E700031F49F3F11F41EF4CBC00EF4E095E7FB34
:104E8000C1C0E92FE7D080F3BA1762077307840720
:104E9000950718F071F49EF5FFC00EF4E0950B2E07
:104EA000BA2FA02D0B01B90190010C01CA01A0017C
:104EB0001124FF27591B99F0593F50F4503E68F1D7
:104EC0001A16F040A22F232F342F4427585FF3CF18
:104ED000469537952795A795F0405395C9F77EF4E9
:104EE0001F16BA0B620B730B840BBAF09150A1F032
:104EF000FF0FBB1F661F771F881FC2F70EC0BA0FB8
:104F0000621F731F841F48F4879577956795B7953F
:104F1000F7959E3F08F0B3CF9395880F08F0992737
:104F2000EE0F97958795089504D06894B111B5C098
:104F3000089598D088F09F5790F0B92F9927B751CE
:104F4000A0F0D1F0660F771F881F991F1AF0BA954D
:104F5000C9F712C0B13081F09FD0B1E008959CC074
:104F6000672F782F8827B85F39F0B93FCCF3869543
:104F700077956795B395D9F73EF4909580957095A0
:104F800061957F4F8F4F9F4F0895E89409C097FB1D
:104F90003EF490958095709561957F4F8F4F9F4F10
:104FA0009923A9F0F92F96E9BB279395F695879554
:104FB00077956795B795F111F8CFFAF4BB0F11F417
:104FC00060FF1BC06F5F7F4F8F4F9F4F16C08823BE
:104FD00011F096E911C0772321F09EE8872F762FF4
:104FE00005C0662371F096E8862F70E060E02AF035
:104FF0009A95660F771F881FDAF7880F9695879521
:1050000097F9089597F99F6780E870E060E0089548
:105010009FEF80EC089500240A94161617061806D0
:105020000906089500240A941216130614060506AC
:105030000895092E0394000C11F4882352F0BB0F3D
:1050400040F4BF2B11F460FF04C06F5F7F4F8F4FA0
:105050009F4F089557FD9058440F551F59F05F3FDB
:1050600071F04795880F97FB991F61F09F3F79F08A
:1050700087950895121613061406551FF2CF46950C
:10508000F1DF08C0161617061806991FF1CF86958E
:105090007105610508940895E894BB276627772772
:1050A000CB0197F908950BD0C4CFB5DF28F0BADF54
:1050B00018F0952309F0A6CFABCF1124EECFCADFAD
:1050C000A0F3959FD1F3950F50E0551F629FF0011B
:1050D000729FBB27F00DB11D639FAA27F00DB11D74
:1050E000AA1F649F6627B00DA11D661F829F2227FD
:1050F000B00DA11D621F739FB00DA11D621F839F84
:10510000A00D611D221F749F3327A00D611D231F59
:10511000849F600D211D822F762F6A2F11249F57A7
:1051200050408AF0E1F088234AF0EE0FFF1FBB1FCA
:10513000661F771F881F91505040A9F79E3F510569
:1051400070F060CFAACF5F3FECF3983EDCF386951A
:1051500077956795B795F795E7959F5FC1F7FE2B14
:10516000880F911D9695879597F90895629FD001B4
:10517000739FF001829FE00DF11D649FE00DF11D12
:10518000929FF00D839FF00D749FF00D659FF00DC1
:105190009927729FB00DE11DF91F639FB00DE11DAE
:1051A000F91FBD01CF0111240895991B79E004C0B6
:1051B000991F961708F0961B881F7A95C9F7809556
:1051C0000895AA1BBB1B51E107C0AA1FBB1FA6174E
:1051D000B70710F0A61BB70B881F991F5A95A9F7A0
:1051E00080959095BC01CD01089597FB092E072667
:1051F0000AD077FD04D0E5DF06D000201AF47095C0
:1052000061957F4F0895F6F7909581959F4F08958A
:10521000A1E21A2EAA1BBB1BFD010DC0AA1FBB1FBA
:10522000EE1FFF1FA217B307E407F50720F0A21B2C
:10523000B30BE40BF50B661F771F881F991F1A9499
:1052400069F760957095809590959B01AC01BD01C3
:10525000CF01089597FB092E05260ED057FD04D0E7
:10526000D7DF0AD0001C38F4509540953095219531
:105270003F4F4F4F5F4F0895F6F79095809570958B
:1052800061957F4F8F4F9F4F0895EE0FFF1F059041
:10529000F491E02D0994A0E0B0E0E1E5F9E20C948E
:1052A000CD29EC01A880B980CA80DB80A114B104AB
:1052B000C104D10441F484E2A82E89EDB82E8BE517
:1052C000C82E87E0D82EC601B5012DE133EF41E0AD
:1052D00050E00E942A2927EA31E440E050E00E9491
:1052E000B6287B018C01C601B5012DE133EF41E009
:1052F00050E00E942A29CA01B9012CEE34EF4FEF89
:105300005FEF0E94B6286E0D7F1D801F911F97FFD3
:1053100004C06150704080409048688379838A83DC
:105320009B839B01AC015F77B901CA01CDB7DEB7A2
:10533000EAE00C94E9290E944B2908958FE791E057
:105340000E944B29089560937F01709380018093A0
:105350008101909382010895FB01DC0102C001905C
:105360000D9241505040D8F70895FB01DC018D911A
:10537000019080190110D9F3990B0895FB01DC010C
:1053800001900D920020E1F708952F923F924F92E5
:105390005F926F927F928F929F92AF92BF92CF92C5
:1053A000DF92EF92FF920F931F93CF93DF93CDB7CE
:1053B000DEB7CA1BDB0B0FB6F894DEBF0FBECDBF46
:1053C00009942A88398848885F846E847D848C8417
:1053D0009B84AA84B984C884DF80EE80FD800C8120
:1053E0001B81AA81B981CE0FD11D0FB6F894DEBF03
:1053F0000FBECDBFED01089516E0C4E9D6E004C0AC
:10540000FE010E9447292296C639D107C9F7F894B0
:02541000FFCFCC
:105412000067616D656F766572006E65776C6966AF
:1054220065006E65776C6576656C0072756E6E6987
:105432006E670020204C4153542020202020202041
:105442002020484947480020413A20504C415920E9
:1054520020202020433A2051554954006E65776739
:10546200616D650047414D45204F564552005052EF
:10547200455353204220544F20434F4E54494E55DA
:1054820045007469746C65004C4F414445520001FB
:1054920000000000000400080008000800080008DE
:1054A2000004000000FCFFF8FFF8FFF8FFF8FFF827
:1054B200FFFCFFF8FFF8FFF8FFFCFF000004000804
:1054C20000080008000800080004000000FCFFF8C3
:1054D200FFF8FF04000400FCFFFCFF0800080008BE
:1054E200000800F8FFF8FFF8FFF8FFF8FF0800F8DF
:1054F200FF0800F8FFFCFF0400080008000400FC9D
:10550200FFF8FF0181066400010000240039000158
:1055120000010001000500060001000F0039000132
:105522000001000200070008000100140039000118
:105532000001000200070008000100190039000103
:105542000001000200070008000000000002000144
:1055520000000000000400050000003A0000000006
:10556200000000000007000800000000000000002A
:10557200000200010007000300000002000000001A
:1055820000020001000700030001000C003A0000C5
:10559200000000000007000200000028003900019E
:1055A200000100010006000600000000002D17782F
:0255B2002400D3
:00000001FF
