:100000000C9433030C945B030C945B030C945B0320
:100010000C945B030C945B030C945B030C945B03E8
:100020000C945B030C945B030C945B030C94E61F31
:100030000C945B030C945B030C945B030C945B03C8
:100040000C944C200C945B030C945B030C945B03AA
:100050000C945B030C945B030C945B030C945B03A8
:100060000C945B030C945B03596F6461277300204D
:10007000202020596F646127730020202020596FB1
:100080006461277300030340E04007051028FE4425
:1000900038070520D87000000A0A36004900808021
:1000A0004040204040408040808041003E000A0A9D
:1000B00011002A8044408080804080408040408001
:1000C00021001E000A0A1E0021004080804080405E
:1000D000404040408880550022000A0A1F002080CE
:1000E00040408040808081008080404024801B0010
:1000F0000A0A000000001C002200110021002A0052
:100100001400000000000A0A000000001600290088
:100110002200210012000C00000000000A0A00006A
:1001200000000C0012002100110025001A00000040
:1001300000000A0A000000000C001200210022004A
:1001400029001600000000000A0A0000000000005C
:1001500004000A0012000C000000000000000A0A5F
:100160000000000000000800140012000C00000055
:10017000000000000A0A0000000000000C0012004D
:100180000A0004000000000000000A0A000000004D
:1001900000000C0012001400080000000000000025
:1001A000070710102828447C0007070C1424446813
:1001B00018000707061A64442818000707001E6283
:1001C00044283000070700605846586000070700C1
:1001D000302844621E00070700182844641A0607E6
:1001E000070018684424140C0707007C44282810D2
:1001F00010070700302C444850600707003028449F
:100200004CB0C00707001828448CF0000707000C0A
:1002100034C4340C00070700F08C4428180007078A
:10022000C0B04C442830000707605048442C3000D0
:100230000707002028444C3808070700404C820874
:100240004830070740840200084820070780020062
:1002500000000440401AFFFFFFFFFFFFFFFF000008
:10026000000000000000383DF7DF0707771E7C7DA7
:10027000F7DF8F8F773EFEFDF7DFDFDF777EFEFD56
:10028000F7DFDFDF777EEEE0E71DDDDC7770EEE0A5
:10029000E71DDDDC7E70EEE0E79DDDDC7C70FEF8C6
:1002A000E79F9DDC787CFE7CE79F1DDC7C3EFE3E6C
:1002B000E71F9DDC7E1FEE0EE71DDDDC7707EE0EEF
:1002C000E71DDDDC7707EEFEE7DDDFDF777FEEFEA3
:1002D000E7DDDFDF777FEEFCE7DDCF8F777EEEF8BF
:1002E000E7DDC707777C0000000000000000FFFF8B
:1002F000FFFFFFFFFFFF0000000000000000A6C698
:100300006AECE66E66CEAAAA8A4A8AAA8AA8AAAE29
:10031000EA4ACAEC8EAC4AAA2A4A8AAA8AA84ECAD3
:10032000E4ECEEAAEACE0A4E6F20534420636172D9
:1003300064206F720A6E6F204C4F414445522E4824
:1003400045580A0A153A45786974001D20466C61C3
:100350007368696E670A20206C6F616465722E2E67
:100360002E0A0A444F4E2754205455524E204F46D1
:100370004621000A0A153A49676E6F7265006D568C
:100380000A0A504C45415345205455524E204F4681
:100390004620004C4F572042415454455259212089
:1003A00000172B152010204C4F4144455200172BAD
:1003B0001620131400175344001613780016131454
:1003C000001510200015201000540A03E181867FDB
:1003D0003E186D830F0F0E0183866033186DC319AD
:1003E0008F1803C38E6033186DE330CF1803C39E9C
:1003F000603630CDE360CF3006C79E7E3E30CDB351
:1004000060CF300CC6F6603330D9B660CF33CFCC76
:10041000F66061B0DB1E60CF30D86CE6C061B0DB47
:100420001E618F19986CC6C063B19B0E330F0FB05D
:1004300078C6FF7E1F1B061E0F0500893008023894
:100440000249786814000003053F213F1208120A90
:10045000100A0E1C0E0C1E0C141A14161F161E1356
:100460001E1E1B1E1E1F1E3F213F3A2F3A173D170F
:100470003F213F181F02040A041F0E04040E1F0A26
:100480001F0A0E0E1F04110E2E252E2F2A2E26298E
:1004900029021F02081F08150E04040E150E15155B
:1004A0001B151B040604040C0400000000170003C5
:1004B00000031F0A1F16371A1904130A153A0003FE
:1004C00000000E11110E000A040A040E0400300090
:1004D0000404040010001804031F111F121F101D34
:1004E000151711151F07041F17151D1F151D0101D5
:1004F0001F1F151F17151F000A00003200040A11E4
:100500000A0A0A110A040115020E11171E051E1F00
:10051000150A0E110A1F110E1F15111F05010E11CC
:100520001D1F041F111F1108100F1F041B1F101087
:100530001F061F1E040F0E110E1F09060E112E1F7F
:10054000051A121509011F011F101F0F180F1F0C8C
:100550001F1B041B031C03191513001F1103041890
:10056000111F000201022020200001020C121E1F98
:10057000120C0C12120C121F0C1A14041E05242A41
:100580001E1F021C141D1020201D1F0814111F10F7
:100590001E041E1E021C0C120C3E0A040C123E1EEF
:1005A000040214160A020F120E101E0E100E1E0860
:1005B0001E120C1226281E322A26041E21001F009D
:1005C000211E040102013F213FF6E8DBCFC3B8AE94
:1005D000A49B928A827B746E68625C57524E494536
:1005E000413E3A3734312E2C2927252321450068F6
:1005F00001000005003801680100000306FF050145
:1006000001FF030101F703000000080002010000E0
:1006100003040700000000000000000102040810AD
:100620002040800102040810200102040810200468
:100630000404040404040402020202020203030389
:10064000030303000000002300260029000000002F
:1006500000250028002B0000000000240027002AAD
:1006600000001D112D1111241FBECFEFD8E0DEBFF9
:10067000CDBF12E0A0E0B1E0E2E9F3E502C00590F1
:100680000D92A43BB107D9F726E0A4EBB2E001C07C
:100690001D92A639B207E1F716E0C4E6D6E004C021
:1006A0002297FE010E940327C236D107C9F70E9494
:1006B000DA240C94BC290C9400008BEF93E00E9488
:1006C000EC1569E18BEF93E00E94671144E552E07D
:1006D0006AE770E08BEF93E00E9433148BEF93E0B6
:1006E0000E947F116CE771E085EF93E00E94A224E5
:1006F0001092130408951092F4031092F30383E010
:100700008093F0031092EF031092C0028FEF9FEFDF
:100710009093BB028093BA021092DA031092D9032D
:1007200080E197E29093AD038093AC0362E871E0BF
:1007300085EF93E00C94A2248F929F92AF92BF9288
:10074000CF92DF92EF92FF920F931F93CF93DF939D
:100750008091EF03880F8C5F813408F080E48093F0
:10076000C80269E6C62E63E0D62E79E2E72E73E072
:10077000F72EC9ECD2E0E9E0AE2EE3E0BE2EF9EEB2
:100780008F2EF2E09F2E8091C80290E09E01295C9E
:100790003240281739070CF050C060E471E080E067
:1007A00090E00E94B3238B01613A710514F000546C
:1007B0001E4F60E870E080E090E00E94B323F601F5
:1007C000019311936F01F701619371937F0164E0CD
:1007D00070E080E090E00E94B323699364E070E0F1
:1007E00080E090E00E94B323FB01EE0FFF1FEE5D5F
:1007F000FE4F8081918197FD0396959587959595FC
:100800008795885FF50181935F016CE070E080E07F
:1008100090E00E94B323FB01EE0FFF1FE65FFE4F47
:100820008081918197FD03969595879595958795FC
:10083000885FF40181934F01A6CF82E08093D403B7
:100840006BE871E085EF93E00E94A22488E2809338
:10085000AB031092AA03DF91CF911F910F91FF90EC
:10086000EF90DF90CF90BF90AF909F908F900895C2
:100870001092EE031092ED038FEF9FEF9093EC0335
:100880008093EB0380E491E09093DE038093DD039B
:1008900080EB90E09093DC038093DB031092D8030D
:1008A0001092D7031092D6031092D5038091D403EF
:1008B000813039F41092D4031092DA031092D903E4
:1008C00003C081E08093D40363E971E085EF93E096
:1008D0000C94A22481E090E09093EA038093E903D2
:1008E0008091E9039091EA032091F00330E08217B0
:1008F000930794F40197682F660F680F660F20EA3C
:1009000031E040E089E494E00E946E1A8091E903AE
:100910009091EA030196E0CF6091F3037091F403A4
:100920006A30710534F096E2643671051CF082E09D
:1009300002C098E280E0981B683E83E0780714F0DC
:1009400082E001C080E0981B603187E2780714F0F4
:1009500082E001C080E0981B9093520410925304EF
:100960004AE050E089E494E00E9490238CE4809374
:1009700052046091EF0370E06F5F7F4F4AE050E0F8
:1009800089E494E00C9490238091ED039091EE0320
:100990001816190694F401979093EE038093ED03D3
:1009A000892B59F48091EF038F5F8093EF0362E806
:1009B00071E085EF93E00C94A22408951F93CF93E8
:1009C000DF931092EA031092E9036091E9037091BA
:1009D000EA038091AE0390E0681779070CF0BEC07F
:1009E000CB01880F991FFC01E553FC4FDC01A55496
:1009F000BC4F408151812D913C91420F531F518337
:100A00004083DC01AD53BC4FEC01CD54DC4F2D9144
:100A10003C9111970990D881C02D2C0F3D1F2D932B
:100A20003C9357FF04C048565D4F51834083FC01FF
:100A3000E553FC4F408151814939A2E05A0724F027
:100A4000485952405183408337FF07C0FC01ED53A2
:100A5000FC4F28583E4F31832083FC01ED53FC4F5F
:100A600020813181293741E0340724F02857314073
:100A700031832083FB01E155FC4F20812F5F2083D0
:100A8000FC01ED53FC4F4081518157FF02C0495F8B
:100A90005F4FD3E055954795DA95E1F7FC01E553B3
:100AA000FC4F6081718177FF02C0695F7F4FC3E0B7
:100AB00075956795CA95E1F725E830E089E494E0FB
:100AC0000E946E1A6091E9037091EA03FB01E155FF
:100AD000FC4F80818F31D8F11091AE03812F90E0CF
:100AE0000197AC01440F551FDA01A553BC4FCD91BE
:100AF000DC919B01220F331FD901A553BC4FCD932D
:100B0000DC93DA01AD53BC4FCD91DC91D901AD53EB
:100B1000BC4FCD93DC93DA01A554BC4FCD91DC9151
:100B2000D901A554BC4FCD93DC93DA01AD54BC4F31
:100B30004D915C91D901AD54BC4F4D935C93DC0158
:100B4000A155BC4F8C91808311501093AE036F5F01
:100B50007F4F7093EA036093E90337CFDF91CF9122
:100B60001F9108958091C802883008F070C080916C
:100B7000F3039091F403853F91400CF468C0809199
:100B8000C002811164C06AEF70E080E090E00E94D2
:100B9000B32362307105810591050CF058C0609156
:100BA000EF0370E06C5F7F4F882777FD8095982F6B
:100BB0000E94B32363307105810591050CF045C097
:100BC00081E08093C00288EC9FEF9093C4028093F1
:100BD000C30283E090E09093BF028093BE0262E084
:100BE00070E080E090E00E94B323672B682B692BB4
:100BF00061F480EA92E09093C4028093C3028DEF87
:100C00009FEF9093BF028093BE0260E471E080E0AA
:100C100090E00E94B323605E7F4F7093C2026093A6
:100C2000C10263E070E080E090E00E94B323615075
:100C30007109810991099B01220F331F260F371F6C
:100C40003093BD022093BC02089582E0BACF08958C
:100C50000F9360E089E494E00E94501809E027E2D5
:100C600040E166E189E494E00E94C61861E089E40D
:100C700094E00E94501888E18093520482E18093AE
:100C800053046BE971E089E494E00E94D82227E2E2
:100C900040E166E189E494E00E949E1884E080933C
:100CA00052048AE28093530465EA71E089E494E097
:100CB0000E94D82265E085E094E00E944D178823C9
:100CC00059F06CE771E085EF93E00E94A22480E286
:100CD00094E00F910C940A200F9108958091F303F2
:100CE0009091F4032091F1033091F2032817390712
:100CF00024F49093F2038093F10310925204109223
:100D0000530469EB71E089E494E00E94D822609179
:100D1000F3037091F4036A30710534F09CE064369B
:100D200071051CF082E002C09EE080E0981B683EE6
:100D300083E0780714F082E001C080E0981B909374
:100D4000520486E0809353044AE050E089E494E042
:100D50000E9490236091F1037091F2036A30710553
:100D600034F090E4643671051CF082E002C092E435
:100D700080E0981B683E83E0780714F082E001C0B1
:100D800080E0981B9093520486E0809353044AE0DD
:100D900050E089E494E00E94902324E532E04DE0A5
:100DA0006AE089E494E00E946E1A109252048AE28A
:100DB000809353046DEC71E089E494E00E94D822A2
:100DC00064E085E094E00E944D17882351F062EEC4
:100DD00071E085EF93E00E94A22480E294E00E94FB
:100DE0000A2066E085E094E00E944D17882341F0D8
:100DF00044E552E068E670E08BEF93E00C94331426
:100E000008950F931F93CF93DF93162FEC0194E077
:100E1000CC0FDD1F9A95E1F7CD50DE4F062F20E075
:100E20004C8560E080E294E00E94C81D20E048818B
:100E300061E080E294E00E94C81D288521954A85E2
:100E400062E080E294E00E94C81D2C812A534E810A
:100E500063E080E294E00E94C81D212F4E856A81E4
:100E600080E294E0DF91CF911F910F910C94F91DD6
:100E70008091EB039091EC0301979093EC038093A6
:100E8000EB0365E070E00E94A126892B31F460E05D
:100E900070E081E090E00E9401078091EB03909167
:100EA000EC0366EF7FEF0E94A1266D5E7F4F70938B
:100EB000EA036093E90389E0869F9001879F300DE4
:100EC000112420563E4F4091DB035091DC0357FF25
:100ED00002C0495F5F4F63E0559547956A95E1F71A
:100EE0006091DD037091DE0377FF02C0695F7F4F81
:100EF00053E0759567955A95E1F789E494E00E946F
:100F00006E1A8091EB039091EC03892BB1F48FEF73
:100F10009FEF9093EC038093EB038091F00381505B
:100F20008093F003811103C06AEE71E002C06BE8A8
:100F300071E085EF93E00C94A2240895CF93809103
:100F4000D403813009F022C18091EB039091EC032E
:100F5000019609F010C16091DD037091DE0380916C
:100F6000D7039091D803680F791F7093DE036093C5
:100F7000DD034091DB035091DC038091D503909118
:100F8000D603480F591F5093DC034093DB03809135
:100F9000D9039091DA03E9E0E89F9001E99F300DD1
:100FA000112420563E4F57FF02C0495F5F4FE3E0D8
:100FB00055954795EA95E1F777FF02C0695F7F4F46
:100FC00053E0759567955A95E1F789E494E00E949E
:100FD0006E1A40E065E085E094E00E946417882383
:100FE00009F465C060E070E088E090E00E940107CD
:100FF0008091D9039091DA03880F991FFC01E65A7A
:10100000FE4F2081318137FF02C0295F3F4FC3E08F
:1010100035952795CA95E1F74091D7035091D803AC
:10102000240F351F3093D8032093D703FC01E65CCF
:10103000FE4F8081918197FD0796B3E09595879546
:10104000BA95E1F74091D5035091D603840F951FCF
:101050009093D6038093D5032930310534F028E0EE
:1010600030E03093D8032093D7032091D7033091F9
:10107000D803283F3F4F34F428EF3FEF3093D80395
:101080002093D703099734F088E090E09093D6033B
:101090008093D5038091D5039091D603883F9F4FCD
:1010A00034F488EF9FEF9093D6038093D50340E00C
:1010B00063E085E094E00E946417882301F160E515
:1010C00072E080E090E00E94B323685D7F4F7093F0
:1010D000DE036093DD0360E371E080E090E00E9456
:1010E000B323685D7F4F7093DC036093DB03109242
:1010F000D8031092D7031092D6031092D50340E084
:1011000060E085E094E00E946417882391F080916C
:10111000D9039091DA039C01215031093093DA030D
:101120002093D90337FF05C00F969093DA0380937D
:10113000D90340E062E085E094E00E9464178823D0
:1011400069F08091D9039091DA03019660E170E033
:101150000E94A1269093DA038093D90364E085E08E
:1011600094E00E944D17882341F0C091AE03C43033
:1011700008F461C002C00E9438078091E903909191
:10118000EA0301969093EA038093E9038091DD03DB
:101190009091DE03883C4FEF940734F488569D4FBE
:1011A0009093DE038093DD038091DD039091DE0355
:1011B000893922E0920734F0885992409093DE03F7
:1011C0008093DD038091DB039091DC03883C4FEF3B
:1011D000940734F488589E4F9093DC038093DB038C
:1011E0008091DB039091DC03893721E0920734F092
:1011F000885791409093DC038093DB038091D30365
:10120000813011F48093D40366E085E094E00E947D
:101210004D17882309F455C044E552E06FE670E0AD
:101220008BEF93E00E9433146CE771E085EF93E05D
:10123000CF910C94A2244C2F50E08091D90390912F
:10124000DA03880F991FFC01E65AFE4F0190F081E6
:10125000E02D9A01220F331FD901A554BC4FED9305
:10126000FC93DC01A65CBE4F6D917C91D901AD541D
:10127000BC4F6D937C93D901A553BC4F8091DD0386
:101280009091DE0340968E0F9F1F8D939C93F901E2
:10129000ED53FC4F8091DB039091DC034096860F69
:1012A000971F91838083FA01E155FC4F1082CF5F35
:1012B000C093AE0360E070E080E090E00E94010720
:1012C0005CCFCF9108952F923F924F925F926F9291
:1012D0007F928F929F92AF92BF92CF92DF92EF92C6
:1012E000FF920F931F93CF93DF9300D000D000D0D5
:1012F000CDB7DEB781E08093D3031092EA0310925A
:10130000E90330EBA32EBB24BA9442E3842E009170
:10131000E9031091EA038091C80290E008171907C9
:101320000CF043C4F801E75FFC4F608170E0685047
:101330007109882777FD8095982F0E9482259B014F
:10134000AC016093E3037093E4038093E50390930F
:10135000E603F801E751FD4F808190E00897BC015A
:10136000882777FD8095982F29833A834B835C8368
:101370000E9482251B012C016093DF037093E00320
:101380008093E1039093E203C801880F991F9E8325
:101390008D8387599C4F7C01DC018D919C91BC0110
:1013A000882777FD8095982F0E94822529813A8190
:1013B0004B815C810E94EB240E944F253B01F70189
:1013C000718360834D815E81475D5C4F6A01DA0104
:1013D0008D919C91BC01882777FD8095982F0E9464
:1013E0008225A20191010E94EB240E944F25AB01AE
:1013F000F60171836083F0EB6F16FFEF7F062CF42C
:10140000E8E9F2E0D701ED93FC93ED81FE81E75925
:10141000FC4F208131812939324014F0B182A08201
:10142000403B5F4F44F4ED81FE81E75DFC4FA8E750
:10143000B1E0B183A083ED81FE81E75DFC4F808147
:1014400091818937914014F0B182A082F801E7536D
:10145000FD4F2081E6E12E9F9001112428563F4F39
:10146000ED81FE81E75DFC4F4081518157FF02C055
:10147000495F5F4F83E0559547958A95E1F7ED8188
:10148000FE81E759FC4F6081718177FF02C0695F7F
:101490007F4F03E0759567950A95E1F789E494E03D
:1014A0000E946E1A4091E9035091EA03FA01E75352
:1014B000FD4F5080F3E0F51530F407E098E1051595
:1014C00018F488E002C098E080E0890F8093C6029B
:1014D00013E0151530F427E0251528F428E398E0EB
:1014E00004C028E401C028E390E0291B2093C50232
:1014F000A091DD03B091DE03440F551FFA01E759B7
:10150000FC4F0190F081E02D30E0BF01620F731FAE
:101510008D01085F1F4F90E006171707ACF59796EF
:101520008F01080F191FA017B10774F1C090DB03DA
:10153000D090DC03DA01A75DBC4F0D90BC91A02DCB
:10154000760108E0E00EF11C8D01020F131FE0167A
:10155000F106D4F417E2C10ED11CA80FB91FCA16A8
:10156000DB0694F01091D403113071F4A091EB03D9
:10157000B091EC03119641F4A8E2B0E0B093EC0313
:10158000A093EB031093C7021F01280E391EA091F0
:10159000C302B091C4028D01005E1F4F9090C00243
:1015A000E1E09E1203C0E0E1F0E002C0E0E0F0E024
:1015B000E00FF11F2E163F060CF040C0A617B7072C
:1015C000ECF5DA01A75DBC4FED91FC917F01E80ECF
:1015D000F91EA091C102B091C2026D0100E1C00EDE
:1015E000D11C11E0911203C000E110E002C000E044
:1015F00010E00C0D1D1DE016F10604F5E20FF31FBF
:10160000AE17BF07DCF49920C9F0A091F303B091A5
:10161000F403A853BF4FE2E09E1203C0E0E2F3E000
:1016200002C0E0E0F0E0AE0FBF1FB093F403A09360
:10163000F303A1E0A093C7021092C002A091BA02E6
:10164000B091BB02A617B7073CF5FD013F96E21526
:10165000F30514F10091B8021091B902FA01E75DA7
:10166000FC4F0190F081E02D7F01E20EF31E0E157C
:101670001F0594F4015F1F4FE80FF91F0E171F0796
:101680005CF0B7FD09C0A1E0A093C7020FEF1FEF08
:101690001093BB020093BA026090AE03712C90903D
:1016A000C7021E821D82A0E0B0E0FA01E75DFC4F98
:1016B0006F01A615B705C4F54D815E8145535C4F9A
:1016C000FA01408151814617570734F5415F5F4F5A
:1016D000421553050CF14D815E814D535C4FFA016B
:1016E00000811181F601408151817A01E20EF31EE1
:1016F0000E151F058CF4015F1F4F480F591F04176B
:10170000150754F0AD0141555C4FFA0110811233B9
:1017100018F480829924939411960D811E810E5F96
:101720001F4F1E830D83C5CF9092C702B093E8036D
:10173000A093E70311E091129BC19091AB03963007
:1017400010F082E001C080E0981B9093AB0323E08F
:10175000251518F422E030E002C021E030E081E0FD
:1017600090E047E0451510F080E090E062E070E026
:10177000820F931F0E9401071092C7022091F3036A
:101780003091F4032C5E3F4F8091E9039091EA037E
:10179000FC01E753FD4F6081643018F04EE150E0EA
:1017A00002C040E050E0240F351F683018F042E3DB
:1017B00050E002C040E050E0420F531F5093F4034A
:1017C0004093F3031091C802AC01440F551F6830D9
:1017D00008F015C1012F10E09801220F331FD90125
:1017E000A759BC4FBA0167597C4FFB018081918199
:1017F00040968D939C93275D3C4FDA01A75DBC4FCB
:101800008D919C9111974096F90191838083FB0102
:10181000808191814096918380838D919C911197D5
:1018200040968D939C9364E070E080E090E00E948D
:10183000B323E091E903F091EA03E753FD4F808180
:10184000843010F084E001C080E0F801E753FD4FE0
:101850006C5F680F608364E070E080E090E00E945D
:10186000B323E091E903F091EA03E753FD4F808150
:10187000843010F084E001C080E06C5F680F60830A
:101880000091C80210E06CE070E080E090E00E94FF
:10189000B323D801A75FBC4FFB01EE0FFF1FEE5D26
:1018A000FE4F8081918197FD03969595879595953B
:1018B0008795885F8C930091C80210E06CE070E01F
:1018C00080E090E00E94B323D801A751BD4FFB01F7
:1018D000EE0FFF1FE65FFE4F8081918197FD03961B
:1018E0009595879595958795885F8C930091E903E9
:1018F0001091EA036CE070E080E090E00E94B32376
:10190000D801A75FBC4FFB01EE0FFF1FEE5DFE4F3E
:101910008081918197FD019695958795885F8C933D
:101920000091E9031091EA036CE070E080E090E040
:101930000E94B323D801A751BD4FFB01EE0FFF1F3B
:10194000E65FFE4F8081918197FD01969595879581
:10195000885F8C936091E9037091EA03DB01A75FD4
:10196000BC4F3C918091C80290E0AC01475F5C4F56
:10197000FA012081321310C067517D4FFB01208195
:10198000AC0147515D4FFA014081241305C03195E8
:101990003C932195DB012C93FC01E753FD4F8081A3
:1019A000883008F09AC062E070E080E090E00E9429
:1019B000B323613071058105910509F48EC0E09172
:1019C000E903F091EA03E753FD4F8081883008F086
:1019D000B7C062E070E080E090E00E94B323613025
:1019E00071058105910509F4ABC08091C80291E0B1
:1019F000803208F090E0890F8093C80239C01150FE
:101A00001093C802212F30E0B901660F771FDB0168
:101A1000A759BC4FED90FC90DA01A759BC4FED924D
:101A2000FC92DB01A75DBC4F6D917C91DA01A75D53
:101A3000BC4F6D937C93D901A753BD4F4C9140830C
:101A4000F901E75FFC4F4081FC01E75FFC4F4083F9
:101A5000F901E751FD4F2081FC01E751FD4F208343
:101A6000111106C0ECE3F0E0F093EE03E093ED0318
:101A70008091E9039091EA03BC01660F771FFB0197
:101A8000E759FC4F0190F081E02D4091C50250E0F4
:101A90009F01240F351F293B3105CCF02091C60250
:101AA00030E0E20FF31FE83EF1408CF4FB01E75D0C
:101AB000FC4F60817181460F571F493451053CF03E
:101AC000260F371F2833314014F41092D3030196A8
:101AD0009093EA038093E9031ACC0091C80210E0C6
:101AE0006CE070E080E090E00E94B323D801A75F33
:101AF000BC4FFB01EE0FFF1FEE5DFE4F8081918119
:101B000097FD019695958795885F8C930091C80203
:101B100010E06CE070E080E090E00E94B323D80118
:101B2000A751BD4FFB01EE0FFF1FE65FFE4F808107
:101B3000918197FD019695958795885F8C933FCF0E
:101B40000091E9031091EA036CE070E080E090E01E
:101B50000E94B323D801A75FBC4FFB01EE0FFF1F0C
:101B6000EE5DFE4F8081918197FD01969595879559
:101B7000885F8C930091E9031091EA036CE070E0B8
:101B800080E090E00E94B323D801A751BD4FFB0134
:101B9000EE0FFF1FE65FFE4F8081918197FD01965A
:101BA00095958795885F8C9320CF26960FB6F894ED
:101BB000DEBF0FBECDBFDF91CF911F910F91FF9080
:101BC000EF90DF90CF90BF90AF909F908F907F90DD
:101BD0006F905F904F903F902F9008958091C0023A
:101BE000882309F4EAC08091C3029091C402209135
:101BF000BE023091BF02820F931F9093C402809364
:101C0000C3022091C1023091C2024091BC025091A6
:101C1000BD02240F351F3093C2022093C10265E03C
:101C200070E00E94A126892B31F463E070E084E02B
:101C300090E00E9401078091C1029091C202883D0C
:101C40009F4F34F480E891E09093C2028093C102E8
:101C50008091C1029091C2028138914034F088EDA8
:101C60009FEF9093C2028093C10262E370E080E034
:101C700090E00E94B32362307105810591059CF4C8
:101C800063E070E080E090E00E94B323615071094E
:101C9000810991099B01220F331F260F371F3093B3
:101CA000BD022093BC026091C3027091C402CB01BB
:101CB000C896893D924010F01092C0028091C002F7
:101CC00090E0019747E0489F9001499F300D112413
:101CD00026573F4F4091C1025091C20257FF02C0A8
:101CE000495F5F4FE3E055954795EA95E1F777FF48
:101CF00002C0695F7F4F53E0759567955A95E1F78C
:101D000089E494E00E946E1A8091DD039091DE03D5
:101D10002091C3023091C402AC01495D5F4F42176C
:101D200053070CF44AC0A901405E5F4F6091C002A6
:101D3000613019F420E130E002C020E030E0240FEF
:101D4000351F089682179307C4F58091DB039091A5
:101D5000DC032091C1023091C202AC01495D5F4FAA
:101D60004217530754F1A901405F5F4F613019F4E6
:101D700020E130E002C020E030E0240F351F08965B
:101D800082179307D4F46623C1F08091D403813085
:101D9000A1F48091EB039091EC03019671F4109201
:101DA000C00288E290E09093EC038093EB0362E042
:101DB00070E081E090E00C94010708950F931F9369
:101DC000CF931092E8031092E703C2E38091E703F8
:101DD0009091E8032091AE0330E0821793070CF056
:101DE00076C09C01220F331FF901E553FC4F60813F
:101DF00071814091C3025091C4028A01005E1F4F5D
:101E0000A091C002A13019F4E0E1F0E002C0E0E0EE
:101E1000F0E0E00FF11F6E177F070CF04EC0615F1E
:101E20007F4F641775070CF448C0F901ED53FC4F60
:101E3000408151812091C1023091C202F901709616
:101E4000A13019F460E170E002C060E070E06E0F54
:101E50007F1F461757078CF5415F5F4F42175307A7
:101E600064F1FC01E155FC4F8081823330F5AA23F7
:101E700021F160E070E083E090E00E940107209192
:101E8000F3033091F40328533F4F8091C002823016
:101E900019F480E293E002C080E090E0820F931F8B
:101EA0009093F4038093F3031092C002E091E70350
:101EB000F091E803E155FC4FC0838091E7039091D6
:101EC000E80301969093E8038093E7037FCFCF91D7
:101ED0001F910F9108958091C002882309F48CC04E
:101EE0008091BA029091BB02019609F085C0809161
:101EF000C3029091C40289978733924008F07CC056
:101F000060E070E089E090E00E9401078091C302E8
:101F10009091C40248969093BB028093BA0280913C
:101F2000C1029091C20240969093B9028093B80288
:101F300063E070E080E090E00E94B323615071099B
:101F400081099109B3E0660F771FBA95E1F77093A5
:101F5000B7026093B60263E070E080E090E00E9418
:101F6000B323615071098109910983E0660F771FDE
:101F70008A95E1F77093B5026093B4028091C00234
:101F8000823041F52091C3023091C4028091DD037B
:101F90009091DE03281739071CF488E090E002C016
:101FA00088EF9FEF9093B7028093B6022091C10211
:101FB0003091C2028091DB039091DC03281739072E
:101FC0001CF488E090E002C088EF9FEF9093B50288
:101FD0008093B4028091B6029091B702892B61F48C
:101FE0008091B4029091B502892B31F488E090E0A1
:101FF0009093B7028093B60208958091BA029091AF
:10200000BB028F3F2FEF920709F488C06091B602A0
:102010007091B702680F791F7093BB026093BA0288
:102020004091B8025091B9028091B4029091B502EA
:10203000480F591F5093B9024093B80257FF02C08E
:10204000495F5F4F23E0559547952A95E1F777FF64
:1020500002C0695F7F4F93E0759567959A95E1F7A8
:1020600025E830E089E494E00E946E1A8091BA027B
:102070009091BB028939924038F48091B8029091D6
:10208000B9028937914030F08FEF9FEF9093BB02F8
:102090008093BA022091DD033091DE038091BA0271
:1020A0009091BB02A901495D5F4F48175907B4F1F0
:1020B00027503109821793078CF14091DB0350912F
:1020C000DC032091B8023091B902BA01695D7F4FFB
:1020D000621773071CF14750510924173507F4F0B4
:1020E00097FD1CC08091D4038130C1F48091EB0333
:1020F0009091EC038F3F2FEF920781F49093BB02F6
:102100008093BA0288E290E09093EC038093EB0313
:1021100062E070E081E090E00C9401070895209166
:10212000F3033091F4038091AC039091AD03281731
:102130003907ACF063E070E085E090E00E940107B1
:102140008091F0038F5F8093F0038091AC039091B6
:10215000AD03805F984D9093AD038093AC030895D9
:102160008091A9038F5F8093A9039091AB03981787
:1021700070F41092A9038091AA038F5F81708093FD
:10218000AA0390E061E070E006960C9401070895C0
:102190008BEF93E00E947512882309F44DC062EE24
:1021A00071E085EF93E00E94BA2481110E947B03C5
:1021B00062E871E085EF93E00E94BA2481110E94E9
:1021C0009C036BE871E085EF93E00E94BA248111D3
:1021D0000E94380463E971E085EF93E00E94BA241D
:1021E0008823C1F00E949E070E94DE040E946309BA
:1021F0000E94C4040E94B2050E94EE0D0E94DE0EF1
:102200000E946B0F0E94FD0F0E948F100E946A04B3
:102210000E94B0106CE771E085EF93E00E94BA2451
:1022200081110E946E066AEE71E085EF93E00E94D4
:10223000BA2481110C942806089510924C0410922F
:102240004B048EE992E090934A048093490464EA37
:1022500072E085EF93E00C948C2485EF93E00C946E
:102260001E24CF93CFB7F89480918204811127C0A8
:10227000E9E3F6E08491E5E2F6E09491E82FF0E0FE
:10228000EE0FFF1FE95AF94FA591B4918C91892364
:1022900021F461E08AE00E94182261E08AE00E9455
:1022A000DF218CB580618CBD8CB580648CBD61E014
:1022B0008DE00E94DF2161E08BE00E94DF218091B0
:1022C00082048F5F80938204CFBFCF910895CF9314
:1022D000DF93FC01462FEC01C158DF4F70E088EE20
:1022E00093E00E94A1266883842F64E10E948126E6
:1022F000811101C081E081A7DF91CF9108958F9274
:102300009F92AF92BF92CF92DF92EF92FF92CF93C4
:10231000DF93EC01CA8CDB8CC094D094E12CF12CBF
:102320000E94A2204B015C010E94A220A501940101
:102330002095309540955095609570958095909535
:102340000E9471269B01AC01C701B6010E94712653
:102350006B017C0189809A80A12CB12C0E94A22063
:10236000680D791D8A1D9B1D6C0D7D1D8E1D9F1D89
:10237000DF91CF91FF90EF90DF90CF90BF90AF9023
:102380009F908F900C94AB238F929F92AF92BF92AD
:10239000CF92DF92EF92FF920F931F93CF93DF9331
:1023A000EC015C0186E8A80EB11CD5018C91882354
:1023B00009F44DC08C3018F41CE0181B01C010E06B
:1023C000FE01EA5AFF4F81E080836E01BEE4CB0E2E
:1023D000D11C60E0C6010E9450184E01E3E58E0E4C
:1023E000911CD4018C9103E0080F9DE2F92E4F2D32
:1023F000481B410F23E0E22E24E560E0C6010E9465
:10240000351A61E0C6010E945018F401808103E092
:10241000080F4F2D481B410F24E560E0C6010E94C4
:10242000D519FE01E95AFF4F84E080833196D4012B
:102430008C91181B115D1083CC57DF4F6881798117
:10244000C6010E94B522F501808181508083DF9111
:10245000CF911F910F91FF90EF90DF90CF90BF90A1
:10246000AF909F908F9008950F931F93CF93DF931A
:102470008C01EC01C25BDF4FCE010E94F7176BE4C9
:1024800073E0CE010E94B522CE010E9408188CB5DF
:1024900083608CBD8DB58E7F8DBD83E992E0EEEFBC
:1024A000FFE30995F801EC5AFF4F108266E273E0F2
:1024B000CE010E94E522CE010E940818065F1F4F40
:1024C000C8010E94161764E0C8010E944D178111CF
:1024D00007C062E370E080E090E00E94C520F0CF8A
:1024E000DF91CF911F910F9108958F929F92AF929C
:1024F000BF92EF92FF920F931F93CF93DF93EC0164
:102500007C0100E8E00EF11CF70180809180A28040
:10251000B3800E94962095018401061B170B280B9F
:10252000390BB901A8015E011FE7A10EB11CF5012D
:10253000808190E0A0E0B0E08E0105581F4F841725
:102540009507A607B70750F4F80180819181A28111
:10255000B381892B8A2B8B2B09F06DC0F801808108
:102560009181A281B381892B8A2B8B2B09F061C0C9
:102570005E01FAE0AF0EB11C41E066E0C5010E94C9
:1025800064179E012B5D3F4F7901882331F065E090
:10259000C5010E944D17811185C041E066E0C5016B
:1025A0000E946417882331F064E0C5010E944D1732
:1025B00081118EC041E066E0C5010E946417882346
:1025C00039F048E264E0C5010E94561781118BC0C2
:1025D000C7010E947D1EC7010E94EA1EC7010E941A
:1025E000BA1FCE010E94C411CE010E9482137E0147
:1025F0003EE4E30EF11CC7010E940818FE01EC5AEC
:10260000FF4F8081811103C0C7010E94F7170E940C
:10261000A220F8016083718382839383FE01EB58CB
:10262000FF4FC958DF4F28813981621B730B7183BB
:10263000608380E05CC00E949620F5012081620FDB
:10264000711D811D911DF7016083718382839383C6
:10265000FE01EF58FF4F40815181628173814F5FCE
:102660005F4F6F4F7F4F4083518362837383F801C5
:1026700010821182128213820E94A220FE01E95868
:10268000FF4F6083718382839383CE010E94631620
:10269000CE010A960E941617CE0148960E94CC16CB
:1026A00081E025C0C7010E94492061E0680FC70191
:1026B0000E9436208EEA93E0FE01EC57FF4F918393
:1026C000808388E432968083C7010E94202065CFF2
:1026D00081EA93E0FE01EC57FF4F9183808388E409
:1026E0003296808367CFCE010E94341271CFDF9182
:1026F000CF911F910F91FF90EF90BF90AF909F905F
:102700008F900895DF92EF92FF920F931F93CF93D4
:10271000DF93EC018C8D9D8D892B09F49CC08E017B
:10272000025B1F4F40E061E0C8010E94541885E53C
:10273000FE01EE5AFF4F9081891B359680833196BA
:102740001082698D613009F462C028F0888D65308F
:1027500008F074C06FC0CE0185960E94801E81E093
:10276000FE01EA5AFF4F808367E474E0C8010E94CB
:10277000A01B1D8E1C8EFE01EC5AFF4F108288EAB2
:10278000D82E7E018AE0E80EF11CCE010E9475125F
:102790008823D9F363E973E0C8010E94B5226A8DEA
:1027A0007B8D4AE050E0C8010E94A5236EE773E0EC
:1027B000C8010E94B5226D2D62956F7070E04AE0ED
:1027C00050E0C8010E94902363E773E0C8010E94B3
:1027D000B52264E0C7010E944D1781113CC0DA9414
:1027E000A1F660E0CE010E945F1683B7817F84600E
:1027F00083BF83B7816083BF83B7816083BF8895C0
:1028000083B78E7F83BF83B78E7F83BFBECFCF5802
:10281000DF4F488159816A817B814F705527662738
:102820007727483051056105710510F467E009C04C
:1028300068E707C0882379F06B5F03C0882359F0ED
:102840006FE2C801DF91CF911F910F91FF90EF9040
:10285000DF900C94DA22DF91CF911F910F91FF90BE
:10286000EF90DF9008952F923F924F925F926F9278
:102870007F928F929F92AF92BF92CF92DF92EF9210
:10288000FF920F931F93CF93DF93CDB7DEB72997B6
:102890000FB6F894DEBF0FBECDBF998788877C83C3
:1028A0006B831A012C0180E7480E511CF2018081D4
:1028B000882309F401C181E0E885F985EA5AFF4FD0
:1028C0008083E885F985EB5AFF4F1082E885F9850A
:1028D000EC5AFF4F1082E885F985108E8F01025B5C
:1028E0001F4F61E0C8010E945018888599858D5A54
:1028F0009F4F9A838983C884D98497E5C90ED11CD8
:10290000E884F984E8E5EE0EF11C68847984F2E548
:102910006F0E711C888599858F589F4F9E838D837C
:10292000A884B9849AE0A90EB11C88849984E5E250
:102930008E0E911C888599850E9475128823D1F38B
:10294000EB81FC818491882321F0E981FA81508117
:1029500001C050E029EC33E040E060E0C8015F8353
:102960000E946E1A5F812114310439F04CE0450F4A
:10297000910160E0C8010E946E1AF60110828CE09D
:10298000F70180836B817C81C8010E94B522F3012D
:102990009081892F880F890F81958D5AF601808348
:1029A000E981FA819081892F880F890F8195835D54
:1029B000F7018083ED81FE81808184FF03C065EC97
:1029C00073E002C061EC73E0C8010E94E522F301EC
:1029D0009081892F880F890F81958D5AF601808308
:1029E000F70180818F5F8083E885F98582A5882340
:1029F00019F06DEB73E002C069EB73E0C8010E944F
:102A0000E522F3019081892F880F890F81958D5AD6
:102A1000F6018083F70180818F5F808365EB73E02F
:102A2000C8010E94E52265E0C5010E944D17882378
:102A300059F0C4010E94492061E0680FC4010E945E
:102A40003620C4010E94202064E0C5010E944D1779
:102A5000811113C0F2012081822F90E0A0E0B0E04C
:102A6000ED81FE8140815181628173814817590750
:102A70006A077B07A8F02F3F99F08FEFF201808360
:102A8000088519850B5D1F4F60E0C8010E94271E55
:102A9000C8010E940A2081E0E885F985808F0CC07A
:102AA00066E0C5010E944D17882309F443CF88854D
:102AB00099850E94341234CF29960FB6F894DEBF60
:102AC0000FBECDBFDF91CF911F910F91FF90EF907F
:102AD000DF90CF90BF90AF909F908F907F906F903E
:102AE0005F904F903F902F900895E0E8F7E7259191
:102AF000349181E02130304C09F080E00895CF938B
:102B0000DF93EC010E9475159E01275A3F4FDE01AD
:102B1000A059BF4F882309F43AC0E6E9F7E784914A
:102B2000F9018083E7E9F7E7E491EC83E8E9F7E767
:102B3000E491ED83E9E9F7E7859194919F838E8392
:102B4000EBE9F7E7859194919987888787E08BA7D0
:102B5000EEE9F7E7E491EAA7EFE9F7E7E491EC9310
:102B6000E0EAF7E7859194919D8F8C8FE2EAF7E791
:102B7000859194919F8F8E8FE4EAF7E785919491E8
:102B800099A388A3E6EAF7E78591949120C08CE3A6
:102B9000F90180831C822FEF2D8380E293E09F83D5
:102BA0008E8384ED93E09987888787E08BA78AA737
:102BB0002C938CEA9DE09D8F8C8F8EED9DE09F8FF6
:102BC0008E8F84E79EE099A388A38CE39FE09BA36C
:102BD0008AA3DF91CF910895AF92BF92CF92DF92F7
:102BE000EF920F931F93CF93DF93EC01FC01E15819
:102BF000FF4F82E38083349741E050E060E070E073
:102C000040835183628373833B978FEF8083CE0130
:102C10000E947F15CE010E945B166FEFCE010E94CD
:102C20005F166E018AE0C80ED11CC6010E9406170D
:102C3000C6010E9416175E0188E1A80EB11CC501ED
:102C40000E94C2169EE0E92E0FE020E14BE06DE00D
:102C5000CE01825B9F4F0E94B41B8E010B5D1F4F04
:102C6000C8010E94931DC5010E94CC1665E0C601F3
:102C70000E944D17811112C0898D882379F040E0A0
:102C800069E374E0C801DF91CF911F910F91EF903C
:102C9000DF90CF90BF90AF900C94321E60E0C801DF
:102CA000DF91CF911F910F91EF90DF90CF90BF9068
:102CB000AF900C94362021E0FC012083089570E051
:102CC00085E00C945721AF92BF92CF92DF92EF92A2
:102CD000FF920F931F93CF93DF93EC0189819A8129
:102CE0002FE0289F8001299F100D112485E10E946B
:102CF0003A21800F911F24E0969587952A95E1F758
:102D00009A8389832881222391F1AC81AD80B12CF3
:102D1000C12CD12CE885F9857F0100E010E06E819F
:102D20007F819B0140E050E08617970728F0BC01A7
:102D3000E817F90708F4BF0180E090E01F921F92A6
:102D40001F92AF930E94D7236B830F900F900F9029
:102D50000F9070E085E0DF91CF911F910F91FF9070
:102D6000EF90DF90CF90BF90AF900C945721DF9100
:102D7000CF911F910F91FF90EF90DF90CF90BF9078
:102D8000AF900895FC018CE39FE09383828384E0FD
:102D9000818381E084870895CF93DF93EC018C8158
:102DA0009D81892B81F18C858F7151F584E10E9481
:102DB0003A21BC01882777FD8095982F0E948225B3
:102DC00026EE3FE34EEC50E40E940E260E9454256E
:102DD0009B017B836A836115710581F084E089839F
:102DE000FE0140E0848195812817390710F449835A
:102DF0000AC04F5F32964430A9F702C08FEF898333
:102E00008C858F5F8C87DF91CF910895FC0188E0DE
:102E1000808389E0818387E0828386E0838384E006
:102E2000848382E0858381E186830895DF92EF9237
:102E3000FF920F931F93CF93DF937C01EC0100E08F
:102E400010E0DD24DA9462E088810E94DF2188812D
:102E50000E944E22F701E00FF11F892B21F4878198
:102E60008F5F878308C08781882349F08F3F11F4E3
:102E7000178201C0D78260E088810E94DF210F5F46
:102E80001F4F219607301105F1F6DF91CF911F9169
:102E90000F91FF90EF90DF900895FC01E60FF11D78
:102EA00081E09781913009F080E00895860F911DAF
:102EB000FC01278130E050E04F5F5F4F81E0241735
:102EC000350709F080E00895262F30E0FC01E20F7D
:102ED000F31F8781423028F481508E3F48F080E014
:102EE00008958F3FE1F3642F0E9481269130B9F756
:102EF00081E008958EBD00000DB407FEFDCF8EB5B4
:102F00000895DC01643508F053C0403308F050C028
:102F100090968C919097342F359535953595E62F71
:102F2000FF27E7FDF095242F2770823099F4DF0109
:102F3000AD57BB4F84E53802A00DB11D11248C9113
:102F400090E0022E02C0959587950A94E2F780954D
:102F5000817009C0833039F446271C968C9148272C
:102F600040FF03C014C0811112C084E53802E00D97
:102F7000F11D1124ED57FB4F81E090E0022E01C0BE
:102F8000880F0A94EAF780959081982310C084E511
:102F90003802E00DF11D1124ED57FB4F81E090E068
:102FA000022E01C0880F0A94EAF79081982B908333
:102FB00008951F93CF93DF93EC01162FF89460E0F0
:102FC0008F850E941822888918161CF460E00E94E0
:102FD0001822812F0E947A17888918161CF461E044
:102FE0000E9418227894DF91CF911F91089528EFC5
:102FF00031E0E3E8F4E0DF01A9011D9241505040C7
:10300000E1F7DC0119961C9219971A961C92089503
:10301000DF92EF92FF920F931F93CF93DF93EC0118
:103020008C858F5F8C8783E8E82E84E0F82ED12C86
:103030006D2D6064CE010E94D91760E8CE010E9418
:10304000D91761E08F850E941822888918161CF410
:1030500060E00E94182200E010E0F701E00FF11F8D
:1030600080810E947A170F5F1F4F04351105A9F761
:10307000888918161CF461E00E941822D39484E514
:10308000E80EF11C86E0D812D3CF60E4CE01DF91C8
:10309000CF911F910F91FF90EF90DF900C94D91773
:1030A000FC0160A361A30895FC0160A341A30895FE
:1030B000CF92DF92FF920F931F93CF93DF931F92D4
:1030C000CDB7DEB76C01062FF42E10E0121754F4C2
:1030D000412F4F0D602FC60129830E9481171F5F6A
:1030E0002981F4CF0F90DF91CF911F910F91FF9025
:1030F000DF90CF900895CF92DF92FF920F931F93AE
:10310000CF93DF931F92CDB7DEB76C01062FF42E5D
:1031100010E0121754F4612F600F4F2DC601298360
:103120000E9481171F5F2981F4CF0F90DF91CF910B
:103130001F910F91FF90DF90CF900895EF92FF9233
:103140000F931F93CF93DF93EC01F62E142FE22EF3
:103150000E947B184FEF400F410F2E2D6F2DCE0197
:103160000E947B18202F412F6F2DCE010E945818EE
:103170006FEF6E0D6F0D202F412FCE01DF91CF919C
:103180001F910F91FF90EF900C945818DF92EF92DF
:10319000FF920F931F93CF93DF93EC01E62ED22E75
:1031A000F42E112707FD1095040F111D47FD1A95E8
:1031B0008F2D992787FD90958017910744F42D2D29
:1031C0004F2D6E2DCE010E947B18F394F1CFDF912D
:1031D000CF911F910F91FF90EF90DF9008958F9204
:1031E0009F92AF92BF92CF92DF92EF92FF920F9396
:1031F0001F93CF93DF93EC01E62ED42E122FCC2415
:10320000C394C21AB22EB194BB0CF12C802F8470DF
:10321000A82E802F8270982E802F8870882E0170A3
:10322000F1160CF04DC0C7FC04C01150B394B39418
:10323000CB0CF3948F2D880F8F5FC80EAA2071F0EE
:10324000412F4D0D6F2D6E0DCE010E9481174F2D18
:103250004D0D612F6E0DCE010E948117992071F0E6
:103260004D2D411B6F2D6E0DCE010E9481174D2DEE
:103270004F19612F6E0DCE010E948117882071F0C9
:103280004F2D4D0D6E2D611BCE010E948117412FD8
:103290004D0D6E2D6F19CE010E948117002309F488
:1032A000BFCF4D2D4F196E2D611BCE010E9481178E
:1032B0004D2D411B6E2D6F19CE010E948117B0CF8D
:1032C000DF91CF911F910F91FF90EF90DF90CF9002
:1032D000BF90AF909F908F9008958F929F92AF92E2
:1032E000BF92CF92DF92EF92FF920F931F93CF93F3
:1032F000DF93EC01B62EA42E122FDD24D394D21A24
:10330000C22EC194CC0CFF24F394802F8170882EA0
:10331000992493949E0C02708FEF8F0D8117C4F542
:10332000D7FC04C01150C394C394DC0C8F2D880FBC
:103330008F5FD80E882099F0212F220F290D4A2D5A
:10334000411B6F2D6B0DCE010E94581823E02E0DEE
:103350004A2D4F19612F6B0DCE010E945818002382
:1033600099F0212F220F290D4A2D411B6B2D6F192A
:10337000CE010E94581823E02E0D4A2D4F196B2DB7
:10338000611BCE010E945818F394E394E394C4CFD8
:10339000DF91CF911F910F91FF90EF90DF90CF9031
:1033A000BF90AF909F908F9008959F92AF92BF92E1
:1033B000CF92DF92EF92FF920F931F93CF93DF9301
:1033C000EC01B62EF42EA22EDE2CD194DD0C9D2C19
:1033D000920E1E2D160F292D612F0E947B18CC24D2
:1033E000CA94C00ECF0C292D4C2D612FCE010E9406
:1033F0007B18D00EFE0C2D2D4F2D6B2DCE010E9473
:103400005818BA0C6FEF6B0D2D2D4F2DCE010E9469
:10341000581801E02E2D4F2D612FCE010E94EF187C
:10342000DE2CD094DB0C02E02E2D4F2D6D2DCE0125
:103430000E94EF18CE1804E02E2D4C2D6D2DCE01DC
:103440000E94EF1808E02E2D4C2D612FCE010E9416
:10345000EF18DF91CF911F910F91FF90EF90DF90C8
:10346000CF90BF90AF909F900895AF92BF92CF92B0
:10347000DF92EF92FF920F931F93CF93DF93EC01B4
:10348000A62EC42EB22EF02E1E2DE194EE0CD12EBF
:10349000D60E2E2D2B0D6D2D0E94C618FA94FE0C03
:1034A000C10E6FEF6A0D6B0D611BEF2C01E0212F38
:1034B0004C2DCE010E946D1902E0212F4C2D6D2D57
:1034C000CE010E946D19DF91CF911F910F91FF9056
:1034D000EF90DF90CF90BF90AF9008956F927F9262
:1034E0008F929F92AF92BF92CF92DF92EF92FF9214
:1034F0000F931F93CF93DF93F901A49031965491CA
:10350000FC01F0A064350CF00CC1BB24A7FCB09406
:10351000A62FBB27A7FDB095FD01EA0DFB1D1E16CA
:103520001F060CF0FEC040330CF0FBC0C52E042F6C
:10353000112707FD1095E801C50FD11D57FDDA953C
:103540001C161D060CF0EDC0E90122969501295FBD
:103550003F4F37FF02C0295F3F4F73E035952795F6
:103560007A95E1F747FF0AC0C52EC40E209FA0013F
:10357000219F500D1124C41BD50B40E00C2D1127A9
:1035800007FD1095040F111D47FD1A950133110514
:103590001CF070E3C72EC41A67FD60E0E535F10545
:1035A00014F0E4E5F0E01E2FFC0174857427862FEB
:1035B000992787FD9095FC01EA1BFB0BDF015F015A
:1035C000F7E0AF22BB24E0E8F0E002C0F595E79514
:1035D000AA94E2F70E2FB7FD179653E0B595A7957D
:1035E0005A95E1F7AC0FBD1FE42FE77051E001C021
:1035F000550FEA95EAF7459545954595E4E54E0260
:10360000800D911D11248D579B4F40E0DD24C7FC98
:10361000D094BB24B3943327E42FF0E0EC15FD05E0
:103620000CF07FC0FD01E490F1E0FF1219C0EC0145
:10363000A02EFD01862E881A9C2E980C911608F05B
:1036400067C09E2C9A2019F09880952A9882A6949B
:1036500029F43196E4906894AA24A7F82196ECCF37
:10366000F1101BC0752E7094EC01A02EFD01862E6A
:10367000881A9C2E980C911608F04AC09E2C9A200D
:1036800019F0988097209882A69429F43196E490B6
:103690006894AA24A7F82196ECCFE3E0FE1631F057
:1036A000EC01A02EFD01862E881A2EC0752E709476
:1036B000962EEC01A02EFD019116B0F48E2C8A20DE
:1036C00049F08880692C672660FE02C0852A01C007
:1036D00087208882A69429F43196E4906894AA24DD
:1036E000A7F893942196E8CF7B2512C09E2C9A20B0
:1036F00019F0988095269882A69429F43196E49042
:103700006894AA24A7F821969C2E980C911670F321
:10371000550F19F48C5A9F4F51E04F5FA20FB31F02
:103720007BCFDF91CF911F910F91FF90EF90DF90B2
:10373000CF90BF90AF909F908F907F906F900895A3
:10374000DC01FB0184918F5F14968C931497319662
:10375000E491EF5F1596EC9315976E5F7F4F5F9640
:103760007C936E935E970895EF920F93CF93DF93C0
:10377000EC014E876D872F87E98A088B81E0888767
:1037800088A319A28F8367E474E0CE010E94A01B76
:103790000E9431118CB58F7D8CBD8CB58C7F816082
:1037A0008CBD8DB581608DBD8CB58C608CBD61E0AC
:1037B0008E850E94DF2161E08D850E94DF2161E01E
:1037C0008F850E94DF21898918161CF461E00E9410
:1037D000DF21888918161CF461E00E94DF218989A5
:1037E00018166CF460E00E9418226AE070E080E035
:1037F00090E00E94C52061E089890E9418228D8591
:10380000992787FD9095FC01E15DF94FE491F0E087
:10381000EE0FFF1FE35BF94F259134913D8B2C8B0D
:10382000FC01E55EF94F84918B8F8E85992787FD8A
:103830009095FC01E15DF94FE491F0E0EE0FFF1F80
:10384000E35BF94F259134913B8B2A8BFC01E55EBC
:10385000F94F84918A8F8889992787FD9095FC017B
:10386000E15DF94FE491F0E0EE0FFF1FE35BF94FEC
:10387000259134913F8B2E8BFC01E55EF94F8491AD
:103880008C8F8F85992787FD9095FC01E15DF94F1D
:10389000E491F0E0EE0FFF1FE35BF94F25913491C7
:1038A000398F288FFC01E55EF94F84918D8F61E29D
:1038B000CE010E94D91764E1CE010E94D9178B85F1
:1038C00087FF02C08FE78B876B856068CE010E94FF
:1038D000D91760E2CE010E94D9176CE0CE010E9498
:1038E000D917CE01DF91CF910F91EF900C9408186A
:1038F0006F927F928F929F92AF92BF92CF92DF9200
:10390000EF92FF920F931F93CF93DF93EC01162F4B
:10391000F42EB02EE8A064350CF081C08FE284173D
:103920000CF47DC0EC81F0E031970E9FC0010F9F39
:10393000900D1124860F911D67FD9A951816190692
:103940000CF06DC08D81809FC0011124840F911DEA
:1039500047FD9A95181619060CF061C0A62E962EF2
:10396000C22ED12C8A2D811B992787FD90952C8101
:1039700030E0821793070CF051C0215031098217B3
:10398000930779F0C29ED001C39EB00DD29EB00DB8
:103990001124A80FB91FEE8DFF8DEA0FFB1F749045
:1039A00001C0712C8F2C6F2C282D2F19332727FD48
:1039B00030958D8190E0281739076CF570FE11C0A5
:1039C00081E0B81206C0482D6A2DCE010E948117F1
:1039D0001EC00B2D2B2D462D692DCE010E94C61821
:1039E00016C089A198A1891791F088A381E0B81227
:1039F00006C0482D6A2DCE010E94811707C00B2DED
:103A00002B2D462D692DCE010E94C618E8A2769472
:103A10006B0C8394C9CF9B0CA394A4CFE8A2DF9135
:103A2000CF911F910F91FF90EF90DF90CF90BF90BB
:103A3000AF909F908F907F906F9008950F93CF934A
:103A4000DF93EC01262F6A3039F42D8198858A8521
:103A5000299F800D112422C06D3011F108854A85FF
:103A600069850E94781C48855C812985549F200DBA
:103A7000112429878F81882399F0332727FD3095DA
:103A800084E590E0459F80199109112482179307DE
:103A90003CF49D818A85499F800D11248A8719866F
:103AA00081E090E0DF91CF910F910895CF93DF9364
:103AB00050E0FA01EE0FFF1FE80FF91F378520894C
:103AC000E32FF22FE60FF11DE60FF11D2591349142
:103AD000FA01EE0FFF1FE80FF91F30A3278FF9013E
:103AE00065917491FC01D481D69FC02D1124E40FFF
:103AF000F51FC1A3F901A591B4916B2F70E0EC2FD4
:103B0000F0E0DC01A40FB51F6E177F0720F4F90168
:103B100025913491C32FCD9FC02D11249296CC9323
:103B2000DF91CF91089521E0FC01248324E020A7B8
:103B30002BEF35E0308B278740E060E00E94561D78
:103B400061E070E083E00E945721E1EBF0E08081CA
:103B5000887F81608083F89410928000E1E8F0E033
:103B60001082109285001092840088E191E0909379
:103B70008900809388008081886080838081816053
:103B80008083EFE6F0E080818260808378940895FE
:103B90000F93FC01862F642F011129C08230D1F0D0
:103BA00048F4882391F0813011F540E0CF010F9166
:103BB0000C94561D8330A9F08430C9F48481489F49
:103BC000602D1124658F268F12C04B3008F06AE0FB
:103BD000668B0DC08481489F602D1124618F228FD8
:103BE00006C08481489F602D1124638F248F0F911C
:103BF0000895FC0121110EC0648B8481489F402DE3
:103C00001124458B15A214A213A281E0878B809307
:103C10008706108E089580918706882319F0809179
:103C2000840601C080E08093B4000895FC01611116
:103C30000DC0178A158A14A213A2108E1092840642
:103C400010928506109287060C940B1E0895CF9350
:103C5000DF93EC01611103C00E94161E1982DF91EF
:103C6000CF9108950F931F93CF93DF93EC018B01B6
:103C700041110EC060E00E94271E1E870D871B8A1F
:103C80001A8A81E0898389E08E8B198E1B8E1D8EA6
:103C9000DF91CF911F910F910895CF93DF93EC01A6
:103CA000611128C08881882329F18981811122C06E
:103CB00089852F819885E22FF92FE80FF11DE80FF4
:103CC000F11D859194918F3F2FEF920711F4188287
:103CD00011C09C879927880F991FEA85FB85E80FFB
:103CE000F91F6591749140E0CE010E94321E8985D2
:103CF0008F5F8987DF91CF91089560E00C944D1E0E
:103D000060E00C94271E0F93CF93DF93EC016111B9
:103D10005DC08981882309F459C08D89811156C0FD
:103D20002D853E858A899B89880F991F820F931F55
:103D3000FC01859194910097D1F48989882321F021
:103D40001B8A1A8AF90111C01982888160E08823D0
:103D500031F0CE010E944D1E8A899B8925C0CE017B
:103D6000DF91CF910F910C94161E85919491BC0117
:103D7000769567957695679580FF1DC0AC01A6E0A6
:103D800056954795AA95E1F7292F269526952695CC
:103D900020514F716F7000E0CE010E94C81D8A89CA
:103DA0009B8901969B8B8A8B880F991FED85FE85D9
:103DB000E80FF91FDACF492F6F7320E0CE010E9480
:103DC000F91D8A899B8901969B8B8A8BDF91CF9104
:103DD0000F91089560E00C94831ECF93DF93EC0164
:103DE0006111C5C08F89882309F4C1C08D898111F3
:103DF00005C0CE01DF91CF910C94161E81508D8BA2
:103E00008DA1811138C08BA19CA101969C01220F2C
:103E1000331FEF8DF8A1E20FF31F25913491422F4C
:103E200047704EA3A90163E0569547956A95E1F75F
:103E3000BA0176956795232F269526952FA36F7344
:103E40002C81629F602D11246DA3417040938306E5
:103E50009CA38BA329A130E08217930760F08AA16D
:103E6000882329F0281B31093CA32BA304C060E060
:103E7000CE010E94161E8DA181508DA3288D2F5F2B
:103E8000288F4C893FA1340F8C85380F3A836B8D76
:103E9000662361F070E0822F992787FD90950E943C
:103EA000A1268C8D869F300D11243A838A8190E063
:103EB000849664E270E00E94A1268A833E893B8357
:103EC000698D662371F0772767FD7095822F99279A
:103ED00087FD90950E94A1268A8D869F300D112422
:103EE0003B836D8D662391F0822F992787FD9095F6
:103EF00070E00E94A126CB0162E070E00E94A12642
:103F00002E8D9B81289F900D11249B838B814F3395
:103F100039F08A300CF089E087FD80E08B8301C0A6
:103F20001B82F894EA81F0E0E753FA4FE491E093C2
:103F300086062B8138A52303900111244EA142034C
:103F4000C001439F900D11240D8002C0880F991F5E
:103F50000A94E2F797FF02C081589F4F880F892F7C
:103F6000881F990B80938506809384067894DF914F
:103F7000CF91089560E00C94ED1E60918506662354
:103F800021F1809188068F5F809388069091860644
:103F90008917D8F08091870691E08927809387065A
:103FA0001092880680918306882369F090917A01A7
:103FB00083E4989F802D1124895B80937A010E946D
:103FC0008126909384060C940B1E08951F920F92E5
:103FD0000FB60F9211242F933F934F935F936F93DC
:103FE0007F938F939F93AF93BF93EF93FF930E9421
:103FF000BD1FFF91EF91BF91AF919F918F917F91E5
:104000006F915F914F913F912F910F900FBE0F9045
:104010001F901895CF93DF93EC0160E00E94271E5C
:1040200083EF95E09E878D871B8A1A8A81E08983BA
:1040300089E08E8B198E1B8E1D8EDF91CF91089596
:10404000CF93DF93EC0160E00E94271E8DEE95E098
:104050009E878D871B8A1A8A81E0898389E08E8BEF
:10406000198E1B8E1D8EDF91CF910895FC01268144
:1040700067FF02C0622F0BC0862F992787FD90959E
:10408000622F70E06F5F7F4F0E94A126682F6583CB
:104090000895FC01858108951F920F920FB60F922B
:1040A00011242F933F938F939F93AF93BF9380914E
:1040B0008A0690918B06A0918C06B0918D06309166
:1040C000890623E0230F2D3720F40196A11DB11D91
:1040D00005C026E8230F0296A11DB11D2093890675
:1040E00080938A0690938B06A0938C06B0938D06DE
:1040F00080918E0690918F06A0919006B0919106C6
:104100000196A11DB11D80938E0690938F06A093FA
:104110009006B0939106BF91AF919F918F913F917F
:104120002F910F900FBE0F901F9018952FB7F894F6
:1041300060918A0670918B0680918C0690918D0615
:104140002FBF08953FB7F89480918E0690918F0607
:10415000A0919006B091910626B5A89B05C02F3F6F
:1041600019F00196A11DB11D3FBF6627782F892F39
:104170009A2F620F711D811D911D42E0660F771FFE
:10418000881F991F4A95D1F708958F929F92AF92F9
:10419000BF92CF92DF92EF92FF926B017C010E945F
:1041A000A2204B015C01C114D104E104F104F1F03F
:1041B0000E94E9240E94A220681979098A099B09B2
:1041C000683E73408105910570F321E0C21AD10861
:1041D000E108F10888EE880E83E0981EA11CB11C4E
:1041E000C114D104E104F10429F7DDCFFF90EF9071
:1041F000DF90CF90BF90AF909F908F90089578946C
:1042000084B5826084BD84B5816084BD85B58260DB
:1042100085BD85B5816085BDEEE6F0E08081816079
:104220008083E1E8F0E01082808182608083808179
:1042300081608083E0E8F0E0808181608083E1EB51
:10424000F0E0808184608083E0EBF0E08081816039
:104250008083EAE7F0E080818460808380818260EF
:1042600080838081816080838081806880831092D8
:10427000C10008958E3008F08E50877020917B0128
:1042800090E4299F90011124822B80937C008091DF
:104290007A00806480937A0080917A0086FDFCCF5A
:1042A000809178002091790090E0922B08951F93DF
:1042B000CF93DF93182FEB0161E00E94DF2120975D
:1042C00011F460E004C0CF3FD10539F461E0812FE3
:1042D000DF91CF911F910C941822E12FF0E0E95F5C
:1042E000F94FE491E330F9F048F4E130B9F0E2300D
:1042F000A1F584B5806284BDC8BD34C0E730E9F063
:10430000E83019F1E43049F58091800080628093B3
:104310008000D0938B00C0938A0024C084B580684D
:1043200084BDC7BD1FC080918000806880938000DD
:10433000D0938900C093880015C08091B000806838
:104340008093B000C093B3000DC08091B000806234
:104350008093B000C093B40005C0C038D1050CF004
:10436000B5CFAFCFDF91CF911F910895833081F00A
:1043700028F4813099F08230A1F008958730A9F0B7
:104380008830B9F08430D1F4809180008F7D03C0F3
:10439000809180008F7780938000089584B58F7717
:1043A00002C084B58F7D84BD08958091B0008F7761
:1043B00003C08091B0008F7D8093B0000895CF93AB
:1043C000DF9390E0FC01E55EF94F2491FC01E15D93
:1043D000F94F8491882349F190E0880F991FFC01DF
:1043E000E95AF94FA591B491835B994FFC01C591AE
:1043F000D4919FB7611108C0F8948C9120958223C5
:104400008C93888182230AC0623051F4F8948C9195
:10441000322F309583238C938881822B888304C02C
:10442000F8948C91822B8C939FBFDF91CF9108954C
:104430000F931F93CF93DF931F92CDB7DEB7282F33
:1044400030E0F901E95FF94F8491F901E55EF94F38
:104450001491F901E15DF94F04910023C9F088231B
:1044600021F069830E94B6216981E02FF0E0EE0F10
:10447000FF1FE35BF94FA591B4919FB7F8948C911E
:10448000611103C01095812301C0812B8C939FBFC4
:104490000F90DF91CF911F910F910895CF93DF93EC
:1044A000282F30E0F901E95FF94F8491F901E55EC9
:1044B000F94FD491F901E15DF94FC491CC2391F00A
:1044C00081110E94B621EC2FF0E0EE0FFF1FED5B93
:1044D000F94FA591B4912C912D2381E090E021F426
:1044E00080E002C080E090E0DF91CF910895CF920C
:1044F000DF92EF92FF920F931F93CF93DF937C0194
:104500006A01EB0100E010E00C151D0571F06991E6
:10451000D701ED91FC910190F081E02DC701099543
:10452000892B19F00F5F1F4FEFCFC801DF91CF919B
:104530001F910F91FF90EF90DF90CF90089561153C
:10454000710581F0DB010D900020E9F7AD014150CC
:104550005109461B570BDC01ED91FC910280F38160
:10456000E02D099480E090E00895EF92FF920F9380
:104570001F93CF93DF938C017B01C0E0D0E0F70164
:10458000EC0FFD1F6491662359F0F801A081B18101
:10459000ED91FC91C8010995892B11F02196EFCF7F
:1045A000CE01DF91CF911F910F91FF90EF90089571
:1045B0000C949F22DC01ED91FC910190F081E02DA3
:1045C000099462EA72E00C949F220F931F93CF9399
:1045D000DF93EC010E94B5228C01CE010E94E12202
:1045E000800F911FDF91CF911F910F9108958F92AE
:1045F0009F92AF92BF92DF92EF92FF920F931F9321
:10460000CF93DF93CDB7DEB7A1970FB6F894DEBF97
:104610000FBECDBF7C01F42FD52ECB0119A22230C5
:1046200008F42AE08E010F5D1F4F822E912CA12CE1
:10463000B12C6F2F7D2DA50194010E94B526F22F7C
:10464000D32ECA01015011096A3014F4E0E301C00D
:10465000E7E3E60FD801EC93232B242B252B49F716
:10466000B801C7010E949F22A1960FB6F894DEBF41
:104670000FBECDBFDF91CF911F910F91FF90EF90B3
:10468000DF90BF90AF909F908F900895CF92DF9270
:10469000EF92FF920F931F93CF93DF93EC016A0188
:1046A0007B012115310579F4E881F9810190F081D0
:1046B000E02D642FDF91CF911F910F91FF90EF902C
:1046C000DF90CF9009942A303105E9F477FF1AC0C2
:1046D0006DE20E94DA228C0144275527BA014C1959
:1046E0005D096E097F092AE0CE010E94F722800F42
:1046F000911FDF91CF911F910F91FF90EF90DF906D
:10470000CF9008952AE0B701A601CE01DF91CF91A5
:104710001F910F91FF90EF90DF90CF900C94F722B4
:104720009A01AB01662757FD6095762F0C944623BE
:104730002115310541F4DC01ED91FC910190F081EE
:10474000E02D642F09940C94F7229A01AB0160E0EC
:1047500070E00C949823611571058105910511F0A5
:104760000C9491280895CF93DF9300D000D0CDB75B
:10477000DEB79B01AC01611571058105910569F0FA
:1047800069833A834B835C830E948C2829813A8118
:104790004B815C810E94D72603C060E070E0CB01B2
:1047A0000F900F900F900F90DF91CF9108954F923F
:1047B0005F926F927F92AF92BF92CF92DF92EF9211
:1047C000FF920F931F93CF93DF93CDB7DEB72901ED
:1047D0003A01621B730B840B950B29893A894B892B
:1047E0005C892A193B094C095D09298B3A8B4B8B53
:1047F0005C8B9B01AC0169897A898B899C890E94B9
:104800007126E418F50806091709A80197010E9406
:10481000D7262A0D3B1D4C1D5D1DCA01B901DF9134
:10482000CF911F910F91FF90EF90DF90CF90BF90AD
:10483000AF907F906F905F904F900895FC018081C2
:1048400091810C94AE27CF93DF93EC0188819981FD
:10485000009711F00E94AE27198218821D821C82D7
:104860001B821A82DF91CF9108950F931F93CF93EC
:10487000DF93EC018B016F5F7F4F888199810E94EC
:104880009A28009731F0998388831B830A8381E0FB
:1048900001C080E0DF91CF911F910F910895CF93D8
:1048A000DF93EC0188819981892B29F08A819B8192
:1048B0008617970760F4CE010E943524882341F0C3
:1048C0008C819D81892B19F4E881F981108281E026
:1048D000DF91CF910895EF92FF920F931F93CF93A3
:1048E000DF93EC017B018A01BA010E944F24811100
:1048F00004C0CE010E94232407C01D830C83B7018E
:10490000888199810E947629CE01DF91CF911F91F4
:104910000F91FF90EF900895FC0111821082138295
:104920001282158214826115710559F0FB01019004
:104930000020E9F7AF0141505109461B570B0C9479
:104940006B240895CF93DF93EC016115710561F03D
:10495000FB0101900020E9F7AF0141505109461BCE
:10496000570B0E946B2402C00E942324CE01DF91CA
:10497000CF910895FC0124813581232B31F421E06E
:1049800061157105A1F0FB0108C0FC0180819181D6
:104990006115710531F421E0FC018081882339F033
:1049A00005C00E946D2921E0892B09F020E0822FAB
:1049B000089508950E94FF200E94D9240E945D035B
:1049C000C0E0D0E00E94C8102097E1F30E940000F0
:1049D000F9CF08955058BB27AA270ED0E5C0D6D0EE
:1049E00030F0DBD020F031F49F3F11F41EF4CBC047
:1049F0000EF4E095E7FBC1C0E92FE7D080F3BA17CA
:104A0000620773078407950718F071F49EF5FFC0DD
:104A10000EF4E0950B2EBA2FA02D0B01B9019001D9
:104A20000C01CA01A0011124FF27591B99F0593F1D
:104A300050F4503E68F11A16F040A22F232F342F65
:104A40004427585FF3CF469537952795A795F040B3
:104A50005395C9F77EF41F16BA0B620B730B840BC8
:104A6000BAF09150A1F0FF0FBB1F661F771F881F80
:104A7000C2F70EC0BA0F621F731F841F48F48795D8
:104A800077956795B795F7959E3F08F0B3CF9395C7
:104A9000880F08F09927EE0F97958795089504D011
:104AA0006894B111B5C0089598D088F09F5790F0E0
:104AB000B92F9927B751A0F0D1F0660F771F881F43
:104AC000991F1AF0BA95C9F712C0B13081F09FD082
:104AD000B1E008959CC0672F782F8827B85F39F020
:104AE000B93FCCF3869577956795B395D9F73EF4A2
:104AF00090958095709561957F4F8F4F9F4F08954A
:104B0000E89409C097FB3EF4909580957095619567
:104B10007F4F8F4F9F4F9923A9F0F92F96E9BB271D
:104B20009395F695879577956795B795F111F8CF99
:104B3000FAF4BB0F11F460FF1BC06F5F7F4F8F4F04
:104B40009F4F16C0882311F096E911C0772321F0FA
:104B50009EE8872F762F05C0662371F096E8862F92
:104B600070E060E02AF09A95660F771F881FDAF7E9
:104B7000880F9695879597F9089597F99F6780E82C
:104B800070E060E008959FEF80EC089500240A949F
:104B90001616170618060906089500240A94121618
:104BA0001306140605060895092E0394000C11F44B
:104BB000882352F0BB0F40F4BF2B11F460FF04C0F8
:104BC0006F5F7F4F8F4F9F4F089557FD9058440F51
:104BD000551F59F05F3F71F04795880F97FB991F5C
:104BE00061F09F3F79F08795089512161306140619
:104BF000551FF2CF4695F1DF08C0161617061806A6
:104C0000991FF1CF86957105610508940895E89480
:104C1000BB2766277727CB0197F908950BD0C4CF20
:104C2000B5DF28F0BADF18F0952309F0A6CFABCF97
:104C30001124EECFCADFA0F3959FD1F3950F50E07A
:104C4000551F629FF001729FBB27F00DB11D639F3E
:104C5000AA27F00DB11DAA1F649F6627B00DA11DE4
:104C6000661F829F2227B00DA11D621F739FB00D8A
:104C7000A11D621F839FA00D611D221F749F3327FA
:104C8000A00D611D231F849F600D211D822F762F93
:104C90006A2F11249F5750408AF0E1F088234AF090
:104CA000EE0FFF1FBB1F661F771F881F91505040DC
:104CB000A9F79E3F510570F060CFAACF5F3FECF39C
:104CC000983EDCF3869577956795B795F795E795C8
:104CD0009F5FC1F7FE2B880F911D9695879597F9D9
:104CE0000895DB018F939F930E94F626BF91AF91A9
:104CF000A29F800D911DA39F900DB29F900D112436
:104D00000895991B79E004C0991F961708F0961B27
:104D1000881F7A95C9F780950895AA1BBB1B51E19E
:104D200007C0AA1FBB1FA617B70710F0A61BB70B1B
:104D3000881F991F5A95A9F780959095BC01CD01C0
:104D4000089597FB072E16F4009407D077FD09D03D
:104D50000E948D2607FC05D03EF4909581959F4FCB
:104D60000895709561957F4F0895A1E21A2EAA1BB0
:104D7000BB1BFD010DC0AA1FBB1FEE1FFF1FA2170B
:104D8000B307E407F50720F0A21BB30BE40BF50B08
:104D9000661F771F881F991F1A9469F76095709591
:104DA000809590959B01AC01BD01CF010895052E22
:104DB00097FB1EF400940E94EE2657FD07D00E9438
:104DC000B52607FC03D04EF40C94EE265095409582
:104DD000309521953F4F4F4F5F4F089590958095A7
:104DE000709561957F4F8F4F9F4F08950E940727C1
:104DF000A59F900DB49F900DA49F800D911D11242F
:104E00000895EE0FFF1F0590F491E02D0994A29FE5
:104E1000B001B39FC001A39F700D811D1124911D8E
:104E2000B29F700D811D1124911D0895CF93DF93C2
:104E30008230910510F482E090E0E0919406F091C8
:104E4000950620E030E0A0E0B0E0309739F14081F5
:104E5000518148175907B8F04817590771F48281F2
:104E60009381109729F013969C938E9312972CC0E0
:104E7000909395068093940627C02115310531F053
:104E80004217530718F0A901DB0101C0EF019A0195
:104E9000BD01DF010280F381E02DD7CF211531055F
:104EA000F9F0281B390B2430310580F48A819B816D
:104EB0006115710521F0FB019383828304C09093F7
:104EC000950680939406FE01329644C0FE01E20FDF
:104ED000F31F8193919322503109398328833AC07B
:104EE0002091920630919306232B41F420910201E8
:104EF0003091030130939306209392062091000194
:104F0000309101012115310541F42DB73EB7409193
:104F1000040150910501241B350BE0919206F0919C
:104F20009306E217F307A0F42E1B3F0B281739074F
:104F300078F0AC014E5F5F4F2417350748F04E0FF5
:104F40005F1F50939306409392068193919302C002
:104F5000E0E0F0E0CF01DF91CF910895CF93DF93B0
:104F6000009709F487C0FC01329713821282C09126
:104F70009406D0919506209781F420813181280FE5
:104F8000391F80919206909193068217930779F5C5
:104F9000F0939306E09392066DC0DE0120E030E0CE
:104FA000AE17BF0750F412964D915C9113979D0177
:104FB0004115510509F1DA01F3CFB383A283408192
:104FC0005181840F951F8A179B0771F48D919C91D5
:104FD0001197840F951F02969183808312968D916D
:104FE0009C911397938382832115310529F4F093C3
:104FF0009506E09394063EC0D9011396FC93EE9378
:1050000012974D915D91A40FB51FEA17FB0779F434
:1050100080819181840F951F0296D90111969C93EE
:105020008E938281938113969C938E931297E0E0E6
:10503000F0E08A819B81009719F0FE01EC01F9CF25
:10504000CE01029628813981820F931F209192060A
:10505000309193062817390769F4309729F4109294
:1050600095061092940602C013821282D093930682
:10507000C0939206DF91CF9108958F929F92AF9245
:10508000BF92CF92DF92EF92FF92CF93DF93EC012A
:10509000688179818A819B816115710581059105FE
:1050A00021F464E279ED8BE597E02DE133EF41E007
:1050B00050E00E94D72649015A019B01AC01A7EAA2
:1050C000B1E40E94F6266B017C01ACEEB4EFA501C1
:1050D00094010E948029C60ED71EE81EF91EF7FE15
:1050E00006C081E0C81AD108E10880E8F80AC88241
:1050F000D982EA82FB82C701B6019F77DF91CF9107
:10510000FF90EF90DF90CF90BF90AF909F908F90E7
:1051100008950E943D28089586E091E00E943D2870
:10512000089560930601709307018093080190939E
:1051300009010895A0E0B0E0E0EAF8E20C948929C2
:10514000EC01CB01209719F40E941627B8C0FE018C
:10515000E60FF71F9E0122503109E217F30708F40A
:10516000ACC0D9010D911C91119706171707B8F023
:105170000530110508F49FC0A80144505109461795
:10518000570708F498C002501109061B170B01932A
:1051900011936D937C93CF010E94AE278CC05B016D
:1051A000A01AB10A4E01800E911EA0919406B091F2
:1051B0009506612C712C60E070E0109709F449C0ED
:1051C000A815B905C9F5ED90FC901197670142E06B
:1051D000C40ED11CCA14DB0478F147018A189B085D
:1051E000640142E0C40ED11C1296BC901297139633
:1051F000AC91B5E0CB16D10440F0B282A38391828A
:105200008082D9018D939C9309C00E5F1F4F0E0DB4
:105210001F1DF90111830083EB2DFA2F6115710514
:1052200031F0DB011396FC93EE93129744C0F09398
:105230009506E09394063FC06D917C911197661698
:10524000770608F43B01BD0112960D90BC91A02D8C
:10525000B4CF609192067091930668157905E9F4D0
:1052600068167906D0F44091000150910101411572
:10527000510541F44DB75EB760910401709105018D
:10528000461B570BE417F507C0F4F0939306E09321
:105290009206F901918380830EC00E9416277C013B
:1052A000009759F0A801BE010E946429CE010E9416
:1052B000AE27C70104C0CE0102C080E090E0CDB7A8
:1052C000DEB7EEE00C94A529FB01DC0102C00190E1
:1052D0000D9241505040D8F70895FB01DC018D91AB
:1052E000019080190110D9F3990B0895FB01DC019D
:1052F00001900D920020E1F70895B7FF0C94F62677
:105300000E94F626821B930B08952F923F924F9294
:105310005F926F927F928F929F92AF92BF92CF9245
:10532000DF92EF92FF920F931F93CF93DF93CDB74E
:10533000DEB7CA1BDB0B0FB6F894DEBF0FBECDBFC6
:1053400009942A88398848885F846E847D848C8497
:105350009B84AA84B984C884DF80EE80FD800C81A0
:105360001B81AA81B981CE0FD11D0FB6F894DEBF83
:105370000FBECDBFED01089516E0C4E6D6E004C02F
:10538000FE010E9403272296C636D107C9F7F8947A
:02539000FFCF4D
:1053920000009606800001000000F8FF0800F8FFF8
:1053A2000800F8FFFCFF0400080008000400FCFFEE
:1053B200F8FF04000400FCFFFCFF080008000800DE
:1053C2000800F8FFF8FFF8FFF8FFF8FFF8FFF8FF12
:1053D200FCFF0000040008000800080008000800A4
:1053E20004000000FCFFF8FFF8FF000004000800C2
:1053F200080008000800080004000000FCFFF8FF95
:10540200F8FFF8FFF8FFF8FFFCFF01017469746C04
:1054120065006E65776C6576656C006E65776C69A4
:1054220066650072756E6E696E670047414D452074
:105432004F564552005052455353204220544F205C
:10544200434F4E54494E55450020204C4153542061
:105452002020202020202020484947480020413A8F
:1054620020504C41592020202020433A20515549B8
:1054720054006E657767616D650067616D656F7673
:1054820065720000002400390001000100010005DE
:1054920000060001000F00390001000100020007B0
:1054A2000008000100140039000100010002000799
:1054B2000008000100190039000100010002000784
:1054C20000080000000000020001000000000004CB
:1054D20000050000003A0000000000000000000784
:1054E20000080000000000000000000200010007A8
:1054F200000300000002000000000002000100079B
:1055020000030001000C003A000000000000000748
:10551200000200000028003900010001000100061D
:105522000006004C4F4144455200000000001E1D81
:1055320077220D0A006E616E00696E66006F7666F4
:04554200002E000037
:00000001FF
