:100000000C94D5060C94FD060C94FD060C94FD068C
:100010000C94FD060C94FD060C94FD060C94FD0654
:100020000C94FD060C94FD060C94FD060C9499238B
:100030000C94FD060C94FD060C94FD060C94FD0634
:100040000C94C3270C94FD060C94FD060C94FD063D
:100050000C94FD060C94FD060C94FD060C94FD0614
:100060000C9414260C94FD0601010101010101010B
:100070000101010101010101010101010101000072
:100080000002020202020202020202020202000056
:10009000000101000102010201020102010201024C
:1000A000010201020100010102010201020102013B
:1000B0000201020102010201020102010102010228
:1000C0000102010201020102010201020102010218
:1000D0000101020102010201020102010201020109
:1000E00002010201020101020102010201020102F8
:1000F00001020102010201020102010102010201E9
:1001000002010201020102010201020102010201D7
:1001100001020102010201020102010201020102C7
:1001200001020102010100010201020102010201BA
:1001300002010201020102010001010000000202AD
:100140000202020202020202020202000000010197
:10015000010101010101010101010101010101018F
:100160000101010140240000000000000000000027
:10017000000000000000FF00000018000000FF0069
:10018000000018000000C0C3E60018000000C0C650
:100190007A0018000000C0CE54F319E0FC67C0D903
:1001A000CCF319E0FC67FF11C6CCDE1B0378FF130C
:1001B000FECCDE1B0378C0DFFECCD81BFF60C0DFA7
:1001C000FECCD81BFF60C0CFFCCCDE1B0060C0C7DC
:1001D000F8CCDE1B0060FF03F0CCD9E0FC60FF012F
:1001E000E0CCD9E0FC6000000000000000002060CE
:1001F0000000000880042090000004444F8823FC85
:1002000000000A22B9D0240200001111094008019F
:10021000000024AA213029F90000494451180A9508
:100220000000920089F80A950000494450F809F945
:10023000000024AA20F804020000111300F00FFFB0
:1002400000000A248FE0130C8000044953C8129464
:100250008000001220040F0F00000000000004F2D4
:10026000000000000000039C80000000010000006E
:10027000B29D1DDD9D007FFFB91111D149FE000027
:10028000B11DDD5D49004E6F206D617374657200B4
:10029000536C61766520646973636F6E6E65637419
:1002A00065640031206D6173746572206D61780042
:1002B0005830000000000000000000000060000056
:1002C00000000000000000C09FC00000000000000F
:1002D000007F2090200000000000000081206017B7
:1002E000FFFFFFFFFFFFFD00C020F60C10410410D0
:1002F0000005E080215514975D55D5266550802175
:1003000054A5914555150225508020F444974D750C
:10031000D66225E0801024A494451455222481003F
:100320000FC515D75D15D577747E000CC60C10412E
:100330000410000466000CC7FFFFFFFFFFFFFC6610
:10034000000B44041041041000045A000484E4101B
:100350004104100004240007051410410410000497
:100360001C000005B41041041000040000800D546E
:1003700010410410000600204795B41041041000FD
:10038000051E402FC404104104100004BF000BE7F9
:10039000FFFFFFFFFFFFFC2F8033F4041041041028
:1003A0000004CFC063F4E41041041000058FC07E48
:1003B00035B4104104100005F8C040351410410454
:1003C00010000500C04025541041041000050080B5
:1003D0007224A4104104100005C8802514041041A3
:1003E000041000049440288FFFFFFFFFFFFFFCA2D2
:1003F000204514041041041000051440A224E41008
:100400004104100006888010555410410410000467
:10041000414028CDF4104104100004A3204525F4E8
:1004200010410410000514808894E4104104100069
:10043000062240104C04104104100004412028A75B
:10044000FFFFFFFFFFFFFCA28045140410410410D2
:10045000000514400884E410410410000422001533
:10046000455410410410000455002225F4104104A5
:1004700010000488804895F41041041000052240C3
:100480002524E41041041000049480124404104117
:100490000410000449000887FFFFFFFFFFFFFC2254
:1004A0000005000000000000000014000200000031
:1004B0000000000000080000000000000000000034
:1004C0000000080570F8702070581B000000000044
:1004D0000000001100000008800030180CFF2222EC
:1004E0000004444F80381C0CC1D445000A22B84097
:1004F000681C1CC0088880111100204C1E14C045C7
:10050000524024AA20204C1A24C0A2292049445039
:1005100000C41A24FD10049092008800861B24C099
:10052000A22920494451E1FE1944C045524024AA61
:100530002021821944C00C8880111300210319C4A2
:10054000C01245000A248023011884C0A922000497
:10055000495E62019884FF448000001221800000FF
:1005600000000000000008800400000000110000EE
:1005700004444F8900DFE3F9A222000A22B9D180A6
:1005800090020A5445001111094081900204088824
:100590008024AA2130C1900202455240494451189A
:1005A00041100202A22920920089F8431FE20D1097
:1005B0000490494450F8621003F8A2292024AA208C
:1005C000F826100230455240111300F03410021882
:1005D0000C88800A248FE01410020F124500044991
:1005E00053C818100204A9220000122004081FE2B8
:1005F00002448000507265737320616E79206B65D0
:10060000790008057088D8A8D8080570D888A8503F
:10061000080570A8F8F8700101010101010101014C
:1006200001010101010101010101010101000000BD
:1006300002020202020202020202020202000000A0
:10064000010100020102010000000000010202029B
:10065000020201020001010202020202020202027F
:10066000020202020200020202020101020201026F
:100670000201020202020202010200010202020160
:100680000102010000000001020202020202020057
:10069000020202020101020202020002020202023E
:1006A0000201000000000102020101020201020039
:1006B000010202020202020102020102020201011F
:1006C000020202020002020202020202020202020C
:1006D0000202020101000201020201020201000005
:1006E00000000002020102000101000000020202FB
:1006F00002020202020202020202000000010101E3
:1007000001010101010101010101010101010101D9
:1007100001010101010101010101010101010101C9
:1007200001010101010101010100000002020202B8
:1007300002020202020202020200000001010001A4
:100740000201020102010201020102010201020191
:10075000000101020202020202020202020202027D
:10076000020202020202010102010201020102016F
:100770000201020102010201020102010102010261
:10078000020202020202020201020202020202024A
:10079000010102020202020202010202020202023C
:1007A0000202020102010102010201020102010230
:1007B0000102010201020102010201010202020220
:1007C000020202020202020202020202020202010A
:1007D0000100010201020102010201020102010203
:1007E00001020100010100000002020202020202F5
:1007F00002020202020200000001010101010101E6
:1008000001010101010101010101010101010101D8
:1008100001010101010101010101010101010101C8
:1008200001010101010000000202020202020202B3
:1008300002020202020000000101000202020202A2
:10084000020202020202020202020202000101028C
:100850000202020202020202020202020202020278
:10086000020201010202020102020202010101026E
:10087000020202010202020101020202020202025B
:10088000020100000202020202020202010102024F
:10089000020202020202000001020202020202023D
:1008A000020101020202010202020201010102022E
:1008B000020201020202010102020202020202021B
:1008C000020202020202020202020201010002020C
:1008D00002020202020202020202020202020200FA
:1008E00001010000000202020202020202020202F0
:1008F00002020000000101010101010101010101E9
:1009000001010101010101010101010101010101D7
:1009100001010101010101010101010101010101C7
:1009200001000000010202020202020202020202AF
:1009300001000000010100010202020102020101A6
:100940000102020102020201000101000202020290
:10095000020202020202020202020202020001017B
:10096000010202010201020201010102020202016E
:10097000020201010102020202020202020200005E
:10098000020202010201020101010102010201024F
:10099000020200000202020202020202020101013E
:1009A000020201020102020101010202020201022D
:1009B000020201010002020202020202020202021B
:1009C000020202020202000101000102020201020F
:1009D0000201010102020102020201000101000004
:1009E00000010202020202020202020202010000EF
:1009F00000010101010101010101010101010101E8
:100A000001010101010101080420C030A0130A20E6
:100A10000A2E0A5369676C6520706C6179657200F3
:100A2000486F737420286D617374657229004A6F72
:100A3000696E2028736C617665290003053F213FAC
:100A40001208120A100A0E1C0E0C1E0C141A141690
:100A50001F161E131E1E1B1E1E1F1E3F213F3A2F58
:100A60003A173D173F213F181F02040A041F0E04C6
:100A7000040E1F0A1F0A0E0E1F04110E2E252E2F04
:100A80002A2E262929021F02081F08150E04040E0B
:100A9000150E15151B151B040604040C040000009C
:100AA0000017000300031F0A1F16371A1904130A40
:100AB000153A000300000E11110E000A040A040E7C
:100AC000040030000404040010001804031F111F68
:100AD000121F101D151711151F07041F17151D1FB5
:100AE000151D01011F1F151F17151F000A000032D9
:100AF00000040A110A0A0A110A040115020E11174C
:100B00001E051E1F150A0E110A1F110E1F15111F9B
:100B100005010E111D1F041F111F1108100F1F04C6
:100B20001B1F10101F061F1E040F0E110E1F09069B
:100B30000E112E1F051A121509011F011F101F0F7C
:100B4000180F1F0C1F1B041B031C03191513001F78
:100B500011030418111F00020102202020000102CD
:100B60000C121E1F120C0C12120C121F0C1A140461
:100B70001E05242A1E1F021C141D1020201D1F08E4
:100B800014111F101E041E1E021C0C120C3E0A041F
:100B90000C123E1E040214160A020F120E101E0E34
:100BA000100E1E081E120C1226281E322A26041EA3
:100BB00021001F00211E040102013F213F0A4E6F48
:100BC0002053442063617264206F720A6E6F204C60
:100BD0004F414445522E4845580A0A153A4578690E
:100BE00074001D20466C617368696E670A20206C72
:100BF0006F616465722E2E2E0A0A444F4E275420D0
:100C00005455524E204F464621006D560A0A504C0C
:100C1000454153450A5455524E204F4646004C4FCD
:100C20005720424154544552590A00177361766562
:100C300000166261636B001574797065000A0A0A18
:100C4000153A6F6B617920163A6564697400596FC3
:100C50007520656E74657265640A00540A03E1814B
:100C6000867F3E186D830F0F0E0183866033186DEB
:100C7000C3198F1803C38E6033186DE330CF180388
:100C8000C39E603630CDE360CF3006C79E7E3E30D7
:100C9000CDB360CF300CC6F6603330D9B660CF33F9
:100CA000CFCCF66061B0DB1E60CF30D86CE6C0619F
:100CB000B0DB1E618F19986CC6C063B19B0E330FF9
:100CC0000FB078C6FF7E1F1B061E0F175344001679
:100CD00013780016131400151020001520100000C2
:100CE0000005008930080238024978681400004580
:100CF00000680100000500680138010000050038A7
:100D00000168010000F6E8DBCFC3B8AEA49B928A6D
:100D1000827B746E68625C57524E4945413E3A3759
:100D200034312E2C29272523211F1D1C1A19171693
:100D30001514131211100F0E0D0C0B0A09080706DB
:100D4000440D480D0101F7030101FF0300000000FD
:100D5000240027002A0000000000250028002B00A6
:100D600000000000230026002900040404040404F9
:100D7000040402020202020203030303030301024A
:100D80000408102040800102040810200102040819
:100D9000102000000007000201000003040600000C
:100DA000000000000000FC098B2411241FBECFEFBF
:100DB000D8E0DEBFCDBF12E0A0E0B1E0ECEFFBE594
:100DC00002C005900D92A232B107D9F716E0A2E257
:100DD000B2E001C01D92A830B107E1F71DE0CAEAF8
:100DE000DDE004C02297FE010E94602DC63AD107C3
:100DF000C9F70E94F1290C94FC2D0C940000782F67
:100E0000FA0190E08481882351F480E58283809107
:100E10002E03838381E084837083618308959F5FC1
:100E20003596963079F708958F929F92AF92BF9240
:100E3000CF92DF92EF92FF920F931F93CF93DF93A6
:100E400044EDC42E42E0D42E30E1E32E33E0F32E05
:100E500002EF12E0C0E0D0E0882E9924A62EBB2439
:100E6000F60184818823F9F08081992787FD909588
:100E700088159905C1F48181992787FD90958A1578
:100E80009B0589F41482FE01EE0FFF1FEE0FFF1F7A
:100E9000EC0FFD1FEC52FD4F408151816281738147
:100EA00084810E94D907F80184818823F9F0808128
:100EB000992787FD909588159905C1F48181992717
:100EC00087FD90958A159B0589F41482FE01EE0F2B
:100ED000FF1FEE0FFF1FEC0FFD1FEE50FD4F408177
:100EE00051816281738184810E94D907F7018481D5
:100EF0008823F9F08081992787FD909588159905B9
:100F0000C1F48181992787FD90958A159B0589F405
:100F10001482FE01EE0FFF1FEE0FFF1FEC0FFD1FEF
:100F2000E05FFC4F408151816281738184810E9426
:100F3000D907219685E090E0C80ED91EE80EF91E6B
:100F40000B5F1F4FC630D10509F08ACFDF91CF91DB
:100F50001F910F91FF90EF90DF90CF90BF90AF90D7
:100F60009F908F9008951F9370E0282F30E085E1C7
:100F700090E0689FF001699FF00D789FF00D1124BB
:100F8000E20FF31FE45FFE4F1081113059F08AE049
:100F90008083660F771F660F771F822F880F880F59
:100FA0000E94140780E01150123008F481E01F9174
:100FB0000895EF92FF920F931F93DF93CF9300D08A
:100FC00000D00F92CDB7DEB7342F4983252F5A8337
:100FD0006B837C838D83E72E82E08093A80283E07D
:100FE0008093A90247FD3D5FF32EF594F59427FD0C
:100FF0002D5F022F0595059510E00AC0812F8F0DFA
:10100000602F0E94B307882311F010E00EC01F5F0D
:101010001E15A0F3FACF8F2D811B602F0E94B307FE
:10102000882311F010E00EC01F5F1E15A0F3FACF49
:10103000612F600F8F2D0E94B307882311F010E0FD
:101040000CC01F5F1E15A0F3FACF602F611B8F2D00
:101050000E94B307882319F41F5F1E15B0F30F9089
:101060000F900F900F900F90CF91DF911F910F91E4
:10107000FF90EF900895CF92DF92EF92FF920F933F
:101080001F93CF93DF9312E1C12E13E0D12EB4EF63
:10109000EB2EB2E0FB2E06ED12E0C0E0D0E0F8014E
:1010A00082818823C1F08081882389F41282FE0125
:1010B000EE0FFF1FEE0FFF1FEC0FFD1FEC52FD4F59
:1010C000408151816281738184810E94D907F80136
:1010D000808181508083F70182818823C1F08081E3
:1010E000882389F41282FE01EE0FFF1FEE0FFF1F0F
:1010F000EC0FFD1FEE50FD4F4081518162817381E5
:1011000084810E94D907F701808181508083F60194
:1011100082818823C1F08081882389F41282FE01B4
:10112000EE0FFF1FEE0FFF1FEC0FFD1FE05FFC4FE8
:10113000408151816281738184810E94D907F601C7
:10114000808181508083219685E090E0C80ED91E71
:10115000E80EF91E0B5F1F4FC630D10509F09FCF77
:10116000DF91CF911F910F91FF90EF90DF90CF9083
:101170000895BC0120E030E00BC084918D934F5F57
:1011800031964531D1F72B5E3F4F2C3F310541F071
:10119000FB01E20FF31FD901A45FBE4F40E0EDCF8A
:1011A0000895823091F083302CF4882341F081300F
:1011B000C1F408C0833061F0843099F40EC087E137
:1011C00096E008C083E197E005C08FE098E002C098
:1011D0008BE099E00E94B908089588E690E00E94AB
:1011E000B9080895CF93DF93982FE4EDF2E0C0E1C2
:1011F000D3E0A2EFB2E08481882371F0808187FD83
:101200008D5F85958595891739F4818187FD8D5F7F
:1012100085958595861781F114968C91149788236E
:1012200081F08C9187FD8D5F85958595891749F4AF
:1012300011968C91119787FD8D5F85958595861701
:10124000D9F08C81882371F0888187FD8D5F859529
:101250008595891739F4898187FD8D5F85958595F9
:10126000861751F035962596159682E0E23FF807ED
:1012700009F0C1CF80E001C081E0DF91CF910895F6
:1012800084E08093AF028093B00281E08093B1024A
:101290008093B2028093B4021092B60208958CE457
:1012A0008093B70288E28093B80283E18093B90209
:1012B0008AE08093BA0281E08093BC021092BE0261
:1012C000089584E08093BF0288E28093C00291E099
:1012D0009093C1028AE08093C2029093C4029093DB
:1012E000C60208958CE48093C70284E08093C8020C
:1012F00083E18093C90281E08093CA028093CC028B
:101300008093CE020895CF93DF930E9440090E94FC
:101310004F090E9461090E94720983E080932E03A5
:10132000E8EDF2E0C6EFD2E0A4E1B3E0108218826B
:101330001C9235962596159682E0E63FF807B1F7A0
:10134000DF91CF910895FC018581882389F1208167
:10135000422F552747FD50958281992787FD90950B
:10136000880F991F880F991F4817590789F4218101
:10137000422F552747FD50958381992787FD9095EA
:10138000880F991F880F991F4817590749F4089526
:101390004817590714F42F5F01C021502083089586
:1013A000481759071CF42F5F21830895215021838A
:1013B00008950F931F93082F162F0E94F208882379
:1013C00011F040E015C040E0212F30E085E190E0D1
:1013D000289FF001299FF00D389FF00D1124E00F98
:1013E000F11DE45FFE4F80818150823008F041E0C2
:1013F000842F1F910F910895109273021092720220
:101400008EE092E09093710280937002089582E2E0
:1014100092E064E671E00E94AD200E948309089585
:101420001F9311E0BFC085E895E00E9429248F300A
:1014300009F46FC0803194F48B3061F18C303CF44E
:10144000833009F4A7C08A3009F0ACC01CC08D30CD
:1014500009F451C08E300CF055C046C0873109F4F4
:1014600078C0883134F48531E1F0863109F09AC0D2
:1014700057C08F3109F478C0803209F480C08E31B2
:1014800009F090C025C085E895E00E94292480934A
:10149000B10288C085E895E00E9429248093B202B9
:1014A00081C085E895E00E942924C19709F07AC09F
:1014B0008091B1026091B202772767FD7095660F47
:1014C000771F660F771F880F880F44ED52E03EC0EC
:1014D00085E895E00E9429241092B402C19709F092
:1014E00061C01093B4025EC085E895E00E94292493
:1014F0008093C10257C085E895E00E94292480931B
:10150000C20250C085E895E00E9429248093C90258
:1015100049C085E895E00E9429248093CA0242C010
:1015200085E895E00E942924C19709F03BC080918D
:10153000C1026091C202772767FD7095660F771F21
:10154000660F771F880F880F40E153E00E94FF0667
:1015500029C085E895E00E942924C19719F580915A
:10156000C9026091CA02E7CF85E895E00E9429246C
:101570001092C402C197B1F41093C40213C085E85D
:1015800095E00E9429241092CC02C19759F410933F
:10159000CC0208C085E895E00E942924C19711F487
:1015A00010930B0185E895E00E942024892B09F017
:1015B0003ACF81E08093AC021092AB021F91089564
:1015C0008AE0809333038091B902809334038BE0E7
:1015D000809335038091BA028093360385E180932E
:1015E00037038091BD02882311F480E301C081E3B9
:1015F000809338038EE1809339038091BC02882365
:1016000011F480E301C081E380933A0383E0809387
:101610003B038091AE02882311F480E301C081E393
:1016200080933C0380910B018823A9F081E0809393
:101630003303809334038093350380933603809380
:101640003703809338038093390380933A03809360
:101650003B0380933C038091AA028823A9F082E097
:101660008093330380933403809335038093360350
:1016700080933703809338038093390380933A0330
:1016800080933B0380933C0323E333E0D9010D9027
:101690000020E9F71197A21BB30BE0918505F091AB
:1016A00086050280F381E02D85E895E0B901AD0162
:1016B000099508951F9310920B0110E016C061E088
:1016C00070E080E090E00E943F281F5F183269F4CC
:1016D00082E292E066E872E042E00E94621B81E0F2
:1016E0008093AB0280930B0104C08091AC028823ED
:1016F00031F31092AC021F9108950F931F9305E8E8
:1017000015E0C80162E070E00E944A25C80160E16E
:101710007AE00E948124C80160EE7AE00E9486246B
:101720001F910F9108951F9385E895E062E070E0A6
:101730004AE050E00E942725882309F46CC01092EB
:10174000AB0210920B0111E05EC085E895E00E94AB
:1017500029248A30A1F08B3054F4823009F443C03C
:10176000833009F448C0813009F04DC039C085315B
:10177000A1F08E3151F18B3009F045C007C085E8EA
:1017800095E00E9429248093B9023DC085E895E048
:101790000E9429248093BA0236C085E895E00E9411
:1017A0002924C19781F58091B9026091BA02772707
:1017B00067FD7095660F771F660F771F880F880F7C
:1017C00042EF52E00E94FF061EC085E895E00E94AD
:1017D00029241092BC02C197B1F41093BC0213C02B
:1017E00080930B0110C082E292E063EA72E042E073
:1017F0000E94621B06C085E895E00E942924C197DB
:1018000011F410930B0185E895E00E942024892BA8
:1018100009F09BCF0CC082E292E060E972E042E006
:101820000E94621B81E080930B018093AB021F91A9
:10183000089585E895E00E942B2508950F93DF9386
:10184000CF93CDB7DEB728970FB6F894DEBF0FBEA3
:10185000CDBFF22F29833A834B835C836D837E83D4
:101860008F8398876F2F432F7723A1F0992361F4FB
:10187000002329F080E792E022E036E009C080E70B
:1018800092E029E036E004C080E792E020E136E013
:101890000E94921828960FB6F894DEBF0FBECDBFF7
:1018A000CF91DF910F9108950F932091AF02309166
:1018B000B0024091B1025091B2026091B3027091B6
:1018C000B4028091B5029091B60201E00E941E0C14
:1018D0008091AD02882399F42091B7023091B8022B
:1018E0004091B9025091BA026091BB027091BC0262
:1018F0008091BD029091BE0200E00E941E0C2091DA
:10190000BF023091C0024091C1025091C202609169
:10191000C3027091C4028091C5029091C60200E09A
:101920000E941E0C2091C7023091C8024091C9024A
:101930005091CA026091CB027091CC028091CD028D
:101940009091CE020E941E0C0F9108950F931F9349
:1019500081E08093AE020AE01AE282E292E00E9405
:101960002F1D8823D1F380E792E060E040E029EC6E
:1019700034E00E9492180093790210937A0280E773
:1019800092E064EF75E00E942A2A8CE292E064E023
:101990000E940D15882371F48CE292E065E00E94AC
:1019A0000D15882339F48CE292E066E00E940D1553
:1019B000882399F21092AE021F910F910895CF9350
:1019C000DF93EC018D81882309F4B7C080910B016E
:1019D000882309F0B2C01E822881332727FD309565
:1019E0008A81992787FD9095880F991F880F991FE5
:1019F0002817390709F052C02981332727FD309570
:101A00008B81992787FD9095880F991F880F991FC3
:101A10002817390709F042C086C08A818F5F6B8121
:101A20000E94D9098823D1F18A818F5F11C08CE28D
:101A300092E060E041E00E941715882359F08A8106
:101A400081506B810E94D909882341F18A8181509C
:101A50008A8324C08CE292E061E041E00E94171585
:101A6000882351F06B8161508A810E94D9098823B3
:101A7000A9F08B81815011C08CE292E063E041E0DB
:101A80000E941715882351F06B816F5F8A810E9435
:101A9000D909882319F08B818F5F8B838CE292E0C8
:101AA00064E00E940D15882349F18A816B810E94B0
:101AB000F208882319F58091AA029A816B81882304
:101AC00069F0772767FD7095660F771F660F771FA0
:101AD000892F880F880F44ED52E00CC0772767FDEF
:101AE0007095660F771F660F771F892F880F880FF5
:101AF00042EF52E00E94FF0681E08E838B8190E0EE
:101B00004A8125E130E0829FF001839FF00D929F92
:101B1000F00D1124E40FF11DE45FFE4F808183304E
:101B200060F01D820AC08CE292E062E041E00E9417
:101B30001715882309F071CF7ACFDF91CF910895DF
:101B40001F93142F0E94F208882379F060E070E060
:101B500080E090E02AE030E040E050E00E94942BEA
:101B60006B5C7F4F611B71090AC060E070E080E030
:101B700090E02AE030E040E050E00E94942BCB015E
:101B80001F9108959F92AF92BF92CF92DF92EF92F2
:101B9000FF920F931F93CF93DF93C82ED62E962ECE
:101BA00085E1689F50011124EC2C00E010E0FF2437
:101BB000E501C45FDE4FFE01EE0DF11D8081815015
:101BC000823030F4EC2CFF24E501C45FDE4F0DC001
:101BD0008E2D6D2D4F2D0E94A00D080F191FF3940F
:101BE000E39483E0F81639F7EDCFFE01EE0DF11D19
:101BF00080818150823040F4ED2CFF24CC2DD0E048
:101C000075E1A72EB12C0DC08E2D6D2D4F2D0E948C
:101C1000A00D080F191FF394EA9483E0F81629F732
:101C2000EBCF8E2D90E08A9DF0018B9DF00D9A9D5B
:101C3000F00D1124EC0FFD1FE45FFE4F80818150F9
:101C4000823028F4FF2465E1A62EB12C0DC08C2D26
:101C50006E2D4F2D0E94A00D080F191FF394E394D1
:101C600083E0F816F1F6EECF892D90E08A9DF00121
:101C70008B9DF00D9A9DF00D1124EC0FFD1FE45F7C
:101C8000FE4F80818150823060F08C2D692D4F2D68
:101C90000E94A00D080F191FF3949A9483E0F81680
:101CA00019F7C801DF91CF911F910F91FF90EF902D
:101CB000DF90CF90BF90AF909F9008950F931F93A8
:101CC000CF93DF938C01EB018FE097E2F8019183D2
:101CD00080839383828395838483978386834A81D9
:101CE0006B816F5F262F30E085E190E0289FF00147
:101CF000299FF00D389FF00D1124E40FF11DE45FD2
:101D0000FE4F8081882331F4842F0E94C20DF80198
:101D1000918380834A814F5F6B81262F30E085E17C
:101D200090E0289FF001299FF00D389FF00D1124BD
:101D3000E40FF11DE45FFE4F8081882331F4842F8E
:101D40000E94C20DF801938382834A816B816150A6
:101D5000262F30E085E190E0289FF001299FF00DCB
:101D6000389FF00D1124E40FF11DE45FFE4F8081D8
:101D7000882331F4842F0E94C20DF8019583848357
:101D80004A8141506B81262F30E085E190E0289F09
:101D9000F001299FF00D389FF00D1124E40FF11D83
:101DA000E45FFE4F8081882331F4842F0E94C20DAE
:101DB000F80197838683DF91CF911F910F9108954A
:101DC000CF92DF92EF92FF920F931F93DF93CF9307
:101DD000CDB7DEB728970FB6F894DEBF0FBECDBFE4
:101DE00029833A834B835C836D837E838F839887BB
:101DF000042F152F16160CF474C0842F652F0E9423
:101E0000F208882309F06DC0D02EDA948D2D612F51
:101E10000E94C20DC3970CF064C0E02EE3948E2D97
:101E2000612F0E94C20DC3970CF05BC0F12EFA9493
:101E3000802F6F2D0E94C20DC3970CF052C0C12E8F
:101E4000C394802F6C2D0E94C20DC3970CF049C023
:101E500060E070E080E090E02EE130E040E050E0B3
:101E60000E94942B6115710581059105E1F185E1D1
:101E7000189FB0011124645F7E4FFB01ED0DF11D31
:101E80008081823081F1FB01EE0DF11D8081823075
:101E900051F1602F70E02F2D30E085E190E0289F18
:101EA000F001299FF00D389FF00D1124E60FF71F68
:101EB000E45FFE4F80818230B1F040E02C2D30E0B5
:101EC00085E190E0289FF001299FF00D389FF00DEB
:101ED0001124E60FF71FE45FFE4F8081823021F46A
:101EE00002C040E001C041E0842F28960FB6F8946C
:101EF000DEBF0FBECDBFCF91DF911F910F91FF903D
:101F0000EF90DF90CF900895EF92FF920F931F9381
:101F1000DF93CF93CDB7DEB728970FB6F894DEBF27
:101F20000FBECDBF7C0180910B01882309F0D5C085
:101F3000F7018581882309F4D0C0168220813327D8
:101F400027FD30958281992787FD9095880F991FED
:101F5000880F991F2817390709F0A9C02181332755
:101F600027FD30958381992787FD9095880F991FCC
:101F7000880F991F2817390709F099C08E010F5F44
:101F80001F4FC801B7010E945E0EF80106E910E07C
:101F90008FE097E240E050E0608171816817790737
:101FA00014F0BC0101C08A014F5F5F4F329644308C
:101FB000510511F0CB01F0CF6333710544F0F70107
:101FC000828163810E94C20DC2970CF470C00130FF
:101FD000110589F0023011051CF4012B41F03FC0BE
:101FE0000230110561F003301105C9F521C0F70178
:101FF00053815F5F07C0F70142814F5F1CC0F7014B
:1020000053815150252F30E0428185E190E0289F97
:10201000F001299FF00D389FF00D1124E40FF11D00
:10202000E45FFE4F80818823D1F4F701538317C00A
:10203000F70142814150838190E025E130E0829FA9
:10204000F001839FF00D929FF00D1124E40FF11D1C
:10205000E45FFE4F8081882311F4F7014283F7018A
:10206000208131814281538164817581868197818C
:102070000E94E00E8823A9F0F7018281638177270F
:1020800067FD7095660F771F660F771F880F880FA3
:1020900040E153E00E94FF0681E0F70186838AE079
:1020A00005C0F7018481181614F481508483F70168
:1020B000838190E0428125E130E0829FF001839F9F
:1020C000F00D929FF00D1124E40FF11DE45FFE4F1F
:1020D0008081833010F0F701158228960FB6F894AE
:1020E000DEBF0FBECDBFCF91DF911F910F91FF904B
:1020F000EF9008958FEB92E00E94840F87EC92E0BE
:102100000E94840F08950F931F938091A902882342
:1021100009F459C081508093A90200912F031091B6
:1021200030032091A80230E066277727621B730BEB
:10213000882777FD8095982F2F5F3F4F442737FDE5
:102140004095542F0E94942B060F171F10933003B5
:1021500000932F0300913103109132032091A802C4
:1021600030E066277727621B730B882777FD809501
:10217000982F2F5F3F4F442737FD4095542F0E94E3
:10218000942B060F171F1093320300933103109105
:10219000250220912702269526958091A802289F46
:1021A00090011124442737FD4095542F60E070E0E2
:1021B00080E090E00E94942B161B82E292E0612F57
:1021C0000E944A1408C01092300310922F031092FC
:1021D0003203109231031F910F910895CF92DF9235
:1021E000EF92FF920F931F93CF93DF930E94831080
:1021F000EE24FF24DD243BC00881002359F1013087
:1022000079F480912F03612F681B809131034D2D4C
:10221000481B80E792E024E004E00E9459161AC0AF
:10222000033078F080E792E0612F4D2D27E03AE00F
:102230000E949218802F8150823009F480E08883B8
:1022400009C0612F6F5F80E792E04C2D22E002E031
:102250000E948F1621961C5F143571F685E190E07F
:10226000E80EF91E94E0D90E80E3D81639F0CD2C93
:10227000C394E701C45FDE4F10E0BECFDF91CF9182
:102280001F910F91FF90EF90DF90CF900895EF9204
:10229000FF920F931F93CF93DF93C4EDD2E0B0E191
:1022A000EB2EB3E0FB2E02EF12E08C81882379F055
:1022B0008A8164E10E94EE2C963048F068816E5F5E
:1022C00049814E5F80E792E021E00E94DD17F8012E
:1022D0008481882379F0828164E10E94EE2C96301B
:1022E00048F060816E5F41814E5F80E792E021E0BF
:1022F0000E94DD17F7018481882379F0828164E1EF
:102300000E94EE2C963048F060816E5F41814E5FF6
:1023100080E792E021E00E94DD17259685E090E0BD
:10232000E80EF91E0B5F1F4F92E0C23FD90709F07C
:10233000BCCFDF91CF911F910F91FF90EF90089547
:10234000EF92FF920F931F9310E084E5E82E0CE0CC
:10235000F02E82E292E00E942F1D8823D1F30E948A
:10236000EE100E94540C0E94471180E792E060E05A
:102370000E94C01580E792E060E040E0212F00E37A
:102380000E9459166E2D611B80E792E040E0212FDC
:102390000E94591680E792E061E040E00E94C41577
:1023A000F092790281E080937A021E5F1E3389F6F3
:1023B0001F910F91FF90EF90089582E292E00E94AA
:1023C000B3200E94070A10923A020E94190C0E9440
:1023D0007D0B089585E895E062E070E00E94162488
:1023E00085E895E06AE00E94D3246091B1027727E6
:1023F00067FD709585E895E00E94D32485E895E017
:102400006BE00E94D3246091B202772767FD70953C
:1024100085E895E00E94D32485E895E065E10E9477
:10242000D3248091B502882319F460E370E002C0E0
:1024300061E370E085E895E00E94D32485E895E0AB
:102440006EE10E94D3248091B402882319F460E3E2
:1024500070E002C061E370E085E895E00E94D3245B
:1024600085E895E063E00E94D3248091AE02882342
:1024700019F460E370E002C061E370E085E895E084
:102480000E94D32485E895E06CE00E94D3246091FB
:10249000C102772767FD709585E895E00E94D324F7
:1024A00085E895E06DE00E94D3246091C202772711
:1024B00067FD709585E895E00E94D32485E895E056
:1024C0006EE00E94D3246091C902772767FD709562
:1024D00085E895E00E94D32485E895E06FE00E94AE
:1024E000D3246091CA02772767FD709585E895E04F
:1024F0000E94D32485E895E066E10E94D324809170
:10250000C502882319F460E370E002C061E370E063
:1025100085E895E00E94D32485E895E067E10E9474
:10252000D3248091CD02882319F460E370E002C0C7
:1025300061E370E085E895E00E94D32485E895E0AA
:102540006FE10E94D3248091C402882319F460E3D0
:1025500070E002C061E370E085E895E00E94D3245A
:1025600085E895E060E20E94D3248091CC02882324
:1025700019F460E370E002C061E370E085E895E083
:102580000E94D32485E895E00E94162508950E94B4
:10259000930B0E94EA1108950F931F93CF93DF933B
:1025A0000E94A01181E08093AE0201E082E292E0FD
:1025B0000E942F1D8823D1F38091AD02882349F416
:1025C0008091AA02882319F00E94C71202C00E94BB
:1025D0005A0B80E792E060E040E020EB32E00E949E
:1025E0009218CFECD2E016E14881442359F0440F11
:1025F000440F440F4A5F80E792E0612F22EC34E001
:102600000E94921821961A5F143371F70093B40256
:102610000093BC028CE292E064E00E940D158823D6
:1026200039F48CE292E065E00E940D15882361F098
:102630001092AE0281E003C01092AE0280E0DF9102
:10264000CF911F910F9108958CE292E066E00E9475
:102650000D15882309F4AACFEFCFDF92EF92FF92F6
:102660000F931F93CF93DF9311E010930B0182E23E
:1026700092E06DE07AE043E00E94E81D813069F06D
:10268000823091F08823C9F410920B011093AB02B1
:102690001093AA021093AD0212C010920B01109277
:1026A000AB028093AA0206C010920B011092AB02FB
:1026B0001092AA021092AD0202C00E94070A109264
:1026C000CF021092D0021092D1021092D202109238
:1026D000D302CFECD2E010E034E0D32E23E0E22EA0
:1026E00092E0F92E01E0812F0E94D10882E292E06F
:1026F0000E942F1D882309F43FC08CE292E066E01F
:102700000E940D15882309F074C08FEA92E00E94A0
:10271000A3098091AD02882321F487EB92E00E9407
:10272000A3098FEB92E00E94A30987EC92E00E943C
:10273000A3098091AA02882369F08FEA92E00E949F
:10274000DF0C0E947A108091AD02882369F40E9408
:10275000C7120AC087EB92E00E94DF0C8091AD02A5
:10276000882311F40E945A0B0E943B080E94EE102D
:102770000E94540C0E9447118091B4028823A9F052
:102780008091BC02882309F449C08091AD0288235E
:1027900009F4ACCF8091C402882309F0A7CF8091BF
:1027A000CC02882309F0A2CF39C08091AD028823E2
:1027B00031F48091BC02882311F0F8821AC0809114
:1027C000C402882391F08091CC02882361F063E0F9
:1027D00070E080E090E025E030E040E050E00E94D2
:1027E000942B688306C0E88204C08091CC028111DA
:1027F000D8820E94CC12882339F00E9483091F5F7F
:102800002196153009F06FCF0E94A60CDF91CF9171
:102810001F910F91FF90EF90DF9008950883E9CF0B
:10282000882319F48CB5806202C08CB58F7D8CBD75
:1028300008959CB5937F982B9CBD08952CB5382F97
:1028400033702C7F322B3CBD2DB590E0959587954C
:102850009595879581702E7F822B8DBD08958AE096
:1028600061E00E948E298AE061E00E9422298CB5F5
:1028700080618CBD8CB580648CBD8DE061E00E9470
:1028800022298BE061E00E9422290895FC0181E069
:102890008083089585E070E00E94C22808956F92B9
:1028A0007F928F929F92AF92BF92CF92DF92EF92E0
:1028B000FF920F931F93CF93DF93EC0189819A814D
:1028C0008C0124E0000F111F2A95E1F7081B190B5A
:1028D00085E10E94A028BC01600F711F84E07695FD
:1028E00067958A95E1F77A8369838881882381F1E6
:1028F0002E813F816217730710F4B90106C08885E5
:1029000099858617970708F4BC0100D000D080E0B5
:1029100090E040E050E0E884F98400E010E0AD8011
:10292000BB24CC24DD246C80772488249924EDB743
:10293000FEB761827282838294820E94292B6B830C
:102940000F900F900F900F9085E070E00E94C228CA
:10295000DF91CF911F910F91FF90EF90DF90CF907B
:10296000BF90AF909F908F907F906F900895FC01E3
:102970008CE39FE09383828384E0818381E084877A
:102980000895CF93DF93EC018C8590E08F71907068
:10299000892B69F584E10E94A028AA2797FDA095BC
:1029A000BA2FBC01CD010E94E02B26EE3FE34EEC96
:1029B00050E40E946C2C0E94B22B9B01AC017B83E3
:1029C0006A836115710589F084E08983B901FE018C
:1029D00020E0848195816817790710F429830AC063
:1029E0002F5F32962430A9F702C08FEF89838C8540
:1029F0008F5F8C87DF91CF910895FC0188E0808301
:102A000089E0818387E0828386E0838384E0848316
:102A100082E0858381E18683089520E0FC01E60F52
:102A2000F11D8781813009F421E0822F0895E62F7E
:102A3000F0E0423040F420E0E80FF91F8781815038
:102A40008E3F88F40FC0E80FF91F87818F3F11F484
:102A500020E009C020E090E0642F70E00E94FA2C92
:102A6000019709F421E0822F08950F931F93CF93CC
:102A7000DF93EC0110E00FEF888162E00E942229D1
:102A800088810E94C1292F81892B19F42F5F2F8300
:102A900007C0222349F02F3F11F41F8201C00F838A
:102AA000888160E00E9422291F5F2196173021F75C
:102AB000DF91CF911F910F910895FC01742F643520
:102AC00008F05DC047FD5BC040330CF058C0878DF7
:102AD000823019F5842F859585958595992787FDF1
:102AE0009095462F552747FD509524E530E0829F6D
:102AF000F001839FF00D929FF00D1124E40FF51F5C
:102B0000E35CFC4F808190E0272F277002C09595F1
:102B100087952A95E2F780958170972F95959595E1
:102B20009595462F552747FD5095272F27708823C9
:102B3000A1F4E4E59E02F0011124E40FF51FE35C2B
:102B4000FC4F81E090E002C0880F991F2A95E2F7C0
:102B500080952081282320830895E4E59E02F001DA
:102B60001124E40FF51FE35CFC4F81E090E002C00C
:102B7000880F991F2A95E2F72081282B208308953A
:102B8000FC01678F60A30895FC01678F40A308953F
:102B9000AF92BF92CF92DF92EF92FF920F931F936B
:102BA000CF93DF93EC01162FF42EE22EAA24402FB0
:102BB000552747FD50958F2D992787FD9095481BE8
:102BC000590B57FF03C0509541955F4F2E2D33276A
:102BD00027FD3095812F992787FD9095281B390B6C
:102BE00037FF03C0309521953F4F2417350744F434
:102BF000AA24A3948F2DF12E182F802F0E2DE82EAE
:102C0000E11634F48E2DE12E182F802F0F2DF82E83
:102C1000DE2CD11A202F332727FD30958F2D9927B1
:102C200087FD9095281B390B37FF03C03095219500
:102C30003F4FB22EF0161CF0CC24CA9402C0CC2414
:102C4000C3948D2DD7FC8F5F082F059511C0AA2046
:102C500021F0CE016F2D412F03C0CE01612F4F2DEA
:102C60000E945D150B1907FF02C0FC0C0D0D1F5FC4
:102C7000E1166CF7DF91CF911F910F91FF90EF90CC
:102C8000DF90CF90BF90AF9008950F93042F322F15
:102C9000262F2150230F0E94C8150F9108950F93DE
:102CA000362F042F0150020F232F0E94C8150F91B9
:102CB00008959F92AF92BF92CF92DF92EF92FF92D0
:102CC0000F931F93CF93DF936C01B62E942EA02EFB
:102CD000C0E0D0E0E62EFF24E7FCF094022F11279D
:102CE00007FD10950E0D1F1D06C0C601492D2A2D8A
:102CF0000E944F1621966B2D6C0FCE018E0D9F1DDD
:102D00008017910794F3DF91CF911F910F91FF905E
:102D1000EF90DF90CF90BF90AF909F900895CF92AB
:102D2000DF92EF92FF920F931F937C01162FD42E08
:102D3000C22E0E9445164D2D4150400FC701612FF4
:102D40002C2D0E944516C701612F4D2D202F0E946A
:102D50004F1611501C0DC701612F4D2D202F0E94C1
:102D60004F161F910F91FF90EF90DF90CF90089535
:102D70002F923F925F926F927F928F929F92AF922B
:102D8000BF92CF92DF92EF92FF920F931F93DF9348
:102D9000CF9300D000D000D0CDB7DEB79E838D8317
:102DA000C62ED42EEE24E394E21A8EEF289F502CE8
:102DB0001124842E8A94962E9A94A42EA394B62E2F
:102DC000B394F22E662423E0722E10E0C8018470C2
:102DD00090709A838983F801E270F070FC83EB8332
:102DE00098E0292E312C202231220170107054C01D
:102DF000E7FC04C0FA94F2E05F0EE50C639489816D
:102E00009A81892B71F04F2D4D0D8D819E816B2DF7
:102E10000E945D156F2D6C0D8D819E814A2D0E9443
:102E20005D15EB81FC81EF2B71F04D2D4F198D81DC
:102E30009E816B2D0E945D156F2D6C0D8D819E8185
:102E4000482D0E945D152114310471F06C2D6F190D
:102E50008D819E814A2D0E945D154F2D4D0D8D81D6
:102E60009E81692D0E945D150115110571F06C2D73
:102E70006F198D819E81482D0E945D154D2D4F1932
:102E80008D819E81692D0E945D15E70CF2E07F0E19
:102E90008A949A94A394B3946F140CF4A9CF2696B1
:102EA0000FB6F894DEBF0FBECDBFCF91DF911F915B
:102EB0000F91FF90EF90DF90CF90BF90AF909F90D9
:102EC0008F907F906F905F903F902F9008954F92DA
:102ED0005F926F927F928F929F92AF92BF92CF92AA
:102EE000DF92EF92FF920F931F93CF93DF93EC014A
:102EF000A62E742E9E2DFF24F394F21A8EEF289F97
:102F0000802C1124B42EBA9453E0C52ECE0CE22EA0
:102F1000DD2443E0942E10E031E0432E512C40227A
:102F20005122692E63940270107034C0F7FC04C003
:102F3000EA9482E0880EF80CD3944114510489F08D
:102F40006D2D6A0D472D4E192E2D220F260DCE0107
:102F50000E944F166E2D6A0DCE014B2D2C2D0E9416
:102F60004F160115110589F06A2D6D19472D4E195F
:102F70002E2D220F260DCE010E944F166A2D6E199E
:102F8000CE014B2D2C2D0E944F16F90C82E0980E8D
:102F9000BA94C80EDE1454F2DF91CF911F910F91B5
:102FA000FF90EF90DF90CF90BF90AF909F908F9069
:102FB0007F906F905F904F900895DF92EF92FF9215
:102FC0000F931F937C01062FD42E122F421B220F2A
:102FD0002F5F0E944F16C701602F4D2D212F03E058
:102FE000EE240E9467171F910F91FF90EF90DF90E2
:102FF00008957F928F929F92AF92BF92CF92DF926D
:10300000EF92FF920F931F936C01962EA42EF22E37
:103010007E2C760E1EEFE19E102D1124812E820E45
:10302000672D282D0E944516B02EBA0CBA94C60101
:10303000672D4B2D282D0E944516AE0C100FC60192
:10304000692D4A2D212F0E944F16F90CFA94C601C2
:103050006F2D4A2D212F0E944F16C601672D4A2D34
:103060002E2D01E00E94B816FE18C6016F2D4A2DC4
:103070002E2D02E00E94B816BE18C6016F2D4B2DF2
:103080002E2D04E00E94B816C601672D4B2D2E2D63
:1030900008E00E94B8161F910F91FF90EF90DF900B
:1030A000CF90BF90AF909F908F907F9008958F9218
:1030B0009F92AF92BF92CF92DF92EF92FF920F93C7
:1030C0001F936C01162FA42E922EF02EBE2C8E2C48
:1030D000860E2EEFE29EE02C11242E2D290D682D58
:1030E0000E945916AB0CFA94FE0C1150190D1B19C5
:1030F000C601612F4A2D2B2D01E0EF2C0E9467178E
:10310000C601682D4A2D2B2D02E00E9467171F91E2
:103110000F91FF90EF90DF90CF90BF90AF909F9076
:103120008F9008953F924F925F926F927F928F920D
:103130009F92AF92BF92CF92DF92EF92FF920F9346
:103140001F93CF93DF934C01362E442EF901A490A8
:10315000319654906F010894C11CD11C8A2D992777
:1031600087FD9095079668E070E00E940E2DE62E90
:10317000FF24E7FCF09400E0C0E0D0E060E8662EB9
:10318000712C26C0E12FE595E595E595FF27E7FD34
:10319000F095EC0FFD1FEC0DFD1DE4912E2F30E09E
:1031A000812F8770A30102C0559547958A95E2F754
:1031B00024233523232B31F0612F630DC4014B2DC4
:1031C0000E945D151F5F1A15ECF20F5FCE0DDF1D1B
:1031D000051524F410E0B02EB40CF5CFDF91CF919B
:1031E0001F910F91FF90EF90DF90CF90BF90AF9025
:1031F0009F908F907F906F905F904F903F90089539
:10320000DC01FB0184918F5F14968C9314973196A7
:1032100084918F5F15968C93159731965E96FC93EB
:10322000EE935D9708953F924F925F926F927F92D7
:103230008F929F92AF92BF92CF92DF92EF92FF92C6
:103240000F931F93CF93DF93EC01862EA42E422F72
:10325000102F3F8C23E526170CF4ABC03FE23A1544
:103260000CF4A7C0C02EDD248C8190E001979C0156
:10327000C29EC001C39E900DD29E900D1124262F98
:10328000332727FD3095820F931F181619060CF06F
:1032900090C08D8190E09C01C29EC001C39E900DA4
:1032A000D29E900D11242A2D332727FD3095820FB1
:1032B000931F181619060CF07CC09924442E55242F
:1032C0006DC09C01215030404217530711F460E05B
:1032D0000EC0429EC001439E900D529E900D11243F
:1032E000840F951FED8DFE8DE80FF91F64914C9DA5
:1032F000C0014D9D900D5C9D900D1124682C680EB1
:10330000BB24792C780C3FC0E62EFF2460FF19C047
:10331000113039F44B2D4A0DCE01672D0E945D15F9
:103320002EC02C9DC0012D9D900D3C9D900D112413
:103330004A2D480FCE01662D212F012F0E945916CC
:103340001EC098A18F8D9817D1F09F8F113039F43E
:103350004B2D4A0DCE01672D0E945D150FC02C9D8F
:10336000C0012D9D900D3C9D900D11244A2D480FBC
:10337000CE01662D212F012F0E9459163F8EF59404
:10338000E7946E2DB3942B2D332727FD30958D8137
:1033900090E0281739070CF4B7CF9394492D55279F
:1033A00047FD50958C8190E0481759070CF489CF60
:1033B0003F8EDF91CF911F910F91FF90EF90DF90A3
:1033C000CF90BF90AF909F908F907F906F905F90C5
:1033D0004F903F9008950F93CF93DF93EC01262FEA
:1033E0006A3049F48D819885899F802D11249A85B2
:1033F000980F9A8726C06D3029F169854A8508851E
:103400000E9413199C816885969F402D11248985FF
:10341000480F49878F818823A9F0552747FD50958C
:10342000699F9001112484E590E0821B930B84171F
:10343000950744F49D81699F902D11248A85890FF9
:103440008A87198681E090E0DF91CF910F910895EE
:103450001F93CF93DF93EC01162FF8948E8560E0D5
:103460000E948E298F8518161CF460E00E948E2918
:103470001EBD0DB407FEFDCF8EB58F8518161CF44A
:1034800061E00E948E297894DF91CF911F91089579
:10349000FF920F931F93CF93DF93EC01FF2400E083
:1034A00010E06F2D6064CE010E94281ACE0160E802
:1034B0000E94281A8E8561E00E948E298F85181639
:1034C0001CF460E00E948E29F801E35CFC4F90E060
:1034D00080818EBD0DB407FEFDCF8EB59F5F319606
:1034E0009435B1F78F8518161CF461E00E948E297F
:1034F000F3940C5A1F4F86E0F81699F6CE0160E45B
:103500000E94281ADF91CF911F910F91FF9008958B
:10351000CF93DF93DC0188EF91E0EDE3F3E0EF017F
:103520009C01199221503040E1F719961C9219978D
:103530001A961C92DF91CF910895EF920F93CF933B
:10354000DF93EC014D876C872E87E88A0F8781E037
:1035500088878F8F18A28F83CE016BE37AE00E9459
:1035600000190E942F1481E00E94101485E00E942F
:103570001E148CE00E9419148D8561E00E9422299E
:103580008C8561E00E9422298E8561E00E942229BB
:10359000888918161CF461E00E9422298F8518166C
:1035A0001CF461E00E942229888918166CF460E0FE
:1035B0000E948E296AE070E080E090E00E943F283F
:1035C000888961E00E948E29EC852E2F332727FD04
:1035D0003095F901E659F24FE491F0E0EE0FFF1F4C
:1035E000EA5AF24F859194919C8B8B8B2258324FE3
:1035F000F90184918A8FED852E2F332727FD309591
:10360000F901E659F24FE491F0E0EE0FFF1FEA5A9C
:10361000F24F859194919A8B898B2258324FF90100
:103620008491898FEF852E2F332727FD3095F9015F
:10363000E659F24FE491F0E0EE0FFF1FEA5AF24F25
:10364000859194919E8B8D8B2258324FF9018491F4
:103650008B8FEE852E2F332727FD3095F901E65904
:10366000F24FE491F0E0EE0FFF1FEA5AF24F85911E
:103670009491988F8F8B2258324FF90184918C8FBF
:10368000CE0161E20E94281ACE0164E10E94281A4C
:103690008B8587FF02C08FE78B876B856068CE01C3
:1036A0000E94281ACE0160E20E94281ACE016CE026
:1036B0000E94281ACE010E94481ADF91CF910F91E3
:1036C000EF900895FC01ED57FF4F61937193445FB4
:1036D00040830895CF93DF93DC01E0E8F7E785911D
:1036E0009491ED01C75ADF4FAD0141595F4F8150B1
:1036F000904C09F04EC0E6E9F7E7E491E883E7E98A
:10370000F7E7E4911496EC931497E8E9F7E7E4916E
:103710001596EC931597E9E9F7E78591949117963B
:103720009C938E931697EBE9F7E785919491199600
:103730009C938E931897EDE9F7E7E4919B96EC93B1
:103740009B97EEE9F7E7E4919A96EC939A97EFE965
:10375000F7E7E491EA01E883E0EAF7E785919491DD
:103760005D969C938E935C97E2EAF7E7859194913E
:103770005F969C938E935E97E4EAF7E78591949128
:1037800091969C938E939097E6EAF7E785919491B2
:1037900032C08CE3888314961C9214972FEF1596F1
:1037A0002C93159780E293E017969C938E9316972F
:1037B00084ED93E019969C938E93189781E09B96E5
:1037C0008C939B979A968C939A97FA0120838CEA14
:1037D0009DE05D969C938E935C978EED9DE05F9649
:1037E0009C938E935E9784E79EE091969C938E9334
:1037F00090978CE39FE093969C938E939297DF91A2
:10380000CF910895EF92FF920F931F93CF93DF9381
:103810007C018C01025B1F4FC8010E94881AC801FD
:1038200062EE7BE00E942A2AC8010E94481A83E0C7
:103830000E941E1480E091E0EEEFFFE3099584E51D
:1038400090E0E80EF91EF7011082C8016DEB7BE0F5
:103850000E94752AC8010E94481AE701CA54D04044
:10386000CE010E943515CE0164E00E940D1588231B
:1038700039F462E370E080E090E00E943F28F0CFEE
:10388000DF91CF911F910F91FF90EF9008950F93CB
:103890001F93CF93DF93EC018C01025B1F4FC80194
:1038A00061E040E00E94C415FE01E95AFF4FCE5A84
:1038B000DF4F85E59881891B808326961882C8553D
:1038C000D040698D613009F43EC0613028F0888DA8
:1038D000653008F051C04BC0CE0185960E94B821DA
:1038E000CE0160E00E944A14C8010E94881ACA5A98
:1038F000DF4F81E08883C655D040C8016EE17CE08F
:103900000E942A2A6A8D7B8DC8014AE050E00E94FD
:10391000182BC8016AE07CE00E942A2AC8010E9494
:10392000481A83B7817F846083BF83B7816083BF78
:1039300083B7816083BF889583B78E7F83BF83B74A
:103940008E7F83BF1FC0C059DF4F88819981AA81B4
:10395000BB818F709070A070B0700897A105B10501
:1039600018F4C80167E00CC0C80168E709C08823E3
:1039700049F06B5FC80104C0882321F0C8016FE2E1
:103980000E944D2ADF91CF911F910F910895AF9220
:10399000BF92CF92DF92EF92FF920F931F93CF933C
:1039A000DF93EC01CB57DF4F8881C558D040882387
:1039B00009F44AC08C3010F010E002C01CE0181B63
:1039C000CA5ADF4F81E08883C655D0406EE4C62EC8
:1039D000D12CCC0EDD1EC60160E00E94C01553E55F
:1039E000A52EB12CAC0EBD1EF50100814DE2F42ECA
:1039F0004F2D401B410F0D5FC60160E024E533E011
:103A0000E32E0E945718C60161E00E94C015F5011F
:103A10000081F01AF10E0D5FC60160E04F2D24E524
:103A20000E94F917C95ADF4F84E08993F50180811C
:103A3000181B115D1883AB9669917991C6010E949C
:103A40002A2A888181508883DF91CF911F910F911D
:103A5000FF90EF90DF90CF90BF90AF900895AF921E
:103A6000BF92CF92DF92EF92FF920F931F93CF936B
:103A7000DF93EC01EFE7AE2EB12CA80EB91EF501D5
:103A8000E080F180028113810E940B28E61AF70A78
:103A9000080B190B7EE7C72ED12CCC0EDD1EF601CC
:103AA000808190E0A0E0B0E08E159F05A007B107EF
:103AB00008F081C08E0106581F4FF8018081918166
:103AC000A281B3810097A105B10509F474C00E94D9
:103AD0000B28F6012081620F711D811D911DF501DA
:103AE0006083718382839383FE01E059FF4F80815D
:103AF0009181A281B3810196A11DB11D8083918323
:103B0000A283B383F80110821182128213820E9471
:103B10001928CA58DF4F688379838A839B83C657E5
:103B2000D040CE010E944F14CE010A960E94351556
:103B3000CE0148960E94C11481E032C08E010B5D17
:103B40001F4FC8010E940622C8010E947D22C801A1
:103B50000E946023CE010E94C71CCE010E94471C18
:103B60008E01025B1F4FC8010E94481ACC5ADF4FDA
:103B70008881C455D040882319F4C8010E94881A4E
:103B80000E941928C658DF4F688379838A839B83F4
:103B9000249728813981621B730B7A936A9380E0A2
:103BA000DF91CF911F910F91FF90EF90DF90CF9019
:103BB000BF90AF900895C658DF4F88819981AA8140
:103BC000BB81CA57D0400097A105B10541F7B6CFD8
:103BD0002F923F924F925F926F927F928F929F921D
:103BE000AF92BF92CF92DF92EF92FF920F931F930B
:103BF000DF93CF93CDB7DEB762970FB6F894DEBFF1
:103C00000FBECDBF6C016C837D834B8324E530E018
:103C1000C20ED31EF60110822CEA3FEFC20ED31E55
:103C20001AE0A12EB12CAC0CBD1CB5E22B2E312C10
:103C30002C0C3D1CAEE44A2E512C4C0C5D1C1A82FF
:103C40003FEF398310E0F0E37F2E6624A601495A46
:103C50005F4F5F834E83C601885A9F4F998788873D
:103C6000F601EA5AFF4FFB87EA8796012B5A3F4F2E
:103C70003D872C87E3E58E2E912C8C0C9D1C5B815F
:103C8000452F50E05F874E878B818150888BC6011E
:103C90000E942F1D8823D9F3C50164E00E940D15F1
:103CA000882369F4C50165E00E940D15882339F465
:103CB000C50166E00E940D15882309F4D3C0F40104
:103CC0000081C50164E00E940D15882329F0C1011F
:103CD0000E94BD231983CBC0C1010E94C323C7C06A
:103CE000C50163E044E00E941715882321F01F5F9F
:103CF000C1010E94C923C50161E044E00E9417157B
:103D0000882321F01150C1010E94C923812F9927D6
:103D100087FD90952E853F858217930711F410E05B
:103D200002C017FD1889F4018081819F902D112414
:103D30008C5F682E691A28C0872D992787FD90957A
:103D4000262D332727FD3095821B930B0297D4F441
:103D5000898162960FB6F894DEBF0FBECDBFCF91BA
:103D6000DF911F910F91FF90EF90DF90CF90BF9068
:103D7000AF909F908F907F906F905F904F903F900B
:103D80002F900895F1E0FA83862D992787FD90956D
:103D9000272D332727FD3095820F931F62E070E0B7
:103DA0000E940E2D762EEE81FF811082E885F98526
:103DB000608321E0EA85FB852083EC85FD85108208
:103DC0002C813D81C9019A8B898B00E0E12EFF2473
:103DD000E7FCF09420C0802F90E08E159F0569F4D9
:103DE00023E0EE81FF812083F40180818E9D802D70
:103DF0001124870DE885F9858083E989FA89659121
:103E00007491C2010E94752A0F5F29893A892E5F39
:103E10003F4F3A8B298B3B810317E8F2C20160E0E8
:103E20000E94C015F40140814E9D402D1124415047
:103E3000470DC20160E024E50E944516C20161E021
:103E40000E94C015F40100810E9D402D11244250A6
:103E5000470D0D5FC20160E024E573E0E72E0E948C
:103E6000F91715CFFA81FF2309F066CF39CF802FDC
:103E700090E0909581959F4F2E853F85AC01249FC2
:103E8000C001259F900D349F900D11246EEF662E7A
:103E9000680E52CF2F923F924F925F926F927F9215
:103EA0008F929F92AF92BF92CF92DF92EF92FF924A
:103EB0000F931F93DF93CF93CDB7DEB72B970FB63A
:103EC000F894DEBF0FBECDBF9B878A877A83698354
:103ED0005C834B838C0101591F4FF801808188233B
:103EE00009F422C18A859B858A5A9F4F9B878A87BE
:103EF00081E0EA85FB85808312921292E455F040BE
:103F0000FB87EA87108E9EE4E92EF12CEE0EFF1E51
:103F1000C70161E00E94C0158AE0282E312C8A85F5
:103F20009B85280E391EB5E26B2E712C680E791E0A
:103F3000E981FA81F491FD83A7E58A2E912C880E00
:103F4000991EF8E5CF2ED12CC80ED91EE2E54E2ED3
:103F5000512C480E591E8D5A9F4F9F838E8370E7B8
:103F6000A72EB12C8A859B85A80EB91E19870887B4
:103F70008A859B850E942F1D8823D1F39D819923DB
:103F800011F410E003C0EE81FF811081C70160E0F1
:103F900040E02BE53CE00E9492188B819C81892BAC
:103FA00041F0145FC70160E0412F2B813C810E94EA
:103FB0009218F40110828CE0F6018083C7016981B8
:103FC0007A810E942A2AF201208130E0C901880FFB
:103FD000991F820F931F909581959F4F8D5AF401E1
:103FE0008083EE81FF81208130E0C901880F991F15
:103FF000820F931F909581959F4F835DF60180837B
:10400000F501808184FF04C0C7016BED7CE003C033
:10401000C70167ED7CE00E94752AF201208130E043
:10402000C901880F991F820F931F909581959F4F0B
:104030008D5AF4018083F60180818F5F8083EA8549
:10404000FB8582A5882321F0C70163ED7CE003C0D6
:10405000C7016FEC7CE00E94752AF201808190E03C
:104060009C01220F331F280F391F309521953F4F98
:104070002D5AF4012083F60180818F5F8083C70170
:104080006BEC7CE00E94752AC10165E00E940D1571
:10409000882351F0EA85FB8562A56F5FC3010E940A
:1040A000CF23C3010E94C923C10164E00E940D1502
:1040B000882399F4E885F9856081262F30E040E077
:1040C00050E0F50180819181A281B381821793072D
:1040D000A407B50708F16F3FF9F08A859B858159E0
:1040E0009F4F9B878A878FEFEA85FB858083EF56FA
:1040F000F040FB87EA87C30160E00E94AD21C30165
:104100000E94BD2381E0EA85FB85808F0DC08A85F2
:104110009B850E94021C2CCFC10166E00E940D15F8
:10412000882309F425CFF3CF2B960FB6F894DEBF82
:104130000FBECDBFCF91DF911F910F91FF90EF90F8
:10414000DF90CF90BF90AF909F908F907F906F90B7
:104150005F904F903F902F900895AB0160EE7CE010
:104160000E944A1F0895AF92BF92CF92DF92EF92C2
:104170000F93CF93DF936C018EE790E0C80ED91EAA
:1041800082E3F601808381E090E0A0E0B0E0B293AA
:10419000A293929382936F0185EF9FEFC80ED91E71
:1041A0008FEFF601808381E99FEFC80ED91EC6010B
:1041B0000E946A1BC6010E944614C6016FEF0E944E
:1041C0004A144AE0A42EB12CAC0CBD1CC5010E94BF
:1041D000FD14C5010E943515C60148960E94B7140A
:1041E000C601825B9F4F6DE04BE020E10FE03EE0B7
:1041F000E32E0E949D1AE601A596CE010E94DC23C3
:10420000C50165E00E940D15882329F0CE0160E00C
:104210000E94CF2306C0CE0161EE7CE040E00E9408
:10422000BC21DF91CF910F91EF90DF90CF90BF90A5
:10423000AF9008950F93DC01002309F069C062304C
:1042400009F443C0633030F4662359F0613009F05B
:104250005FC00DC0633009F444C0643009F058C039
:104260004CC04B3008F04AE056964C9351C0842F16
:1042700090E0880F991F1F962D913C915097280F21
:10428000391FF9018591949190969C938E935F9735
:10429000FC014591549114968C911497849F602D44
:1042A000112491966C939197252F3327862F90E0B8
:1042B0002817390708F4652F14968C911497689F76
:1042C000802D112492968C9323C014968C91149770
:1042D000489F802D112459968C9359975A962C9368
:1042E00017C014968C911497489F802D11245B96CB
:1042F0008C935B975C962C930BC014968C911497BF
:10430000489F802D11245D968C935D975E962C932B
:104310000F910895FC01222371F4648B8481489FDE
:10432000802D1124858B15A214A213A281E0878B06
:1043300080933605108E0895FC01662369F4178A70
:10434000158A14A213A2108E109239051092380506
:10435000109236051092B4000895CF93DF93EC01CC
:10436000662319F40E949C211982DF91CF91089550
:1043700060E00E94AD2108950F931F93CF93DF93C8
:10438000EC018B01442371F460E00E94AD211E8793
:104390000D871B8A1A8A81E0898389E08E8B198EAA
:1043A0001B8E1D8EDF91CF911F910F910895CF939A
:1043B000DF93EC01662339F58881882321F1898117
:1043C000882309F5898590E0880F991FEF81F8858A
:1043D000E80FF91F859194912FEF8F3F920711F409
:1043E000188211C09C8790E0880F991FEA85FB8591
:1043F000E80FF91F65917491CE0140E00E94BC2145
:1044000089858F5F8987DF91CF91089560E00E9451
:10441000D72108950F93CF93DF93EC01662309F022
:1044200068C08981882309F464C08D89882309F0D4
:1044300060C0EA89FB89EE0FFF1F4D855E85E40FA2
:10444000F51F259134912115310509F040C0898966
:10445000813031F41B8A1A8AFA012591349137C0D0
:1044600019828881882379F0CE0160E00E94D721EB
:104470008A899B89880F991FED85FE85E80FF91FB2
:104480002591349124C0CE0160E00E949C2131C06E
:10449000E6E036952795EA95E1F76F70422F4F7168
:1044A00075E0369527957A95E1F72051CE0100E029
:1044B0000E941A218A899B8901969B8B8A8B880F7F
:1044C000991FED85FE85E80FF91F25913491B901FB
:1044D000769567957695679520FDDACF6F73432FB4
:1044E000CE0120E00E948A218A899B8901969B8BBC
:1044F0008A8BDF91CF910F91089560E00E940A228C
:104500000895CF93DF93EC01662309F0D6C08F891D
:10451000882309F4D2C08D89882321F4CE010E941A
:104520009C21CBC081508D8B8DA1882309F03BC08D
:104530008BA19CA10196880F991FEF8DF8A1E80F20
:10454000F91F85919491282F27702EA3AC0163E069
:10455000569547956A95E1F79A0136952795892FE3
:104560009927869586958FA32F738C81289F202D60
:1045700011242DA3417040933A058BA19CA1019673
:104580009CA38BA329A130E08217930760F08AA136
:10459000882329F0281B31093CA32BA304C0CE019A
:1045A00060E00E949C218DA181508DA3988D9F5F1A
:1045B000988F2FA18C89280F8C85280F2A836B8DCB
:1045C000662369F0892F992787FD909570E00E94F6
:1045D0000E2D8C8D869F802D1124820F8A838A81D7
:1045E00090E0CB966BE370E00E940E2D8A832E89BB
:1045F0002B83698D662379F0888D772767FD709509
:10460000992787FD90950E940E2D8A8D869F802D7B
:104610001124820F8B836D8D662399F0888D9927E5
:1046200087FD909570E00E940E2DCB0162E070E056
:104630000E940E2D9E8D899F802D11249B81890FB4
:104640008B838B818A300CF089E087FD80E08B833F
:104650008C898F3309F41B82F894EA81F0E0EB5FD8
:10466000F24FE491E09337052D8130E08B8199275B
:1046700087FD9095A901489F9001499F300D589F53
:10468000300D112488A590E0A901489F9001499F11
:10469000300D589F300D11248EA1992787FD9095DC
:1046A000AC01249FC001259F900D349F900D1124D3
:1046B00080933805809339057894DF91CF910895E0
:1046C00060E00E948122089560913805662381F19F
:1046D000809135058F5F8093350590913705891757
:1046E00038F130E080913605882309F431E03093C9
:1046F00036051092350580913A058823A9F08091FE
:10470000080223E4829FC0011124895B8093080280
:1047100090E070E00E94FA2C8093390505C08091EA
:1047200039058093B40008953323C9F780E0F9CFA9
:1047300008951F920F920FB60F9211242F933F935B
:104740004F935F936F937F938F939F93AF93BF9399
:10475000EF93FF930E946423FF91EF91BF91AF917C
:104760009F918F917F916F915F914F913F912F9189
:104770000F900FBE0F901F9018956DEF7CE040E0FA
:104780000E94BC21089565EF7CE040E00E94BC21BE
:1047900008956FEE7CE040E00E94BC210895FC018A
:1047A000862F668170E06F5F7F4F992787FD909518
:1047B0000E940E2D858308950F93FC0181E0848370
:1047C00084E080A780E49DE0908B8787CF0161E043
:1047D00040E020E000E00E941A2183E061E070E008
:1047E0000E94C228E1EBF0E08081887F81608083B5
:1047F000F89410928000E1E8F0E0108210928500B9
:104800001092840088E191E0909389008093880061
:10481000808188608083808181608083EFE6F0E022
:1048200080818260808378940F91089581E08093E5
:10483000800560935D0510927E0510927F050895B6
:1048400020915C0530E080915B05281B3109C9018E
:10485000089540915B0580915C05481718F02FEF93
:104860003FEF0AC0E42FF0E0E55CFA4F8081282F8B
:1048700030E04F5F40935B05C9010895E0915B050F
:1048800080915C05E81718F0EFEFFFEF06C0F0E04D
:10489000E55CFA4F8081E82FF0E0CF01089508959C
:1048A000AC01209183053091840521153105E1F09B
:1048B00090915B0580915C059817B0F090E008C07E
:1048C000FA01EA0FFB1F8081A55CBA4F8C939F5FB2
:1048D000A92FB0E0A617B7079CF310925B05609371
:1048E0005C05CB01F90109950895E0918105F091EE
:1048F0008205309729F010927E0510927F05099568
:1049000008957093840560938305089570938205DC
:10491000609381050895109288051092870588EEAE
:1049200093E0A0E0B0E08093890590938A05A0937E
:104930008B05B0938C0586E192E090938605809379
:1049400085050895CF92DF92EF92FF920F931F9308
:10495000CF93DF937C016B018A01809180058823CE
:10496000A1F0C0E0D0E00DC0D701ED91FC91D601DF
:10497000AC0FBD1F0190F081E02DC7016C9109952E
:104980002196C017D10780F304C0CB01642F0E9489
:10499000EF25C801DF91CF911F910F91FF90EF900C
:1049A000DF90CF900895DF93CF930F92CDB7DEB70E
:1049B000FC016983809180058823C9F080917F057F
:1049C000803238F081E090E09383828320E030E011
:1049D00015C080917E05E82FF0E0E25AFA4F9981E8
:1049E00090838F5F80937E0580937F0505C0CE0105
:1049F000019661E00E94EF2521E030E0C9010F90AF
:104A0000CF91DF9108950F93062F80915D056EE59C
:104A100075E040917F0521E00E949A2510927E0565
:104A200010927F05109280050F91089561E00E9419
:104A300003250895413208F040E2862F6BE375E0CC
:104A40000E94512510925B0580935C05089521E03A
:104A50000E941A25089510925B0510925C05109231
:104A60007E0510927F050E94A52708950F931F933E
:104A70008C01862F0E944D2585E794E20E940F2627
:104A800080E594E20E940A26C8010E942B251F910E
:104A90000F9108950E9436250895880F8093BA00DB
:104AA0000895382F413210F040E042C080919105C6
:104AB0008823E1F791E090939105209393058FEF80
:104AC0008093FE051092B90541504093BA054F5F9F
:104AD0009093920580919205330F832B80939205DA
:104AE00080919405813041F4109294058091920553
:104AF0008093BB0085EC01C085EE8093BC00809163
:104B000091058130E1F38091B905841710F440914B
:104B1000B90520E030E00AC0FB01E20FF31FD90124
:104B2000A756BA4F8C9180832F5F3F4F2417A0F375
:104B3000842F08950F931F93582F122F413210F096
:104B400081E04AC0809191058823E1F782E080935B
:104B50009105009393058FEF8093FE051092B905A0
:104B60004093BA05A9E9B5E0FB0102C081918D939C
:104B70008E2F861B8417D0F3109292058091920598
:104B8000550F852B8093920580919405813041F4D7
:104B900010929405809192058093BB0085EC01C032
:104BA00085EE8093BC00112321F080919105823025
:104BB000E1F38091FE058F3F11F480E00DC08091FC
:104BC000FE05803211F482E007C08091FE0580333B
:104BD00011F084E001C083E01F910F910895482FE8
:104BE000613210F081E0089580919105843011F0D8
:104BF00082E008956093DC05ABEBB5E0842F9C0167
:104C0000F90102C081918D938E2F841B8617D0F3FA
:104C100080E0089590939805809397050895909368
:104C200096058093950508951F920F920FB60F92E7
:104C300011242F933F934F935F936F937F938F93A1
:104C40009F93AF93BF93EF93FF938091B90090E050
:104C5000887F90708036910509F4F2C08136910505
:104C6000CCF58832910509F47BC089329105B4F402
:104C70008031910509F46FC0813191053CF40097B2
:104C800009F447C1089709F04FC165C08831910503
:104C900009F466C0809709F047C182C0803491054D
:104CA00009F4A4C08134910544F48033910509F4DA
:104CB00082C0C89709F038C189C08035910509F4D0
:104CC00089C08835910509F496C08834910509F0AA
:104CD0002BC1AEC08839910509F413C189399105FA
:104CE000ECF48837910509F4ABC0893791054CF491
:104CF0008836910509F4A4C08037910509F014C1E4
:104D00009FC08838910509F4FCC08039910509F4E9
:104D10009DC08038910509F007C198C0803B91057E
:104D200009F4C6C0813B91054CF4803A910509F421
:104D30009FC0883A910509F0F7C0BAC0803C910540
:104D400009F4E3C0883C910509F4DFC0883B910574
:104D500009F0EAC0C2C0809192058093BB00CFC029
:104D60009091B9058091BA05981768F49091B905AA
:104D7000E92FF0E0E756FA4F80818093BB009F5FF8
:104D80009093B905BCC080919305882309F44BC06A
:104D900085ED8093BC008091BC0084FDFCCFC2C037
:104DA00080E28093FE0585ED8093BC008091BC007D
:104DB00084FDFCCFB7C080E38093FE0585ED809332
:104DC000BC008091BC0084FDFCCFACC088E3809324
:104DD000FE059BC08091B9059091BB00E82FF0E0E3
:104DE000E756FA4F90838F5F8093B9059091B9058C
:104DF0008091BA0582C08091B9059091BB00E82FDF
:104E0000F0E0E756FA4F90838F5F8093B905809169
:104E10009305882341F085ED8093BC008091BC0010
:104E200084FDFCCF7FC081E08093940584EA6EC04E
:104E300085ED8093BC008091BC0084FDFCCF72C0E6
:104E400083E0809391051092FD0559C08091FD0586
:104E5000803208F056C08091FD059091BB00E82F8C
:104E6000F0E0E352FA4F90838F5F8093FD0547C0D7
:104E70008091FD05803230F4E091FD05F0E0E352D1
:104E8000FA4F108285ED8093BC008091BC0084FDB8
:104E9000FCCF109291056091FD05E0919705F0918E
:104EA00098058DED95E070E009951092FD052DC0F7
:104EB00084E0809391051092DB051092DC05E0916F
:104EC0009505F091960509958091DC05882329F4D4
:104ED00081E08093DC051092BB059091DB05E92F02
:104EE000F0E0E554FA4F80818093BB009F5F909380
:104EF000DB059091DB058091DC05981710F485ECBB
:104F000001C085E88093BC000FC085EC8093BC0095
:104F100009C01092FE0585ED8093BC008091BC0015
:104F200084FDFCCF10929105FF91EF91BF91AF915D
:104F30009F918F917F916F915F914F913F912F91B1
:104F40000F900FBE0F901F9018951092910581E061
:104F5000809393051092940582E161E00E948E296E
:104F600083E161E00E948E29E9EBF0E080818E7F91
:104F7000808380818D7F808388E48093B80085E47E
:104F80008093BC0008951F920F920FB60F921124C8
:104F90002F933F938F939F93AF93BF93809103067B
:104FA00090910406A0910506B0910606309107067F
:104FB0000196A11DB11D232F2D5F2D3720F02D57F8
:104FC0000196A11DB11D20930706809303069093BF
:104FD0000406A0930506B09306068091FF05909104
:104FE0000006A0910106B09102060196A11DB11D17
:104FF0008093FF0590930006A0930106B0930206EC
:10500000BF91AF919F918F913F912F910F900FBEC4
:105010000F901F9018958FB7F89420910306309148
:10502000040640910506509106068FBFB901CA01DA
:1050300008959FB7F8942091FF05309100064091A4
:1050400001065091020686B5A89B06C08F3F21F04D
:105050002F5F3F4F4F4F5F4F9FBF542F432F322F34
:105060002227280F311D411D511D82E0220F331FC1
:10507000441F551F8A95D1F7B901CA010895EF92CF
:10508000FF920F931F93CF93DF937B018C010E94BC
:105090001928EB010EC00E9419286C1B7D0B685E5D
:1050A0007340C8F30894E108F10801091109C851D7
:1050B000DC4FE114F1040105110569F7DF91CF918F
:1050C0001F910F91FF90EF900895789484B58260BE
:1050D00084BD84B5816084BD85B5826085BD85B59C
:1050E000816085BDEEE6F0E0808181608083E1E84B
:1050F000F0E0108280818260808380818160808383
:10510000E0E8F0E0808181608083E1EBF0E0808185
:1051100084608083E0EBF0E0808181608083EAE757
:10512000F0E08081846080838081826080838081E0
:10513000816080838081806880831092C10008959F
:10514000982F8E3008F09E509770809109028295BA
:10515000880F880F807C892B80937C0080917A0057
:10516000806480937A0080917A0086FDFCCF209144
:10517000780040917900942F80E030E0282B392B83
:10518000C90108951F93CF93DF93182FEB0161E0BE
:105190000E942229209709F44AC0CF3FD10509F483
:1051A00049C0E12FF0E0EE56F24F84918330C1F018
:1051B000843028F4813051F08230B1F50CC0863053
:1051C00019F1873049F1843079F514C084B58068CD
:1051D00084BDC7BD33C084B5806284BDC8BD2EC048
:1051E00080918000806880938000D0938900C09374
:1051F000880024C080918000806280938000D093DA
:105200008B00C0938A001AC08091B00080688093A0
:10521000B000C093B30012C08091B0008062809350
:10522000B000C093B4000AC0C038D1051CF4812F6F
:1052300060E002C0812F61E00E948E29DF91CF9152
:105240001F910895CF93DF93482F50E0CA018258F1
:10525000924FFC0134914659524FFA0184918823B0
:1052600069F190E0880F991FFC01E45BF24FA59172
:10527000B491FC01EA5AF24FC591D491662351F4DE
:105280002FB7F8948C91932F909589238C938881D4
:1052900089230BC0623061F42FB7F8948C91932F5F
:1052A000909589238C938881832B88832FBF06C098
:1052B0009FB7F8948C91832B8C939FBFDF91CF91F4
:1052C0000895833071F0843028F48130A1F0823069
:1052D00021F514C08630B1F08730D1F08430E9F484
:1052E00004C0809180008F7703C0809180008F7D03
:1052F00080938000089584B58F7702C084B58F7D38
:1053000084BD08958091B0008F778093B000089598
:105310008091B0008F7D8093B0000895FF920F932D
:105320001F93F62E482F50E0CA018E56924FFC0173
:105330002491CA018258924FFC0114914659524F50
:10534000FA0104910023C9F0222319F0822F0E9450
:105350006129E02FF0E0EE0FFF1FEA5AF24FA5910E
:10536000B4919FB7F894FF2021F48C91109581237C
:1053700002C08C91812B8C939FBF1F910F91FF9046
:1053800008950F931F93482F50E0CA018E56924FF5
:10539000FC012491CA018258924FFC0104914659A4
:1053A000524FFA011491112319F420E030E015C096
:1053B000222319F0822F0E946129812F90E0880F0B
:1053C000991F805A924FFC01A591B4918C9120E0D5
:1053D00030E0802311F021E030E0C9011F910F91EE
:1053E0000895CF93DF930E9465280E94DD11C0E0ED
:1053F000D0E00E942D132097E1F30E940000F9CF26
:10540000CF92DF92EF92FF920F931F93CF93DF9390
:105410007C016B018A01C0E0D0E00FC0D6016D9124
:105420006D01D701ED91FC910190F081E02DC70154
:105430000995C80FD91F015010400115110571F7CA
:10544000CE01DF91CF911F910F91FF90EF90DF90F0
:10545000CF900895EF92FF920F931F93CF93DF9316
:105460007C018B01C0E0D0E0F8010F5F1F4F649119
:10547000662359F0D701ED91FC910190F081E02D68
:10548000C7010995C80FD91FEFCFCE01DF91CF918A
:105490001F910F91FF90EF900895DC01ED91FC9129
:1054A0000190F081E02D09950895EF92FF920F93FE
:1054B0001F938C01DC01ED91FC910190F081E02DB6
:1054C0006DE009957C01D801ED91FC910190F0818E
:1054D000E02DC8016AE009959C012E0D3F1DC90110
:1054E0001F910F91FF90EF900895EF92FF920F930D
:1054F0001F937C010E942A2A8C01C7010E94552A11
:105500009C01200F311FC9011F910F91FF90EF9057
:105510000895CF93DF93EC016115710519F420E034
:1055200030E00FC0DB010D900020E9F71197A61BBA
:10553000B70BE881F9810280F381E02DAD01099577
:105540009C01C901DF91CF9108954F925F927F92A4
:105550008F929F92AF92BF92CF92DF92EF92FF9283
:105560000F931F93DF93CF93CDB7DEB7A1970FB6FD
:10557000F894DEBF0FBECDBF2C01742ECB012230BC
:1055800008F42AE019A231E2C32ED12CCC0EDD1E84
:10559000822E9924AA24BB24672D752FA50194017E
:1055A0000E94212D79018A01C801B701A50194014A
:1055B0000E94CF2C472D461B0894C108D1084A30C1
:1055C00014F4405D01C0495CF6014083E114F1042C
:1055D0000105110521F07E2C5F2DC801DDCFC20130
:1055E000B6010E94892AA1960FB6F894DEBF0FBEBD
:1055F000CDBFCF91DF911F910F91FF90EF90DF9082
:10560000CF90BF90AF909F908F907F905F904F9082
:105610000895DC012115310541F4ED91FC910190D3
:10562000F081E02D642F099508950E94A52A089520
:10563000EF92FF920F931F939A017B0100E010E01D
:10564000B801A7010E94092B1F910F91FF90EF90C5
:1056500008952F923F924F925F926F927F928F9216
:105660009F92AF92BF92CF92DF92EF92FF920F93F1
:105670001F93DF93CF93CDB7DEB73B014C011901E8
:105680002A016D897E898F89988D6A197B098C0919
:105690009D09621A730A840A950AA40193010E9463
:1056A000CF2CE218F30804091509A80197010E94FC
:1056B000432D2A0D3B1D4C1D5D1DB901CA01CF9123
:1056C000DF911F910F91FF90EF90DF90CF90BF90EF
:1056D000AF909F908F907F906F905F904F903F9092
:1056E0002F900895EF92FF920F931F937B018C01EF
:1056F000611571058105910529F420E030E040E055
:1057000050E00BC00E94B72DA80197010E94432DC5
:10571000AC01CB01DA019C01AD01B901CA011F91B5
:105720000F91FF90EF900895EF92FF920F931F93C8
:105730007B018C01621773078407950764F4261BAD
:10574000370B480B590BCA01B9010E94722BE60EA8
:10575000F71E081F191FB701C8011F910F91FF9075
:10576000EF90089598D088F09F5790F0B92F99271F
:10577000B751A0F0D1F0660F771F881F991F1AF05C
:10578000BA95C9F712C0B13081F09FD0B1E0089549
:105790009CC0672F782F8827B85F39F0B93FCCF3CA
:1057A000869577956795B395D9F73EF49095809552
:1057B000709561957F4F8F4F9F4F0895E89409C072
:1057C00097FB3EF490958095709561957F4F8F4F34
:1057D0009F4F9923A9F0F92F96E9BB279395F6954A
:1057E000879577956795B795F111F8CFFAF4BB0FC8
:1057F00011F460FF1BC06F5F7F4F8F4F9F4F16C02C
:10580000882311F096E911C0772321F09EE8872FB5
:10581000762F05C0662371F096E8862F70E060E071
:105820002AF09A95660F771F881FDAF7880F9695EA
:10583000879597F9089597F99F6780E870E060E091
:1058400008959FEF80EC089500240A941616170619
:1058500018060906089500240A9412161306140661
:1058600005060895092E0394000C11F4882352F0C4
:10587000BB0F40F4BF2B11F460FF04C06F5F7F4F7C
:105880008F4F9F4F089557FD9058440F551F59F063
:105890005F3F71F04795880F97FB991F61F09F3F1D
:1058A00079F087950895121613061406551FF2CF46
:1058B0004695F1DF08C0161617061806991FF1CF96
:1058C00086957105610508940895E894BB276627BD
:1058D0007727CB0197F908950BD0C4CFB5DF28F017
:1058E000BADF18F0952309F0A6CFABCF1124EECF85
:1058F000CADFA0F3959FD1F3950F50E0551F629F2B
:10590000F001729FBB27F00DB11D639FAA27F00D18
:10591000B11DAA1F649F6627B00DA11D661F829F3F
:105920002227B00DA11D621F739FB00DA11D621F24
:10593000839FA00D611D221F749F3327A00D611D41
:10594000231F849F600D211D822F762F6A2F112423
:105950009F5750408AF0E1F088234AF0EE0FFF1F76
:10596000BB1F661F771F881F91505040A9F79E3FAD
:10597000510570F060CFAACF5F3FECF3983EDCF3A7
:10598000869577956795B795F795E7959F5FC1F7EA
:10599000FE2B880F911D9695879597F90895629F24
:1059A000D001739FF001829FE00DF11D649FE00D17
:1059B000F11D929FF00D839FF00D749FF00D659F78
:1059C000F00D9927729FB00DE11DF91F639FB00D77
:1059D000E11DF91FBD01CF0111240895991B79E044
:1059E00004C0991F961708F0961B881F7A95C9F76F
:1059F00080950895AA1BBB1B51E107C0AA1FBB1FBE
:105A0000A617B70710F0A61BB70B881F991F5A954A
:105A1000A9F780959095BC01CD01089597FB092EBB
:105A200007260AD077FD04D0E5DF06D000201AF45F
:105A3000709561957F4F0895F6F7909581959F4FEA
:105A40000895A1E21A2EAA1BBB1BFD010DC0AA1FBF
:105A5000BB1FEE1FFF1FA217B307E407F50720F0D7
:105A6000A21BB30BE40BF50B661F771F881F991F52
:105A70001A9469F760957095809590959B01AC019B
:105A8000BD01CF01089597FB092E05260ED057FDC5
:105A900004D0D7DF0AD0001C38F4509540953095DB
:105AA00021953F4F4F4F5F4F0895F6F790958095A2
:105AB000709561957F4F8F4F9F4F0895EE0FFF1F99
:105AC0000590F491E02D0994A0E0B0E0EAE6FDE253
:105AD0000C94CD2DEC01A880B980CA80DB80A11484
