:100000000C940C020C9434020C9434020C943402C0
:100010000C9434020C9434020C9434020C94340288
:100020000C9434020C9434020C9434020C94791322
:100030000C9434020C9434020C9434020C94340268
:100040000C94F0130C9434020C9434020C9434028B
:100050000C9434020C9434020C9434020C94340248
:100060000C9434020C94340220000F0020000F0086
:100070000F0053756E0047656E00506F7000436F40
:100080006E77617927732067616D65206F66206CDC
:1000900069666500436F6E77617927732067616DCC
:1000A00065206F66206C6966650003053F213F127D
:1000B00008120A100A0E1C0E0C1E0C141A14161F1D
:1000C000161E131E1E1B1E1E1F1E3F213F3A2F3AD7
:1000D000173D173F213F181F02040A041F0E040496
:1000E0000E1F0A1F0A0E0E1F04110E2E252E2F2A78
:1000F0002E262929021F02081F08150E04040E15BA
:100100000E15151B151B040604040C04000000004A
:1001100017000300031F0A1F16371A1904130A15C4
:100120003A000300000E11110E000A040A040E0426
:100130000030000404040010001804031F111F12F3
:100140001F101D151711151F07041F17151D1F154B
:100150001D01011F1F151F17151F000A0000320087
:10016000040A110A0A0A110A040115020E11171EC7
:10017000051E1F150A0E110A1F110E1F15111F054E
:10018000010E111D1F041F111F1108100F1F041B4A
:100190001F10101F061F1E040F0E110E1F09060E42
:1001A000112E1F051A121509011F011F101F0F180C
:1001B0000F1F0C1F1B041B031C03191513001F1119
:1001C000030418111F000201022020200001020C6C
:1001D000121E1F120C0C12120C121F0C1A14041EE9
:1001E00005242A1E1F021C141D1020201D1F081488
:1001F000111F101E041E1E021C0C120C3E0A040CC1
:10020000123E1E040214160A020F120E101E0E10C9
:100210000E1E081E120C1226281E322A26041E212B
:10022000001F00211E040102013F213F0A4E6F20E2
:1002300053442063617264206F720A6E6F204C4FCA
:10024000414445522E4845580A0A153A4578697482
:10025000001D20466C617368696E670A20206C6F10
:10026000616465722E2E2E0A0A444F4E2754205484
:1002700055524E204F464621006D560A0A504C45B5
:100280004153450A5455524E204F4646004C4F5755
:1002900020424154544552590A0017736176650053
:1002A000166261636B001574797065000A0A0A159D
:1002B0003A6F6B617920163A6564697400596F75FD
:1002C00020656E74657265640A00540A03E18186D4
:1002D0007F3E186D830F0F0E0183866033186DC348
:1002E000198F1803C38E6033186DE330CF1803C322
:1002F0009E603630CDE360CF3006C79E7E3E30CD67
:10030000B360CF300CC6F6603330D9B660CF33CF90
:10031000CCF66061B0DB1E60CF30D86CE6C061B057
:10032000DB1E618F19986CC6C063B19B0E330F0F33
:10033000B078C6FF7E1F1B061E0F1753440016130E
:10034000780016131400151020001520100000006E
:100350000500893008023802497868140000450019
:10036000680100000500680138010000050038013F
:1003700068010000F6E8DBCFC3B8AEA49B928A8286
:100380007B746E68625C57524E4945413E3A373441
:10039000312E2C29272523211F1D1C1A191716154C
:1003A00014131211100F0E0D0C0B0A09080706B3D7
:1003B00003B7030101F7030101FF0300000000245C
:1003C0000027002A0000000000250028002B000064
:1003D000000000230026002900040404040404048F
:1003E00004020202020202030303030303010204E4
:1003F00008102040800102040810200102040810A7
:1004000020000000070002010000030406000000B5
:10041000000000000000F90211241FBECFEFD8E059
:10042000DEBFCDBF11E0A0E0B1E0E4E3F4E302C041
:1004300005900D92A432B107D9F714E0A4E2B1E01F
:1004400001C01D92A13CB107E1F714E0C8E1D4E07E
:1004500004C02297FE010E947C19C631D107C9F75A
:100460000E941E160C94181A0C940000742F643508
:1004700030F547FD24C0403314F5842F85958595CC
:100480008595992787FD9095462F552747FD5095CF
:1004900024E530E0829FF001839FF00D929FF00DE4
:1004A0001124E40FF51FEE54FD4F808190E077702A
:1004B00002C0959587957A95E2F78170089580E05E
:1004C00008950F931F93FC01062F142F643508F035
:1004D0003FC047FD3DC04033DCF5978D923039F485
:1004E000CF010E94360290E0882309F491E0812F29
:1004F000859585958595602F772767FD7095412FA8
:100500004770992399F4E4E58E02F0011124E60F77
:10051000F71FEE54FD4F81E090E002C0880F991F55
:100520004A95E2F780952081282311C0E4E58E02E8
:10053000F0011124E60FF71FEE54FD4F81E090E02B
:1005400002C0880F991F4A95E2F72081282B20834B
:100550001F910F910895E62FE695E695E69590E0B8
:1005600070E04423B1F0F0E036E0EE0FFF1F3A9563
:10057000E1F7E80FF91FE655FE4F6770707081E0F4
:1005800090E002C0880F991F6A95E2F72081282B1E
:1005900016C0F0E026E0EE0FFF1F2A95E1F7E80F06
:1005A000F91FE655FE4F6770707081E090E002C061
:1005B000880F991F6A95E2F7809520812823208370
:1005C0000895E62FE695E695E695F0E046E0EE0F15
:1005D000FF1F4A95E1F7E80FF11DE655FE4F8081B8
:1005E00090E0677002C0959587956A95E2F78170F3
:1005F0000895109275011092740180E291E0909339
:100600007301809372010895FF920F931F931092CC
:100610003C0181E0809378011092AB021092AA0213
:100620001092B0021092AF021092B10282E791E0F4
:100630000E94880B82E791E060E040E022E402E261
:100640000E94AB0710E02AC00E94D319637070703B
:10065000807090706115710581059105A9F4812F55
:10066000602F41E00E94AB02402F4F5F82E791E094
:100670006F2D0E9461028091AA029091AB020196B7
:100680009093AB028093AA020F5F0032E9F682E7F3
:1006900091E00E94480B1F5F103421F000E0F12E22
:1006A000F394D2CF1F910F91FF9008959F92AF9234
:1006B000BF92CF92DF92EF92FF920F931F93CF934F
:1006C000DF9384E291E00E94720E882309F425C230
:1006D0008EE291E066E00E94AA06882341F084E25F
:1006E00091E06EE770E00E948E100E9404038091FA
:1006F000AF029091B00201969093B0028093AF0246
:1007000021E0E22EF12C9EC09E012150D22E6E9649
:10071000BE016F7170706E97062F892D0E94E102E5
:10072000811181E0182F8B2D602F0E94E102811131
:100730001F5F8C2D602F0E94E10281111F5F8C2DA5
:100740006D2D0E94E10281111F5FBE016F717070FB
:10075000062F8C2D0E94E10281111F5F8B2D602FCF
:100760000E94E10281111F5F8A2D602F0E94E10229
:1007700081111F5F8A2D6D2D0E94E10281111F5F83
:100780008B2D6D2D0E94E1028823D9F0125012307A
:1007900008F44AC082E791E060E00E94DC0682E74C
:1007A00091E06E2D4C2F0E94610282E791E061E0A2
:1007B00040E00E94E0068091AA029091AB0201976E
:1007C0002FC0133011F1123079F5809125019091ED
:1007D0002601875B934008F497C10E94D3196F7379
:1007E000707080709070611571058105910509F038
:1007F0008BC10BC00E94D3196F777070807090709E
:10080000611571058105910579F482E791E06E2DFE
:100810004C2F0E9461028091AA029091AB02019636
:100820009093AB028093AA022196C132D10509F0C0
:100830006BCF0894E11CF11C81E4E816F10411F47B
:10084000EE242AC0BE2CBA94C1E0D0E09EEF992ECF
:100850009E0C0FE3C02ECE202EE330E0E20EF31EFE
:100860001FE3A12EAE2082EC9FEFE80EF91E4CCFC5
:10087000102F012F0F5F82E791E06F2D402F0E9414
:100880003602482F8E2D612F0E94AB02003281F775
:1008900090E4F91629F0EF2C10E0FE2CF394E9CF48
:1008A00060919401709195018091960190919701CA
:1008B00026E030E040E050E00E943D1961157105EE
:1008C00081059105E1F12091AC023091AD0280915A
:1008D000AA029091AB022817390739F58091AE0230
:1008E0008F5F8093AE02853010F182E791E061E086
:1008F00040E00E94E00616E210937B0184E28093C0
:100900007C0182E791E060E071E00E947317109330
:100910007B01809177018C5D80937C0182E791E07F
:1009200066E071E00E94731702C01092AE028091DF
:10093000AA029091AB029093AD028093AC02109208
:1009400079018091760105E110E09801281B3109B9
:10095000C901880F991F880F991F80937B0182E03E
:1009600080937C0182E791E06AE770E00E94A21622
:10097000809176019801281B3109C901880F991FC0
:10098000880F991F80937B016091AA027091AB023E
:1009900082E791E04AE050E00E94451782E791E04B
:1009A0006DE071E00E947617809176019801281B16
:1009B0003109C901880F991F880F991F80937B0106
:1009C00080917C018E5F80937C0182E791E066E7F5
:1009D00070E00E94A216809176019801281B3109CF
:1009E000C901880F991F880F991F80937B0160911F
:1009F000AF027091B00282E791E04AE050E00E94BD
:100A00005617809176019801281B3109C901880F7A
:100A1000991F880F991F80937B0180917C018E5FC5
:100A200080937C0182E791E062E770E00E94A21669
:100A300080917601081B1109000F111F000F111F73
:100A400000937B0182E791E060E770E00E94571617
:100A500080912501909126018558934028F082E7E6
:100A600091E06EE670E004C082E791E06CE670E031
:100A70000E9457168091250190912601875B934033
:100A800028F082E791E06AE670E004C082E791E036
:100A900068E670E00E94571682E791E060E00E94ED
:100AA000DC0682E791E06091B10242E22EE00E9412
:100AB0006B0782E791E061E040E00E94E006609110
:100AC000B1026F5F82E791E042E22EE00E946B0785
:100AD0008091AA029091AB0255E0969587955A9520
:100AE000E1F78F7040E3481B82E791E06091B1022B
:100AF0000E9461028091B1028F5F8093B1028134C4
:100B000060F01092B10209C08091250190912601F8
:100B10008558934008F488CE6DCEDF91CF911F9118
:100B20000F91FF90EF90DF90CF90BF90AF909F908C
:100B300008950F931F9304E211E0C8010E949310DF
:100B4000C80164E970E00E948E10C8010E94270E5F
:100B50000E9404031F910F910895882319F48CB506
:100B6000806202C08CB58F7D8CBD08959CB5937F4B
:100B7000982B9CBD08952CB5382F33702C7F322BC9
:100B80003CBD2DB590E0959587959595879581709D
:100B90002E7F822B8DBD08958AE061E00E94BB15F7
:100BA0008AE061E00E944F158CB580618CBD8CB5E8
:100BB00080648CBD8DE061E00E944F158BE061E0A8
:100BC0000E944F150895FC0181E08083089585E01F
:100BD00070E00E94EF1408956F927F928F929F921F
:100BE000AF92BF92CF92DF92EF92FF920F931F933B
:100BF000CF93DF93EC0189819A818C0124E0000F6F
:100C0000111F2A95E1F7081B190B85E10E94CD14ED
:100C1000BC01600F711F84E0769567958A95E1F7B6
:100C20007A8369838881882381F12E813F816217CD
:100C3000730710F4B90106C0888599858617970750
:100C400008F4BC0100D000D080E090E040E050E02B
:100C5000E884F98400E010E0AD80BB24CC24DD24DE
:100C60006C80772488249924EDB7FEB76182728264
:100C7000838294820E9489176B830F900F900F904C
:100C80000F9085E070E00E94EF14DF91CF911F91EB
:100C90000F91FF90EF90DF90CF90BF90AF909F901B
:100CA0008F907F906F900895FC018CE39FE0938379
:100CB000828384E0818381E084870895CF93DF93EA
:100CC000EC018C8590E08F719070892B69F584E13F
:100CD0000E94CD14AA2797FDA095BA2FBC01CD0183
:100CE0000E94081826EE3FE34EEC50E40E94941850
:100CF0000E94DA179B01AC017B836A836115710541
:100D000089F084E08983B901FE0120E08481958126
:100D10006817790710F429830AC02F5F32962430B0
:100D2000A9F702C08FEF89838C858F5F8C87DF9155
:100D3000CF910895FC0188E0808389E0818387E07A
:100D4000828386E0838384E0848382E0858381E1FB
:100D50008683089520E0FC01E60FF11D8781813034
:100D600009F421E0822F08950F931F93CF93DF930F
:100D7000EC0110E00FEF888162E00E944F1588813E
:100D80000E94EE152F81892B19F42F5F2F8307C046
:100D9000222349F02F3F11F41F8201C00F83888165
:100DA00060E00E944F151F5F2196173021F7DF91F9
:100DB000CF911F910F910895FC01678F60A3089553
:100DC000FC01678F40A30895AF92BF92CF92DF924C
:100DD000EF92FF920F931F93CF93DF93EC01162FA7
:100DE000F42EE22EAA24402F552747FD50958F2D33
:100DF000992787FD9095481B590B57FF03C05095C5
:100E000041955F4F2E2D332727FD3095812F992750
:100E100087FD9095281B390B37FF03C0309521952E
:100E20003F4F2417350744F4AA24A3948F2DF12EA5
:100E3000182F802F0E2DE82EE11634F48E2DE12E82
:100E4000182F802F0F2DF82EDE2CD11A202F3327AC
:100E500027FD30958F2D992787FD9095281B390BFD
:100E600037FF03C0309521953F4FB22EF0161CF08E
:100E7000CC24CA9402C0CC24C3948D2DD7FC8F5FA0
:100E8000082F059511C0AA2021F0CE016F2D412F0A
:100E900003C0CE01612F4F2D0E9461020B1907FF85
:100EA00002C0FC0C0D0D1F5FE1166CF7DF91CF91B6
:100EB0001F910F91FF90EF90DF90CF90BF90AF9078
:100EC00008950F93042F322F262F2150230F0E94B5
:100ED000E4060F9108950F93362F042F0150020F4F
:100EE000232F0E94E4060F9108959F92AF92BF9224
:100EF000CF92DF92EF92FF920F931F93CF93DF93E6
:100F00006C01B62E942EA02EC0E0D0E0E62EFF2479
:100F1000E7FCF094022F112707FD10950E0D1F1D01
:100F200006C0C601492D2A2D0E946B0721966B2D04
:100F30006C0FCE018E0D9F1D8017910794F3DF91EA
:100F4000CF911F910F91FF90EF90DF90CF90BF90C6
:100F5000AF909F900895CF92DF92EF92FF920F9300
:100F60001F937C01162FD42EC22E0E9461074D2D97
:100F70004150400FC701612F2C2D0E946107C7010E
:100F8000612F4D2D202F0E946B0711501C0DC701A2
:100F9000612F4D2D202F0E946B071F910F91FF9005
:100FA000EF90DF90CF9008952F923F925F926F92D3
:100FB0007F928F929F92AF92BF92CF92DF92EF92E9
:100FC000FF920F931F93DF93CF9300D000D000D0F8
:100FD000CDB7DEB79E838D83C62ED42EEE24E39448
:100FE000E21A8EEF289F502C1124842E8A94962E7C
:100FF0009A94A42EA394B62EB394F22E662423E0E2
:10100000722E10E0C801847090709A838983F80171
:10101000E270F070FC83EB8398E0292E312C2022C3
:1010200031220170107054C0E7FC04C0FA94F2E061
:101030005F0EE50C639489819A81892B71F04F2DA5
:101040004D0D8D819E816B2D0E9461026F2D6C0D67
:101050008D819E814A2D0E946102EB81FC81EF2BE4
:1010600071F04D2D4F198D819E816B2D0E94610273
:101070006F2D6C0D8D819E81482D0E94610221147F
:10108000310471F06C2D6F198D819E814A2D0E9463
:1010900061024F2D4D0D8D819E81692D0E9461024F
:1010A0000115110571F06C2D6F198D819E81482DF0
:1010B0000E9461024D2D4F198D819E81692D0E94E4
:1010C0006102E70CF2E07F0E8A949A94A394B394A1
:1010D0006F140CF4A9CF26960FB6F894DEBF0FBE9E
:1010E000CDBFCF91DF911F910F91FF90EF90DF90D7
:1010F000CF90BF90AF909F908F907F906F905F90B8
:101100003F902F9008954F925F926F927F928F92AF
:101110009F92AF92BF92CF92DF92EF92FF920F9386
:101120001F93CF93DF93EC01A62E742E9E2DFF24E8
:10113000F394F21A8EEF289F802C1124B42EBA94C7
:1011400053E0C52ECE0CE22EDD2443E0942E10E0B9
:1011500031E0432E512C40225122692E63940270BB
:10116000107034C0F7FC04C0EA9482E0880EF80CDA
:10117000D3944114510489F06D2D6A0D472D4E19F9
:101180002E2D220F260DCE010E946B076E2D6A0DAB
:10119000CE014B2D2C2D0E946B070115110589F0F6
:1011A0006A2D6D19472D4E192E2D220F260DCE01B9
:1011B0000E946B076A2D6E19CE014B2D2C2D0E94BB
:1011C0006B07F90C82E0980EBA94C80EDE1454F244
:1011D000DF91CF911F910F91FF90EF90DF90CF9013
:1011E000BF90AF909F908F907F906F905F904F9047
:1011F00008957F928F929F92AF92BF92CF92DF928B
:10120000EF92FF920F931F936C01962EA42EF22E55
:101210007E2C760E1EEFE19E102D1124812E820E63
:10122000672D282D0E946107B02EBA0CBA94C60112
:10123000672D4B2D282D0E946107AE0C100FC601A3
:10124000692D4A2D212F0E946B07F90CFA94C601D3
:101250006F2D4A2D212F0E946B07C601672D4A2D45
:101260002E2D01E00E94D407FE18C6016F2D4A2DD5
:101270002E2D02E00E94D407BE18C6016F2D4B2D03
:101280002E2D04E00E94D407C601672D4B2D2E2D74
:1012900008E00E94D4071F910F91FF90EF90DF901C
:1012A000CF90BF90AF909F908F907F9008958F9236
:1012B0009F92AF92BF92CF92DF92EF92FF920F93E5
:1012C0001F936C01162FA42E922EF02EBE2C8E2C66
:1012D000860E2EEFE29EE02C11242E2D290D682D76
:1012E0000E947507AB0CFA94FE0C1150190D1B19D6
:1012F000C601612F4A2D2B2D01E0EF2C0E9483089F
:10130000C601682D4A2D2B2D02E00E9483081F91F3
:101310000F91FF90EF90DF90CF90BF90AF909F9094
:101320008F9008953F924F925F926F927F928F922B
:101330009F92AF92BF92CF92DF92EF92FF920F9364
:101340001F93CF93DF934C01362E442EF901A490C6
:10135000319654906F010894C11CD11C8A2D992795
:1013600087FD9095079668E070E00E942A19E62EA6
:10137000FF24E7FCF09400E0C0E0D0E060E8662ED7
:10138000712C26C0E12FE595E595E595FF27E7FD52
:10139000F095EC0FFD1FEC0DFD1DE4912E2F30E0BC
:1013A000812F8770A30102C0559547958A95E2F772
:1013B00024233523232B31F0612F630DC4014B2DE2
:1013C0000E9461021F5F1A15ECF20F5FCE0DDF1D48
:1013D000051524F410E0B02EB40CF5CFDF91CF91B9
:1013E0001F910F91FF90EF90DF90CF90BF90AF9043
:1013F0009F908F907F906F905F904F903F90089557
:10140000DC01FB0184918F5F14968C9314973196C5
:1014100084918F5F15968C93159731965E96FC9309
:10142000EE935D9708953F924F925F926F927F92F5
:101430008F929F92AF92BF92CF92DF92EF92FF92E4
:101440000F931F93CF93DF93EC01862EA42E422F90
:10145000102F3F8C23E526170CF4ABC03FE23A1562
:101460000CF4A7C0C02EDD248C8190E001979C0174
:10147000C29EC001C39E900DD29E900D1124262FB6
:10148000332727FD3095820F931F181619060CF08D
:1014900090C08D8190E09C01C29EC001C39E900DC2
:1014A000D29E900D11242A2D332727FD3095820FCF
:1014B000931F181619060CF07CC09924442E55244D
:1014C0006DC09C01215030404217530711F460E079
:1014D0000EC0429EC001439E900D529E900D11245D
:1014E000840F951FED8DFE8DE80FF91F64914C9DC3
:1014F000C0014D9D900D5C9D900D1124682C680ECF
:10150000BB24792C780C3FC0E62EFF2460FF19C065
:10151000113039F44B2D4A0DCE01672D0E94610226
:101520002EC02C9DC0012D9D900D3C9D900D112431
:101530004A2D480FCE01662D212F012F0E947507DD
:101540001EC098A18F8D9817D1F09F8F113039F45C
:101550004B2D4A0DCE01672D0E9461020FC02C9DBC
:10156000C0012D9D900D3C9D900D11244A2D480FDA
:10157000CE01662D212F012F0E9475073F8EF59415
:10158000E7946E2DB3942B2D332727FD30958D8155
:1015900090E0281739070CF4B7CF9394492D5527BD
:1015A00047FD50958C8190E0481759070CF489CF7E
:1015B0003F8EDF91CF911F910F91FF90EF90DF90C1
:1015C000CF90BF90AF909F908F907F906F905F90E3
:1015D0004F903F9008950F93CF93DF93EC01262F08
:1015E0006A3049F48D819885899F802D11249A85D0
:1015F000980F9A8726C06D3029F169854A8508853C
:101600000E94130A9C816885969F402D112489852C
:10161000480F49878F818823A9F0552747FD5095AA
:10162000699F9001112484E590E0821B930B84173D
:10163000950744F49D81699F902D11248A85890F17
:101640008A87198681E090E0DF91CF910F9108950C
:101650001F93CF93DF93EC01162FF8948E8560E0F3
:101660000E94BB158F8518161CF460E00E94BB1504
:101670001EBD0DB407FEFDCF8EB58F8518161CF468
:1016800061E00E94BB157894DF91CF911F9108957E
:10169000FF920F931F93CF93DF93EC01FF2400E0A1
:1016A00010E06F2D6064CE010E94280BCE0160E82F
:1016B0000E94280B8E8561E00E94BB158F8518164D
:1016C0001CF460E00E94BB15F801EE54FD4F90E061
:1016D00080818EBD0DB407FEFDCF8EB59F5F319624
:1016E0009435B1F78F8518161CF461E00E94BB1584
:1016F000F3940C5A1F4F86E0F81699F6CE0160E479
:101700000E94280BDF91CF911F910F91FF900895B8
:10171000CF93DF93DC0188EF91E0E2EBF2E0EF01A1
:101720009C01199221503040E1F719961C921997AB
:101730001A961C92DF91CF910895EF920F93CF9359
:10174000DF93EC014D876C872E87E88A0F8781E055
:1017500088878F8F18A28F83CE016AEA70E00E947B
:10176000000A0E94CC0581E00E94AD0585E00E9440
:10177000BB058CE00E94B6058D8561E00E944F1587
:101780008C8561E00E944F158E8561E00E944F15A7
:10179000888918161CF461E00E944F158F85181671
:1017A0001CF461E00E944F15888918166CF460E003
:1017B0000E94BB156AE070E080E090E00E946C142B
:1017C000888961E00E94BB15EC852E2F332727FD09
:1017D0003095F901E752FC4FE491F0E0EE0FFF1F66
:1017E000EB53FC4F859194919C8B8B8B23513C4FF9
:1017F000F90184918A8FED852E2F332727FD3095AF
:10180000F901E752FC4FE491F0E0EE0FFF1FEB53BC
:10181000FC4F859194919A8B898B23513C4FF90110
:101820008491898FEF852E2F332727FD3095F9017D
:10183000E752FC4FE491F0E0EE0FFF1FEB53FC4F3B
:10184000859194919E8B8D8B23513C4FF90184910E
:101850008B8FEE852E2F332727FD3095F901E75228
:10186000FC4FE491F0E0EE0FFF1FEB53FC4F85912E
:101870009491988F8F8B23513C4FF90184918C8FD9
:10188000CE0161E20E94280BCE0164E10E94280B88
:101890008B8587FF02C08FE78B876B856068CE01E1
:1018A0000E94280BCE0160E20E94280BCE016CE062
:1018B0000E94280BCE010E94480BDF91CF910F911F
:1018C000EF900895CF93DF93DC01E0E8F7E785918F
:1018D0009491ED01C75ADF4FAD0141595F4F8150DF
:1018E000904C09F04EC0E6E9F7E7E491E883E7E9B8
:1018F000F7E7E4911496EC931497E8E9F7E7E4919D
:101900001596EC931597E9E9F7E785919491179669
:101910009C938E931697EBE9F7E78591949119962E
:101920009C938E931897EDE9F7E7E4919B96EC93DF
:101930009B97EEE9F7E7E4919A96EC939A97EFE993
:10194000F7E7E491EA01E883E0EAF7E7859194910B
:101950005D969C938E935C97E2EAF7E7859194916C
:101960005F969C938E935E97E4EAF7E78591949156
:1019700091969C938E939097E6EAF7E785919491E0
:1019800032C08CE3888314961C9214972FEF15961F
:101990002C93159780E293E017969C938E9316975D
:1019A00084ED93E019969C938E93189781E09B9613
:1019B0008C939B979A968C939A97FA0120838CEA42
:1019C0009DE05D969C938E935C978EED9DE05F9677
:1019D0009C938E935E9784E79EE091969C938E9362
:1019E00090978CE39FE093969C938E939297DF91D0
:1019F000CF910895EF92FF920F931F93CF93DF93B0
:101A00007C018C01025B1F4FC8010E94880BC8013A
:101A100061E572E00E945716C8010E94480B83E0FE
:101A20000E94BB058FE091E0EEEFFFE3099584E5AE
:101A300090E0E80EF91EF7011082C8016CE272E036
:101A40000E94A216C8010E94480BE701CA54D04068
:101A5000CE010E94B406CE0164E00E94AA0688234B
:101A600039F462E370E080E090E00E946C14F0CF03
:101A7000DF91CF911F910F91FF90EF9008950F93F9
:101A80001F93CF93DF93EC018C01025B1F4FC801C2
:101A900061E040E00E94E006FE01E95AFF4FCE5AA5
:101AA000DF4F85E59881891B808326961882C8556B
:101AB000D040698D613009F43EC0613028F0888DD6
:101AC000653008F051C04BC0CE0185960E94981138
:101AD000CE0160E00E94E705C8010E94880BCA5A47
:101AE000DF4F81E08883C655D040C8016DE872E0C1
:101AF0000E9457166A8D7B8DC8014AE050E00E9413
:101B00004517C80169E772E00E945716C8010E9494
:101B1000480B83B7817F846083BF83B7816083BFB5
:101B200083B7816083BF889583B78E7F83BF83B778
:101B30008E7F83BF1FC0C059DF4F88819981AA81E2
:101B4000BB818F709070A070B0700897A105B1052F
:101B500018F4C80167E00CC0C80168E709C0882311
:101B600049F06B5FC80104C0882321F0C8016FE20F
:101B70000E947A16DF91CF911F910F910895AF9235
:101B8000BF92CF92DF92EF92FF920F931F93CF936A
:101B9000DF93EC01CB57DF4F8881C558D0408823B5
:101BA00009F44AC08C3010F010E002C01CE0181B91
:101BB000CA5ADF4F81E08883C655D0406EE4C62EF6
:101BC000D12CCC0EDD1EC60160E00E94DC0653E580
:101BD000A52EB12CAC0EBD1EF50100814DE2F42EF8
:101BE0004F2D401B410F0D5FC60160E024E533E03F
:101BF000E32E0E945709C60161E00E94DC06F50150
:101C00000081F01AF10E0D5FC60160E04F2D24E552
:101C10000E94F908C95ADF4F84E08993F501808159
:101C2000181B115D1883AB9669917991C6010E94CA
:101C30005716888181508883DF91CF911F910F9132
:101C4000FF90EF90DF90CF90BF90AF9008954F92AC
:101C50005F926F927F928F929F92AF92BF92CF923C
:101C6000DF92EF92FF920F931F932C01FC01628C85
:101C7000738C60947094882499240E9446145B01AC
:101C80006C010E9446147B018C01F201418052805C
:101C90000E944614460E571EA094B094C094D0944F
:101CA000E094F09400951095C601B501A801970144
:101CB0000E94F718A40193010E94F718460E571EC0
:101CC000C2010E94D2171F910F91FF90EF90DF90F9
:101CD000CF90BF90AF909F908F907F906F905F90CC
:101CE0004F900895AF92BF92CF92DF92EF92FF9202
:101CF0000F931F93CF93DF93EC01EFE7AE2EB12C40
:101D0000A80EB91EF501E080F180028113810E94C6
:101D10003814E61AF70A080B190B7EE7C72ED12CE8
:101D2000CC0EDD1EF601808190E0A0E0B0E08E15C3
:101D30009F05A007B10708F081C08E0106581F4F0C
:101D4000F80180819181A281B3810097A105B1053D
:101D500009F474C00E943814F6012081620F711DCD
:101D6000811D911DF5016083718382839383FE0140
:101D7000E059FF4F80819181A281B3810196A11D1D
:101D8000B11D80839183A283B383F80110821182F5
:101D9000128213820E944614CA58DF4F68837983E7
:101DA0008A839B83C657D040CE010E94EC05CE01AA
:101DB0000A960E94B406CE0148960E945E0681E013
:101DC00032C08E010B5D1F4FC8010E94E611C80191
:101DD0000E945D12C8010E944013CE010E94BF0DF7
:101DE000CE010E943F0D8E01025B1F4FC8010E9471
:101DF000480BCC5ADF4F8881C455D040882319F452
:101E0000C8010E94880B0E944614C658DF4F6883A1
:101E100079838A839B83249728813981621B730B82
:101E20007A936A9380E0DF91CF911F910F91FF9099
:101E3000EF90DF90CF90BF90AF900895C658DF4FDE
:101E400088819981AA81BB81CA57D0400097A1059A
:101E5000B10541F7B6CF2F923F924F925F926F92AA
:101E60007F928F929F92AF92BF92CF92DF92EF922A
:101E7000FF920F931F93DF93CF93CDB7DEB72B97CE
:101E80000FB6F894DEBF0FBECDBF9B878A877A83DB
:101E900069835C834B838C0101591F4FF80180815A
:101EA000882309F422C18A859B858A5A9F4F9B8784
:101EB0008A8781E0EA85FB85808312921292E4553D
:101EC000F040FB87EA87108E9EE4E92EF12CEE0E9F
:101ED000FF1EC70161E00E94DC068AE0282E312C3B
:101EE0008A859B85280E391EB5E26B2E712C680EF3
:101EF000791EE981FA81F491FD83A7E58A2E912C60
:101F0000880E991EF8E5CF2ED12CC80ED91EE2E519
:101F10004E2E512C480E591E8D5A9F4F9F838E83F3
:101F200070E7A72EB12C8A859B85A80EB91E19874C
:101F300008878A859B850E94720E8823D1F39D8134
:101F4000992311F410E003C0EE81FF811081C701D5
:101F500060E040E02AEC32E00E9492098B819C8193
:101F6000892B41F0145FC70160E0412F2B813C8138
:101F70000E949209F40110828CE0F6018083C7016F
:101F800069817A810E945716F201208130E0C901EF
:101F9000880F991F820F931F909581959F4F8D5A9F
:101FA000F4018083EE81FF81208130E0C901880F38
:101FB000991F820F931F909581959F4F835DF60126
:101FC0008083F501808184FF04C0C7016AE473E067
:101FD00003C0C70166E473E00E94A216F2012081EB
:101FE00030E0C901880F991F820F931F909581954A
:101FF0009F4F8D5AF4018083F60180818F5F80832B
:10200000EA85FB8582A5882321F0C70162E473E09D
:1020100003C0C7016EE373E00E94A216F201808143
:1020200090E09C01220F331F280F391F3095219516
:102030003F4F2D5AF4012083F60180818F5F80830A
:10204000C7016AE373E00E94A216C10165E00E9425
:10205000AA06882351F0EA85FB8562A56F5FC3015C
:102060000E94A913C3010E94A313C10164E00E944E
:10207000AA06882399F4E885F9856081262F30E047
:1020800040E050E0F50180819181A281B381821707
:102090009307A407B50708F16F3FF9F08A859B8580
:1020A00081599F4F9B878A878FEFEA85FB858083C5
:1020B000EF56F040FB87EA87C30160E00E948D1174
:1020C000C3010E949D1381E0EA85FB85808F0DC0CE
:1020D0008A859B850E94FA0C2CCFC10166E00E9484
:1020E000AA06882309F425CFF3CF2B960FB6F894D0
:1020F000DEBF0FBECDBFCF91DF911F910F91FF903B
:10210000EF90DF90CF90BF90AF909F908F907F9097
:102110006F905F904F903F902F90089540E050E077
:102120000E942B0F0895AF92BF92CF92DF92EF9251
:102130000F93CF93DF936C018EE790E0C80ED91E0A
:1021400082E3F601808381E090E0A0E0B0E0B2930A
:10215000A293929382936F0185EF9FEFC80ED91ED1
:102160008FEFF601808381E99FEFC80ED91EC6016B
:102170000E94620CC6010E94E305C6016FEF0E9437
:10218000E7054AE0A42EB12CAC0CBD1CC5010E9491
:102190009A06C5010E94B406C60148960E945406DC
:1021A000C601825B9F4F6DE04BE020E10FE03EE017
:1021B000E32E0E949D0BE601A596CE010E94B61368
:1021C000C50165E00E94AA06882329F0CE0160E0DF
:1021D0000E94A91306C0CE0160E573E040E00E94B2
:1021E0009C11DF91CF910F91EF90DF90CF90BF9036
:1021F000AF9008950F93DC01002309F069C06230AD
:1022000009F443C0633030F4662359F0613009F0BB
:102210005FC00DC0633009F444C0643009F058C099
:102220004CC04B3008F04AE056964C9351C0842F76
:1022300090E0880F991F1F962D913C915097280F81
:10224000391FF9018591949190969C938E935F9795
:10225000FC014591549114968C911497849F602DA4
:10226000112491966C939197252F3327862F90E018
:102270002817390708F4652F14968C911497689FD6
:10228000802D112492968C9323C014968C911497D0
:10229000489F802D112459968C9359975A962C93C8
:1022A00017C014968C911497489F802D11245B962B
:1022B0008C935B975C962C930BC014968C9114971F
:1022C000489F802D11245D968C935D975E962C938C
:1022D0000F910895FC01222371F4648B8481489F3F
:1022E000802D1124858B15A214A213A281E0878B67
:1022F0008093B304108E0895FC01662369F4178A55
:10230000158A14A213A2108E1092B6041092B5046E
:102310001092B3041092B4000895CF93DF93EC01B0
:10232000662319F40E947C111982DF91CF910895E0
:1023300060E00E948D1108950F931F93CF93DF9358
:10234000EC018B01442371F460E00E948D111E8723
:102350000D871B8A1A8A81E0898389E08E8B198E0A
:102360001B8E1D8EDF91CF911F910F910895CF93FA
:10237000DF93EC01662339F58881882321F1898177
:10238000882309F5898590E0880F991FEF81F885EA
:10239000E80FF91F859194912FEF8F3F920711F469
:1023A000188211C09C8790E0880F991FEA85FB85F1
:1023B000E80FF91F65917491CE0140E00E949C11D5
:1023C00089858F5F8987DF91CF91089560E00E94B2
:1023D000B71108950F93CF93DF93EC01662309F0B3
:1023E00068C08981882309F464C08D89882309F035
:1023F00060C0EA89FB89EE0FFF1F4D855E85E40F03
:10240000F51F259134912115310509F040C08989C6
:10241000813031F41B8A1A8AFA012591349137C030
:1024200019828881882379F0CE0160E00E94B7117B
:102430008A899B89880F991FED85FE85E80FF91F12
:102440002591349124C0CE0160E00E947C1131C0FE
:10245000E6E036952795EA95E1F76F70422F4F71C8
:1024600075E0369527957A95E1F72051CE0100E089
:102470000E94FA108A899B8901969B8B8A8B880F10
:10248000991FED85FE85E80FF91F25913491B9015B
:10249000769567957695679520FDDACF6F73432F14
:1024A000CE0120E00E946A118A899B8901969B8B4C
:1024B0008A8BDF91CF910F91089560E00E94EA111D
:1024C0000895CF93DF93EC01662309F0D6C08F897E
:1024D000882309F4D2C08D89882321F4CE010E947B
:1024E0007C11CBC081508D8B8DA1882309F03BC01E
:1024F0008BA19CA10196880F991FEF8DF8A1E80F81
:10250000F91F85919491282F27702EA3AC0163E0C9
:10251000569547956A95E1F79A0136952795892F43
:102520009927869586958FA32F738C81289F202DC0
:1025300011242DA341704093B7048BA19CA1019657
:102540009CA38BA329A130E08217930760F08AA196
:10255000882329F0281B31093CA32BA304C0CE01FA
:1025600060E00E947C118DA181508DA3988D9F5FAA
:10257000988F2FA18C89280F8C85280F2A836B8D2B
:10258000662369F0892F992787FD909570E00E9456
:102590002A198C8D869F802D1124820F8A838A812F
:1025A00090E0CB966BE370E00E942A198A832E8913
:1025B0002B83698D662379F0888D772767FD709569
:1025C000992787FD90950E942A198A8D869F802DD4
:1025D0001124820F8B836D8D662399F0888D992746
:1025E00087FD909570E00E942A19CB0162E070E0AF
:1025F0000E942A199E8D899F802D11249B81890F0D
:102600008B838B818A300CF089E087FD80E08B839F
:102610008C898F3309F41B82F894EA81F0E0EC583E
:10262000FC4FE491E093B4042D8130E08B81992735
:1026300087FD9095A901489F9001499F300D589FB3
:10264000300D112488A590E0A901489F9001499F71
:10265000300D589F300D11248EA1992787FD90953C
:10266000AC01249FC001259F900D349F900D112433
:102670008093B5048093B6047894DF91CF91089548
:1026800060E00E94611208956091B504662381F1B3
:102690008091B2048F5F8093B2049091B404891743
:1026A00038F130E08091B304882309F431E03093AD
:1026B000B3041092B2048091B7048823A9F08091EA
:1026C0001A0123E4829FC0011124895B80931A01BF
:1026D00090E070E00E9416198093B60405C08091C6
:1026E000B6048093B40008953323C9F780E0F9CF8E
:1026F00008951F920F920FB60F9211242F933F93BC
:102700004F935F936F937F938F939F93AF93BF93F9
:10271000EF93FF930E944413FF91EF91BF91AF910C
:102720009F918F917F916F915F914F913F912F91E9
:102730000F900FBE0F901F9018956CE673E040E06D
:102740000E949C1108956EE573E040E00E949C1188
:102750000895FC01862F668170E06F5F7F4F992797
:1027600087FD90950E942A19858308950F93FC0197
:1027700081E0848384E080A78FEA93E0908B878751
:10278000CF0161E040E020E000E00E94FA1083E029
:1027900061E070E00E94EF14E1EBF0E08081887F5F
:1027A00081608083F89410928000E1E8F0E010826C
:1027B000109285001092840088E191E09093890046
:1027C000809388008081886080838081816080839D
:1027D000EFE6F0E080818260808378940F91089525
:1027E0001F920F920FB60F9211242F933F938F9346
:1027F0009F93AF93BF938091BC049091BD04A0912F
:10280000BE04B091BF043091C0040196A11DB11D5A
:10281000232F2D5F2D3720F02D570196A11DB11DBF
:102820002093C0048093BC049093BD04A093BE0485
:10283000B093BF048091B8049091B904A091BA04F8
:10284000B091BB040196A11DB11D8093B804909373
:10285000B904A093BA04B093BB04BF91AF919F9108
:102860008F913F912F910F900FBE0F901F90189551
:102870008FB7F8942091BC043091BD044091BE0400
:102880005091BF048FBFB901CA0108959FB7F89452
:102890002091B8043091B9044091BA045091BB041E
:1028A00086B5A89B06C08F3F21F02F5F3F4F4F4F4B
:1028B0005F4F9FBF542F432F322F2227280F311DE8
:1028C000411D511D82E0220F331F441F551F8A9561
:1028D000D1F7B901CA010895EF92FF920F931F93A8
:1028E000CF93DF937B018C010E944614EB010EC055
:1028F0000E9446146C1B7D0B685E7340C8F30894FD
:10290000E108F10801091109C851DC4FE114F10493
:102910000105110569F7DF91CF911F910F91FF908C
:10292000EF900895789484B5826084BD84B5816009
:1029300084BD85B5826085BD85B5816085BDEEE6C7
:10294000F0E0808181608083E1E8F0E010828081A6
:1029500082608083808181608083E0E8F0E0808114
:1029600081608083E1EBF0E0808184608083E0EB34
:10297000F0E0808181608083EAE7F0E0808184601C
:102980008083808182608083808181608083808178
:10299000806880831092C1000895982F8E3008F0CF
:1029A0009E50977080911B018295880F880F807CC4
:1029B000892B80937C0080917A00806480937A00D8
:1029C00080917A0086FDFCCF2091780040917900BB
:1029D000942F80E030E0282B392BC90108951F93F4
:1029E000CF93DF93182FEB0161E00E944F152097E2
:1029F00009F44AC0CF3FD10509F449C0E12FF0E006
:102A0000EF5FFB4F84918330C1F0843028F4813034
:102A100051F08230B1F50CC0863019F1873049F1A0
:102A2000843079F514C084B5806884BDC7BD33C0D7
:102A300084B5806284BDC8BD2EC08091800080684E
:102A400080938000D0938900C093880024C0809137
:102A50008000806280938000D0938B00C0938A00B6
:102A60001AC08091B00080688093B000C093B3001A
:102A700012C08091B00080628093B000C093B40017
:102A80000AC0C038D1051CF4812F60E002C0812F3C
:102A900061E00E94BB15DF91CF911F910895CF9304
:102AA000DF93482F50E0CA0183519C4FFC013491C1
:102AB00047525C4FFA018491882369F190E0880FB6
:102AC000991FFC01E554FC4FA591B491FC01EB5317
:102AD000FC4FC591D491662351F42FB7F8948C9193
:102AE000932F909589238C93888189230BC0623022
:102AF00061F42FB7F8948C91932F909589238C9340
:102B00008881832B88832FBF06C09FB7F8948C9150
:102B1000832B8C939FBFDF91CF910895833071F009
:102B2000843028F48130A1F0823021F514C0863041
:102B3000B1F08730D1F08430E9F404C08091800096
:102B40008F7703C0809180008F7D809380000895EF
:102B500084B58F7702C084B58F7D84BD0895809140
:102B6000B0008F778093B00008958091B0008F7D82
:102B70008093B0000895FF920F931F93F62E482F75
:102B800050E0CA018F5F9B4FFC012491CA01835121
:102B90009C4FFC01149147525C4FFA0104910023B1
:102BA000C9F0222319F0822F0E948E15E02FF0E049
:102BB000EE0FFF1FEB53FC4FA591B4919FB7F89414
:102BC000FF2021F48C911095812302C08C91812BE0
:102BD0008C939FBF1F910F91FF9008950F931F93A8
:102BE000482F50E0CA018F5F9B4FFC012491CA011E
:102BF00083519C4FFC01049147525C4FFA011491A0
:102C0000112319F420E030E015C0222319F0822F9F
:102C10000E948E15812F90E0880F991F81539C4F41
:102C2000FC01A591B4918C9120E030E0802311F05B
:102C300021E030E0C9011F910F910895CF93DF93F8
:102C40000E9492140E949905C0E0D0E00E945603B1
:102C50002097E1F30E940000F9CFCF92DF92EF922C
:102C6000FF920F931F93CF93DF937C016B018A0137
:102C7000C0E0D0E00FC0D6016D916D01D701ED919C
:102C8000FC910190F081E02DC7010995C80FD91F73
:102C9000015010400115110571F7CE01DF91CF9160
:102CA0001F910F91FF90EF90DF90CF900895EF92DA
:102CB000FF920F931F93CF93DF937C018B01C0E0B2
:102CC000D0E0F8010F5F1F4F6491662359F0D701E0
:102CD000ED91FC910190F081E02DC7010995C80F9D
:102CE000D91FEFCFCE01DF91CF911F910F91FF90B0
:102CF000EF900895DC01ED91FC910190F081E02DC1
:102D000009950895EF92FF920F931F938C01DC01B8
:102D1000ED91FC910190F081E02D6DE009957C0131
:102D2000D801ED91FC910190F081E02DC8016AE09D
:102D300009959C012E0D3F1DC9011F910F91FF9018
:102D4000EF900895EF92FF920F931F937C010E94E2
:102D500057168C01C7010E9482169C01200F311F5B
:102D6000C9011F910F91FF90EF900895CF93DF93CA
:102D7000EC016115710519F420E030E00FC0DB01B2
:102D80000D900020E9F71197A61BB70BE881F98198
:102D90000280F381E02DAD0109959C01C901DF910D
:102DA000CF9108954F925F927F928F929F92AF92B0
:102DB000BF92CF92DF92EF92FF920F931F93DF9318
:102DC000CF93CDB7DEB7A1970FB6F894DEBF0FBE95
:102DD000CDBF2C01742ECB01223008F42AE019A2B9
:102DE00031E2C32ED12CCC0EDD1E822E9924AA24D2
:102DF000BB24672D752FA50194010E943D1979010F
:102E00008A01C801B701A50194010E94F718472D56
:102E1000461B0894C108D1084A3014F4405D01C033
:102E2000495CF6014083E114F1040105110521F02C
:102E30007E2C5F2DC801DDCFC201B6010E94B616FF
:102E4000A1960FB6F894DEBF0FBECDBFCF91DF9134
:102E50001F910F91FF90EF90DF90CF90BF90AF90B8
:102E60009F908F907F905F904F900895DC01211587
:102E7000310541F4ED91FC910190F081E02D642F3A
:102E8000099508950E94D2160895EF92FF920F932C
:102E90001F939A017B0100E010E0B801A7010E9496
:102EA00036171F910F91FF90EF900895CF92DF9208
:102EB000EF92FF920F931F936C017B019A0100E048
:102EC00010E0B801A7010E9436178C01C6010E94CC
:102ED0008216080F191FC8011F910F91FF90EF90E4
:102EE000DF90CF9008950E94B6160895EF92FF925A
:102EF0000F931F937C010E94B6168C01C7010E949C
:102F00008216080F191FC8011F910F91FF90EF90B3
:102F100008952F923F924F925F926F927F928F927D
:102F20009F92AF92BF92CF92DF92EF92FF920F9358
:102F30001F93DF93CF93CDB7DEB73B014C0119014F
:102F40002A016D897E898F89988D6A197B098C0980
:102F50009D09621A730A840A950AA40193010E94CA
:102F6000F718E218F30804091509A80197010E944F
:102F70005F192A0D3B1D4C1D5D1DB901CA01CF9182
:102F8000DF911F910F91FF90EF90DF90CF90BF9056
:102F9000AF909F908F907F906F905F904F903F90F9
:102FA0002F900895009729F0BC0180E090E00E94E6
:102FB000D819089598D088F09F5790F0B92F992785
:102FC000B751A0F0D1F0660F771F881F991F1AF034
:102FD000BA95C9F712C0B13081F09FD0B1E0089521
:102FE0009CC0672F782F8827B85F39F0B93FCCF3A2
:102FF000869577956795B395D9F73EF4909580952A
:10300000709561957F4F8F4F9F4F0895E89409C049
:1030100097FB3EF490958095709561957F4F8F4F0B
:103020009F4F9923A9F0F92F96E9BB279395F69521
:10303000879577956795B795F111F8CFFAF4BB0F9F
:1030400011F460FF1BC06F5F7F4F8F4F9F4F16C003
:10305000882311F096E911C0772321F09EE8872F8D
:10306000762F05C0662371F096E8862F70E060E049
:103070002AF09A95660F771F881FDAF7880F9695C2
:10308000879597F9089597F99F6780E870E060E069
:1030900008959FEF80EC089500240A9416161706F1
:1030A00018060906089500240A9412161306140639
:1030B00005060895092E0394000C11F4882352F09C
:1030C000BB0F40F4BF2B11F460FF04C06F5F7F4F54
:1030D0008F4F9F4F089557FD9058440F551F59F03B
:1030E0005F3F71F04795880F97FB991F61F09F3FF5
:1030F00079F087950895121613061406551FF2CF1E
:103100004695F1DF08C0161617061806991FF1CF6D
:1031100086957105610508940895E894BB27662794
:103120007727CB0197F908950BD0C4CFB5DF28F0EE
:10313000BADF18F0952309F0A6CFABCF1124EECF5C
:10314000CADFA0F3959FD1F3950F50E0551F629F02
:10315000F001729FBB27F00DB11D639FAA27F00DF0
:10316000B11DAA1F649F6627B00DA11D661F829F17
:103170002227B00DA11D621F739FB00DA11D621FFC
:10318000839FA00D611D221F749F3327A00D611D19
:10319000231F849F600D211D822F762F6A2F1124FB
:1031A0009F5750408AF0E1F088234AF0EE0FFF1F4E
:1031B000BB1F661F771F881F91505040A9F79E3F85
:1031C000510570F060CFAACF5F3FECF3983EDCF37F
:1031D000869577956795B795F795E7959F5FC1F7C2
:1031E000FE2B880F911D9695879597F90895629FFC
:1031F000D001739FF001829FE00DF11D649FE00DEF
:10320000F11D929FF00D839FF00D749FF00D659F4F
:10321000F00D9927729FB00DE11DF91F639FB00D4E
:10322000E11DF91FBD01CF0111240895AA1BBB1B8D
:1032300051E107C0AA1FBB1FA617B70710F0A61BB6
:10324000B70B881F991F5A95A9F780959095BC01D7
:10325000CD01089597FB092E07260AD077FD04D0EB
:10326000E5DF06D000201AF4709561957F4F089530
:10327000F6F7909581959F4F0895A1E21A2EAA1B0B
:10328000BB1BFD010DC0AA1FBB1FEE1FFF1FA21716
:10329000B307E407F50720F0A21BB30BE40BF50B13
:1032A000661F771F881F991F1A9469F7609570959C
:1032B000809590959B01AC01BD01CF01089597FBCE
:1032C000092E05260ED057FD04D0D7DF0AD0001CEA
:1032D00038F450954095309521953F4F4F4F5F4FB3
:1032E0000895F6F790958095709561957F4F8F4F73
:1032F0009F4F0895EE0FFF1F0590F491E02D099464
:10330000A0E0B0E0E6E8F9E10C94E919EC01A8804E
:10331000B980CA80DB80A114B104C104D10441F496
:1033200084E2A82E89EDB82E8BE5C82E87E0D82E32
:10333000C601B5012DE133EF41E050E00E945F1975
:1033400027EA31E440E050E00E94F7187B018C014D
:10335000C601B5012DE133EF41E050E00E945F1955
:10336000CA01B9012CEE34EF4FEF5FEF0E94F7185E
:103370006E0D7F1D801F911F97FF04C0615070402C
:1033800080409048688379838A839B839B01AC014A
:103390005F77B901CA01CDB7DEB7EAE00C94051A30
:1033A0000E948019089586E191E00E948019089595
:1033B000609316017093170180931801909319017F
:1033C00008952F923F924F925F926F927F928F92C9
:1033D0009F92AF92BF92CF92DF92EF92FF920F93A4
:1033E0001F93CF93DF93CDB7DEB7CA1BDB0B0FB6AE
:1033F000F894DEBF0FBECDBF09942A88398848886B
:103400005F846E847D848C849B84AA84B984C88400
:10341000DF80EE80FD800C811B81AA81B981CE0FF7
:10342000D11D0FB6F894DEBF0FBECDBFED010895DC
:04343000F894FFCF3E
:1034340047696D6D65006C69676874210020004CF4
:103444004F4144455200010000000101000000000A
:04345400EB0A2D163C
:00000001FF
