:100000000C94CF040C94F7040C94F7040C94F704AC
:100010000C94F7040C94F7040C94F7040C94F70474
:100020000C94F7040C94F7040C94F7040C94002936
:100030000C94F7040C94F7040C94F7040C94F70454
:100040000C9476290C94F7040C94F7040C94F704A0
:100050000C94F7040C94F7040C94F7040C94F70434
:100060000C94F7040C94F704153A6163636570749B
:10007000002063726162732E000A6279206B696CE2
:100080006C696E670A00596F75206D616465202484
:100090000047414D45204F56455221004E455720BF
:1000A0004849474853434F52450047414D45204F2B
:1000B0005645522100153A73686F6F7420163A72D4
:1000C000756E004C4554275320474F21004849473F
:1000D000482053434F524553002F00566F6C756DA7
:1000E000653A004261636B6C696768743A004C69F9
:1000F0006768743A002F3400426174206C766C3A61
:10010000006D56004261743A00526566696C6C6518
:100110006420210055706772616465642021004588
:1001200061726E20243520666972737400696E6690
:10013000004F7574206F6620616D6D6F2100720134
:100140006A015E01520148014D61696E204D656E84
:10015000750053797374656D20496E666F00486948
:1001600067682073636F72657300526573746172A0
:100170007400506C6179000500400150015C017011
:100180000180016C0154016001740184014C015C27
:100190000168017C018C010000450049784D7828F8
:1001A0000A0000D501CF01C301AD01B50145000131
:1001B00081307F000045004001418149788D782CD5
:1001C00005000045002C01000045004C01000045E1
:1001D0000054010000450049707C014D782C04005A
:1001E00000FD01F901F401F001EB014D473432004B
:1001F00052504700414B343700503930002E3335D0
:10020000370045008401000045006405000008082F
:100210006C928244281000000808000C1C18100082
:10022000000008086CFEFE7C381000000808FF8102
:10023000FFA3C5FF81FF08080008001838B40010AC
:100240000808003C5A7E7E7E3C0008080024187E88
:100250003C7E3C0008080000183C182400000808F8
:10026000542014418804510ACFCF804001FC39E06A
:100270000C06871FC3C181013C3307E08409C1CF4D
:100280004024FFFFFFFFFFFFFFFF80000000000191
:1002900041418000018006041411800001800600A5
:1002A000808180000180060000418F3F79B9EF9E78
:1002B0007E1199BBCDFB3633762199B30D98363339
:1002C000664598307D99F63360039830CD9B363380
:1002D00061419830CD9B3633641599B0DD9B763300
:1002E0006089CF30FDF3F39E604180000000000084
:1002F0000515A0000000002080A1C000180C00001F
:100300000FF59000245280F00813D002AC5681F80B
:100310000FF1994334DAE1F80A359542255281F814
:100320000C59DDC219CC61680FF18040000000F06B
:1003300008158080000000000FF1C00000000600DA
:100340000005800000000F000003C0000000060050
:10035000000190000000090000058000000000007E
:100360000009C14000000000000193D0000000001F
:100370000005A3E000000006000183E00545400FF2
:10038000054583D002020006020381400141400975
:1003900001418000041410000415FFFFFFFFFFFF60
:1003A000FFFF03053F213F1208120A100A0E1C0E20
:1003B0000C1E0C141A14161F161E131E1E1B1E1EB6
:1003C0001F1E3F213F3A2F3A173D173F213F181F6D
:1003D00002040A041F0E04040E1F0A1F0A0E0E1F39
:1003E00004110E2E252E2F2A2E262929021F02083F
:1003F0001F08150E04040E150E15151B151B0406FB
:1004000004040C040000000017000300031F0A1F6F
:1004100016371A1904130A153A000300000E1111B9
:100420000E000A040A040E04003000040404001044
:10043000001804031F111F121F101D151711151F7F
:1004400007041F17151D1F151D01011F1F151F175D
:10045000151F000A00003200040A110A0A0A110AD4
:10046000040115020E11171E051E1F150A0E110A92
:100470001F110E1F15111F05010E111D1F041F1145
:100480001F1108100F1F041B1F10101F061F1E0432
:100490000F0E110E1F09060E112E1F051A12150937
:1004A000011F011F101F0F180F1F0C1F1B041B0320
:1004B0001C03191513001F11030418111F0002015A
:1004C000022020200001020C121E1F120C0C12121E
:1004D0000C121F0C1A14041E05242A1E1F021C14C1
:1004E0001D1020201D1F0814111F101E041E1E02A7
:1004F0001C0C120C3E0A040C123E1E040214160AB6
:10050000020F120E101E0E100E1E081E120C1226C6
:10051000281E322A26041E21001F00211E0401026B
:10052000013F213F05077F4141417F3E5B4F5B3EDD
:100530003E6B4F6B3E183C783C18183C7E3C181CB8
:10054000577D571C1C5E7F5E1C007E43437E007EF1
:1005500073737E007E7F7F7E7F4141417F30483ACA
:10056000060E06297929067F4141417F60703F02CE
:10057000042A1C361C2A7F3E1C080000081C3E7FF3
:1005800014227F22143C3C3C7EFF18423C817E3E7C
:100590006375633E3E616B633E3E636B6B3E04027C
:1005A0007F020410207F201008082A1C08081C2A3B
:1005B0000808143E554122637569756310181C18AC
:1005C00010040C1C0C04000000000000005F000080
:1005D0000007000700147F147F14042A7F2A1023C9
:1005E0001308646236495620500008070300001CB7
:1005F0002241000041221C002A1C3E1C2A08083E01
:10060000080800E0600000080808080800606000B2
:100610000060100804033E5149453E00427F4000FF
:1006200062514949462141494D331814127F102720
:10063000454545393C4A4949304121110907364968
:10064000494936064949291E0000240000008064FB
:100650000000081422410014141414140041221440
:100660000802015909063E415D594E7C1211127C67
:100670007F494949363E414141227F4141221C7F09
:10068000494949417F090909013E414151327F08E9
:1006900008087F00417F41002041413F017F08144D
:1006A00022417F404040407F020C027F7F020408CD
:1006B0007F3E4141413E7F090909063E416141BEFD
:1006C0007F09192946264949493201017F01013F25
:1006D0004040403F1F2040201F3F4038403F6314B0
:1006E00008146303047804036151494543007F41C2
:1006F000410003040810600041417F000402010230
:1007000004808080808000030708002054547840D3
:100710007F284444383844444428384444287F38A7
:1007200054545418087E09090218A4A49C787F0820
:1007300004047800447D4000006080847D7F1010B8
:10074000284400417F40007C047804787C0804043D
:10075000783844444438FC1824241818242418FCFD
:100760007C080404080854545420043F4444203CAA
:100770004040207C1C2040201C3C4020403C442821
:100780001028444C9090907C4464544C44000836AB
:10079000410000007F0000004136080018040810E6
:1007A0000C7F4141417F0A4E6F20534420636172A8
:1007B00064206F720A6E6F204C4F414445522E48A0
:1007C00045580A0A153A45786974001D20466C613F
:1007D0007368696E670A20206C6F616465722E2EE3
:1007E0002E0A0A444F4E2754205455524E204F464D
:1007F0004621000A0A153A49676E6F7265006D5608
:100800000A0A504C45415345205455524E204F46FC
:100810004620004C4F572042415454455259212004
:1008200000177361766500166261636B0015747959
:100830007065000A0A0A153A6F6B617920163A65ED
:1008400064697400596F7520656E74657265640A19
:1008500000175344001613780016131400151020C7
:10086000001520100000540A03E181867F3E186DB8
:10087000830F0F0E0183866033186DC3198F180321
:10088000C38E6033186DE330CF1803C39E603630DB
:10089000CDE360CF3006C79E7E3E30CDB360CF3013
:1008A0000CC6F6603330D9B660CF33CFCCF660617A
:1008B000B0DB1E60CF30D86CE6C061B0DB1E618F4C
:1008C00019986CC6C063B19B0E330F0FB078C6FF8A
:1008D0007E1F1B061E0F050089300802380249786A
:1008E00068140000F6E8DBCFC3B8AEA49B928A82FE
:1008F0007B746E68625C57524E4945413E3A3734CC
:10090000312E2C29272523211F1D1C1A19171615D6
:1009100014131211100F0E0D0C0B0A0908070645CF
:10092000006801000005006801380100000500387A
:1009300001680100003D0939090101FF030101F7C8
:10094000030000000800020100000304070000008B
:100950000000000000010204081020408001020491
:1009600008102001020408102004040404040404F4
:100970000402020202020203030303030300000055
:100980000023002600290000000000250028002B7D
:100990000000000000240027002A00005316112444
:1009A0001FBECFEFD8E0DEBFCDBF11E0A0E0B1E0C9
:1009B000E2E2F0E602C005900D92AC35B107D9F73E
:1009C00025E0ACE5B1E001C01D92AC37B207E1F71C
:1009D00019E0CEE9D9E004C02297FE010E947A2FE7
:1009E000CC39D107C9F70E94902B0C940F300C948E
:1009F0000000DC01643508F053C0403308F050C0FB
:100A000090968C919097342F359535953595E62FA6
:100A1000FF27E7FDF095242F2770823099F4DF013E
:100A2000A359BC4F84E53802A00DB11D11248C914F
:100A300090E0022E02C0959587950A94E2F7809582
:100A4000817009C0833039F446271C968C91482761
:100A500040FF03C014C0811112C084E53802E00DCC
:100A6000F11D1124E359FC4F81E090E0022E01C0FA
:100A7000880F0A94EAF780959081982310C084E546
:100A80003802E00DF11D1124E359FC4F81E090E0A4
:100A9000022E01C0880F0A94EAF79081982B908368
:100AA0000895CF93DF93EB01FA014091DC0250915E
:100AB000DD02841B950B089697FD03C08F7799275D
:100AC00006C060E870E00E94182F80589F4F08977A
:100AD000918380838091DA029091DB02AE01481B02
:100AE000590BCA01089660E670E097FD03C00E94AA
:100AF000182F04C00E94182F805A9F4F0897D901C1
:100B00008D939C93208131812535310534F421E08A
:100B1000C1970CF020E0822F01C080E0DF91CF91DF
:100B20000895CF93DF93EC01FB01DA018C918130C2
:100B300099F058F08230B9F0833001F588819981BD
:100B4000820F911D27FD9A9517C080819181821B8C
:100B5000910927FD93950DC088819981821B910988
:100B600027FD939509C080819181820F911D27FDFA
:100B70009A959183808302C0998388838881998123
:100B800080589F4F60E870E00E94182F99838883F7
:100B900080819181805A9F4F60E670E00E94182FFB
:100BA00091838083DF91CF9108959C01261B370BA1
:100BB00037FF03C0319521953109822FF901FF27B5
:100BC0009A0157FF02C02F5F3F4FB9017595679596
:100BD000E617F70714F0481B842F08958F929F9211
:100BE000AF92BF92CF92DF92EF92FF920F93CF938B
:100BF000DF9300D000D0CDB7DEB729EBE22E21E0A5
:100C0000F22E3DEC832E31E0932E41EEA42E41E0F6
:100C1000B42E5FEAC52E51E0D52ED7018D917D010E
:100C2000882331F1F401608171819E012F5F3F4F74
:100C3000AE014D5F5F4FD5018D919C910E94510592
:100C40008823B1F0D601EC91F0E0E95BFE4F208102
:100C5000213039F449816B8183E393E00E94F904E8
:100C600007C0022F49816B8183E393E00E947118D2
:100C7000B2E08B0E911CE2E0AE0EB11CFFEFCF1A7A
:100C8000DF0A83ECE81681E0F80639F60F900F9042
:100C90000F900F90DF91CF910F91FF90EF90DF9029
:100CA000CF90BF90AF909F908F9008950F938091B9
:100CB000A5019091A601892B09F45AC010923C031A
:100CC00080E390913803891B80933D03E091A80154
:100CD000F0E0EE0FFF1FEF51FE4F6591749183E33B
:100CE00093E00E94DD2B2091A701233038F002E031
:100CF0004EE26EEF83E393E00E9471188091A801A9
:100D00003091380390913703882301F16091A50158
:100D10007091A6016436710530F4892F6A3071052F
:100D200018F4880F01C080E0292F220F290F821BA1
:100D30008C5A80933C0380E3831B80933D034AE0FD
:100D400050E083E393E00F910C941F2D892F880FBF
:100D5000890F81958C5A80933C0380E3831B809399
:100D60003D036DE271E083E393E00F910C94DD2B82
:100D70000F910895CF93DF93E5E5F2E020E030E0B6
:100D80004191411120C0F901EB5AFD4F41E04083F0
:100D9000E901CC0FDD1FFE01EB5CFD4F91838083E9
:100DA000FE01EB5EFD4F7183608325E030E040E0A3
:100DB00050E060E070E0CB010E94672DCB50DE4F29
:100DC0007983688305C02F5F3F4F20313105C1F61D
:100DD000DF91CF910895AF92BF92CF92DF92EF92C1
:100DE0000F93CF93DF9300D000D0CDB7DEB7F5E5FA
:100DF000AF2EF2E0BF2EC12CD12CF50180818823CB
:100E000031F1F601EB5EFD4F608171819E012F5F34
:100E10003F4FAE014D5F5F4FF601EB5CFD4F8081B0
:100E200091810E945105882381F0498142506B8154
:100E30006250E12CF601EB50FE4F008126E332E0D8
:100E400083E393E00E944B1B02C0F5011082FFEF89
:100E5000AF1ABF0A82E0C80ED11CE0E2CE16D10460
:100E600061F60F900F900F900F90DF91CF910F913F
:100E7000EF90DF90CF90BF90AF900895CF93DF9326
:100E800000D000D0CDB7DEB76091A1017091A20172
:100E90009E012F5F3F4FAE014D5F5F4F8091A301D9
:100EA0009091A4010E945105882341F02CE232E088
:100EB00049816B8183E393E00E94191A0F900F9090
:100EC0000F900F90DF91CF9108952F923F924F9204
:100ED0005F926F927F928F929F92AF92BF92CF92CA
:100EE000DF92EF92FF920F931F93CF93DF93282E01
:100EF000312C90E09C012B593D4F2901880F991FFF
:100F0000EC01CB56DD4FFC01EB54FD4F3F018091CE
:100F1000D502381638F5231419F1832D90E0FC0121
:100F2000EB59FD4FA080B12CF201208130E0880FF9
:100F3000991FFC01EB56FD4FC080D180FC01EB54A2
:100F4000FD4FE080F18048815981F301608171811A
:100F50004501890185EE92E00E944B26811104C073
:100F60003394D5CF80E001C081E0DF91CF911F9114
:100F70000F91FF90EF90DF90CF90BF90AF909F9038
:100F80008F907F906F905F904F903F902F9008953B
:100F9000EF92FF920F931F93CF93DF9300D000D077
:100FA000CDB7DEB7F12C8091D502F816B8F50F2D2C
:100FB00010E0C801880F991FFC01EB56FD4F6081BE
:100FC0007181FC01EB54FD4F9E012F5F3F4FAE013D
:100FD0004D5F5F4F808191810E9451058823E1F030
:100FE000F801EB59FD4F8081F801EB57FD4F498126
:100FF0006B81863039F042506250E12C008124E54B
:1010000032E006C041506150E12C00812AE432E018
:1010100083E393E00E944B1BF394C5CF0F900F9096
:101020000F900F90DF91CF911F910F91FF90EF9054
:101030000895DF92EF92FF920F931F93CF93DF9368
:1010400085EE92E00E94551F8823D1F322E030E024
:1010500040E050E060E070E0CB010E94672D675FE8
:1010600060933C0322E030E040E050E060E070E05C
:10107000CB010E94672D60933D036DEC70E083E32C
:1010800093E00E941F2C10923A0310923C0380912F
:10109000380380933D03C3E9D1E00CE511E0DD2482
:1010A000D3947E0188819981892B31F46DE283E3A9
:1010B00093E00E94042C05C0B80183E393E00E94F2
:1010C000022C90913703892F880F890F81958C5AB4
:1010D00080933C0380913803D89E802D1124809307
:1010E0003D032296F701608171814AE050E083E37D
:1010F00093E00E94DC2CD394055F1F4FF6E0DF12D3
:10110000D0CF64E08FEE92E00E948617882359F0DA
:101110008AE093E0DF91CF911F910F91FF90EF90C4
:10112000DF900C94242965E08FEE92E00E948617F0
:101130008111EECF66E08FEE92E00E94861781115A
:10114000E7CF7ECF10923C0310923D0364E283E32D
:1011500093E00E94042C60919F017091A0014AE0ED
:1011600050E083E393E00C94DC2C0F931F93CF9318
:101170008091D802882309F46AC081508093D802F4
:101180008091D90290E09C012F5F3F4F442737FDAB
:101190004095542F66277727681B790B882777FDA2
:1011A0008095982F0E94672D2091DC023091DD02FE
:1011B0008901222717FD2095322F060F171F281FA0
:1011C000391F1093DD020093DC028091D90290E078
:1011D0009C012F5F3F4F442737FD4095542F6627D2
:1011E0007727681B790B882777FD8095982F0E94B9
:1011F000672D2091DA023091DB028901222717FD49
:101200002095322F060F171F281F391F1093DB025E
:101210000093DA028091EA0286958695C091E802F1
:101220002091D902829F90011124442737FD4095D7
:10123000542F60E070E0CB010E94672DC61B6C2F1D
:1012400085EE92E0CF911F910F910C949816CF915B
:101250001F910F910895AF92BF92CF92DF92EF92BC
:10126000FF920F931F93CF93DF9353E9E52E51E045
:10127000F52E6CE5C62E61E0D62ECAE0D0E000E087
:1012800010E05E018AE0A81AB108C8018A0D9B1D12
:101290000E94F12FF601E00FF11F80830F5F1F4FB7
:1012A0000A30110591F7CE010E94F12F082F10E0AE
:1012B000F70111830083CE0101960E94F12F282FA0
:1012C00030E0322F2227200F311F2F3FFFEF3F0743
:1012D00011F420E030E0F701219331937F012C9647
:1012E000FBE0CF0ED11CC634D10549F6DF91CF917A
:1012F0001F910F91FF90EF90DF90CF90BF90AF9034
:1013000008958F929F92AF92BF92CF92DF92EF9209
:10131000FF920F931F93CF93DF93CDB7DEB72A973A
:101320000FB6F894DEBF0FBECDBF68E871E085EE62
:1013300092E00E942F2664E275E083E393E00E942E
:10134000381C4BE068E871E085EE92E00E94612174
:1013500080919F019091A00190939C0180939B01AB
:101360000BE911E0FDE7EF2EF1E0FF2EF801D2903E
:10137000C2908F01A280B380CA14DB045CF073E9D1
:10138000C72E71E0D72EECE5AE2EE1E0BE2E0AE0CE
:1013900010E020C0B701CE0101960E94EA2F47015C
:1013A000FBE08F0E911CB401C7010E94EA2FBE0121
:1013B0006F5F7F4FC4010E94EA2FF801B182A082C3
:1013C000D382C282FBE0EF1AF10881E003391807EB
:1013D00069F6D5CFE12CF12C4801EAE08E1A91088C
:1013E000F501EE0DFF1D6081C701880D991D0E945A
:1013F000F92FEFEFEE1AFE0AFAE0EF16F10481F78B
:10140000F6016081C8010E94F92FF6016181F2E0C6
:10141000CF0ED11CC80101960E94F92F045F1F4F07
:101420008BE0A80EB11C06341105A1F62A960FB662
:10143000F894DEBF0FBECDBFDF91CF911F910F910A
:10144000FF90EF90DF90CF90BF90AF909F908F90E4
:101450000C941908282F862F6CE00E94F82E80919A
:101460000C01E22FEF70F0E0A3E0F595E795AA9567
:10147000E1F7989FE00DF11D1124E859FD4FE4912B
:10148000F0E0822F877020E830E002C03595279584
:101490008A95E2F7E223F32381E0EF2B09F480E061
:1014A00008953F924F925F926F927F928F929F9298
:1014B000AF92BF92CF92DF92EF92FF920F931F9362
:1014C000CF93DF939B0180589F4F60E870E00E94AC
:1014D000182F482FE92F782EC901805A9F4F60E6B8
:1014E00070E00E94182F682E9C0197FF02C0295FB0
:1014F0003F4F7901C3E0F594E794CA95E1F7242FB3
:101500003E2F37FF02C0295F3F4F6901B3E0D594FA
:10151000C794BA95E1F7C0E0D0E0570186E0A80E85
:10152000B11C46018AE0880E911C5C2E5E0C852D54
:10153000992787FD9095A816B9063CF1452C440CD7
:10154000440C440C461800E010E0302E3C0C232DD7
:10155000332727FD309582169306ACF0652D832D39
:101560000E942A0A882361F0632D660F660F660FBA
:1015700067192EE532E0442D83E393E00E94191AA7
:101580000F5F1F4FE2CF2196D0CFDF91CF911F91F8
:101590000F91FF90EF90DF90CF90BF90AF909F9012
:1015A0008F907F906F905F904F903F9008958F92B3
:1015B0009F92BF92CF92DF92EF92FF920F931F9371
:1015C000CF93DF931F92CDB7DEB78C014B01B22EC4
:1015D0006B0177FF03C087E0C80ED11C23E0D594D0
:1015E000C7942A95E1F7780117FF03C0E7E0EE0EF4
:1015F000F11C93E0F594E7949A95E1F76C2D8E2D0C
:1016000049830E942A0A498181113AC0040F111DA1
:10161000A8014150510957FF02C0495F5F4F8A013D
:1016200083E0159507958A95E1F76C2D802F0E9430
:101630002A0A811125C08B0C911CB40161507109DB
:1016400077FF02C0695F7F4F6B0113E0D594C794A9
:101650001A95E1F76C2D802F0E942A0A811110C083
:101660006C2D8E2D0F90DF91CF911F910F91FF90D8
:10167000EF90DF90CF90BF909F908F900C942A0AAC
:1016800081E00F90DF91CF911F910F91FF90EF902C
:10169000DF90CF90BF909F908F9008954F925F9270
:1016A0006F927F929F92AF92BF92CF92DF92EF9212
:1016B000FF920F931F93CF93DF932091A501309159
:1016C000A6012115310509F4E8C08091A701811117
:1016D00011C1E9EBF1E0C0E0D0E09C2E81918111D5
:1016E000D6C081E0FE01E754FE4F80838091A801BF
:1016F000FE01E155FE4F808390E0FC01E35CFE4F6C
:1017000040814093A701215031093093A6012093D5
:10171000A501FC01ED5CFE4F4080FC01E95BFE4F42
:101720008081C42C80FD02C0C19401C0C094A090EF
:10173000E202B090E302552447FC50942FEF421A86
:10174000520A662457FC6094762CDD24C7FCD094A2
:10175000ED2CFD2CA3019201C701B6010E94672D5B
:101760008E01000F111FF801EF51FE4FA3E0AA0EEA
:10177000B11CA091A801B0E0A95BBE4F2C912695A9
:10178000A21AB108A60EB71EB182A082A090E002F4
:10179000B090E102A3019201C701B6010E94672D3A
:1017A0004091A801E42FF0E003531E4FB3E0AB0ECD
:1017B000B11C9F01295B3E4FD9012C912695A21A9D
:1017C000B108A60EB71ED801AD92BC92CD53DE4F24
:1017D0008091DE0288839092A901413011F044305B
:1017E00021F48091560380FD0BC0EE0FFF1FED55D5
:1017F000FE4F6591749140E08AE093E00E94582783
:101800008091A801813059F40E94DC2F60FF07C04D
:1018100040E069EC71E08AE093E00E945827E09193
:10182000A801F0E0E75DFE4FD0812D2F21954EED10
:1018300052E060EE72E082EE92E00E949105C0E01C
:10184000CD1771F06091E0027091E10226E046E070
:101850008091E2029091E3020E94D70A81110CC0AC
:101860008091A801843009F045C081E08093D902BD
:1018700082E08093D8023EC021E04EED52E060EE5F
:1018800072E082EE92E00E949105CF5FD9CF21965F
:10189000CA30D10509F021CF2DC0E091A801EE2377
:1018A00011F0E15001C0E0E0E093A801F0E0EE0F9C
:1018B000FF1FE15EFE4F808191819093A60180938E
:1018C000A50184E18093A7014EE161E371E085EE1B
:1018D00092E0DF91CF911F910F91FF90EF90DF90F9
:1018E000CF90BF90AF909F907F906F905F904F9000
:1018F0000C942B1EDF91CF911F910F91FF90EF90D1
:10190000DF90CF90BF90AF909F907F906F905F904F
:101910004F9008950F931F93CF93DF9300D000D083
:10192000CDB7DEB711E020E130E040E050E060E00C
:1019300070E0CB010E94672DE3E0660F771FEA9508
:10194000E1F77093A4016093A3012CE030E040E044
:1019500050E060E070E0CB010E94672DF3E0660F7D
:10196000771FFA95E1F77093A2016093A10128E037
:1019700048E08091A3019091A4010E94D70A082F0A
:101980006091A1017091A2019E012F5F3F4FAE01B6
:101990004D5F5F4F8091A3019091A4010E9451057A
:1019A0008111C1CF011709F4BECF0F900F900F9096
:1019B0000F90DF91CF911F910F9108958F929F9279
:1019C000AF92BF92CF92DF92EF92FF920F931F934D
:1019D000C090E002D090E102E090E202F090E302D9
:1019E0004091A1015091A2014E5F5F4F6091A30110
:1019F0007091A4016E5F7F4FB6E08B2E912C16E0A4
:101A0000A12EB12C04E010E024E030E085EE92E05D
:101A10000E944B26882309F45AC080919F0190911F
:101A2000A00105978CF44EE16FE171E085EE92E044
:101A30001F910F91FF90EF90DF90CF90BF90AF90EC
:101A40009F908F900C942B1E8091A8014EE18430C2
:101A500070F464E171E085EE92E00E942B1E40E09C
:101A600067E771E08AE093E00E94582706C069E0CA
:101A700071E085EE92E00E942B1E80919F01909173
:101A8000A00105979093A00180939F010E948A0C6A
:101A9000E091A8018E2F90E0049714F4EF5F01C04D
:101AA000E4E0E093A801F0E0EE0FFF1FE15EFE4FDF
:101AB000808191819093A6018093A5018091DF029E
:101AC000853014F48F5F01C086E08093DF021F91A0
:101AD0000F91FF90EF90DF90CF90BF90AF909F90CD
:101AE0008F900895CF93C82FE82FF0E0DF01AB5916
:101AF000BD4F4C91EE0FFF1FDF01AB56BD4F6D91F7
:101B00007C91EB54FD4F242F808191810E94D70A54
:101B1000811104C08C2FCF910C94650781E0CF9187
:101B200008959F92AF92BF92CF92DF92EF92FF9271
:101B30000F931F93CF93DF93982EC82FD0E0DE0131
:101B4000AB59BD4F84E08C93FE01EB58FD4F809163
:101B50000B0180838091D702811113C02091D6029E
:101B6000822F90E003971CF08FEF820F01C081E07D
:101B70008093D6028093D70286E08C9380910A01ED
:101B800080838E01000F111FC8018B549D4F7C0173
:101B90000B561D4F40E8A42EB12C50E6C52ED12C7B
:101BA00020E230E040E050E060E070E0CB010E94D5
:101BB000672D660F771F660F771FF70171836083AC
:101BC00028E130E040E050E060E070E0CB010E94AE
:101BD000672D660F771F660F771FF801718360838B
:101BE000892D0E94720D8111DBCFF70180819181D7
:101BF00080589F4F2091DC023091DD02821B930BB5
:101C0000B5010E94182F8435910554F2F8018081A6
:101C10009181805A9F4F2091DA023091DB02821B22
:101C2000930BB6010E94182FC0970CF4B9CF0E94F5
:101C3000DC2FCB57DD4F24E030E040E050E00E9445
:101C40004E2F688381E0DF91CF911F910F91FF901C
:101C5000EF90DF90CF90BF90AF909F900895CF937B
:101C60003091D502E5EBF2E0A5E9B2E020E08FE0AB
:101C700097E2231731F0819391938D939D932F5F7A
:101C8000F8CFC0E08091D502C81738F48C2F0E949D
:101C9000910D882321F0CF5FF5CF81E001C080E076
:101CA000CF9108952F923F924F925F926F927F92C1
:101CB0008F929F92AF92BF92CF92DF92EF92FF925C
:101CC0000F931F93CF93DF9300D000D0CDB7DEB733
:101CD000712C72E0672EE4E08E2E912CA12CB12C99
:101CE0008091D502781608F0B3C0272D30E03C83F0
:101CF0002B83C901880F991F8C010B541D4FF801CC
:101D0000208031804090DC025090DD029C012B56F7
:101D10003D4F7901F901C080D1802091DA023091E4
:101D2000DB023A8329836091E2027091E30240E88A
:101D300050E0C1010E94D505843768F56091E0024A
:101D40007091E10240E650E0C6010E94D505803561
:101D500010F52B813C812B573D4F3C832B8321E099
:101D60004B815C81B701C8010E949105872D0E94BB
:101D7000720D882391F02FEF4B815C81B701C80170
:101D80000E9491050E94DC2FA50194010E944E2F14
:101D9000EB81FC8160837394A3CF20E230E040E0CC
:101DA00050E060E070E0CB010E94672D672B682B4C
:101DB000692B41F320E130E040E050E060E070E06A
:101DC000CB010E94672D672B682B692B21F722E03E
:101DD00030E040E050E060E070E0CB010E94672D11
:101DE000672B682B692BD9F0C10180589F4F84194C
:101DF000950960E870E00E94182F2AE230E0281B65
:101E0000390BC901181619062CF423E0EB81FC816B
:101E10002083C1CF81E0EB81FC818083BCCFC601F0
:101E2000805A9F4F29813A81821B930B60E670E0B4
:101E30000E94182FE8E1F0E0E81BF90BCF01EB81DD
:101E4000FC811816190614F46082A5CF1082A3CF66
:101E50000F900F900F900F90DF91CF911F910F91E6
:101E6000FF90EF90DF90CF90BF90AF909F908F90BA
:101E70007F906F905F904F903F902F9008952F929A
:101E80003F924F925F926F927F928F929F92AF920A
:101E9000BF92CF92DF92EF92FF920F931F93CF9357
:101EA000DF9300D000D000D0CDB7DEB7382EE82EBB
:101EB000F12C70E09B0121553E4F3E832D83D901CB
:101EC0008C9190E0F701EB58FD4F6F01FC01EE5B48
:101ED000FE4FD6012C913081231B2C93FC01E25D37
:101EE000FE4F2080F701EB59FD4F2F018081863096
:101EF00011F4269426949B012D533E4F59018701DE
:101F0000000F111FC8018B569D4F3C01D801AB54E7
:101F1000BD4F4D01222DA501BC01CD010E949105AF
:101F2000832D0E94720D882339F0222D2195A50161
:101F3000B301C4010E949105F701EB57FD4FD50194
:101F40008C9190E00296837099278083F6018081BE
:101F500018160CF477C080919F019091A001019612
:101F60009093A00180939F0180919D0190919E018B
:101F7000019690939E0180939D018091D70281509C
:101F80008093D702AD81BE818C91833039F040E0DF
:101F900062E072E08AE093E00E945827F2018081BB
:101FA000863049F480919F019091A001049690930E
:101FB000A00180939F0198012B563D4F7901D901D3
:101FC0006D917C910B541D4FF801808191810E948D
:101FD000BA06D7016D917C919E012F5F3F4FAE01F4
:101FE0004D5F5F4FF801808191810E9451058823E8
:101FF00061F0D2012C912F5F498141506B8161507A
:10200000022F83E393E00E947118832D0E94910DAB
:102010004091D5024031B0F480919D0190919E0194
:1020200066E070E00E94182F6D5F7F4F242F30E034
:10203000621773073CF081E0840F8093D502842FF0
:102040000E94910D26960FB6F894DEBF0FBECDBF4D
:10205000DF91CF911F910F91FF90EF90DF90CF9084
:10206000BF90AF909F908F907F906F905F904F90B8
:102070003F902F9008952F923F924F925F926F92D0
:102080007F928F929F92AF92BF92CF92DF92EF9208
:10209000FF920F931F93CF93DF9300D000D000D017
:1020A000CDB7DEB78091AA01882309F489C0815099
:1020B0008093AA0184E08093D90282E08093D802C1
:1020C00026E030E040E050E060E070E0CB010E94AC
:1020D000672D362E8AE0380E6090AD017090AE010B
:1020E00024E030E040E050E06CEF7FEF8FEF9FEFB7
:1020F0000E94672D032D069510E0660E771E601A6C
:10210000710A4090AB015090AC0124E030E040E017
:1021100050E06CEF7FEF8FEF9FEF0E94672D460E30
:10212000571E401A510A212C832D90E09E838D83E7
:102130008091D502281630F5822D90E0FC01EB59F4
:10214000FD4F208130E0880F991FFC01EB56FD4FB9
:1021500040815181FC01EB54FD4F608171818D8084
:102160009E80540162017301890185EE92E00E9414
:102170004B26882329F06091A901822D0E943F0FF0
:102180002394D6CF9E012F5F3F4FAE014D5F5F4F2F
:10219000B201C3010E945105882391F062E083E3FC
:1021A00093E00E942318032D232D49816B8183E343
:1021B00093E00E94711861E083E393E00E9423188A
:1021C00026960FB6F894DEBF0FBECDBFDF91CF913C
:1021D0001F910F91FF90EF90DF90CF90BF90AF9045
:1021E0009F908F907F906F905F904F903F902F9037
:1021F00008952F923F924F925F926F927F928F92AB
:102200009F92AF92BF92CF92DF92EF92FF920F9385
:102210001F93CF93DF93CDB7DEB728970FB6F8940F
:10222000DEBF0FBECDBF89EB91E09A83898311EEAB
:10223000612E11E0712EEDECF1E0F887EF838FEA6B
:1022400091E09C838B83412C512C242CE981FA81D1
:102250008081882309F49AC0EB81FC81808190E021
:10226000FC01E95BFE4FF080FC01E85CFE4F208141
:10227000A2014D535E4F6F817885C3010E94910585
:10228000EF81F885608171812F2D4F2DF3018081C1
:1022900091810E94D70A811106C0312C8F2D90E0C8
:1022A0009E838D8348C0E981FA811082EB81FC8195
:1022B0008081833009F06AC0F3018081918190931D
:1022C000AE018093AD01EF81F8858081918190937B
:1022D000AC018093AB01F8E0F093AA0140E069E91A
:1022E00071E08AE093E00E94582750C0832D90E06F
:1022F000FC01EB59FD4FA080B12C880F991FFC0108
:10230000EB56FD4FC080D180FC01EB54FD4FE080C7
:10231000F180EF81F88540815181F3016081718105
:1023200045010D811E81980185EE92E00E944B26A9
:10233000811106C033948091D5023816B8F226C0B8
:10234000EB81FC8180818330D1F4F3018081918124
:102350009093AE018093AD01EF81F88580819181EA
:102360009093AC018093AB01F8E0F093AA0140E0B8
:1023700069E971E08AE093E00E94582704C0622D69
:10238000832D0E943F0FE981FA811082FFEF4F1ADF
:102390005F0A89819A8101969A83898392E0690E06
:1023A000711CEF81F8853296F887EF838B819C81D1
:1023B00001969C838B839AE04916510409F045CF1E
:1023C00028960FB6F894DEBF0FBECDBFDF91CF9138
:1023D0001F910F91FF90EF90DF90CF90BF90AF9043
:1023E0009F908F907F906F905F904F903F902F9035
:1023F000089520919F013091A00180919B019091BF
:102400009C018217930714F40E9481091092A00185
:1024100010929F0110929E0110929D011092A801AE
:102420008FE097E29093A6018093A5011092A701F7
:102430001092D80286E08093DF0280E18093D6027A
:102440008093D70284E08093D50220E130E040E021
:1024500050E060E070E0CB010E94672D83E0660FE2
:10246000771F8A95E1F77093E3026093E2022CE014
:1024700030E040E050E060E070E0CB010E94672D6A
:1024800093E0660F771F9A95E1F77093E1026093EE
:10249000E00226E046E08091E2029091E3020E9491
:1024A000D70A8111D2CF8091E2029091E3028797FF
:1024B0009093DD028093DC028091E0029091E10232
:1024C00045979093DB028093DA020E942F0E8823B7
:1024D00009F4BBCF0E948A0CE9EBF1E0119281E094
:1024E000E33CF807D9F7E5E5F2E0119282E0E53642
:1024F000F807D9F71092AA01089585EE92E00E949C
:10250000D42564E275E083E393E00E94381C60E820
:1025100072E085EE92E00E94562585EE92E00E94E0
:10252000EE1D0E942B090C94F9112F923F924F92AD
:102530005F926F927F928F929F92AF92BF92CF9253
:10254000DF92EF92FF920F931F93CF93DF9300D010
:1025500000D0CDB7DEB71092FD021BE002E086E0AE
:10256000F82E90E1E92E115099F085EE92E00E944C
:10257000551F8823D1F300933B03F0923C03E09274
:102580003D0363EC70E083E393E00E94DD2BEBCF2F
:1025900081E080933B034CE365EB70E085EE92E0D5
:1025A0000E942B1EB3E03B2E1CE0412E85EE92E0F4
:1025B0000E94551F8823D1F366E08FEE92E00E94BF
:1025C00086178823D9F08AE093E00E943A290F9079
:1025D0000F900F900F90DF91CF911F910F91FF906F
:1025E000EF90DF90CF90BF90AF909F908F907F90B3
:1025F0006F905F904F903F902F90089541E062E080
:102600008FEE92E00E948F17882319F03092DE023D
:102610000BC041E060E08FEE92E00E948F178823AC
:1026200029F081E08093DE0211E001C010E041E07A
:1026300063E08FEE92E00E948F17882321F082E002
:102640008093DE020DC041E061E08FEE92E00E94D7
:102650008F17882319F01092DE0202C0112319F19E
:102660002091E4024EED52E060EE72E082EE92E0E4
:102670000E9491056091E0027091E10226E046E03F
:102680008091E2029091E3020E94D70A882359F0D8
:102690002091E40221954EED52E060EE72E082EE70
:1026A00092E00E9491058091E2029091E302879767
:1026B0009093DD028093DC028091E0029091E10230
:1026C00045979093DB028093DA020E94B5086091EF
:1026D000DA027091DB028091DC029091DD020E94AF
:1026E000510A6091E0027091E1029E012F5F3F4F1D
:1026F000AE014D5F5F4F8091E2029091E3020E9434
:102700005105498141506B816150E12C0091DE02FD
:1027100020E432E083E393E00E944B1B0E94520EC0
:102720000E94C8078091A701882319F081508093E7
:10273000A70141E064E08FEE92E00E948F178823AA
:1027400049F041E065E08FEE92E00E948F17882308
:1027500009F497C141E065E08FEE92E00E948F1787
:10276000882311F082E001C081E08093E4020E949E
:10277000F9100E94EE050E943B100E94EB060E9499
:10278000DE0C0E943E0716E5612C712C8091DF0261
:10279000992787FD9095861597051CF022E232E077
:1027A00015C060E083E393E00E94231822E232E048
:1027B00040E0612F83E393E00E94191A40E061E05A
:1027C00083E393E00E9427182EE032E040E0612F7F
:1027D00083E393E00E94191A22E0620E711C1950E3
:1027E0001233A1F66091DF0261110BC08091560394
:1027F00080FD0DC082E08093D90281E08093D802F1
:1028000006C0613021F46093D9026093D80260FF62
:1028100010C067FD6F5F6595609539E0639F602D1F
:1028200011246A5A28E132E040E083E393E00E94F9
:10283000191A0E9456060E94A208512CA2E02A2EC4
:102840008091D502581608F0B1CE852D90E0FC019C
:10285000EB59FD4F3F01208130E0C090E002D09065
:10286000E102E090E202F090E302880F991FFC0180
:10287000EB56FD4F40815181FC01EB54FD4F6081CF
:102880007181E6E08E2E912CF6E0AF2EB12C8901FD
:1028900085EE92E00E944B26882309F4F0C08091D7
:1028A000DF029FEF980F9093DF022092D902F4E0AD
:1028B000F093D802F3019081963029F482508093EE
:1028C000DF023092D90240E068E072E08AE093E0F3
:1028D0000E945827852D0E94910D8091DF0287FF6D
:1028E000CEC010E085EE92E00E94551F8823D1F300
:1028F0000E94C8070E94EE050E94EB060E943E0758
:102900000E9456060E94A2086091DA027091DB02D2
:102910008091DC029091DD020E94510A4981415070
:102920006B816150E12C0091DE0220E432E083E310
:1029300093E00E944B1B60E083E393E00E94231826
:1029400000E3212F40E060E083E393E00E947118F0
:1029500064E5611B212F40E083E393E00E9471183E
:1029600040E061E083E393E00E94271840923C033B
:1029700081E080933D036AEA70E083E393E00E9484
:10298000DD2B1E5F1E3309F0ADCF11E085EE92E026
:102990000E94551F8823D1F320919F013091A001FF
:1029A00080919B0190919C0182179307D4F422E0BF
:1029B00030E040E050E060E070E0CB010E94672D25
:1029C0006E5F60933C0322E030E040E050E060E066
:1029D00070E0CB010E94672D60933D036CE970E0CD
:1029E00006C040923C0310933D0361E970E083E32D
:1029F00093E00E94DD2B10923C0340923D0366E879
:102A000070E083E393E00E94DD2B60919F01709161
:102A1000A0014AE050E083E393E00E94D42C69E7F0
:102A200070E083E393E00E94DD2B60919D01709143
:102A30009E014AE050E083E393E00E94D42C61E7DA
:102A400070E083E393E00E94DD2B10923C03F8E2F8
:102A5000F0933D0368E670E083E393E00E94DD2B92
:102A600064E08FEE92E00E948617882309F48ECFEF
:102A70008AE093E00E9424290E94F91197CD539493
:102A8000DFCE0E944E0B66CECF93DF93D1E085EE72
:102A900092E00E94551F8823D1F345E06EE371E078
:102AA00085EE92E00E940F20C82F8230E1F1C4F43D
:102AB000882311F1813009F0EBC00E94F91162EA1C
:102AC00073E083E393E00E94381C0E94951264E255
:102AD00075E083E393E00E94381CC093FD02D8C0E8
:102AE000833021F1843009F0D3C060E872E085EED4
:102AF00092E00E945625CBCF64E670E080E090E043
:102B00000E94EF2962EA73E083E393E00E94381C9D
:102B10000E94951264E275E083E393E00E94381C02
:102B2000D093FD02B4CF0E941908B1CF62EA73E0DE
:102B300083E393E00E94381C85EE92E00E94551FCB
:102B40008823D1F366E08FEE92E00E9486178823F7
:102B500059F064E275E083E393E00E94381C8AE058
:102B600093E00E943A2993CF64E071E083E393E01D
:102B70000E94DD2B6091FF02709100034AE050E05B
:102B800083E393E00E941F2D61E071E083E393E013
:102B90000E941F2C68EF70E083E393E00E94DD2B1E
:102BA0004AE050E06091FE0283E393E00E94012D31
:102BB00065EF70E083E393E00E941F2C6EEE70E0FF
:102BC00083E393E00E94DD2B6091E6027091E702BF
:102BD0004AE050E083E393E00E94252D63EE70E02D
:102BE00083E393E00E94DD2B4AE050E06091E8022D
:102BF00083E393E00E94082D6BED70E083E393E0A4
:102C00000E94DD2B8AE093E00E9473294AE050E0A5
:102C1000682F83E393E00E94012D69ED70E083E368
:102C200093E00E94DD2B4AE050E06091100383E3C3
:102C300093E00E94082D6FE071E083E393E00E942F
:102C4000022C4AE050E06091D50283E393E00E94B9
:102C5000012D65E171E083E393E00E94022C4AE0DC
:102C600050E060E170E083E393E00E94DC2C67E1D8
:102C700071E083E393E00E94022C60919D017091CA
:102C80009E014AE050E083E393E00E94DC2C54CFA5
:102C9000DF91CF9108950E94441560E872E085EEBF
:102CA00092E00C945625109236031092350380E57D
:102CB00091E090933403809333030895CF93CFB77B
:102CC000F89480916C03811127C0E3E7F9E08491C7
:102CD000EFE5F9E09491E82FF0E0EE0FFF1FEF56DB
:102CE000F64FA591B4918C91892321F461E08AE09B
:102CF0000E94302B61E08AE00E94F72A8CB5806147
:102D00008CBD8CB580648CBD61E08DE00E94F72A9B
:102D100061E08BE00E94F72A80916C038F5F8093C3
:102D20006C03CFBFCF91089521E0FC01208308956B
:102D300070E085E00C946F2AAF92BF92CF92DF9241
:102D4000EF92FF920F931F93CF93DF93EC01898152
:102D50009A812FE0289F8001299F100D112485E181
:102D60000E94522A800F911F24E0969587952A95FC
:102D7000E1F79A8389832881222391F1AC81AD8088
:102D8000B12CC12CD12CE885F9857F0100E010E041
:102D90006E817F819B0140E050E08617970728F005
:102DA000BC01E817F90708F4BF0180E090E01F922A
:102DB0001F921F92AF930E94832D6B830F900F90F1
:102DC0000F900F9070E085E0DF91CF911F910F91F0
:102DD000FF90EF90DF90CF90BF90AF900C946F2A50
:102DE000DF91CF911F910F91FF90EF90DF90CF90E7
:102DF000BF90AF900895FC018CE39FE093838283A2
:102E000084E0818381E084870895CF93DF93EC0190
:102E10008C819D81892B81F18C858F7151F584E1A5
:102E20000E94522ABC01882777FD8095982F0E9426
:102E3000F92D26EE3FE34EEC50E40E94852E0E94D1
:102E4000CB2D9B017B836A836115710581F084E042
:102E50008983FE0140E0848195812817390710F4A9
:102E600049830AC04F5F32964430A9F702C08FEF02
:102E700089838C858F5F8C87DF91CF910895FC01CA
:102E800088E0808389E0818387E0828386E0838392
:102E900084E0848382E0858381E186830895DF92E4
:102EA000EF92FF920F931F93CF93DF937C01EC017E
:102EB00000E010E0DD24DA9462E088810E94F72AC5
:102EC00088810E94662BF701E00FF11F892B21F406
:102ED00087818F5F878308C08781882349F08F3F70
:102EE00011F4178201C0D78260E088810E94F72A1E
:102EF0000F5F1F4F219607301105F1F6DF91CF913B
:102F00001F910F91FF90EF90DF900895FC01E60F65
:102F1000F11D81E09781913009F080E00895262F1E
:102F200030E0FC01E20FF31F8781423028F481502A
:102F30008E3F48F080E008958F3FE1F3642F0E94B8
:102F4000F82E9130B9F781E008958EBD00000DB4E0
:102F500007FEFDCF8EB508951F93CF93DF93EC014D
:102F6000162FF89460E08F850E94302B8889181600
:102F70001CF460E00E94302B812F0E94A5178889E5
:102F800018161CF461E00E94302B7894DF91CF91E9
:102F90001F91089528EF31E0EDE6F3E0DF01A9018C
:102FA0001D9241505040E1F7DC0119961C9219978F
:102FB0001A961C920895DF92EF92FF920F931F933F
:102FC000CF93DF93EC018C858F5F8C878DE6E82EA5
:102FD00083E0F82ED12C6D2D6064CE010E94AC17D9
:102FE00060E8CE010E94AC1761E08F850E94302B13
:102FF000888918161CF460E00E94302B00E010E075
:10300000F701E00FF11F80810E94A5170F5F1F4F8E
:1030100004351105A9F7888918161CF461E00E948F
:10302000302BD39484E5E80EF11C86E0D812D3CF80
:1030300060E4CE01DF91CF911F910F91FF90EF904F
:10304000DF900C94AC17FC0160A361A30895FC0110
:1030500060A341A30895CF92DF92FF920F931F9335
:10306000CF93DF931F92CDB7DEB76C01062FF42EFE
:1030700010E0121754F4412F4F0D602FC601298321
:103080000E94F9041F5F2981F4CF0F90DF91CF9147
:103090001F910F91FF90DF90CF900895CF92DF9214
:1030A000FF920F931F93CF93DF931F92CDB7DEB79D
:1030B0006C01062FF42E10E0121754F4612F600FEC
:1030C0004F2DC60129830E94F9041F5F2981F4CF87
:1030D0000F90DF91CF911F910F91FF90DF90CF90D4
:1030E0000895DF92EF92FF920F931F93CF93DF9398
:1030F000EC01E62ED22EF42E112707FD1095040FB9
:10310000111D47FD1A958F2D992787FD90958017E2
:10311000910744F42D2D4F2D6E2DCE010E944E1897
:10312000F394F1CFDF91CF911F910F91FF90EF902A
:10313000DF9008958F929F92AF92BF92CF92DF92CD
:10314000EF92FF920F931F93CF93DF93EC01E62E44
:10315000D42E122FCC24C394C21AB22EB194BB0C1D
:10316000F12C802F8470A82E802F8270982E802FB3
:103170008870882E0170F1160CF04DC0C7FC04C099
:103180001150B394B394CB0CF3948F2D880F8F5FB1
:10319000C80EAA2071F0412F4D0D6F2D6E0DCE017E
:1031A0000E94F9044F2D4D0D612F6E0DCE010E942E
:1031B000F904992071F04D2D411B6F2D6E0DCE013C
:1031C0000E94F9044D2D4F19612F6E0DCE010E9402
:1031D000F904882071F04F2D4D0D6E2D611BCE012D
:1031E0000E94F904412F4D0D6E2D6F19CE010E94E2
:1031F000F904002309F4BFCF4D2D4F196E2D611B2B
:10320000CE010E94F9044D2D411B6E2D6F19CE0188
:103210000E94F904B0CFDF91CF911F910F91FF90E1
:10322000EF90DF90CF90BF90AF909F908F900895D8
:103230008F929F92AF92BF92CF92DF92EF92FF92C6
:103240000F931F93CF93DF93EC01B62EA42E122F72
:10325000DD24D394D21AC22EC194CC0CFF24F39453
:10326000802F8170882E992493949E0C02708FEF8A
:103270008F0D8117C4F5D7FC04C01150C394C394BB
:10328000DC0C8F2D880F8F5FD80E882099F0212FAE
:10329000220F290D4A2D411B6F2D6B0DCE010E946F
:1032A0002B1823E02E0D4A2D4F19612F6B0DCE01E7
:1032B0000E942B18002399F0212F220F290D4A2D4F
:1032C000411B6B2D6F19CE010E942B1823E02E0D90
:1032D0004A2D4F196B2D611BCE010E942B18F394C0
:1032E000E394E394C4CFDF91CF911F910F91FF90AE
:1032F000EF90DF90CF90BF90AF909F908F90089508
:103300009F92AF92BF92CF92DF92EF92FF920F9374
:103310001F93CF93DF93EC01B62EF42EA22EDE2C5A
:10332000D194DD0C9D2C920E1E2D160F292D612F90
:103330000E944E18CC24CA94C00ECF0C292D4C2DBF
:10334000612FCE010E944E18D00EFE0C2D2D4F2D58
:103350006B2DCE010E942B18BA0C6FEF6B0D2D2D2B
:103360004F2DCE010E942B1801E02E2D4F2D612FE5
:10337000CE010E949A18DE2CD094DB0C02E02E2D98
:103380004F2D6D2DCE010E949A18CE1804E02E2DDF
:103390004C2D6D2DCE010E949A1808E02E2D4C2D3B
:1033A000612FCE010E949A18DF91CF911F910F914A
:1033B000FF90EF90DF90CF90BF90AF909F900895D7
:1033C000AF92BF92CF92DF92EF92FF920F931F9333
:1033D000CF93DF93EC01A62EC42EB22EF02E1E2D1D
:1033E000E194EE0CD12ED60E2E2D2B0D6D2D0E94BC
:1033F0007118FA94FE0CC10E6FEF6A0D6B0D611B14
:10340000EF2C01E0212F4C2DCE010E94181902E073
:10341000212F4C2D6D2DCE010E941819DF91CF91D7
:103420001F910F91FF90EF90DF90CF90BF90AF90E2
:1034300008956F927F928F929F92AF92BF92CF9298
:10344000DF92EF92FF920F931F93CF93DF93F901D7
:10345000A49031965491FC01F0A064350CF00CC19D
:10346000BB24A7FCB094A62FBB27A7FDB095FD01F8
:10347000EA0DFB1D1E161F060CF0FEC040330CF0BB
:10348000FBC0C52E042F112707FD1095E801C50FBD
:10349000D11D57FDDA951C161D060CF0EDC0E90193
:1034A00022969501295F3F4F37FF02C0295F3F4FAA
:1034B00073E0359527957A95E1F747FF0AC0C52E49
:1034C000C40E209FA001219F500D1124C41BD50BB9
:1034D00040E00C2D112707FD1095040F111D47FD2D
:1034E0001A95013311051CF070E3C72EC41A67FD4D
:1034F00060E0E535F10514F0E4E5F0E01E2FFC0195
:1035000074857427862F992787FD9095FC01EA1B07
:10351000FB0BDF015F01F7E0AF22BB24E0E8F0E046
:1035200002C0F595E795AA94E2F70E2FB7FD17961E
:1035300053E0B595A7955A95E1F7AC0FBD1FE42F61
:10354000E77051E001C0550FEA95EAF745954595BA
:103550004595E4E54E02800D911D112483599C4F41
:1035600040E0DD24C7FCD094BB24B3943327E42F80
:10357000F0E0EC15FD050CF07FC0FD01E490F1E0FA
:10358000FF1219C0EC01A02EFD01862E881A9C2E78
:10359000980C911608F067C09E2C9A2019F098801C
:1035A000952A9882A69429F43196E4906894AA24E6
:1035B000A7F82196ECCFF1101BC0752E7094EC018A
:1035C000A02EFD01862E881A9C2E980C911608F0CC
:1035D0004AC09E2C9A2019F0988097209882A69431
:1035E00029F43196E4906894AA24A7F82196ECCFA8
:1035F000E3E0FE1631F0EC01A02EFD01862E881AC4
:103600002EC0752E7094962EEC01A02EFD01911601
:10361000B0F48E2C8A2049F08880692C672660FEE1
:1036200002C0852A01C087208882A69429F4319699
:10363000E4906894AA24A7F893942196E8CF7B2578
:1036400012C09E2C9A2019F0988095269882A694F4
:1036500029F43196E4906894AA24A7F821969C2E28
:10366000980C911670F3550F19F48C5A9F4F51E036
:103670004F5FA20FB31F7BCFDF91CF911F910F91AF
:10368000FF90EF90DF90CF90BF90AF909F908F9082
:103690007F906F9008952F923F924F925F926F921A
:1036A0007F928F929F92AF92BF92CF92DF92EF92D2
:1036B000FF920F931F93CF93DF93CDB7DEB72A9777
:1036C0000FB6F894DEBF0FBECDBF6C01262E542F6F
:1036D00001111CC0E1101AC02A960FB6F894DEBF83
:1036E0000FBECDBFDF91CF911F910F91FF90EF9053
:1036F000DF90CF90BF90AF909F908F907F906F9012
:103700005F904F903F902F900C94191AF90184917B
:1037100031963490B9016E5F7F4F7A836983A82E0A
:10372000B12C9501295F3F4FB3E035952795BA95A8
:10373000E1F73A87298703702FEF280F522E10E008
:103740007FEF730D832D90E09C838B83812F9927CE
:1037500087FD90958A159B050CF071C0812F17FF8E
:1037600002C087E0810F682E659465946594812F6F
:10377000877887FF03C08150886F8F5FA0E88A2E0B
:10378000912C02C0959487948A95E2F7472EF12CEC
:10379000772467FC70948F2D992787FD9095EB8196
:1037A000FC818E179F070CF047C0A985BA858A9FB8
:1037B000F0018B9FF00D9A9FF00D1124E60DF71D7F
:1037C00089819A81E80FF91FE491F0E0E821F9215D
:1037D000EF2B79F1023039F0033041F0013049F438
:1037E000452D6F2D08C0652D442D05C0642D412F3A
:1037F00002C04F2D612FEE2069F03E2D3370E0FEA8
:1038000003C0922F961B692FE1FE05C0A32DA41BB8
:103810004A2F01C030E0620D450FC6012E833D8363
:103820005F8378870E94F9043D81E32E78855F816C
:103830002E81F3944A94AFCF1F5F5A9487CF2A9674
:103840000FB6F894DEBF0FBECDBFDF91CF911F91B1
:103850000F91FF90EF90DF90CF90BF90AF909F902F
:103860008F907F906F905F904F903F902F90089532
:10387000DC01FB0184918F5F14968C931497319631
:10388000E491EF5F1596EC9315976E5F7F4F5F960F
:103890007C936E935E970895EF920F93CF93DF938F
:1038A000EC014E876D872F87E98A088B81E0888736
:1038B00088A319A28F8362EA73E0CE010E94381CAC
:1038C0000E945E168CB58F7D8CBD8CB58C7F81601F
:1038D0008CBD8DB581608DBD8CB58C608CBD61E07B
:1038E0008E850E94F72A61E08D850E94F72A61E0AB
:1038F0008F850E94F72A898918161CF461E00E94BE
:10390000F72A888918161CF461E00E94F72A898931
:1039100018166CF460E00E94302B6AE070E080E0E2
:1039200090E00E94EF2961E089890E94302B8D850B
:10393000992787FD9095FC01E759F64FE491F0E057
:10394000EE0FFF1FE957F64F259134913D8B2C8BDD
:10395000FC01EB5AF64F84918B8F8E85992787FD5A
:103960009095FC01E759F64FE491F0E0EE0FFF1F50
:10397000E957F64F259134913B8B2A8BFC01EB5A8A
:10398000F64F84918A8F8889992787FD9095FC014D
:10399000E759F64FE491F0E0EE0FFF1FE957F64FBD
:1039A000259134913F8B2E8BFC01EB5AF64F84917D
:1039B0008C8F8F85992787FD9095FC01E759F64FED
:1039C000E491F0E0EE0FFF1FE957F64F2591349197
:1039D000398F288FFC01EB5AF64F84918D8F61E26D
:1039E000CE010E94AC1764E1CE010E94AC178B851A
:1039F00087FF02C08FE78B876B856068CE010E94CE
:103A0000AC1760E2CE010E94AC176CE0CE010E94C0
:103A1000AC17CE01DF91CF910F91EF900C94DB1793
:103A20006F927F928F929F92AF92BF92CF92DF92CE
:103A3000EF92FF920F931F93CF93DF93EC01162F1A
:103A4000F42EB02EE8A064350CF081C08FE284170C
:103A50000CF47DC0EC81F0E031970E9FC0010F9F08
:103A6000900D1124860F911D67FD9A951816190661
:103A70000CF06DC08D81809FC0011124840F911DB9
:103A800047FD9A95181619060CF061C0A62E962EC1
:103A9000C22ED12C8A2D811B992787FD90952C81D0
:103AA00030E0821793070CF051C021503109821782
:103AB000930779F0C29ED001C39EB00DD29EB00D87
:103AC0001124A80FB91FEE8DFF8DEA0FFB1F749014
:103AD00001C0712C8F2C6F2C282D2F19332727FD17
:103AE00030958D8190E0281739076CF570FE11C074
:103AF00081E0B81206C0482D6A2DCE010E94F9045B
:103B00001EC00B2D2B2D462D692DCE010E94711844
:103B100016C089A198A1891791F088A381E0B812F5
:103B200006C0482D6A2DCE010E94F90407C00B2D56
:103B30002B2D462D692DCE010E947118E8A2769496
:103B40006B0C8394C9CF9B0CA394A4CFE8A2DF9104
:103B5000CF911F910F91FF90EF90DF90CF90BF908A
:103B6000AF909F908F907F906F9008950F93CF9319
:103B7000DF93EC01262F6A3039F42D8198858A85F0
:103B8000299F800D112422C06D3011F108854A85CE
:103B900069850E94101D48855C812985549F200DF0
:103BA000112429878F81882399F0332727FD3095A9
:103BB00084E590E0459F80199109112482179307AD
:103BC0003CF49D818A85499F800D11248A8719863E
:103BD00081E090E0DF91CF910F910895CF92DF9235
:103BE000EF92FF920F931F93CF93DF93EC010A8D17
:103BF0001B8D009510950E94CC296B017C010E94C1
:103C0000CC29C094D094E094F09460957095809500
:103C10009095C69E9001C79E300DD69E300D112402
:103C2000209F7001219FF00C309FF00C112409801F
:103C3000DA81C02D0E94CC29CE01860F971F8E0DF0
:103C40009F1DDF91CF911F910F91FF90EF90DF901B
:103C5000CF900C943B2DFC01EC57FF4F7183608398
:103C60003296445F408308958F929F92AF92BF92A5
:103C7000CF92DF92EF92FF920F931F93CF93DF9338
:103C8000EC015C0186E8A80EB11CD5018C9188235B
:103C900009F44DC08C3018F41CE0181B01C010E072
:103CA000FE01EA5AFF4F81E080836E01BEE4CB0E35
:103CB000D11C60E0C6010E9423184E01E3E58E0E80
:103CC000911CD4018C9103E0080F9DE2F92E4F2D39
:103CD000481B410F23E0E22E24E560E0C6010E946C
:103CE000E01961E0C6010E942318F401808103E01D
:103CF000080F4F2D481B410F24E560E0C6010E94CC
:103D00008019FE01E95AFF4F84E080833196D40187
:103D10008C91181B115D1083CC57DF4F688179811E
:103D2000C6010E94DD2BF501808181508083DF91E7
:103D3000CF911F910F91FF90EF90DF90CF90BF90A8
:103D4000AF909F908F900895DF92EF92FF920F9324
:103D50001F93CF93DF93EC018C8D9D8D892B09F4FC
:103D60009CC08E01025B1F4F40E061E0C8010E94D1
:103D7000271885E5FE01EE5AFF4F9081891B359685
:103D8000808331961082698D613009F462C028F019
:103D9000888D653008F074C06FC0CE0185960E9492
:103DA000A62781E0FE01EA5AFF4F808362EA73E0B2
:103DB000C8010E94381C1D8E1C8EFE01EC5AFF4F5C
:103DC000108238EAD32E7E018AE0E80EF11CCE0183
:103DD0000E94551F8823D9F363E178E0C8010E944F
:103DE000DD2B6A8D7B8D4AE050E0C8010E941F2DBB
:103DF0006EEF77E0C8010E94DD2B6D2D62956F702C
:103E000070E04AE050E0C8010E94D42C63EF77E0F4
:103E1000C8010E94DD2B64E0C7010E948617811152
:103E20003CC0DA94A1F660E0CE010E94981683B7F8
:103E3000817F846083BF83B7816083BF83B78160E4
:103E400083BF889583B78E7F83BF83B78E7F83BF01
:103E5000BECFCF58DF4F488159816A817B814F7037
:103E6000552766277727483051056105710510F4FD
:103E700067E009C068E707C0882379F06B5F03C07B
:103E8000882359F06FE2C801DF91CF911F910F9104
:103E9000FF90EF90DF900C94042CDF91CF911F9155
:103EA0000F91FF90EF90DF9008958F929F92AF92C5
:103EB000BF92EF92FF920F931F93CF93DF93EC018A
:103EC0007C0100E8E00EF11CF70180809180A28067
:103ED000B3800E94C02995018401061B170B280B93
:103EE000390BB901A8015E011FE7A10EB11CF50154
:103EF000808190E0A0E0B0E08E0105581F4F84174C
:103F00009507A607B70750F4F80180819181A28137
:103F1000B381892B8A2B8B2B09F040C0F80180815B
:103F20009181A281B381892B8A2B8B2BA9F57E01EC
:103F3000F5E2EF0EF11CC7010E94A327C7010E9402
:103F40001028C7010E94D428CE010E94341ECE0141
:103F50000E94A41E7E012EE4E20EF11CC7010E9405
:103F6000DB17FE01EC5AFF4F8081811103C0C701AE
:103F70000E94CA170E94CC29F80160837183828352
:103F80009383FE01EB58FF4FC958DF4F28813981D9
:103F9000621B730B7183608380E036C00E94C0296E
:103FA000F5012081620F711D811D911DF701608354
:103FB000718382839383FE01EF58FF4F40815181CB
:103FC000628173814F5F5F4F6F4F7F4F408351839B
:103FD00062837383F80110821182128213820E941D
:103FE000CC29FE01E958FF4F60837183828393835C
:103FF000CE010E949C16CE010A960E944F17CE0158
:1040000048960E94051781E0DF91CF911F910F9193
:10401000FF90EF90BF90AF909F908F9008952F9258
:104020003F924F925F926F927F928F929F92AF9248
:10403000BF92CF92DF92EF92FF920F931F93CF9395
:10404000DF93CDB7DEB766970FB6F894DEBF0FBE2D
:10405000CDBF9E8B8D8B6F87788B942EFC01EC5A95
:10406000FF4F108288248A941C82A12C30E33B836A
:10407000B12C6C018AE0C80ED11C6D887E8893E556
:10408000690E711CED89FE89B5962F01242F30E051
:104090003A8729878D899E89895A9F4F9E838D8370
:1040A000ED89FE89E85AFF4FF887EF832D893E8915
:1040B0002A5A3F4F3C872B878D899E898B5A9F4F69
:1040C0009E878D87ED89FE89E25BFF4F1F018D89F9
:1040D0009E890E94551F8823D1F364E0C6010E9487
:1040E00086173B81032F112707FD109581113EC0D4
:1040F00065E0C6010E948617811138C066E0C601DE
:104100000E948617811132C03C81311142C044E0C7
:1041100063E0C6010E948F17882321F0B394C20187
:104120000E94502944E061E0C6010E948F17882355
:1041300021F0BA94C2010E9450298B2D992787FD46
:104140009095E985FA858E179F0731F0B7FE05C077
:10415000BB24BA94B90C01C0B12CF301808174E086
:10416000A72EA80E8B9DA01811241DC0F301A080BE
:1041700064E0C6010E948617882309F484C0C20146
:104180000E9424298B2CA194A99CA02C1124AA94D0
:10419000AA94C8018A199109A7FC939502970CF477
:1041A00076C031E03C830A0D111DA7FC1A9517FF5C
:1041B00002C00F5F1F4FC801959587959A83898329
:1041C00029812B83ED81FE811082EF81F885808328
:1041D00081E0EB85FC858083ED85FE8510820F856F
:1041E0001889E12CF12C4B2D552747FD509533E0D4
:1041F000E91420F5E416F50669F4ED81FE813083BB
:10420000F3018081F22FB89EF00D11248F2FEF81E2
:10421000F8858083F80165917491C101298B3C8BED
:104220004A8B5B8B0E941F2CFFEFEF1AFF0A0E5F79
:104230001F4F5B894A893C892989DACF60E0C10137
:104240000E942318F30180814981B89E400D1124FA
:10425000415024E560E0C1010E944E1861E0C101B7
:104260000E942318F301808103E0080F4981B89E62
:10427000400D1124425053E0E52E24E560E0C101D9
:104280000E94801924CFC2010E943A297CCF882D38
:1042900066960FB6F894DEBF0FBECDBFDF91CF910B
:1042A0001F910F91FF90EF90DF90CF90BF90AF9054
:1042B0009F908F907F906F905F904F903F902F9046
:1042C00008952F923F924F925F926F927F928F92BA
:1042D0009F92AF92BF92CF92DF92EF92FF920F9395
:1042E0001F93CF93DF93CDB7DEB763970FB6F894E4
:1042F000DEBF0FBECDBF6C011B01442EFC01EC5A8A
:10430000FF4F1082842F90E0FB01E80FF91F3197D7
:10431000108230E3398734E53A8722E0622E712C2F
:10432000512C560143E5A40EB11C460152E5850E01
:10433000911CD601A25BBF4FBB8BAA8BF601E95A39
:10434000FF4FFE83ED839601285A3F4F38872F8316
:104350009C878B8701979E878D87C6010E94551F7A
:104360008823D9F38601065F1F4F44E063E0C8014C
:104370000E948F17882329F06394C60185960E94B6
:10438000502944E061E0C8010E948F17882329F07A
:104390006A94C60185960E94502944E062E0C801F3
:1043A0000E948F17882329F07394C60185960E9476
:1043B000502944E060E0C8010E948F17882329F04B
:1043C0007A94C60185960E94502930E1731629F02F
:1043D00077FE04C08FE0782E01C0712C48E064168F
:1043E00029F067FE04C0B7E06B2E01C0612CD50137
:1043F0003C91F40120812095279D202D1124295DD9
:10440000FA858F2F992787FD9095820F911D27FDA3
:104410009A9597FD0196AC01559547955A83498326
:1044200059815F875A8724E1231B3095369D200DE3
:1044300011243985832F992787FD9095820F911D2F
:1044400027FD9A9597FD0196AC01559547955C839C
:104450004B835B81588B598764E0C8010E948617A3
:10446000882351F1E52DFF27E7FDF0954D855E8509
:10447000E417F50794F4872D50E1659E800D112413
:10448000882309F46ACF8A3009F467CF8D3009F4A4
:1044900064CFE20DF31D808311825394C60185968B
:1044A0000E942429852D992787FD9095AB85BC8591
:1044B000A817B9070CF4542C65E0C8010E948617B0
:1044C000882379F05A94C60185960E943A2957FCB0
:1044D00007C0F101E50DF11D57FCFA95108201C0EE
:1044E000512C66E0C8010E948617882309F447C052
:1044F0007601B5E2EB0EF11CC7010E942429C6012A
:104500000E94551F8823D9F364E478E08A899B8947
:104510000E941F2CB1018A899B890E94022C63E3AF
:1045200078E08A899B890E941F2C64E0C8010E9460
:1045300086178823D9F0C70163960FB6F894DEBFBB
:104540000FBECDBFDF91CF911F910F91FF90EF90E4
:10455000DF90CF90BF90AF909F908F907F906F90A3
:104560005F904F903F902F900C94242965E0C801F4
:104570000E948617882319F2C7010E943A2930E069
:10458000F12C10E0212F230FF50180814F2DF89E93
:10459000400D11245889450FD4018C91612F189F2B
:1045A000600D11245F85650F01E08A899B89398B35
:1045B0000E94101D1F5F3989103121F7F394305F7D
:1045C00088E0F812DECFD4018C911AEFB981819F77
:1045D000B00D11248B2F8250ED81FE818083D50197
:1045E0008C918F5FBB818B0FEF81F88580836DE2AB
:1045F00078E08A899B890E94DD2BD4018C91B98156
:10460000819FB00D11248B2F8250ED81FE8180831C
:10461000D5018C91880F8E5FBB818B0FEF81F88560
:10462000808367E278E08A899B890E94DD2BD40130
:104630008C91B981819FB00D11248B2F8250ED8117
:10464000FE818083D5018C9190E00196982F990F7F
:10465000980FBB819B0FEF81F885908361E278E032
:104660008A899B890E94DD2B60E08A899B890E9450
:104670002318D5018C91462D689E400D112442507F
:10468000BB814B0FF4018081672D789E600D112452
:104690006150F9816F0F27E08A899B890E944E182B
:1046A00061E08A899B890E942318D5013C91F4011D
:1046B0002081E22FF0E005E0030F2E5FCF0101978C
:1046C00062E070E00E94182F280F462D639E400D77
:1046D000112443503B81430F672D7E9E600D1124B2
:1046E00062505981650FE3E0EE2E8A899B890E9412
:1046F00080194EE2D5018C91481B24E560E08A893F
:104700009B890E944E1860E08A899B890E94231829
:10471000F501808101E0080F4FE2481B24E560E0CD
:104720008A899B890E947118AD81BE811C9210E319
:10473000F5018081F12FF81BAF81B885FC9361E012
:104740008A899B890E942318B1018A899B890E94CA
:10475000022CF601EF58FF4F80819181A281B38135
:1047600087709927AA27BB270497A105B10508F0F0
:10477000F4CD852D992787FD9095ED85FE858E17C3
:104780009F070CF0EACDD5018C91412F481BF40115
:104790006081569E602D112401E02FE58A899B8956
:1047A0000E94101DDACD0F931F93CF93DF938C01DE
:1047B000EC01C25BDF4FCE010E94CA176BEC77E0C1
:1047C000CE010E94DD2BCE010E94DB178CB58360E9
:1047D0008CBD8DB58E7F8DBD84E591E0EEEFFFE35E
:1047E0000995F801EC5AFF4F108266EA77E0CE0196
:1047F0000E941F2CCE010E94DB17065F1F4FC801CD
:104800000E944F1764E0C8010E948617811107C0FB
:1048100062E370E080E090E00E94EF29F0CFDF914A
:10482000CF911F910F9108952F923F924F925F92D7
:104830006F927F928F929F92AF92BF92CF92DF92B0
:10484000EF92FF920F931F93CF93DF93CDB7DEB715
:1048500029970FB6F894DEBF0FBECDBF9987888722
:104860001B012A013C0180E7680E711CF301808165
:10487000882309F402C181E0E885F985EA5AFF4FEF
:104880008083E885F985EB5AFF4F1082E885F9852A
:10489000EC5AFF4F1082E885F985108E8F01025B7C
:1048A0001F4F61E0C8010E942318888599858D5AA1
:1048B0009F4F9C838B83C884D98497E5C90ED11CF4
:1048C000E884F984E8E5EE0EF11C888599858E5A16
:1048D0009F4F9A838983E885F985EF58FF4FFE83C0
:1048E000ED8388849984FAE08F0E911CA884B984A2
:1048F00085E2A80EB11C888599850E94551F8823E2
:10490000D1F3F1018491882321F0EB81FC81508166
:1049100001C050E026E638E040E060E0C8015F8377
:104920000E94191A5F814114510439F04CE0450F7F
:10493000920160E0C8010E94191AF60110828CE011
:10494000F7018083B101C8010E94DD2BE981FA8162
:104950009081892F880F890F81958D5AF601808368
:10496000EB81FC819081892F880F890F8195835D70
:10497000F7018083ED81FE81808184FF03C061E6C1
:1049800078E002C06DE578E0C8010E941F2CE98143
:10499000FA819081892F880F890F81958D5AF601B0
:1049A0008083F70180818F5F8083E885F98582A508
:1049B000882319F069E578E002C065E578E0C80170
:1049C0000E941F2CE981FA819081892F880F890F1D
:1049D00081958D5AF6018083F70180818F5F8083F6
:1049E00061E578E0C8010E941F2C65E0C4010E94C7
:1049F0008617882351F0E885F98562A56F5FC501A8
:104A00000E946629C5010E94502964E0C4010E94E9
:104A10008617811113C0F3012081822F90E0A0E05E
:104A2000B0E0ED81FE814081518162817381481740
:104A300059076A077B07A8F02F3F99F08FEFF30122
:104A40008083088519850B5D1F4F60E0C8010E94B7
:104A50004D27C8010E94242981E0E885F985808FCF
:104A60000CC066E0C4010E948617882309F443CF76
:104A7000888599850E94D32334CF29960FB6F89460
:104A8000DEBF0FBECDBFDF91CF911F910F91FF9081
:104A9000EF90DF90CF90BF90AF909F908F907F90DE
:104AA0006F905F904F903F902F900895AB0165E617
:104AB00078E00C941424E0E8F7E72591349181E044
:104AC0002130304C09F080E00895CF93DF93EC0162
:104AD0000E945B259E01275A3F4FDE01A059BF4F20
:104AE000882309F43CC0E6E9F7E78491F901808363
:104AF000E7E9F7E7E491EC83E8E9F7E7E491ED8390
:104B0000E9E9F7E7859194919F838E83EBE9F7E7D5
:104B10008591949199878887EDE9F7E7E491EBA770
:104B2000EEE9F7E7E491EAA7EFE9F7E7E491EC9320
:104B3000E0EAF7E7859194919D8F8C8FE2EAF7E7A1
:104B4000859194919F8F8E8FE4EAF7E785919491F8
:104B500099A388A3E6EAF7E78591949120C08CE3B6
:104B6000F90180831C822FEF2D8380E293E09F83E5
:104B70008E8384ED93E09987888781E08BA78AA74D
:104B80002C938CEA9DE09D8F8C8F8EED9DE09F8F06
:104B90008E8F84E79EE099A388A38CE39FE09BA37C
:104BA0008AA3DF91CF910895CF92DF92EF920F9376
:104BB000CF93DF93EC01FC01E158FF4F82E3808348
:104BC000349741E050E060E070E0408351836283BD
:104BD00073833B978FEF8083CE010E946525CE01C2
:104BE0000E9494166FEFCE010E9498166E018AE023
:104BF000C80ED11CC6010E943F17C6010E944F1764
:104C0000CE0148960E94FB163EE0E32E0FE020E125
:104C10004BE06DE0CE01825B9F4F0E944C1CA5963D
:104C2000CE010E94B92665E0C6010E94861788233E
:104C300051F060E0CE01DF91CF910F91EF90DF90C6
:104C4000CF900C94662940E066ED78E0CE01DF91CC
:104C5000CF910F91EF90DF90CF900C945827CF9386
:104C6000DF9300D0CDB7DEB769837A830E945B25DE
:104C700069817A81882351F0DB01EBE8F7E78491C1
:104C80008D933196E53987E7F807C9F70F900F90B4
:104C9000DF91CF9108958F929F92AF92BF92CF9262
:104CA000DF92EF92FF920F931F93CF93DF93CDB7D5
:104CB000DEB7260F371FE216F30684F4EA0CFB1C5E
:104CC0006E157F055CF4040F151FC016D10634F471
:104CD000C80CD91C81E04C155D050CF080E0DF911B
:104CE000CF911F910F91FF90EF90DF90CF90BF90E9
:104CF000AF909F908F900895CF93DF9350E0FA018B
:104D0000EE0FFF1FE80FF91F37852089E32FF22FE1
:104D1000E60FF11DE60FF11D25913491FA01EE0F1A
:104D2000FF1FE80FF91F30A3278FF90165917491D8
:104D3000FC01D481D69FC02D1124E40FF51FC1A31F
:104D4000F901A591B4916B2F70E0EC2FF0E0DC013C
:104D5000A40FB51F6E177F0720F4F9012591349138
:104D6000C32FCD9FC02D11249296CC93DF91CF916C
:104D7000089521E0FC01248324E020A725E339E005
:104D8000308B278740E060E00E947C2661E070E085
:104D900083E00E946F2AE1EBF0E08081887F8160F0
:104DA0008083F89410928000E1E8F0E01082109285
:104DB00085001092840088E191E0909389008093AF
:104DC0008800808188608083808181608083EFE6B5
:104DD000F0E0808182608083789408950F93FC01D5
:104DE000862F642F011129C08230D1F048F4882326
:104DF00091F0813011F540E0CF010F910C947C26A9
:104E00008330A9F08430C9F48481489F602D112437
:104E1000658F268F12C04B3008F06AE0668B0DC09C
:104E20008481489F602D1124618F228F06C0848168
:104E3000489F602D1124638F248F0F910895FC01EA
:104E400021110EC0648B8481489F402D1124458B15
:104E500015A214A213A281E0878B80937105108E96
:104E6000089580917105882319F080916E0501C025
:104E700080E08093B4000895FC0161110DC0178A91
:104E8000158A14A213A2108E10926E0510926F054F
:104E9000109271050C9431270895CF93DF93EC01A4
:104EA000611103C00E943C271982DF91CF910895C0
:104EB0000F931F93CF93DF93EC018B0141110EC031
:104EC00060E00E944D271E870D871B8A1A8A81E0A9
:104ED000898389E08E8B198E1B8E1D8EDF91CF9179
:104EE0001F910F910895CF93DF93EC01611128C0BA
:104EF0008881882329F18981811122C089852F81A8
:104F00009885E22FF92FE80FF11DE80FF11D85912B
:104F100094918F3F2FEF920711F4188211C09C8754
:104F20009927880F991FEA85FB85E80FF91F65917E
:104F3000749140E0CE010E94582789858F5F898750
:104F4000DF91CF91089560E00C94732760E00C949A
:104F50004D270F93CF93DF93EC0161115DC08981E1
:104F6000882309F459C08D89811156C02D853E854D
:104F70008A899B89880F991F820F931FFC01859155
:104F800094910097D1F48989882321F01B8A1A8A89
:104F9000F90111C01982888160E0882331F0CE01C7
:104FA0000E9473278A899B8925C0CE01DF91CF910A
:104FB0000F910C943C2785919491BC01769567954F
:104FC0007695679580FF1DC0AC01A6E05695479584
:104FD000AA95E1F7292F26952695269520514F7100
:104FE0006F7000E0CE010E94EE268A899B890196AF
:104FF0009B8B8A8B880F991FED85FE85E80FF91F23
:10500000DACF492F6F7320E0CE010E941F278A89D3
:105010009B8901969B8B8A8BDF91CF910F9108958D
:1050200060E00C94A927CF93DF93EC016111B9C024
:105030008F89882309F4B5C08D89811105C0CE01FF
:10504000DF91CF910C943C2781508D8B8DA18111E4
:1050500038C08BA19CA101969C01220F331FEF8DBC
:10506000F8A1E20FF31F25913491422F47704EA310
:10507000A90163E0569547956A95E1F7BA017695DF
:105080006795232F269526952FA36F732C81629FFA
:10509000602D11246DA3417040936D059CA38BA3DB
:1050A00029A130E08217930760F08AA1882329F0B4
:1050B000281B31093CA32BA304C060E0CE010E9451
:1050C0003C278DA181508DA3288D2F5F288F4C897F
:1050D0003FA1340F8C85380F3A836B8D662361F0C6
:1050E00070E0822F992787FD90950E94182F8C8D54
:1050F000869F300D11243A838A8190E0CB966BE332
:1051000070E00E94182F8A833E893B83698D662355
:1051100071F0772767FD7095822F992787FD90950D
:105120000E94182F8A8D869F300D11243B836D8D30
:10513000662391F0822F992787FD909570E00E9459
:10514000182FCB0162E070E00E94182F2E8D9B81FA
:10515000289F900D11249B838B814F3339F08A3027
:105160000CF089E087FD80E08B8301C01B82F894FE
:10517000EA81F0E0EC51F74FE491E093700598A5D7
:105180008D81989F802D11249B81899F802D1124D2
:105190009EA1899F802D112480936F0580936E05B9
:1051A0007894DF91CF91089560E00C94132860917A
:1051B0006F05662321F1809172058F5F80937205E0
:1051C000909170058917D8F08091710591E0892739
:1051D000809371051092720580916D05882369F0A6
:1051E00090910D0183E4989F802D1124895B809319
:1051F0000D010E94F82E90936E050C9431270895AE
:105200001F920F920FB60F9211242F933F934F933B
:105210005F936F937F938F939F93AF93BF93EF931E
:10522000FF930E94D728FF91EF91BF91AF919F917B
:105230008F917F916F915F914F913F912F910F903F
:105240000FBE0F901F901895CF93DF93EC0160E095
:105250000E944D278DE299E09E878D871B8A1A8ACE
:1052600081E0898389E08E8B198E1B8E1D8EDF91E4
:10527000CF910895CF93DF93EC0160E00E944D271A
:1052800085E299E09E878D871B8A1A8A81E089834F
:1052900089E08E8B198E1B8E1D8EDF91CF91089524
:1052A000CF93DF93EC0160E00E944D278FE199E0FE
:1052B0009E878D871B8A1A8A81E0898389E08E8B7D
:1052C000198E1B8E1D8EDF91CF910895FC01862FC4
:1052D000992787FD9095668170E06F5F7F4F0E94F0
:1052E000182F85830895FC01858108951F920F92E0
:1052F0000FB60F9211242F933F938F939F93AF93E9
:10530000BF938091740590917505A0917605B09139
:1053100077053091730523E0230F2D3720F4019694
:10532000A11DB11D05C026E8230F0296A11DB11DC8
:10533000209373058093740590937505A09376056B
:10534000B09377058091780590917905A0917A05C1
:10535000B0917B050196A11DB11D809378059093B6
:105360007905A0937A05B0937B05BF91AF919F918A
:105370008F913F912F910F900FBE0F901F90189516
:105380002FB7F8946091740570917505809176053A
:10539000909177052FBF08953FB7F89480917805D5
:1053A00090917905A0917A05B0917B0526B5A89BCF
:1053B00005C02F3F19F00196A11DB11D3FBF662703
:1053C000782F892F9A2F620F711D811D911D42E048
:1053D000660F771F881F991F4A95D1F70895CF92BE
:1053E000DF92EF92FF92CF93DF936B017C010E94DB
:1053F000CC29EB01C114D104E104F10489F00E942D
:10540000CA2D0E94CC296C1B7D0B683E734090F323
:1054100081E0C81AD108E108F108C851DC4FEACF91
:10542000DF91CF91FF90EF90DF90CF900895789427
:1054300084B5826084BD84B5816084BD85B5826099
:1054400085BD85B5816085BDEEE6F0E08081816037
:105450008083E1E8F0E01082808182608083808137
:1054600081608083E0E8F0E0808181608083E1EB0F
:10547000F0E0808184608083E0EBF0E080818160F7
:105480008083EAE7F0E080818460808380818260AD
:105490008083808181608083808180688083109296
:1054A000C10008958E3008F08E50877020910E0153
:1054B00090E4299F90011124822B80937C0080919D
:1054C0007A00806480937A0080917A0086FDFCCF18
:1054D000809178002091790090E0922B08951F939D
:1054E000CF93DF93182FEB0161E00E94F72A2097FA
:1054F00011F460E004C0CF3FD10539F461E0812FA1
:10550000DF91CF911F910C94302BE12FF0E0EF5BF6
:10551000F64FE491E330F9F048F4E130B9F0E230CD
:10552000A1F584B5806284BDC8BD34C0E730E9F020
:10553000E83019F1E43049F5809180008062809371
:105540008000D0938B00C0938A0024C084B580680B
:1055500084BDC7BD1FC0809180008068809380009B
:10556000D0938900C093880015C08091B0008068F6
:105570008093B000C093B3000DC08091B0008062F2
:105580008093B000C093B40005C0C038D1050CF0C2
:10559000B5CFAFCFDF91CF911F910895833081F0C8
:1055A00028F4813099F08230A1F008958730A9F075
:1055B0008830B9F08430D1F4809180008F7D03C0B1
:1055C000809180008F7780938000089584B58F77D5
:1055D00002C084B58F7D84BD08958091B0008F771F
:1055E00003C08091B0008F7D8093B0000895CF9369
:1055F000DF9390E0FC01EB5AF64F2491FC01E75950
:10560000F64F8491882349F190E0880F991FFC019F
:10561000EF56F64FA591B4918957964FFC01C5916D
:10562000D4919FB7611108C0F8948C912095822382
:105630008C93888182230AC0623051F4F8948C9153
:10564000322F309583238C938881822B888304C0EA
:10565000F8948C91822B8C939FBFDF91CF9108950A
:105660000F931F93CF93DF931F92CDB7DEB7282FF1
:1056700030E0F901EF5BF64F8491F901EB5AF64FF8
:105680001491F901E759F64F04910023C9F08823DA
:1056900021F069830E94CE2A6981E02FF0E0EE0FAD
:1056A000FF1FE957F64FA591B4919FB7F8948C91DD
:1056B000611103C01095812301C0812B8C939FBF82
:1056C0000F90DF91CF911F910F910895CF93DF93AA
:1056D000282F30E0F901EF5BF64F8491F901EB5A86
:1056E000F64FD491F901E759F64FC491CC2391F0CC
:1056F00081110E94CE2AEC2FF0E0EE0FFF1FE3583D
:10570000F64FA591B4912C912D2381E090E021F4E6
:1057100080E002C080E090E0DF91CF91089508958D
:105720000E94172A0E948F2B0E947D12C0E0D0E0B9
:105730000E944B162097E1F30E940000F9CFCF9210
:10574000DF92EF92FF920F931F93CF93DF936C0141
:105750007A01EB01E60EF71E00E010E0CE15DF0542
:1057600061F06991D601ED91FC910190F081E02DFD
:10577000C6010995080F191FF1CFC801DF91CF911C
:105780001F910F91FF90EF90DF90CF9008956115DA
:10579000710581F0DB010D900020E9F7AD0141506A
:1057A0005109461B570BDC01ED91FC910280F381FE
:1057B000E02D099480E090E00895EF92FF920F931E
:1057C0001F93CF93DF938C01FB01C0E0D0E0649185
:1057D0007F018FEFE81AF80A662361F0D801ED9196
:1057E000FC910190F081E02DC8010995C80FD91FE7
:1057F000F701EDCFCE01DF91CF911F910F91FF9077
:10580000EF9008950C94C72BDC01ED91FC91019071
:10581000F081E02D09940F931F93CF93DF93EC0158
:105820006DE00E94042C8C016AE0CE010E94042CE1
:10583000800F911FDF91CF911F910F9108950F93CA
:105840001F93CF93DF93EC010E94DD2B8C01CE01DF
:105850000E940B2C800F911FDF91CF911F910F9110
:1058600008958F929F92AF92BF92CF92DF92EF9264
:10587000FF920F931F93CF93DF93CDB7DEB7A1971E
:105880000FB6F894DEBF0FBECDBF7C01C42EE52F4E
:10589000CB01D22E19A221E02D1510F02AE0D22E34
:1058A0008E010F5D1F4F8D2C912CA12CB12C6C2DD6
:1058B0007E2FA50194010E942C2F8C2DD29E801941
:1058C0001124015011098A3014F4805D01C0895CF3
:1058D000F8018083211531054105510521F0C22EC3
:1058E000E32FCA01E4CFB801C7010E94C72BA196DC
:1058F0000FB6F894DEBF0FBECDBFDF91CF911F91E1
:105900000F91FF90EF90DF90CF90BF90AF909F905E
:105910008F900895CF92DF92EF92FF920F931F9393
:10592000CF93DF93EC016A017B012115310579F4F6
:10593000E881F9810190F081E02D642FDF91CF9112
:105940001F910F91FF90EF90DF90CF9009942A3034
:105950003105E9F477FF1AC06DE20E94042C8C0136
:1059600044275527BA014C195D096E097F092AE0C1
:10597000CE010E94312C800F911FDF91CF911F919A
:105980000F91FF90EF90DF90CF9008952AE0B7013C
:10599000A601CE01DF91CF911F910F91FF90EF9063
:1059A000DF90CF900C94312C9A01AB01662757FD04
:1059B0006095762F0C948A2C0F931F93CF93DF93CF
:1059C000EC019A01AB01662757FD6095762F0E9486
:1059D0008A2C8C01CE010E940B2C800F911FDF912D
:1059E000CF911F910F9108952115310541F4DC01EC
:1059F000ED91FC910190F081E02D642F09940C94BD
:105A0000312C9A01462F50E060E070E00C94F42CA9
:105A10000F931F93CF93DF93EC019A01462F50E031
:105A200060E070E00E94F42C8C01CE010E940B2CEF
:105A3000800F911FDF91CF911F910F9108959A01CF
:105A4000AB0160E070E00C94F42C0F931F93CF93A4
:105A5000DF93EC019A01AB0160E070E00E94F42C4E
:105A60008C01CE010E940B2C800F911FDF91CF91F2
:105A70001F910F910895009729F0BC0180E090E0FC
:105A80000C94E12F0895CF93DF9300D000D0CDB7D1
:105A9000DEB79B01AC01611571058105910569F0C7
:105AA00069833A834B835C830E94DC2F29813A818E
:105AB0004B815C810E944E2F03C060E070E0CB01FF
:105AC0000F900F900F900F90DF91CF910895CF928C
:105AD000DF92EF92FF926B017C01621773078407DC
