:100000000C9417020C943F020C943F020C943F0294
:100010000C943F020C943F020C943F020C943F025C
:100020000C943F020C943F020C943F020C949E08E7
:100030000C943F020C943F020C943F020C943F023C
:100040000C9485180C943F020C943F020C943F02D0
:100050000C943F020C943F020C943F020C943F021C
:100060000C943F020C943F024352415A594341526F
:10007000004352415A59434152004372617A7963B5
:1000800061720008083C7E7E7E3C18183C08085AC5
:100090005A7E18183C246C080800183C247E42FF45
:1000A000FF080800183C060F307800080802037F9C
:1000B000FE7E444400100807F00BD00BFEFFFFFF4C
:1000C000FFFFFFCE27783CE100DC00D400CF0045E5
:1000D0007869740045787472656D65004861726472
:1000E00000456173790003053F213F1208120A1091
:1000F0000A0E1C0E0C1E0C141A14161F161E131EAC
:100100001E1B1E1E1F1E3F213F3A2F3A173D173F51
:10011000213F181F02040A041F0E04040E1F0A1FA9
:100120000A0E0E1F04110E2E252E2F2A2E262929E7
:10013000021F02081F08150E04040E150E15151BCC
:10014000151B040604040C04000000001700030043
:10015000031F0A1F16371A1904130A153A00030061
:10016000000E11110E000A040A040E0400300004EF
:1001700004040010001804031F111F121F101D1586
:100180001711151F07041F17151D1F151D01011F2E
:100190001F151F17151F000A00003200040A110A5C
:1001A0000A0A110A040115020E11171E051E1F1559
:1001B0000A0E110A1F110E1F15111F05010E111D28
:1001C0001F041F111F1108100F1F041B1F10101FE9
:1001D000061F1E040F0E110E1F09060E112E1F05FD
:1001E0001A121509011F011F101F0F180F1F0C1FD6
:1001F0001B041B031C03191513001F110304181102
:100200001F000201022020200001020C121E1F12FA
:100210000C0C12120C121F0C1A14041E05242A1E98
:100220001F021C141D1020201D1F0814111F101E5A
:10023000041E1E021C0C120C3E0A040C123E1E046C
:100240000214160A020F120E101E0E100E1E081EA9
:10025000120C1226281E322A26041E21001F0021FD
:100260001E040102013F213FF6E8DBCFC3B8AEA474
:100270009B928A827B746E68625C57524E494541FC
:100280003E3A3734312E2C29272523211F1D1C1AD5
:100290001917161514131211100F0E0D0C0B0A0955
:1002A00008070645006801000005006801380100E4
:1002B000000500380168010000C102BD020101FF14
:1002C000030101F7030A4E6F2053442063617264F7
:1002D000206F720A6E6F204C4F414445522E4845A4
:1002E000580A0A153A45786974001D20466C6173F6
:1002F00068696E670A20206C6F616465722E2E2E0D
:100300000A0A444F4E2754205455524E204F464619
:1003100021000A0A153A49676E6F7265006D560A28
:100320000A504C45415345205455524E204F4646A5
:1003300020004C4F5720424154544552592120002F
:1003400017534400161378001613140015102000DC
:1003500015201000540A03E181867F3E186D830F3B
:100360000F0E0183866033186DC3198F1803C38E77
:100370006033186DE330CF1803C39E603630CDE391
:1003800060CF3006C79E7E3E30CDB360CF300CC606
:10039000F6603330D9B660CF33CFCCF66061B0DBD6
:1003A0001E60CF30D86CE6C061B0DB1E618F19983B
:1003B0006CC6C063B19B0E330F0FB078C6FF7E1FB3
:1003C0001B061E0F050089300802380249786814A0
:1003D0000000000000080002010000030407000004
:1003E000000000000000010204081020408001020B
:1003F000040810200102040810200404040404046A
:1004000004040202020202020303030303030000C6
:10041000000023002600290000000000250028001D
:100420002B0000000000240027002A00E40511240E
:100430001FBECFEFD8E0DEBFCDBF11E0A0E0B1E03E
:10044000E6ECFAE302C005900D92A833B107D9F7A4
:1004500014E0A8E3B1E001C01D92A934B107E1F7AF
:1004600012E0C7E1D2E004C02197FE010E94E81C1F
:10047000C631D107C9F70E94C61A0C94611D0C94AD
:10048000000088EF9FEF90939901809398018EE18F
:1004900090E090939F0180939E018CE390E0909375
:1004A000A5018093A4018EE090E09093A701809332
:1004B000A6019093A1018093A00190939B0180934A
:1004C0009A011092690110926801109239011092FC
:1004D000380188E090E090936D0180936C019093D7
:1004E0003D0180933C0180E190E090937101809305
:1004F0007001909341018093400188E190E09093D6
:10050000750180937401909345018093440180E2CA
:1005100090E09093790180937801909349018093C2
:10052000480188E290E090937D0180937C01909354
:100530004D0180934C0180E390E090938101809382
:100540008001909351018093500188E390E0909353
:10055000850180938401909355018093540180E438
:1005600090E0909389018093880190935901809342
:10057000580188E490E090938D0180938C019093D2
:100580005D0180935C0180E590E090939101809300
:100590009001909361018093600188E590E09093D1
:1005A000950180939401909365018093640180E0AC
:1005B00090E020E030E065E270E041E050E0F901D9
:1005C000E85CFE4F7383628353AB42AB01962C5FB2
:1005D0003F4F8C30910599F79093B1018093B00112
:1005E00082EB91E00E94EB0E6AE770E082EB91E013
:1005F0000C946E0E41E063E08CEB91E00E9497104A
:10060000882339F020910A0130910B012C313105FA
:10061000CCF041E061E08CEB91E00E9497108823E0
:1006200039F080910A0190910B018D309105ACF465
:1006300025EB30E040910A0160910C0180E092E0EE
:100640000C94F6138091040190910501820F931F81
:1006500090930B0180930A01DCCF2091040130912B
:100660000501821B930B90930B0180930A01E0CF4D
:100670000F9304E224E544E260E080E092E00E940F
:10068000FD110CE024E54CE060E080E092E00E9487
:10069000FD111092B1011092B0018091B0019091C2
:1006A000B1018C3091050CF05CC09C01220F331F0E
:1006B000220F331FF901E85CFE4F40815181483F12
:1006C0006FEF560724F4405A5F4F51834083880FE1
:1006D000991F880F991FFC01E859FE4F8081918175
:1006E000883F7FEF970724F4805A9F4F9183808340
:1006F000F901E85CFE4F42816081718180910401C3
:1007000090910501681B790B7183608323E830E0C9
:1007100080E092E00E94F613E091B001F091B10107
:10072000EE0FFF1FEE0FFF1FE859FE4F4281608161
:1007300071818091040190910501681B790B71838F
:10074000608323E830E080E092E00E94F61380911D
:10075000B0019091B10101969093B1018093B001E5
:100760009CCF1092B1011092B0018091B001909194
:10077000B1012091AE013091AF0185309105CCF4EB
:10078000A901485F5F4F60910801489F600D1124E7
:10079000260F08E148E180E092E00E94FD1180917F
:1007A000B0019091B10101969093B1018093B00195
:1007B000DCCF809108019091090140910401509192
:1007C0000501841B950B90930901809308014CEF60
:1007D0005FEFBA01621B730B8617970734F482E050
:1007E00090E090930901809308010F9108958F92F2
:1007F0009F92AF92BF92CF92DF92EF92FF920F93B0
:100800001F93CF93DF931092B1011092B001C6E015
:10081000AA24A394B12C54E5852E912CDCE0809180
:10082000B0019091B101833091050CF029C1C89FAE
:10083000F001C99FF00D1124E856FE4F8481958187
:100840008130910509F474C094F5892B09F0CEC06C
:100850004281608171818091040190910501681B42
:10086000790B7183608327E930E080E092E00E9499
:10087000F6138091B0019091B101E0900A01F090DF
:100880000B0100910C0110910D01C89FF001C99F4F
:10089000F00D1124E856FE4F428153816081718131
:1008A00035EBC32E30E0D32E27E930E035C082305F
:1008B000910509F46CC0039709F098C042816081EA
:1008C00071818091040190910501681B790B7183FE
:1008D00060832DE830E080E092E00E94F613809182
:1008E000B0019091B101E0900A01F0900B010091EC
:1008F0000C0110910D01C89FF001C99FF00D11244A
:10090000E856FE4F428153816081718185EBC82E8C
:1009100080E0D82E2DE830E082EB91E00E94770F46
:10092000882309F463C0B092AD01A092AC015EC00F
:100930004281608171818091040190910501681B61
:10094000790B7183608321EA30E080E092E00E94BD
:10095000F6138091B0019091B101E0900A01F090FE
:100960000B0100910C0110910D01C89FF001C99F6E
:10097000F00D1124E856FE4F428153816081718150
:1009800025EBC22E20E0D22E21EA30E0C5CF4281F5
:10099000608171818091040190910501681B790B40
:1009A000718360832BEA30E080E092E00E94F613CE
:1009B0008091B0019091B101E0900A01F0900B019B
:1009C00000910C0110910D01C89FF001C99FF00D1D
:1009D0001124E856FE4F428153816081718195EB6D
:1009E000C92E90E0D92E2BEA30E096CF8091B0014D
:1009F0009091B101C89F8001C99F100D1124085624
:100A00001E4FF80180819181893F9F4F7CF5809135
:100A1000AA019091AB0101969093AB018093AA013A
:100A2000F8019182808262E070E080E090E00E94B4
:100A3000D51AD69F9001D79F300D1124C9010E966B
:100A4000F801938382830091B0011091B10164E0B9
:100A500070E080E090E00E94D51AC09FF001C19F35
:100A6000F00D1124E856FE4F758364838091B00128
:100A70009091B10101969093B1018093B001CFCED6
:100A8000DF91CF911F910F91FF90EF90DF90CF906A
:100A9000BF90AF909F908F9008958CE190E09093DD
:100AA0000B0180930A018EE090E09093A701809360
:100AB000A6019093A1018093A00190939B01809344
:100AC0009A011092AD011092AC011092AB011092FC
:100AD000AA0144E067EC70E082EB91E00E949D0B7C
:100AE0008130B9F02CF48F3F41F0882379F00895DC
:100AF000823091F08330B9F0089581E090E09093D6
:100B000007018093060161E770E015C082E090E084
:100B100005C083E090E002C084E090E0909305017E
:100B200080930401089581E090E090930701809301
:100B3000060168E670E082EB91E00C946E0E82EBA9
:100B400091E00E94E20A8823F1F1809106019091E0
:100B50000701892B29F0109207011092060131C07C
:100B60008091AC019091AD01892B31F40E94380342
:100B70000E94FA020C94F70380E092E00E942C118C
:100B800060E171E080E092E00E94C3196091AA01E7
:100B90007091AB014AE050E080E092E00E949A1A26
:100BA00060E271E080E092E00E94C31966E08CEBA5
:100BB00091E00E948E10882331F087ED91E00E9431
:100BC000D8080C944D050895109203021092020269
:100BD00083E391E090930102809300022091080149
:100BE0003091090185E190E0821B930B9093AF0156
:100BF0008093AE01E8E9F1E0118210821382128243
:100C000015821482369681E0EA3AF807A9F7E8E3FC
:100C1000F1E01182108213821282349681E0E83969
:100C2000F807B9F7089550E0DA01AA0FBB1FA80F23
:100C3000B91F1F963C911F9750962C915097E32F08
:100C4000F22FE60FF11DE60FF11D6591749190965C
:100C50007C936E935F97FB0125913491FC01348165
:100C6000329F202D1124DC01A40FB51F91962C93E7
:100C70009197FB0185919491E92FF0E0822F90E00C
:100C8000E817F90720F4FB0185919491292F239F00
:100C9000202D112492962C93089521E0FC012483A9
:100CA00024E020A729EB32E0308B278740E060E08A
:100CB0000E94130661E070E083E00E946817E1EB98
:100CC000F0E08081887F81608083F89410928000BA
:100CD000E1E8F0E01082109285001092840088E133
:100CE00091E0909389008093880080818860808360
:100CF000808181608083EFE6F0E080818260808384
:100D0000789408950F93FC01942F01112AC062304A
:100D1000D9F050F4662399F0613019F540E0692F5D
:100D2000CF010F910C9413066330A9F06430C9F41D
:100D30006481469F902D1124958F268F12C04B30D1
:100D400008F09AE0968B0DC06481469F902D112487
:100D5000918F228F06C06481469F902D1124938F1E
:100D6000248F0F910895FC0121110EC0648B8481A2
:100D7000489F402D1124458B15A214A213A281E097
:100D8000878B80933D02108E089580913D028823C9
:100D900019F080913A0201C080E08093B400089578
:100DA000FC0161110DC0178A158A14A213A2108EBE
:100DB00010923A0210923B0210923D020C94C5062A
:100DC0000895CF93DF93611104C0EC010E94D00617
:100DD0001982DF91CF9108950F931F93CF93DF93E3
:100DE000411110C08B01EC0160E00E94E1061E87FA
:100DF0000D871B8A1A8A81E0898389E08E8B198E80
:100E00001B8E1D8EDF91CF911F910F910895CF936F
:100E1000DF93DC01611131C08C91882371F111964F
:100E20008C911197811129C019968C911997179659
:100E30002C91179718969C911897E22FF92FE80F8D
:100E4000F11DE80FF11D259134912F3F8FEF3807E9
:100E500011F41C9212C0ED013C873327220F331F7F
:100E6000EA85FB85E20FF31F6591749140E0CD01A7
:100E70000E94EC0689858F5F8987DF91CF91089565
:100E800060E00C94070760E00C94E1060F93CF93A9
:100E9000DF93EC0161115CC08981882309F458C09B
:100EA0008D89811155C02D853E85EA89FB89EE0F1C
:100EB000FF1FE20FF31F859194910097D1F4898968
:100EC000882321F01B8A1A8AF90111C019828881AE
:100ED00060E0882331F0CE010E940707EA89FB8990
:100EE00025C0CE01DF91CF910F910C94D006859152
:100EF0009491BC01769567957695679580FF1DC0A6
:100F0000AC0176E0569547957A95E1F7292F26951D
:100F10002695269520514F716F7000E0CE010E94FA
:100F20008206EA89FB893196FB8BEA8BEE0FFF1F65
:100F30008D859E85E80FF91FDACF492F6F7320E06A
:100F4000CE010E94B3068A899B8901969B8B8A8B6E
:100F5000DF91CF910F91089560E00C944607CF93F5
:100F6000DF93EC016111BBC08F89882309F4B7C0FE
:100F70009D89911105C0CE01DF91CF910C94D006CF
:100F800091509D8B8DA1811139C02BA13CA12F5F68
:100F90003F4FC901880F991FEF8DF8A1E80FF91F86
:100FA00065917491862F87708EA3AB0163E056958F
:100FB00047956A95E1F7CA0196958795972F96957B
:100FC00096959FA38F739C81899F802D11248DA35B
:100FD0004170409339023CA32BA389A190E02817CC
:100FE000390760F02AA1222329F0821B91099CA3D2
:100FF0008BA304C060E0CE010E94D0068DA1815079
:101000008DA3888D21E0280F288F4C893FA1340FB4
:101010008C85380F3A836B8D662361F070E0822FE8
:10102000992787FD90950E94881C8C8D869F300D96
:1010300011243A838A8190E0CB966BE370E00E94A2
:10104000881C8A833E893B83698D662371F07727EC
:1010500067FD7095822F992787FD90950E94881CC7
:101060008A8D869F300D11243B836D8D662391F010
:10107000822F992787FD909570E00E94881CCB01F4
:1010800062E070E00E94881C2E8D9B81289F900D4D
:1010900011249B838B814F3339F08A300CF089E027
:1010A00087FD80E08B8301C01B82F894EA81F0E029
:1010B000E859FD4FE491E0933C0288A59D81899F0A
:1010C000802D11249B81899F802D11249EA1899FB1
:1010D000802D112480933B0280933A027894DF9113
:1010E000CF91089560E00C94AF0760913B026623B6
:1010F00021F180913E028F5F80933E0290913C02ED
:101100008917D8F090913D0281E0892780933D02B4
:1011100010923E0280913902882369F080910E017D
:1011200093E4899F802D1124895B80930E010E9496
:10113000681C90933A020C94C50608951F920F9272
:101140000FB60F9211242F933F934F935F936F939A
:101150007F938F939F93AF93BF93EF93FF930E94DF
:101160007508FF91EF91BF91AF919F918F917F9102
:101170006F915F914F913F912F910F900FBE0F9004
:101180001F901895CF93DF93EC0160E00E94E10679
:1011900081EB92E09E878D871B8A1A8A81E0898382
:1011A00089E08E8B198E1B8E1D8EDF91CF91089555
:1011B000CF93DF93EC0160E00E94E10689EA92E0C0
:1011C0009E878D871B8A1A8A81E0898389E08E8BAE
:1011D000198E1B8E1D8EDF91CF910895CF93DF93D3
:1011E000EC0160E00E94E10683EA92E09E878D8731
:1011F0001B8A1A8A81E0898389E08E8B198E1B8E67
:101200001D8EDF91CF910895FC01262F332727FDF6
:1012100030959681692F70E06F5F7F4FC9010E9402
:10122000881C85830895FC018CE39FE0938382836F
:1012300084E0818381E084870895CF93DF93FC016C
:1012400024813581232B81F1EC0184858F7149F54F
:1012500084E10E944B17BC01882777FD8095982F69
:101260000E94691B26EE3FE34EEC50E40E94F51B02
:101270000E943B1B9B017B836A83672B81F084E088
:101280008983FE01349680E04191519124173507FE
:1012900010F4898309C08F5F8430B1F702C08FEFEB
:1012A00089838C858F5F8C87DF91CF91089521E0B2
:1012B000FC012083089570E085E00C946817AF92DC
:1012C000BF92CF92DF92EF92FF920F931F93CF9333
:1012D000DF93EC0189819A812FE0289F8001299F6B
:1012E000100D112485E10E944B17800F911F24E0FF
:1012F000969587952A95E1F79A83898328812223F9
:1013000091F1EC81AD80B12CC12CD12CA885B9858F
:101310007D0100E010E06E817F819B0140E050E0A4
:101320008617970728F0BC01A817B90708F4BD0174
:1013300080E090E01F921F921F92EF930E94F91A93
:101340006B830F900F900F900F9070E085E0DF910E
:10135000CF911F910F91FF90EF90DF90CF90BF90B2
:10136000AF900C946817DF91CF911F910F91FF9070
:10137000EF90DF90CF90BF90AF9008958F929F92A3
:10138000AF92BF92CF92DF92EF92FF920F931F9393
:10139000CF93DF93EC015C0186E8A80EB11CD50168
:1013A0009C91992309F44DC09C3018F41CE0191B42
:1013B00001C010E0FE01EA5AFF4F81E080836E0118
:1013C000BEE4CB0ED11C60E0C6010E9486114E0126
:1013D000E3E58E0E911CD4018C9103E0080F9DE291
:1013E000F92E4F2D481B410F23E0E22E24E560E04B
:1013F000C6010E94B91361E0C6010E948611F40182
:10140000808103E0080F4F2D481B410F24E560E069
:10141000C6010E945913FE01E95AFF4F84E0808300
:101420003196D4018C91181B115D1083CC57DF4F7E
:1014300068817981C6010E94A019F50180818150DF
:101440008083DF91CF911F910F91FF90EF90DF90FC
:10145000CF90BF90AF909F908F900895CF92DF92E2
:10146000FF920F931F93CF93DF93FC01248D358D53
:10147000232B09F49FC0EC018C01025B1F4F40E05D
:1014800061E0C8010E948A11FE01E95AFF4FDE01A6
:10149000AE5ABF4F9C9185E5891B8083319610829F
:1014A000698D613009F463C028F0888D653008F0DB
:1014B00074C06FC0CE0185960E94430781E0FE0193
:1014C000EA5AFF4F808366EE70E0C8010E946715FC
:1014D0001D8E1C8EFE01EC5AFF4F108288EAF82EFA
:1014E0006E01FAE0CF0ED11CCE010E94E20A8823E1
:1014F000D9F362E373E0C8010E94A0196A8D7B8D65
:101500004AE050E0C8010E94BF1A6DE173E0C801D3
:101510000E94A0196F2D62956F7070E04AE050E054
:10152000C8010E94921A62E173E0C8010E94A019EA
:1015300064E0C6010E948E1081113CC0FA94F11043
:10154000D3CF60E0CE010E945B0993B7917F946096
:1015500093BF83B7816083BF83B7816083BF889562
:1015600083B78E7F83BF83B78E7F83BFBDCFCF58B6
:10157000DF4F88819981AA81BB818F709927AA2723
:10158000BB270897A105B10510F467E009C068E71B
:1015900007C0882379F06B5F03C0882359F06FE29E
:1015A000C801DF91CF911F910F91FF90DF90CF90F5
:1015B0000C94C519DF91CF911F910F91FF90DF908F
:1015C000CF9008958F929F92AF92BF92CF92DF9269
:1015D000EF92FF920F931F93CF93DF93EC017C0167
:1015E00080E8E80EF11CF70180809180A280B38032
:1015F0000E94CF18861A970AA80AB90A6E01FFE757
:10160000CF0ED11CF601808190E0A0E0B0E08E0109
:1016100005581F4F88159905AA05BB0550F4F80118
:1016200080819181A281B381892B8A2B8B2B09F038
:1016300040C0F80180819181A281B381892B8A2BDE
:101640008B2BA9F57E01F5E2EF0EF11CC7010E947C
:101650004007C7010E94AC07C7010E947208CE0173
:101660000E94BE09CE010E942E0A7E018EE4E80E81
:10167000F11CC7010E943D11FE01EC5AFF4F808111
:10168000811103C0C7010E942C110E94DB18F801D0
:101690006083718382839383FE01EB58FF4FC958A7
:1016A000DF4F28813981621B730B7183608380E077
:1016B00037C00E94CF18F6012081DC01CB01820FD8
:1016C000911DA11DB11DF70180839183A283B38376
:1016D000FE01EF58FF4F80819181A281B381019675
:1016E000A11DB11D80839183A283B383F801108271
:1016F0001182128213820E94DB18FE01E958FF4F0B
:101700006083718382839383CE010E945F09CE013F
:101710000A960E945610CE0148960E941D0981E04B
:10172000DF91CF911F910F91FF90EF90DF90CF90BD
:10173000BF90AF909F908F9008952F923F924F92BD
:101740005F926F927F928F929F92AF92BF92CF9251
:10175000DF92EF92FF920F931F93CF93DF93CDB75A
:10176000DEB766970FB6F894DEBF0FBECDBF6C0133
:10177000688B798B4B83FC01EC5AFF4F10823FEF53
:101780003D831C821E8A10E31D8A5C015AE0A50E6F
:10179000B11C1C0183E5280E311CBF972F01242F9B
:1017A00030E03F832E83C601895A9F4F99878887EF
:1017B000F396FB87EA8796012A5A3F4F3D872C878D
:1017C00002979F878E873A973F01C6010E94E20ADF
:1017D0008823D9F364E0C5010E948E10012F1127E0
:1017E00007FD1095811144C065E0C5010E948E106F
:1017F00081113EC066E0C5010E948E10811138C083
:101800005C8151114BC044E063E0C5010E94971018
:10181000882331F03D893F5F3D8BC2010E94EE0875
:1018200044E061E0C5010E949710882331F05D8992
:1018300051505D8BC2010E94EE083D89832F99278C
:1018400087FD9095EE81FF818E179F0731F037FF5E
:1018500005C03B8131503D8B01C01D8AF101808163
:1018600094E0980F3D89839F901911249E8B21C08D
:10187000F101F08064E0C5010E948E10882309F414
:101880008FC0C2010E94C2083D893D83F1943B8113
:10189000F39EF02C1124FA94FA94FE8AC8015E8912
:1018A000851B910957FD939502970CF47DC031E09B
:1018B0003C835E89050F111D57FD1A9517FF02C065
:1018C0000F5F1F4FC801959587959A83898309817A
:1018D000102FE885F9851082EA85FB85808381E0F9
:1018E000EC85FD858083EE85FF851082E888F98888
:1018F000812C912C5D89252F332727FD309543E0DE
:101900008E819F818816990621F18216930671F4C3
:10191000E885F9854083F1018081F02F5D89589F2A
:10192000F00D11248F2FEA85FB858083F7016591E7
:101930007491C3012A8B3B8B4C8B0E94E019FFEF03
:101940008F1A9F0A52E0E50EF11C4C893B892A89C7
:10195000D7CF60E0C3010E948611F10180814981E7
:101960003D89389F400D1124415024E560E0C301BA
:101970000E94B11161E0C3010E948611F1018081D2
:1019800003E0080F49813D89389F400D11244250E2
:1019900083E0E82E24E560E0C3010E94591315CFCF
:1019A000C2010E94D80872CF8D8166960FB6F89456
:1019B000DEBF0FBECDBFDF91CF911F910F91FF9082
:1019C000EF90DF90CF90BF90AF909F908F907F90DF
:1019D0006F905F904F903F902F9008950F931F93BB
:1019E000CF93DF93EC018C01025B1F4FC8010E9473
:1019F0002C116AEE72E0C8010E94A019C8010E9471
:101A00003D118CB583608CBD8DB58E7F8DBD88E218
:101A100091E0EEEFFFE30995FE01EC5AFF4F1082D3
:101A200065EC72E0C8010E94E019C8010E943D11F6
:101A30002A96CE010E94561064E0CE010E948E10BC
:101A4000811107C062E370E080E090E00E9400191D
:101A5000F0CFDF91CF911F910F9108952F923F9278
:101A60004F925F926F927F928F929F92AF92BF92AE
:101A7000CF92DF92EF92FF920F931F93CF93DF935A
:101A8000CDB7DEB72A970FB6F894DEBF0FBECDBF35
:101A90003C0120E7620E711CF3012081222309F42E
:101AA00004C15A011B019A8789877A9781E0808354
:101AB000E985FA85EB5AFF4F1082E985FA85EC5AE1
:101AC000FF4F1082E985FA85108E8F01025B1F4F50
:101AD00061E0C8010E948611F101F491FF83C9847D
:101AE000DA8427E5C20ED11CE984FA8488E5E80E81
:101AF000F11CE985FA85EE5AFF4FFA83E98389855F
:101B00009A858F589F4F9E838D83E985FA85ED5A7C
:101B1000FF4FFC83EB8389849A84FAE08F0E911C3B
:101B200049845A8425E2420E511C89859A850E9477
:101B3000E20A8823D1F38F81882321F0EB81FC8195
:101B4000508101C050E024E533E040E060E0C8018E
:101B500058870E94F6135885A114B10439F04CE05F
:101B6000450F950160E0C8010E94F613F60110824E
:101B70008CE0F7018083B101C8010E94A019E981BE
:101B8000FA818081982F990F890F81958D5AF601DE
:101B90008083EB81FC818081982F990F890F81953B
:101BA000835DF7018083ED81FE81808184FF03C026
:101BB00060E573E002C06CE473E0C8010E94E019C4
:101BC000E981FA818081982F990F890F81958D5A2B
:101BD000F6018083F70180818F5F8083E985FA8534
:101BE00082A5882319F068E473E002C064E473E01E
:101BF000C8010E94E019E981FA818081982F990F2C
:101C0000890F81958D5AF6018083F70180818F5F5E
:101C1000808360E473E0C8010E94E01965E0C401BC
:101C20000E948E10882351F0E985FA8562A56F5FC6
:101C3000C2010E940409C2010E94EE0864E0C401CE
:101C40000E948E1081111FC0F3012081422F50E0AD
:101C500060E070E0ED81FE8180819181A281B3819D
:101C600084179507A607B70710F02F3F61F466E0C9
:101C7000C4010E948E10882309F457CF89859A8564
:101C80000E94EE0C42CF8FEFF301808309851A8505
:101C90000B5D1F4F60E0C8010E94E106C8010E9471
:101CA000C20881E0E985FA85808F2A960FB6F894FC
:101CB000DEBF0FBECDBFDF91CF911F910F91FF907F
:101CC000EF90DF90CF90BF90AF909F908F907F90DC
:101CD0006F905F904F903F902F90089540E050E0BC
:101CE0000C942E0DE0E8F7E72591349181E0213046
:101CF000304C09F080E00895CF93DF93EC010E940F
:101D0000720E9E01275A3F4FDE01A059BF4F882314
:101D100009F43CC0E6E9F7E78491F9018083E7E93B
:101D2000F7E7E491EC83E8E9F7E7E491ED83E9E98B
:101D3000F7E7859194919F838E83EBE9F7E785918F
:101D4000949199878887EDE9F7E7E491EBA7EEE9AD
:101D5000F7E7E491EAA7EFE9F7E7E491EC93E0EA2B
:101D6000F7E7859194919D8F8C8FE2EAF7E7859153
:101D700094919F8F8E8FE4EAF7E78591949199A3D0
:101D800088A3E6EAF7E78591949120C08CE3F901F6
:101D900080831C828FEF8D8320E233E03F832E838C
:101DA00024ED33E03987288791E09BA79AA78C938D
:101DB0008CEA9DE09D8F8C8F8EED9DE09F8F8E8FA6
:101DC00084E79EE099A388A38CE39FE09BA38AA36A
:101DD000DF91CF910895CF92DF92EF920F93CF933F
:101DE000DF93EC01FC01E158FF4F82E380833497DD
:101DF00081E090E0A0E0B0E080839183A283B38390
:101E00003B978FEF8083CE010E947C0ECE010E9413
:101E100057096FEFCE010E945B096E018AE0C80E80
:101E2000D11CC6010E944610C6010E945610CE0168
:101E300048960E9413098EE0E82E0FE020E14BE067
:101E40006DE0CE01825B9F4F0E947B15A596CE016F
:101E50000E944D0665E0C6010E948E10882351F055
:101E600060E0CE01DF91CF910F91EF90DF90CF90A6
:101E70000C94040940E064EC73E0CE01DF91CF9153
:101E80000F91EF90DF90CF900C94EC068F929F9281
:101E9000AF92BF92CF92DF92EF92FF920F931F9378
:101EA000CF93DF93CDB7DEB7260F371FE216F306C9
:101EB00084F4EA0CFB1C6E157F055CF4040F151FFF
:101EC000C016D10634F48C0C9D1C81E048155905D0
:101ED0000CF080E0DF91CF911F910F91FF90EF9078
:101EE000DF90CF90BF90AF909F908F9008952F92EA
:101EF0003F924F925F926F927F928F929F92AF929A
:101F0000BF92CF92DF92EF92FF920F931F93CF93E6
:101F1000DF93CDB7DEB760970FB6F894DEBF0FBE84
:101F2000CDBF9E878D873B01588B4F8738872F8386
:101F300018012701DA86C986F9018491282F30E03B
:101F40003A8329833196E4916E2F70E07C836B8312
:101F5000F6018491282F30E03E832D833196E49161
:101F60006E2F70E07C876B874B0159016701780108
:101F70000B811C8129813A81B3018D859E850E9448
:101F8000460F811102C080E068C06214730424F41B
:101F9000A1014619570902C040E050E08F85988999
:101FA0008415950524F49201281B390B02C020E00A
:101FB00030E08D819E81820D931D69817A81660D4D
:101FC000771D681779072CF0DC01A619B709BA83C9
:101FD000A983EB85FC85E40DF51D8B819C816F85C4
:101FE0007889860F971F8E179F072CF0CF01861BCD
:101FF000970B9C838B83722E542E0D851E85025B5E
:102000001F4F3F8434186218872D90E0EB81FC81CC
:102010008E179F070CF0B7CF252C432C470C822D31
:1020200090E0A981BA818A179B07ACF4272D422D35
:102030006F817885C8010E943815882351F0242DBE
:10204000462D420D69857A85C8010E943815811197
:1020500004C02394E4CF7394D7CF60960FB6F8945E
:10206000DEBF0FBECDBFDF91CF911F910F91FF90CB
:10207000EF90DF90CF90BF90AF909F908F907F9028
:102080006F905F904F903F902F900895FC0188E0F3
:10209000808389E0818387E0828386E0838384E094
:1020A000848382E0858381E186830895DF92EF92C5
:1020B000FF920F931F93CF93DF93EC017C0187E096
:1020C000E80EF11C8701DD24DA9462E088810E9429
:1020D000F01788810E945C18F801892B21F4808117
:1020E0008F5F808309C08081882351F08F3F11F476
:1020F000108202C0F801D08260E088810E94F0174F
:1021000021960F5F1F4FCE15DF05F9F6DF91CF91B6
:102110001F910F91FF90EF90DF900895FC01E60F63
:10212000F11D81E09781913009F080E00895FC0174
:10213000262F30E0E20FF31F423030F497819150A8
:1021400081E09E3F58F009C087818F3F31F0642FB6
:102150000E94681C81E0913009F080E008958EBDF6
:1021600000000DB407FEFDCF8EB50895FC01643567
:1021700008F053C0403308F050C090A1742F7595FB
:1021800075957595262F332727FD3095542F577059
:102190009230A1F4F901E15CFD4F84E57802E00D95
:1021A000F11D1124808190E0052E02C09595879540
:1021B0000A94E2F78095982F91700AC0933041F409
:1021C00084858170462740954170841303C014C0F4
:1021D000911112C084E57802200D311D1124F901FE
:1021E000E15CFD4F81E090E001C0880F5A95EAF76D
:1021F00080959081892310C084E57802200D311DDF
:102200001124F901E15CFD4F81E090E001C0880FED
:102210005A95EAF79081892B808308951F93CF9375
:10222000DF93EC01162FF89460E08F850E942C1844
:10223000888918161CF460E00E942C18812F0E94D7
:10224000AF10888918161CF461E00E942C1878944D
:10225000DF91CF911F91089528EF31E0EFE3F2E095
:10226000DF01A9011D9241505040E1F7DC011996B0
:102270001C9219971A961C920895CF92DF92EF92B2
:10228000FF921F93CF93DF93EC018C858F5F8C8738
:102290008FE3C82E82E0D82E10E0612F6064CE015B
:1022A0000E940E1160E8CE010E940E1161E08F8540
:1022B0000E942C18888918161CF460E00E942C18C3
:1022C000E12CF12CF601EE0DFF1D80810E94AF1074
:1022D0008FEFE81AF80A84E5E816F10499F788897F
:1022E00018161CF461E00E942C181F5F84E5C80ECC
:1022F000D11C163091F660E4CE01DF91CF911F9191
:10230000FF90EF90DF90CF900C940E11FC0160A332
:1023100061A30895FC0160A341A30895DF92EF92A9
:10232000FF920F931F93CF93DF931F92CDB7DEB72A
:102330008C01D62EF42EE12CE21654F44E2D4F0DC6
:102340006D2DC80129830E94B610E3942981F4CF32
:102350000F90DF91CF911F910F91FF90EF90DF9041
:102360000895DF92EF92FF920F931F93CF93DF9325
:102370001F92CDB7DEB78C01D62EF42EE12CE216DB
:1023800054F46E2D6D0D4F2DC80129830E94B61097
:10239000E3942981F4CF0F90DF91CF911F910F919A
:1023A000FF90EF90DF900895DF92EF92FF920F93EE
:1023B0001F93CF93DF937C01D62FD22EC42F1127EA
:1023C00007FD1095040F111D47FD1A954C2F552739
:1023D00047FD50954017510744F42D2D4C2F6D2F7C
:1023E000C7010E94B111CF5FF1CFDF91CF911F9153
:1023F0000F91FF90EF90DF900895AF92BF92CF9230
:10240000DF92EF92FF920F931F93CF93DF936C01B4
:10241000C62FD42F122F202F332727FD3095241BB2
:10242000310947FD339537FF03C0319521953109B7
:10243000812F992787FD90958C1B9109C7FD939556
:1024400097FF03C0919581959109BB24B39482179E
:10245000930714F0B12C06C0812F102F082F8C2F5A
:10246000CD2FD82F1C1734F48D2FD02F082F8C2F61
:10247000C12F182FA12EAC1A202F332727FD3095FE
:102480002D1B3109D7FD339537FF03C031952195B9
:102490003109E22EFA2CA7FE03C0FF24F394FA0CB4
:1024A000F594D01714F00FEF0FC001E00DC0BB2062
:1024B00071F04C2F6D2FC6010E94B610FE18F7FE6A
:1024C00002C0D00FFA0CCF5F1C178CF703C04D2F42
:1024D0006C2FF1CFDF91CF911F910F91FF90EF9073
:1024E000DF90CF90BF90AF9008958F929F92AF9260
:1024F000BF92CF92DF92EF92FF920F931F93CF93F1
:10250000DF937C01162FD42EC22F81E0C82EC21A71
:10251000B22EB194BB0CD0E0802F8470A82E802FF7
:102520008270982E802F8870882E0170DC170CF036
:102530004DC0C7FC04C0C150B394B394CB0CDF5F53
:102540008D2F880F8F5FC80EAA2071F04C2F4D0D74
:102550006D2F610FC7010E94B6104D2F4D0D6C2FCE
:10256000610FC7010E94B610992071F04D2D4C1BD0
:102570006D2F610FC7010E94B6104D2D4D1B6C2FA2
:10258000610FC7010E94B610882071F04D2F4D0DCC
:10259000612F6C1BC7010E94B6104C2F4D0D612F8F
:1025A0006D1BC7010E94B610002309F4BFCF4D2D4B
:1025B0004D1B612F6C1BC7010E94B6104D2D4C1B8B
:1025C000612F6D1BC7010E94B610B0CFDF91CF9174
:1025D0001F910F91FF90EF90DF90CF90BF90AF9041
:1025E0009F908F9008958F929F92AF92BF92CF92BB
:1025F000DF92EF92FF920F931F93CF93DF936C01C3
:10260000B62EA42EC22F11E0121BF22EF194FF0C55
:10261000D1E0802F8170882E992493949E0C0270B3
:102620008FEF8D0F8C17C4F517FD04C0C150F394C4
:10263000F3941F0D8D2F880F8F5F180F882099F04E
:102640002C2F220F290D4A2D4C1B6D2F6B0DC6010F
:102650000E948E1123E02E0D4A2D4D1B6C2F6B0D09
:10266000C6010E948E11002399F02C2F220F290DF4
:102670004A2D4C1B6B2D6D1BC6010E948E1123E051
:102680002E0D4A2D4D1B6B2D6C1BC6010E948E1109
:10269000DF5FE394E394C4CFDF91CF911F910F915B
:1026A000FF90EF90DF90CF90BF90AF909F908F9072
:1026B00008959F92AF92BF92CF92DF92EF92FF92D6
:1026C0000F931F93CF93DF936C01C62FD42FA22EAD
:1026D000BE2CB194BB0C9B2C920EFE2CF60E292D19
:1026E0006F2D0E94B1111FEF100F1D0F292D412FCB
:1026F0006F2DC6010E94B1110B0DDE0D202F4D2F45
:102700006C2FC6010E948E11CA0D6FEF6C0F202F27
:102710004D2FC6010E948E1101E02E2D4D2F6F2DE1
:10272000C6010E9475128E2D8095C80F02E02E2DD5
:102730004D2F6C2FC6010E947512D12FDE1904E0B7
:102740002E2D4D2F6C2FC6010E94751208E02E2DE4
:102750004D2F6F2DC6010E947512DF91CF911F91F1
:102760000F91FF90EF90DF90CF90BF90AF909F9030
:1027700008959F92AF92BF92CF92DF92EF92FF9215
:102780000F931F93CF93DF936C01A62EB42EF22EDE
:10279000C02F1E2DDE2DD195DD0F9E2C960E2D2FD8
:1027A0002F0D692D0E94D411C150CD0FDE2DDB0DF0
:1027B000AA94FA0C6F2D6E19EC2E01E0212F4D2FEB
:1027C000C6010E94F31202E0212F4D2F692DC60190
:1027D0000E94F312DF91CF911F910F91FF90EF9024
:1027E000DF90CF90BF90AF909F9008954F925F92EF
:1027F0006F927F928F929F92AF92BF92CF92DF9211
:10280000EF92FF920F931F93CF93DF93F901C49040
:1028100031965491EC0108A164350CF018C1DD2407
:10282000C7FCD094A62FBB27A7FDB0957D01EC0C6B
:10283000FD1C1E141F040CF00AC140330CF007C12C
:10284000A52E842E992487FC9094F401E50FF11DA8
:1028500057FDFA951E161F060CF0F9C02E5F3F4F6C
:10286000E6012796D7FD279673E0D595C7957A950B
:10287000E1F747FF0AC0A52EA40EC89DA001C99D7F
:10288000500D1124241B350B40E0EA2DFF27E7FDF6
:10289000F095E40FF11D47FDFA95F1971CF050E318
:1028A000A52EA41A67FD60E0F701E535F10514F0E7
:1028B000E4E5F0E07E2FFC01D484D426862F99270E
:1028C00087FD9095FC01EA1BFB0BDF017F01F7E020
:1028D000EF22FF24E0E8F0E002C0F595E795EA94E6
:1028E000E2F71E2FB7FD179653E0B595A7955A95B9
:1028F000E1F72A0F3B1FE42FE77051E001C0550FAD
:10290000EA95EAF7459545954595B4E54B02800D66
:10291000911D1124815C9D4FC12CBB24A7FCB09458
:10292000992493942E015524EC2DF0E0EA15FB0533
:102930000CF08DC0F90144910130E1F47C01A12F2C
:10294000862E881AB82DBE0DB71708F077C0B42FA1
:10295000BA2321F0E701B881B52BB883B0E0B59573
:10296000A795109719F431964491A0E8DFEFED1A7E
:10297000FD0AE8CF01111FC0752E70947C01A12FB4
:10298000F901862E881AB82DBE0DB71708F056C06B
:10299000B42FBA2321F0E701B881B721B883B0E0A2
:1029A000B595A795109719F431964491A0E8DFEFFB
:1029B000ED1AFD0AE8CF033031F07C01A12FF901B7
:1029C000862E881A37C0752E7094862E7C01A12F12
:1029D000F9018716D8F4B42FBA2359F0E701B8816A
:1029E000682C6D2460FE02C0B52B02C0B721E70140
:1029F000B883B0E0B595A795109719F43196449136
:102A0000A0E88394DFEFED1AFD0AE3CFD92416C0C6
:102A1000B42FBA2321F0E701B881B527B883B0E01D
:102A2000B595A795109719F431964491A0E8DFEF7A
:102A3000ED1AFD0AB82DBE0DB71750F3550F19F456
:102A40008C5A9F4F51E0C394240D351D6DCFDF91FB
:102A5000CF911F910F91FF90EF90DF90CF90BF909B
:102A6000AF909F908F907F906F905F904F90089560
:102A7000CF93DF93FB01C491842F90E033E09595D1
:102A800087953A95E1F70296D0E0279653E0D595E1
:102A9000C7955A95E1F72C9FD0012D9FB00D1124B9
:102AA0008A0F9B1FE80FF91FE491F0E0477060E880
:102AB00070E002C0759567954A95E2F7E623F72323
:102AC00081E0EF2B09F480E0DF91CF910895DC01E4
:102AD000FB0184918F5F14968C9314973196E49147
:102AE000EF5F1596EC9315976E5F7F4F5F967C9323
:102AF0006E935E970895EF920F93CF93DF93EC015F
:102B00004E876D872F87E98A088B81E0888788A3A5
:102B100019A28F8366EE70E0CE010E9467150E94B5
:102B200015178CB58F7D8CBD8CB58C7F81608CBD6D
:102B30008DB581608DBD8CB58C608CBD61E08E855E
:102B40000E94F01761E08D850E94F01761E08F858B
:102B50000E94F017898918161CF461E00E94F01792
:102B6000888918161CF461E00E94F01789891816EC
:102B70006CF460E00E942C186AE070E080E090E065
:102B80000E94001961E089890E942C188D8599277F
:102B900087FD9095FC01E650FC4FE491F0E0EE0FCC
:102BA000FF1FE85EFB4F259134913D8B2C8BFC0180
:102BB000EA51FC4FE491EB8F8E85992787FD909524
:102BC000FC01E650FC4FE491F0E0EE0FFF1FE85EE1
:102BD000FB4F259134913B8B2A8BFC01EA51FC4F32
:102BE000E491EA8F8889992787FD9095FC01E6504A
:102BF000FC4FE491F0E0EE0FFF1FE85EFB4F2591E4
:102C000034913F8B2E8BFC01EA51FC4FE491EC8F09
:102C10008F85992787FD9095FC01E650FC4FE49144
:102C2000F0E0EE0FFF1FE85EFB4F25913491398FE6
:102C3000288FFC01EA51FC4FE491ED8F61E2CE0157
:102C40000E940E1164E1CE010E940E118B8587FF58
:102C500002C08FE78B876B856068CE010E940E11E2
:102C600060E2CE010E940E116CE0CE010E940E11B6
:102C7000CE01DF91CF910F91EF900C943D116F92A7
:102C80007F928F929F92AF92BF92CF92DF92EF92FC
:102C9000FF920F931F93CF93DF93EC0188A06435CD
:102CA0000CF080C040330CF07DC0EC81F0E0319737
:102CB0000E9FC0010F9F900D1124860F911D67FD7F
:102CC0009A95181619060CF06DC0ED81E09FF00181
:102CD0001124E40FF11D47FDFA951E161F060CF096
:102CE00061C0102FE42EF62EB62E962EC22ED12CB9
:102CF000EB2DEF19FF27E7FDF0958C8190E0E817A9
:102D0000F9070CF04EC00197E817F90779F0C89E53
:102D10009001C99E300DD89E300D1124E20FF31F93
:102D20008E8D9F8DE80FF91F749001C0712CAE2C11
:102D30006E2C2A2D2E19332727FD30958D8190E09A
:102D4000281739075CF570FE10C0113031F44A2D98
:102D50006B2DCE010E94B6101DC0012F212F462DD4
:102D6000692DCE010E94D41115C089A198A189179F
:102D700089F088A3113031F44A2D6B2DCE010E94C9
:102D8000B61007C0012F212F462D692DCE010E94BC
:102D9000D41188A27694610EA394CBCF910EB394F4
:102DA000A7CF88A2DF91CF911F910F91FF90EF9055
:102DB000DF90CF90BF90AF909F908F907F906F905B
:102DC00008950F93CF93DF93EC016A3019F42D81AE
:102DD00098851FC06D3019F1262F08854A856985B1
:102DE0000E943F1628853C818985329F800D1124E1
:102DF00089879F81992399F0992787FD909544E5CC
:102E000050E0239F401951091124481759073CF4F9
:102E10009D818A85299F800D11248A87198681E0EA
:102E200090E0DF91CF910F910895CF93CFB7F894B1
:102E300080913F04811127C0E4E0F4E08491E0EF49
:102E4000F3E09491E82FF0E0EE0FFF1FEE5DFB4FF3
:102E5000A591B491EC91E92321F461E08AE00E940C
:102E60002C1861E08AE00E94F0178CB580618CBD5F
:102E70008CB580648CBD61E08DE00E94F01761E04C
:102E80008BE00E94F01780913F048F5F80933F0496
:102E9000CFBFCF9108958E3008F08E50877020916B
:102EA0000F0190E4299F90011124822B80937C00D4
:102EB00080917A00806480937A0080917A0086FD08
:102EC000FCCF809178002091790090E0922B0895BA
:102ED0001F93CF93DF93182FEB0161E00E94F0174F
:102EE000209711F460E004C0CF3FD10539F461E0D0
:102EF000812FDF91CF911F910C942C18E12FF0E0DE
:102F0000EE52FC4FE491E330F9F048F4E130B9F0CF
:102F1000E230A1F584B5806284BDC8BD34C0E7301D
:102F2000E9F0E83019F1E43049F5809180008062E1
:102F300080938000D0938B00C0938A0024C084B516
:102F4000806884BDC7BD1FC0809180008068809369
:102F50008000D0938900C093880015C08091B00094
:102F600080688093B000C093B3000DC08091B00022
:102F700080628093B000C093B40005C0C038D10512
:102F80000CF0B5CFAFCFDF91CF911F910895833073
:102F900081F028F4813099F08230A1F008958730D3
:102FA000A9F08830B9F08430D1F4809180008F7D11
:102FB00003C0809180008F7780938000089584B54E
:102FC0008F7702C084B58F7D84BD08958091B00055
:102FD0008F7703C08091B0008F7D8093B0000895FB
:102FE000CF93DF9390E0FC01EA51FC4F2491FC0168
:102FF000E650FC4F8491882361F190E0880F991F7F
:10300000FC01EE5DFB4FC591D491FC01E85EFB4FE6
:10301000A591B491611109C09FB7F894888120955A
:1030200082238883EC912E230BC0623061F49FB71A
:10303000F8943881822F809583238883EC912E2BFE
:103040002C939FBF06C08FB7F894E8812E2B28835E
:103050008FBFDF91CF9108951F93CF93DF93282FD8
:1030600030E0F901EE52FC4F8491F901EA51FC4F36
:10307000D491F901E650FC4FC491CC23C9F0162F2E
:1030800081110E94C717EC2FF0E0EE0FFF1FE85EE2
:10309000FB4FA591B4918FB7F894111105C09C9185
:1030A000ED2FE095E92302C0EC91ED2BEC938FBF5F
:1030B000DF91CF911F910895CF93DF93282F30E0B8
:1030C000F901EE52FC4F8491F901EA51FC4FD49181
:1030D000F901E650FC4FC491CC2391F081110E947C
:1030E000C717EC2FF0E0EE0FFF1FE25FFB4FA5913B
:1030F000B491EC91ED2381E090E021F480E002C0F6
:1031000080E090E0DF91CF9108951F920F920FB66B
:103110000F9211242F933F938F939F93AF93BF935D
:103120008091410490914204A0914304B0914404E1
:103130003091400423E0230F2D3720F40196A11D88
:10314000B11D05C026E8230F0296A11DB11D2093D5
:1031500040048093410490934204A0934304B093AD
:1031600044048091450490914604A0914704B09195
:1031700048040196A11DB11D809345049093460417
:10318000A0934704B0934804BF91AF919F918F9152
:103190003F912F910F900FBE0F901F9018952FB752
:1031A000F89460914104709142048091430490919D
:1031B00044042FBF08953FB7F8948091450490913F
:1031C0004604A0914704B091480426B5A89B05C0C9
:1031D0002F3F19F00196A11DB11D3FBFBA2FA92F96
:1031E000982F8827820F911DA11DB11DBC01CD0113
:1031F00042E0660F771F881F991F4A95D1F70895FF
:10320000CF92DF92EF92FF92CF93DF936B017C011D
:103210000E94DB18EB01C114D104E104F10489F030
:103220000E943A1B0E94DB186C1B7D0B683E7340AA
:1032300090F381E0C81AD108E108F108C851DC4FC9
:10324000EACFDF91CF91FF90EF90DF90CF9008957C
:10325000789484B5826084BD84B5816084BD85B571
:10326000826085BD85B5816085BDEEE6F0E0808138
:1032700081608083E1E8F0E0108280818260808359
:10328000808181608083E0E8F0E0808181608083DC
:10329000E1EBF0E0808184608083E0EBF0E080810E
:1032A00081608083EAE7F0E08081846080838081B0
:1032B0008260808380818160808380818068808358
:1032C0001092C1000895CF92DF92EF92FF920F9378
:1032D0001F93CF93DF936C01EB017B01E40EF51E8E
:1032E00000E010E0CE15DF0561F06991D601ED91A7
:1032F000FC910190F081E02DC6010995080F191F7E
:10330000F1CFC801DF91CF911F910F91FF90EF9006
:10331000DF90CF9008956115710579F0FB01019060
:103320000020E9F73197AF01461B570BDC01ED9107
:10333000FC910280F381E02D099480E090E00895F3
:10334000EF92FF920F931F93CF93DF937C01FB01CA
:1033500000E010E06491EF012196662361F0D7014F
:10336000ED91FC910190F081E02DC7010995080FC6
:10337000191FFE01EFCFC801DF91CF911F910F916F
:10338000FF90EF9008950C948B19DC01ED91FC9166
:103390000190F081E02D09940F931F93CF93DF9359
:1033A000EC016DE00E94C5198C016AE0CE010E941B
:1033B000C519800F911FDF91CF911F910F91089533
:1033C0000F931F93CF93DF93EC010E94A0198C0100
:1033D000CE010E94CC19800F911FDF91CF911F91D8
:1033E0000F9108958F929F92AF92BF92CF92DF92EA
:1033F000EF92FF920F931F93CF93DF93CDB7DEB77A
:10340000A1970FB6F894DEBF0FBECDBF6C01142F8D
:10341000E52FCB01022F19A2223008F40AE07E0129
:1034200021E2E20EF11C802E912CA12CB12C612FF7
:103430007E2FA50194010E949C1C029F101911244B
:1034400081E0E81AF1081A3014F4105D01C0195C2B
:10345000F7011083122FE32FCA01232B242B252BD6
:1034600031F7B701C6010E948B19A1960FB6F894E7
:10347000DEBF0FBECDBFDF91CF911F910F91FF90A7
:10348000EF90DF90CF90BF90AF909F908F90089576
:10349000CF92DF92EF92FF920F931F93CF93DF9320
:1034A000EC016A017B012115310579F4E881F9818C
:1034B0000190F081E02D642FDF91CF911F910F914A
:1034C000FF90EF90DF90CF9009942A303105E9F416
:1034D00077FF1AC06DE20E94C5198C014427552759
:1034E000BA014C195D096E097F092AE0CE010E94DC
:1034F000F219800F911FDF91CF911F910F91FF90D3
:10350000EF90DF90CF9008952AE0B701A601CE0199
:10351000DF91CF911F910F91FF90EF90DF90CF90AF
:103520000C94F2199A01AB01662757FD6095762F2E
:103530000C94481A0F931F93CF93DF93EC019A01D9
:10354000AB01662757FD6095762F0E94481A8C01C3
:10355000CE010E94CC19800F911FDF91CF911F9156
:103560000F9108952115310541F4DC01ED91FC9195
:103570000190F081E02D642F09940C94F2199A01C6
:10358000AB0160E070E00C94B21A08950E94281913
:103590000E94C51A0E944102C0E0D0E00E949F052F
:1035A0002097E1F30E940000F9CFCF93DF9300D082
:1035B00000D0CDB7DEB7611571058105910579F0B1
:1035C0009B01AC0169833A834B835C830E944B1D52
:1035D00029813A814B815C810E94BE1C03C060E05E
:1035E00070E0CB010F900F900F900F90DF91CF9173
:1035F00008954F925F926F927F92AF92BF92CF9257
:10360000DF92EF92FF920F931F93CF93DF93CDB78B
:10361000DEB729013A019B01AC012419350946099D
:10362000570989899A89AB89BC89BC01CD016A197E
:103630007B098C099D090E94581CA8019701241937
:103640003509460957090E94BE1CCA01B9016A0D15
:103650007B1D8C1D9D1DDF91CF911F910F91FF90C0
:10366000EF90DF90CF90BF90AF907F906F905F9082
:103670004F900895089598D088F09F5790F0B92FF3
:103680009927B751A0F0D1F0660F771F881F991FB7
:103690001AF0BA95C9F712C0B13081F09FD0B1E0ED
:1036A00008959CC0672F782F8827B85F39F0B93FFD
:1036B000CCF3869577956795B395D9F73EF49095B9
:1036C0008095709561957F4F8F4F9F4F0895E89437
:1036D00009C097FB3EF490958095709561957F4F5A
:1036E0008F4F9F4F9923A9F0F92F96E9BB27939508
:1036F000F695879577956795B795F111F8CFFAF418
:10370000BB0F11F460FF1BC06F5F7F4F8F4F9F4F48
:1037100016C0882311F096E911C0772321F09EE8A6
:10372000872F762F05C0662371F096E8862F70E00C
:1037300060E02AF09A95660F771F881FDAF7880FE6
:103740009695879597F9089597F99F6780E870E0B7
:1037500060E008959FEF80EC089500240A94161607
:10376000170618060906089500240A94121613066F
:10377000140605060895092E0394000C11F48823FD
:1037800052F0BB0F40F4BF2B11F460FF04C06F5F19
:103790007F4F8F4F9F4F089557FD9058440F551FEF
:1037A00059F05F3F71F04795880F97FB991F61F0C3
:1037B0009F3F79F087950895121613061406551F3A
:1037C000F2CF4695F1DF08C0161617061806991FA6
:1037D000F1CF86957105610508940895E894BB279B
:1037E00066277727CB0197F908950BD0C4CFB5DFB3
:1037F00028F0BADF18F0952309F0A6CFABCF11243B
:10380000EECFCADFA0F3959FD1F3950F50E0551F7F
:10381000629FF001729FBB27F00DB11D639FAA2725
:10382000F00DB11DAA1F649F6627B00DA11D661F74
:10383000829F2227B00DA11D621F739FB00DA11D95
:10384000621F839FA00D611D221F749F3327A00D4F
:10385000611D231F849F600D211D822F762F6A2FEB
:1038600011249F5750408AF0E1F088234AF0EE0F70
:10387000FF1FBB1F661F771F881F91505040A9F77D
:103880009E3F510570F060CFAACF5F3FECF3983EAA
:10389000DCF3869577956795B795F795E7959F5FE4
:1038A000C1F7FE2B880F911D9695879597F908957E
:1038B000DB018F939F930E94DD1CBF91AF91A29F6C
:1038C000800D911DA39F900DB29F900D112408951E
:1038D000991B79E004C0991F961708F0961B881F62
:1038E0007A95C9F780950895AA1BBB1B51E107C0C3
:1038F000AA1FBB1FA617B70710F0A61BB70B881F80
:10390000991F5A95A9F780959095BC01CD0108950E
:1039100097FB072E16F4009407D077FD09D00E947C
:10392000741C07FC05D03EF4909581959F4F089537
:10393000709561957F4F0895A1E21A2EAA1BBB1BBB
:10394000FD010DC0AA1FBB1FEE1FFF1FA217B3076B
:10395000E407F50720F0A21BB30BE40BF50B661F81
:10396000771F881F991F1A9469F760957095809545
:1039700090959B01AC01BD01CF010895052E97FBE9
:103980001EF400940E94D51C57FD07D00E949C1C79
:1039900007FC03D04EF40C94D51C509540953095FF
:1039A00021953F4F4F4F5F4F0895909580957095AB
:1039B00061957F4F8F4F9F4F08950E94EE1CA59FEA
:1039C000900DB49F900DA49F800D911D112408951A
:1039D000EE0FFF1F0590F491E02D0994A29FB00116
:1039E000B39FC001A39F700D811D1124911DB29F33
:1039F000700D811D1124911D08958F929F92AF9299
:103A0000BF92CF92DF92EF92FF92CF93DF93EC01C0
:103A1000688179818A819B81611571058105910594
:103A200021F464E279ED8BE597E02DE133EF41E09D
:103A300050E00E94BE1C49015A019B01AC01A7EA5B
:103A4000B1E40E94DD1C6B017C01ACEEB4EFA5017A
:103A500094010E945C1DDC01CB018C0D9D1DAE1DEF
:103A6000BF1DB7FF03C00197A109B04888839983A0
:103A7000AA83BB83BC01CD019F77DF91CF91FF90DB
:103A8000EF90DF90CF90BF90AF909F908F90089570
:103A90000E94FD1C089580E091E00E94FD1C0895A5
:103AA00060930001709301018093020190930301E0
:103AB0000895B7FF0C94DD1C0E94DD1C821B930B44
:063AC0000895F894FFCF09
:103AC600010000000200010004001C0008000101C2
:103AD600596F75722073636F72652069733A20009F
:103AE60050726573732043004C4F414445520000A9
:083AF600000000E11663190055
:00000001FF
