:100000000C9407050C942F050C942F050C942F05C8
:100010000C942F050C942F050C942F050C942F0590
:100020000C942F050C942F050C942F050C94BD1DDA
:100030000C942F050C942F050C942F050C942F0570
:100040000C94241E0C942F050C942F050C942F0552
:100050000C942F050C942F050C942F050C942F0550
:100060000C942F050C942F05484947483A000A552F
:10007000502F444F574E20746F2063686F6F736525
:100080000A4120746F2076616C6964617465004474
:100090004946464943554C54593A0A200A0A2020F9
:1000A000534C4F570A20204E4F524D414C0A2020AE
:1000B0004641535400464C41505059204249524405
:1000C00020636C6F6E650A0A484F5720544F2050CA
:1000D0004C41590A2E4152524F57532F4120746FB1
:1000E00020666C790A2E4220746F206D7574650A43
:1000F0002E4320746F207265736574000018207F92
:10010000FFF87FFFF87FFFF87FFFF87FFFF8FFFF22
:10011000FCFFFFFCFFFFFCFFFFFCFFFFFCFFFFFC01
:10012000FFFFFC7FFFF83FFFF00FFFC001FE000163
:10013000FE0007FF807FFFC07FFFC07FFFC07FFF03
:10014000F07FFFF87FFFFC7FFFFC7FFFFC7FFFFC61
:100150007FFFFC7FFFFC7FFFFC7FFFFC7FFFFC1825
:10016000200000003FFFF02000103FFFF01C00E0E7
:100170002000104800485800685800684C00C864C7
:1001800000983A01701F03E007878000FC000078A8
:100190000000480000FC000303003FF080249F8023
:1001A000249F80249FE0249210249E0824924824B7
:1001B00092482012482032483FFFF83FDFF8000005
:1001C00000401E000FFC0000000000001044000072
:1001D0000000000020440000000000004044000037
:1001E00007FC000047C4FFE3E4440000404504145A
:1001F000144400004046040C0C4400004044040435
:100200000444000047C444444444000047C44444F8
:100210004444000044440404040400004446040C24
:100220000E0400004447041C1F0400007C7DFC7485
:100230007BC400007C7CFC6471040000000FC4449B
:100240005F0C000000082444511C0000000817C780
:10025000D1F8000000080FC7D100000000088F9FF0
:1002600031380000000888A141440000000808C19E
:100270008182000000080F810101000000088887CA
:10028000111100000008888F111100000008088972
:1002900001010000000818898183000000083888E7
:1002A000C1C60000000FEFF87F7C0000000FCFF800
:1002B0003F380018061C0000BE07A0FF0FE0FFDF5C
:1002C000E0FFFFE0FFFFE018061C0000A207A041CE
:1002D000084043D0400430000010001018FFF080A8
:1002E0001083F0C5D0FFF0CFF085D083F085D083A8
:1002F000F085D083F085D083F085D083F085D083DE
:10030000F085D083F085D083F085D083F020191F4D
:10031000C000003FE000F87FE001FCFFFFFFFEFFB0
:10032000FFFFFFFFFFFFFFFFFFFFFFFFFFFFFFFFDD
:10033000FFFFFFFFFFFFFFFFFFFFFFFFFFFFFFFFCD
:10034000FFFFFE7FFFFFFF3FFFFFFF1FFFFFFF1FBE
:10035000FFFFFF1FFFFFFF1FFFFFFF1FFFFFFF1F2D
:10036000FFFFFE1FFFFFF80FFFFFF807FFFFF80377
:10037000FF3FF0201900000000000000000F800087
:1003800000108000702080008827BFFD0424C20375
:100390002424820124249249042092491C20824969
:1003A0001C31C249901E3FFFF00C1FE370041FC1B7
:1003B0007C04924984049249040492411C0410472D
:1003C0003C0410C7200631E52003FF3DE001DE1D9F
:1003D000E0000000000000000010137E0042005604
:1003E0003F422157ABC8A13AEAA8A23AAAA8A23A2A
:1003F000AAA8A20A7ABC86C3190C8111C23820446B
:1004000000100A0F007F80FFC0FFC0FFC0FFE0FFA9
:10041000C0FFE07FC01E00100A0F007C809940885A
:10042000408DC0C620FDC0FE207FC01E00100A0FF8
:10043000003F807FC0FFC0FFC0FFE0FFC0FFE07F44
:10044000C01E00100A0F003C807940F840FDC0C675
:10045000208DC09E207FC01E0003053F213F120853
:10046000120A100A0E1C0E0C1E0C141A14161F165B
:100470001E131E1E1B1E1E1F1E3F213F3A2F3A1722
:100480003D173F213F181F02040A041F0E04040EEB
:100490001F0A1F0A0E0E1F04110E2E252E2F2A2EA4
:1004A000262929021F02081F08150E04040E150E26
:1004B00015151B151B040604040C0400000000178E
:1004C000000300031F0A1F16371A1904130A153AEE
:1004D000000300000E11110E000A040A040E0400AD
:1004E00030000404040010001804031F111F121F21
:1004F000101D151711151F07041F17151D1F151D9A
:1005000001011F1F151F17151F000A0000320004EC
:100510000A110A0A0A110A040115020E11171E0512
:100520001E1F150A0E110A1F110E1F15111F05019E
:100530000E111D1F041F111F1108100F1F041B1F78
:1005400010101F061F1E040F0E110E1F09060E119C
:100550002E1F051A121509011F011F101F0F180F5A
:100560001F0C1F1B041B031C03191513001F110371
:100570000418111F000201022020200001020C12A9
:100580001E1F120C0C12120C121F0C1A14041E0542
:10059000242A1E1F021C141D1020201D1F081411C8
:1005A0001F101E041E1E021C0C120C3E0A040C120C
:1005B0003E1E040214160A020F120E101E0E100E1A
:1005C0001E081E120C1226281E322A26041E210086
:1005D0001F00211E040102013F213F05077F414109
:1005E000417F3E5B4F5B3E3E6B4F6B3E183C783C21
:1005F00018183C7E3C181C577D571C1C5E7F5E1CE7
:10060000007E43437E007E73737E007E7F7F7E7F0D
:100610004141417F30483A060E06297929067F413B
:1006200041417F60703F02042A1C361C2A7F3E1C19
:10063000080000081C3E7F14227F22143C3C3C7EB4
:10064000FF18423C817E3E6375633E3E616B633EB4
:100650003E636B6B3E04027F020410207F20100873
:10066000082A1C08081C2A0808143E5541226375F4
:1006700069756310181C1810040C1C0C0400000091
:10068000000000005F00000007000700147F147FD7
:1006900014042A7F2A102313086462364956205016
:1006A0000008070300001C2241000041221C002A10
:1006B0001C3E1C2A08083E080800E06000000808EC
:1006C000080808006060000060100804033E5149FB
:1006D000453E00427F400062514949462141494D13
:1006E000331814127F1027454545393C4A49493093
:1006F00041211109073649494936064949291E0051
:10070000002400000080640000081422410014143A
:10071000141414004122140802015909063E415DD7
:10072000594E7C1211127C7F494949363E41414164
:10073000227F4141221C7F494949417F0909090122
:100740003E414151327F0808087F00417F4100202F
:1007500041413F017F081422417F404040407F02D9
:100760000C027F7F0204087F3E4141413E7F090920
:1007700009063E416141BE7F09192946264949497A
:100780003201017F01013F4040403F1F2040201FB8
:100790003F4038403F631408146303047804036146
:1007A00051494543007F4141000304081060004166
:1007B000417F0004020102048080808080000307E2
:1007C000080020545478407F284444383844444436
:1007D00028384444287F3854545418087E090902A4
:1007E00018A4A49C787F0804047800447D4000008D
:1007F0006080847D7F1010284400417F40007C048D
:100800007804787C080404783844444438FC18247C
:10081000241818242418FC7C080404080854545490
:1008200020043F4444203C4040207C1C2040201CAD
:100830003C4020403C44281028444C9090907C44FC
:1008400064544C44000836410000007F0000004121
:10085000360800180408100C7F4141417F0A4E6F92
:100860002053442063617264206F720A6E6F204CC3
:100870004F414445522E4845580A0A153A45786971
:1008800074001D20466C617368696E670A20206CD5
:100890006F616465722E2E2E0A0A444F4E27542033
:1008A0005455524E204F464621006D560A0A504C70
:1008B000454153450A5455524E204F4646004C4F31
:1008C0005720424154544552590A001753440016C8
:1008D0001378001613140015102000152010005472
:1008E0000A03E181867F3E186D830F0F0E01838618
:1008F0006033186DC3198F1803C38E6033186DE30E
:1009000030CF1803C39E603630CDE360CF3006C7CA
:100910009E7E3E30CDB360CF300CC6F6603330D90A
:10092000B660CF33CFCCF66061B0DB1E60CF30D87D
:100930006CE6C061B0DB1E618F19986CC6C063B1F4
:100940009B0E330F0FB078C6FF7E1F1B061E0F05D0
:1009500000893008023802497868140000F6E8DBA4
:10096000CFC3B8AEA49B928A827B746E68625C57D8
:10097000524E4945413E3A3734312E2C2927252302
:10098000211F1D1C1A1917161514131211100F0E02
:100990000D0C0B0A09080706450068010000050058
:1009A000380168010000AE09AA090101FF03010135
:1009B000F703000000080002010000030407000024
:1009C0000000000000000102040810204080010225
:1009D0000408102001020408102004040404040484
:1009E00004040202020202020303030303030000E1
:1009F0000000230026002900000000002500280038
:100A00002B0000000000240027002A00DA0D11242A
:100A10001FBECFEFD8E0DEBFCDBF11E0A0E0B1E058
:100A2000EAE9FAE402C005900D92AE36B107D9F7B3
:100A300024E0AEE6B1E001C01D92A035B207E1F7B7
:100A40001AE0CEE0DAE004C02297FE010E94D3242F
:100A5000CC30D107C9F70E943E200C944B250C9452
:100A600000000F931F93CF93DF9363E087E092E042
:100A70000E94E80F01E124E540E060E087E092E0B9
:100A80000E94361010E0C0E1D0E060E087E092E024
:100A90000E94E80F23EB32E04DE0612F87E092E007
:100AA0000E94DE1161E087E092E00E94E80F27ECEF
:100AB00032E04DE0612F87E092E00E94DE1163E0BA
:100AC00087E092E00E94E80F29ED33E047E1612FD3
:100AD00087E092E00E94DE112197105F2097A9F62F
:100AE000DF91CF911F910F9108950F93CF9361E004
:100AF00087E092E00E94E80F01E024E54CE260E02C
:100B000087E092E00E94361063E087E092E00E9466
:100B1000E80F03E024E54DE260E087E092E00E9408
:100B2000361060E087E092E00E94E80F01E024E5E3
:100B30004DE260E087E092E00E94361061E087E0DD
:100B400092E00E94E80F24E54FE260E087E092E047
:100B50000E943610C0E001E022E04EE26C2F87E0F8
:100B600092E00E943610CC5FC83AA9F7CF910F915E
:100B700008950F931F93CF93DF93C9E8D1E004E565
:100B800010E0B801882777FD8095982F0E94D72222
:100B9000688379838A839B8321E130E040E050E0E1
:100BA00062E070E080E090E00E94D721685E7F4FB5
:100BB0008F4F9F4F0E94D7226C837D838E839F83AC
:100BC000025E1F4F2C960E3A1105D9F6DF91CF9198
:100BD0001F910F910895CF92DF92EF920F931F9381
:100BE000CF93DF931F92CDB7DEB799E8C92E91E07E
:100BF000D92E63E087E092E00E94E80FF60164815D
:100C00007581868197810E94A422462FF60160811A
:100C100071818281938149830E94A42208E12CE0A2
:100C2000498187E092E00E94361020E030E040ECFD
:100C300051E4F60164817581868197810E943B228F
:100C400020E030E040EC51E40E943B220E94A422CC
:100C5000462FF601608171818281938149830E94D0
:100C6000A4222CE0498187E092E00E94361060E0E7
:100C700087E092E00E94E80F20E030E040E85FE388
:100C8000F60164817581868197810E943C220E94D1
:100C9000A422462FF601608171818281938149836C
:100CA0000E94A42201E02CE0498187E092E00E94AA
:100CB0003610F60164817581868197810E94A42295
:100CC000162F20E030E040E050E4F60160817181B1
:100CD000828193810E943C220E94A42208E122E0AA
:100CE000412F87E092E00E94361020E030E040EC97
:100CF00051E4F60164817581868197810E943B22CF
:100D000020E030E040E85FE30E943B220E94A42202
:100D1000462FF601608171818281938149830E940F
:100D2000A42201E02CE0498187E092E00E94361085
:100D300020E030E040EC51E4F60164817581868169
:100D400097810E943B2220E030E040EC51E40E9479
:100D50003B220E94A422162F20E030E040E050E425
:100D6000F60160817181828193810E943C220E9400
:100D7000A42208E122E0412F87E092E00E94361091
:100D800061E087E092E00E94E80FF60164817581DE
:100D9000868197810E94A422462FF601608171818D
:100DA0008281938149830E94A4222BED32E0498104
:100DB00087E092E00E94DE1120E030E040EC51E458
:100DC000F60164817581868197810E943B2220E033
:100DD00030E040EC51E40E943B220E94A422462FC6
:100DE000F601608171818281938149830E94A422EE
:100DF00082E0E82E00E02BED32E0498187E092E0CE
:100E00000E943D13FCE0CF0ED11C8DEAC81681E094
:100E1000D80609F0EECE0F90DF91CF911F910F9180
:100E2000EF90DF90CF90089580917E0190917F01A7
:100E30009C01215031092330310530F40196909303
:100E40007F0180937E01089510927F0110927E01B0
:100E500008950E94140760E087E092E00E94E80F86
:100E600080917E0190917F01029774F460918501D9
:100E70007091860180918701909188010E94A4223F
:100E8000462F2DE234E00DC06091850170918601FE
:100E900080918701909188010E94A422462F21E031
:100EA00034E06CE087E092E00E94DE1161E087E0D0
:100EB00092E00E94E80F80917E0190917F0103975C
:100EC00074F0609185017091860180918701909105
:100ED00088010E94A422462F23E434E00DC06091D3
:100EE00085017091860180918701909188010E940F
:100EF000A422462F27E134E06CE087E092E00C94D6
:100F0000DE11CF92DF92EF92FF920F9380918001DA
:100F1000882311F1C0908501D0908601E09087016F
:100F2000F090880120E030E048E052E4C701B601CB
:100F30000E94A02287FF10C020E030E040E850E48B
:100F4000C701B6010E943C2260938501709386011F
:100F5000809387019093880160E087E092E00E948F
:100F6000E80F6091850170918601809187019091D1
:100F700088010E94A422462FE12C03E02DE234E0F8
:100F80006CE087E092E00E943D1361E087E092E030
:100F90000E94E80F60918501709186018091870120
:100FA000909188010E94A422462F23E434E06CE053
:100FB00087E092E00E943D130F91FF90EF90DF9049
:100FC000CF9008950F93CF93DF9369E574E087E0A6
:100FD00092E00E942A1480917C0190917D010A97F1
:100FE00034F081E090E0909379018093780161E0A2
:100FF00087E092E00E94E80FC0917801D0917901DA
:101000009E0120953095C901880F991F820F931F6B
:101010008C5A9F4F97FD0196BC017595679588275F
:1010200077FD8095982F0E94D7220E941223CC0F23
:10103000CC0FCB5F20E030E040E85FE30E943B2232
:101040000E94A42207E02C2F43E087E092E00E9458
:101050003610809178019091790180959095BC012E
:10106000660F771F680F791F6C5A7F4F882777FDAF
:101070008095982F0E94D7220E94122320E030E012
:1010800040E05FE30E94DE230E94A42260931002EE
:1010900084E08093110260E087E092E00E94E80F14
:1010A00060917C0170917D014AE050E087E092E020
:1010B000DF91CF910F910C948021CF92DF92EF922C
:1010C000FF92C0906E01D0906F01E0907001F0909F
:1010D000710120E030E040E05FE3C701B6010E940B
:1010E000A022811122C060917C0170917D0188272E
:1010F00077FD8095982F0E94D7226B017C0120916B
:1011000091013091920140919301509194010E947C
:10111000DA2318160CF05EC0C0929101D0929201B1
:10112000E0929301F092940155C020E030E040E855
:101130005FE3C701B6010E94A022811121C0609126
:101140007C0170917D01882777FD8095982F0E9402
:10115000D7226B017C0120919D0130919E0140912D
:101160009F015091A0010E94DA2318169CF5C092AD
:101170009D01D0929E01E0929F01F092A0012AC0B1
:1011800020E030E040E050E4C701B6010E94A02218
:10119000811120C060917C0170917D01882777FDCD
:1011A0008095982F0E94D7226B017C012091A90184
:1011B0003091AA014091AB015091AC010E94DA2319
:1011C000181644F4C092A901D092AA01E092AB0192
:1011D000F092AC01FF90EF90DF90CF90089589EBF3
:1011E00091E00E94E0150E94B90580E090E0A0E641
:1011F000B1E48093850190938601A0938701B09319
:101200008801109281011092820110928301109244
:1012100084011092800110927F0110927E010E9441
:101220005D0810927D0110927C018FEE9FEF9093EC
:101230007B0180937A0110927901109278011092CB
:10124000770110927601109273011092720180E37F
:1012500090E09093750180937401089541EC51E002
:101260006CEF70E089EB91E00E94071865EB70E08D
:1012700089EB91E00E9449190E94EF0881E0809378
:101280000C0180E090E0A0E8BFE380936E019093B2
:101290006F01A0937001B093710181E090E0909391
:1012A0000B0180930A01089589EB91E00E94C61911
:1012B0000C942E0966E083EC91E00E94090F8111E5
:1012C0000C942E090895CF93DF93C0917401D091AF
:1012D0007501BE01882777FD8095982F0E94D7223F
:1012E00020E030E040E851E40E94DA2318162CF4A4
:1012F0002497D0937501C0937401809172019091ED
:1013000073018831910534F40296909373018093B0
:10131000720102C00E94EF0860E087E092E00E9444
:10132000E80F2DE033E0409174016BE187E092E03B
:101330000E94DE1161E087E092E00E94E80F23E75F
:1013400033E0409174016BE187E092E0DF91CF914F
:101350000C94DE110F931F93CF93DF93162FEC01A4
:1013600054E0CC0FDD1F5A95E1F7C15FDE4F062F29
:1013700020E04C8560E08EED91E00E94AB1B20E008
:10138000488161E08EED91E00E94AB1B288521959C
:101390004A8562E08EED91E00E94AB1B2C812A53BE
:1013A0004E8163E08EED91E00E94AB1B212F4E85B4
:1013B0006A818EED91E0DF91CF911F910F910C9496
:1013C000DC1BCF93DF938091760190917701029798
:1013D00034F460E070E083E090E00E94AA0980911C
:1013E0007601909177010196909377018093760131
:1013F000C19714F00E942E09C0917401D09175011B
:10140000BE01882777FD8095982F0E94D72220E083
:1014100030E040E651E40E94DA2318162CF42297BB
:10142000D0937501C093740160E087E092E00E9460
:10143000E80F2DEF30E0409174016FE187E092E01A
:101440000E94DE1161E087E092E00E94E80F2FE544
:1014500031E0409174016FE187E092E0DF91CF913C
:101460000C94DE11BF92CF92DF92EF92FF920F9316
:101470001F93CF93DF9361E083EC91E00E94090F0B
:10148000882311F160E070E084E090E00E94AA09F6
:1014900020E030E040E85FE360916E0170916F0101
:1014A00080917001909171010E943B2260936E01C6
:1014B00070936F01809370019093710181E090E0CF
:1014C00090937F0180937E0163E083EC91E00E9422
:1014D000090F882311F160E070E084E090E00E9441
:1014E000AA0920E030E040E85FE360916E0170916E
:1014F0006F0180917001909171010E943C22609374
:101500006E0170936F01809370019093710181E07F
:1015100090E090937F0180937E0120E030E0A9016C
:1015200060916E0170916F018091700190917101D5
:101530000E94A02287FF0CC080E090E0A0E0B0E411
:1015400080936E0190936F01A0937001B09371012D
:1015500020E030E040E050E460916E0170916F0156
:1015600080917001909171010E94DA23181644F461
:1015700010926E0110926F01109270011092710121
:101580001092100260916E0170916F018091700154
:10159000909171010E94122320E030E040E051E47C
:1015A0000E94DE2320E030E040E851E40E943C222B
:1015B0000E94A422609311020E94140761E087E058
:1015C00092E00E94E80F20917E0130917F016091AE
:1015D0006E0170916F0180917001909171012330C3
:1015E0003105A4F00E94122320E030E040E051E4F5
:1015F0000E94DE2320E030E040EB51E40E943C22D8
:101600000E94A422462F27E134E013C00E94122337
:1016100020E030E040E051E40E94DE2320E030E0B2
:1016200040EB51E40E943C220E94A422462F23E476
:1016300034E060E087E092E00E94DE1164E083EC39
:1016400091E00E94090F882309F120E030E0A90110
:1016500060916E0170916F018091700190917101A4
:101660000E94A02281110CC080E090E0A0E0BFE3C6
:1016700080936E0190936F01A0937001B0937101FC
:101680008EED91E00E94E11D10920C01109210026B
:101690006BED75E087E092E00E942A141092100230
:1016A000109211026FE870E087E092E00E948B20B8
:1016B00069E574E087E092E00E942A1482E080935A
:1016C00011026EE670E087E092E00E948B20C1E993
:1016D000D1E019E101E366E4B62E00931002109305
:1016E000110268E670E087E092E00E948B20109380
:1016F0001102B0921002C880D980EA80FB8020E0FD
:1017000030E0A901C701B6010E94DA2320E030E0F1
:1017100040E05FE387FD05C0C701B6010E943C229F
:1017200004C0C701B6010E943B220E94A4222AE005
:1017300030E0AB01BC0187E092E00E943621185FE7
:101740002C96113351F6DF91CF911F910F91FF909D
:10175000EF90DF90CF90BF9008953F924F925F92AD
:101760006F927F928F929F92AF92BF92CF92DF92B1
:10177000EF92FF920F931F93CF93DF932CEE31E5FF
:1017800048E35EE360918101709182018091830161
:10179000909184010E943C2223E333E343E75FE31B
:1017A0000E94DE2360938101709382018093830104
:1017B00090938401209185013091860140918701A9
:1017C000509188010E943C226093850170938601AC
:1017D000809387019093880120E030E0A9010E9466
:1017E000DA2318160CF051C064E083EC91E00E94FB
:1017F000090F81111CC062E083EC91E00E94090F87
:10180000811115C063E083EC91E00E94090F811102
:101810000EC060E083EC91E00E94090F811107C0C7
:1018200061E083EC91E00E94090F882371F1C09080
:101830008101D0908201E0908301F090840120E04A
:1018400030E040E05FEBC701B6010E94DA231816D2
:1018500084F420E030E040E050E4C701B6010E948B
:101860003B22609381017093820180938301909366
:10187000840160E070E080E090E00E94AA0981E0CD
:1018800090E090937F0180937E0120E030E0A901F9
:101890006091850170918601809187019091880106
:1018A0000E94A02287FF14C080E090E0A0E8BFE380
:1018B0008093850190938601A0938701B09388015E
:1018C0001092810110928201109283011092840182
:1018D000C9E8D1E033243394C0908501D0908601CB
:1018E000E0908701F090880120E030E040E251E490
:1018F000C701B6010E943C2220E030E040E352E400
:101900000E94DA2318160CF470C06C817D818E81E0
:101910009F810E94A4222B013C01688179818A81E8
:101920009B810E94A4224B015C01C701B6010E9469
:10193000A422EBEDCE2EE2E0DE2E7201840123E440
:1019400034E0AB016CE070E089EB91E00E94521A48
:1019500081114BC020E030E040EC51E46C817D818E
:101960008E819F810E943B2220E030E040EC51E4D8
:101970000E943B220E94A4222B013C0168817981B4
:101980008A819B810E94A4224B015C0160918501A8
:101990007091860180918701909188010E94A42214
:1019A0007201840123E434E0AB016CE070E089EB68
:1019B00091E00E94521A811118C02C9681E0CD3A14
:1019C000D80709F089CFDF91CF911F910F91FF9038
:1019D000EF90DF90CF90BF90AF909F908F907F90CF
:1019E0006F905F904F903F90089560E070E082E0CC
:1019F00090E00E94AA0930928001DFCF80917C01A3
:101A000090917D01833691055CF4019690937D0160
:101A100080937C0160E070E081E090E00C94AA0982
:101A200083E690E090937D0180937C0108958F92EE
:101A30009F92AF92BF92CF92DF92EF92FF92CF939D
:101A4000DF93C9E8D1E0812C912CF8EAAF2EF2E4C3
:101A5000BF2E20916E0130916F0140917001509125
:101A60007101688179818A819B810E943B226B018F
:101A70007C0120E030E040E451EC0E94A0221816E6
:101A80002CF4C882D982EA82FB8204C088829982BF
:101A9000AA82BB8220E030E048EA52E46881798182
:101AA0008A819B810E94DA2387FD14C021E130E006
:101AB00040E050E062E070E080E090E00E94D721DA
:101AC000685E7F4F8F4F9F4F0E94D7226C837D832C
:101AD0008E839F8320E030E040E451E46881798187
:101AE0008A819B810E94A022811102C00E94FE0C6B
:101AF0002C9681E0CD3AD80709F0ABCFDF91CF919A
:101B0000FF90EF90DF90CF90BF90AF909F908F901D
:101B1000089565E083EC91E00E94090F882399F015
:101B200080910A0190910B01009739F0019759F4C7
:101B300010920B0110920A0106C081E090E0909390
:101B40000B0180930A0140E060910A018EED91E063
:101B50000C941A1E89EB91E00E940C17882349F11E
:101B600080910C0181110C94320A0E945A090E9442
:101B7000890D0E9431050E94EB050E9475050E94A7
:101B8000E20780918001811110C080917C019091C9
:101B90007D01833691052CF40E94AD0B0E94170D38
:101BA00002C00E94E1090C9429070E9481070C944D
:101BB0006309089510920A021092090283E691E0E7
:101BC00090930802809307020895CF93CFB7F894BB
:101BD00080914002811127C0E4EEF9E08491E0EDAC
:101BE000F9E09491E82FF0E0EE0FFF1FEE5FF54F64
:101BF000A591B4918C91892321F461E08AE00E943F
:101C0000DE1F61E08AE00E94A51F8CB580618CBD5B
:101C10008CB580648CBD61E08DE00E94A51F61E001
:101C20008BE00E94A51F809140028F5F809340024D
:101C3000CFBFCF91089521E0FC012083089570E08B
:101C400085E00C941D1FAF92BF92CF92DF92EF926E
:101C5000FF920F931F93CF93DF93EC0189819A81B9
:101C60002FE0289F8001299F100D112485E10E94FB
:101C7000001F800F911F24E0969587952A95E1F724
:101C80009A8389832881222391F1AC81AD80B12C84
:101C9000C12CD12CE885F9857F0100E010E06E8130
:101CA0007F819B0140E050E08617970728F0BC0138
:101CB000E817F90708F4BF0180E090E01F921F9237
:101CC0001F92AF930E94F3216B830F900F900F90A0
:101CD0000F9070E085E0DF91CF911F910F91FF9001
:101CE000EF90DF90CF90BF90AF900C941D1FDF91CD
:101CF000CF911F910F91FF90EF90DF90CF90BF9009
:101D0000AF900895FC018CE39FE09383828384E08D
:101D1000818381E084870895CF93DF93EC018C85E4
:101D20008F7151F584E10E94001FBC01882777FD67
:101D30008095982F0E94D72226EE3FE34EEC50E488
:101D40000E94DE230E94A9229B017B836A83611586
:101D5000710581F084E08983FE0140E084819581F2
:101D60002817390710F449830AC04F5F3296443070
:101D7000A9F702C08FEF89838C858F5F8C87DF91F5
:101D8000CF910895FC0188E0808389E0818387E01A
:101D9000828386E0838384E0848382E0858381E19B
:101DA00086830895DF92EF92FF920F931F93CF9354
:101DB000DF937C01EC0100E010E0DD24DA9462E0C6
:101DC00088810E94A51F88810E941420F701E00FDE
:101DD000F11F892B21F487818F5F878308C087815A
:101DE000882349F08F3F11F4178201C0D78260E049
:101DF00088810E94A51F0F5F1F4F21960730110594
:101E0000F1F6DF91CF911F910F91FF90EF90DF904E
:101E10000895FC01E60FF11D81E09781913009F0F2
:101E200080E008958EBD00000DB407FEFDCF8EB595
:101E30000895DC01643508F053C0403308F050C009
:101E400090968C919097342F359535953595E62F52
:101E5000FF27E7FDF095242F2770823099F4DF01EA
:101E6000AF5BBD4F84E53802A00DB11D11248C91EC
:101E700090E0022E02C0959587950A94E2F780952E
:101E8000817009C0833039F446271C968C9148270D
:101E900040FF03C014C0811112C084E53802E00D78
:101EA000F11D1124EF5BFD4F81E090E0022E01C097
:101EB000880F0A94EAF780959081982310C084E5F2
:101EC0003802E00DF11D1124EF5BFD4F81E090E041
:101ED000022E01C0880F0A94EAF79081982B908314
:101EE00008951F93CF93DF93EC01162FF89460E0D1
:101EF0008F850E94DE1F888918161CF460E00E94FE
:101F0000DE1F812F0E94120F888918161CF461E0D1
:101F10000E94DE1F7894DF91CF911F91089528EFE2
:101F200031E0E1E4F2E0DF01A9011D9241505040AF
:101F3000E1F7DC0119961C9219971A961C920895E4
:101F4000DF92EF92FF920F931F93CF93DF93EC01F9
:101F50008C858F5F8C8781E4E82E82E0F82ED12C6F
:101F60006D2D6064CE010E94710F60E8CE010E9469
:101F7000710F61E08F850E94DE1F888918161CF49E
:101F800060E00E94DE1F00E010E0F701E00FF11FAB
:101F900080810E94120F0F5F1F4F04351105A9F7B2
:101FA000888918161CF461E00E94DE1FD39484E532
:101FB000E80EF11C86E0D812D3CF60E4CE01DF91A9
:101FC000CF911F910F91FF90EF90DF900C94710FC4
:101FD000FC0160A361A30895FC0160A341A30895DF
:101FE000CF92DF92FF920F931F93CF93DF931F92B5
:101FF000CDB7DEB76C01062FF42E10E0121754F4A3
:10200000412F4F0D602FC60129830E94190F1F5FBA
:102010002981F4CF0F90DF91CF911F910F91FF9005
:10202000DF90CF900895CF92DF92FF920F931F938E
:10203000CF93DF931F92CDB7DEB76C01062FF42E3E
:1020400010E0121754F4612F600F4F2DC601298341
:102050000E94190F1F5F2981F4CF0F90DF91CF915C
:102060001F910F91FF90DF90CF900895DF92EF9234
:10207000FF920F931F93CF93DF93EC01E62ED22EA6
:10208000F42E112707FD1095040F111D47FD1A9519
:102090008F2D992787FD90958017910744F42D2D5A
:1020A0004F2D6E2DCE010E941310F394F1CFDF91CE
:1020B000CF911F910F91FF90EF90DF9008958F9235
:1020C0009F92AF92BF92CF92DF92EF92FF920F93C7
:1020D0001F93CF93DF93EC01E62ED42E122FCC2446
:1020E000C394C21AB22EB194BB0CF12C802F847011
:1020F000A82E802F8270982E802F8870882E0170D5
:10210000F1160CF04DC0C7FC04C01150B394B39449
:10211000CB0CF3948F2D880F8F5FC80EAA2071F01F
:10212000412F4D0D6F2D6E0DCE010E94190F4F2DB9
:102130004D0D612F6E0DCE010E94190F992071F087
:102140004D2D411B6F2D6E0DCE010E94190F4D2D8F
:102150004F19612F6E0DCE010E94190F882071F06A
:102160004F2D4D0D6E2D611BCE010E94190F412F79
:102170004D0D6E2D6F19CE010E94190F002309F429
:10218000BFCF4D2D4F196E2D611BCE010E94190F2F
:102190004D2D411B6E2D6F19CE010E94190FB0CF2E
:1021A000DF91CF911F910F91FF90EF90DF90CF9033
:1021B000BF90AF909F908F9008958F929F92AF9213
:1021C000BF92CF92DF92EF92FF920F931F93CF9324
:1021D000DF93EC01B62EA42E122FDD24D394D21A55
:1021E000C22EC194CC0CFF24F394802F8170882ED2
:1021F000992493949E0C02708FEF8F0D8117C4F574
:10220000D7FC04C01150C394C394DC0C8F2D880FED
:102210008F5FD80E882099F0212F220F290D4A2D8B
:10222000411B6F2D6B0DCE010E94F00F23E02E0D90
:102230004A2D4F19612F6B0DCE010E94F00F002324
:1022400099F0212F220F290D4A2D411B6B2D6F195B
:10225000CE010E94F00F23E02E0D4A2D4F196B2D59
:10226000611BCE010E94F00FF394E394E394C4CF7A
:10227000DF91CF911F910F91FF90EF90DF90CF9062
:10228000BF90AF909F908F9008959F92AF92BF9212
:10229000CF92DF92EF92FF920F931F93CF93DF9332
:1022A000EC01B62EF42EA22EDE2CD194DD0C9D2C4A
:1022B000920E1E2D160F292D612F0E941310CC2473
:1022C000CA94C00ECF0C292D4C2D612FCE010E9437
:1022D0001310D00EFE0C2D2D4F2D6B2DCE010E9414
:1022E000F00FBA0C6FEF6B0D2D2D4F2DCE010E940C
:1022F000F00F01E02E2D4F2D612FCE010E945F10B7
:10230000DE2CD094DB0C02E02E2D4F2D6D2DCE0156
:102310000E945F10CE1804E02E2D4C2D6D2DCE01A5
:102320000E945F1008E02E2D4C2D612FCE010E94DF
:102330005F10DF91CF911F910F91FF90EF90DF9091
:10234000CF90BF90AF909F900895AF92BF92CF92E1
:10235000DF92EF92FF920F931F93CF93DF93EC01E5
:10236000A62EC42EB22EF02E1E2DE194EE0CD12EF0
:10237000D60E2E2D2B0D6D2D0E943610FA94FE0CCC
:10238000C10E6FEF6A0D6B0D611BEF2C01E0212F69
:102390004C2DCE010E94DD1002E0212F4C2D6D2D21
:1023A000CE010E94DD10DF91CF911F910F91FF9020
:1023B000EF90DF90CF90BF90AF9008956F927F9293
:1023C0008F929F92AF92BF92CF92DF92EF92FF9245
:1023D0000F931F93CF93DF93F901A49031965491FB
:1023E000FC01F0A064350CF00CC1BB24A7FCB09438
:1023F000A62FBB27A7FDB095FD01EA0DFB1D1E16FC
:102400001F060CF0FEC040330CF0FBC0C52E042F9D
:10241000112707FD1095E801C50FD11D57FDDA956D
:102420001C161D060CF0EDC0E90122969501295FEE
:102430003F4F37FF02C0295F3F4F73E03595279527
:102440007A95E1F747FF0AC0C52EC40E209FA00170
:10245000219F500D1124C41BD50B40E00C2D1127DA
:1024600007FD1095040F111D47FD1A950133110545
:102470001CF070E3C72EC41A67FD60E0E535F10576
:1024800014F0E4E5F0E01E2FFC0174857427862F1C
:10249000992787FD9095FC01EA1BFB0BDF015F018B
:1024A000F7E0AF22BB24E0E8F0E002C0F595E79545
:1024B000AA94E2F70E2FB7FD179653E0B595A795AE
:1024C0005A95E1F7AC0FBD1FE42FE77051E001C052
:1024D000550FEA95EAF7459545954595E4E54E0291
:1024E000800D911D11248F5B9D4F40E0DD24C7FCC2
:1024F000D094BB24B3943327E42FF0E0EC15FD0512
:102500000CF07FC0FD01E490F1E0FF1219C0EC0176
:10251000A02EFD01862E881A9C2E980C911608F08C
:1025200067C09E2C9A2019F09880952A9882A694CC
:1025300029F43196E4906894AA24A7F82196ECCF68
:10254000F1101BC0752E7094EC01A02EFD01862E9B
:10255000881A9C2E980C911608F04AC09E2C9A203E
:1025600019F0988097209882A69429F43196E490E7
:102570006894AA24A7F82196ECCFE3E0FE1631F088
:10258000EC01A02EFD01862E881A2EC0752E7094A7
:10259000962EEC01A02EFD019116B0F48E2C8A200F
:1025A00049F08880692C672660FE02C0852A01C038
:1025B00087208882A69429F43196E4906894AA240E
:1025C000A7F893942196E8CF7B2512C09E2C9A20E1
:1025D00019F0988095269882A69429F43196E49073
:1025E0006894AA24A7F821969C2E980C911670F353
:1025F000550F19F48C5A9F4F51E04F5FA20FB31F34
:102600007BCFDF91CF911F910F91FF90EF90DF90E3
:10261000CF90BF90AF909F908F907F906F900895D4
:10262000FB01A491842F90E0E3E095958795EA95CE
:10263000E1F70296B0E01796F3E0B595A795FA9505
:10264000E1F72A9FF0012B9FF00D11248E0F9F1FA1
:10265000860F971FFC018491282F30E0477080E897
:1026600090E002C0959587954A95E2F72823392393
:1026700081E0232B09F480E008952F923F924F923E
:102680005F926F927F928F929F92AF92BF92CF9202
:10269000DF92EF92FF920F931F93CF93DF93CDB70B
:1026A000DEB72A970FB6F894DEBF0FBECDBF6C0120
:1026B000262E542F01111CC0E1101AC02A960FB605
:1026C000F894DEBF0FBECDBFDF91CF911F910F9168
:1026D000FF90EF90DF90CF90BF90AF909F908F9042
:1026E0007F906F905F904F903F902F900C94DE11F1
:1026F000F901849131963490B9016E5F7F4F7A83EE
:102700006983A82EB12C9501295F3F4FB3E0359521
:102710002795BA95E1F73A87298703702FEF280F9D
:10272000522E10E07FEF730D832D90E09C838B83FE
:10273000812F992787FD90958A159B050CF071C014
:10274000812F17FF02C087E0810F682E6594659482
:102750006594812F877887FF03C08150886F8F5FD2
:10276000A0E88A2E912C02C0959487948A95E2F76E
:10277000472EF12C772467FC70948F2D992787FDC5
:102780009095EB81FC818E179F070CF047C0A985BF
:10279000BA858A9FF0018B9FF00D9A9FF00D11244E
:1027A000E60DF71D89819A81E80FF91FE491F0E0A9
:1027B000E821F921EF2B79F1023039F0033041F0B3
:1027C000013049F4452D6F2D08C0652D442D05C0FD
:1027D000642D412F02C04F2D612FEE2069F03E2D58
:1027E0003370E0FE03C0922F961B692FE1FE05C0F7
:1027F000A32DA41B4A2F01C030E0620D450FC60176
:102800002E833D835F8378870E94190F3D81E32EDD
:1028100078855F812E81F3944A94AFCF1F5F5A94DD
:1028200087CF2A960FB6F894DEBF0FBECDBFDF91DB
:10283000CF911F910F91FF90EF90DF90CF90BF90BD
:10284000AF909F908F907F906F905F904F903F9050
:102850002F900895DC01FB0184918F5F14968C9377
:1028600014973196E491EF5F1596EC9315976E5F90
:102870007F4F5F967C936E935E970895EF920F93D0
:10288000CF93DF93EC014E876D872F87E98A088B02
:1028900081E0888788A319A28F8369E574E0CE015F
:1028A0000E942A140E94E50D8CB58F7D8CBD8CB5DD
:1028B0008C7F81608CBD8DB581608DBD8CB58C6049
:1028C0008CBD61E08E850E94A51F61E08D850E9410
:1028D000A51F61E08F850E94A51F898918161CF429
:1028E00061E00E94A51F888918161CF461E00E940F
:1028F000A51F898918166CF460E00E94DE1F6AE04B
:1029000070E080E090E00E949D1E61E089890E9455
:10291000DE1F8D85992787FD9095FC01E652F64FC5
:10292000E491F0E0EE0FFF1FE850F64F259134914F
:102930003D8B2C8BFC01EA53F64F84918B8F8E8557
:10294000992787FD9095FC01E652F64FE491F0E05F
:10295000EE0FFF1FE850F64F259134913B8B2A8BE9
:10296000FC01EA53F64F84918A8F8889992787FD65
:102970009095FC01E652F64FE491F0E0EE0FFF1F58
:10298000E850F64F259134913F8B2E8BFC01EA5392
:10299000F64F84918C8F8F85992787FD9095FC0148
:1029A000E652F64FE491F0E0EE0FFF1FE850F64FCD
:1029B00025913491398F288FFC01EA53F64F849189
:1029C0008D8F61E2CE010E94710F64E1CE010E9401
:1029D000710F8B8587FF02C08FE78B876B856068DF
:1029E000CE010E94710F60E2CE010E94710F6CE077
:1029F000CE010E94710FCE01DF91CF910F91EF9028
:102A00000C94A00F6F927F928F929F92AF92BF9281
:102A1000CF92DF92EF92FF920F931F93CF93DF93AA
:102A2000EC01162FF42EB02EE8A064350CF081C016
:102A30008FE284170CF47DC0EC81F0E031970E9F9B
:102A4000C0010F9F900D1124860F911D67FD9A956F
:102A5000181619060CF06DC08D81809FC0011124DD
:102A6000840F911D47FD9A95181619060CF061C048
:102A7000A62E962EC22ED12C8A2D811B992787FD3A
:102A800090952C8130E0821793070CF051C02150B3
:102A900031098217930779F0C29ED001C39EB00D11
:102AA000D29EB00D1124A80FB91FEE8DFF8DEA0F35
:102AB000FB1F749001C0712C8F2C6F2C282D2F19A7
:102AC000332727FD30958D8190E0281739076CF565
:102AD00070FE11C081E0B81206C0482D6A2DCE01EB
:102AE0000E94190F1EC00B2D2B2D462D692DCE01D6
:102AF0000E94361016C089A198A1891791F088A369
:102B000081E0B81206C0482D6A2DCE010E94190F2F
:102B100007C00B2D2B2D462D692DCE010E9436109E
:102B2000E8A276946B0C8394C9CF9B0CA394A4CF9A
:102B3000E8A2DF91CF911F910F91FF90EF90DF906E
:102B4000CF90BF90AF909F908F907F906F9008959F
:102B50000F93CF93DF93EC01262F6A3039F42D8148
:102B600098858A85299F800D112422C06D3011F12E
:102B700008854A8569850E94021548855C812985FA
:102B8000549F200D112429878F81882399F03327A2
:102B900027FD309584E590E0459F80199109112427
:102BA000821793073CF49D818A85499F800D1124EB
:102BB0008A87198681E090E0DF91CF910F91089587
:102BC000CF92DF92EF92FF920F931F93CF93DF93F9
:102BD000EC010A8D1B8D009510950E947A1E6B01E9
:102BE0007C010E947A1EC094D094E094F094609589
:102BF000709580959095C69E9001C79E300DD69E8B
:102C0000300D1124209F7001219FF00C309FF00C9B
:102C100011240980DA81C02D0E947A1ECE01860F10
:102C2000971F8E0D9F1DDF91CF911F910F91FF90E8
:102C3000EF90DF90CF900C94AB218F929F92AF9248
:102C4000BF92CF92DF92EF92FF920F931F93CF9399
:102C5000DF93EC015C0186E8A80EB11CD5018C91D4
:102C6000882309F44DC08C3018F41CE0181B01C0F7
:102C700010E0FE01EA5AFF4F81E080836E01BEE45E
:102C8000CB0ED11C60E0C6010E94E80F4E01E3E5C7
:102C90008E0E911CD4018C9103E0080F9DE2F92E59
:102CA0004F2D481B410F23E0E22E24E560E0C601D2
:102CB0000E94A51161E0C6010E94E80FF401808125
:102CC00003E0080F4F2D481B410F24E560E0C601CB
:102CD0000E944511FE01E95AFF4F84E0808331963E
:102CE000D4018C91181B115D1083CC57DF4F688184
:102CF0007981C6010E948B20F501808181508083FB
:102D0000DF91CF911F910F91FF90EF90DF90CF90C7
:102D1000BF90AF909F908F9008950F931F93CF9384
:102D2000DF93EC018C01025B1F4F40E061E0C801C2
:102D30000E94EC0FFE01E95AFF4FDE01AE5ABF4F71
:102D400085E59C91891B808331961082698D613065
:102D500009F43CC028F0888D653008F04EC049C0A9
:102D6000CE0185960E94631C60E0CE010E941F0E7A
:102D7000C8010E948F0FFE01EA5AFF4F81E0808355
:102D80006EEB78E0C8010E948B206A8D7B8D4AE053
:102D900050E0C8010E94A5216AEA78E0C8010E94BB
:102DA0008B20C8010E94A00F83B7817F846083BFFE
:102DB00083B7816083BF83B7816083BF889583B702
:102DC0008E7F83BF83B78E7F83BF21C0CF58DF4FF5
:102DD000488159816A817B814F7055276627772703
:102DE000483051056105710510F467E009C068E7D6
:102DF00007C0882361F06B5F03C0882341F06FE256
:102E0000C801DF91CF911F910F910C94B020DF91F9
:102E1000CF911F910F9108958F929F92AF92BF9281
:102E2000EF92FF920F931F93CF93DF93EC017C01FE
:102E300000E8E00EF11CF70180809180A280B38051
:102E40000E946E1E95018401061B170B280B390B7F
:102E5000B901A8015E011FE7A10EB11CF501808137
:102E600090E0A0E0B0E08E0105581F4F8417950751
:102E7000A607B70750F4F80180819181A281B38140
:102E8000892B8A2B8B2B09F040C0F801808191811E
:102E9000A281B381892B8A2B8B2BA9F57E01F5E2C8
:102EA000EF0EF11CC7010E94601CC7010E94CD1CDF
:102EB000C7010E94911DCE010E941D16CE010E94E5
:102EC0008D167E012EE4E20EF11CC7010E94A00FB8
:102ED000FE01EC5AFF4F8081811103C0C7010E949F
:102EE0008F0F0E947A1EF80160837183828393831F
:102EF000FE01EB58FF4FC958DF4F28813981621B13
:102F0000730B7183608380E036C00E946E1EF501F2
:102F10002081620F711D811D911DF70160837183F6
:102F200082839383FE01EF58FF4F4081518162817C
:102F300073814F5F5F4F6F4F7F4F40835183628339
:102F40007383F80110821182128213820E947A1E0A
:102F5000FE01E958FF4F6083718382839383CE0122
:102F60000E94230ECE010A960E94D20ECE014896F0
:102F70000E948C0E81E0DF91CF911F910F91FF9005
:102F8000EF90BF90AF909F908F9008950F931F93F5
:102F9000CF93DF938C01EC01C25BDF4FCE010E9427
:102FA0008F0F62E878E0CE010E948B20CE010E9454
:102FB000A00F8CB583608CBD8DB58E7F8DBD87E6EF
:102FC00091E0EEEFFFE30995F801EC5AFF4F108214
:102FD0006DE578E0CE010E94CB20CE010E94A00FCB
:102FE000065F1F4FC8010E94D20E64E0C8010E9414
:102FF000090F811107C062E370E080E090E00E9459
:103000009D1EF0CFDF91CF911F910F9108952F92C8
:103010003F924F925F926F927F928F929F92AF9268
:10302000BF92CF92DF92EF92FF920F931F93CF93B5
:10303000DF93CDB7DEB729970FB6F894DEBF0FBE8A
:10304000CDBF998788871B012A013C0180E7680E64
:10305000711CF3018081882309F402C181E0E885B5
:10306000F985EA5AFF4F8083E885F985EB5AFF4FCF
:103070001082E885F985EC5AFF4F1082E885F985C2
:10308000108E8F01025B1F4F61E0C8010E94E80FA4
:10309000888599858D5A9F4F9C838B83C884D9845A
:1030A00097E5C90ED11CE884F984E8E5EE0EF11C21
:1030B000888599858E5A9F4F9A838983E885F985FB
:1030C000EF58FF4FFE83ED8388849984FAE08F0EDA
:1030D000911CA884B98485E2A80EB11C88859985C5
:1030E0000E940C178823D1F3F1018491882321F0E9
:1030F000EB81FC81508101C050E02FED38E040E0D1
:1031000060E0C8015F830E94DE115F8141145104B9
:1031100039F04CE0450F920160E0C8010E94DE11D9
:10312000F60110828CE0F7018083B101C8010E9492
:103130008B20E981FA819081892F880F890F8195F1
:103140008D5AF6018083EB81FC819081892F880F55
:10315000890F8195835DF7018083ED81FE818081F8
:1031600084FF03C06BED78E002C067ED78E0C80132
:103170000E94CB20E981FA819081892F880F890FE5
:1031800081958D5AF6018083F70180818F5F80835E
:10319000E885F98582A5882319F063ED78E002C0FF
:1031A0006FEC78E0C8010E94CB20E981FA81908120
:1031B000892F880F890F81958D5AF6018083F70139
:1031C00080818F5F80836BEC78E0C8010E94CB2008
:1031D00065E0C4010E94090F882351F0E885F98554
:1031E00062A56F5FC5010E940D1EC5010E94F71DFB
:1031F00064E0C4010E94090F811113C0F301208112
:10320000822F90E0A0E0B0E0ED81FE81408151810D
:1032100062817381481759076A077B07A8F02F3F1F
:1032200099F08FEFF3018083088519850B5D1F4F9F
:1032300060E0C8010E940A1CC8010E94E11D81E0F3
:10324000E885F985808F0CC066E0C4010E94090FF3
:10325000882309F443CF888599850E94C61734CF07
:1032600029960FB6F894DEBF0FBECDBFDF91CF9188
:103270001F910F91FF90EF90DF90CF90BF90AF9094
:103280009F908F907F906F905F904F903F902F9086
:10329000089540E050E00C940718E0E8F7E7259126
:1032A000349181E02130304C09F080E00895CF93D3
:1032B000DF93EC010E944D199E01275A3F4FDE011A
:1032C000A059BF4F882309F43CC0E6E9F7E7849191
:1032D000F9018083E7E9F7E7E491EC83E8E9F7E7B0
:1032E000E491ED83E9E9F7E7859194919F838E83DB
:1032F000EBE9F7E78591949199878887EDE9F7E7FE
:10330000E491EBA7EEE9F7E7E491EAA7EFE9F7E745
:10331000E491EC93E0EAF7E7859194919D8F8C8F8F
:10332000E2EAF7E7859194919F8F8E8FE4EAF7E7C1
:103330008591949199A388A3E6EAF7E78591949102
:1033400020C08CE3F90180831C822FEF2D8380E263
:1033500093E09F838E8384ED93E09987888781E053
:103360008BA78AA72C938CEA9DE09D8F8C8F8EED86
:103370009DE09F8F8E8F84E79EE099A388A38CE3C6
:103380009FE09BA38AA3DF91CF910895CF92DF9214
:10339000EF920F93CF93DF93EC01FC01E158FF4FC5
:1033A00082E38083349741E050E060E070E0408346
:1033B0005183628373833B978FEF8083CE010E949A
:1033C0005719CE010E941B0E6FEFCE010E941F0EF7
:1033D0006E018AE0C80ED11CC6010E94C20EC60151
:1033E0000E94D20ECE0148960E94820E0EE0E02E80
:1033F0000FE020E14BE06DE0CE01825B9F4F0E9429
:103400003E14A596CE010E94761B65E0C6010E947F
:10341000090F882351F060E0CE01DF91CF910F9129
:10342000EF90DF90CF900C940D1E40E06FE479E0B8
:10343000CE01DF91CF910F91EF90DF90CF900C9460
:10344000151C8F929F92AF92BF92CF92DF92EF9214
:10345000FF920F931F93CF93DF93CDB7DEB7260F65
:10346000371FE216F30684F4EA0CFB1C6E157F0589
:103470005CF4040F151FC016D10634F4C80CD91C17
:1034800081E04C155D050CF080E0DF91CF911F913C
:103490000F91FF90EF90DF90CF90BF90AF909F90F3
:1034A0008F9008952F923F924F925F926F927F92EA
:1034B0008F929F92AF92BF92CF92DF92EF92FF9244
:1034C0000F931F93CF93DF93CDB7DEB760970FB6FF
:1034D000F894DEBF0FBECDBF9E878D87788B6F8738
:1034E0003A013E832D8318012701D886CF82F90146
:1034F0008491282F30E03A832983ED81FE81319633
:10350000E4916E2F70E07C836B83EF81F88584916A
:10351000282F30E03A872987EF81F8853196E491AA
:103520006E2F70E07C876B874B01A984BA8467019A
:1035300078010B811C8129813A816F8578898D857D
:103540009E850E94211A811102C080E079C08F857A
:1035500098898215930534F4C101AF85B8898A1B17
:103560009B0B02C080E090E06414750424F4920187
:103570002619370902C020E030E049855A85420DFE
:10358000531D69817A81EF85F8896E0F7F1F64175B
:1035900075072CF0BA016E1B7F0B7A8369834B850C
:1035A0005C85440D551D6B817C81660D771D64170C
:1035B00075072CF0DA01A619B709BC83AB83B22ECC
:1035C00000E010E0782EED84FE84BEE4EB0EF11CEA
:1035D0006418620ECF84C218C80E202E3B2C300E09
:1035E000832D90E02B813C81821793070CF0ADCFA7
:1035F000412C512C260CD42C472D440D842F90E0C7
:10360000E981FA818E179F07A4F4232D6D817E81B5
:10361000C7010E941013882379F04C2D4D0D222DE7
:103620006F817885C7010E941013882329F081E0FB
:1036300007C00F5F1F4FD1CF3FEF431A530ADBCFB5
:1036400060960FB6F894DEBF0FBECDBFDF91CF916D
:103650001F910F91FF90EF90DF90CF90BF90AF90B0
:103660009F908F907F906F905F904F903F902F90A2
:103670000895CF93DF9350E0FA01EE0FFF1FE80F9C
:10368000F91F37852089E32FF22FE60FF11DE60F92
:10369000F11D25913491FA01EE0FFF1FE80FF91F7C
:1036A00030A3278FF90165917491FC01D481D69FD5
:1036B000C02D1124E40FF51FC1A3F901A591B49108
:1036C0006B2F70E0EC2FF0E0DC01A40FB51F6E173C
:1036D0007F0720F4F90125913491C32FCD9FC02D90
:1036E00011249296CC93DF91CF91089521E0FC01B3
:1036F000248324E020A726EA39E0308B278740E0A6
:1037000060E00E94391B61E070E083E00E941D1FB1
:10371000E1EBF0E08081887F81608083F8941092F3
:103720008000E1E8F0E010821092850010928400A1
:1037300088E191E09093890080938800808188607F
:103740008083808181608083EFE6F0E08081826009
:103750008083789408950F93FC01862F642F0111C4
:1037600029C08230D1F048F4882391F0813011F5DE
:1037700040E0CF010F910C94391B8330A9F08430C5
:10378000C9F48481489F602D1124658F268F12C053
:103790004B3008F06AE0668B0DC08481489F602D35
:1037A0001124618F228F06C08481489F602D1124CF
:1037B000638F248F0F910895FC0121110EC0648B3B
:1037C0008481489F402D1124458B15A214A213A279
:1037D00081E0878B80934504108E08958091450485
:1037E000882319F08091420401C080E08093B400E6
:1037F0000895FC0161110DC0178A158A14A213A245
:10380000108E1092420410924304109245040C94BE
:10381000EE1B0895CF93DF93EC01611103C00E946A
:10382000F91B1982DF91CF9108950F931F93CF93C6
:10383000DF93EC018B0141110EC060E00E940A1C75
:103840001E870D871B8A1A8A81E0898389E08E8B07
:10385000198E1B8E1D8EDF91CF911F910F910895B0
:10386000CF93DF93EC01611128C08881882329F16F
:103870008981811122C089852F819885E22FF92FB6
:10388000E80FF11DE80FF11D859194918F3F2FEF07
:10389000920711F4188211C09C879927880F991FED
:1038A000EA85FB85E80FF91F6591749140E0CE0130
:1038B0000E94151C89858F5F8987DF91CF910895BC
:1038C00060E00C94301C60E00C940A1C0F93CF93C2
:1038D000DF93EC0161115DC08981882309F459C02F
:1038E0008D89811156C02D853E858A899B89880FD7
:1038F000991F820F931FFC01859194910097D1F439
:103900008989882321F01B8A1A8AF90111C019823A
:10391000888160E0882331F0CE010E94301C8A89C2
:103920009B8925C0CE01DF91CF910F910C94F91B9B
:1039300085919491BC01769567957695679580FF02
:103940001DC0AC01A6E056954795AA95E1F7292F31
:1039500026952695269520514F716F7000E0CE0177
:103960000E94AB1B8A899B8901969B8B8A8B880F4F
:10397000991FED85FE85E80FF91FDACF492F6F7388
:1039800020E0CE010E94DC1B8A899B8901969B8BDB
:103990008A8BDF91CF910F91089560E00C94661CA3
:1039A000CF93DF93EC016111B9C08F89882309F4AB
:1039B000B5C08D89811105C0CE01DF91CF910C94E6
:1039C000F91B81508D8B8DA1811138C08BA19CA1D9
:1039D00001969C01220F331FEF8DF8A1E20FF31F18
:1039E00025913491422F47704EA3A90163E056956B
:1039F00047956A95E1F7BA0176956795232F269545
:103A000026952FA36F732C81629F602D11246DA3C7
:103A10004170409341049CA38BA329A130E08217FD
:103A2000930760F08AA1882329F0281B31093CA361
:103A30002BA304C060E0CE010E94F91B8DA1815030
:103A40008DA3288D2F5F288F4C893FA1340F8C8543
:103A5000380F3A836B8D662361F070E0822F9927CF
:103A600087FD90950E9471248C8D869F300D1124C6
:103A70003A838A8190E0CB966BE370E00E947124D8
:103A80008A833E893B83698D662371F0772767FDC2
:103A90007095822F992787FD90950E9471248A8DB9
:103AA000869F300D11243B836D8D662391F0822F0C
:103AB000992787FD909570E00E947124CB0162E008
:103AC00070E00E9471242E8D9B81289F900D1124FF
:103AD0009B838B814F3339F08A300CF089E087FD6E
:103AE00080E08B8301C01B82F894EA81F0E0E35A06
:103AF000F64FE491E093440498A58D81989F802D22
:103B000011249B81899F802D11249EA1899F802D46
:103B1000112480934304809342047894DF91CF91E1
:103B2000089560E00C94D01C60914304662321F159
:103B3000809146048F5F80934604909144048917D6
:103B4000D8F08091450491E0892780934504109234
:103B5000460480914104882369F090910D0183E42B
:103B6000989F802D1124895B80930D010E94512420
:103B7000909342040C94EE1B08951F920F920FB67F
:103B80000F9211242F933F934F935F936F937F93E3
:103B90008F939F93AF93BF93EF93FF930E94941DD6
:103BA000FF91EF91BF91AF919F918F917F916F9115
:103BB0005F914F913F912F910F900FBE0F901F90EB
:103BC0001895CF93DF93EC0160E00E940A1C8EE908
:103BD00099E09E878D871B8A1A8A81E0898389E014
:103BE0008E8B198E1B8E1D8EDF91CF910895CF93F2
:103BF000DF93EC0160E00E940A1C88E999E09E874F
:103C00008D871B8A1A8A81E0898389E08E8B198EC1
:103C10001B8E1D8EDF91CF910895FC01862F992771
:103C200087FD9095668170E06F5F7F4F0E947124E1
:103C300085830895411107C065300CF064E067FD8D
:103C400060E0FC0160A708951F920F920FB60F92DB
:103C500011242F933F938F939F93AF93BF938091A2
:103C6000480490914904A0914A04B0914B043091CA
:103C7000470423E0230F2D3720F40196A11DB11D29
:103C800005C026E8230F0296A11DB11D209347040D
:103C90008093480490934904A0934A04B0934B0442
:103CA00080914C0490914D04A0914E04B0914F042A
:103CB0000196A11DB11D80934C0490934D04A093D7
:103CC0004E04B0934F04BF91AF919F918F913F915C
:103CD0002F910F900FBE0F901F9018952FB7F8944B
:103CE000609148047091490480914A0490914B047A
:103CF0002FBF08953FB7F89480914C0490914D04E4
:103D0000A0914E04B0914F0426B5A89B05C02F3F4B
:103D100019F00196A11DB11D3FBF6627782F892F8D
:103D20009A2F620F711D811D911D42E0660F771F52
:103D3000881F991F4A95D1F70895CF92DF92EF928D
:103D4000FF92CF93DF936B017C010E947A1EEB01FF
:103D5000C114D104E104F10489F00E943A220E94C6
:103D60007A1E6C1B7D0B683E734090F381E0C81A8D
:103D7000D108E108F108C851DC4FEACFDF91CF91BB
:103D8000FF90EF90DF90CF900895789484B5826093
:103D900084BD84B5816084BD85B5826085BD85B5EF
:103DA000816085BDEEE6F0E0808181608083E1E89E
:103DB000F0E01082808182608083808181608083D6
:103DC000E0E8F0E0808181608083E1EBF0E08081D9
:103DD00084608083E0EBF0E0808181608083EAE7AB
:103DE000F0E0808184608083808182608083808134
:103DF000816080838081806880831092C1000895F3
:103E00008E3008F08E50877020910E0190E4299F2B
:103E100090011124822B80937C0080917A00806431
:103E200080937A0080917A0086FDFCCF80917800A3
:103E30002091790090E0922B08951F93CF93DF9308
:103E4000182FEB0161E00E94A51F209711F460E09C
:103E500004C0CF3FD10539F461E0812FDF91CF91CC
:103E60001F910C94DE1FE12FF0E0EE54F64FE49129
:103E7000E330F9F048F4E130B9F0E230A1F584B56F
:103E8000806284BDC8BD34C0E730E9F0E83019F184
:103E9000E43049F580918000806280938000D09367
:103EA0008B00C0938A0024C084B5806884BDC7BDE0
:103EB0001FC080918000806880938000D09389002B
:103EC000C093880015C08091B00080688093B000D6
:103ED000C093B3000DC08091B00080628093B000A9
:103EE000C093B40005C0C038D1050CF0B5CFAFCF3A
:103EF000DF91CF911F910895833081F028F48130B4
:103F000099F08230A1F008958730A9F08830B9F097
:103F10008430D1F4809180008F7D03C08091800037
:103F20008F7780938000089584B58F7702C084B521
:103F30008F7D84BD08958091B0008F7703C08091FC
:103F4000B0008F7D8093B0000895CF93DF9390E011
:103F5000FC01EA53F64F2491FC01E652F64F84919E
:103F6000882349F190E0880F991FFC01EE5FF54F1F
:103F7000A591B4918850964FFC01C591D4919FB7FB
:103F8000611108C0F8948C91209582238C938881CC
:103F900082230AC0623051F4F8948C91322F30950C
:103FA00083238C938881822B888304C0F8948C911E
:103FB000822B8C939FBFDF91CF9108950F931F9316
:103FC000CF93DF931F92CDB7DEB7282F30E0F901F2
:103FD000EE54F64F8491F901EA53F64F1491F9012A
:103FE000E652F64F04910023C9F0882321F069833B
:103FF0000E947C1F6981E02FF0E0EE0FFF1FE85068
:10400000F64FA591B4919FB7F8948C91611103C0BC
:104010001095812301C0812B8C939FBF0F90DF915E
:10402000CF911F910F910895CF93DF93282F30E008
:10403000F901EE54F64F8491F901EA53F64FD49109
:10404000F901E652F64FC491CC2391F081110E9400
:104050007C1FEC2FF0E0EE0FFF1FE251F64FA59111
:10406000B4912C912D2381E090E021F480E002C0F6
:1040700080E090E0DF91CF91089508950E94C51EE1
:104080000E943D200E945409C0E0D0E00E94AA0D89
:104090002097E1F30E940000F9CFCF92DF92EF92D8
:1040A000FF920F931F93CF93DF936C017A01EB0183
:1040B000E60EF71E00E010E0CE15DF0561F0699115
:1040C000D601ED91FC910190F081E02DC60109959A
:1040D000080F191FF1CFC801DF91CF911F910F91E8
:1040E000FF90EF90DF90CF9008956115710581F0FA
:1040F000DB010D900020E9F7AD0141505109461B4D
:10410000570BDC01ED91FC910280F381E02D0994C5
:1041100080E090E00895EF92FF920F931F93CF936A
:10412000DF938C01FB01C0E0D0E064917F018FEF51
:10413000E81AF80A662361F0D801ED91FC9101902C
:10414000F081E02DC8010995C80FD91FF701EDCF07
:10415000CE01DF91CF911F910F91FF90EF900895C5
:10416000DC01ED91FC910190F081E02D09940F9319
:104170001F93CF93DF93EC016DE00E94B0208C0180
:104180006AE0CE010E94B020800F911FDF91CF9195
:104190001F910F9108950F931F93CF93DF93EC011D
:1041A0000E948B208C01CE010E94B720800F911FAE
:1041B000DF91CF911F910F9108958F929F92AF92AF
:1041C000BF92CF92DF92EF92FF920F931F93CF9304
:1041D000DF93CDB7DEB7A1970FB6F894DEBF0FBE61
:1041E000CDBF7C01C42EE52FCB01D22E19A221E038
:1041F0002D1510F02AE0D22E8E010F5D1F4F8D2C51
:10420000912CA12CB12C6C2D7E2FA50194010E9424
:1042100085248C2DD29E80191124015011098A30D9
:1042200014F4805D01C0895CF8018083211531059B
:104230004105510521F0C22EE32FCA01E4CFB80198
:10424000C7010E947520A1960FB6F894DEBF0FBE7D
:10425000CDBFDF91CF911F910F91FF90EF90DF9035
:10426000CF90BF90AF909F908F900895CF92DF92A4
:10427000EF92FF920F931F93CF93DF93EC016A01AC
:104280007B012115310579F4E881F9810190F081F4
:10429000E02D642FDF91CF911F910F91FF90EF9050
:1042A000DF90CF9009942A303105E9F477FF1AC0E6
:1042B0006DE20E94B0208C0144275527BA014C19A9
:1042C0005D096E097F092AE0CE010E94DD20800F82
:1042D000911FDF91CF911F910F91FF90EF90DF9091
:1042E000CF9008952AE0B701A601CE01DF91CF91CA
:1042F0001F910F91FF90EF90DF90CF900C94DD20F5
:104300000F931F93CF93DF93EC019A01AB016627C4
:1043100057FD6095762F0E9436218C01CE010E94B8
:10432000B720800F911FDF91CF911F910F910895BA
:104330002115310541F4DC01ED91FC910190F081F2
:10434000E02D642F09940C94DD209A01AB0160E00C
:1043500070E00C949821009729F0BC0180E090E077
:104360000C943A250895CF93DF9300D000D0CDB7B9
:10437000DEB79B01AC01611571058105910569F0FE
:1043800069833A834B835C830E94352529813A8176
:104390004B815C810E94A72403C060E070E0CB01E8
:1043A0000F900F900F900F90DF91CF910895CF92C3
:1043B000DF92EF92FF926B017C0162177307840713
:1043C000950764F4CA01B9016C197D098E099F092A
:1043D0000E94B3216C0D7D1D8E1D9F1DFF90EF90DF
:1043E000DF90CF9008954F925F926F927F92AF923D
:1043F000BF92CF92DF92EF92FF920F931F93CF93D2
:10440000DF93CDB7DEB729013A01621B730B840B32
:10441000950B29893A894B895C892A193B094C09F2
:104420005D09298B3A8B4B8B5C8B9B01AC016989B5
:104430007A898B899C890E944124E418F508060931
:104440001709A80197010E94A7242A0D3B1D4C1DA6
:104450005D1DCA01B901DF91CF911F910F91FF90AE
:10446000EF90DF90CF90BF90AF907F906F905F9074
:104470004F90089508955058BB27AA270ED049C1E0
:104480003AD130F03FD120F031F49F3F11F41EF4C7
:104490002FC10EF4E095E7FBFCC0E92F4BD180F370
:1044A000BA17620773078407950718F071F49EF531
:1044B0007AC10EF4E0950B2EBA2FA02D0B01B90195
:1044C00090010C01CA01A0011124FF27591B99F08A
:1044D000593F50F4503E68F11A16F040A22F232F96
:1044E000342F4427585FF3CF469537952795A795E6
:1044F000F0405395C9F77EF41F16BA0B620B730B8D
:10450000840BBAF09150A1F0FF0FBB1F661F771FFD
:10451000881FC2F70EC0BA0F621F731F841F48F4B2
:10452000879577956795B795F7959E3F08F0B3CF38
:104530009395880F08F09927EE0F97958795089522
:1045400084D008F481E0089504D06894B1112CC19E
:104550000895F8D088F09F5790F0B92F9927B75158
:10456000A0F0D1F0660F771F881F991F1AF0BA9537
:10457000C9F712C0B13081F016D1B1E0089513C16E
:10458000672F782F8827B85F39F0B93FCCF386952D
:1045900077956795B395D9F73EF49095809570958A
:1045A00061957F4F8F4F9F4F0895E89409C097FB07
:1045B0003EF490958095709561957F4F8F4F9F4FFA
:1045C0009923A9F0F92F96E9BB279395F69587953E
:1045D00077956795B795F111F8CFFAF4BB0F11F401
:1045E00060FF1BC06F5F7F4F8F4F9F4F16C08823A8
:1045F00011F096E911C0772321F09EE8872F762FDE
:1046000005C0662371F096E8862F70E060E02AF01E
:104610009A95660F771F881FDAF7880F969587950A
:1046200097F90895A9D080F09F3740F491110EF0CA
:10463000BBC060E070E080E89FEB089526F41B1695
:10464000611D711D811D2BC045C0990F0008550FBC
:10465000AA0BE0E8FEEF16161706E807F907C0F008
:1046600012161306E407F50798F0621B730B840B10
:10467000950B39F40A2661F0232B242B252B21F4EA
:1046800008950A2609F4A140A6958FEF811D811D8A
:10469000089597F99F6780E870E060E008958823A7
:1046A00071F4772321F09850872B762F07C066236B
:1046B00011F499270DC09051862B70E060E02AF02C
:1046C0009A95660F771F881FDAF7880F969587955A
:1046D00097F908959F3F31F0915020F48795779591
:1046E0006795B795880F911D9695879597F90895C9
:1046F0009FEF80EC089500240A94161617061806FA
:104700000906089500240A941216130614060506D5
:104710000895092E0394000C11F4882352F0BB0F66
:1047200040F4BF2B11F460FF04C06F5F7F4F8F4FC9
:104730009F4F089557FD9058440F551F59F05F3F04
:1047400071F04795880F97FB991F61F09F3F79F0B3
:1047500087950895121613061406551FF2CF469535
:10476000F1DF08C0161617061806991FF1CF8695B7
:104770007105610508940895E5DFA0F0BEE7B9175B
:1047800088F4BB279F3860F41616B11D672F782F69
:104790008827985FF7CF869577956795B11D939594
:1047A0009639C8F30895E894BB2766277727CB018D
:1047B00097F908954ADF08F48FEF08950BD0A9CF39
:1047C0009ADF28F09FDF18F0952309F062CF90CF91
:1047D0001124EACFAFDFA0F3959FD1F3950F50E0FE
:1047E000551F629FF001729FBB27F00DB11D639FA3
:1047F000AA27F00DB11DAA1F649F6627B00DA11D49
:10480000661F829F2227B00DA11D621F739FB00DEE
:10481000A11D621F839FA00D611D221F749F33275E
:10482000A00D611D231F849F600D211D822F762FF7
:104830006A2F11249F5750408AF0E1F088234AF0F4
:10484000EE0FFF1FBB1F661F771F881F9150504040
:10485000A9F79E3F510570F01CCFA6CF5F3FECF348
:10486000983EDCF3869577956795B795F795E7952C
:104870009F5FC1F7FE2B880F911D9695879597F93D
:104880000895DB018F939F930E94C624BF91AF913F
:10489000A29F800D911DA39F900DB29F900D11249A
:1048A0000895991B79E004C0991F961708F0961B8C
:1048B000881F7A95C9F780950895AA1BBB1B51E103
:1048C00007C0AA1FBB1FA617B70710F0A61BB70B80
:1048D000881F991F5A95A9F780959095BC01CD0125
:1048E000089597FB072E16F4009407D077FD09D0A2
:1048F0000E945D2407FC05D03EF4909581959F4F62
:104900000895709561957F4F0895A1E21A2EAA1B14
:10491000BB1BFD010DC0AA1FBB1FEE1FFF1FA2176F
:10492000B307E407F50720F0A21BB30BE40BF50B6C
:10493000661F771F881F991F1A9469F760957095F5
:10494000809590959B01AC01BD01CF010895052E86
:1049500097FB1EF400940E94BE2457FD07D00E94CE
:10496000852407FC03D04EF40C94BE24509540954A
:10497000309521953F4F4F4F5F4F0895909580950B
:10498000709561957F4F8F4F9F4F08950E94D72458
:10499000A59F900DB49F900DA49F800D911D112493
:1049A0000895EE0FFF1F0590F491E02D0994A29F4A
:1049B000B001B39FC001A39F700D811D1124911DF3
:1049C000B29F700D811D1124911D08958F929F92A9
:1049D000AF92BF92CF92DF92EF92FF92CF93DF938D
:1049E000EC01688179818A819B816115710581055E
:1049F000910521F464E279ED8BE597E02DE133EF49
:104A000041E050E00E94A72449015A019B01AC01FA
:104A1000A7EAB1E40E94C6246B017C01ACEEB4EFBE
:104A2000A50194010E944625C60ED71EE81EF91E58
:104A3000F7FE06C081E0C81AD108E10880E8F80A4C
:104A4000C882D982EA82FB82C701B6019F77DF91D3
:104A5000CF91FF90EF90DF90CF90BF90AF909F905D
:104A60008F9008950E94E624089586E091E00E94C8
:104A7000E62408956093060170930701809308016E
:104A8000909309010895B7FF0C94C6240E94C62490
:0A4A9000821B930B0895F894FFCFEA
:104A9A000000500480000100000001000101010033
:104AAA000000003D000100000000000200030000B9
:104ABA000006006B00010005000400030008000066
:104ACA000018003700010000000000050007000080
:104ADA000039000200010007001300050039000038
:104AEA000004002500040007000C00030001000078
:0E4AFA00000000A8154D204C4F4144455200CD
:00000001FF
