:100000000C9492020C94BA020C94BA020C94BA02A8
:100010000C94BA020C94BA020C94BA020C94BA0270
:100020000C94BA020C94BA020C94BA020C94A91B58
:100030000C94BA020C94BA020C94BA020C94BA0250
:100040000C940F1C0C94BA020C94BA020C94BA02D1
:100050000C94BA020C94BA020C94BA020C94BA0230
:100060000C94BA020C94BA02596F64612773002091
:10007000202020596F646127730020202020596FB1
:1000800064612773000B041F006AC0FFE064C00BAB
:10009000045DC0554055405DC00204804080400270
:1000A000044080408008057EFFFFE7C308057EDB33
:1000B000FFA5C308056EDB76A5C3080566D956A55E
:1000C000420805228952A5420704107CFEFE07045F
:1000D0008A40049207049204408A070538D6FE2815
:1000E000C6070538D6FE4428070510BAD67C28076F
:1000F000053854FE9228070538547C4428070538F3
:10010000547C285407055482548254070554825461
:100110008254401AFFFFFFFFFFFFFFFF00000000B7
:10012000000000003B9DDC71F1FBE1F03B9DDCF940
:10013000F9FBF3F83B9DDCF9F9FBFBF83BDDDDFD5A
:10014000FDC3BBB83BDDDDFDDDC3BBB83BDDDDDDA5
:10015000DDC3BB803BFDDDDDDDF3BBC03BFDDDDD95
:10016000DDF3F1E03BFDDDFDDDF3E0F03BFDDDFD2A
:10017000DDC3F0783BBDDDFDDDC3B8383BBDDDDD63
:10018000DDC3BBB83BBDFDDDDDC3BBB83B9CF9DDCA
:10019000F9FBBBF83B9C71DDF9FBBBF83B9C21DD17
:1001A000F1FBB9F00000000000000000FFFFFFFFBE
:1001B000FFFFFFFF0000000000000000A6C66AEC81
:1001C000E66E66CEAAAA8A4A8AAA8AA8AAAEEA4A8D
:1001D000CAEC8EAC4AAA2A4A8AAA8AA84ECAE4EC79
:1001E000EEAAEACE0A4E6F20534420636172642067
:1001F0006F720A6E6F204C4F414445522E4845584D
:100200000A0A153A45786974001D20466C617368C6
:10021000696E670A20206C6F616465722E2E2E0A4B
:100220000A444F4E2754205455524E204F464621E3
:10023000000A0A153A49676E6F7265006D560A0A20
:10024000504C45415345205455524E204F46462070
:10025000004C4F5720424154544552592120001719
:100260002B152010204C4F4144455200172B1620CF
:1002700013140017534400161378001613140015B6
:1002800010200015201000540A03E181867F3E18DB
:100290006D830F0F0E0183866033186DC3198F189D
:1002A00003C38E6033186DE330CF1803C39E6036EE
:1002B00030CDE360CF3006C79E7E3E30CDB360CFF9
:1002C000300CC6F6603330D9B660CF33CFCCF66091
:1002D00061B0DB1E60CF30D86CE6C061B0DB1E6160
:1002E0008F19986CC6C063B19B0E330F0FB078C6E0
:1002F000FF7E1F1B061E0F050089300802380249C9
:10030000786814000003053F213F1208120A100A02
:100310000E1C0E0C1E0C141A14161F161E131E1E75
:100320001B1E1E1F1E3F213F3A2F3A173D173F212C
:100330003F181F02040A041F0E04040E1F0A1F0A9E
:100340000E0E1F04110E2E252E2F2A2E26292902CD
:100350001F02081F08150E04040E150E15151B1597
:100360001B040604040C0400000000170003000333
:100370001F0A1F16371A1904130A153A0003000042
:100380000E11110E000A040A040E040030000404C9
:10039000040010001804031F111F121F101D151751
:1003A00011151F07041F17151D1F151D01011F1F04
:1003B000151F17151F000A00003200040A110A0A4F
:1003C0000A110A040115020E11171E051E1F150A37
:1003D0000E110A1F110E1F15111F05010E111D1FF1
:1003E000041F111F1108100F1F041B1F10101F06E0
:1003F0001F1E040F0E110E1F09060E112E1F051AC7
:10040000121509011F011F101F0F180F1F0C1F1BB2
:10041000041B031C03191513001F11030418111FDB
:10042000000201022020200001020C121E1F120CEB
:100430000C12120C121F0C1A14041E05242A1E1F63
:10044000021C141D1020201D1F0814111F101E0453
:100450001E1E021C0C120C3E0A040C123E1E04024C
:1004600014160A020F120E101E0E100E1E081E1277
:100470000C1226281E322A26041E21001F00211ECF
:10048000040102013F213FF6E8DBCFC3B8AEA49BD5
:10049000928A827B746E68625C57524E4945413E37
:1004A0003A3734312E2C29272523214500680100B5
:1004B000000500380168010000C104BD040101FF0E
:1004C000030101F70300000008000201000003041B
:1004D0000700000000000000000102040810204096
:1004E0008001020408102001020408102004040402
:1004F00004040404040202020202020303030303CD
:100500000300000000230026002900000000002551
:100510000028002B0000000000240027002A000013
:10052000680C780C11241FBECFEFD8E0DEBFCDBF22
:1005300012E0A0E0B1E0E4E4FAE402C005900D921C
:10054000AC31B107D9F726E0ACE1B2E001C01D92B1
:10055000A93CB207E1F715E0C2E2D5E004C022975A
:10056000FE010E945C22C032D107C9F70E949D2083
:100570000C9415250C9400008EE294E00E94371133
:100580006EE18EE294E00E94B20C42E151E06AE733
:1005900070E08EE294E00E947E0F8EE294E00E9472
:1005A000CA0C6CE071E088E294E00E946520109231
:1005B00046040895109227041092260483E090E0E8
:1005C000909323048093220410922104109220041B
:1005D00088E290E090931F0480931E048FEF9FEFBA
:1005E00090933702809336029093350280933402C1
:1005F00090932702809326029093210280932002F9
:1006000090934F0280934E0290934702809346024C
:100610009093510280935002909349028093480234
:10062000909353028093520290934B0280934A021C
:10063000909355028093540290934D0280934C0204
:1006400062E171E088E294E00C9465202F923F9281
:100650004F925F926F927F928F929F92AF92BF92D2
:10066000CF92DF92EF92FF920F931F93CF93DF937E
:10067000CDB7DEB76A970FB6F894DEBF0FBECDBF19
:1006800088E290E0909365028093640287E290E0B4
:10069000909363028093620282E090E0909359020B
:1006A00080935802109257021092560210925F02E5
:1006B00010925E0290935D0280935C0210925B0246
:1006C00010925A0210922B0210922A028CE390E0B0
:1006D000909341028093400280EF90E090931F023C
:1006E00080931E02A0902004B090210429E0A2165D
:1006F000B10424F48501000F111F02C000E110E0D5
:1007000020EB33E060ED73E07A83698380EE93E061
:100710009C838B83A0EFB3E0BE83AD83E2E4F3E080
:10072000FE8BED8B62E673E078876F8382E793E060
:100730009A878987A2E8B3E0BC87AB87E4EDF2E053
:10074000F88FEF8BB4EF2B2EB2E03B2E64E073E01A
:100750007E876D8784E1482E83E0582EE6E6F2E03E
:1007600086E892E0988B8F87A6E9B2E0BA8BA98BD6
:1007700066EA72E07C8B6B8B8AE090E048E050E0A8
:10078000D8011696BA8FA98F4801BCE08B0E911C38
:10079000680162E1C60ED11C780178E1E70EF11C18
:1007A00062E070E0D90111969C938E9351969C93D0
:1007B0008E935097A981BA818D939D93BA83A98313
:1007C000AB81BC818D939D93BC83AB83AD81BE8196
:1007D0008D939D93BE83AD83AD89BE8911961C9385
:1007E0000E93698C7A8C51967C926E925097AF8161
:1007F000B8858D929D92B887AF83A985BA85CD9231
:10080000DD92BA87A987AB85BC85ED92FD92BC8746
:10081000AB87A4E06A2E712CAF89B88D11967C92BB
:100820006E9251967C936E935097D1016D937D9308
:100830001D01AD85BE851D921D92BE87AD87D2017B
:100840001D921D922D0111821082118A108AAF858E
:10085000B8891D921D92B88BAF87A989BA891D925C
:100860001D92BA8BA98BAB89BC891D921D92BC8B42
:10087000AB8B4150510908962E5F3F4FAD89BE8921
:100880001296BE8BAD8BAF89B88D1296B88FAF8B99
:1008900032964115510509F085CFE8E3F2E08FEF7C
:1008A0009FEFB6E0AB16B1041CF41182108202C0B7
:1008B00091838083329622E0E034F20791F76BE176
:1008C00071E088E294E06A960FB6F894DEBF0FBE3E
:1008D000CDBFDF91CF911F910F91FF90EF90DF90EF
:1008E000CF90BF90AF909F908F907F906F905F90D0
:1008F0004F903F902F900C9465208091280290910A
:100900002902019709F054C08091200290912102A0
:10091000019609F04DC08091220490912304029722
:1009200044F028EC30E040E060E08CE794E00E9486
:1009300031168091220490912304039744F028EC0F
:1009400030E040E069E08CE794E00E94311660916D
:100950002604709127046A30710534F098E26436F9
:1009600071051CF082E002C09AE280E0981B683EAC
:1009700083E0780714F082E001C080E0981B909338
:100980008504109286044AE050E08CE794E00E94CF
:10099000531F88E4809385046091200470912104A2
:1009A0006F5F7F4F4AE050E08CE794E00C94531F58
:1009B00008958091640290916502892BD9F4809109
:1009C0002A0290912B02019690932B0280932A0287
:1009D0008A3591057CF08091200490912104019644
:1009E000909321048093200462E171E088E294E016
:1009F0000C9465200895809126029091270201971A
:100A00009093270280932602892BD9F48FEF9FEFD2
:100A100090932702809326028091220490912304D0
:100A20000197909323048093220410921F04109244
:100A30001E04892B31F463E271E088E294E00C94A7
:100A4000652008958091260290912702019649F42D
:100A500028EC30E04CE260911E048CE794E00C94AA
:100A600031168091440290914502019646E0489FDC
:100A70009001499F300D112428533F4F4CE2609163
:100A80001E048CE794E00E9431160C94FB040F9333
:100A900060913602709137026F3F8FEF780709F14E
:100AA0004091340250913502425051095093350221
:100AB0004093340202E0040F262F8CE794E00E945A
:100AC0003A14809134029091350297FF0AC08FEF5B
:100AD0009FEF909337028093360290933502809374
:100AE00034020F9108959F92AF92BF92CF92DF92FE
:100AF000EF92FF920F931F93CF93DF9308E312E0DF
:100B0000CBE0D0E027E2C22ED12C3BE2A32EB12CC9
:100B1000EE24EA94FE2C57E0952ED0933302C09336
:100B20003202CE0107969093310280933002D09228
:100B30002F02C0922E02B0922D02A0922C02F80138
:100B4000208131812F3FFFEF3F0711F140913602A5
:100B5000509137024C175D07DCF084179507C4F0FD
:100B600080913402909135028597079788F4C901E6
:100B70000196F80191838083F0923702E092360269
:100B8000F0923502E0923402059714F0F182E0828F
:100B9000F801819191918F018F3FFFEF9F0769F0DD
:100BA000989E9001999E300D11242B553F4F47E29E
:100BB0006C2F8CE794E00E9431166296C335D10504
:100BC00009F0ABCFDF91CF911F910F91FF90EF9084
:100BD000DF90CF90BF90AF909F9008950F931F9399
:100BE000CF93DF9380911E0290911F020197909303
:100BF0001F0280931E0218161906A4F180EF90E0E0
:100C000090931F0280931E020091280210912902E6
:100C10000130110539F5C0912002D0912102CF3F5A
:100C20008FEFD807F9F4109221021092200262E0AF
:100C300070E080E090E00E94761F672B49F41092EC
:100C400025021092240210932302009322020AC06C
:100C500089E490E09093250280932402D0932302AC
:100C6000C0932202DF91CF911F910F91089580913F
:100C70002002909121028F3F2FEF920739F14AE035
:100C8000489F9001499F300D11242B573F4F40E062
:100C9000609124028CE794E00E943116809120023A
:100CA00090912102019791F480911C0290911D0274
:100CB000019790931D0280931C021816190634F0B8
:100CC0008FEF9FEF909321028093200208950F935E
:100CD00060E08CE794E00E949B1309E027E240E18A
:100CE00066E18CE794E00E94111461E08CE794E0E7
:100CF0000E949B1388E18093850482E1809386049F
:100D00006CE271E08CE794E00E949B1E27E240E1D8
:100D100066E18CE794E00E94E91384E08093850407
:100D20008AE28093860466E371E08CE794E00E9497
:100D30009B1E65E088E394E00E949812882359F096
:100D40006CE071E088E294E00E94652083E594E025
:100D50000F910C94CD1B0F910895809126049091D2
:100D6000270420912404309125042817390724F4FE
:100D70009093250480932404109285041092860495
:100D80006AE471E08CE794E00E949B1E6091260467
:100D9000709127046A30710534F09CE06436710567
:100DA0001CF082E002C09EE080E0981B683E83E079
:100DB000780714F082E001C080E0981B90938504CE
:100DC00086E0809386044AE050E08CE794E00E943D
:100DD000531F60912404709125046A30710534F02A
:100DE00090E4643671051CF082E002C092E480E079
:100DF000981B683E83E0780714F082E001C080E031
:100E0000981B9093850486E0809386044AE050E026
:100E10008CE794E00E94531F22E131E04DE06AE04C
:100E20008CE794E00E943116109285048AE2809348
:100E300086046EE571E08CE794E00E949B1E64E0FE
:100E400088E394E00E949812882351F063E771E0F0
:100E500088E294E00E94652083E594E00E94CD1B27
:100E600066E088E394E00E949812882341F042E112
:100E700051E068E670E08EE294E00C947E0F0895F5
:100E80000F931F93CF93DF93162FEC0164E0CC0FE9
:100E9000DD1F6A95E1F7C558DE4F012F20E04C8534
:100EA00060E083E594E00E948B1920E0488161E0D6
:100EB00083E594E00E948B19288521954A8562E09C
:100EC00083E594E00E948B192C812A534E8163E0C4
:100ED00083E594E00E948B19212F4E856A8183E57A
:100EE00094E0DF91CF911F910F910C94BC1941E0D8
:100EF00060E088E394E00E94AF12882379F080914B
:100F00001E0490911F041816190644F4209126021D
:100F1000309127022F3F3F4F09F454C041E062E077
:100F200088E394E00E94AF12882379F080911E0438
:100F300090911F048E34910544F420912602309143
:100F400027022F3F3F4F09F443C066E088E394E057
:100F50000E949812882371F042E151E06FE670E040
:100F60008EE294E00E947E0F6CE071E088E294E0F3
:100F70000E94652064E088E394E00E949812882330
:100F800069F18091360290913702019639F580918E
:100F9000260290912702019609F580911E049091F6
:100FA0001F040396909337028093360289E290E003
:100FB000909335028093340260E070E080E090E02E
:100FC0000C944007019790931F0480931E04A6CFB2
:100FD000019690931F0480931E04B7CF08950F933A
:100FE0001F93CF93DF93809164029091650218164E
:100FF00019060CF043C110925F0210925E02C1E02C
:10100000D0E004E010E080916202909163020196CA
:10101000883291052CF4909363028093620219C088
:101020001092630210926202D0935F02C0935E023C
:1010300080916002909161020196B8010E94FA21AC
:10104000909361028093600261E070E004960E94D8
:1010500040078091620290916302FC01EE0FFF1F36
:10106000EC52FD4F208131812F3F3F4F61F22091A3
:101070005E0230915F022130310509F520915A025C
:1010800030915B02232B59F01092590210925802B2
:1010900022E030E030935702209356020CC020919A
:1010A0005C0230915D0230935902209358021092F5
:1010B00057021092560210925F0210925E02FC01DB
:1010C000EE0FFF1FDF01A055BC4F8D919C91119732
:1010D0002091580230915902820F931F8D939C9357
:1010E000EE5BFC4F80819181209156023091570236
:1010F000820F931F9183808383329105D4F02FEF69
:101100003FEF309339022093380230933B02209313
:101110003A0230933D0220933C0230933F022093E9
:101120003E02899734F063E271E088E294E00E9425
:1011300065202091620230916302220F331FF90172
:10114000E055FC4FC081D181CC34D10584F0809131
:1011500058029091590218161906E4F48EEF9FEF89
:1011600090935D0280935C0282E090E00FC0C230F9
:10117000D10584F4809158029091590297FF0AC0DA
:1011800082E090E090935D0280935C0290935B021A
:1011900080935A028091560290915702892B21F038
:1011A00010925B0210925A02F901EA59FD4F8081B8
:1011B0009181019662E070E00E94FA219183808320
:1011C000F901EC52FD4F80819181069769F48FEF10
:1011D0009FEF9183808380916402909165020197D3
:1011E0009093650280936402809140029091410245
:1011F000181619060CF442C0609120047091210465
:10120000809142029091430268177907BCF18430C3
:101210009105A4F5F901EE5BFC4F40815181483204
:10122000510564F516EF16039001179F300D112438
:10123000285D3F4F309341022093400201969093E6
:10124000430280934202EEE4F2E0A6E4B2E080E0E2
:1012500090E02196009751F4208131812F3F3F4F3C
:1012600039F4D183C08311965C934E9381E090E072
:101270003296129622E0E635F20761F7DF91CF91C0
:101280001F910F9108956F927F928F929F92AF92CC
:10129000BF92CF92DF92EF92FF920F931F93CF9363
:1012A000DF9381E090E09093290280932802C4EDBF
:1012B000D2E010EBC12E13E0D12E02E413E086E65B
:1012C000E82E82E0F82E97E0692E2AE0722E36E0B2
:1012D000832E912CAA24AA94BA2C288139812F3FDD
:1012E0008FEF3807E9F0F70180819181820F931F1A
:1012F000689E9001699E300D112426523F4FF801DF
:101300004081F60160818CE794E00E943116F8017B
:1013100080819181059724F410922902109228026D
:10132000F601219131916F01309333022093320203
:10133000C90106969093310280933002F8014191E1
:1013400051918F0150932F0240932E02BA016C5F8E
:101350007F4F70932D0260932C0288819981843095
:10136000910569F4F9013196F0933302E09332026A
:101370002B5F3F4F309331022093300209C08F3FE3
:10138000FFEF9F0709F443C08630910509F43FC081
:101390002091360230913702E0913202F09133020F
:1013A0002E173F07A4F1E0913002F0913102E217CD
:1013B000F3076CF12091340230913502F901329635
:1013C000E417F50724F1621773070CF1789E90017A
:1013D000799E300D11248091260490912704280FC6
:1013E000391F265F3F4F30932704209326049982AC
:1013F0008882B0923702A0923602B0923502A09253
:10140000340260E070E081E090E00E9440072296A4
:1014100022E0E20EF11C83E0C432D80709F05DCF70
:10142000DF91CF911F910F91FF90EF90DF90CF90C0
:10143000BF90AF909F908F907F906F9008952F9264
:101440003F925F926F927F928F929F92AF92BF92E4
:10145000CF92DF92EF92FF920F931F93CF93DF9380
:1014600080914002909141020197909341028093B4
:1014700040028091440290914502019662E070E042
:101480000E94FA2190934502809344020EE412E0F8
:10149000C6E4D2E056E0552EEE24EA94FE2C7CE21F
:1014A000672E712CEFE28E2E912CFCE3AF2EB12C27
:1014B000D8016D917C916F3FBFEF7B0709F4E8C0C5
:1014C000488159814F5F5F4F59834883809144021F
:1014D00090914502589E9001599E300D1124275637
:1014E0003F4F8CE794E00E943116209142023091E8
:1014F0004302E8E3F2E08BE090E01C0147E0240EB9
:10150000311C408151814F3F6FEF560729F1D801BF
:101510006D917C916B01BFEFCB1ADB0AC816D9061F
:10152000DCF026163706C4F06881798164527109AF
:101530006830710588F44F5F5F4F453051051CF4EA
:101540005183408302C0F182E082D801ED92FC9287
:10155000F982E8822150310932964296833591050D
:1015600061F6309343022093420280911E049091D1
:101570001F0490933302809332029C012A5F3F4FF5
:10158000309331022093300270922F0260922E022B
:1015900090922D0280922C024091260250912702B7
:1015A0004F3F5F4FD9F4F80140815181BA016F5F1D
:1015B0007F4F6817790794F0241735077CF08881EE
:1015C00099818997079750F4B0922702A09226023A
:1015D00062E070E082E090E00E944007D8012D9127
:1015E0003C9111973093330220933202B9016F5F1F
:1015F0007F4F70933102609330028881998190937C
:101600002F0280932E02AC014D5F5F4F50932D024D
:1016100040932C02E0913602F0913702E217F30773
:101620002CF16E177F0714F12091340230913502AE
:10163000B9016E5F7F4F68177907C4F042175307EF
:10164000ACF0F0923702E0923602F0923502E0926E
:101650003402ED92FC92F982E882809142029091EC
:1016600043020197909343028093420288819981BB
:10167000C09774F0F801F182E082F982E8828091EB
:101680004202909143020197909343028093420259
:101690000E5F1F4F2296F2E006351F0709F008CFB4
:1016A000DF91CF911F910F91FF90EF90DF90CF903E
:1016B000BF90AF909F908F907F906F905F903F9082
:1016C0002F9008958091200290912102892B09F09A
:1016D00076C08091240290912502209122023091BF
:1016E0002302820F931F90932502809324029C0172
:1016F000215031092834310530F02FEF3FEF30937E
:1017000021022093200265E070E00E94FA21892BDB
:1017100031F460E070E083E090E00E944007809147
:1017200024029091250290933302809332029C010F
:10173000265F3F4F309331022093300210922F02E8
:1017400010922E0243E050E050932D0240932C0261
:1017500040913602509137024817590784F12417F7
:1017600035076CF18091340290913502029606970C
:1017700030F580912604909127048C599F4F9093C7
:1017800027048093260481E090E0909321028093C7
:1017900020028FEF9FEF9093370280933602909351
:1017A0003502809334028EE190E090931D02809385
:1017B0001C0260E070E081E090E00C944007089526
:1017C000FF920F931F93CF93DF938EE294E00E94DA
:1017D000C00D882309F476C063E771E088E294E0E5
:1017E0000E947D2081110E94DA0262E171E088E2AC
:1017F00094E00E947D2081110E9426036BE171E03C
:1018000088E294E00E947D208823C1F00E9477073F
:101810000E9422050E9447050E94EF070E9443098B
:101820000E941F0A0E94D9040E9473050E94EE05BF
:101830000E94620B0E9437060E947D046CE071E0FA
:1018400088E294E00E947D2081110E94AD0663E24F
:1018500071E088E294E00E947D20882399F104EDF4
:1018600012E0C0E0D0E0A7E0FA2EF801219131911A
:101870008F012F3FFFEF3F07D1F0FE01EA59FD4FE7
:1018800080819181820F931FF89E9001F99E300D07
:10189000112426523F4FFE01EE5BFC4F4081FE01BA
:1018A000E055FC4F60818CE794E00E94311622964F
:1018B000C035D105D1F6DF91CF911F910F91FF90E7
:1018C0000C946706DF91CF911F910F91FF900895BF
:1018D00010927F0410927E0486E092E090937D0443
:1018E00080937C046CE072E088E294E00C944F20DA
:1018F00088E294E00C94E11FCF93CFB7F8948091E5
:10190000B504811127C0E7EFF4E08491E3EEF4E041
:101910009491E82FF0E0EE0FFF1FEB5EFA4FA591D8
:10192000B4918C91892321F461E08AE00E94DB1D4F
:1019300061E08AE00E94A21D8CB580618CBD8CB5EF
:1019400080648CBD61E08DE00E94A21D61E08BE0AF
:101950000E94A21D8091B5048F5F8093B504CFBF14
:10196000CF910895CF93DF93FC01462FEC01C1582E
:10197000DF4F70E088EE93E00E94FA216883842FA5
:1019800064E10E94DA21811101C081E081A7DF9129
:10199000CF9108958F929F92AF92BF92CF92DF9294
:1019A000EF92FF92CF93DF93EC01CA8CDB8CC09453
:1019B000D094E12CF12C0E94651C4B015C010E942B
:1019C000651CA50194012095309540955095609532
:1019D0007095809590950E94CA219B01AC01C7012A
:1019E000B6010E94CA216B017C0189809A80A12CDA
:1019F000B12C0E94651C680D791D8A1D9B1D6C0D04
:101A00007D1D8E1D9F1DDF91CF91FF90EF90DF9088
:101A1000CF90BF90AF909F908F900C946E1F8F923D
:101A20009F92AF92BF92CF92DF92EF92FF920F936D
:101A30001F93CF93DF93EC015C0186E8A80EB11CE5
:101A4000D5018C91882309F44DC08C3018F41CE02A
:101A5000181B01C010E0FE01EA5AFF4F81E08083AD
:101A60006E01BEE4CB0ED11C60E0C6010E949B1348
:101A70004E01E3E58E0E911CD4018C9103E0080F1A
:101A80009DE2F92E4F2D481B410F23E0E22E24E565
:101A900060E0C6010E94F81561E0C6010E949B1338
:101AA000F401808103E0080F4F2D481B410F24E50E
:101AB00060E0C6010E949815FE01E95AFF4F84E0DC
:101AC00080833196D4018C91181B115D1083CC5703
:101AD000DF4F68817981C6010E94781EF5018081FF
:101AE00081508083DF91CF911F910F91FF90EF90F4
:101AF000DF90CF90BF90AF909F908F9008950F93FD
:101B00001F93CF93DF938C01EC01C25BDF4FCE01BB
:101B10000E94421369E072E0CE010E94781ECE015D
:101B20000E9453138CB583608CBD8DB58E7F8DBDA7
:101B30008BEF91E0EEEFFFE30995F801EC5AFF4FD0
:101B4000108264EE71E0CE010E94A81ECE010E94B8
:101B50005313065F1F4FC8010E94611264E0C80161
:101B60000E949812811107C062E370E080E090E06B
:101B70000E94881CF0CFDF91CF911F910F910895A3
:101B80008F929F92AF92BF92EF92FF920F931F930B
:101B9000CF93DF93EC017C0100E8E00EF11CF7012C
:101BA00080809180A280B3800E94591C950184019D
:101BB000061B170B280B390BB901A8015E011FE7A3
:101BC000A10EB11CF501808190E0A0E0B0E08E0193
:101BD00005581F4F84179507A607B70750F4F8015B
:101BE00080819181A281B381892B8A2B8B2B09F073
:101BF0006DC0F80180819181A281B381892B8A2BEC
:101C00008B2B09F061C05E01FAE0AF0EB11C41E020
:101C100066E0C5010E94AF129E012B5D3F4F790126
:101C2000882331F065E0C5010E949812811185C0BA
:101C300041E066E0C5010E94AF12882331F064E004
:101C4000C5010E94981281118EC041E066E0C50175
:101C50000E94AF12882339F048E264E0C5010E9477
:101C6000A11281118BC0C7010E94401AC7010E94B6
:101C7000AD1AC7010E947D1BCE010E940F0DCE013F
:101C80000E94CD0E7E013EE4E30EF11CC7010E94CE
:101C90005313FE01EC5AFF4F8081811103C0C7012D
:101CA0000E9442130E94651CF80160837183828345
:101CB0009383FE01EB58FF4FC958DF4F28813981CC
:101CC000621B730B7183608380E05CC00E94591CAF
:101CD000F5012081620F711D811D911DF701608347
:101CE000718382839383FE01EF58FF4F40815181BE
:101CF000628173814F5F5F4F6F4F7F4F408351838E
:101D000062837383F80110821182128213820E940F
:101D1000651CFE01E958FF4F6083718382839383C2
:101D2000CE010E94AE11CE010A960E946112CE0130
:101D300048960E94171281E025C0C7010E940C1C22
:101D400061E0680FC7010E94F91B8CE692E0FE017A
:101D5000EC57FF4F9183808388E432968083C701DC
:101D60000E94E31B65CF8FE592E0FE01EC57FF4F29
:101D70009183808388E43296808367CFCE010E946E
:101D80007F0D71CFDF91CF911F910F91FF90EF9059
:101D9000BF90AF909F908F900895DF92EF92FF9247
:101DA0000F931F93CF93DF93EC018C8D9D8D892B27
:101DB00009F49CC08E01025B1F4F40E061E0C80146
:101DC0000E949F1385E5FE01EE5AFF4F9081891B0B
:101DD0003596808331961082698D613009F462C036
:101DE00028F0888D653008F074C06FC0CE018596EC
:101DF0000E94431A81E0FE01EA5AFF4F808365E0AA
:101E000073E0C8010E9463171D8E1C8EFE01EC5A00
:101E1000FF4F108288EAD82E7E018AE0E80EF11C7E
:101E2000CE010E94C00D8823D9F361E572E0C8019C
:101E30000E94781E6A8D7B8D4AE050E0C8010E94A6
:101E4000681F6CE372E0C8010E94781E6D2D6295D8
:101E50006F7070E04AE050E0C8010E94531F61E3D8
:101E600072E0C8010E94781E64E0C7010E949812C7
:101E700081113CC0DA94A1F660E0CE010E94AA1163
:101E800083B7817F846083BF83B7816083BF83B75B
:101E9000816083BF889583B78E7F83BF83B78E7F32
:101EA00083BFBECFCF58DF4F488159816A817B8184
:101EB0004F70552766277727483051056105710512
:101EC00010F467E009C068E707C0882379F06B5F0A
:101ED00003C0882359F06FE2C801DF91CF911F91B1
:101EE0000F91FF90EF90DF900C949D1EDF91CF91AA
:101EF0001F910F91FF90EF90DF9008952F923F92E6
:101F00004F925F926F927F928F929F92AF92BF9209
:101F1000CF92DF92EF92FF920F931F93CF93DF93B5
:101F2000CDB7DEB729970FB6F894DEBF0FBECDBF91
:101F3000998788877C836B831A012C0180E7480E80
:101F4000511CF2018081882309F401C181E0E885F8
:101F5000F985EA5AFF4F8083E885F985EB5AFF4FF0
:101F60001082E885F985EC5AFF4F1082E885F985E3
:101F7000108E8F01025B1F4F61E0C8010E949B130E
:101F8000888599858D5A9F4F9A838983C884D9847F
:101F900097E5C90ED11CE884F984E8E5EE0EF11C42
:101FA00068847984F2E56F0E711C888599858F5855
:101FB0009F4F9E838D83A884B9849AE0A90EB11C9B
:101FC00088849984E5E28E0E911C888599850E940B
:101FD000C00D8823D1F3EB81FC818491882321F00B
:101FE000E981FA81508101C050E027E832E040E009
:101FF00060E0C8015F830E9431165F8121143104C3
:1020000039F04CE0450F910160E0C8010E943116A3
:10201000F60110828CE0F70180836B817C81C8011E
:102020000E94781EF3019081892F880F890F819576
:102030008D5AF6018083E981FA819081892F880F7A
:10204000890F8195835DF7018083ED81FE81808119
:1020500084FF03C063E872E002C06FE772E0C8016A
:102060000E94A81EF3019081892F880F890F819506
:102070008D5AF6018083F70180818F5F8083E88528
:10208000F98582A5882319F06BE772E002C067E743
:1020900072E0C8010E94A81EF3019081892F880F69
:1020A000890F81958D5AF6018083F70180818F5FBA
:1020B000808363E772E0C8010E94A81E65E0C50145
:1020C0000E949812882359F0C4010E940C1C61E000
:1020D000680FC4010E94F91BC4010E94E31B64E065
:1020E000C5010E949812811113C0F2012081822F34
:1020F00090E0A0E0B0E0ED81FE81408151816281FD
:102100007381481759076A077B07A8F02F3F99F09A
:102110008FEFF2018083088519850B5D1F4F60E00A
:10212000C8010E94EA19C8010E94CD1B81E0E88520
:10213000F985808F0CC066E0C5010E949812882343
:1021400009F443CF888599850E947F0D34CF299665
:102150000FB6F894DEBF0FBECDBFDF91CF911F91B8
:102160000F91FF90EF90DF90CF90BF90AF909F9036
:102170008F907F906F905F904F903F902F90089539
:10218000E0E8F7E72591349181E02130304C09F007
:1021900080E00895CF93DF93EC010E94C0109E0170
:1021A000275A3F4FDE01A059BF4F882309F43AC098
:1021B000E6E9F7E78491F9018083E7E9F7E7E4913D
:1021C000EC83E8E9F7E7E491ED83E9E9F7E7859146
:1021D00094919F838E83EBE9F7E78591949199879A
:1021E000888787E08BA7EEE9F7E7E491EAA7EFE9B4
:1021F000F7E7E491EC93E0EAF7E7859194919D8FFE
:102200008C8FE2EAF7E7859194919F8F8E8FE4EAB5
:10221000F7E78591949199A388A3E6EAF7E785917A
:10222000949120C08CE3F90180831C822FEF2D83D1
:1022300080E293E09F838E8384ED93E09987888783
:1022400087E08BA78AA72C938CEA9DE09D8F8C8FCB
:102250008EED9DE09F8F8E8F84E79EE099A388A3EB
:102260008CE39FE09BA38AA3DF91CF910895AF9267
:10227000BF92CF92DF92EF920F931F93CF93DF9392
:10228000EC01FC01E158FF4F82E38083349741E089
:1022900050E060E070E040835183628373833B973A
:1022A0008FEF8083CE010E94CA10CE010E94A6113A
:1022B0006FEFCE010E94AA116E018AE0C80ED11CF8
:1022C000C6010E945112C6010E9461125E0188E19E
:1022D000A80EB11CC5010E940D129EE0E92E0FE070
:1022E00020E14BE06DE0CE01825B9F4F0E947717AB
:1022F0008E010B5D1F4FC8010E945619C5010E9437
:10230000171265E0C6010E949812811112C0898DD2
:10231000882379F040E067EF72E0C801DF91CF9148
:102320001F910F91EF90DF90CF90BF90AF900C94E2
:10233000F51960E0C801DF91CF911F910F91EF90E7
:10234000DF90CF90BF90AF900C94F91B21E0FC017F
:102350002083089570E085E00C941A1DAF92BF921F
:10236000CF92DF92EF92FF920F931F93CF93DF9361
:10237000EC0189819A812FE0289F8001299F100D0F
:10238000112485E10E94FD1C800F911F24E0969589
:1023900087952A95E1F79A8389832881222391F1F1
:1023A000AC81AD80B12CC12CD12CE885F9857F01A1
:1023B00000E010E06E817F819B0140E050E08617D5
:1023C000970728F0BC01E817F90708F4BF0180E07F
:1023D00090E01F921F921F92AF930E949A1F6B83EF
:1023E0000F900F900F900F9070E085E0DF91CF91EC
:1023F0001F910F91FF90EF90DF90CF90BF90AF9023
:102400000C941A1DDF91CF911F910F91FF90EF90C7
:10241000DF90CF90BF90AF900895FC018CE39FE0D8
:102420009383828384E0818381E084870895CF93BE
:10243000DF93EC018C819D81892B81F18C858F71DB
:1024400051F584E10E94FD1CBC01882777FD809531
:10245000982F0E94DB2026EE3FE34EEC50E40E94D2
:1024600067210E94AD209B017B836A836115710502
:1024700081F084E08983FE0140E084819581281702
:10248000390710F449830AC04F5F32964430A9F7E8
:1024900002C08FEF89838C858F5F8C87DF91CF910E
:1024A0000895FC0188E0808389E0818387E082834E
:1024B00086E0838384E0848382E0858381E1868370
:1024C0000895DF92EF92FF920F931F93CF93DF93C4
:1024D0007C01EC0100E010E0DD24DA9462E0888108
:1024E0000E94A21D88810E94111EF701E00FF11FBA
:1024F000892B21F487818F5F878308C08781882398
:1025000049F08F3F11F4178201C0D78260E08881C3
:102510000E94A21D0F5F1F4F219607301105F1F693
:10252000DF91CF911F910F91FF90EF90DF90089571
:10253000FC01E60FF11D81E09781913009F080E008
:102540000895860F911DFC01278130E050E04F5F18
:102550005F4F81E02417350709F080E00895262FAA
:1025600030E0FC01E20FF31F8781423028F48150F4
:102570008E3F48F080E008958F3FE1F3642F0E9482
:10258000DA219130B9F781E008958EBD00000DB4D5
:1025900007FEFDCF8EB50895DC01643508F053C009
:1025A000403308F050C090968C919097342F359519
:1025B00035953595E62FFF27E7FDF095242F2770F9
:1025C000823099F4DF01AA54BB4F84E53802A00D94
:1025D000B11D11248C9190E0022E02C09595879533
:1025E0000A94E2F78095817009C0833039F4462758
:1025F0001C968C91482740FF03C014C0811112C063
:1026000084E53802E00DF11D1124EA54FB4F81E00E
:1026100090E0022E01C0880F0A94EAF7809590811D
:10262000982310C084E53802E00DF11D1124EA540E
:10263000FB4F81E090E0022E01C0880F0A94EAF778
:102640009081982B908308951F93CF93DF93EC0193
:10265000162FF89460E08F850E94DB1D888918167C
:102660001CF460E00E94DB1D812F0E94C512888946
:1026700018161CF461E00E94DB1D7894DF91CF9165
:102680001F91089528EF31E0E6EBF4E0DF01A901A6
:102690001D9241505040E1F7DC0119961C921997A8
:1026A0001A961C920895DF92EF92FF920F931F9358
:1026B000CF93DF93EC018C858F5F8C8786EBE82EC0
:1026C00084E0F82ED12C6D2D6064CE010E9424137D
:1026D00060E8CE010E94241361E08F850E94DB1D1B
:1026E000888918161CF460E00E94DB1D00E010E0F1
:1026F000F701E00FF11F80810E94C5120F5F1F4F8D
:1027000004351105A9F7888918161CF461E00E94A8
:10271000DB1DD39484E5E80EF11C86E0D812D3CFFC
:1027200060E4CE01DF91CF911F910F91FF90EF9068
:10273000DF900C942413FC0160A361A30895FC01B5
:1027400060A341A30895CF92DF92FF920F931F934E
:10275000CF93DF931F92CDB7DEB76C01062FF42E17
:1027600010E0121754F4412F4F0D602FC60129833A
:102770000E94CC121F5F2981F4CF0F90DF91CF917F
:102780001F910F91FF90DF90CF900895CF92DF922D
:10279000FF920F931F93CF93DF931F92CDB7DEB7B6
:1027A0006C01062FF42E10E0121754F4612F600F05
:1027B0004F2DC60129830E94CC121F5F2981F4CFBF
:1027C0000F90DF91CF911F910F91FF90DF90CF90ED
:1027D0000895EF92FF920F931F93CF93DF93EC0135
:1027E000F62E142FE22E0E94C6134FEF400F410F1A
:1027F0002E2D6F2DCE010E94C613202F412F6F2D3D
:10280000CE010E94A3136FEF6E0D6F0D202F412F8D
:10281000CE01DF91CF911F910F91FF90EF900C941B
:10282000A313DF92EF92FF920F931F93CF93DF9347
:10283000EC01E62ED22EF42E112707FD1095040F81
:10284000111D47FD1A958F2D992787FD90958017AB
:10285000910744F42D2D4F2D6E2DCE010E94C613ED
:10286000F394F1CFDF91CF911F910F91FF90EF90F3
:10287000DF900895AF92BF92CF92DF92EF92FF92D6
:102880000F931F93CF93DF93EC01162FF42EE22EBC
:10289000A02FBB27A7FDB095A41BB10947FDB39599
:1028A000B7FF03C0B195A195B109EE2DFF27E7FD54
:1028B000F095E11BF10917FDF395F7FF03C0F195C2
:1028C000E195F109BB24B394EA17FB0714F0B12C8E
:1028D00006C08E2DE02E082F812F1F2DF82EE11619
:1028E00034F48F2DF02E082F812F1E2DE82ECE2CA4
:1028F000C11AE02FFF27E7FDF095EF19F109F7FC6A
:10290000F395F7FF03C0F195E195F109AE2EDC2CAC
:10291000C7FE03C0DD24D394DC0CD594F01614F468
:1029200001E00FC00FEF0DC0BB2071F0412F6F2DE4
:10293000CE010E94CC12DA18D7FE02C0F00EDC0CD9
:102940001F5FE1168CF703C04F2D612FF1CFDF9190
:10295000CF911F910F91FF90EF90DF90CF90BF909C
:10296000AF9008958F929F92AF92BF92CF92DF92D5
:10297000EF92FF920F931F93CF93DF93EC01E62E1C
:10298000D42E122FCC24C394C21AB22EB194BB0CF5
:10299000F12C802F8470A82E802F8270982E802F8B
:1029A0008870882E0170F1160CF04DC0C7FC04C071
:1029B0001150B394B394CB0CF3948F2D880F8F5F89
:1029C000C80EAA2071F0412F4D0D6F2D6E0DCE0156
:1029D0000E94CC124F2D4D0D612F6E0DCE010E9425
:1029E000CC12992071F04D2D411B6F2D6E0DCE0133
:1029F0000E94CC124D2D4F19612F6E0DCE010E94F9
:102A0000CC12882071F04F2D4D0D6E2D611BCE0123
:102A10000E94CC12412F4D0D6E2D6F19CE010E94D8
:102A2000CC12002309F4BFCF4D2D4F196E2D611B21
:102A3000CE010E94CC124D2D411B6E2D6F19CE017F
:102A40000E94CC12B0CFDF91CF911F910F91FF90D8
:102A5000EF90DF90CF90BF90AF909F908F900895B0
:102A60008F929F92AF92BF92CF92DF92EF92FF929E
:102A70000F931F93CF93DF93EC01B62EA42E122F4A
:102A8000DD24D394D21AC22EC194CC0CFF24F3942B
:102A9000802F8170882E992493949E0C02708FEF62
:102AA0008F0D8117C4F5D7FC04C01150C394C39493
:102AB000DC0C8F2D880F8F5FD80E882099F0212F86
:102AC000220F290D4A2D411B6F2D6B0DCE010E9447
:102AD000A31323E02E0D4A2D4F19612F6B0DCE014C
:102AE0000E94A313002399F0212F220F290D4A2DB4
:102AF000411B6B2D6F19CE010E94A31323E02E0DF5
:102B00004A2D4F196B2D611BCE010E94A313F39424
:102B1000E394E394C4CFDF91CF911F910F91FF9085
:102B2000EF90DF90CF90BF90AF909F908F900895DF
:102B30009F92AF92BF92CF92DF92EF92FF920F934C
:102B40001F93CF93DF93EC01B62EF42EA22EDE2C32
:102B5000D194DD0C9D2C920E1E2D160F292D612F68
:102B60000E94C613CC24CA94C00ECF0C292D4C2D24
:102B7000612FCE010E94C613D00EFE0C2D2D4F2DBD
:102B80006B2DCE010E94A313BA0C6FEF6B0D2D2D90
:102B90004F2DCE010E94A31301E02E2D4F2D612F4A
:102BA000CE010E94B214DE2CD094DB0C02E02E2D5C
:102BB0004F2D6D2DCE010E94B214CE1804E02E2DA3
:102BC0004C2D6D2DCE010E94B21408E02E2D4C2DFF
:102BD000612FCE010E94B214DF91CF911F910F910E
:102BE000FF90EF90DF90CF90BF90AF909F900895AF
:102BF000AF92BF92CF92DF92EF92FF920F931F930B
:102C0000CF93DF93EC01A62EC42EB22EF02E1E2DF4
:102C1000E194EE0CD12ED60E2E2D2B0D6D2D0E9493
:102C20001114FA94FE0CC10E6FEF6A0D6B0D611B4F
:102C3000EF2C01E0212F4C2DCE010E94301502E037
:102C4000212F4C2D6D2DCE010E943015DF91CF919B
:102C50001F910F91FF90EF90DF90CF90BF90AF90BA
:102C600008956F927F928F929F92AF92BF92CF9270
:102C7000DF92EF92FF920F931F93CF93DF93F901AF
:102C8000A49031965491FC01F0A064350CF00CC175
:102C9000BB24A7FCB094A62FBB27A7FDB095FD01D0
:102CA000EA0DFB1D1E161F060CF0FEC040330CF093
:102CB000FBC0C52E042F112707FD1095E801C50F95
:102CC000D11D57FDDA951C161D060CF0EDC0E9016B
:102CD00022969501295F3F4F37FF02C0295F3F4F82
:102CE00073E0359527957A95E1F747FF0AC0C52E21
:102CF000C40E209FA001219F500D1124C41BD50B91
:102D000040E00C2D112707FD1095040F111D47FD04
:102D10001A95013311051CF070E3C72EC41A67FD24
:102D200060E0E535F10514F0E4E5F0E01E2FFC016C
:102D300074857427862F992787FD9095FC01EA1BDF
:102D4000FB0BDF015F01F7E0AF22BB24E0E8F0E01E
:102D500002C0F595E795AA94E2F70E2FB7FD1796F6
:102D600053E0B595A7955A95E1F7AC0FBD1FE42F39
:102D7000E77051E001C0550FEA95EAF74595459592
:102D80004595E4E54E02800D911D11248A549B4F18
:102D900040E0DD24C7FCD094BB24B3943327E42F58
:102DA000F0E0EC15FD050CF07FC0FD01E490F1E0D2
:102DB000FF1219C0EC01A02EFD01862E881A9C2E50
:102DC000980C911608F067C09E2C9A2019F09880F4
:102DD000952A9882A69429F43196E4906894AA24BE
:102DE000A7F82196ECCFF1101BC0752E7094EC0162
:102DF000A02EFD01862E881A9C2E980C911608F0A4
:102E00004AC09E2C9A2019F0988097209882A69408
:102E100029F43196E4906894AA24A7F82196ECCF7F
:102E2000E3E0FE1631F0EC01A02EFD01862E881A9B
:102E30002EC0752E7094962EEC01A02EFD019116D9
:102E4000B0F48E2C8A2049F08880692C672660FEB9
:102E500002C0852A01C087208882A69429F4319671
:102E6000E4906894AA24A7F893942196E8CF7B2550
:102E700012C09E2C9A2019F0988095269882A694CC
:102E800029F43196E4906894AA24A7F821969C2E00
:102E9000980C911670F3550F19F48C5A9F4F51E00E
:102EA0004F5FA20FB31F7BCFDF91CF911F910F9187
:102EB000FF90EF90DF90CF90BF90AF909F908F905A
:102EC0007F906F900895DC01FB0184918F5F1496D1
:102ED0008C9314973196E491EF5F1596EC931597C8
:102EE0006E5F7F4F5F967C936E935E970895EF922F
:102EF0000F93CF93DF93EC014E876D872F87E98A7D
:102F0000088B81E0888788A319A28F8365E073E02E
:102F1000CE010E9463170E947C0C8CB58F7D8CBD06
:102F20008CB58C7F81608CBD8DB581608DBD8CB57D
:102F30008C608CBD61E08E850E94A21D61E08D8554
:102F40000E94A21D61E08F850E94A21D898918162A
:102F50001CF461E00E94A21D888918161CF461E02F
:102F60000E94A21D898918166CF460E00E94DB1D86
:102F70006AE070E080E090E00E94881C61E089894E
:102F80000E94DB1D8D85992787FD9095FC01E351FB
:102F9000FB4FE491F0E0EE0FFF1FE55FFA4F259144
:102FA00034913D8B2C8BFC01E752FB4F84918B8F2E
:102FB0008E85992787FD9095FC01E351FB4FE491A5
:102FC000F0E0EE0FFF1FE55FFA4F259134913B8B48
:102FD0002A8BFC01E752FB4F84918A8F88899927BD
:102FE00087FD9095FC01E351FB4FE491F0E0EE0F7B
:102FF000FF1FE55FFA4F259134913F8B2E8BFC012B
:10300000E752FB4F84918C8F8F85992787FD909590
:10301000FC01E351FB4FE491F0E0EE0FFF1FE55F91
:10302000FA4F25913491398F288FFC01E752FB4FDD
:1030300084918D8F61E2CE010E94241364E1CE0160
:103040000E9424138B8587FF02C08FE78B876B85D7
:103050006068CE010E94241360E2CE010E94241316
:103060006CE0CE010E942413CE01DF91CF910F912D
:10307000EF900C9453136F927F928F929F92AF9226
:10308000BF92CF92DF92EF92FF920F931F93CF9355
:10309000DF93EC01162FF42EB02EE8A064350CF06F
:1030A00081C08FE284170CF47DC0EC81F0E0319791
:1030B0000E9FC0010F9F900D1124860F911D67FD7B
:1030C0009A95181619060CF06DC08D81809FC0016D
:1030D0001124840F911D47FD9A95181619060CF0BE
:1030E00061C0A62E962EC22ED12C8A2D811B992727
:1030F00087FD90952C8130E0821793070CF051C02A
:10310000215031098217930779F0C29ED001C39EE6
:10311000B00DD29EB00D1124A80FB91FEE8DFF8DFA
:10312000EA0FFB1F749001C0712C8F2C6F2C282D7F
:103130002F19332727FD30958D8190E02817390707
:103140006CF570FE11C081E0B81206C0482D6A2DE2
:10315000CE010E94CC121EC00B2D2B2D462D692DA9
:10316000CE010E94111416C089A198A1891791F06F
:1031700088A381E0B81206C0482D6A2DCE010E94B6
:10318000CC1207C00B2D2B2D462D692DCE010E9490
:103190001114E8A276946B0C8394C9CF9B0CA39472
:1031A000A4CFE8A2DF91CF911F910F91FF90EF90F4
:1031B000DF90CF90BF90AF909F908F907F906F9057
:1031C00008950F93CF93DF93EC01262F6A3039F4E3
:1031D0002D8198858A85299F800D112422C06D300C
:1031E00011F108854A8569850E943B1848855C81F4
:1031F0002985549F200D112429878F81882399F0D8
:10320000332727FD309584E590E0459F801991098B
:103210001124821793073CF49D818A85499F800D74
:1032200011248A87198681E090E0DF91CF910F9178
:103230000895CF93DF9350E0FA01EE0FFF1FE80FE0
:10324000F91F37852089E32FF22FE60FF11DE60FD6
:10325000F11D25913491FA01EE0FFF1FE80FF91FC0
:1032600030A3278FF90165917491FC01D481D69F19
:10327000C02D1124E40FF51FC1A3F901A591B4914C
:103280006B2F70E0EC2FF0E0DC01A40FB51F6E1780
:103290007F0720F4F90125913491C32FCD9FC02DD4
:1032A00011249296CC93DF91CF91089521E0FC01F7
:1032B000248324E020A729EB34E0308B278740E0EB
:1032C00060E00E94191961E070E083E00E941A1D1D
:1032D000E1EBF0E08081887F81608083F894109238
:1032E0008000E1E8F0E010821092850010928400E6
:1032F00088E191E0909389008093880080818860C4
:103300008083808181608083EFE6F0E0808182604D
:103310008083789408950F93FC01862F642F011108
:1033200029C08230D1F048F4882391F0813011F522
:1033300040E0CF010F910C9419198330A9F084302B
:10334000C9F48481489F602D1124658F268F12C097
:103350004B3008F06AE0668B0DC08481489F602D79
:103360001124618F228F06C08481489F602D112413
:10337000638F248F0F910895FC0121110EC0648B7F
:103380008481489F402D1124458B15A214A213A2BD
:1033900081E0878B8093BA06108E08958091BA06DB
:1033A000882319F08091B70601C080E08093B400B3
:1033B0000895FC0161110DC0178A158A14A213A289
:1033C000108E1092B7061092B8061092BA060C949E
:1033D000CE190895CF93DF93EC01611103C00E94D1
:1033E000D9191982DF91CF9108950F931F93CF932D
:1033F000DF93EC018B0141110EC060E00E94EA19DD
:103400001E870D871B8A1A8A81E0898389E08E8B4B
:10341000198E1B8E1D8EDF91CF911F910F910895F4
:10342000CF93DF93EC01611128C08881882329F1B3
:103430008981811122C089852F819885E22FF92FFA
:10344000E80FF11DE80FF11D859194918F3F2FEF4B
:10345000920711F4188211C09C879927880F991F31
:10346000EA85FB85E80FF91F6591749140E0CE0174
:103470000E94F51989858F5F8987DF91CF91089523
:1034800060E00C94101A60E00C94EA190F93CF934B
:10349000DF93EC0161115DC08981882309F459C073
:1034A0008D89811156C02D853E858A899B89880F1B
:1034B000991F820F931FFC01859194910097D1F47D
:1034C0008989882321F01B8A1A8AF90111C019827F
:1034D000888160E0882331F0CE010E94101A8A8929
:1034E0009B8925C0CE01DF91CF910F910C94D91902
:1034F00085919491BC01769567957695679580FF47
:103500001DC0AC01A6E056954795AA95E1F7292F75
:1035100026952695269520514F716F7000E0CE01BB
:103520000E948B198A899B8901969B8B8A8B880FB5
:10353000991FED85FE85E80FF91FDACF492F6F73CC
:1035400020E0CE010E94BC198A899B8901969B8B41
:103550008A8BDF91CF910F91089560E00C94461A09
:10356000CF93DF93EC016111C5C08F89882309F4E3
:10357000C1C08D89811105C0CE01DF91CF910C941E
:10358000D91981508D8B8DA1811138C08BA19CA13F
:1035900001969C01220F331FEF8DF8A1E20FF31F5C
:1035A00025913491422F47704EA3A90163E05695AF
:1035B00047956A95E1F7BA0176956795232F269589
:1035C00026952FA36F732C81629F602D11246DA30C
:1035D00041704093B6069CA38BA329A130E08217CB
:1035E000930760F08AA1882329F0281B31093CA3A6
:1035F0002BA304C060E0CE010E94D9198DA1815097
:103600008DA3288D2F5F288F4C893FA1340F8C8587
:10361000380F3A836B8D662361F070E0822F992713
:1036200087FD90950E94FA218C8D869F300D112484
:103630003A838A8190E0849664E270E00E94FA21E5
:103640008A833E893B83698D662371F0772767FD06
:103650007095822F992787FD90950E94FA218A8D77
:10366000869F300D11243B836D8D662391F0822F50
:10367000992787FD909570E00E94FA21CB0162E0C6
:1036800070E00E94FA212E8D9B81289F900D1124BD
:103690009B838B814F3339F08A300CF089E087FDB2
:1036A00080E08B8301C01B82F894EA81F0E0E95747
:1036B000FB4FE491E093B9062B8138A523039001D9
:1036C00011244EA14203C001439F900D11240D808F
:1036D00002C0880F991F0A94E2F797FF02C0815831
:1036E0009F4F880F892F881F990B8093B80680936E
:1036F000B7067894DF91CF91089560E00C94B01AEA
:103700006091B806662321F18091BB068F5F80939C
:10371000BB069091B9068917D8F08091BA0691E05E
:1037200089278093BA061092BB068091B60688233B
:1037300069F090910A0183E4989F802D1124895BA0
:1037400080930A010E94DA219093B7060C94CE1957
:1037500008951F920F920FB60F9211242F933F934B
:103760004F935F936F937F938F939F93AF93BF9389
:10377000EF93FF930E94801BFF91EF91BF91AF9158
:103780009F918F917F916F915F914F913F912F9179
:103790000F900FBE0F901F901895CF93DF93EC0101
:1037A00060E00E94EA1981EB94E09E878D871B8A76
:1037B0001A8A81E0898389E08E8B198E1B8E1D8E7B
:1037C000DF91CF910895CF93DF93EC0160E00E94E9
:1037D000EA198BEA94E09E878D871B8A1A8A81E01A
:1037E000898389E08E8B198E1B8E1D8EDF91CF9180
:1037F0000895FC01268167FF02C0622F0BC0862F4F
:10380000992787FD9095622F70E06F5F7F4F0E9430
:10381000FA21682F65830895FC01858108951F9220
:103820000F920FB60F9211242F933F938F939F9374
:10383000AF93BF938091BD069091BE06A091BF0645
:10384000B091C0063091BC0623E0230F2D3720F441
:103850000196A11DB11D05C026E8230F0296A11DEA
:10386000B11D2093BC068093BD069093BE06A09325
:10387000BF06B093C0068091C1069091C206A09188
:10388000C306B091C4060196A11DB11D8093C10667
:103890009093C206A093C306B093C406BF91AF91A4
:1038A0009F918F913F912F910F900FBE0F901F907E
:1038B00018952FB7F8946091BD067091BE0680915F
:1038C000BF069091C0062FBF08953FB7F89480912E
:1038D000C1069091C206A091C306B091C40626B558
:1038E000A89B05C02F3F19F00196A11DB11D3FBF38
:1038F0006627782F892F9A2F620F711D811D911DC8
:1039000042E0660F771F881F991F4A95D1F70895E7
:103910008F929F92AF92BF92CF92DF92EF92FF92DF
:103920006B017C010E94651C4B015C01C114D10438
:10393000E104F104F1F00E94AC200E94651C6819BA
:1039400079098A099B09683E73408105910570F3E6
:1039500021E0C21AD108E108F10888EE880E83E060
:10396000981EA11CB11CC114D104E104F10429F773
:10397000DDCFFF90EF90DF90CF90BF90AF909F9002
:103980008F900895789484B5826084BD84B58160F9
:1039900084BD85B5826085BD85B5816085BDEEE657
:1039A000F0E0808181608083E1E8F0E01082808136
:1039B00082608083808181608083E0E8F0E08081A4
:1039C00081608083E1EBF0E0808184608083E0EBC4
:1039D000F0E0808181608083EAE7F0E080818460AC
:1039E0008083808182608083808181608083808108
:1039F000806880831092C10008958E3008F08E5048
:103A0000877020910B0190E4299F90011124822B53
:103A100080937C0080917A00806480937A0080910A
:103A20007A0086FDFCCF809178002091790090E0AB
:103A3000922B08951F93CF93DF93182FEB0161E032
:103A40000E94A21D209711F460E004C0CF3FD10571
:103A500039F461E0812FDF91CF911F910C94DB1D30
:103A6000E12FF0E0EB53FB4FE491E330F9F048F441
:103A7000E130B9F0E230A1F584B5806284BDC8BD03
:103A800034C0E730E9F0E83019F1E43049F58091CD
:103A90008000806280938000D0938B00C0938A0066
:103AA00024C084B5806884BDC7BD1FC080918000DC
:103AB000806880938000D0938900C093880015C0EF
:103AC0008091B00080688093B000C093B3000DC0B7
:103AD0008091B00080628093B000C093B40005C0B4
:103AE000C038D1050CF0B5CFAFCFDF91CF911F918A
:103AF0000895833081F028F4813099F08230A1F06C
:103B000008958730A9F08830B9F08430D1F48091DD
:103B100080008F7D03C0809180008F77809380002C
:103B2000089584B58F7702C084B58F7D84BD0895D4
:103B30008091B0008F7703C08091B0008F7D80931B
:103B4000B0000895CF93DF9390E0FC01E752FB4F64
:103B50002491FC01E351FB4F8491882349F190E0CB
:103B6000880F991FFC01EB5EFA4FA591B491855F18
:103B70009A4FFC01C591D4919FB7611108C0F89488
:103B80008C91209582238C93888182230AC0623095
:103B900051F4F8948C91322F309583238C93888143
:103BA000822B888304C0F8948C91822B8C939FBFC6
:103BB000DF91CF9108950F931F93CF93DF931F92BF
:103BC000CDB7DEB7282F30E0F901EB53FB4F8491DE
:103BD000F901E752FB4F1491F901E351FB4F0491B6
:103BE0000023C9F0882321F069830E94791D69812F
:103BF000E02FF0E0EE0FFF1FE55FFA4FA591B491C3
:103C00009FB7F8948C91611103C01095812301C076
:103C1000812B8C939FBF0F90DF91CF911F910F91BC
:103C20000895CF93DF93282F30E0F901EB53FB4F3A
:103C30008491F901E752FB4FD491F901E351FB4F15
:103C4000C491CC2391F081110E94791DEC2FF0E0FA
:103C5000EE0FFF1FEF5FFA4FA591B4912C912D232A
:103C600081E090E021F480E002C080E090E0DF910C
:103C7000CF910895CF92DF92EF92FF920F931F930F
:103C8000CF93DF937C016A01EB0100E010E00C159B
:103C90001D0571F06991D701ED91FC910190F081C2
:103CA000E02DC7010995892B19F00F5F1F4FEFCF4A
:103CB000C801DF91CF911F910F91FF90EF90DF909E
:103CC000CF9008956115710581F0DB010D90002002
:103CD000E9F7AD0141505109461B570BDC01ED914D
:103CE000FC910280F381E02D099480E090E008953A
:103CF000EF92FF920F931F93CF93DF938C017B0181
:103D0000C0E0D0E0F701EC0FFD1F6491662359F08D
:103D1000F801A081B181ED91FC91C8010995892B31
:103D200011F02196EFCFCE01DF91CF911F910F912E
:103D3000FF90EF9008950C94621EDC01ED91FC91D0
:103D40000190F081E02D09946AE072E00C94621E0B
:103D50000F931F93CF93DF93EC010E94781E8C0189
:103D6000CE010E94A41E800F911FDF91CF911F9161
:103D70000F9108958F929F92AF92BF92DF92EF9230
:103D8000FF920F931F93CF93DF93CDB7DEB7A19729
:103D90000FB6F894DEBF0FBECDBF7C01F42FD52E39
:103DA000CB0119A2223008F42AE08E010F5D1F4FCB
:103DB000822E912CA12CB12C6F2F7D2DA501940169
:103DC0000E940E22F22FD32ECA01015011096A302F
:103DD00014F4E0E301C0E7E3E60FD801EC93232BF2
:103DE000242B252B49F7B801C7010E94621EA1961A
:103DF0000FB6F894DEBF0FBECDBFDF91CF911F91FC
:103E00000F91FF90EF90DF90BF90AF909F908F90B9
:103E10000895CF92DF92EF92FF920F931F93CF936B
:103E2000DF93EC016A017B012115310579F4E8810A
:103E3000F9810190F081E02D642FDF91CF911F91E6
:103E40000F91FF90EF90DF90CF9009942A303105C9
:103E5000E9F477FF1AC06DE20E949D1E8C01442791
:103E60005527BA014C195D096E097F092AE0CE0178
:103E70000E94BA1E800F911FDF91CF911F910F9169
:103E8000FF90EF90DF90CF9008952AE0B701A60150
:103E9000CE01DF91CF911F910F91FF90EF90DF90B6
:103EA000CF900C94BA1E9A01AB01662757FD60951E
:103EB000762F0C94091F2115310541F4DC01ED9199
:103EC000FC910190F081E02D642F09940C94BA1EAE
:103ED0009A01AB0160E070E00C945B1F6115710505
:103EE0008105910511F00C94EA230895CF93DF9397
:103EF00000D000D0CDB7DEB79B01AC0161157105D4
:103F00008105910569F069833A834B835C830E9444
:103F1000E52329813A814B815C810E94302203C0D4
:103F200060E070E0CB010F900F900F900F90DF9149
:103F3000CF9108954F925F926F927F92AF92BF920E
:103F4000CF92DF92EF92FF920F931F93CF93DF9365
:103F5000CDB7DEB729013A01621B730B840B950BB9
:103F600029893A894B895C892A193B094C095D09E1
:103F7000298B3A8B4B8B5C8B9B01AC0169897A89CD
:103F80008B899C890E94CA21E418F5080609170943
:103F9000A80197010E9430222A0D3B1D4C1D5D1D7A
:103FA000CA01B901DF91CF911F910F91FF90EF905E
:103FB000DF90CF90BF90AF907F906F905F904F90C9
:103FC0000895FC01808191810C940723CF93DF93A6
:103FD000EC0188819981009711F00E9407231982D2
:103FE00018821D821C821B821A82DF91CF91089554
:103FF0000F931F93CF93DF93EC018B016F5F7F4F84
:10400000888199810E94F323009731F099838883F6
:104010001B830A8381E001C080E0DF91CF911F9173
:104020000F910895CF93DF93EC0188819981892BBB
:1040300029F08A819B818617970760F4CE010E9440
:10404000F81F882341F08C819D81892B19F4E88128
:10405000F981108281E0DF91CF910895EF92FF9274
:104060000F931F93CF93DF93EC017B018A01BA0179
:104070000E941220811104C0CE010E94E61F07C0D9
:104080001D830C83B701888199810E94CF24CE01C2
:10409000DF91CF911F910F91FF90EF900895FC0158
:1040A00011821082138212821582148261157105A9
:1040B00059F0FB0101900020E9F7AF01415051098F
:1040C000461B570B0C942E200895CF93DF93EC01E1
:1040D0006115710561F0FB0101900020E9F7AF0166
:1040E00041505109461B570B0E942E2002C00E94CE
:1040F000E61FCE01DF91CF910895FC012481358127
:10410000232B31F421E061157105A1F0FB0108C0FA
:10411000FC01808191816115710531F421E0FC0180
:104120008081882339F005C00E94C62421E0892BB4
:1041300009F020E0822F089508950E94C21C0E9479
:104140009C200E94BC02C0E0D0E00E94E00B2097BF
:10415000E1F30E940000F9CF089598D088F09F57AE
:1041600090F0B92F9927B751A0F0D1F0660F771FC3
:10417000881F991F1AF0BA95C9F712C0B13081F0A3
:104180009FD0B1E008959CC0672F782F8827B85F33
:1041900039F0B93FCCF3869577956795B395D9F704
:1041A0003EF490958095709561957F4F8F4F9F4F0E
:1041B0000895E89409C097FB3EF49095809570951A
:1041C00061957F4F8F4F9F4F9923A9F0F92F96E963
:1041D000BB279395F695879577956795B795F111D8
:1041E000F8CFFAF4BB0F11F460FF1BC06F5F7F4F75
:1041F0008F4F9F4F16C0882311F096E911C0772387
:1042000021F09EE8872F762F05C0662371F096E88F
:10421000862F70E060E02AF09A95660F771F881F5E
:10422000DAF7880F9695879597F9089597F99F671C
:1042300080E870E060E008959FEF80EC089500242E
:104240000A941616170618060906089500240A94FB
:1042500012161306140605060895092E0394000C81
:1042600011F4882352F0BB0F40F4BF2B11F460FF10
:1042700004C06F5F7F4F8F4F9F4F089557FD905839
:10428000440F551F59F05F3F71F04795880F97FB1A
:10429000991F61F09F3F79F08795089512161306D4
:1042A0001406551FF2CF4695F1DF08C01616170603
:1042B0001806991FF1CF8695710561050894089538
:1042C000E894BB2766277727CB0197F908950BD091
:1042D000C4CFB5DF28F0BADF18F0952309F0A6CFD8
:1042E000ABCF1124EECFCADFA0F3959FD1F3950F8A
:1042F00050E0551F629FF001729FBB27F00DB11D6A
:10430000639FAA27F00DB11DAA1F649F6627B00DF9
:10431000A11D661F829F2227B00DA11D621F739FE2
:10432000B00DA11D621F839FA00D611D221F749FF0
:104330003327A00D611D231F849F600D211D822F37
:10434000762F6A2F11249F5750408AF0E1F088237E
:104350004AF0EE0FFF1FBB1F661F771F881F91508B
:104360005040A9F79E3F510570F060CFAACF5F3F44
:10437000ECF3983EDCF3869577956795B795F795BE
:10438000E7959F5FC1F7FE2B880F911D9695879546
:1043900097F90895DB018F939F930E944F22BF915D
:1043A000AF91A29F800D911DA39F900DB29F900D84
:1043B00011240895991B79E004C0991F961708F0FD
:1043C000961B881F7A95C9F780950895AA1BBB1B79
:1043D00051E107C0AA1FBB1FA617B70710F0A61B05
:1043E000B70B881F991F5A95A9F780959095BC0126
:1043F000CD01089597FB072E16F4009407D077FDA2
:1044000009D00E94E62107FC05D03EF490958195E5
:104410009F4F0895709561957F4F0895A1E21A2EE0
:10442000AA1BBB1BFD010DC0AA1FBB1FEE1FFF1F58
:10443000A217B307E407F50720F0A21BB30BE40BA8
:10444000F50B661F771F881F991F1A9469F76095EF
:104450007095809590959B01AC01BD01CF010895A9
:10446000052E97FB1EF400940E94472257FD07D0AB
:104470000E940E2207FC03D04EF40C944722509564
:104480004095309521953F4F4F4F5F4F0895909540
:104490008095709561957F4F8F4F9F4F08950E9433
:1044A0006022A59F900DB49F900DA49F800D911D3B
:1044B00011240895EE0FFF1F0590F491E02D09944B
:1044C000A29FB001B39FC001A39F700D811D112455
:1044D000911DB29F700D811D1124911D0895CF93E0
:1044E000DF938230910510F482E090E0E091C706FE
:1044F000F091C80620E030E0A0E0B0E0309739F15C
:104500004081518148175907B8F04817590771F48D
:1045100082819381109729F013969C938E93129722
:104520002CC09093C8068093C70627C0211531057B
:1045300031F04217530718F0A901DB0101C0EF0168
:104540009A01BD01DF010280F381E02DD7CF211553
:104550003105F9F0281B390B2430310580F48A81AC
:104560009B816115710521F0FB019383828304C057
:104570009093C8068093C706FE01329644C0FE01A0
:10458000E20FF31F819391932250310939832883DD
:104590003AC02091C5063091C606232B41F42091E4
:1045A0000201309103013093C6062093C506209185
:1045B0000001309101012115310541F42DB73EB7BD
:1045C0004091040150910501241B350BE091C50673
:1045D000F091C606E217F307A0F42E1B3F0B281735
:1045E000390778F0AC014E5F5F4F2417350748F06C
:1045F0004E0F5F1F5093C6064093C506819391935B
:1046000002C0E0E0F0E0CF01DF91CF910895CF93B9
:10461000DF93009709F487C0FC013297138212825E
:10462000C091C706D091C806209781F420813181BE
:10463000280F391F8091C5069091C60682179307EF
:1046400079F5F093C606E093C5066DC0DE0120E063
:1046500030E0AE17BF0750F412964D915C9113975E
:104660009D014115510509F1DA01F3CFB383A2830E
:1046700040815181840F951F8A179B0771F48D919A
:104680009C911197840F951F0296918380831296B7
:104690008D919C911397938382832115310529F481
:1046A000F093C806E093C7063EC0D9011396FC9369
:1046B000EE9312974D915D91A40FB51FEA17FB077A
:1046C00079F480819181840F951F0296D90111960A
:1046D0009C938E938281938113969C938E931297D1
:1046E000E0E0F0E08A819B81009719F0FE01EC0187
:1046F000F9CFCE01029628813981820F931F209134
:10470000C5063091C6062817390769F4309729F491
:104710001092C8061092C70602C013821282D0936C
:10472000C606C093C506DF91CF9108958F929F92E0
:10473000AF92BF92CF92DF92EF92FF92CF93DF932F
:10474000EC01688179818A819B8161157105810500
:10475000910521F464E279ED8BE597E02DE133EFEB
:1047600041E050E00E94302249015A019B01AC0116
:10477000A7EAB1E40E944F226B017C01ACEEB4EFDA
:10478000A50194010E94D924C60ED71EE81EF91E69
:10479000F7FE06C081E0C81AD108E10880E8F80AEF
:1047A000C882D982EA82FB82C701B6019F77DF9176
:1047B000CF91FF90EF90DF90CF90BF90AF909F9000
:1047C0008F9008950E949623089586E091E00E94BC
:1047D0009623089560930601709307018093080162
:1047E000909309010895A0E0B0E0E9EFF3E20C94A2
:1047F000E224EC01CB01209719F40E946F22B8C08B
:10480000FE01E60FF71F9E0122503109E217F30760
:1048100008F4ACC0D9010D911C9111970617170728
:10482000B8F00530110508F49FC0A80144505109A3
:104830004617570708F498C002501109061B170BBA
:10484000019311936D937C93CF010E9407238CC039
:104850005B01A01AB10A4E01800E911EA091C706FD
:10486000B091C806612C712C60E070E0109709F4DB
:1048700049C0A815B905C9F5ED90FC9011976701DD
:1048800042E0C40ED11CCA14DB0478F147018A1837
:104890009B08640142E0C40ED11C1296BC90129792
:1048A0001396AC91B5E0CB16D10440F0B282A3834D
:1048B00091828082D9018D939C9309C00E5F1F4F16
:1048C0000E0D1F1DF90111830083EB2DFA2F6115C9
:1048D000710531F0DB011396FC93EE93129744C0FF
:1048E000F093C806E093C7063FC06D917C91119785
:1048F0006616770608F43B01BD0112960D90BC9137
:10490000A02DB4CF6091C5067091C60668157905D3
:10491000E9F468167906D0F4409100015091010144
:104920004115510541F44DB75EB760910401709196
:104930000501461B570BE417F507C0F4F093C606B4
:10494000E093C506F901918380830EC00E946F2217
:104950007C01009759F0A801BE010E94BD24CE0140
:104960000E940723C70104C0CE0102C080E090E08E
:10497000CDB7DEB7EEE00C94FE24FB01DC0102C0F3
:1049800001900D9241505040D8F70895FB01DC0191
:104990008D91019080190110D9F3990B0895FB01B5
:1049A000DC0101900D920020E1F70895B7FF0C940F
:1049B0004F220E944F22821B930B08952F923F9209
:1049C0004F925F926F927F928F929F92AF92BF921F
:1049D000CF92DF92EF92FF920F931F93CF93DF93CB
:1049E000CDB7DEB7CA1BDB0B0FB6F894DEBF0FBE28
:1049F000CDBF09942A88398848885F846E847D8475
:104A00008C849B84AA84B984C884DF80EE80FD8076
:104A10000C811B81AA81B981CE0FD11D0FB6F894EC
:104A2000DEBF0FBECDBFED01089515E0C2E2D5E0B7
:104A300004C0FE010E945C222296C432D107C9F74D
:044A4000F894FFCF18
:104A44000000C90680000100000001017469746C53
:104A540065006E65776C6576656C0072756E6E695F
:104A64006E670067616D656F7665720047414D45FD
:104A7400204F564552005052455353204220544F24
:104A840020434F4E54494E55450020204C41535429
:104A94002020202020202020204849474800204171
:104AA4003A20504C41592020202020433A2051558F
:104AB4004954006E657767616D65000100390039FE
:104AC4000001000100010005000600000000004490
:104AD400000100000000000700040001000F00397D
:104AE4000001000100020007000F0000000A003C62
:104AF4000001000000000007000600000005003A65
:104B04000000000100050005000200000004003A56
:104B14000000000100050005000200000002003A48
:104B24000000000100050005000200000001003A39
:104B340000000001000500050002004C4F414445FF
:104B4400520000000000E1183A1E0D0A006E616E6A
:0C4B540000696E66006F7666002E00009F
:00000001FF
