:100000000C9444020C946C020C946C020C946C02E0
:100010000C946C020C946C020C946C020C946C02A8
:100020000C946C020C946C020C946C020C943118BD
:100030000C946C020C946C020C946C020C946C0288
:100040000C94AD180C946C020C946C020C946C0221
:100050000C946C020C946C020C946C020C946C0268
:100060000C946C020C946C024C6967687473204F9A
:10007000757420414420627900381A0000000000A5
:100080000000000000000000000000000000000070
:100090000000000000000000000000000000000060
:1000A000000000000000000000000000006600608A
:1000B00000600600660060006006000000000000AE
:1000C0000000000000000000060060606060600644
:1000D0000060606060600000000000000000000040
:1000E0000000000000666066606600006660666092
:1000F000660000000000000000000000000000009A
:1001000000006000606060000060006060600000EF
:100110000000000000000000000000000066000079
:1001200060600600660000606006000000000000DD
:100130000004040060600004040000000004046087
:100140009090600A4E6F2053442063617264206F68
:10015000720A6E6F204C4F414445522E4845580A52
:100160000A153A45786974001D20466C6173686908
:100170006E670A20206C6F616465722E2E2E0A0A4B
:10018000444F4E2754205455524E204F464621008E
:100190000A0A153A49676E6F7265006D560A0A5071
:1001A0004C45415345205455524E204F4646200061
:1001B0004C4F572042415454455259212000172B8F
:1001C000152010204C4F4144455200172B16201388
:1001D000140017534400161378001613140015105A
:1001E000200015201000540A03E181867F3E186D1F
:1001F000830F0F0E0183866033186DC3198F1803A8
:10020000C38E6033186DE330CF1803C39E60363061
:10021000CDE360CF3006C79E7E3E30CDB360CF3099
:100220000CC6F6603330D9B660CF33CFCCF6606100
:10023000B0DB1E60CF30D86CE6C061B0DB1E618FD2
:1002400019986CC6C063B19B0E330F0FB078C6FF10
:100250007E1F1B061E0F05008930080238024978F0
:100260006814000003053F213F1208120A100A0E0D
:100270001C0E0C1E0C141A14161F161E131E1E1B09
:100280001E1E1F1E3F213F3A2F3A173D173F213FA9
:10029000181F02040A041F0E04040E1F0A1F0A0E70
:1002A0000E1F04110E2E252E2F2A2E262929021F5D
:1002B00002081F08150E04040E150E15151B151B3C
:1002C000040604040C040000000017000300031FD0
:1002D0000A1F16371A1904130A153A000300000EF4
:1002E00011110E000A040A040E0400300004040474
:1002F0000010001804031F111F121F101D151711E5
:10030000151F07041F17151D1F151D01011F1F15A0
:100310001F17151F000A00003200040A110A0A0AFA
:10032000110A040115020E11171E051E1F150A0ED3
:10033000110A1F110E1F15111F05010E111D1F049B
:100340001F111F1108100F1F041B1F10101F061F65
:100350001E040F0E110E1F09060E112E1F051A1274
:100360001509011F011F101F0F180F1F0C1F1B0461
:100370001B031C03191513001F11030418111F0080
:100380000201022020200001020C121E1F120C0C80
:1003900012120C121F0C1A14041E05242A1E1F020E
:1003A0001C141D1020201D1F0814111F101E041ED8
:1003B0001E021C0C120C3E0A040C123E1E040214F7
:1003C000160A020F120E101E0E100E1E081E120C20
:1003D0001226281E322A26041E21001F00211E0478
:1003E0000102013F213FF6E8DBCFC3B8AEA49B92E8
:1003F0008A827B746E68625C57524E4945413E3A30
:100400003734312E2C29272523214500680100008F
:10041000050068013801000005003801680100008E
:10042000280424040101FF030101F7030000000870
:1004300000020100000304070000000000000000AB
:10044000010204081020408001020408102001026B
:100450000408102004040404040404040202020238
:10046000020203030303030300000000230026002D
:10047000290000000000250028002B0000000000DB
:10048000240027002A00870911241FBECFEFD8E0DF
:10049000DEBFCDBF11E0A0E0B1E0E8EFFFE302C0B6
:1004A00005900D92AC3FB107D9F724E0ACEFB1E075
:1004B00001C01D92A739B207E1F714E0C8E8D4E003
:1004C00004C02297FE010E945B1EC638D107C9F7FF
:1004D0000E949C1C0C94FA1F0C940000DC016435F3
:1004E00008F053C0403308F050C090968C9190971C
:1004F000342F359535953595E62FFF27E7FDF09597
:10050000242F2770823099F4DF01AC57BD4F84E56A
:100510003802A00DB11D11248C9190E0022E02C072
:10052000959587950A94E2F78095817009C083308C
:1005300039F446271C968C91482740FF03C014C00D
:10054000811112C084E53802E00DF11D1124EC5731
:10055000FD4F81E090E0022E01C0880F0A94EAF777
:1005600080959081982310C084E53802E00DF11D3C
:100570001124EC57FD4F81E090E0022E01C0880F5E
:100580000A94EAF79081982B908308958F929F9216
:10059000AF92BF92CF92DF92EF92FF920F931F9391
:1005A000CF93DF93FC01EB01CB0101974C01DA0102
:1005B00011976D01B2E0EB16F1040CF061C0121658
:1005C000130684F4069FD001079FB00D169FB00D4F
:1005D0001124A20FB31F1197AE0FBF1F8C9191E092
:1005E00089278C932815390584F40C9FD0010D9F21
:1005F000B00D1C9FB00D1124A20FB31F1196AE0FAA
:10060000BF1F8C9191E089278C93101611068CF4F2
:10061000C80101978C9FD0018D9FB00D9C9FB00D9C
:100620001124A20FB31FAE0FBF1F8C9191E0892739
:100630008C930C151D058CF4C80101968C9FD0017C
:100640008D9FB00D9C9FB00D1124A20FB31FAE0F54
:10065000BF1F8C9191E089278C93EF2809F08CC003
:100660000C9FD0010D9FB00D1C9FB00D1124A20F47
:10067000B31FAE0FBF1F8C9191E089278C937CC074
:10068000069F5001079FB00C169FB00C1124121644
:100690001306A4F47501E20EF31E81E0E81AF108D6
:1006A000EE0EFF1ED7018C91992787FD909501963C
:1006B00063E070E00E94F91DD7018C93281539057D
:1006C000A4F47501E20EF31EBFEFEB1AFB0AEE0E67
:1006D000FF1ED7018C91992787FD9095019663E0C5
:1006E00070E00E94F91DD7018C9310161106CCF40E
:1006F000C80101978C9F70018D9FF00C9C9FF00C9E
:100700001124E20EF31EEE0EFF1ED7018C919927E5
:1007100087FD9095019663E070E00E94F91DD70176
:100720008C930C151D05CCF40F5F1F4F0C9F6001BF
:100730000D9FD00C1C9FD00C1124C20ED31ECE0EC8
:10074000DF1ED6018C91992787FD9095019663E075
:1007500070E00E94F91DD6018C93E501C20FD31FF2
:10076000CE0FDF1F8881992787FD9095019663E062
:1007700070E00E94F91D8883DF91CF911F910F9146
:10078000FF90EF90DF90CF90BF90AF909F908F90B1
:1007900008954F925F926F927F928F929F92AF9245
:1007A000BF92CF92DF92EF92FF920F931F93CF935E
:1007B000DF933C014B012A01869F5001879FB00CBB
:1007C000969FB00C1124C5010E946E1EEC01FC0125
:1007D000CF018C1B9D0B8A159B0514F41192F8CF49
:1007E00083E048165104E1F4C12CD12C12E015C06D
:1007F00023E030E040E050E060E070E0CB010E9498
:10080000381C613071058105910521F4FE01EC0D64
:10081000FD1D10838FEFC81AD80ACA14DB0444F3F5
:10082000A12CB12C1FC023E030E040E050E060E09C
:1008300070E0CB010E94381C613071058105910583
:1008400041F4720185019601A401B301CE010E9419
:10085000C6028FEFC81AD80AC614D70424F38FEF44
:10086000A81AB80AA814B9041CF4C12CD12CF4CFCE
:10087000CE01DF91CF911F910F91FF90EF90DF900C
:10088000CF90BF90AF909F908F907F906F905F9030
:100890004F9008954F925F926F927F92AF92BF9266
:1008A000CF92DF92EF92FF920F931F93CF93DF933C
:1008B0006B01EA01590140906D0250906E02609008
:1008C0006F0270907002469F9001479F300D569FB7
:1008D000300D1124FC01AF01481B590B421753077F
:1008E00074F443E0A416B10424F44081442329F0B5
:1008F000B0C04081413009F4ACC03196ECCF401A11
:10090000510A81E292E00E945518C20164E170E050
:100910000E94F91D3B0125E0289F8001299F100DB1
:10092000112486E0582E95E0492EAA0CBB1CC50167
:10093000825F9E4F5C018CEF91E00E94C10A882388
:10094000D1F350925302409254026EE571E08AE472
:1009500092E00E94391B5092530280915402885FAA
:10096000809354024AE050E0B6018AE492E00E948B
:10097000F11B67E671E08AE492E00E94391B4AE0CD
:1009800050E0BE018AE492E00E94F11B65EB71E049
:100990008AE492E00E94391BF501608171818AE44A
:1009A00092E00E94391B5092530280915402885F5A
:1009B0008093540269E671E08AE492E00E94391B58
:1009C0004AE050E0B3018AE492E00E94F11B6CE837
:1009D00071E08AE492E00E94391B4AE050E0B801DD
:1009E0008AE492E00E94F11B60E771E08AE492E001
:1009F0000E94391B5092530280915402885F809369
:100A0000540263E771E08AE492E00E94391B4AE0F5
:100A100050E0B7018AE492E00E94F11B5092530229
:100A200080915402885F809354026DE771E08AE4FC
:100A300092E00E94391B64E086E092E00E94990FE8
:100A4000882309F478CF81E292E00E94551881E072
:100A500001C080E0DF91CF911F910F91FF90EF9047
:100A6000DF90CF90BF90AF907F906F905F904F904E
:100A700008952F923F925F926F927F928F929F92F2
:100A8000AF92BF92CF92DF92EF92FF920F931F939C
:100A9000CF93DF931F92CDB7DEB76C015B014A01A4
:100AA000122F642E660C660CEE24EA94E00EFF24EE
:100AB000FA94F20E22E0260D4E2D6F2D8AE492E07C
:100AC0000E944C107A2C770C770C22E0270D4E2DCB
:100AD0006F2D8AE492E00E946F1021E0260D612FB5
:100AE000670D402F8AE492E00E944C10462D400F83
:100AF000272D612F8AE492E00E946F101601C12C0D
:100B0000D12C56E0C814D9043CF55C2C550C550C7E
:100B1000500E3101E12CF12CEA14FB04BCF4F3017A
:100B200021913F012503900111242F5C3E4F6E2D32
:100B3000660F660F610F452D8AE492E059830E948B
:100B4000B912FFEFEF1AFF0A5981E6CF8FEFC81AEB
:100B5000D80A2A0C3B1CD6CF0F90DF91CF911F9162
:100B60000F91FF90EF90DF90CF90BF90AF909F904C
:100B70008F907F906F905F903F902F9008952F926D
:100B80003F924F925F926F927F928F929F92AF921D
:100B9000BF92CF92DF92EF92FF920F931F93CF936A
:100BA000DF93CDB7DEB7AC970FB6F894DEBF0FBEBC
:100BB000CDBF8CEF90E00E946E1E1C01FC0180E016
:100BC00090E021E0219301968E379105D9F7A1019C
:100BD00042585F4F26E131E061E080E090E0FA01A9
:100BE000E80FF91FD901A80FB91F7C9170830196F6
:100BF0008E309105A1F780E090E0FA01E80FF91F2F
:100C00006687019687309105C1F74B5E5F4F225F83
:100C10003F4F81E02C35380701F787EE90E021E067
:100C2000F101E80FF91F208301968C3F9105C1F770
:100C3000FE0131966F015E01F5E1AF0EB11C450179
:100C40002EE030E040E050E060E070E0CB010E9438
:100C5000381C2B013C012CE030E040E050E065E026
:100C600070E080E090E00E94381C69A77AA78BA70B
:100C70009CA7E12CF12C09A51AA592014CE050E0AB
:100C800065E170E0C1010E94C602F60141925192F5
:100C90006F01F50189A59AA5819391935F01C8140D
:100CA000D90471F6C12CD12CA12CB12C8CEF91E080
:100CB0000E94C10A8823D1F300E010E020E030E078
:100CC0004CE050E065E170E0C1010E94390593E01D
:100CD000A916B10424F4EFEFAE1ABE0A1FC0F60144
:100CE000EE0FFF1F81E090E08C0F9D1FE80FF91FB2
:100CF0000489158920813181E12CF12C4CE050E0F0
:100D000065E170E0C1010E94C60281E292E00E94AA
:100D100081189FEFC91AD90AA12CB12C64E086E092
:100D200092E00E94990F882321F034E0C32ED12C49
:100D300016C0EAE0CE16D104C4F7B8CF8CEF91E02C
:100D40000E94C10A8823D1F300E010E020E030E0E7
:100D50004CE050E065E170E0C1010E943905F1E02E
:100D6000CF1AD10859F7C1010E94061FAC960FB6E1
:100D7000F894DEBF0FBECDBFDF91CF911F910F91D1
:100D8000FF90EF90DF90CF90BF90AF909F908F90AB
:100D90007F906F905F904F903F902F9008952F928B
:100DA0003F924F925F926F927F928F929F92AF92FB
:100DB000BF92CF92DF92EF92FF920F931F93CF9348
:100DC000DF93CDB7DEB72C970FB6F894DEBF0FBE1A
:100DD000CDBF6C015B015A83498365E1462E512CDE
:100DE000481A590A440C551CECE02E2E312C2A18B6
:100DF0003B08220C331CB5010E94C9034C01209111
:100E00006D0230916E023E832D83E12CF12C89011D
:100E100029813A81A501B6010E944A048823D9F0AC
:100E2000C4012C960FB6F894DEBF0FBECDBFDF9184
:100E3000CF911F910F91FF90EF90DF90CF90BF90D7
:100E4000AF909F908F907F906F905F904F903F906A
:100E50002F900C94061F34E1C316D10434F08BE0BC
:100E6000A816B10414F0109214021C821B821C8676
:100E70001B86612C712CF6013197F887EF83950161
:100E8000215031093A8729878CEF91E00E94C10AED
:100E90008823D1F381019201A501B601C4010E940A
:100EA00039050B85000F000F020D162D110F110FC4
:100EB000140D402F612F8AE492E00E946E0253E0ED
:100EC000F52EF10E402F6F2D8AE492E00E946E0203
:100ED0000D5F402F612F8AE492E00E946E02402F46
:100EE0006F2D8AE492E00E946E0265E086E092E057
:100EF0000E94990F882319F01C861B86C5CF64E0D9
:100F000086E092E00E94990F882311F1E980FA802F
:100F10000B851C859301A501B601C4010E94C60280
:100F20008B819C8101969C838B8381E292E00E945D
:100F30008118EB80FC800D811E8129813A81A501F9
:100F4000B601C4010E944A04882309F49DCF5AC007
:100F500061E086E092E00E94990F882381F0EB85A2
:100F6000FC851E161F062CF029853A853C872B87A9
:100F70008BCF8B859C8501979C878B8785CF63E082
:100F800086E092E00E94990F882361F0EB85FC8552
:100F900029853A85E217F3070CF0AECF3196FC872E
:100FA000EB8772CF60E086E092E00E94990F882381
:100FB00051F0161417041CF06F80788465CF31E06F
:100FC000631A710861CF62E086E092E00E94990F97
:100FD000882361F08F819885681679061CF0612C52
:100FE000712C52CF9FEF691A790A4ECF66E086E0E6
:100FF00092E00E94990F882309F446CF81E292E0A3
:101000000E946B18C4010E94061F81E080931402A5
:101010002C960FB6F894DEBF0FBECDBFDF91CF91F7
:101020001F910F91FF90EF90DF90CF90BF90AF9006
:101030009F908F907F906F905F904F903F902F90F8
:1010400008958CEF91E00E94380E8CEF91E00E94A1
:10105000CB090E94BF0549E750E068E670E08CEFDD
:1010600091E00C947F0C81E292E00E94AA18552432
:101070005394811101C0512CC12CD12CC0E0D0E07F
:1010800005E010E035E0E32EF12C4CE0442E55E075
:10109000352E65E0662E712C7DE0A72EB12CE6E1A1
:1010A0008E2E912C8CEF91E00E94C10A8823D1F3FF
:1010B0004C2F440F440F440F495F22E066E08AE45E
:1010C00092E00E94BB1040925302309254026EE8AC
:1010D00071E08AE492E00E94391B409253028091B1
:1010E0005402885F8093540263E971E08AE492E0DD
:1010F0000E94391B4AE050E0B7018AE492E00E9466
:10110000F11B4092530280915402885F80935402F5
:101110006CE971E08AE492E00E94391B4AE050E0F9
:10112000B8018AE492E00E94F11B40925302809140
:101130005402885F8093540265EA71E08AE492E089
:101140000E94391BF601EE0FFF1FE25FFE4F608128
:1011500071818AE492E00E94391B4092530280918F
:101160005402885F809354026EEA71E08AE492E050
:101170000E94391BE52DF0E0EE0FFF1FE65FFE4FEA
:10118000608171818AE492E00E94391B64E086E00C
:1011900092E00E94990F882309F181E292E00E9477
:1011A0008118209721F0C430D10539F07BCFA601FA
:1011B000B801C7010E94CF0675CF511008C067E083
:1011C00081E292E00E949718552453946BCF60E01F
:1011D00081E292E00E949718512C64CF44E060E0D5
:1011E00086E092E00E94B00F882351F1C230D10511
:1011F00099F0C330D105C9F0C130D10509F052CF03
:1012000081E0E816F10421F081E0E81AF10849C014
:1012100085E1E82EF12C45C00130110519F001508F
:1012200011093FC00CE010E03CC0C114D10421F012
:1012300081E0C81AD10835C0B3E0CB2ED12C31C023
:1012400044E062E086E092E00E94B00F882371F1F2
:10125000C230D105A1F0C330D105E9F0C130D105CC
:1012600009F020CFC7010196B4010E94F91D7C014D
:1012700018161906B4F0EE24E394F12C12C0C8013C
:101280000196B5010E94F91D8C01181619064CF043
:1012900001E010E006C08FEFC81AD80A83E0C82228
:1012A000DD2481E292E00E948118FCCE61E086E0BC
:1012B00092E00E94990F882359F081E292E00E9407
:1012C0008118209719F4C4E0D0E0ECCE2197EACE43
:1012D00063E086E092E00E94990F882359F081E252
:1012E00092E00E948118CE010196B3010E94F91D7F
:1012F000EC01D8CE66E086E092E00E94990F882348
:1013000009F4D0CE8CEF91E00E94800ACBCEECEFB6
:10131000F1E087E8DF011D928A95E9F788EE91E018
:1013200090934B0280934A020895CF93CFB7F894DD
:1013300080918302811127C0EEE5F4E08491EAE414
:10134000F4E09491E82FF0E0EE0FFF1FE458FB4F1C
:10135000A591B4918C91892321F461E08AE00E94E7
:10136000791A61E08AE00E94401A8CB580618CBDD8
:101370008CB580648CBD61E08DE00E94401A61E014
:101380008BE00E94401A809183028F5F80938302DA
:10139000CFBFCF9108958F929F92AF92BF92CF927D
:1013A000DF92EF92FF92CF93DF93EC01CA8CDB8C3C
:1013B000C094D094E12CF12C0E9403194B015C01E4
:1013C0000E940319A50194012095309540955095F0
:1013D00060957095809590950E94C91D9B01AC0108
:1013E000C701B6010E94C91D6B017C0189809A80EA
:1013F000A12CB12C0E940319680D791D8A1D9B1D1B
:101400006C0D7D1D8E1D9F1DDF91CF91FF90EF9084
:10141000DF90CF90BF90AF909F908F900C940C1C5A
:101420008F929F92AF92BF92CF92DF92EF92FF92F4
:101430000F931F93CF93DF93EC015C0186E8A80E16
:10144000B11CD5018C91882309F44DC08C3018F45F
:101450001CE0181B01C010E0FE01EA5AFF4F81E0BA
:1014600080836E01BEE4CB0ED11C60E0C6010E94F9
:1014700044104E01E3E58E0E911CD4018C9103E0E3
:10148000080F9DE2F92E4F2D481B410F23E0E22E5D
:1014900024E560E0C6010E94801261E0C6010E945E
:1014A0004410F401808103E0080F4F2D481B410FC9
:1014B00024E560E0C6010E942012FE01E95AFF4FB8
:1014C00084E080833196D4018C91181B115D1083C8
:1014D000CC57DF4F68817981C6010E94161BF50148
:1014E000808181508083DF91CF911F910F91FF9078
:1014F000EF90DF90CF90BF90AF909F908F90089526
:101500000F931F93CF93DF938C01EC01C25BDF4FEE
:10151000CE010E94EB0F68E671E0CE010E94161B1F
:10152000CE010E94FC0F8CB583608CBD8DB58E7F83
:101530008DBD8DED91E0EEEFFFE30995F801EC5ADA
:10154000FF4F108263E471E0CE010E94461BCE0182
:101550000E94FC0F065F1F4FC8010E94620F64E0EB
:10156000C8010E94990F811107C062E370E080E01A
:1015700090E00E942619F0CFDF91CF911F910F913B
:1015800008958F929F92AF92BF92EF92FF920F9326
:101590001F93CF93DF93EC017C0100E8E00EF11C78
:1015A000F70180809180A280B3800E94F718950196
:1015B0008401061B170B280B390BB901A8015E012A
:1015C0001FE7A10EB11CF501808190E0A0E0B0E022
:1015D0008E0105581F4F84179507A607B70750F4CB
:1015E000F80180819181A281B381892B8A2B8B2B79
:1015F00009F06DC0F80180819181A281B381892BAE
:101600008A2B8B2B09F061C05E01FAE0AF0EB11C92
:1016100041E066E0C5010E94B00F9E012B5D3F4F87
:101620007901882331F065E0C5010E94990F81118D
:1016300085C041E066E0C5010E94B00F882331F00B
:1016400064E0C5010E94990F81118EC041E066E0FF
:10165000C5010E94B00F882339F048E264E0C5015B
:101660000E94A20F81118BC0C7010E94C816C7013A
:101670000E943517C7010E940518CE010E94100A6A
:10168000CE010E94CE0B7E013EE4E30EF11CC701A9
:101690000E94FC0FFE01EC5AFF4F8081811103C0B4
:1016A000C7010E94EB0F0E940319F8016083718348
:1016B00082839383FE01EB58FF4FC958DF4F288187
:1016C0003981621B730B7183608380E05CC00E9470
:1016D000F718F5012081620F711D811D911DF70121
:1016E0006083718382839383FE01EF58FF4F4081B3
:1016F0005181628173814F5F5F4F6F4F7F4F408396
:10170000518362837383F8011082118212821382E3
:101710000E940319FE01E958FF4F608371838283A1
:101720009383CE010E94AF0ECE010A960E94620FF3
:10173000CE0148960E94180F81E025C0C7010E9483
:10174000AA1861E0680FC7010E9497188BEC91E01E
:10175000FE01EC57FF4F9183808388E432968083AB
:10176000C7010E94811865CF8EEB91E0FE01EC5716
:10177000FF4F9183808388E43296808367CFCE01C8
:101780000E94800A71CFDF91CF911F910F91FF903E
:10179000EF90BF90AF909F908F900895DF92EF925F
:1017A000FF920F931F93CF93DF93EC018C8D9D8D50
:1017B000892B09F49CC08E01025B1F4F40E061E061
:1017C000C8010E94481085E5FE01EE5AFF4F908146
:1017D000891B3596808331961082698D613009F4BA
:1017E00062C028F0888D653008F074C06FC0CE01EB
:1017F00085960E94CB1681E0FE01EA5AFF4F808356
:1018000064E672E0C8010E94EB131D8E1C8EFE017F
:10181000EC5AFF4F108288EAD82E7E018AE0E80E4B
:10182000F11CCE010E94C10A8823D9F360EB71E05C
:10183000C8010E94161B6A8D7B8D4AE050E0C801EA
:101840000E94061C6BE971E0C8010E94161B6D2DF9
:1018500062956F7070E04AE050E0C8010E94F11B91
:1018600060E971E0C8010E94161B64E0C7010E9494
:10187000990F81113CC0DA94A1F660E0CE010E947C
:10188000AB0E83B7817F846083BF83B7816083BFE2
:1018900083B7816083BF889583B78E7F83BF83B70B
:1018A0008E7F83BFBECFCF58DF4F488159816A8179
:1018B0007B814F7055276627772748305105610592
:1018C000710510F467E009C068E707C0882379F064
:1018D0006B5F03C0882359F06FE2C801DF91CF919D
:1018E0001F910F91FF90EF90DF900C943B1BDF91C5
:1018F000CF911F910F91FF90EF90DF9008952F925D
:101900003F924F925F926F927F928F929F92AF928F
:10191000BF92CF92DF92EF92FF920F931F93CF93DC
:10192000DF93CDB7DEB729970FB6F894DEBF0FBEB1
:10193000CDBF998788877C836B831A012C0180E750
:10194000480E511CF2018081882309F401C181E015
:10195000E885F985EA5AFF4F8083E885F985EB5AD7
:10196000FF4F1082E885F985EC5AFF4F1082E88519
:10197000F985108E8F01025B1F4F61E0C8010E9444
:101980004410888599858D5A9F4F9A838983C8848E
:10199000D98497E5C90ED11CE884F984E8E5EE0EF8
:1019A000F11C68847984F2E56F0E711C8885998535
:1019B0008F589F4F9E838D83A884B9849AE0A90E87
:1019C000B11C88849984E5E28E0E911C88859985E6
:1019D0000E94C10A8823D1F3EB81FC818491882382
:1019E00021F0E981FA81508101C050E026EE31E01A
:1019F00040E060E0C8015F830E94B9125F8121145A
:101A0000310439F04CE0450F910160E0C8010E94BB
:101A1000B912F60110828CE0F70180836B817C8122
:101A2000C8010E94161BF3019081892F880F890F2E
:101A300081958D5AF6018083E981FA819081892F01
:101A4000880F890F8195835DF7018083ED81FE8189
:101A5000808184FF03C062EE71E002C06EED71E030
:101A6000C8010E94461BF3019081892F880F890FBE
:101A700081958D5AF6018083F70180818F5F808385
:101A8000E885F98582A5882319F06AED71E002C026
:101A900066ED71E0C8010E94461BF3019081892F19
:101AA000880F890F81958D5AF6018083F701808117
:101AB0008F5F808362ED71E0C8010E94461B65E084
:101AC000C5010E94990F882359F0C4010E94AA18E9
:101AD00061E0680FC4010E949718C4010E94811838
:101AE00064E0C5010E94990F811113C0F2012081A9
:101AF000822F90E0A0E0B0E0ED81FE814081518135
:101B000062817381481759076A077B07A8F02F3F46
:101B100099F08FEFF2018083088519850B5D1F4FC7
:101B200060E0C8010E947216C8010E94551881E049
:101B3000E885F985808F0CC066E0C5010E94990F89
:101B4000882309F443CF888599850E94800A34CF81
:101B500029960FB6F894DEBF0FBECDBFDF91CF91AF
:101B60001F910F91FF90EF90DF90CF90BF90AF90BB
:101B70009F908F907F906F905F904F903F902F90AD
:101B80000895E0E8F7E72591349181E02130304C69
:101B900009F080E00895CF93DF93EC010E94C10D1E
:101BA0009E01275A3F4FDE01A059BF4F882309F4F9
:101BB0003AC0E6E9F7E78491F9018083E7E9F7E7BE
:101BC000E491EC83E8E9F7E7E491ED83E9E9F7E7ED
:101BD000859194919F838E83EBE9F7E785919491AA
:101BE0009987888787E08BA7EEE9F7E7E491EAA772
:101BF000EFE9F7E7E491EC93E0EAF7E78591949158
:101C00009D8F8C8FE2EAF7E7859194919F8F8E8F5D
:101C1000E4EAF7E78591949199A388A3E6EAF7E7C8
:101C20008591949120C08CE3F90180831C822FEF71
:101C30002D8380E293E09F838E8384ED93E09987E8
:101C4000888787E08BA78AA72C938CEA9DE09D8FDD
:101C50008C8F8EED9DE09F8F8E8F84E79EE099A301
:101C600088A38CE39FE09BA38AA3DF91CF91089583
:101C7000AF92BF92CF92DF92EF920F931F93CF93C9
:101C8000DF93EC01FC01E158FF4F82E3808334973E
:101C900041E050E060E070E04083518362837383F1
:101CA0003B978FEF8083CE010E94CB0DCE010E9427
:101CB000A70E6FEFCE010E94AB0E6E018AE0C80E38
:101CC000D11CC6010E94520FC6010E94620F5E0124
:101CD00088E1A80EB11CC5010E940E0F9EE0E92EFE
:101CE0000FE020E14BE06DE0CE01825B9F4F0E9450
:101CF000FF138E010B5D1F4FC8010E94DE15C50149
:101D00000E94180F65E0C6010E94990F811112C050
:101D1000898D882379F040E066E572E0C801DF91A3
:101D2000CF911F910F91EF90DF90CF90BF90AF9028
:101D30000C947D1660E0C801DF91CF911F910F9147
:101D4000EF90DF90CF90BF90AF900C94971821E068
:101D5000FC012083089570E085E00C94B819AF92DF
:101D6000BF92CF92DF92EF92FF920F931F93CF9388
:101D7000DF93EC0189819A812FE0289F8001299FC0
:101D8000100D112485E10E949B19800F911F24E002
:101D9000969587952A95E1F79A838983288122234E
:101DA00091F1AC81AD80B12CC12CD12CE885F985A5
:101DB0007F0100E010E06E817F819B0140E050E0F8
:101DC0008617970728F0BC01E817F90708F4BF0148
:101DD00080E090E01F921F921F92AF930E94541CCC
:101DE0006B830F900F900F900F9070E085E0DF9164
:101DF000CF911F910F91FF90EF90DF90CF90BF9008
:101E0000AF900C94B819DF91CF911F910F91FF9073
:101E1000EF90DF90CF90BF90AF900895FC018CE3DE
:101E20009FE09383828384E0818381E084870895A7
:101E3000CF93DF93EC018C819D81892B81F18C857F
:101E40008F7151F584E10E949B19BC01882777FDB1
:101E50008095982F0E94DA1C26EE3FE34EEC50E46A
:101E60000E94661D0E94AC1C9B017B836A836115E6
:101E7000710581F084E08983FE0140E084819581D1
:101E80002817390710F449830AC04F5F329644304F
:101E9000A9F702C08FEF89838C858F5F8C87DF91D4
:101EA000CF910895FC0188E0808389E0818387E0F9
:101EB000828386E0838384E0848382E0858381E17A
:101EC00086830895DF92EF92FF920F931F93CF9333
:101ED000DF937C01EC0100E010E0DD24DA9462E0A5
:101EE00088810E94401A88810E94AF1AF701E00F92
:101EF000F11F892B21F487818F5F878308C0878139
:101F0000882349F08F3F11F4178201C0D78260E027
:101F100088810E94401A0F5F1F4F219607301105DC
:101F2000F1F6DF91CF911F910F91FF90EF90DF902D
:101F30000895FC01E60FF11D81E09781913009F0D1
:101F400080E00895860F911DFC01278130E050E06C
:101F50004F5F5F4F81E02417350709F080E0089557
:101F6000262F30E0FC01E20FF31F8781423028F476
:101F700081508E3F48F080E008958F3FE1F3642F59
:101F80000E94D91D9130B9F781E008958EBD0000FF
:101F90000DB407FEFDCF8EB508951F93CF93DF9349
:101FA000EC01162FF89460E08F850E94791A8889D9
:101FB00018161CF460E00E94791A812F0E94C60F47
:101FC000888918161CF461E00E94791A7894DF91D0
:101FD000CF911F91089528EF31E0E4E8F2E0DF01AE
:101FE000A9011D9241505040E1F7DC0119961C9265
:101FF00019971A961C920895DF92EF92FF920F9311
:102000001F93CF93DF93EC018C858F5F8C8784E8DF
:10201000E82E82E0F82ED12C6D2D6064CE010E9456
:10202000CD0F60E8CE010E94CD0F61E08F850E9448
:10203000791A888918161CF460E00E94791A00E069
:1020400010E0F701E00FF11F80810E94C60F0F5FC3
:102050001F4F04351105A9F7888918161CF461E093
:102060000E94791AD39484E5E80EF11C86E0D81218
:10207000D3CF60E4CE01DF91CF911F910F91FF90FC
:10208000EF90DF900C94CD0FFC0160A361A3089545
:10209000FC0160A341A30895CF92DF92FF920F93BA
:1020A0001F93CF93DF931F92CDB7DEB76C01062F3E
:1020B000F42E10E0121754F4412F4F0D602FC6017B
:1020C00029830E946E021F5F2981F4CF0F90DF9158
:1020D000CF911F910F91FF90DF90CF900895CF92F5
:1020E000DF92FF920F931F93CF93DF931F92CDB791
:1020F000DEB76C01062FF42E10E0121754F4612F96
:10210000600F4F2DC60129830E946E021F5F298137
:10211000F4CF0F90DF91CF911F910F91FF90DF903F
:10212000CF900895DF92EF92FF920F931F93CF937A
:10213000DF93EC01E62ED22EF42E112707FD109529
:10214000040F111D47FD1A958F2D992787FD909536
:102150008017910744F42D2D4F2D6E2DCE010E9436
:102160006F10F394F1CFDF91CF911F910F91FF90FA
:10217000EF90DF9008959F92AF92BF92CF92DF923F
:10218000EF92FF920F931F93CF93DF93EC01062FF3
:10219000F42E122FDD24D394D21AC22EC194CC0C6B
:1021A000422F4F0D0E946E024F2D411B602FCE011A
:1021B0000E946E02612F600F4F2DCE010E946E02B1
:1021C000602F611B4F2DCE010E946E02E12CE116A3
:1021D0000CF044C0D7FC04C01150C394C394DC0C71
:1021E000E3948E2D880F8F5FD80E9E2C900EA12E1B
:1021F000AF0C4A2D692DCE010E946E02B02EBE1882
:102200004A2D6B2DCE010E946E02AF2CA11A4A2DD1
:10221000692DCE010E946E024A2D6B2DCE010E94C7
:102220006E02BE2CBF0C4B2D912E900E692DCE014F
:102230000E946E024B2DB02EB11A6B2DCE010E9462
:102240006E02AF2CAE184A2D692DCE010E946E028F
:102250004A2D6B2DCE010E946E02B9CFDF91CF9136
:102260001F910F91FF90EF90DF90CF90BF90AF90B4
:102270009F9008958F929F92AF92BF92CF92DF92DC
:10228000EF92FF920F931F93CF93DF93EC01E62E13
:10229000D42E122FCC24C394C21AB22EB194BB0CEC
:1022A000F12C802F8470A82E802F8270982E802F82
:1022B0008870882E0170F1160CF04DC0C7FC04C068
:1022C0001150B394B394CB0CF3948F2D880F8F5F80
:1022D000C80EAA2071F0412F4D0D6F2D6E0DCE014D
:1022E0000E946E024F2D4D0D612F6E0DCE010E948A
:1022F0006E02992071F04D2D411B6F2D6E0DCE0198
:102300000E946E024D2D4F19612F6E0DCE010E945D
:102310006E02882071F04F2D4D0D6E2D611BCE0188
:102320000E946E02412F4D0D6E2D6F19CE010E943D
:102330006E02002309F4BFCF4D2D4F196E2D611B86
:10234000CE010E946E024D2D411B6E2D6F19CE01E4
:102350000E946E02B0CFDF91CF911F910F91FF903D
:10236000EF90DF90CF90BF90AF909F908F900895A7
:102370008F929F92AF92BF92CF92DF92EF92FF9295
:102380000F931F93CF93DF93EC01B62EA42E122F41
:10239000DD24D394D21AC22EC194CC0CFF24F39422
:1023A000802F8170882E992493949E0C02708FEF59
:1023B0008F0D8117C4F5D7FC04C01150C394C3948A
:1023C000DC0C8F2D880F8F5FD80E882099F0212F7D
:1023D000220F290D4A2D411B6F2D6B0DCE010E943E
:1023E0004C1023E02E0D4A2D4F19612F6B0DCE019D
:1023F0000E944C10002399F0212F220F290D4A2D05
:10240000411B6B2D6F19CE010E944C1023E02E0D45
:102410004A2D4F196B2D611BCE010E944C10F39475
:10242000E394E394C4CFDF91CF911F910F91FF907C
:10243000EF90DF90CF90BF90AF909F908F900895D6
:102440009F92AF92BF92CF92DF92EF92FF920F9343
:102450001F93CF93DF93EC01B62EF42EA22EDE2C29
:10246000D194DD0C9D2C920E1E2D160F292D612F5F
:102470000E946F10CC24CA94C00ECF0C292D4C2D75
:10248000612FCE010E946F10D00EFE0C2D2D4F2D0E
:102490006B2DCE010E944C10BA0C6FEF6B0D2D2DE1
:1024A0004F2DCE010E944C1001E02E2D4F2D612F9B
:1024B000CE010E943A11DE2CD094DB0C02E02E2DCE
:1024C0004F2D6D2DCE010E943A11CE1804E02E2D15
:1024D0004C2D6D2DCE010E943A1108E02E2D4C2D71
:1024E000612FCE010E943A11DF91CF911F910F9180
:1024F000FF90EF90DF90CF90BF90AF909F900895A6
:10250000AF92BF92CF92DF92EF92FF920F931F9301
:10251000CF93DF93EC01A62EC42EB22EF02E1E2DEB
:10252000E194EE0CD12ED60E2E2D2B0D6D2D0E948A
:102530009210FA94FE0CC10E6FEF6A0D6B0D611BC9
:10254000EF2C01E0212F4C2DCE010E94B81102E0AA
:10255000212F4C2D6D2DCE010E94B811DF91CF910E
:102560001F910F91FF90EF90DF90CF90BF90AF90B1
:1025700008956F927F928F929F92AF92BF92CF9267
:10258000DF92EF92FF920F931F93CF93DF93F901A6
:10259000A49031965491FC01F0A064350CF00CC16C
:1025A000BB24A7FCB094A62FBB27A7FDB095FD01C7
:1025B000EA0DFB1D1E161F060CF0FEC040330CF08A
:1025C000FBC0C52E042F112707FD1095E801C50F8C
:1025D000D11D57FDDA951C161D060CF0EDC0E90162
:1025E00022969501295F3F4F37FF02C0295F3F4F79
:1025F00073E0359527957A95E1F747FF0AC0C52E18
:10260000C40E209FA001219F500D1124C41BD50B87
:1026100040E00C2D112707FD1095040F111D47FDFB
:102620001A95013311051CF070E3C72EC41A67FD1B
:1026300060E0E535F10514F0E4E5F0E01E2FFC0163
:1026400074857427862F992787FD9095FC01EA1BD6
:10265000FB0BDF015F01F7E0AF22BB24E0E8F0E015
:1026600002C0F595E795AA94E2F70E2FB7FD1796ED
:1026700053E0B595A7955A95E1F7AC0FBD1FE42F30
:10268000E77051E001C0550FEA95EAF74595459589
:102690004595E4E54E02800D911D11248C579D4F08
:1026A00040E0DD24C7FCD094BB24B3943327E42F4F
:1026B000F0E0EC15FD050CF07FC0FD01E490F1E0C9
:1026C000FF1219C0EC01A02EFD01862E881A9C2E47
:1026D000980C911608F067C09E2C9A2019F09880EB
:1026E000952A9882A69429F43196E4906894AA24B5
:1026F000A7F82196ECCFF1101BC0752E7094EC0159
:10270000A02EFD01862E881A9C2E980C911608F09A
:102710004AC09E2C9A2019F0988097209882A694FF
:1027200029F43196E4906894AA24A7F82196ECCF76
:10273000E3E0FE1631F0EC01A02EFD01862E881A92
:102740002EC0752E7094962EEC01A02EFD019116D0
:10275000B0F48E2C8A2049F08880692C672660FEB0
:1027600002C0852A01C087208882A69429F4319668
:10277000E4906894AA24A7F893942196E8CF7B2547
:1027800012C09E2C9A2019F0988095269882A694C3
:1027900029F43196E4906894AA24A7F821969C2EF7
:1027A000980C911670F3550F19F48C5A9F4F51E005
:1027B0004F5FA20FB31F7BCFDF91CF911F910F917E
:1027C000FF90EF90DF90CF90BF90AF909F908F9051
:1027D0007F906F900895DC01FB0184918F5F1496C8
:1027E0008C9314973196E491EF5F1596EC931597BF
:1027F0006E5F7F4F5F967C936E935E970895EF9226
:102800000F93CF93DF93EC014E876D872F87E98A73
:10281000088B81E0888788A319A28F8364E672E021
:10282000CE010E94EB130E9495098CB58F7D8CBD63
:102830008CB58C7F81608CBD8DB581608DBD8CB574
:102840008C608CBD61E08E850E94401A61E08D85B0
:102850000E94401A61E08F850E94401A89891816EB
:102860001CF461E00E94401A888918161CF461E08B
:102870000E94401A898918166CF460E00E94791A47
:102880006AE070E080E090E00E94261961E08989AA
:102890000E94791A8D85992787FD9095FC01EC5A45
:1028A000FB4FE491F0E0EE0FFF1FEE58FB4F259138
:1028B00034913D8B2C8BFC01E05CFB4F84918B8F22
:1028C0008E85992787FD9095FC01EC5AFB4FE4918A
:1028D000F0E0EE0FFF1FEE58FB4F259134913B8B3C
:1028E0002A8BFC01E05CFB4F84918A8F88899927B1
:1028F00087FD9095FC01EC5AFB4FE491F0E0EE0F60
:10290000FF1FEE58FB4F259134913F8B2E8BFC011E
:10291000E05CFB4F84918C8F8F85992787FD909584
:10292000FC01EC5AFB4FE491F0E0EE0FFF1FEE5874
:10293000FB4F25913491398F288FFC01E05CFB4FD0
:1029400084918D8F61E2CE010E94CD0F64E1CE01B2
:102950000E94CD0F8B8587FF02C08FE78B876B8529
:102960006068CE010E94CD0F60E2CE010E94CD0FC3
:102970006CE0CE010E94CD0FCE01DF91CF910F917F
:10298000EF900C94FC0F6F927F928F929F92AF9278
:10299000BF92CF92DF92EF92FF920F931F93CF934C
:1029A000DF93EC01162FF42EB02EE8A064350CF066
:1029B00081C08FE284170CF47DC0EC81F0E0319788
:1029C0000E9FC0010F9F900D1124860F911D67FD72
:1029D0009A95181619060CF06DC08D81809FC00164
:1029E0001124840F911D47FD9A95181619060CF0B5
:1029F00061C0A62E962EC22ED12C8A2D811B99271E
:102A000087FD90952C8130E0821793070CF051C020
:102A1000215031098217930779F0C29ED001C39EDD
:102A2000B00DD29EB00D1124A80FB91FEE8DFF8DF1
:102A3000EA0FFB1F749001C0712C8F2C6F2C282D76
:102A40002F19332727FD30958D8190E028173907FE
:102A50006CF570FE11C081E0B81206C0482D6A2DD9
:102A6000CE010E946E021EC00B2D2B2D462D692D0E
:102A7000CE010E94921016C089A198A1891791F0E9
:102A800088A381E0B81206C0482D6A2DCE010E94AD
:102A90006E0207C00B2D2B2D462D692DCE010E94F5
:102AA0009210E8A276946B0C8394C9CF9B0CA394EC
:102AB000A4CFE8A2DF91CF911F910F91FF90EF90EB
:102AC000DF90CF90BF90AF909F908F907F906F904E
:102AD00008950F93CF93DF93EC01262F6A3039F4DA
:102AE0002D8198858A85299F800D112422C06D3003
:102AF00011F108854A8569850E94C31448855C8167
:102B00002985549F200D112429878F81882399F0CE
:102B1000332727FD309584E590E0459F8019910982
:102B20001124821793073CF49D818A85499F800D6B
:102B300011248A87198681E090E0DF91CF910F916F
:102B40000895CF93DF9350E0FA01EE0FFF1FE80FD7
:102B5000F91F37852089E32FF22FE60FF11DE60FCD
:102B6000F11D25913491FA01EE0FFF1FE80FF91FB7
:102B700030A3278FF90165917491FC01D481D69F10
:102B8000C02D1124E40FF51FC1A3F901A591B49143
:102B90006B2F70E0EC2FF0E0DC01A40FB51F6E1777
:102BA0007F0720F4F90125913491C32FCD9FC02DCB
:102BB00011249296CC93DF91CF91089521E0FC01EE
:102BC000248324E020A720E234E0308B278740E0F4
:102BD00060E00E94A11561E070E083E00E94B819F6
:102BE000E1EBF0E08081887F81608083F89410922F
:102BF0008000E1E8F0E010821092850010928400DD
:102C000088E191E0909389008093880080818860BA
:102C10008083808181608083EFE6F0E08081826044
:102C20008083789408950F93FC01862F642F0111FF
:102C300029C08230D1F048F4882391F0813011F519
:102C400040E0CF010F910C94A1158330A9F084309E
:102C5000C9F48481489F602D1124658F268F12C08E
:102C60004B3008F06AE0668B0DC08481489F602D70
:102C70001124618F228F06C08481489F602D11240A
:102C8000638F248F0F910895FC0121110EC0648B76
:102C90008481489F402D1124458B15A214A213A2B4
:102CA00081E0878B80938804108E0895809188043A
:102CB000882319F08091850401C080E08093B400DE
:102CC0000895FC0161110DC0178A158A14A213A280
:102CD000108E1092850410928604109288040C9431
:102CE00056160895CF93DF93EC01611103C00E9443
:102CF00061161982DF91CF9108950F931F93CF939F
:102D0000DF93EC018B0141110EC060E00E9472164E
:102D10001E870D871B8A1A8A81E0898389E08E8B42
:102D2000198E1B8E1D8EDF91CF911F910F910895EB
:102D3000CF93DF93EC01611128C08881882329F1AA
:102D40008981811122C089852F819885E22FF92FF1
:102D5000E80FF11DE80FF11D859194918F3F2FEF42
:102D6000920711F4188211C09C879927880F991F28
:102D7000EA85FB85E80FF91F6591749140E0CE016B
:102D80000E947D1689858F5F8987DF91CF91089595
:102D900060E00C94981660E00C9472160F93CF9339
:102DA000DF93EC0161115DC08981882309F459C06A
:102DB0008D89811156C02D853E858A899B89880F12
:102DC000991F820F931FFC01859194910097D1F474
:102DD0008989882321F01B8A1A8AF90111C0198276
:102DE000888160E0882331F0CE010E9498168A899C
:102DF0009B8925C0CE01DF91CF910F910C94611674
:102E000085919491BC01769567957695679580FF3D
:102E10001DC0AC01A6E056954795AA95E1F7292F6C
:102E200026952695269520514F716F7000E0CE01B2
:102E30000E9413168A899B8901969B8B8A8B880F27
:102E4000991FED85FE85E80FF91FDACF492F6F73C3
:102E500020E0CE010E9444168A899B8901969B8BB3
:102E60008A8BDF91CF910F91089560E00C94CE167C
:102E7000CF93DF93EC016111C5C08F89882309F4DA
:102E8000C1C08D89811105C0CE01DF91CF910C9415
:102E9000611681508D8B8DA1811138C08BA19CA1B1
:102EA00001969C01220F331FEF8DF8A1E20FF31F53
:102EB00025913491422F47704EA3A90163E05695A6
:102EC00047956A95E1F7BA0176956795232F269580
:102ED00026952FA36F732C81629F602D11246DA303
:102EE0004170409384049CA38BA329A130E08217F6
:102EF000930760F08AA1882329F0281B31093CA39D
:102F00002BA304C060E0CE010E9461168DA1815008
:102F10008DA3288D2F5F288F4C893FA1340F8C857E
:102F2000380F3A836B8D662361F070E0822F99270A
:102F300087FD90950E94F91D8C8D869F300D112480
:102F40003A838A8190E0849664E270E00E94F91DE1
:102F50008A833E893B83698D662371F0772767FDFD
:102F60007095822F992787FD90950E94F91D8A8D73
:102F7000869F300D11243B836D8D662391F0822F47
:102F8000992787FD909570E00E94F91DCB0162E0C2
:102F900070E00E94F91D2E8D9B81289F900D1124B9
:102FA0009B838B814F3339F08A300CF089E087FDA9
:102FB00080E08B8301C01B82F894EA81F0E0EA5143
:102FC000FC4FE491E09387042B8138A52303900103
:102FD00011244EA14203C001439F900D11240D8086
:102FE00002C0880F991F0A94E2F797FF02C0815828
:102FF0009F4F880F892F881F990B80938604809399
:1030000085047894DF91CF91089560E00C9438178F
:1030100060918604662321F1809189048F5F8093FB
:103020008904909187048917D8F08091880491E0F1
:1030300089278093880410928904809184048823CE
:1030400069F090915C0183E4989F802D1124895B45
:1030500080935C010E94D91D909385040C945616B0
:1030600008951F920F920FB60F9211242F933F9342
:103070004F935F936F937F938F939F93AF93BF9380
:10308000EF93FF930E940818FF91EF91BF91AF91CA
:103090009F918F917F916F915F914F913F912F9170
:1030A0000F900FBE0F901F901895CF93DF93EC01F8
:1030B00060E00E94721688E194E09E878D871B8AEB
:1030C0001A8A81E0898389E08E8B198E1B8E1D8E72
:1030D000DF91CF910895CF93DF93EC0160E00E94E0
:1030E000721680E194E09E878D871B8A1A8A81E0A0
:1030F000898389E08E8B198E1B8E1D8EDF91CF9177
:103100000895CF93DF93EC0160E00E9472168AE08D
:1031100094E09E878D871B8A1A8A81E0898389E0E3
:103120008E8B198E1B8E1D8EDF91CF910895FC0121
:10313000268167FF02C0622F0BC0862F992787FD6B
:103140009095622F70E06F5F7F4F0E94F91D682F8E
:1031500065830895FC01858108951F920F920FB633
:103160000F9211242F933F938F939F93AF93BF930D
:1031700080918B0490918C04A0918D04B0918E0469
:1031800030918A0423E0230F2D3720F40196A11DEE
:10319000B11D05C026E8230F0296A11DB11D209385
:1031A0008A0480938B0490938C04A0938D04B09335
:1031B0008E0480918F0490919004A0919104B0911D
:1031C00092040196A11DB11D80938F0490939004E9
:1031D000A0939104B0939204BF91AF919F918F916E
:1031E0003F912F910F900FBE0F901F9018952FB702
:1031F000F89460918B0470918C0480918D0490916F
:103200008E042FBF08953FB7F89480918F0490915A
:103210009004A0919104B091920426B5A89B05C09A
:103220002F3F19F00196A11DB11D3FBF6627782FD2
:10323000892F9A2F620F711D811D911D42E0660F2B
:10324000771F881F991F4A95D1F708958F929F92F3
:10325000AF92BF92CF92DF92EF92FF926B017C010F
:103260000E9403194B015C01C114D104E104F10473
:10327000F1F00E94AB1C0E940319681979098A09B0
:103280009B09683E73408105910570F321E0C21AE5
:10329000D108E108F10888EE880E83E0981EA11C91
:1032A000B11CC114D104E104F10429F7DDCFFF9072
:1032B000EF90DF90CF90BF90AF909F908F90089548
:1032C000789484B5826084BD84B5816084BD85B501
:1032D000826085BD85B5816085BDEEE6F0E08081C8
:1032E00081608083E1E8F0E01082808182608083E9
:1032F000808181608083E0E8F0E08081816080836C
:10330000E1EBF0E0808184608083E0EBF0E080819D
:1033100081608083EAE7F0E080818460808380813F
:1033200082608083808181608083808180688083E7
:103330001092C10008958E3008F08E508770209151
:103340005D0190E4299F90011124822B80937C00E1
:1033500080917A00806480937A0080917A0086FD63
:10336000FCCF809178002091790090E0922B089515
:103370001F93CF93DF93182FEB0161E00E94401A57
:10338000209711F460E004C0CF3FD10539F461E02B
:10339000812FDF91CF911F910C94791AE12FF0E0EA
:1033A000E45DFB4FE491E330F9F048F4E130B9F02B
:1033B000E230A1F584B5806284BDC8BD34C0E73079
:1033C000E9F0E83019F1E43049F58091800080623D
:1033D00080938000D0938B00C0938A0024C084B572
:1033E000806884BDC7BD1FC08091800080688093C5
:1033F0008000D0938900C093880015C08091B000F0
:1034000080688093B000C093B3000DC08091B0007D
:1034100080628093B000C093B40005C0C038D1056D
:103420000CF0B5CFAFCFDF91CF911F9108958330CE
:1034300081F028F4813099F08230A1F0089587302E
:10344000A9F08830B9F08430D1F4809180008F7D6C
:1034500003C0809180008F7780938000089584B5A9
:103460008F7702C084B58F7D84BD08958091B000B0
:103470008F7703C08091B0008F7D8093B000089556
:10348000CF93DF9390E0FC01E05CFB4F2491FC01C3
:10349000EC5AFB4F8491882349F190E0880F991FE3
:1034A000FC01E458FB4FA591B4918E589B4FFC0151
:1034B000C591D4919FB7611108C0F8948C91209563
:1034C00082238C93888182230AC0623051F4F8945D
:1034D0008C91322F309583238C938881822B888323
:1034E00004C0F8948C91822B8C939FBFDF91CF9175
:1034F00008950F931F93CF93DF931F92CDB7DEB73D
:10350000282F30E0F901E45DFB4F8491F901E05C84
:10351000FB4F1491F901EC5AFB4F04910023C9F0C1
:10352000882321F069830E94171A6981E02FF0E057
:10353000EE0FFF1FEE58FB4FA591B4919FB7F89483
:103540008C91611103C01095812301C0812B8C9354
:103550009FBF0F90DF91CF911F910F910895CF934F
:10356000DF93282F30E0F901E45DFB4F8491F901EE
:10357000E05CFB4FD491F901EC5AFB4FC491CC2392
:1035800091F081110E94171AEC2FF0E0EE0FFF1F4F
:10359000E859FB4FA591B4912C912D2381E090E047
:1035A00021F480E002C080E090E0DF91CF910895A7
:1035B000CF92DF92EF92FF920F931F93CF93DF93FF
:1035C0007C016A01EB0100E010E00C151D0571F0B3
:1035D0006991D701ED91FC910190F081E02DC70137
:1035E0000995892B19F00F5F1F4FEFCFC801DF91AD
:1035F000CF911F910F91FF90EF90DF90CF900895A2
:103600006115710581F0DB010D900020E9F7AD0136
:1036100041505109461B570BDC01ED91FC91028092
:10362000F381E02D099480E090E00895EF92FF92FD
:103630000F931F93CF93DF938C017B01C0E0D0E009
:10364000F701EC0FFD1F6491662359F0F801A0818A
:10365000B181ED91FC91C8010995892B11F021965A
:10366000EFCFCE01DF91CF911F910F91FF90EF909F
:1036700008950C94001BDC01ED91FC910190F08108
:10368000E02D09946CEE71E00C94001B0F931F93D6
:10369000CF93DF93EC010E94161B8C01CE010E9498
:1036A000421B800F911FDF91CF911F910F910895C1
:1036B0008F929F92AF92BF92DF92EF92FF920F9301
:1036C0001F93CF93DF93CDB7DEB7A1970FB6F894D2
:1036D000DEBF0FBECDBF7C01F42FD52ECB0119A2CA
:1036E000223008F42AE08E010F5D1F4F822E912CAC
:1036F000A12CB12C6F2F7D2DA50194010E940D1ED0
:10370000F22FD32ECA01015011096A3014F4E0E3FC
:1037100001C0E7E3E60FD801EC93232B242B252BE4
:1037200049F7B801C7010E94001BA1960FB6F89493
:10373000DEBF0FBECDBFDF91CF911F910F91FF90E4
:10374000EF90DF90BF90AF909F908F900895CF92B1
:10375000DF92EF92FF920F931F93CF93DF93EC01D1
:103760006A017B012115310579F4E881F981019025
:10377000F081E02D642FDF91CF911F910F91FF9089
:10378000EF90DF90CF9009942A303105E9F477FF6C
:103790001AC06DE20E943B1B8C0144275527BA01D9
:1037A0004C195D096E097F092AE0CE010E94581B61
:1037B000800F911FDF91CF911F910F91FF90EF909C
:1037C000DF90CF9008952AE0B701A601CE01DF91E6
:1037D000CF911F910F91FF90EF90DF90CF900C94BD
:1037E000581B9A01AB01662757FD6095762F0C9404
:1037F000A71B2115310541F4DC01ED91FC910190ED
:10380000F081E02D642F09940C94581B9A01AB01B0
:1038100060E070E00C94F91B61157105810591055C
:1038200011F00C94E91F0895CF93DF9300D000D0DE
:10383000CDB7DEB79B01AC0161157105810591051E
:1038400069F069833A834B835C830E94E41F29817A
:103850003A814B815C810E942F1E03C060E070E0C2
:10386000CB010F900F900F900F90DF91CF910895A3
:10387000CF92DF92EF92FF926B017C016217730788
:103880008407950764F4CA01B9016C197D098E0992
:103890009F090E94141C6C0D7D1D8E1D9F1DFF90A5
:1038A000EF90DF90CF9008954F925F926F927F924A
:1038B000AF92BF92CF92DF92EF92FF920F931F933E
:1038C000CF93DF93CDB7DEB729013A01621B730BAB
:1038D000840B950B29893A894B895C892A193B0904
:1038E0004C095D09298B3A8B4B8B5C8B9B01AC019E
:1038F00069897A898B899C890E94C91DE418F50819
:1039000006091709A80197010E942F1E2A0D3B1DC9
:103910004C1D5D1DCA01B901DF91CF911F910F911F
:10392000FF90EF90DF90CF90BF90AF907F906F901F
:103930005F904F90089508950E9460190E949B1C0B
:103940000E942108C0E0D0E00E9433082097E1F3F4
:103950000E940000F9CF089598D088F09F5790F00A
:10396000B92F9927B751A0F0D1F0660F771F881FA4
:10397000991F1AF0BA95C9F712C0B13081F09FD0E3
:10398000B1E008959CC0672F782F8827B85F39F081
:10399000B93FCCF3869577956795B395D9F73EF403
:1039A00090958095709561957F4F8F4F9F4F0895AB
:1039B000E89409C097FB3EF49095809570956195C9
:1039C0007F4F8F4F9F4F9923A9F0F92F96E9BB277F
:1039D0009395F695879577956795B795F111F8CFFB
:1039E000FAF4BB0F11F460FF1BC06F5F7F4F8F4F66
:1039F0009F4F16C0882311F096E911C0772321F05C
:103A00009EE8872F762F05C0662371F096E8862FF3
:103A100070E060E02AF09A95660F771F881FDAF74A
:103A2000880F9695879597F9089597F99F6780E88D
:103A300070E060E008959FEF80EC089500240A9400
:103A40001616170618060906089500240A94121679
:103A50001306140605060895092E0394000C11F4AC
:103A6000882352F0BB0F40F4BF2B11F460FF04C059
:103A70006F5F7F4F8F4F9F4F089557FD9058440FB2
:103A8000551F59F05F3F71F04795880F97FB991FBD
:103A900061F09F3F79F0879508951216130614067A
:103AA000551FF2CF4695F1DF08C016161706180607
:103AB000991FF1CF86957105610508940895E894E2
:103AC000BB2766277727CB0197F908950BD0C4CF82
:103AD000B5DF28F0BADF18F0952309F0A6CFABCFF9
:103AE0001124EECFCADFA0F3959FD1F3950F50E0DC
:103AF000551F629FF001729FBB27F00DB11D639FA0
:103B0000AA27F00DB11DAA1F649F6627B00DA11D45
:103B1000661F829F2227B00DA11D621F739FB00DEB
:103B2000A11D621F839FA00D611D221F749F33275B
:103B3000A00D611D231F849F600D211D822F762FF4
:103B40006A2F11249F5750408AF0E1F088234AF0F1
:103B5000EE0FFF1FBB1F661F771F881F915050403D
:103B6000A9F79E3F510570F060CFAACF5F3FECF3FD
:103B7000983EDCF3869577956795B795F795E79529
:103B80009F5FC1F7FE2B880F911D9695879597F93A
:103B90000895DB018F939F930E944E1EBF91AF91BA
:103BA000A29F800D911DA39F900DB29F900D112497
:103BB0000895991B79E004C0991F961708F0961B89
:103BC000881F7A95C9F780950895AA1BBB1B51E100
:103BD00007C0AA1FBB1FA617B70710F0A61BB70B7D
:103BE000881F991F5A95A9F780959095BC01CD0122
:103BF000089597FB072E16F4009407D077FD09D09F
:103C00000E94E51D07FC05D03EF4909581959F4FDD
:103C10000895709561957F4F0895A1E21A2EAA1B11
:103C2000BB1BFD010DC0AA1FBB1FEE1FFF1FA2176C
:103C3000B307E407F50720F0A21BB30BE40BF50B69
:103C4000661F771F881F991F1A9469F760957095F2
:103C5000809590959B01AC01BD01CF010895052E83
:103C600097FB1EF400940E94461E57FD07D00E9449
:103C70000D1E07FC03D04EF40C94461E5095409543
:103C8000309521953F4F4F4F5F4F08959095809508
:103C9000709561957F4F8F4F9F4F08950E945F1ED3
:103CA000A59F900DB49F900DA49F800D911D112490
:103CB0000895EE0FFF1F0590F491E02D0994A29F47
:103CC000B001B39FC001A39F700D811D1124911DF0
:103CD000B29F700D811D1124911D0895CF93DF9324
:103CE0008230910510F482E090E0E0919504F0912B
:103CF000960420E030E0A0E0B0E0309739F1408158
:103D0000518148175907B8F04817590771F4828153
:103D10009381109729F013969C938E9312972CC041
:103D2000909396048093950427C02115310531F0B6
:103D30004217530718F0A901DB0101C0EF019A01F6
:103D4000BD01DF010280F381E02DD7CF21153105C0
:103D5000F9F0281B390B2430310580F48A819B81CE
:103D60006115710521F0FB019383828304C0909358
:103D7000960480939504FE01329644C0FE01E20F42
:103D8000F31F8193919322503109398328833AC0DC
:103D90002091930430919404232B41F4209102014B
:103DA00030910301309394042093930420910001F7
:103DB000309101012115310541F42DB73EB74091F5
:103DC000040150910501241B350BE0919304F091FF
:103DD0009404E217F307A0F42E1B3F0B28173907B2
:103DE00078F0AC014E5F5F4F2417350748F04E0F57
:103DF0005F1F50939404409393048193919302C066
:103E0000E0E0F0E0CF01DF91CF910895CF93DF9311
:103E1000009709F487C0FC01329713821282C09187
:103E20009504D0919604209781F420813181280F48
:103E3000391F80919304909194048217930779F528
:103E4000F0939404E09393046DC0DE0120E030E031
:103E5000AE17BF0750F412964D915C9113979D01D8
:103E60004115510509F1DA01F3CFB383A2834081F3
:103E70005181840F951F8A179B0771F48D919C9136
:103E80001197840F951F02969183808312968D91CE
:103E90009C911397938382832115310529F4F09324
:103EA0009604E09395043EC0D9011396FC93EE93DB
:103EB00012974D915D91A40FB51FEA17FB0779F496
:103EC00080819181840F951F0296D90111969C9350
:103ED0008E938281938113969C938E931297E0E048
:103EE000F0E08A819B81009719F0FE01EC01F9CF87
:103EF000CE01029628813981820F931F209193046D
:103F0000309194042817390769F4309729F41092F6
:103F100096041092950402C013821282D0939404E6
:103F2000C0939304DF91CF9108958F929F92AF92A7
:103F3000BF92CF92DF92EF92FF92CF93DF93EC018B
:103F4000688179818A819B8161157105810591055F
:103F500021F464E279ED8BE597E02DE133EF41E068
:103F600050E00E942F1E49015A019B01AC01A7EAB3
:103F7000B1E40E944E1E6B017C01ACEEB4EFA501D2
:103F800094010E94F51FC60ED71EE81EF91EF7FE0B
:103F900006C081E0C81AD108E10880E8F80AC882A2
:103FA000D982EA82FB82C701B6019F77DF91CF9168
:103FB000FF90EF90DF90CF90BF90AF909F908F9049
:103FC00008950E94951F089586E091E00E94951F34
:103FD0000895609306017093070180930801909300
:103FE00009010895B7FF0C944E1E0E944E1E821BBD
:083FF000930B0895F894FFCF34
:103FF80000009704800001000000B701BB01BE016A
:10400800C601CB01D4010101000001010001010139
:10401800000101000100010100010001000100018F
:104028000001010100000001000000010000010181
:10403800010101010001010100010001000101016C
:104048000000010101010001000101000101596F97
:104058007520776F6E2100780054696D653A2000ED
:10406800207300546F67676C65733A20005072655F
:104078007373204120746F20657869742E00506C2A
:1040880061790057696474683A2020004865696757
:1040980068743A200052756C65733A202000536F9B
:1040A800756E643A2020004F6666004F6E00436CC0
:1040B800617373696300416C742E0054687265659E
:1040C800776179005375706572506F73004C4F417A
:1040D80044455200000000006915D81A0D0A006E08
:0C40E800616E00696E66006F7666000075
:00000001FF
