:100000000C94F5020C941D030C941D030C941D0319
:100010000C941D030C941D030C941D030C941D03E0
:100020000C941D030C941D030C941D030C94162DAD
:100030000C941D030C941D030C941D030C941D03C0
:100040000C94732D0C941D030C941D030C941D0330
:100050000C941D030C941D030C941D030C941D03A0
:100060000C941D030C941D034572726F720047615E
:100070006D65206C6F6164656400536176696E67BD
:100080002067616D65004E6F7468696E6720746FDC
:1000900020626520736176656421004E6F20736174
:1000A0007665642067616D650046696C6520656DE5
:1000B000707479004C6F6164696E67207361766556
:1000C000642067616D6500436C65616E696E6720D1
:1000D000454550524F4D00202D204E6F20646573D2
:1000E0006372697074696F6E202D20001120444581
:1000F0004C4554452047414D4520100011204445B2
:100100004C45544520534156452010001120504C79
:100110004159201000486F6C64204120746F2064A6
:10012000656C65746500202120444F4E275420548F
:1001300055524E204F46462021200020201D204CA5
:100140006F6164696E672067616D652E2E2E2020B9
:1001500000496E73657274205344202620726573C3
:1001600074617274001D2052656164696E6720536A
:100170004420636172642E2E2E0A0A000808CACB3E
:10018000C3FF818181FF40240000000000000000C7
:10019000000000000000000000000000000000005F
:1001A00000000001F8FFFFFC00000003F9FFFFFE64
:1001B00000000007FFFFFFFF000007FFFFFFFFFF3A
:1001C00000000FFF0330C71F00001C060120820F34
:1001D00000001C0649E7924F00001FFE49279E4F72
:1001E00000001C0649279E4F00001C0679209E0F28
:1001F00000001FFE79309F1F00001C0679FFFFFFE3
:1002000000001C07FF0041BF00001FFFFC00466FFD
:1002100000001807F87FFD8700001807FC0FFE0399
:1002200000001FFFFE03FE0300001C07FFC1800744
:1002300000001C07F001801F00001FFFE003007F8B
:1002400000001807E00F07FF00001807FFFFFFFF7F
:1002500000001FFFFFFFFFFF00001C07FF7FFBFFE9
:1002600000001C07FF77337300001FFFFF6AAAAF6F
:1002700000001C07FF6AAA6F00001C07FFB7332F9E
:1002800000000FFFFFFFFFFE000007FFFFFFFFFC66
:10029000000000000000000000000000000000005E
:1002A000000000000000000003053F213F1208127B
:1002B0000A100A0E1C0E0C1E0C141A14161F161E01
:1002C000131E1E1B1E1E1F1E3F213F3A2F3A173DB5
:1002D000173F213F181F02040A041F0E04040E1FBB
:1002E0000A1F0A0E0E1F04110E2E252E2F2A2E264F
:1002F0002929021F02081F08150E04040E150E15E9
:10030000151B151B040604040C0400000000170054
:100310000300031F0A1F16371A1904130A153A009F
:100320000300000E11110E000A040A040E0400302E
:10033000000404040010001804031F111F121F10F2
:100340001D151711151F07041F17151D1F151D015A
:10035000011F1F151F17151F000A00003200040A95
:10036000110A0A0A110A040115020E11171E051EB0
:100370001F150A0E110A1F110E1F15111F05010E60
:10038000111D1F041F111F1108100F1F041B1F1028
:10039000101F061F1E040F0E110E1F09060E112E30
:1003A0001F051A121509011F011F101F0F180F1F1B
:1003B0000C1F1B041B031C03191513001F1103043E
:1003C00018111F000201022020200001020C121E41
:1003D0001F120C0C12120C121F0C1A14041E0524EE
:1003E0002A1E1F021C141D1020201D1F0814111F7F
:1003F000101E041E1E021C0C120C3E0A040C123E9F
:100400001E040214160A020F120E101E0E100E1EEB
:10041000081E120C1226281E322A26041E21001F36
:1004200000211E040102013F213F0A4E6F20534468
:100430002063617264206F720A6E6F204C4F4144DA
:1004400045522E4845580A0A153A45786974001DE8
:1004500020466C617368696E670A20206C6F616466
:1004600065722E2E2E0A0A444F4E275420545552A0
:100470004E204F464621000A0A153A49676E6F72B0
:1004800065006D560A0A504C45415345205455525B
:100490004E204F464620004C4F5720424154544571
:1004A00052592120001753440016137800161314D4
:1004B00000151020001520100000540A03E1818669
:1004C0007F3E186D830F0F0E0183866033186DC356
:1004D000198F1803C38E6033186DE330CF1803C330
:1004E0009E603630CDE360CF3006C79E7E3E30CD75
:1004F000B360CF300CC6F6603330D9B660CF33CF9F
:10050000CCF66061B0DB1E60CF30D86CE6C061B065
:10051000DB1E618F19986CC6C063B19B0E330F0F41
:10052000B078C6FF7E1F1B061E0F0500893008022B
:100530003802497868140000F6E8DBCFC3B8AEA4EF
:100540009B928A827B746E68625C57524E49454129
:100550003E3A3734312E2C29272523211F1D1C1A02
:100560001917161514131211100F0E0D0C0B0A0982
:100570000807064500680100000500380168010011
:1005800000890585050101FF030101F70300000053
:100590000800020100000304070000000000000042
:1005A000000102040810204080010204081020010C
:1005B00002040810200404040404040404020202D7
:1005C00002020203030303030300000000230026CA
:1005D00000290000000000250028002B000000007A
:1005E00000240027002A00009A0D11241FBECFEF1F
:1005F000D8E0DEBFCDBF11E0A0E0B1E0E2E9F6E671
:1006000002C005900D92A235B107D9F727E0A2E507
:10061000B1E001C01D92A934B207E1F715E0CAEEBE
:10062000D5E004C02297FE010E94CD32C83ED1071A
:10063000C9F70E948D2F0C9447330C940000FB01E6
:1006400005900020E9F7609570956E0F7F1FCB0134
:10065000089504960C941115895B9D4F0C94620FBC
:10066000895B9D4F0C94C90FCF93DF931F92CDB739
:10067000DEB7698341E050E0BE016F5F7F4F0496B3
:100680000E9411150F90DF91CF910895FB01242F47
:100690006091370570913805AF010C948C14FF926E
:1006A0000F931F93CF93DF938C01F62EEC01C95D5E
:1006B000DD4FCE010E948314B801CE010E94D410F8
:1006C000882359F0FF2039F08881807731F0D0936A
:1006D0003805C093370581E001C080E0DF91CF91FC
:1006E0001F910F91FF900895DC01643508F053C00D
:1006F000403308F050C090968C919097342F3595E8
:1007000035953595E62FFF27E7FDF095242F2770C7
:10071000823099F4DF01A65CBA4F84E53802A00D5F
:10072000B11D11248C9190E0022E02C09595879501
:100730000A94E2F78095817009C0833039F4462726
:100740001C968C91482740FF03C014C0811112C031
:1007500084E53802E00DF11D1124E65CFA4F81E0DA
:1007600090E0022E01C0880F0A94EAF780959081EC
:10077000982310C084E53802E00DF11D1124E65CD9
:10078000FA4F81E090E0022E01C0880F0A94EAF748
:100790009081982B90830895A7E5B1E0E0E8F7E712
:1007A00084918D933196E11588E7F807C9F7E2E364
:1007B000F2E0A9E5B1E081918D9382E0EB33F80797
:1007C000D1F767E571E080E897E7EDEFFFE3099483
:1007D0000F9361E08CEF94E00E94552107E024E53F
:1007E00040E060E08CEF94E00E94CB2182E08093B7
:1007F000050581E08093060560E08CEF94E00E949F
:10080000552101E024E547E060E08CEF94E00E9490
:10081000CB210F9108950F9361E08CEF94E00E943B
:10082000552107E024E549E260E08CEF94E00E9466
:10083000CB2182E0809305058AE28093060560E083
:100840008CEF94E00E94552101E024E548E260E04D
:100850008CEF94E00E94CB210F910895CF93DF930A
:10086000EC01BC01882777FD8095982F0E941F031B
:1008700040910005489F9001499F300D1124369505
:1008800027958AE2821B80930505BE018CEF94E0D8
:10089000DF91CF910C94C42FCF93DF9300D0CDB7CD
:1008A000DEB789839A830E94E80389819A810F9039
:1008B0000F90DF91CF910C942E04CF93DF9300D053
:1008C000CDB7DEB789839A830E940B0489819A8110
:1008D0000F900F90DF91CF910C942E04FC010190AA
:1008E0000020E9F73197E81BF90B409100054E9F76
:1008F00090014F9F300D1124369527953AE2321B17
:1009000030930505BC018CEF94E00C94E92FCF9354
:10091000DF9300D0CDB7DEB789839A830E94E803C6
:1009200089819A810F900F90DF91CF910C946E0482
:10093000CF93DF9300D0CDB7DEB789839A830E942F
:100940000B0489819A810F900F90DF91CF910C94C5
:100950006E042F923F924F925F926F927F928F928E
:100960009F92AF92BF92CF92DF92EF92FF920F933E
:100970001F93CF93DF9300D000D0CDB7DEB7582EB2
:10098000662E742E422EB80141E08FE392E00E9461
:100990004603882309F481C0472D50E0495F5F4F2B
:1009A00063E0559547956A95E1F75C834B835B81DE
:1009B000598380E890E06B817C810E946B326B01EF
:1009C0006A83A70160E070E08FE392E00E948012EA
:1009D00000E010E0A42CB12C70E8872E912C202E82
:1009E000041508F054C0822D6A810E944B32392EC2
:1009F000992371F08B819C81389E7001399EF00C97
:100A00001124312CF701E95AFE4F7F01260C3AC020
:100A10007501E01AF10ACE14DF040CF47601F981B5
:100A2000FE9DE02C1124F12CA70167E571E08FE316
:100A300092E00E94EE108E159F05E4F68FE392E09F
:100A40000E9483142AC0832D869586958695F7018A
:100A5000E80FF11D8081992787FD9095232D277040
:100A6000A40102C0559547952A95E2F78423952362
:100A7000892B39F0422D632D650D8CEF94E00E9497
:100A8000740333943710DFCF0F5F1F4FA8CF8FE36E
:100A900092E00E94831481E001C080E00F900F90EB
:100AA0000F900F90DF91CF911F910F91FF90EF90DA
:100AB000DF90CF90BF90AF909F908F907F906F907E
:100AC0005F904F903F902F900895EF92FF920F9379
:100AD0001F93CF93DF93EC0160E08CEF94E00E94D2
:100AE000552100E224E548E060E08CEF94E00E94AC
:100AF000CB2161E08CEF94E00E9455216091E101EF
:100B000089E0689FB00111246E517E4F8FE091E023
:100B10000E9401336EE171E08FE091E00E94F632B5
:100B200080E691E0C89F7001C99FF00CD89FF00C3F
:100B3000112481E5E80EF11C0FE011E020E244E50C
:100B400068E080E00E94A904DF91CF911F910F918E
:100B5000FF90EF900895CF938CEF94E00E94FC20DB
:100B600061E08CEF94E00E945521109256011092A2
:100B700055018EE18093520110925401109253015D
:100B80006091E10189E0689FB00111246E517E4FB0
:100B90008FE091E00E9401336EE171E08FE091E01F
:100BA0000E94F63241E06FE071E08FE392E00E9434
:100BB0004603882389F141E550E067E571E08FE362
:100BC00092E00E94EE108135910531F580915D0132
:100BD000813011F5109271018EE591E00E94870439
:100BE0008091A701809356018FE392E00E948314C5
:100BF0008091550190E00E946505811141C086E118
:100C00008093060583E08093050567ED70E08CEF27
:100C100094E0CF910C94C42F6091E101C9E0C69F8C
:100C2000B00111246E517E4F8FE091E00E9401339C
:100C300069E271E08FE091E00E94F6321092690162
:100C400041E06FE071E08FE392E00E944603809103
:100C50004202882359F042E150E067E571E08FE3FA
:100C600092E00E94B61687E591E007C08091E1010D
:100C7000C89FC00111248E519E4F0E948704B4CF9B
:100C8000CF910895EFE0F1E0A0E080E0811104C091
:100C900090819E32B1F405C0813021F490819E3262
:100CA00081F08F5F823069F491E09A0FB0E0A55235
:100CB000BE4F20812C93933019F41092DE010895D9
:100CC000A92F319691E0EC31F90701F7F6CF6FE0EB
:100CD00071E08FE392E00E94FC1B0E9442066AE2F0
:100CE00071E08BED91E00E941733892B61F063E294
:100CF00071E08FE091E00E94173321E0892B09F029
:100D000020E0822F089580E008950F93482F4695A4
:100D1000469593E1499F402D1124837094E1899F6A
:100D2000602D112404E125E18CEF94E00E94A321C1
:100D30000F9108950F93CF9361E08CEF94E00E94A0
:100D400055218091E001883010F40E94850660E012
:100D50008CEF94E00E9455218091E1010E9485066C
:100D60006091E1016093E00189E0689FB001112486
:100D70006E517E4F8FE091E00E9401336EE171E091
:100D80008FE091E00E94F63241E06FE071E08FE386
:100D900092E00E944603882309F45AC041E550E0DE
:100DA00067E571E08FE392E00E94EE1081359105D6
:100DB00009F04EC080915D01813009F049C0109268
:100DC00071018EE591E00E9498048FE392E00E9409
:100DD00083146091E10189E0689FB00111246E5194
:100DE0007E4F8FE091E00E9401336EE271E08FE070
:100DF00091E00E94F63241E06FE071E08FE392E013
:100E00000E9446038823F1F08FE392E00E9483144E
:100E100060E08CEF94E00E94552108E029E048E270
:100E200060E08CEF94E00E94CB2161E08CEF94E0D5
:100E30000E9455212CE731E048E260E08CEF94E01D
:100E40000E94732383ED94E0CF910F910C94502D69
:100E50006091E101C9E0C69FB00111246E517E4F3F
:100E60008FE091E00E94013369E271E08FE091E050
:100E70000E94F6321092690141E06FE071E08FE369
:100E800092E00E94460380914202882359F042E199
:100E900050E067E571E08FE392E00E94B61687E5C7
:100EA00091E091CF8091E101C89FC00111248E5142
:100EB0009E4F89CF8F929F92AF92BF92CF92DF9237
:100EC000EF92FF920F931F93CF93DF938CEF94E0F9
:100ED0000E94FC2061E08CEF94E00E945521C0E06C
:100EE00027E240E06C2F8CEF94E00E945D21CC5E05
:100EF000C837B1F7C0E020E54C2F60E08CEF94E0FC
:100F00000E948021CD5ECC34B1F761E08FE592E0A4
:100F10000E944F031092DF01C0E0D0E019E041E0F1
:100F200066E874E08FE392E00E94CB13882309F413
:100F30004FC00E946706882309F445C04091DF0135
:100F400041110DC080912C0290912D029E0103E071
:100F5000359527950A95E1F72817390799F5EFE0B8
:100F6000F1E089E0489F900111242E513E4F80E02E
:100F700090E0582F61916E3249F4FC01149FE00D0E
:100F8000F11D1124EE51FE4F108209C0D901A80FA6
:100F9000B91F6C9301968830910559F758E05F5F4F
:100FA000149FF0011124E50FF11DEE51FE4F108248
:100FB0004F5F4093DF01483030F08FE392E00E94B2
:100FC000831406C021968FE392E00E948314A7CF7A
:100FD00061E08CEF94E00E94552180912E02909167
:100FE0002F02029744F107E224E040E060E58CEF35
:100FF00094E00E94A32120912E0230912F0285E2DD
:1010000090E0B9010E946B3201E0060F40912C0282
:1010100050912D0265E2649FC001659F900D1124DF
:10102000B9010E946B3241E0460F23E061E58CEF8D
:1010300094E00E94CB214091DF01242F30E0809189
:10104000E10190E0821793071CF041504093E101C9
:10105000D12CF9E0AF2EA4E19A2EB3E18B2E809132
:10106000DF01D81608F056C0AD9CE0011124CE5126
:10107000DE4FBE018FE091E00E9401336EE171E02E
:101080008FE091E00E94F6321D2D1370199DB02C57
:101090001124CD2CC694C694C89CC02C112461E0A8
:1010A0006C0DEAE1EE2EF12C0FE011E022E143E1BC
:1010B00081E08B0D0E94A90481112AC01B2D1D5FA8
:1010C0001093050582E08C0D8093060544E050E006
:1010D000BE018AE091E00E9408336AE071E08CEF83
:1010E00094E00E94E92F109305058C2D885F809372
:1010F0000605BE016C5F7F4F44E050E08AE091E05E
:101100000E9408336AE071E08CEF94E00E94E92FBE
:10111000D394A5CF88E08093E001DF91CF911F9118
:101120000F91FF90EF90DF90CF90BF90AF909F9086
:101130008F900C949A06CF93DF93EC0187EC90E0AC
:101140000E945D048CEF94E00E940D21C11584E0A3
:10115000D8075CF4CE010E943133882321F060E08F
:10116000CE010E9439332196F1CFDF91CF910895BE
:10117000EF92FF920F931F93CF93DF9362E372E09E
:101180008FE091E00E940133EFE0F1E08081803256
:1011900009F41082319681E0E731F807B9F76EE281
:1011A00071E08FE091E00E94F63241E06FE071E083
:1011B0008FE392E00E944603882391F184EB90E054
:1011C0000E945D048CEF94E00E940D2100E010E08D
:1011D00040E850E067E571E08FE392E00E94EE1096
:1011E0007C0118161906A4F4E8018C2F801B90E0EE
:1011F0008E159F0584F5FC01E95AFE4F6081CE01F2
:101200000E9439332196C11584E0D80774F323C0B6
:101210000115110599F489EA90E00E945D040EC061
:101220008BE990E00E945D0480E090E0DF91CF9137
:101230001F910F91FF90EF900C949B08C8010E94A2
:101240009B088FE392E0DF91CF911F910F91FF9068
:10125000EF900C9483148E01BBCF6091E10189E083
:10126000689FB00111246E517E4F82E392E00E948C
:1012700001330E94CC030E94B80880E090E00E94F5
:1012800065058BE391E00E944C0486E291E00E94A8
:101290005D048CEF94E00E940D2182E392E0EEEF7A
:1012A000FFE30994BF92CF92DF92EF92FF920F93E8
:1012B000CF93DF930E94AB0589E0C82EC3E0D0E056
:1012C00092E2E92EF12CBB24B3942CE0D22E8EEACC
:1012D00094E00E947C278823D1F365E088EB94E0BA
:1012E0000E94AA20811107C066E088EB94E00E946A
:1012F000AA20882359F083ED94E00E94502D80911C
:101300005301882309F4BBC11092530164E088EBB8
:1013100094E00E94AA20882399F083ED94E00E9433
:10132000502D80915401813049F028F0823041F4F1
:10133000B092530105C00E942D0902C08093530151
:10134000809153018823A1F144E164E088EB94E0AB
:101350000E94B320882361F183ED94E00E94502D18
:10136000809154018130C9F56091E101C69EB001C0
:1013700011246E517E4F8FE091E00E9401336EE2A6
:1013800071E08FE091E00E94F63243E06FE071E09F
:101390008FE392E00E944603882341F08FE392E0BE
:1013A0000E9477188FE392E00E9483140E94AB059D
:1013B00061E088EB94E00E94AA20811149C18091EC
:1013C000C0048B3008F45AC043E061E088EB94E03D
:1013D0000E94C12081113CC151C0823049F7609107
:1013E000E10159E0659FB00111246E517E4F8FE0FD
:1013F00091E00E9401336EE171E08FE091E00E9484
:10140000F63243E06FE071E08FE392E00E94460322
:10141000882341F08FE392E00E9477188FE392E0F7
:101420000E9483146091E10189E0689FB00111245A
:101430006E517E4F8FE091E00E94013369E271E0CE
:101440008FE091E00E94F63243E06FE071E08FE3BD
:1014500092E00E944603882309F411C18FE392E0D1
:101460000E9477188FE392E0DF91CF910F91FF9068
:10147000EF90DF90CF90BF900C94831463E088EBE3
:1014800094E00E94AA208111EAC08091C2048B30AE
:1014900040F043E063E088EB94E00E94C1208111BA
:1014A000DEC043E062E088EB94E00E94C120882324
:1014B00029F08091540190E001960CC043E060E077
:1014C00088EB94E00E94C120882349F08091540168
:1014D00090E00296BE010E946B328093540180918D
:1014E0005301882319F085E191E00FC080915401E8
:1014F000813049F028F0823051F48CEE90E005C044
:101500008CE091E002C08CEF90E00E945D0480913D
:101510005601823008F462C080915201882309F498
:101520005DC081508093520160E0811117C08CEF43
:1015300094E00E94552102E225E047E06FE48CEF41
:1015400094E00E94CB2161E08CEF94E00E94552151
:101550008091550190E00E94650540C08CEF94E0B9
:101560000E94552102E225E047E06FE48CEF94E011
:101570000E94CB2161E08CEF94E00E94552100E5B0
:1015800021E047E060E58CEF94E00E94A32103E5B1
:1015900021E047E063E58CEF94E00E94A3212091D5
:1015A000560130E040915501C701B9010E946B32EC
:1015B0006330710514F463E070E001E0060F52E25D
:1015C000459FC0011124B9010E946B3247E0460FCC
:1015D00023E061E58CEF94E00E94CB216091E10172
:1015E000C69EB00111246E517E4F8FE091E00E94A3
:1015F00001336EE271E08FE091E00E94F63241E04B
:101600006FE071E08FE392E00E944603882309F4C3
:101610005ECE8FE392E00E94831460E08CEF94E052
:101620000E94552108E029E048E260E08CEF94E058
:101630000E94CB2161E08CEF94E00E9455212CE7C1
:1016400031E048E260E08CEF94E00E9473233FCEEB
:101650006091560180915501860F815005C080919F
:1016600055018F5F609156010E944B329093550156
:10167000892F90E00E946505D092520112CFDF9130
:10168000CF910F91FF90EF90DF90CF90BF90089592
:10169000C7E08EEA94E00E947C278823D1F364E0BF
:1016A00088EB94E00E94AA20882341F083ED94E027
:1016B0000E94502D0E9452090E945A0743E062E0A6
:1016C00088EB94E00E94C120882311F18091E10110
:1016D0008F5F8093E1019091DF018917B8F010923C
:1016E000E10180912C0290912D02019690932D02A0
:1016F00080932C0220912E0230912F0282179307A3
:101700003CF010922D0210922C0202C00E949A0608
:1017100043E063E088EB94E00E94C120882359F104
:101720008091E1018C5F8093E1019091DF01891745
:1017300048F441E065E088EB94E00E94C1208823F2
:1017400009F4A9C08091E10183708093E101809147
:101750002C0290912D02019690932D0280932C02E1
:1017600020912E0230912F028217930724F01092BD
:101770002D0210922C0243E060E088EB94E00E947E
:10178000C120882319F18091E10181111AC0C09311
:10179000E10180912C0290912D02892B41F48091DE
:1017A0002E0290912F0290932D0280932C02809113
:1017B0002C0290912D02019790932D0280932C0280
:1017C00005C081508093E1010E949A0643E061E0E8
:1017D00088EB94E00E94C120882349F18091E101C7
:1017E000843048F041E065E088EB94E00E94C1203D
:1017F000882309F453C08091E1018C5F8093E1015B
:1018000080912C0290912D02892B41F480912E021F
:1018100090912F0290932D0280932C0280912C02A4
:1018200090912D02019790932D0280932C0220918C
:101830002C0230912D0280912A0290912B022817C0
:10184000390751F00E945A0780912C0290912D0285
:1018500090932B0280932A0261E08CEF94E00E9427
:10186000552180911F0590912005A0912105B091EF
:10187000220587709927AA27BB270497A105B105E0
:1018800028F060E08CEF94E00E9455218091E10106
:101890000E948506FECE0E949A066DCF8091E101DE
:1018A00084508093E1010E949A06C1CFEF92FF928B
:1018B0000F931F93CF93DF93C0E0D0E0CE010E943F
:1018C000313381110FC02196C11584E0D807B1F7DB
:1018D00086E890E0DF91CF911F910F91FF90EF90FC
:1018E0000C945D0462E372E08FE091E00E940133AA
:1018F0006EE271E08FE091E00E94F6328AE790E0BC
:101900000E945D0443E46FE071E08FE392E00E9487
:101910004603811103C088E690E0DCCFC0E0D0E050
:1019200007E511E0FE01E755F1407F01F1E0073DD9
:101930001F0749F0C701800F911F0E943133F80142
:1019400081938F01F3CF40E850E067E571E08FE3CA
:1019500092E00E941115C058DF4FC11584E0D807EE
:10196000F9F68FE392E00E9483148EE690E00E94E5
:101970005D048CEF94E0DF91CF911F910F91FF9068
:10198000EF900C940D218EEA94E00E94372A109279
:10199000CB041092CA048CE080931E0566E871E0C7
:1019A0008EEA94E00E94B9298CEF94E00E94FC201A
:1019B00081E0809302051092C60426E831E04CE0F5
:1019C00060E08CEF94E00E94732385E691E00E9432
:1019D0004C048CEF94E00E940D2124E04AE06DEA73
:1019E00074E086EA94E00E94B30E882309F499C05B
:1019F00086E894E00E94831461E08FE592E00E9403
:101A0000841E882351F06FE572E086E894E00E941E
:101A1000D410882309F485C008C060E08FE592E007
:101A20000E94841E8111EFCF7CC080918604807754
:101A300009F477C086E894E09093380580933705E1
:101A4000E2E8F7E7E491E0933202E3E8F7E7E491B4
:101A5000E0933302E4E8F7E7E491E0933402E5E849
:101A6000F7E7E491E0933502E6E8F7E7E491E093E5
:101A70003602E7E8F7E7E491E0933702E8E8F7E7B2
:101A8000E491E0933802E9E8F7E7E491E093390262
:101A9000E2E3F2E08081803209F41082319682E044
:101AA000EA33F807B9F780913202882321F00E94C7
:101AB000560C0E94CC0361E08FE592E00E944F0338
:101AC00041E066E874E08FE392E00E94CB13882344
:101AD00091F00E946706882349F08091300290912E
:101AE0003102019690933102809330028FE392E0AD
:101AF0000E948314E5CF2091300230913102C90158
:101B0000019797FD079633E0959587953A95E1F70C
:101B1000019690932F0280932E02109203050C944D
:101B20005A0781E591E00E944C048CEF94E00E94FA
:101B30000D21FFCF1092FF041092FE0487E491E084
:101B40009093FD048093FC0410926402109286042A
:101B50001092870489E18093A9041092AC048FE36A
:101B600091E09093600280935F0210923F02109286
:101B7000400210923E0210923D0287E391E0909362
:101B80003C0280933B02089590E022E0281740F049
:101B9000892F806A86958CBD909591709DBD089522
:101BA0009730B0F7220F953010F431E001C032E0E9
:101BB000930FECCF8FEF8EBD0DB407FEFDCF8EB52A
:101BC00008958EBD0DB407FEFDCF089561E0FC01C0
:101BD00082810E942D2F8FEF0C94E10DCF93DF9324
:101BE000EC018C810E94C40D60E08A81DF91CF916D
:101BF0000C942D2FCF92DF92EF92FF920F931F93B1
:101C0000CF93DF93EC018B017A010E94BD2D6B0114
:101C10000E94DA0D8D838F3F49F40E94BD2D6C190F
:101C20007D096D327140A0F381E103C08E3F39F030
:101C30008FE08B83CE010E94E60D80E028C0E11486
:101C4000F104E1F081E0E81AF1088FEF8EBDF801B0
:101C50002FEFCF01801B910B8E159F0538F40DB42B
:101C600007FEFDCF8EB52EBD8193F3CF0DB407FED9
:101C7000FDCF8EB5F801EE0DFF1D80831D820E9401
:101C8000DA0D0E94DA0DCE010E94E60D81E0DF91AF
:101C9000CF911F910F91FF90EF90DF90CF9008951B
:101CA0000F931F93CF93DF93EB010E94BD2D8B0108
:101CB0000E94DA0D8F3F49F00E94BD2D601B710B11
:101CC0006C177D07A8F380E001C081E0DF91CF9120
:101CD0001F910F910895FF920F931F93CF93DF935E
:101CE00000D000D0CDB7DEB78C01F62E29833A8321
:101CF0004B835C830E94EE0D68E572E0C8010E9490
:101D0000500E8F2D80640E94E10D8C810E94E10DA8
:101D10008B810E94E10D8A810E94E10D89810E94E0
:101D2000E10DF11002C085E901C087E80E94E10DD4
:101D30008CE0F81202C00E94DA0DF12C0E94DA0D3C
:101D4000F801858387FF05C0FFEFFF1611F0F394BC
:101D5000F5CF0F900F900F900F90DF91CF911F91C3
:101D60000F91FF900895BF92CF92DF92EF92FF9272
:101D70000F931F93CF93DF93EC01B22E1E821B8231
:101D8000798368834A830E94BD2D8B0161E08A813B
:101D90000E94F42E61E08A810E942D2F2A9A229AB5
:101DA000239A259A80E48C830E94C40D2AE0F22EA7
:101DB0008FEF0E94E10DFA94D9F720E030E0A901FD
:101DC00060E0CE010E946B0E813049F00E94BD2D73
:101DD000601B710B613D774080F381E051C02AEABE
:101DE00031E040E050E068E0CE010E946B0E8530AB
:101DF00011F481E00AC094E0F92E0E94DA0D8D837F
:101E0000FA94D9F78A3A59F482E08E838E8182302F
:101E100079F4C12CD12CE12C80E4F82E0CC00E9466
:101E2000BD2D601B710B613D7740C8F282E028C078
:101E3000C12CD12C760120E030E0A90167E3CE016E
:101E40000E946B0EA701960169E2CE010E946B0E03
:101E5000882349F00E94BD2D601B710B613D7740C6
:101E600050F38AE00DC08E818230E9F420E030E04A
:101E7000A9016AE3CE010E946B0E882339F088E045
:101E80008B83CE010E94E60D80E012C00E94DA0D25
:101E9000807C803C11F483E08E830E94DA0D0E94E6
:101EA000DA0D0E94DA0DCE010E94E60DBC8281E0BF
:101EB000DF91CF911F910F91FF90EF90DF90CF9026
:101EC000BF9008950F931F93CF93DF93EC01890187
:101ED0008E81833039F039E0440F551F661F771F1C
:101EE0003A95D1F79A01AB0161E1CE010E946B0EE8
:101EF00081110AC040E052E0B801CE01DF91CF91DC
:101F00001F910F910C94FA0D84E08B83CE010E94F7
:101F1000E60D80E0DF91CF911F910F9108950F930F
:101F20001F93CF93DF93EC01862F8A010E94E10D6E
:101F3000F80180818EBD818122E030E00DB407FE82
:101F4000FDCF8EBD2115F2E03F0739F0F801E20F19
:101F5000F31F80812F5F3F4FF1CF0DB407FEFDCF00
:101F60008FEF0E94E10D8FEF0E94E10D0E94DA0DCC
:101F70008D838F71853039F083E18B83CE010E9490
:101F8000E60D80E001C081E0DF91CF911F910F91BC
:101F900008950F931F93CF93DF93EC0189018E81F6
:101FA000833039F089E0440F551F661F771F8A95EB
:101FB000D1F79A01AB0168E1CE010E946B0E882334
:101FC00019F086E08B830CC0A8016EEFCE010E9451
:101FD0008F0F182F882321F0CE010E94E60D04C038
:101FE000CE010E94E60D10E0812FDF91CF911F916D
:101FF0000F910895FC018281806882839F01245F94
:102000003F4F4485558566857785868197810C94F9
:10201000951D9F92AF92BF92CF92DF92EF92FF9267
:102020000F931F93CF93DF93EC01888185FF02C04C
:10203000912C5EC088899989AA89BB8981159E4F98
:10204000AF41B105A8F7CE010E94FA0F982E882360
:1020500079F34C855D856E857F858E819F810E9499
:10206000AC1C6B017C018E819F8125E0B701A6012C
:1020700080960E946A1C5C010097D1F280E092E099
:10208000F5019C01119221503040E1F711E0AE8141
:10209000BF8112960C9112971017A0F4ED91FC914C
:1020A00011970280F381E02D9501B701A601410F40
:1020B000511D611D711DCD010995882309F4B8CF0B
:1020C0001F5FE5CF10E020E030E089E0000F111F36
:1020D000221F331F8A95D1F7488959896A897B89DC
:1020E000400F511F621F731F488B598B6A8B7B8B6C
:1020F000892DDF91CF911F910F91FF90EF90DF908D
:10210000CF90BF90AF909F900895CF93DF93EC0155
:10211000262F4C895D896E897F898E819F8180966B
:102120000E946A1C9C01009761F08C819D818F70D8
:10213000992745E0880F991F4A95E1F7820F931F71
:1021400002C080E090E0DF91CF910895CF93DF93BC
:10215000DC01FC0190E048E080E05EE2208120327A
:10216000C1F0983031F4EB01C80FD11D58838F5F57
:1021700040E120813FEB320F3A3130F41C963C9124
:102180001C97342309F0205EEB01C80FD11D288372
:102190008F5F9F5F31969B3009F7FB01E80FF11DC0
:1021A0001082DF91CF910895FC018081811114C0CC
:1021B00080E2DF01982F1D929A95E9F77783668375
:1021C000DB0115969C91903119F0903229F480E44E
:1021D000808381E08283089580E008952F923F926A
:1021E0004F925F926F927F928F929F92AF92BF9227
:1021F000CF92DF92EF92FF920F931F93CF93DF93D3
:1022000000D000D0CDB7DEB79C838B834B017A0121
:10221000DC018C91882309F112969C9190FF1DC0DE
:1022200027C0D380D822A114B10409F09CC0D110DA
:102230009AC0452B462B472B09F47EC0AB81BC814D
:102240001C964D915D916D917C911F9729813A81EA
:10225000CF010E94C41C87FF7EC0AB81BC81119658
:102260008C911197826011968C938FEF9FEFE3C052
:1022700083FF17C0EB81FC81808D918DA28DB38D82
:102280004089518962897389841B950BA60BB70B12
:10229000A70160E070E0481759076A077B07D0F094
:1022A00018C085FF17C0AB81BC811696ED91FC91DB
:1022B00017978681978155E0880F991F5A95E1F706
:1022C00050962D913C915197821B930B8E159F0533
:1022D00008F47C018701EB81FC813C96FA83E98359
:1022E000612C42E0742E0115110509F468C0AB8120
:1022F000BC8150964D915D916D917C9153975A019F
:10230000B1E0BB22EB81FC8120810680F781E02DCA
:10231000DB01CA0139E0B695A795979587953A955F
:10232000D1F725FF7ECF448D558D668D778D480F73
:10233000591F6A1F7B1F2BC026FD02C0EB81FC8149
:10234000848D958DA68DB78DEB81FC8184879587D3
:10235000A687B78708C0811106C0EB81FC81808108
:10236000807769F57ACFAB81BC811C964D915D91E8
:102370006D917C911F9716968D919C9117970E9455
:10238000AC1CAB01BC014D0D511D611D711DEB81DC
:10239000FC8186819781A114B104B1F50115F2E0A9
:1023A0001F0790F1DC0193962D903D904D905C902D
:1023B0009697421553056405750529F425C0C70194
:1023C000801B910B38C0DC01ED91FC910190F081F4
:1023D000E02D94010995882309F43FCFC12CF2E048
:1023E000DF2E8C0C9D1CEB81FC8180899189A28958
:1023F000B3898C0D9D1DA11DB11D808B918BA28B6E
:10240000B38B0C191D096FCF93012A193B09680181
:102410002017310708F4690120E080960E946A1CA9
:10242000009709F41ACFBC016A0D7B1DA601C401F7
:102430000E94ED32D6CF0F900F900F900F90DF914A
:10244000CF911F910F91FF90EF90DF90CF90BF90B1
:10245000AF909F908F907F906F905F904F903F9044
:102460002F900895FF920F931F93CF93DF931F92A6
:10247000CDB7DEB78C01262FFC01408951896289D6
:102480007389DB01CA01E5E0B695A7959795879515
:10249000EA95D1F7F82FFF70FF2E11F0211117C028
:1024A00041E050E0BE016F5F7F4FC8010E94EE1017
:1024B000813019F080E090E01CC0F801408951891A
:1024C00062897389415E5F4F6F4F7F4F05C0405EE9
:1024D0005F4F6F4F7F4FF801408B518B628B738B37
:1024E000F801868197818796F0E2FF9E800D911D0D
:1024F00011240F90DF91CF911F910F91FF900895BC
:102500004F925F926F927F928F929F92AF92BF9203
:10251000CF92DF92EF92FF920F931F93CF93DF93AF
:10252000EC016A017B014C845D846E847F84A88108
:10253000AA2309F48CC0411551056105710529F4E0
:102540001C861D861E861F867CC0A3FF0BC0488D7F
:10255000598D6A8D7B8D4C155D056E057F0508F4E0
:1025600076C014C0A5FF12C0EE81FF8186819781DD
:10257000F5E0880F991FFA95E1F7A0E0B0E0841725
:102580009507A607B70708F462C05BC008891989D8
:102590002A893B89EE81FF81848190E00996B90107
:1025A000A8014150510961097109082E04C07695AE
:1025B0006795579547950A94D2F746015701B1E0C0
:1025C0008B1A9108A108B10804C0B694A7949794F7
:1025D00087948A95D2F784169506A606B70620F04A
:1025E000012B022B032B81F4A6FF05C0848D958D52
:1025F000A68DB78D04C08C8D9D8DAE8DBF8D8C87C3
:102600009D87AE87BF8704C0841A950AA60AB70AB9
:102610008E01045F1F4F81149104A104B10489F05D
:102620004C855D856E857F8598018E819F810E9496
:10263000C41C91E0891A9108A108B10818165CF32E
:1026400006C0C88AD98AEA8AFB8A81E005C04C861E
:102650005D866E867F8680E0DF91CF911F910F911E
:10266000FF90EF90DF90CF90BF90AF909F908F90B2
:102670007F906F905F904F9008958F929F92AF924E
:10268000BF92FF920F931F93CF93DF93EC01F22E33
:1026900080E2DE011D928A95E9F7FB018681978130
:1026A0009F838E835D834C83848C958CA68CB78CA2
:1026B00088869986AA86BB86FC01B7964F705527F7
:1026C000B5E0440F551FBA95E1F7E40FF51F3385C8
:1026D00033FF03C0188280E054C0377138832385EC
:1026E000287111F4386038830B832F2D227319F071
:1026F0002881217179F72F2D2F702A83DC01939681
:102700004D915D916D917C9196974C8B5D8B6E8B0D
:102710007F8B4489558960E070E0BA0155274427D2
:10272000028D138D20E030E0402B512B622B732B58
:10273000F4FE0AC04115510561057105E9F00E94DA
:10274000371E811119C0C6CF4C8F5D8F6E8F7F8F62
:10275000448D558D668D778D488F598F6A8F7B8F0D
:10276000F5FE0EC0488D598D6A8D7B8DCE010E947D
:102770008012811105C0AECF8A8180688A83F0CF34
:1027800081E0DF91CF911F910F91FF90BF90AF90AB
:102790009F908F9008958F929F92AF92BF92DF92F9
:1027A000EF92FF920F931F93CF93DF937C01EB0186
:1027B000D42EFC018081811138C088818077A9F1F5
:1027C000088919892A893B890F7111272227332704
:1027D000012B022B032B49F500E010E08888998833
:1027E000AA88BB8860E0CE010E9432120097E9F00F
:1027F000FC0120812223C9F02E3211F400E0EECF3B
:10280000253EE1F3338533FD07C0002381F00E94AC
:10281000771618130AC00BC03F3081F726FFDECFB2
:10282000022F0F71FC011585D9CF80E00EC0B501D4
:10283000A40115E076956795579547951A95D1F7B8
:102840002D2DBE01C7010E943D13DF91CF911F9135
:102850000F91FF90EF90DF90BF90AF909F908F907F
:1028600008950F931F93CF93DF93EC018881882302
:1028700009F443C08A8187FF38C061E0CE010E941D
:1028800085108C01009729F489818160898380E01B
:1028900035C0FC018081853EB9F3888183FF08C083
:1028A000488D598D6A8D7B8D448F558F668F778FBC
:1028B0004C8D5D8D6E8D7F8DF801538F428F758BA2
:1028C000648BE0913505F0913605309759F0B801E9
:1028D0006A5E7F4FC80148960995F801808D918DF9
:1028E000938B828B8A818F778A838E819F8180965A
:1028F0000E94171C882341F201C081E0DF91CF9133
:102900001F910F910895CF93DF93EC010E94311432
:102910001882DF91CF910895CF92DF92EF92FF92CC
:102920000F931F93CF93DF93CDB7DEB7E3970FB627
:10293000F894DEBF0FBECDBF8C017B015BAB4AAB11
:10294000D22E19821A82FC018081882311F080E046
:1029500059C0FB0180818077D1F3EAA9FBA980816E
:102960008F32D9F4EAA9FBA980818F3221F4319604
:10297000FBABEAABF7CFF70166817781811104C029
:10298000C8010E94D4103EC0CE0101960E94D4100E
:102990008823E9F2CE0101967C0150E2C52EAE01FA
:1029A0004E5C5F4FBE016F5D7F4F8AA99BA90E945D
:1029B0007C17882361F2EAA9FBA980818823D1F0E2
:1029C00021E0AE014F5D5F4FB701C8010E94B01911
:1029D000882309F4BCCFF801DE0111968C2D0190FB
:1029E0000D928A95E1F7C8010E948314FE01319689
:1029F0007F01D5CF2D2DAE014F5D5F4FB701C801CF
:102A00000E94B019E3960FB6F894DEBF0FBECDBF9B
:102A1000DF91CF911F910F91FF90EF90DF90CF90BA
:102A200008952F923F924F925F926F927F928F9272
:102A30009F92AF92BF92CF92DF92EF92FF920F934D
:102A40001F93CF93DF93EC015B014A01888183FFE1
:102A50000EC08A8181FF0BC082FF0FC0488D598D47
:102A60006A8D7B8DCE010E948012811106C0898102
:102A7000816089838FEF9FEF06C1A40160E070E061
:102A800088899989AA89BB8980959095A095B095E8
:102A900084179507A607B70750F364011E012CE0C1
:102AA000220E311C488959896A897B89C114D10455
:102AB00009F4C7C08E819F812A013B0129E07694E9
:102AC0006794579447942A95D1F7DC0113961C918B
:102AD00014217A01B1E0FB22111134C0E114F10498
:102AE00089F54C855D856E857F85411551056105AC
:102AF000710569F091010E94C41C87FDB8CF811156
:102B000021C0CE010E94FA0F81111CC0B0CF8C8D64
:102B10009D8DAE8DBF8D0097A105B10579F4CE01D5
:102B20000E94FA0F882309F4A2CF8C859D85AE857B
:102B3000BF858C8F9D8FAE8FBF8F04C08C879D8784
:102B4000AE87BF874C855D856E857F858E819F8131
:102B50000E94AC1CAB01BC01410F511D611D711DD8
:102B6000EE81FF81E114F10421F4C11422E0D206C8
:102B7000B8F580E092E08E199F0986018C159D05BD
:102B800008F48C01E114F10479F4488859886A88C2
:102B90007B88888D998DAA8DBB8D481659066A064B
:102BA0007B0610F025E001C021E0CF0180960E9455
:102BB0006A1C009709F45BCFA801B5018E0D9F1D1B
:102BC0000E94ED32E00EF11EE11482E0F80641F5BC
:102BD0008E819F8180960E94171C811121C047CF52
:102BE00083A194A1A5A1B6A184179507A607B7074D
:102BF00041F410A28FEF9FEFDC0183A394A3A5A360
:102C0000B6A38E819F81DC01ED91FC910280F3815E
:102C1000E02D95010995882309F429CF00E012E001
:102C200088899989AA89BB89800F911FA11DB11D2F
:102C3000888B998BAA8BBB8BA00EB11EC01AD10AB0
:102C400031CF888D998DAA8DBB8D2A8184179507E8
:102C5000A607B70728F4488F598F6A8F7B8F06C065
:102C60008091350590913605892B11F020682A83D3
:102C70008A8183FD02C0C40106C0CE010E943114C6
:102C80008111F9CFF4CEDF91CF911F910F91FF9079
:102C9000EF90DF90CF90BF90AF909F908F907F90FC
:102CA0006F905F904F903F902F900895653040F463
:102CB000FC01E60FF11DE60FF11D8181928108955F
:102CC0006B3040F4FC01E60FF11DE60FF11D84812D
:102CD00095810895613140F4FC01E60FF11DE60F86
:102CE000F11D86819781089580E090E00895FC01B0
:102CF00090E080E080FB879587F92191820F9F5FAC
:102D00009B30C1F70895CF93DF93FC01DB01189648
:102D10004D915D916D917C911B97452B462B472BD7
:102D200041F416966D917C911797DF91CF910C9499
:102D3000D41080E2EF0119928A95E9F780E180834F
:102D400081E0828316968D919C9117979783868355
:102D500018964D915D916D917C911B97448F558F85
:102D6000668F778F81E0DF91CF9108952F923F9208
:102D70004F925F926F927F928F929F92AF92BF928B
:102D8000CF92DF92EF92FF920F931F93CF93DF9337
:102D9000CDB7DEB7A1970FB6F894DEBF0FBECDBF9B
:102DA0008C016B015A0119821A82FC018081811108
:102DB00004C0F6011082412C85C04D305105C8F386
:102DC000F8018381811106C0B601C8010E94FC1B75
:102DD000482E78C0B801CE0101960E948316882340
:102DE00041F35524539446018A0C9B1C21E0821A1E
:102DF0009108F80183818515E0F2652C712CF801AA
:102E0000448155814619570960E070E085E0440F20
:102E1000551F661F771F8A95D1F7CE0101960E9434
:102E20008012482E882329F260E0CE0101960E948C
:102E300032127C01009709F4BCCFFC0183858F30EE
:102E400009F0B7CF80818F7190E06816790609F09C
:102E5000B0CFC3010197FDE0F89F3001F99F700CDE
:102E600011241601260C371C50E0652FC70159A309
:102E70000E94561659A1009791F06A147B04D0F471
:102E80002FEF621A720A8F37910510F4282F01C0B4
:102E90002FE3F10121931F015F5F5D3031F76A1469
:102EA0007B0440F4F701808186FF04C0F601E60D43
:102EB000F71D1082F4011082F701808186FD02C0A7
:102EC000539497CF842DA1960FB6F894DEBF0FBE12
:102ED000CDBFDF91CF911F910F91FF90EF90DF90C9
:102EE000CF90BF90AF909F908F907F906F905F90AA
:102EF0004F903F902F900895CF92DF92EF92FF92E4
:102F00000F931F93CF93DF93FB01DC0101962C916C
:102F10002032D9F3B483A383ED01BE016A1B7B0B7E
:102F20008991811105C0CD01860F971FEC0118C052
:102F30008F32C9F38C3511F480E0D0C0982F977F81
:102F40009232D1F38A33C1F3982F9F7B9C33A1F344
:102F500092EC980F923080F380528F35F0F2ECCFE4
:102F60001C2F3D2F29912032D9F32F32C9F3EA01CA
:102F700018833983EC016115710561F08A918E32F5
:102F800011F0803219F461507109F5CF6F3F71056E
:102F900009F094F67283618380E090E020E2EF0113
:102FA000C80FD91F2E8301968B309105C1F7ED0113
:102FB000CE018A1B9B0B29912E32D1F32032C1F313
:102FC00051E0009709F050E09B012150310938F49D
:102FD00007E010E0C12CF12CC8E0EC2E0FC0ED0191
:102FE000C20FD31F48814E3281F7F2CFED01C80FD7
:102FF000D91F4881403231F450E001968617970777
:10300000ACF343C04E3221F428173907A9F704C0A6
:103010004232A1F04C3791F0C6EDC40FC63010F427
:103020004D3261F4C6ECC40FC63040F0C5EAC40F9F
:10303000C33020F0CFEDC40FCE3530F082179307A8
:1030400009F150E04FE503C082179307D9F001174B
:10305000D0F1CFE9C40FCA3118F44052FE2805C0A0
:10306000CFEBC40FCA3108F4CE28DD24D394D10E9F
:10307000EF01C10FD11D4E8346E04D1508F0D582FA
:103080001D2DBBCF0A30C9F450E08681803209F48F
:1030900053CF552339F0CF2011F082E001C08F2D9E
:1030A000808309C081E080838581E80FF11D8EE770
:1030B000868381E3878381E011C0C9010AE018E0BB
:1030C00040E1E42E9ACF0A30F9F228173907E4F2EA
:1030D000C9010AE018E050E1E52E8ECFDF91CF91D3
:1030E0001F910F91FF90EF90DF90CF900895BF92C6
:1030F000CF92DF92EF92FF920F931F93CF93DF93C4
:10310000CDB7DEB7A0970FB6F894DEBF0FBECDBF28
:103110008C0119821A82DC018C9183FD02C080E04F
:1031200089C0F801828181FFFACF448D558D668D6B
:10313000778D411551056105710549F0D801169645
:103140008D919C9117970E94371E882341F361E06F
:10315000C8010E9485107C01009709F30E94771630
:10316000D82E85EEF7018083D8011C9216968D919A
:103170009C91179780960E94171C882381F2F80172
:103180009381992309F456C0B801CE0101960E949B
:103190008316882321F2BB24B39425EEC22EF801B6
:1031A00083818B1508F4BBCFEB2CF12CD80114963E
:1031B0004D915C9115974E195F0960E070E095E0C4
:1031C000440F551F661F771F9A95D1F7CE010196C0
:1031D0000E948012882309F4A2CF60E0CE010196FC
:1031E0000E943212FC01009709F499CF83858F3039
:1031F00009F095CF2081822F8F7190E0E816F906B3
:1032000009F08DCF8585D8128ACFC082D801169655
:10321000ED91FC91179780A1816080A326FF08C0E3
:1032200016968D919C91179780960E94171C02C04C
:10323000B394B5CFA0960FB6F894DEBF0FBECDBF46
:10324000DF91CF911F910F91FF90EF90DF90CF9082
:10325000BF900895AF92BF92CF92DF92EF92FF920C
:103260000F931F93CF93DF937C01EB01AD8002E0BE
:1032700010E07EE7B72E6E0186E0C80ED11C898172
:103280009A819801280F391FEB81FC81AF01480F0B
:10329000591FE417F50779F0C90165E0880F991FF8
:1032A0006A95E1F7820F931F2191332727FD30950F
:1032B00028273927EECFE3E0EA1510F453E0A52ED6
:1032C00084E08A0D922F9F70E82FF0E09A3010F47E
:1032D000905D01C0995CEC0FFD1F968344E036952C
:1032E00027954A95E1F78150A81660F3FE01EA0D93
:1032F000F11DB68240E050E0BA01C7010E94801281
:1033000061E0C7010E943212BC01009731F481E0F4
:10331000F70191819923C9F017C0FC0180818823AE
:1033200059F0838583FDECCF4BE050E0C6010E944D
:10333000E032892B29F702C081E007C00F5F1F4FE1
:103340000436110509F09BCF80E0DF91CF911F91EA
:103350000F91FF90EF90DF90CF90BF90AF900895C6
:103360002F923F924F925F926F927F928F929F9295
:10337000AF92BF92CF92DF92EF92FF920F931F9383
:10338000CF93DF93CDB7DEB72B970FB6F894DEBFA0
:103390000FBECDBF3C017B876A877A012A83DA01A1
:1033A00011968D909C901297FB018081807711F48B
:1033B00080E0F3C1D3018C918111FACFFA018081B1
:1033C000837009F4E1C1C4010C966DE070E00E94C5
:1033D000573255245394560E40E050E0BA018A8586
:1033E0009B850E9480121C821D821982412C10E054
:1033F00000E01B821701B6E02B0E311CAA85BB85AD
:1034000050962D913D914D915C91539765E0569565
:103410004795379527956A95D1F7590161E0CD0118
:1034200028873E8349875F830E9432126C0128857A
:103430003E81009739F4EA85FB858181882309F470
:1034400088C0B6CFDC018C91853E11F081110AC095
:10345000111102C02C833D83151508F41F5F8111E3
:1034600004C077C0151528F005C0853E19F400E0AA
:10347000C5CF10E08E32D9F3F60193859F3009F065
:1034800046C0011108C086FFB9CF082F0F712585EE
:103490002983402E07C04A948411E9CF858529816C
:1034A0002813E5CF842D90E00197ADE0A89F50014F
:1034B000A99FB00C1124A814B904C8F620E0622F0B
:1034C000C60128870E9456162885A814B90419F445
:1034D000892B69F693CF8F3F910509F040F63FEBBA
:1034E000380F3A3108F4805EA5014F5F5F4FD70176
:1034F0001396ED91FC911497EA0DFB1D90813FEB23
:10350000390F3A3108F4905E8913B1CF40C193FD71
:10351000AECF002351F0B1E04B124ACFC6010E945A
:1035200077162981821344CF10C04BE050E0B101DF
:10353000C6010E94E032892B09F060CFD7018C913F
:1035400080FF03C021E02B8359CF2A8127FF14C1BC
:103550002FCF8A818274823409F02ACF112359F047
:10356000AC80BD8008C060E08A859B850E943212D5
:10357000892B21F01F5F1515B0F318C0AA85BB85F4
:1035800011968C91882391F013CF8A859B850E9498
:103590000910882309F40CCFAA85BB851696ED91F6
:1035A000FC9117978281823018F4105F151568F32B
:1035B0002B81222341F0B7018A859B850E942A191D
:1035C000882309F4F5CEA50160E070E025E0440F02
:1035D000551F661F771F2A95D1F78A859B850E9404
:1035E0008012882309F4E4CE0FEF050D102F8FE031
:1035F000482E670186E0C80ED11C9DE0592E49C0B7
:1036000060E08A859B850E9432125C01009709F474
:10361000CFCEAA85BB851696ED91FC91179780A118
:10362000816080A3412F101301C04064F5014083E5
:1036300043861486C60149870E947716D5011D96D8
:103640008C931D975B961C921E925A97F7012381CB
:10365000348149854F7150E041505109549EC00159
:10366000559E900D1124F50160E088159905A0F490
:10367000D901A80FB91F4C91552747FD50956530CA
:10368000B0F4528341836F5F019632966D3069F7D3
:1036900011501111B5CF13C041E050E088159905C4
:1036A00011F440E050E0519541955109E8CF6B305D
:1036B00018F455834483E7CF57834683E4CFEA85E4
:1036C000FB8580899189A289B38915E0B695A79574
:1036D000979587951A95D1F75C0160E0CF010E941C
:1036E00032126C01009709F463CE80E2D6011D927C
:1036F0008A95E9F7F70136968BE0D60101900D9295
:103700008A95E1F7F70180818871D6011C968C9328
:10371000E0913505F0913605309739F0B601625FDA
:103720007F4FC6014096099509C081E298E2F601F3
:10373000918B808B80E098E097878687D6015096A2
:103740008D919C91519753969C938E935297599635
:103750009C938E9358971E968D919C911F97579688
:103760009C938E935697AA85BB851696ED91FC91F6
:10377000179780A1816080A32A81A5016A857B8536
:10378000C3010E943D1309C05524539425CE2F5FD9
:103790002D3009F433CE5A0192CE2B960FB6F89401
:1037A000DEBF0FBECDBFDF91CF911F910F91FF9074
:1037B000EF90DF90CF90BF90AF909F908F907F90D1
:1037C0006F905F904F903F902F9008956115710515
:1037D00081F0DB010D900020E9F7AD014150510966
:1037E000461B570BDC01ED91FC910280F381E02D2B
:1037F000099480E090E00895CF93DF93EB01FC0102
:103800002081211102C080E00FC0207621F08FE2DC
:103810008883198208C060E00E948510009799F3A0
:10382000BE010E94A61081E0DF91CF910895BF9262
:10383000CF92DF92EF92FF920F931F93CF93DF937C
:10384000EC01888180FF39C089819A818E01095FEE
:103850001F4FDC01ED91FC914B815C816D817E817C
:103860000280F381E02D98010995B82E811102C0E4
:10387000B12C25C0888181FD04C088818E7F88831A
:103880001EC0A981BA81ED91FC9111971C964D91B2
:103890005D916D917C911F97CB80DC80ED80FE80E7
:1038A0004C0D5D1D6E1D7F1D0280F381E02D980182
:1038B000CD0109958111E1CFDBCFBB24B3948B2DD2
:1038C000DF91CF911F910F91FF90EF90DF90CF90FC
:1038D000BF900895CF92DF92EF92FF921F93CF9304
:1038E000DF93EC016A017B01122F4B815C816D81BA
:1038F0007E814C155D056E057F0501F10E94171C48
:10390000811103C080E090E01FC012FF06C0188242
:10391000CB82DC82ED82FE8211C089819A81DC013A
:10392000ED91FC910190F081E02D9E01295F3F4FC8
:10393000B701A60109958111EACFE4CF1370888100
:10394000812B8883CE010796DF91CF911F91FF9045
:10395000EF90DF90CF9008954250510961097109AD
:10396000FC01048004C0440F551F661F771F0A9492
:10397000D2F780899189A289B389480F591F6A1F9C
:103980007B1FCB01BA010895CF92DF92EF92FF9295
:103990000F931F93CF93DF93EC016A017B018901A1
:1039A0008D81803251F5E7E076956795579547957B
:1039B000EA95D1F78C899D89AE89BF89480F591F37
:1039C0006A1F7B1F22E0CE0180960E946A1C00972E
:1039D00011F48FEF40C0E894C7F8DD24EE24FF24F3
:1039E000F601EE0FFF1FEE0FFF1FE80FF91F4081DA
:1039F0005181628173817F701DC0803151F74C8984
:103A00005D896E897F894D0D511D611D711D22E0FB
:103A1000CE0180960E946A1C0097D9F2DD24EE2424
:103A2000FF24F601EE0FFF1FE80FF91F40815181BF
:103A300060E070E0888D998DAA8DBB8D8417950705
:103A4000A607B70738F0F801408351836283738378
:103A500081E001C080E0DF91CF911F910F91FF9035
:103A6000EF90DF90CF9008958F929F92AF92BF9288
:103A7000CF92DF92EF92FF920F931F936A017B0127
:103A800048015901FC012581203231F517E0769576
:103A90006795579547951A95D1F704891589268911
:103AA0003789400F511F621F731F23E080960E94C9
:103AB0006A1C009799F0E894C7F8DD24EE24FF24EF
:103AC000F601EE0FFF1FEE0FFF1FE80FF91F8082B8
:103AD0009182A282B3821DC0203111F080E01AC011
:103AE000FC0144895589668977894D0D511D611DF9
:103AF000711D23E080960E946A1C009779F3DD24F3
:103B0000EE24FF24F601EE0FFF1FE80FF91F91824C
:103B1000808281E01F910F91FF90EF90DF90CF9016
:103B2000BF90AF909F908F9008953F924F925F9279
:103B30006F927F928F929F92AF92BF92CF92DF92BD
:103B4000EF92FF920F931F93CF93DF93CDB7DEB722
:103B500028970FB6F894DEBF0FBECDBF9E838D832E
:103B60002A013B0138872F834115510561057105F5
:103B700031F4FC0180849184A284B38402C04A01A0
:103B80005B0175016401FFEFCF1ADF0AEF0AFF0A3C
:103B9000ED81FE81808D918DA28DB38D8C159D055B
:103BA000AE05BF0528F402E0C02ED12CE12CF12C8B
:103BB0009E012F5F3F4FB701A6018D819E810E941C
:103BC000C41C87FD1DC0882341F089819A81AB8187
:103BD000BC81892B8A2B8B2B31F0C814D904EA04C1
:103BE000FB0489F60DC00FEF1FEF2FEF3FE0B70189
:103BF000A6018D819E810E94341D382E811102C044
:103C0000312C1CC0411451046104710459F0970116
:103C10008601B301A2018D819E810E94341D811114
:103C200007C0EECFED81FE81C086D186E286F386A5
:103C3000EF81F885C082D182E282F382832D2896BB
:103C40000FB6F894DEBF0FBECDBFDF91CF911F91AD
:103C50000F91FF90EF90DF90CF90BF90AF909F902B
:103C60008F907F906F905F904F903F9008959F92BC
:103C7000AF92BF92CF92DF92EF92FF920F931F937A
:103C8000CF93DF9300D000D0CDB7DEB75C016A01DF
:103C90007B019E012F5F3F4FB701A601C5010E9426
:103CA000C41C982E87FF02C080E01EC000E010E018
:103CB0009801B701A601C5010E94341D8823A1F314
:103CC000F5014085518562857385C416D506E606E3
:103CD000F70620F4C086D186E286F386C980DA80B2
:103CE000EB80FC809110D5CF0F900F900F900F902C
:103CF000DF91CF911F910F91FF90EF90DF90CF90C8
:103D0000BF90AF909F900895CF92DF92EF92FF9275
:103D10000F931F93CF93DF93EC01162F1D8281E049
:103D200090E0A0E0B0E088879987AA87BB87DAA3F4
:103D3000C9A318A28FEF9FEFDC018BA39CA3ADA3B7
:103D4000BEA3662321F1653008F0BFC020E040E04B
:103D500050E0BA01CE0180960E946A1C009709F4D7
:103D6000B4C0FC0100E1109FE00DF11D1124E255EB
:103D7000FE4F80818F7709F0A8C0C084D184E2848F
:103D8000F384C114D104E104F10421F49EC0C12CD8
:103D9000D12C760120E0B701A601CE0180960E94C9
:103DA0006A1CFC01009709F490C0838594858115F5
:103DB000924009F08AC08089823009F086C08685E9
:103DC0009785892B09F481C035853A838FEF830F5E
:103DD0008B831C8289E090E021E0321741F001974B
:103DE00009F473C0220F4C814F5F4C83F6CF468994
:103DF00057894115510519F060E070E004C044A1F5
:103E000055A166A177A14C875D876E877F878685E0
:103E1000978597018601080F191F211D311D0C8BF5
:103E20001D8B2E8B3F8B818992899F838E83440FBC
:103E3000551F661F771F400F511F621F731F4C8F46
:103E40005D8F6E8F7F8FB5E0880F991FBA95E1F770
:103E500081509E4F892F99278695480F591F611DC4
:103E6000711D488B598B6A8B7B8B83899489009752
:103E700019F0A0E0B0E004C080A191A1A2A1B3A17B
:103E800097018601041B150B260B370BB901A801FE
:103E9000480F591F6A1F7B1F0C8004C076956795D9
:103EA000579547950A94D2F7DB01CA010196A11DE7
:103EB000B11D888F998FAA8FBB8F453F1FE0510797
:103EC0006105710520F48CE08D8380E012C0453FD0
:103ED0005F4F6105710510F480E109C084A595A5C7
:103EE000A6A5B7A58C8F9D8FAE8FBF8F80E28D83E7
:103EF00081E0DF91CF911F910F91FF90EF90DF90C4
:103F0000CF900895CF93CFB7F89480913905811160
:103F100027C0EFEBF5E08491EBEAF5E09491E82F10
:103F2000F0E0EE0FFF1FE352FA4FA591B4918C9190
:103F3000892321F461E08AE00E942D2F61E08AE06C
:103F40000E94F42E8CB580618CBD8CB580648CBDD4
:103F500061E08DE00E94F42E61E08BE00E94F42E7F
:103F6000809139058F5F80933905CFBFCF91089538
:103F700021E0FC012083089570E085E00C946C2E14
:103F8000AF92BF92CF92DF92EF92FF920F931F9367
:103F9000CF93DF93EC0189819A812FE0289F8001E4
:103FA000299F100D112485E10E944F2E800F911F33
:103FB00024E0969587952A95E1F79A83898328814D
:103FC000222391F1AC81AD80B12CC12CD12CE8859C
:103FD000F9857F0100E010E06E817F819B0140E068
:103FE00050E08617970728F0BC01E817F90708F496
:103FF000BF0180E090E01F921F921F92AF930E943A
:10400000D6306B830F900F900F900F9070E085E08B
:10401000DF91CF911F910F91FF90EF90DF90CF90A4
:10402000BF90AF900C946C2EDF91CF911F910F91A8
:10403000FF90EF90DF90CF90BF90AF900895FC017C
:104040008CE39FE09383828384E0818381E0848793
:104050000895CF93DF93EC018C819D81892B81F1B1
:104060008C858F7151F584E10E944F2EBC01882709
:1040700077FD8095982F0E944C3126EE3FE34EEC61
:1040800050E40E94D8310E941E319B017B836A83D9
:104090006115710581F084E08983FE0140E084812F
:1040A00095812817390710F449830AC04F5F32966B
:1040B0004430A9F702C08FEF89838C858F5F8C878E
:1040C000DF91CF910895FC0188E0808389E08183AE
:1040D00087E0828386E0838384E0848382E0858333
:1040E00081E186830895DF92EF92FF920F931F93F1
:1040F000CF93DF937C01EC0100E010E0DD24DA9443
:1041000062E088810E94F42E88810E94632FF7016B
:10411000E00FF11F892B21F487818F5F878308C00F
:104120008781882349F08F3F11F4178201C0D7821D
:1041300060E088810E94F42E0F5F1F4F21960730A8
:104140001105F1F6DF91CF911F910F91FF90EF9044
:10415000DF900895FC01E60FF11D81E09781913019
:1041600009F080E00895860F911DFC01278130E061
:1041700050E04F5F5F4F81E02417350709F080E082
:104180000895262F30E0FC01E20FF31F87814230B3
:1041900028F481508E3F48F080E008958F3FE1F38E
:1041A000642F0E944B329130B9F781E008958EBDA3
:1041B00000000DB407FEFDCF8EB508951F93CF9379
:1041C000DF93EC01162FF89460E08F850E942D2F6D
:1041D000888918161CF460E00E942D2F812F0E9400
:1041E000D720888918161CF461E00E942D2F78943E
:1041F000DF91CF911F91089528EF31E0EAE3F5E0D8
:10420000DF01A9011D9241505040E1F7DC011996F0
:104210001C9219971A961C920895DF92EF92FF92C2
:104220000F931F93CF93DF93EC018C858F5F8C8767
:104230008AE3E82E85E0F82ED12C6D2D6064CE0146
:104240000E94DE2060E8CE010E94DE2061E08F85C2
:104250000E942D2F888918161CF460E00E942D2FD3
:1042600000E010E0F701E00FF11F80810E94D720ED
:104270000F5F1F4F04351105A9F7888918161CF424
:1042800061E00E942D2FD39484E5E80EF11C86E0B6
:10429000D812D3CF60E4CE01DF91CF911F910F915F
:1042A000FF90EF90DF900C94DE20FC0160A361A3EF
:1042B0000895FC0160A341A30895CF92DF92FF927D
:1042C0000F931F93CF93DF931F92CDB7DEB76C018F
:1042D000062FF42E10E0121754F4412F4F0D602FCB
:1042E000C60129830E9474031F5F2981F4CF0F90B8
:1042F000DF91CF911F910F91FF90DF90CF900895A4
:10430000CF92DF92FF920F931F93CF93DF931F9271
:10431000CDB7DEB76C01062FF42E10E0121754F45F
:10432000612F600F4F2DC60129830E9474031F5F08
:104330002981F4CF0F90DF91CF911F910F91FF90C2
:10434000DF90CF900895EF92FF920F931F93CF933A
:10435000DF93EC01F62E142FE22E0E9480214FEF06
:10436000400F410F2E2D6F2DCE010E948021202F56
:10437000412F6F2DCE010E945D216FEF6E0D6F0DED
:10438000202F412FCE01DF91CF911F910F91FF90F0
:10439000EF900C945D21DF92EF92FF920F931F93A9
:1043A000CF93DF93EC01E62ED22EF42E112707FDDA
:1043B0001095040F111D47FD1A958F2D992787FD24
:1043C00090958017910744F42D2D4F2D6E2DCE0121
:1043D0000E948021F394F1CFDF91CF911F910F9133
:1043E000FF90EF90DF9008958F929F92AF92BF92CF
:1043F000CF92DF92EF92FF920F931F93CF93DF93B1
:10440000EC01E62ED42E122FCC24C394C21AB22E65
:10441000B194BB0CF12C802F8470A82E802F827059
:10442000982E802F8870882E0170F1160CF04DC0E8
:10443000C7FC04C01150B394B394CB0CF3948F2DEC
:10444000880F8F5FC80EAA2071F0412F4D0D6F2D80
:104450006E0DCE010E9474034F2D4D0D612F6E0D18
:10446000CE010E947403992071F04D2D411B6F2DD8
:104470006E0DCE010E9474034D2D4F19612F6E0DEC
:10448000CE010E947403882071F04F2D4D0D6E2DCA
:10449000611BCE010E947403412F4D0D6E2D6F19CB
:1044A000CE010E947403002309F4BFCF4D2D4F1994
:1044B0006E2D611BCE010E9474034D2D411B6E2D8C
:1044C0006F19CE010E947403B0CFDF91CF911F917D
:1044D0000F91FF90EF90DF90CF90BF90AF909F90A3
:1044E0008F9008958F929F92AF92BF92CF92DF925A
:1044F000EF92FF920F931F93CF93DF93EC01B62EB1
:10450000A42E122FDD24D394D21AC22EC194CC0C27
:10451000FF24F394802F8170882E992493949E0C0D
:1045200002708FEF8F0D8117C4F5D7FC04C01150B6
:10453000C394C394DC0C8F2D880F8F5FD80E882016
:1045400099F0212F220F290D4A2D411B6F2D6B0D44
:10455000CE010E945D2123E02E0D4A2D4F19612FBF
:104560006B0DCE010E945D21002399F0212F220FB7
:10457000290D4A2D411B6B2D6F19CE010E945D2123
:1045800023E02E0D4A2D4F196B2D611BCE010E9489
:104590005D21F394E394E394C4CFDF91CF911F9115
:1045A0000F91FF90EF90DF90CF90BF90AF909F90D2
:1045B0008F9008959F92AF92BF92CF92DF92EF9229
:1045C000FF920F931F93CF93DF93EC01B62EF42E3F
:1045D000A22EDE2CD194DD0C9D2C920E1E2D160FDA
:1045E000292D612F0E948021CC24CA94C00ECF0CAB
:1045F000292D4C2D612FCE010E948021D00EFE0C62
:104600002D2D4F2D6B2DCE010E945D21BA0C6FEF29
:104610006B0D2D2D4F2DCE010E945D2101E02E2D21
:104620004F2D612FCE010E94F421DE2CD094DB0CA3
:1046300002E02E2D4F2D6D2DCE010E94F421CE18BB
:1046400004E02E2D4C2D6D2DCE010E94F42108E0AA
:104650002E2D4C2D612FCE010E94F421DF91CF91A0
:104660001F910F91FF90EF90DF90CF90BF90AF9090
:104670009F900895AF92BF92CF92DF92EF92FF92F8
:104680000F931F93CF93DF93EC01A62EC42EB22E6F
:10469000F02E1E2DE194EE0CD12ED60E2E2D2B0DCC
:1046A0006D2D0E94CB21FA94FE0CC10E6FEF6A0DA6
:1046B0006B0D611BEF2C01E0212F4C2DCE010E94D0
:1046C000722202E0212F4C2D6D2DCE010E9472220C
:1046D000DF91CF911F910F91FF90EF90DF90CF90DE
:1046E000BF90AF9008956F927F928F929F92AF92FA
:1046F000BF92CF92DF92EF92FF920F931F93CF93CF
:10470000DF93F901A49031965491FC01F0A0643537
:104710000CF00CC1BB24A7FCB094A62FBB27A7FDAF
:10472000B095FD01EA0DFB1D1E161F060CF0FEC024
:1047300040330CF0FBC0C52E042F112707FD109548
:10474000E801C50FD11D57FDDA951C161D060CF0AA
:10475000EDC0E90122969501295F3F4F37FF02C066
:10476000295F3F4F73E0359527957A95E1F747FF2D
:104770000AC0C52EC40E209FA001219F500D1124F8
:10478000C41BD50B40E00C2D112707FD1095040F1D
:10479000111D47FD1A95013311051CF070E3C72E5A
:1047A000C41A67FD60E0E535F10514F0E4E5F0E0DA
:1047B0001E2FFC0174857427862F992787FD9095FD
:1047C000FC01EA1BFB0BDF015F01F7E0AF22BB241A
:1047D000E0E8F0E002C0F595E795AA94E2F70E2F25
:1047E000B7FD179653E0B595A7955A95E1F7AC0F2D
:1047F000BD1FE42FE77051E001C0550FEA95EAF7BD
:10480000459545954595E4E54E02800D911D112491
:10481000865C9A4F40E0DD24C7FCD094BB24B3945F
:104820003327E42FF0E0EC15FD050CF07FC0FD010F
:10483000E490F1E0FF1219C0EC01A02EFD01862EDC
:10484000881A9C2E980C911608F067C09E2C9A200E
:1048500019F09880952A9882A69429F43196E490CC
:104860006894AA24A7F82196ECCFF1101BC0752EEE
:104870007094EC01A02EFD01862E881A9C2E980CB7
:10488000911608F04AC09E2C9A2019F09880972023
:104890009882A69429F43196E4906894AA24A7F803
:1048A0002196ECCFE3E0FE1631F0EC01A02EFD01E5
:1048B000862E881A2EC0752E7094962EEC01A02E8E
:1048C000FD019116B0F48E2C8A2049F08880692C65
:1048D000672660FE02C0852A01C087208882A694D0
:1048E00029F43196E4906894AA24A7F89394219629
:1048F000E8CF7B2512C09E2C9A2019F0988095262F
:104900009882A69429F43196E4906894AA24A7F892
:1049100021969C2E980C911670F3550F19F48C5A11
:104920009F4F51E04F5FA20FB31F7BCFDF91CF911D
:104930001F910F91FF90EF90DF90CF90BF90AF90BD
:104940009F908F907F906F900895DC01FB01849180
:104950008F5F14968C9314973196E491EF5F1596C0
:10496000EC9315976E5F7F4F5F967C936E935E9787
:104970000895EF920F93CF93DF93EC014E876D87ED
:104980002F87E98A088B81E0888788A319A28F8303
:1049900068EA72E0CE010E94A5240E94821F8CB5B5
:1049A0008F7D8CBD8CB58C7F81608CBD8DB5816019
:1049B0008DBD8CB58C608CBD61E08E850E94F42E1F
:1049C00061E08D850E94F42E61E08F850E94F42EB7
:1049D000898918161CF461E00E94F42E8889181643
:1049E0001CF461E00E94F42E898918166CF460E0D2
:1049F0000E942D2F6AE070E080E090E00E94EC2D94
:104A000061E089890E942D2F8D85992787FD9095DA
:104A1000FC01EB54FA4FE491F0E0EE0FFF1FED5272
:104A2000FA4F259134913D8B2C8BFC01EF55FA4FB9
:104A300084918B8F8E85992787FD9095FC01EB548F
:104A4000FA4FE491F0E0EE0FFF1FED52FA4F25917F
:104A500034913B8B2A8BFC01EF55FA4F84918A8F5E
:104A60008889992787FD9095FC01EB54FA4FE491D2
:104A7000F0E0EE0FFF1FED52FA4F259134913F8B7E
:104A80002E8BFC01EF55FA4F84918C8F8F859927DF
:104A900087FD9095FC01EB54FA4FE491F0E0EE0FA6
:104AA000FF1FED52FA4F25913491398F288FFC0169
:104AB000EF55FA4F84918D8F61E2CE010E94DE2086
:104AC00064E1CE010E94DE208B8587FF02C08FE764
:104AD0008B876B856068CE010E94DE2060E2CE018C
:104AE0000E94DE206CE0CE010E94DE20CE01DF912C
:104AF000CF910F91EF900C940D216F927F928F9236
:104B00009F92AF92BF92CF92DF92EF92FF920F935C
:104B10001F93CF93DF93EC01162FF42EB02EE8A055
:104B200064350CF081C08FE284170CF47DC0EC81F9
:104B3000F0E031970E9FC0010F9F900D1124860F5A
:104B4000911D67FD9A95181619060CF06DC08D81A0
:104B5000809FC0011124840F911D47FD9A9518165E
:104B600019060CF061C0A62E962EC22ED12C8A2DCD
:104B7000811B992787FD90952C8130E08217930740
:104B80000CF051C0215031098217930779F0C29E71
:104B9000D001C39EB00DD29EB00D1124A80FB91F35
:104BA000EE8DFF8DEA0FFB1F749001C0712C8F2CCE
:104BB0006F2C282D2F19332727FD30958D8190E0FC
:104BC000281739076CF570FE11C081E0B81206C0D5
:104BD000482D6A2DCE010E9474031EC00B2D2B2D73
:104BE000462D692DCE010E94CB2116C089A198A126
:104BF000891791F088A381E0B81206C0482D6A2D6C
:104C0000CE010E94740307C00B2D2B2D462D692D5C
:104C1000CE010E94CB21E8A276946B0C8394C9CF7D
:104C20009B0CA394A4CFE8A2DF91CF911F910F9189
:104C3000FF90EF90DF90CF90BF90AF909F908F90BC
:104C40007F906F9008950F93CF93DF93EC01262F01
:104C50006A3039F42D8198858A85299F800D112429
:104C600022C06D3011F108854A8569850E947D2535
:104C700048855C812985549F200D112429878F81C7
:104C8000882399F0332727FD309584E590E0459FF0
:104C9000801991091124821793073CF49D818A851C
:104CA000499F800D11248A87198681E090E0DF9169
:104CB000CF910F9108958F929F92AF92BF92CF9212
:104CC000DF92EF92FF920F931F93CF93DF93EC014C
:104CD0005C0186E8A80EB11CD5018C91882309F4EB
:104CE0004DC08C3018F41CE0181B01C010E0FE0110
:104CF000EA5AFF4F81E080836E01BEE4CB0ED11CE7
:104D000060E0C6010E9455214E01E3E58E0E911C24
:104D1000D4018C9103E0080F9DE2F92E4F2D481B22
:104D2000410F23E0E22E24E560E0C6010E943A2311
:104D300061E0C6010E945521F401808103E0080F63
:104D40004F2D481B410F24E560E0C6010E94DA2286
:104D5000FE01E95AFF4F84E080833196D4018C91A3
:104D6000181B115D1083CC57DF4F68817981C60114
:104D70000E94C42FF501808181508083DF91CF9103
:104D80001F910F91FF90EF90DF90CF90BF90AF9069
:104D90009F908F900895DF92EF92FF920F931F9351
:104DA000CF93DF93EC018C8D9D8D892B09F49CC0F2
:104DB0008E01025B1F4F40E061E0C8010E94592153
:104DC00085E5FE01EE5AFF4F9081891B3596808361
:104DD00031961082698D613009F462C028F0888DA7
:104DE000653008F074C06FC0CE0185960E94BC2B60
:104DF00081E0FE01EA5AFF4F808368EA72E0C80151
:104E00000E94A5241D8E1C8EFE01EC5AFF4F1082BD
:104E100038EAD32E7E018AE0E80EF11CCE010E9412
:104E20007C278823D9F367E974E0C8010E94C42F66
:104E30006A8D7B8D4AE050E0C8010E94D03062E864
:104E400074E0C8010E94C42F6D2D62956F7070E0F0
:104E50004AE050E0C8010E94BB3067E774E0C80137
:104E60000E94C42F64E0C7010E94AA2081113CC0A7
:104E7000DA94A1F660E0CE010E94BC1F83B7817F67
:104E8000846083BF83B7816083BF83B7816083BF42
:104E9000889583B78E7F83BF83B78E7F83BFBECF56
:104EA000CF58DF4F488159816A817B814F705527E8
:104EB00066277727483051056105710510F467E0D2
:104EC00009C068E707C0882379F06B5F03C08823B7
:104ED00059F06FE2C801DF91CF911F910F91FF90C0
:104EE000EF90DF900C94EB2FDF91CF911F910F91FA
:104EF000FF90EF90DF9008958F929F92AF92BF92B4
:104F0000EF92FF920F931F93CF93DF93EC017C01FD
:104F100000E8E00EF11CF70180809180A280B38050
:104F20000E94BD2D95018401061B170B280B390B20
:104F3000B901A8015E011FE7A10EB11CF501808136
:104F400090E0A0E0B0E08E0105581F4F8417950750
:104F5000A607B70750F4F80180819181A281B3813F
:104F6000892B8A2B8B2B09F040C0F801808191811D
:104F7000A281B381892B8A2B8B2BA9F57E01F5E2C7
:104F8000EF0EF11CC7010E94B92BC7010E94262C0D
:104F9000C7010E94EA2CCE010E945B26CE010E942E
:104FA000CB267E012EE4E20EF11CC7010E940D21EA
:104FB000FE01EC5AFF4F8081811103C0C7010E949E
:104FC000FC200E94C92DF801608371838283938342
:104FD000FE01EB58FF4FC958DF4F28813981621B12
:104FE000730B7183608380E036C00E94BD2DF50194
:104FF0002081620F711D811D911DF70160837183F6
:1050000082839383FE01EF58FF4F4081518162817B
:1050100073814F5F5F4F6F4F7F4F40835183628338
:105020007383F80110821182128213820E94C92DAB
:10503000FE01E958FF4F6083718382839383CE0121
:105040000E94C01FCE010A960E947320CE0148968E
:105050000E94292081E0DF91CF911F910F91FF9055
:10506000EF90BF90AF909F908F9008950F931F93F4
:10507000CF93DF938C01EC01C25BDF4FCE010E9426
:10508000FC206FE474E0CE010E94C42FCE010E9488
:105090000D218CB583608CBD8DB58E7F8DBD8BE46D
:1050A00091E0EEEFFFE30995F801EC5AFF4F108213
:1050B0006AE274E0CE010E940630CE010E940D210A
:1050C000065F1F4FC8010E94732064E0C8010E9460
:1050D000AA20811107C062E370E080E090E00E94A6
:1050E000EC2DF0CFDF91CF911F910F9108952F926A
:1050F0003F924F925F926F927F928F929F92AF9268
:10510000BF92CF92DF92EF92FF920F931F93CF93B4
:10511000DF93CDB7DEB729970FB6F894DEBF0FBE89
:10512000CDBF998788871B012A013C0180E7680E63
:10513000711CF3018081882309F402C181E0E885B4
:10514000F985EA5AFF4F8083E885F985EB5AFF4FCE
:105150001082E885F985EC5AFF4F1082E885F985C1
:10516000108E8F01025B1F4F61E0C8010E94552124
:10517000888599858D5A9F4F9C838B83C884D98459
:1051800097E5C90ED11CE884F984E8E5EE0EF11C20
:10519000888599858E5A9F4F9A838983E885F985FA
:1051A000EF58FF4FFE83ED8388849984FAE08F0ED9
:1051B000911CA884B98485E2A80EB11C88859985C4
:1051C0000E947C278823D1F3F1018491882321F068
:1051D000EB81FC81508101C050E02AEB34E040E0DB
:1051E00060E0C8015F830E9473235F814114510412
:1051F00039F04CE0450F920160E0C8010E94732332
:10520000F60110828CE0F7018083B101C8010E9491
:10521000C42FE981FA819081892F880F890F8195A8
:105220008D5AF6018083EB81FC819081892F880F54
:10523000890F8195835DF7018083ED81FE818081F7
:1052400084FF03C065EB74E002C061EB74E0C80149
:105250000E940630E981FA819081892F880F890F99
:1052600081958D5AF6018083F70180818F5F80835D
:10527000E885F98582A5882319F06DEA74E002C0FB
:1052800069EA74E0C8010E940630E981FA819081E0
:10529000892F880F890F81958D5AF6018083F70138
:1052A00080818F5F808365EA74E0C8010E940630C8
:1052B00065E0C4010E94AA20882351F0E885F985A1
:1052C00062A56F5FC5010E94662DC5010E94502D29
:1052D00064E0C4010E94AA20811113C0F30120815F
:1052E000822F90E0A0E0B0E0ED81FE81408151810D
:1052F00062817381481759076A077B07A8F02F3F1F
:1053000099F08FEFF3018083088519850B5D1F4F9E
:1053100060E0C8010E94632BC8010E943A2D81E021
:10532000E885F985808F0CC066E0C4010E94AA2040
:10533000882309F443CF888599850E94362834CF85
:1053400029960FB6F894DEBF0FBECDBFDF91CF9187
:105350001F910F91FF90EF90DF90CF90BF90AF9093
:105360009F908F907F906F905F904F903F902F9085
:105370000895AB0169EB74E00C947728E0E8F7E757
:105380002591349181E02130304C09F080E008957E
:10539000CF93DF93EC010E94BE299E01275A3F4F15
:1053A000DE01A059BF4F882309F43CC0E6E9F7E7C6
:1053B0008491F9018083E7E9F7E7E491EC83E8E978
:1053C000F7E7E491ED83E9E9F7E7859194919F830D
:1053D0008E83EBE9F7E78591949199878887EDE9CA
:1053E000F7E7E491EBA7EEE9F7E7E491EAA7EFE945
:1053F000F7E7E491EC93E0EAF7E7859194919D8FCC
:105400008C8FE2EAF7E7859194919F8F8E8FE4EA83
:10541000F7E78591949199A388A3E6EAF7E7859148
:10542000949120C08CE3F90180831C822FEF2D839F
:1054300080E293E09F838E8384ED93E09987888751
:1054400081E08BA78AA72C938CEA9DE09D8F8C8F9F
:105450008EED9DE09F8F8E8F84E79EE099A388A3B9
:105460008CE39FE09BA38AA3DF91CF910895CF9215
:10547000DF92EF920F93CF93DF93EC01FC01E158A1
:10548000FF4F82E38083349741E050E060E070E0BA
:1054900040835183628373833B978FEF8083CE0178
:1054A0000E94C829CE010E94B81F6FEFCE010E9452
:1054B000BC1F6E018AE0C80ED11CC6010E94632089
:1054C000C6010E947320CE0148960E941F203EE034
:1054D000E32E0FE020E14BE06DE0CE01825B9F4FB9
:1054E0000E94B924A596CE010E94CF2A65E0C6018C
:1054F0000E94AA20882351F060E0CE01DF91CF9175
:105500000F91EF90DF90CF900C94662D40E06AE20F
:1055100075E0CE01DF91CF910F91EF90DF90CF90AA
:105520000C946E2BCF93DF9350E0FA01EE0FFF1F28
:10553000E80FF91F37852089E32FF22FE60FF11DC1
:10554000E60FF11D25913491FA01EE0FFF1FE80FD0
:10555000F91F30A3278FF90165917491FC01D48163
:10556000D69FC02D1124E40FF51FC1A3F901A59109
:10557000B4916B2F70E0EC2FF0E0DC01A40FB51FAD
:105580006E177F0720F4F90125913491C32FCD9F29
:10559000C02D11249296CC93DF91CF91089521E0F4
:1055A000FC01248324E020A721E835E0308B278705
:1055B00040E060E00E94922A61E070E083E00E9497
:1055C0006C2EE1EBF0E08081887F81608083F8942D
:1055D00010928000E1E8F0E01082109285001092B5
:1055E000840088E191E09093890080938800808115
:1055F00088608083808181608083EFE6F0E0808135
:1056000082608083789408950F93FC01862F642F25
:10561000011129C08230D1F048F4882391F0813003
:1056200011F540E0CF010F910C94922A8330A9F03C
:105630008430C9F48481489F602D1124658F268FA2
:1056400012C04B3008F06AE0668B0DC08481489F21
:10565000602D1124618F228F06C08481489F602DA8
:105660001124638F248F0F910895FC0121110EC026
:10567000648B8481489F402D1124458B15A214A270
:1056800013A281E0878B80933E07108E089580914E
:105690003E07882319F080913B0701C080E080938A
:1056A000B4000895FC0161110DC0178A158A14A277
:1056B00013A2108E10923B0710923C0710923E07E7
:1056C0000C94472B0895CF93DF93EC01611103C035
:1056D0000E94522B1982DF91CF9108950F931F934F
:1056E000CF93DF93EC018B0141110EC060E00E946B
:1056F000632B1E870D871B8A1A8A81E0898389E0C4
:105700008E8B198E1B8E1D8EDF91CF911F910F9165
:105710000895CF93DF93EC01611128C0888188231D
:1057200029F18981811122C089852F819885E22FF5
:10573000F92FE80FF11DE80FF11D859194918F3F2E
:105740002FEF920711F4188211C09C879927880FB8
:10575000991FEA85FB85E80FF91F6591749140E078
:10576000CE010E946E2B89858F5F8987DF91CF9153
:10577000089560E00C94892B60E00C94632B0F93E8
:10578000CF93DF93EC0161115DC08981882309F417
:1057900059C08D89811156C02D853E858A899B8986
:1057A000880F991F820F931FFC0185919491009798
:1057B000D1F48989882321F01B8A1A8AF90111C042
:1057C0001982888160E0882331F0CE010E94892B04
:1057D0008A899B8925C0CE01DF91CF910F910C94CE
:1057E000522B85919491BC01769567957695679536
:1057F00080FF1DC0AC01A6E056954795AA95E1F73C
:10580000292F26952695269520514F716F7000E01F
:10581000CE010E94042B8A899B8901969B8B8A8BDF
:10582000880F991FED85FE85E80FF91FDACF492F04
:105830006F7320E0CE010E94352B8A899B890196E7
:105840009B8B8A8BDF91CF910F91089560E00C9430
:10585000BF2BCF93DF93EC016111B9C08F898823EF
:1058600009F4B5C08D89811105C0CE01DF91CF91BA
:105870000C94522B81508D8B8DA1811138C08BA13E
:105880009CA101969C01220F331FEF8DF8A1E20F1E
:10589000F31F25913491422F47704EA3A90163E075
:1058A000569547956A95E1F7BA0176956795232F46
:1058B000269526952FA36F732C81629F602D11244E
:1058C0006DA3417040933A079CA38BA329A130E0BC
:1058D0008217930760F08AA1882329F0281B3109D9
:1058E0003CA32BA304C060E0CE010E94522B8DA1EB
:1058F00081508DA3288D2F5F288F4C893FA1340FB5
:105900008C85380F3A836B8D662361F070E0822FAF
:10591000992787FD90950E946B328C8D869F300D64
:1059200011243A838A8190E0CB966BE370E00E9469
:105930006B328A833E893B83698D662371F07727BA
:1059400067FD7095822F992787FD90950E946B3295
:105950008A8D869F300D11243B836D8D662391F0D7
:10596000822F992787FD909570E00E946B32CB01C2
:1059700062E070E00E946B322E8D9B81289F900D1B
:1059800011249B838B814F3339F08A300CF089E0EE
:1059900087FD80E08B8301C01B82F894EA81F0E0F0
:1059A000E85CFA4FE491E0933D0798A58D81989FBC
:1059B000802D11249B81899F802D11249EA1899F78
:1059C000802D112480933C0780933B077894DF91CE
:1059D000CF91089560E00C94292C60913C076623D8
:1059E00021F180913F078F5F80933F0790913D07A2
:1059F0008917D8F080913E0791E0892780933E0770
:105A000010923F0780913A07882369F090911C011A
:105A100083E4989F802D1124895B80931C010E9450
:105A20004B3290933B070C94472B08951F920F9293
:105A30000FB60F9211242F933F934F935F936F9361
:105A40007F938F939F93AF93BF93EF93FF930E94A6
:105A5000ED2CFF91EF91BF91AF919F918F917F912D
:105A60006F915F914F913F912F910F900FBE0F90CB
:105A70001F901895CF93DF93EC0160E00E94632B99
:105A800089E795E09E878D871B8A1A8A81E0898342
:105A900089E08E8B198E1B8E1D8EDF91CF9108951C
:105AA000CF93DF93EC0160E00E94632B83E795E0E6
:105AB0009E878D871B8A1A8A81E0898389E08E8B75
:105AC000198E1B8E1D8EDF91CF910895FC01862FBC
:105AD000992787FD9095668170E06F5F7F4F0E94E8
