:100000000C94D3020C94FB020C94FB020C94FB02A4
:100010000C94FB020C94FB020C94FB020C94FB026C
:100020000C94FB020C94FB020C94FB020C948027B2
:100030000C94FB020C94FB020C94FB020C94FB024C
:100040000C94F3270C94FB020C94FB020C94FB021F
:100050000C94FB020C94FB020C94FB020C94FB022C
:100060000C94FB020C94FB024572726F72002073B9
:1000700061766564002E5341560A00536176696EBD
:100080006720454550524F4D20746F0A004E6F74E3
:1000900068696E6720746F2062652073617665649D
:1000A0002100436C65616E696E6720454550524F73
:1000B0004D004E6F2073617665642067616D650049
:1000C000436C65616E696E6720454550524F4D0027
:1000D00046696C6520656D707479000A1D20466C58
:1000E000617368696E672067616D652E2E2E0A0A3E
:1000F000444F4E2754205455524E204F464621001F
:10010000496E7365727420534420636172640A619E
:100110006E6420726573746172742E001D205265C6
:100120006164696E6720534420636172642E2E2ED1
:100130000A0A00206B4D4700402400000000000028
:1001400000000000000000000000000000000000AF
:100150000000000007E3FFFFF00000000FE7FFFFD3
:10016000F80000001FFFFFFFFC00001FFFFFFFFF64
:10017000FC00003FFC0CC31C7C00007018048208CB
:100180003C00007019279E493C00007FF9249E79AD
:100190003C00007019249E793C00007019E48278BC
:1001A0003C00007FF9E4C27C7C00007019E7FFFF8F
:1001B000FC0000701FFC0106FC00007FFFF001192D
:1001C000BC0000601FE1FFF61C0000601FF03FF85C
:1001D0000C00007FFFF80FF80C0000701FFF0600F6
:1001E0001C0000701FC006007C00007FFF800C0117
:1001F000FC0000601F803C1FFC0000601FFFFFFF31
:10020000FC00007FFFFFFFFFFC0000701FFDFFEF01
:10021000FC0000701FFDDCCDCC00007FFFFDAAAA12
:10022000BC0000701FFDAAA9BC0000701FFEDCCC42
:10023000BC00003FFFFFFFFFF800001FFFFFFFFFB4
:10024000F0000000000000000000000000000000BE
:100250000000000000000000000003053F213F12E5
:1002600008120A100A0E1C0E0C1E0C141A14161F6B
:10027000161E131E1E1B1E1E1F1E3F213F3A2F3A25
:10028000173D173F213F181F02040A041F0E0404E4
:100290000E1F0A1F0A0E0E1F04110E2E252E2F2AC6
:1002A0002E262929021F02081F08150E04040E1508
:1002B0000E15151B151B040604040C040000000099
:1002C00017000300031F0A1F16371A1904130A1513
:1002D0003A000300000E11110E000A040A040E0475
:1002E0000030000404040010001804031F111F1242
:1002F0001F101D151711151F07041F17151D1F159A
:100300001D01011F1F151F17151F000A00003200D5
:10031000040A110A0A0A110A040115020E11171E15
:10032000051E1F150A0E110A1F110E1F15111F059C
:10033000010E111D1F041F111F1108100F1F041B98
:100340001F10101F061F1E040F0E110E1F09060E90
:10035000112E1F051A121509011F011F101F0F185A
:100360000F1F0C1F1B041B031C03191513001F1167
:10037000030418111F000201022020200001020CBA
:10038000121E1F120C0C12120C121F0C1A14041E37
:1003900005242A1E1F021C141D1020201D1F0814D6
:1003A000111F101E041E1E021C0C120C3E0A040C0F
:1003B000123E1E040214160A020F120E101E0E1018
:1003C0000E1E081E120C1226281E322A26041E217A
:1003D000001F00211E040102013F213F0A4E6F2031
:1003E00053442063617264206F720A6E6F204C4F19
:1003F000414445522E4845580A0A153A45786974D1
:10040000001D20466C617368696E670A20206C6F5E
:10041000616465722E2E2E0A0A444F4E27542054D2
:1004200055524E204F464621000A0A153A49676E3A
:100430006F7265006D560A0A504C45415345205471
:1004400055524E204F464620004C4F5720424154B3
:1004500054455259212000175344001613780016B2
:10046000131400151020001520100000540A03E199
:1004700081867F3E186D830F0F0E018386603318CF
:100480006DC3198F1803C38E6033186DE330CF1816
:1004900003C39E603630CDE360CF3006C79E7E3EFC
:1004A00030CDB360CF300CC6F6603330D9B660CFF4
:1004B00033CFCCF66061B0DB1E60CF30D86CE6C0C5
:1004C00061B0DB1E618F19986CC6C063B19B0E339F
:1004D0000F0FB078C6FF7E1F1B061E0F0500893068
:1004E00008023802497868140000F6E8DBCFC3B888
:1004F000AEA49B928A827B746E68625C57524E49AE
:1005000045413E3A3734312E2C29272523211F1D02
:100510001C1A1917161514131211100F0E0D0C0BAF
:100520000A0908070645006801000005006801384F
:10053000010000050038016801000043053F050186
:1005400001FF030101F703000000080002010000A1
:10055000030407000000000000000001020408106E
:100560002040800102040810200102040810200429
:10057000040404040404040202020202020303034A
:1005800003030300000000230026002900000000F0
:1005900000250028002B0000000000240027002A6E
:1005A00000001F08C71911241FBECFEFD8E0DEBF1F
:1005B000CDBF11E0A0E0B1E0EEECFBE502C005909C
:1005C0000D92AC3AB107D9F727E0ACEAB1E001C02F
:1005D0001D92A634B207E1F715E0C6EAD5E004C0E3
:1005E0002297FE010E94962DC23AD107C9F70E94B8
:1005F0000D2A0C94E52D0C940000ACEAB1E0E0E883
:10060000F7E784918D933196E11588E7F807C9F7EC
:10061000ECE3F2E0AEEAB1E081918D9382E0E53463
:10062000F807D1F76CEA71E080E897E7EDEFFFE3B8
:1006300009940F938AE692E00E94D02760E083E954
:1006400092E00E94E71B00E32091970240E060E007
:1006500083E992E00E94351C40E061E083E992E08A
:100660000E94EB1B10929C0220919802622F70E076
:1006700080E390E00E94252D809136029091370210
:100680000E94252D289F202D112420939D0269E290
:1006900071E083E992E00F910C947F2ACF92DF9270
:1006A000EF92FF920F931F93CF93DF9383E992E032
:1006B0000E948E1B8091300290913102209136026F
:1006C0003091370228173907C4F1892BB1F16091B5
:1006D000980270E0C0E3D0E0CE010E94252D809109
:1006E000170190911801681779070CF067C020E393
:1006F00040E062E583E992E00E94EF1B209138021E
:1007000030913902CE01B9010E94252D01E0060F7A
:10071000409134025091350260E3649FC001659FAF
:10072000900D1124B9010E94252D462F23E061E58B
:1007300083E992E00E94351C41C010923102109270
:1007400030026FEF72E08AED92E00E94650C8093B8
:100750003A02F12CC0E3D0E02F2D30E060919802F6
:1007600070E0CE010E94252D8091360290913702D3
:100770000E94252D261737070CF0A9CF10E0212F56
:1007800030E06091980270E0CE010E94252D26177E
:10079000370794F46FEF72E08AED92E00E943E0D0D
:1007A00020913002309131022F5F3F4F3093310260
:1007B000209330021F5FE3CFF394CECFC0E3D0E0AD
:1007C00066E671E083E992E00E947F2A6BE271E0C5
:1007D00088E093E00E94B52D892B19F066E671E060
:1007E00002C06FE271E083E992E00E947F2A6FEF1E
:1007F00072E083E992E00E947F2A6BE971E083E96D
:1008000092E00E947F2A68E073E083E992E00E9410
:100810007F2AC0901303D0901403E0901503F0904A
:10082000160310E087EEC81683E0D806E104F10451
:1008300098F566E671E083E992E00E947F2A2AE05B
:1008400030E0B701A60183E992E00E947D2B1123DD
:1008500049F0E12FF0E0ED5CFE4F649183E992E016
:100860000E94812A62E483E992E00E94C02A2091DA
:100870003002309131022F5F3F4F3093310220938D
:1008800030026FEF72E08AED92E00E943E0D80939D
:100890003A02882351F027C08AE0F694E794D7946F
:1008A000C7948A95D1F71F5FBDCF6091980270E021
:1008B000CE010E94252DFB018091360290913702D6
:1008C0000E94252D6F5F7F4F6E9FA0016F9F500D7F
:1008D0007E9F500D11248091300290913102841737
:1008E00095070CF46DCFDF91CF911F910F91FF9081
:1008F000EF90DF90CF900C941903DF92EF92FF926C
:100900000F931F93CF93DF936CE372E08AE091E043
:100910000E94AE2DEAE0F1E08081803209F410827D
:10092000319681E0E231F807B9F761E371E08AE0DE
:1009300091E00E949A2D42E06AE071E08AED92E037
:100940000E942A0E80933A02811167C066E371E02B
:1009500083E992E00E947F2A6AE071E083E992E0F5
:100960000E94AE2A83E992E00E949F1BD12C42E8AC
:1009700050E06CEA71E08AED92E00E94D4118C01A3
:100980000D3F8FEF180741F180E8D89E70011124C8
:10099000C0E0D0E0FE01E455FE4F61816F708081C0
:1009A000807F682BCE018E0D9F1D959587950E94A7
:1009B000D72D2296C038D10569F7D3940F3F1F4F2A
:1009C000B1F68AED92E0DF91CF911F910F91FF90E8
:1009D000EF90DF900C94300F60ED70E083E992E0CF
:1009E0000E949C2A60EC70E083E992E00E949C2ABD
:1009F00083E992E00E949F1BC0E0D0E0CE010E94FC
:100A0000CF2D882321F060E0CE010E94D72D2196C2
:100A1000C11584E0D80791F7D4CF62EB70E083E989
:100A200092E00E949C2A62EA70E083E992E00E94D0
:100A30009C2A83E992E00E949F1BC0E0D0E0CE0197
:100A40000E94CF2D882321F060E0CE010E94D72D97
:100A50002196C11584E0D80791F7DF91CF911F91BE
:100A60000F91FF90EF90DF900895EF920F931F93F7
:100A7000CF93DF936FEF72E08AED92E00E94650CF6
:100A800080933A0210E0CEEFDFE380913A028111C9
:100A900093C0812F90E020913602309137022817C1
:100AA000390709F07FC06BE271E088E093E00E94B3
:100AB000B52D892B09F16FEF72E08CE392E00E9473
:100AC000AE2D8AED92E00E94300F83E992E00E9401
:100AD0008E1B0E94FD020E947D046BED70E083E995
:100AE00092E00E945A2A83E992E00E949F1B8CE3C5
:100AF00092E0FE01099556C08AED92E00E94300F07
:100B00008AE692E00E94BA2760E083E992E00E94C0
:100B1000E71B80919802082F000F080F33E0E32EA7
:100B20002AE44AE065E083E992E00E94A41D61E0C6
:100B300083E992E00E94E71B80919802082F000F42
:100B4000080F2AE44AE065E083E992E00E94441D30
:100B500010929C028DE080939D026AE471E083E92B
:100B600092E00E94AE2A6EE571E083E992E00E9475
:100B7000AE2A85E492E00E94E6218823D1F364E066
:100B80008FE492E00E94F21A882399F361E083E9EE
:100B900092E00E94E71BDF91CF911F910F91EF90A0
:100BA0000C944E031F5F6FEF72E08AED92E00E949B
:100BB0003E0D80933A0269CFDF91CF911F910F9143
:100BC000EF9008951092370210923602109231027F
:100BD00010923002C0E3D0E000ED1FEF85E492E018
:100BE0000E94E6218823D1F364E08FE492E00E9422
:100BF000F21A81110E94350543E063E08FE492E030
:100C00000E94FB1A882309F444C080913602909117
:100C100037020196909337028093360241E065E0F7
:100C20008FE492E00E94FB1A40919802882389F099
:100C3000642F70E0CE010E94252D615071098091D2
:100C4000360290913702860F971F90933702809358
:100C5000360220913602309137028091170190912F
:100C600018012817390724F0109237021092360223
:100C7000642F70E0CE010E94252D80913602909164
:100C800037020E94252D70933502609334020E9432
:100C9000190343E061E08FE492E00E94FB1A88238D
:100CA00009F44AC0209136023091370221503109AF
:100CB000309337022093360241E065E08FE492E002
:100CC0000E94FB1A40919802882389F0642F70E0FB
:100CD000C8010E94252D6F5F7F4F20913602309111
:100CE0003702260F371F3093370220933602809148
:100CF00036029091370297FF0EC020911701309174
:100D00001801215031093093370220933602109296
:100D1000310210923002642F70E0CE010E94252D26
:100D200080913602909137020E94252D70933502F2
:100D3000609334020E94190380913402909135022D
:100D400020913202309133028217930709F446CF83
:100D500090933302809332020E944E033FCFAF92B2
:100D6000BF92CF92DF92EF92FF920F931F93CF9398
:100D7000DF93C0E0D0E0CE010E94CF2D811115C0DD
:100D80002196C11584E0D807B1F76DE870E083E9DA
:100D900092E0DF91CF911F910F91FF90EF90DF9044
:100DA000CF90BF90AF900C949C2A83E992E00E9470
:100DB0008E1B6BE770E083E992E00E945A2A69E19A
:100DC00071E083E992E00E947F2A65E770E083E9A1
:100DD00092E00E949C2A69E171E08AE091E00E9421
:100DE000AE2D61E371E08AE091E00E949A2D6AE005
:100DF00071E08AED92E00E94360F882331F06AE0BC
:100E000071E08AED92E00E94F90F6AE071E08AEDEC
:100E100092E00E94A31343E06AE071E08AED92E061
:100E20000E942A0E80933A02811140C000E010E037
:100E300010922D02CCEAD1E05DEAC52E51E0D52E0C
:100E4000F801EC5AF1405F0182E0CC32D807A9F0FA
:100E50007501EC0EFD1EF594E794C7010E94CF2D9D
:100E60008F608883C7010E94CF2D806FF601808339
:100E70002296F2E0CF0ED11CE7CF6CEA71E08AED4A
:100E800092E00E94C11400581F4F011594E0190709
:100E900079F68AED92E00E94300F6AE071E083E912
:100EA00092E00E947F2A6EE670E002C068E670E081
:100EB00083E992E00E949C2A83E992E0DF91CF913E
:100EC0001F910F91FF90EF90DF90CF90BF90AF9068
:100ED0000C949F1B85E492E00E94A1241092620270
:100EE000109261028CE08093B50268E371E085E4C2
:100EF00092E00E94232483E992E00E948E1B81E00D
:100F00008093990210925D026CE171E083E992E0B6
:100F10000E945A2A83E992E00E949F1B8CB583604D
:100F20008CBD8DB58E7F8DBD61E08AED92E00E9413
:100F3000C70A80933B02882379F083E992E00E94FC
:100F40008E1B60E071E083E992E00E945A2A83E9F7
:100F500092E00E949F1BFFCFE2E8F7E7E491E09365
:100F60001901E3E8F7E7E491E0931A01E4E8F7E711
:100F7000E491E0931B01E5E8F7E7E491E0931C01BD
:100F8000E6E8F7E7E491E0931D01E7E8F7E7E4918D
:100F9000E0931E01E8E8F7E7E491E0931F01E9E838
:100FA000F7E7E491E0932001E9E1F1E0808180320C
:100FB00009F41082319681E0E132F807B9F78091A7
:100FC0001901882321F00E94AF060E94FD026FEFF5
:100FD00072E08AED92E00E94650C80913A028111E4
:100FE0000AC06FEF72E08AED92E00E943E0D80939E
:100FF0003A028823D1F02091170130911801215035
:1010000031096091980270E080E390E00E94252D04
:10101000C9010E94252D6F5F7F4F70933902609345
:10102000380210929A020C944E038091170190910D
:10103000180101969093180180931701CECF10925A
:1010400096021092950281EA91E090939402809327
:10105000930208958EBD0DB407FEFDCF08958FEF66
:101060000E942A088EB508950F931F93CF93DF93A4
:10107000EC010E943D288B010E942F088F3F49F010
:101080000E943D28601B710B6C177D07A8F380E060
:1010900001C081E0DF91CF911F910F9108951F93BF
:1010A000CF93DF9300D000D0CDB7DEB7182FE091FB
:1010B000D802F091D90280819091D1029095982325
:1010C00090838CE291E04C835B836A8379830E94F6
:1010D0003408812F80640E942A087981872F0E941A
:1010E0002A086A81862F0E942A085B81852F0E9428
:1010F0002A084C81842F0E942A08112321F01830DD
:1011000021F08FEF03C085E901C087E80E942A081B
:1011100010E00E942F0887FF04C01F3F11F01F5FDF
:10112000F8CF0F900F900F900F90DF91CF911F91FC
:101130000895CF92DF92EF92FF92CF93C82F6A016A
:101140007B0140E050E0BA0187E30E944F08B701FD
:10115000A6018C2FCF91FF90EF90DF90CF900C9451
:101160004F08CF93DF930E943D28EB010E942F0888
:101170008F3F49F40E943D286C1B7D0B69357240FE
:10118000A8F38FE003C08E3F71F08DE08093CC0216
:10119000E091D802F091D90280819091D102892BFF
:1011A000808380E001C081E0DF91CF910895873096
:1011B00028F086E18093CC0280E0089580658CBDA4
:1011C00081E008950F931F93CF93DF93182F0E9410
:1011D0003D28EB018091260190E0FC01E159FA4F96
:1011E000E491F0E0EE0FFF1FE357FA4F25913491A1
:1011F0003093D9022093D802FC01E55AFA4F84912A
:101200008093D1028091230190E0FC01E159FA4FD3
:10121000E491F0E0EE0FFF1FE357FA4FA591B49170
:10122000B093D702A093D602FC01E55AFA4F8491FD
:101230008093D0028091240190E0FC01E159FA4FA3
:10124000E491F0E0EE0FFF1FE357FA4F4591549100
:101250005093D5024093D402FC01E55AFA4F849191
:101260008093CF024091220150E0FA01E159FA4FF8
:10127000E491F0E0EE0FFF1FE357FA4F8591949150
:101280009093D3028093D202FA01E55AFA4F449127
:101290004093CE02F90150816091D102562B5083C8
:1012A000FC012081242B20838C919091D002892BEA
:1012B0008C9361E0809126010E94742961E0809105
:1012C00024010E94742961E0809122010E94742906
:1012D00060E0809123010E94742961E080912501E2
:1012E0000E94742961E0809125010E94AD29E0915E
:1012F000D802F091D90280819091D102892B80830C
:1013000083E58CBD8DB58E7F8DBD0AE08FEF0E9489
:101310002A080150D9F7E091D802F091D9029081C2
:101320008091D10280958923808340E050E0BA010A
:1013300080E00E944F08082F813049F00E943D282C
:101340006C1B7D0B613D774080F381E039C04AEA38
:1013500051E060E070E088E00E944F0882FF03C027
:101360000093CD020FC00E942F080E942F080E94F8
:101370002F080E942F088A3A11F082E021C082E0F3
:101380008093CD0240E050E0BA0189E20E949908C2
:10139000882349F00E943D286C1B7D0B613D7740FE
:1013A00088F388E00DC08091CD02823049F540E09D
:1013B00050E0BA018AE30E944F08882399F086E042
:1013C0008093CC02E091D802F091D9028081909173
:1013D000D102892B80838091CC02DF91CF911F9124
:1013E0000F9108950E942F08807C803C19F483E0BF
:1013F0008093CD020E942F080E942F080E942F0880
:10140000E091D802F091D90280819091D102892B8C
:101410008083812FDF91CF911F910F910C94D7087A
:10142000CF92DF92EF92FF92CF93DF93EC016A01AC
:101430007B018091CD02833039F079E0CC0CDD1C4A
:10144000EE1CFF1C7A95D1F7B701A60181E10E943D
:101450004F088111F9CF0E94B108811103C0109289
:10146000CC0218C08FEF8EBDFE0120E030E00DB43D
:1014700007FEFDCF9EB591938EBD2F5F3F4F2F3F4F
:1014800091E03907A1F70DB407FEFDCF8EB5C1502D
:10149000DE4F8883E091D802F091D902808190914B
:1014A000D102892B808380E0DF91CF91FF90EF9074
:1014B000DF90CF900895CF93DF93EC018091CD0220
:1014C000833039F0E9E0440F551F661F771FEA9516
:1014D000D1F788E10E944F08882311F084E03CC0D6
:1014E0008EEF8EBD20E030E00DB407FEFDCFFE0193
:1014F000E20FF31F80818EBD0DB407FEFDCF818109
:101500008EBD2E5F3F4F211582E0380769F70DB47D
:1015100007FEFDCF8FEF0E942A088FEF0E942A0856
:101520000E942F088F71853011F081E115C088E588
:1015300092E00E943408811102C085E10DC040E0B4
:1015400050E0BA018DE00E944F08811104C00E9452
:101550002F08882379F084E18093CC02E091D802AF
:10156000F091D90280819091D102892B8083809162
:10157000CC020AC0E091D802F091D902808190910A
:10158000D102892B808380E0DF91CF9108958F92E3
:101590009F92AF92BF92CF92DF92EF92FF920F9302
:1015A0001F93CF93DF93EC01862F0E94E2086E0118
:1015B00089E5C80ED11C40E050E0BA01C6010E9486
:1015C000100A81116CC17E01E9EAEE1AEDEFFE0A04
:1015D000F7018081853509F064C18E01085A1D4FDD
:1015E000F80180818A3A09F05CC1FD972081288347
:1015F0003796408150E060E070E0742F66275527F1
:1016000044273197808190E0A0E0B0E0DC01992789
:101610008827480F591F6A1F7B1F3197808190E0F0
:10162000982F882731973081830F911D480F591FBC
:10163000611D711D49835A836B837C83379680803B
:10164000912CA12CB12CB82CAA2499248824319750
:10165000808190E0A0E0B0E0DC0199278827880E27
:10166000991EAA1EBB1E3197808190E0982F882773
:1016700031973081830F911D880E991EA11CB11CDA
:101680008D829E82AF82B886822F8D7F843019F042
:10169000263809F008C1C6010E94100A811105C14F
:1016A000F7018081853509F002C1F80180818A3A0D
:1016B00009F0FDC0FE01EA59FF4F8081898732960B
:1016C000808190E0982F882731972081820F911D8B
:1016D0009B878A87329610811C873296208130E062
:1016E000322F222731974081240F311D3E872D87CD
:1016F0003396408150E0542F442731972081420F88
:10170000511D60E070E04F87588B698B7A8B452BB9
:10171000462B472B31F57096408150E060E070E039
:10172000742F6627552744273197C080D12CE12C90
:10173000F12C7601DD24CC244C0D5D1D6E1D7F1D2A
:101740003197208130E0322F22273197E0812E0F10
:10175000311D420F531F611D711D4F87588B698BBF
:101760007A8BFE01E059FF4F208130E0322F222793
:1017700031974081240F311D3C8B2B8B3996408152
:1017800050E060E070E0742F6627552744273197BA
:10179000C080D12CE12CF12C7601DD24CC244C0D21
:1017A0005D1D6E1D7F1D3197E081F0E0FE2FEE275D
:1017B000DE01AB58BF4FAC91EA0FF11D4E0F5F1F1A
:1017C000611D711D4D8B5E8B6F8B788FFE01ED5708
:1017D000FF4F408150E060E070E0742F662755278E
:1017E00044273197C080D12CE12CF12C7601DD24E7
:1017F000CC244C0D5D1D6E1D7F1D3197E081F0E006
:10180000FE2FEE27DE01A058BF4FAC91EA0FF11D6D
:101810004E0F5F1F611D711D498F5A8F6B8F7C8F1B
:10182000C980DA80EB80FC80FE01EB5AFF4FB701E4
:10183000A601480F591F611D711D129FD001139FF2
:10184000B00D11244A0F5B1F611D711D4083518330
:1018500062837383C80ED91EDE8ECD8EC20ED31E58
:10186000D8A2CF8E6D817E818F81988529E0660F09
:10187000771F881F991F2A95D1F70E94042C20E01A
:1018800030E040E855E30E94922C69A37AA38BA331
:101890009CA3C55ADD4F81E0888380E009C080EFBA
:1018A00007C081EF05C082EF03C080EE01C081EE6A
:1018B000DF91CF911F910F91FF90EF90DF90CF902C
:1018C000BF90AF909F908F9008958F929F92AF920C
:1018D000BF92CF92DF92EF92FF920F931F93CF931D
:1018E000DF935C01EB01FC01EB5AFF4FC080D1801C
:1018F000E280F3808C01075A1D4FF801118210829B
:101900004C01F9E58F0E911CB701A601C4010E949C
:10191000100AF4018081882369F180E090E0AC0135
:10192000455F5F4F4A0D5B1DFA01E75AFF4F20816B
:10193000287111F18096F801208131812F5F3F4F8E
:10194000318320838115F2E09F0761F42FEFC21AE3
:10195000D20AE20AF20AB701A601C4010E94100AE3
:1019600080E090E0F501E80FF91FE75AFF4F208172
:101970002111D5CF81E075C09501280F391FF901DC
:10198000E75AFF4F6081653EA9F2FE0180E090E0DA
:10199000D901A80FB91FA75ABF4F6C916193019647
:1019A00088309105A9F780E090E0FE01E80FF91F6B
:1019B000D901A80FB91FAF59BF4F6C91618701962C
:1019C0008330910591F718861C86FA01E75AFF4F7C
:1019D00080818D87F901E859FF4F808190E0982F31
:1019E000882731974081840F911D9F878E8733967A
:1019F000808190E0982F882731974081840F911D36
:101A0000998B888B3B96808190E0982F882731971F
:101A10004081840F911D9B8B8A8B35964081319735
:101A2000808190E0A0E0B0E0DC0199278827B42B0A
:101A30003197408150E0542F442731972081422B29
:101A400060E070E0842B952BA62BB72B8C8B9D8BA5
:101A5000AE8BBF8BF8018081918101969183808349
:101A600080E0DF91CF911F910F91FF90EF90DF9079
:101A7000CF90BF90AF909F908F9008954F925F92BC
:101A80006F927F92AF92BF92CF92DF92EF92FF92CE
:101A90000F931F93CF93DF937C01EB01FC01EB5A73
:101AA000FF4F40805180628073806C0187EAC81AC2
:101AB0008DEFD80AF6010081118185E0000F111F1A
:101AC0008A95E1F7C801892F99278695480E591EF6
:101AD000611C711C982F8827990F081B190B57013F
:101AE000F9E5AF0EB11CB301A201C5010E94100AB5
:101AF000F701E00FF11FE75AFF4F8081811102C00B
:101B000081E099C0A801455F5F4F4E0D5F1DFA014E
:101B1000E75AFF4F80818871C9F0005E1F4FF601C0
:101B2000808191810196918380830115F2E01F07E6
:101B3000F9F68FEF481A580A680A780AB301A20129
:101B4000C5010E94100A00E010E0D2CF9701200FDB
:101B5000311FF901E75AFF4F8081853EF1F2FE0106
:101B600080E090E0D901A80FB91FA75ABF4F6C9130
:101B70006193019688309105A9F780E090E0FE011D
:101B8000E80FF91FD901A80FB91FAF59BF4F6C91CA
:101B9000618701968330910591F718861C86FA01BA
:101BA000E75AFF4F80818D87F901E859FF4F808107
:101BB00090E0982F882731974081840F911D9F874F
:101BC0008E873396808190E0982F882731974081C7
:101BD000840F911D998B888B3B96808190E0982F84
:101BE000882731974081840F911D9B8B8A8B359676
:101BF00040813197808190E0A0E0B0E0DC0199273E
:101C00008827B42B3197408150E0542F44273197D7
:101C10002081422B60E070E0842B952BA62BB72B04
:101C20008C8B9D8BAE8BBF8BF60180819181019651
:101C30009183808380E0DF91CF911F910F91FF907E
:101C4000EF90DF90CF90BF90AF907F906F905F90BC
:101C50004F900895BF92CF92DF92EF92FF920F9331
:101C60001F93CF93DF93CDB7DEB7A5970FB6F89448
:101C7000DEBF0FBECDBF7C018B01D42EFC0185AD34
:101C80008111DDC0DB01F80101900020E9F73197F7
:101C9000E01BF10BCD01801B910B8E179F0740F4C9
:101CA0008C919FE9980F9A3108F480528D93EBCF75
:101CB000BE016F5F7F4FC7010E94650CB82EF1E037
:101CC0008F1799F1FE017996DE01119640E050E000
:101CD00005C04830510541F08193A9018D919A01C9
:101CE0002F5F3F4F8032A9F7E9E1F0E0EC0FFD1FD5
:101CF000E40FF51F8EE280834C5F5F4FFE013A9642
:101D000081918032A1F4E9E1F0E0EC0FFD1FE20FD8
:101D1000F31F1082B801CE0149960E94A52D892B90
:101D200099F04EE2C42EBB20F1F080E189C0241767
:101D3000350749F3A9E1B0E0AC0FBD1FA20FB31FF7
:101D40008C932F5F3F4FDCCFFE01799680E090E0CF
:101D50002191D701A80FB91FDD962C9301968D30E4
:101D60009105B1F740C0BE016F5F7F4F8AED92E0F1
:101D70000E943E0DB82E8111D6CFDE015996FE018C
:101D8000319620E030E04191C9010196403209F0DE
:101D900043C0E9E1F0E0EC0FFD1FE20FF31FC0824A
:101DA0002C5F3F4FFE013A9641914032E1F5E9E167
:101DB000F0E0EC0FFD1FE80FF91F1082B801CE0113
:101DC00049960E94A52D892B71F6FE01799680E037
:101DD00090E02191D701A80FB91FDD962C930196B1
:101DE0008D309105B1F7F701E65BFF4F8B899C8938
:101DF0009183808332960D891E892F89388D0083C7
:101E000011832283338334961082118212821382CB
:101E10003496D08280E014C02830310509F4B9CF5F
:101E20004D939C01B0CF8217930709F2A9E1B0E06E
:101E3000AC0FBD1FA80FB91F4C930196B5CF81E120
:101E4000A5960FB6F894DEBF0FBECDBFDF91CF9140
:101E50001F910F91FF90EF90DF90CF90BF9008956A
:101E6000FC0115AEEC5AFF4F10820895EF92FF92DD
:101E70000F931F93CF93DF93CDB7DEB7A5970FB620
:101E8000F894DEBF0FBECDBF8B01DB01F8010190DE
:101E90000020E9F73197E01BF10B9D01201B310B6E
:101EA0002E173F0740F42C913FE9320F3A3108F4E6
:101EB00020522D93EBCFBE016F5F7F4F0E94650CC8
:101EC000E82E81E0E816A1F1DE015996FE01319677
:101ED00040E050E005C04830510541F08D93A90124
:101EE00081919A012F5F3F4F8032A9F7E9E1F0E03D
:101EF000EC0FFD1FE40FF51F8EE280834C5F5F4FF8
:101F0000FE013A9681918032A9F4E9E1F0E0EC0F0C
:101F1000FD1FE20FF31F1082B801CE0149960E9407
:101F2000A52D892B09F444C05EE2F52EEE2079F050
:101F300080E052C02417350741F3A9E1B0E0AC0FAF
:101F4000BD1FA20FB31F8C932F5F3F4FDBCFBE018E
:101F50006F5F7F4F8AED92E00E943E0DE82E811167
:101F6000E5CFDE015996FE01319620E030E0419147
:101F7000C90101964032F1F4E9E1F0E0EC0FFD1FF8
:101F8000E20FF31FF0822C5F3F4FFE013A96419122
:101F90004032B1F4E9E1F0E0EC0FFD1FE80FF91F6A
:101FA0001082B801CE0149960E94A52D892B79F6A1
:101FB00081E012C028303105F9F24D939C01D7CF52
:101FC0008217930739F3A9E1B0E0AC0FBD1FA80F4A
:101FD000B91F4C930196DBCFA5960FB6F894DEBFE0
:101FE0000FBECDBFDF91CF911F910F91FF90EF906A
:101FF00008953F924F925F926F927F928F929F923D
:10200000AF92BF92CF92DF92EF92FF920F931F9306
:10201000CF93DF93CDB7DEB761970FB6F894DEBFED
:102020000FBECDBF8C016B01FC01EB5AFF4F40800E
:10203000518062807380DB01F60101900020E9F796
:102040003197EC19FD09CD018C199D098E179F0759
:1020500040F48C919FE9980F9A3108F480528D9347
:10206000EBCFB601C8010E94360F882309F458C18E
:10207000780189E5E80EF11CB301A201C7010E94B5
:10208000100AE0EE8E2E99249A94FEE23F2E90E202
:10209000890E911C8114A2E09A0661F4BFEF4B1ADD
:1020A0005B0A6B0A7B0AB301A201C7010E94100AF6
:1020B000812C912C20E030E080E090E05801A80CC9
:1020C000B91CF501E20FF31FE75AFF4F4081403280
:1020D00041F0E1E0F0E0EC0FFD1FE80FF91F408355
:1020E00001962F5F3F4F2830310559F7E1E0F0E0CE
:1020F000EC0FFD1FE80FF91F3082019620E030E061
:10210000F501E20FF31FEF59FF4F4081403241F0DC
:10211000E1E0F0E0EC0FFD1FE80FF91F40830196AE
:102120002F5F3F4F2330310559F7E1E0F0E0EC0F2E
:10213000FD1FE80FF91F1082B601CE0101960E9423
:10214000A52D892B09F0A3CFF501E75AFF4F85EEA6
:1021500080837B96C080D12CDC2CCC24319780816D
:10216000C80ED11CB301A201C7010E945B0AC114B1
:10217000D10409F4D7C04D2C5524612C712CF801E1
:10218000858D968DB301A201480F591F611D711DE8
:10219000C7010E94100AC6014E865F86688A798A46
:1021A000FC01FF27EE0FFF1FD801AE0FBF1FA75A7C
:1021B000BF4F2C91E00FF11FE65AFF4FA080B12CCA
:1021C000BA2CAA24A20EB11C1C9210828B2C99242A
:1021D000892F99278815990509F44AC0FFEFAF1692
:1021E000BF06E9F4D8015D968D919C915E974E856E
:1021F0005F8568897989480F591F611D711DC70165
:102200000E945B0AF801878D90A1B301A201480FDB
:10221000591F611D711DC7010E94100A51C0D801CC
:102220005D968D919C915E974E855F8568897989D1
:10223000480F591F611D711DC7010E945B0AC4012F
:10224000A0E0B0E08E879F87A88BB98BD8015D9600
:102250008D919C915E974E855F8568897989480F3D
:10226000591F611D711DC7010E94100AC50198CF39
:10227000BFEFAB16BB06D1F7B5CFEFEFAE16BE067C
:1022800009F43FC0F801878D90A1B301A201480F66
:10229000591F611D711DC7010E945B0A2401612C39
:1022A000712CD8015F968D919C919097B301A201FA
:1022B000480F591F611D711DC7010E94100A650159
:1022C000F601FF27EE0FFF1FD801AE0FBF1FA75A61
:1022D000BF4F8C91E00FF11FE65AFF4FA080B12C49
:1022E000BA2CAA24A80EB11C1C9210828B2C992403
:1022F000CD2CDD24C814D90401F6BFEFAB16BB0604
:10230000F1F6D8015F968D919C919097B301A2014F
:10231000480F591F611D711DC7010E945B0A02C051
:1023200080E001C081E061960FB6F894DEBF0FBE79
:10233000CDBFDF91CF911F910F91FF90EF90DF9074
:10234000CF90BF90AF909F908F907F906F905F9055
:102350004F903F9008950F931F93CF93DF93EC011D
:102360008B01472F55278D8D9E8D480F591F60E09B
:1023700070E0CE01875A9F4F0E94100AB80177275C
:10238000660F771F6C0F7D1FFB01E75AFF4F2081FF
:102390003196808190E0982F8827820F911DDF91E0
:1023A000CF911F910F9108952F923F924F925F927C
:1023B0006F927F928F929F92AF92BF92CF92DF9255
:1023C000EF92FF920F931F93CF93DF93CDB7DEB7BA
:1023D00028970FB6F894DEBF0FBECDBF98878F83C6
:1023E0008B015C834B83FB01CF01801B910B2B8105
:1023F0003C812817390714F01192F6CFEF81F88548
:10240000EC5AFF4F8081823009F03BC12F80388425
:1024100030E5230E311CD1014D905D906D907C9084
:10242000EF81F885E65BFF4FFA83E983411451049D
:102430006104710429F480819181892B09F425C1FB
:10244000EF81F885A48523893489858596859E83C7
:102450008D838184912CA12CB12C82859385C58894
:10246000D688E788F08CC80ED91EE11CF11CB0E0BC
:102470000E947A2DC60ED71EE81EF91EC301B201B6
:1024800059E096958795779567955A95D1F7A50167
:1024900094010E94392DC60ED71EE81EF91EED814B
:1024A000FE81CF01A0E0B0E064E0B695A7959795D6
:1024B00087956A95D1F7C80ED91EEA1EFB1EA98121
:1024C000BA818D919C919C0140E050E022503109ED
:1024D00041095109C501B4010E94F52CC60ED71E51
:1024E000E81EF91E8F809884B9E58B0E911CB70108
:1024F000A601C4010E94100A580100E010E06F809C
:102500007884ECE46E0E711CF10180819181A281CE
:10251000B381F301408151816281738184179507F2
:10252000A607B70708F0B3C0AC01BD01517066271C
:102530007727EF81F885E40FF51FE75AFF4F2081D9
:102540002A3009F494C02D3009F4A6C08B819C81F7
:10255000081719070CF089C0D5012D935D010F5F95
:102560001F4FF10180819181A281B3810196A11D4C
:10257000B11D80839183A283B383AC01BD015170EF
:1025800066277727452B462B472B09F0BDCFBC018B
:10259000CD0149E096958795779567954A95D1F74E
:1025A000AF81B88519962C9130E040E050E00E9450
:1025B000392D672B682B692B31F0BFEFCB1ADB0A63
:1025C000EB0AFB0A4CC0E981FA81608171818F813D
:1025D00098850E94AB11AC01A981BA818D939C931F
:1025E000EF81F8856485238934890584F685E02D9B
:1025F000AF81B8851A968D919C911B975596CD9079
:10260000DD90ED90FC905897C80ED91EE11CF11C8E
:10261000A62FB0E00E947A2DC60ED71EE81EF91E26
:10262000CF01A0E0B0E034E0B695A79597958795E7
:102630003A95D1F7C80ED91EEA1EFB1E9A0140E05A
:1026400050E02250310941095109EF81F885A185F7
:10265000B0E00E94892DC60ED71EE81EF91EB701F4
:10266000A601C4010E94100A4FCF8EEF13C001963D
:10267000A11DB11DF10180839183A283B383C801A1
:102680001DC0811106C080EF05C08DEF03C08FEF24
:1026900001C081EF9FEF12C04F5F5F4F6F4F7F4FC1
:1026A0002F813885420F531FFA01E75AFF4F2081CF
:1026B0002A30E9F60296A11DB11DDCCF28960FB68F
:1026C000F894DEBF0FBECDBFDF91CF911F910F9168
:1026D000FF90EF90DF90CF90BF90AF909F908F9042
:1026E0007F906F905F904F903F902F900895CF9381
:1026F000DF93CDB7DEB7E5970FB6F894DEBF0FBE18
:10270000CDBF25E3E8E6F1E0CE010196DC010190C2
:102710000D922A95E1F7FC0101900020E9F7DC0118
:102720003197AE17BF0729F08D916813FACF81E07A
:1027300001C080E0E5960FB6F894DEBF0FBECDBFB6
:10274000DF91CF910895AF92BF92CF92DF92EF9237
:10275000FF920F931F93CF93DF938C01EB017B01CB
:10276000FE0101900020E9F73197EC1BFD0BC7013A
:102770008C1B9D0B8E179F0788F4F70160818FE9F2
:10278000860F8A3108F46052F70161937F01C80116
:102790000E9477138111E4CF80E08FC0BE01C80191
:1027A0000E94360F8111F8CFF801EB5AFF4FC0801D
:1027B000D180E280F3805801F9E5AF0EB11CB7017A
:1027C000A601C5010E94100A20EE3FEF205E3F4F98
:1027D000211582E0380761F4EFEFCE1ADE0AEE0A27
:1027E000FE0AB701A601C5010E94100A20E030E0F0
:1027F000C801820F931FFC01E75AFF4F408141112E
:1028000004C020E030E040E203C0453EF9F6F9CFD5
:10281000FC01E20FF31FE75AFF4F40832F5F3F4F4A
:102820002B303105A9F7DE0120E030E0FE010190F8
:102830000020E9F73197EC1BFD0BAD014C1B5D0B44
:102840004E175F0778F44D914E3249F0FC01E20FCC
:10285000F31FE75AFF4F40832F5F3F4FE7CF28E03A
:1028600030E0E4CF2BE030E0FC01E20FF31FE75A49
:10287000FF4F10822F5F3F4F20323105A9F7FC0137
:10288000EC59FF4F20E22083349640E64083319696
:1028900031E2308331962EE32083319630833196B6
:1028A0002083349640833196308331962083B7015C
:1028B000A601C5010E945B0A81E0DF91CF911F91C3
:1028C0000F91FF90EF90DF90CF90BF90AF90089561
:1028D000CF92DF92EF92FF920F931F93CF93DF93EC
:1028E000EC01C12CD12C76018C01075A1F4F8B892A
:1028F0009C89A0E0B0E08C159D05AE05BF05B0F148
:102900008D8D9E8DB701A601480F591F611D711D48
:10291000C8010E94100A5C2D442720E030E0CE015F
:10292000820F931FFC01E75AFF4F6081319680812F
:1029300090E0982F8827860F911D892B41F4C901BB
:1029400096958795840F951F009719F008C02E5F04
:102950003F4F213082E0380710F380E090E02FEF06
:10296000C21AD20AE20AF20A892B09F280E090E048
:10297000DF91CF911F910F91FF90EF90DF90CF905B
:1029800008952F923F924F925F926F927F928F9213
:102990009F92AF92BF92CF92DF92EF92FF920F93EE
:1029A0001F93CF93DF93CDB7DEB76E970FB6F89432
:1029B000DEBF0FBECDBF8C017F876E879C012B5A77
:1029C0003F4F3A8F298FD9012D903D904D905C90CB
:1029D000FC01EC5AFF4F8081833009F0B8C43A976C
:1029E000F98BE88B808191812C5F3F4F3901892BD6
:1029F00009F0E1C0C8010E946814A889B9898D93C3
:102A00009C93B201A101C3010E94100A80EEE82E3E
:102A1000FF24FA949EE2992E5801BDE3AB0EB11C3F
:102A2000E0E2EE0EF11CE114F2E0FF0661F42FEF9C
:102A3000221A320A420A520AB201A101C3010E94BB
:102A4000100AE12CF12C20E030E080E090E06801F9
:102A5000CE0CDF1CF601E20FF31FE75AFF4F408157
:102A6000403241F0E1E0F0E0EC0FFD1FE80FF91F0C
:102A7000408301962F5F3F4F2830310559F7E1E041
:102A8000F0E0EC0FFD1FE80FF91F9082019620E0A7
:102A900030E0F601E20FF31FEF59FF4F4081403263
:102AA00041F0E1E0F0E0EC0FFD1FE80FF91F40837B
:102AB00001962F5F3F4F2330310559F7E1E0F0E0F9
:102AC000EC0FFD1FE80FF91F1082B501CE01019632
:102AD0000E94A52D892B09F0A3CFA889B9899C91C3
:102AE00011968C91F601ED58FF4F908331968083BB
:102AF000B201A101C3010E945B0AE889F9898181C1
:102B000090E0D8015D964D915C915E97480F591FFA
:102B100060E070E0C3010E94100AE889F9894081F1
:102B20005181CA019927880F991F800F911FFC01BD
:102B3000E75AFF4FFF24FA94F0823196F082452F36
:102B40005527D8015D968D919C915E97480F591F2E
:102B500060E070E0C3010E945B0AE889F989818125
:102B600090E0D8015F964D915C919097480F591F66
:102B700060E070E0C3010E94100AE889F989408191
:102B80005181CA019927880F991F800F911FFC015D
:102B9000E75AFF4FF0823196F082452F5527D80132
:102BA0005F968D919C919097480F591F60E070E05F
:102BB000C3010E945B0AF801E45BFF4FFB8BEA8BC9
:102BC000C080D180E280F380A70196013170442754
:102BD00055272D8B3E8B4F8B588FEE85FF850190AF
:102BE0000020E9F731974E855F85E41BF50B8D8951
:102BF0009E89AF89B88D8E0F9F1FA11DB11DF80151
:102C0000F185FC8B4601570179E0B694A79497941F
:102C100087947A95D1F7F801258936894789508DAF
:102C20002B8F3C8F4D8F5E8F8F3F9140A105B1055B
:102C300008F0C3C02C89222E312C412C512CA2012A
:102C4000910169E0220F331F441F551F6A95D1F788
:102C5000C701B6010E94392D672B682B692B29F417
:102C6000CD28CE28CF2809F0A8C0C501B401A20103
:102C700091010E94392D6B017C018B8D9C8DAD8D56
:102C8000BE8DC80ED91EEA1EFB1ED8011C964C91A3
:102C90001C9753962D913C915497429FC001439F9E
:102CA000900D11241D962D913C911E9745E0220F09
:102CB000331F4A95E1F7232F33272695820F931F61
:102CC0001A962D913C911B97820F931FE889F989E1
:102CD0002081318122503109FC89F29FA001F39FAC
:102CE000500D1124840F951FC80ED91EE11CF11C34
:102CF000B701A601C3010E94100AAE85BF8540E05E
:102D000050E0BA01EE85FF8501900020E9F79F01B0
:102D1000215031098E859F85281B390B4217530797
:102D2000D0F48D91EA89FB8980809180A280B38064
:102D3000F1E09F22AA24BB24840E951EA61EB71E76
:102D4000F801E80DF91DE75AFF4F80834F5F5F4F91
:102D50006F4F7F4FD7CFEA89FB8980819181A28114
:102D6000B3819170AA27BB27AC01BD01420F531F4D
:102D7000611D711D400F511FFA01E75AFF4F2DE0F1
:102D80002083EE85FF8501900020E9F731972E859D
:102D90003F85E21BF30B0196A11DB11D8E0F9F1FF6
:102DA000A11DB11D800F911FFC01E75AFF4F2AE0C2
:102DB0002083B701A601C30119C26C89262F30E018
:102DC00040E050E0C501B4010E94392D6B017C0147
:102DD0008B8D9C8DAD8DBE8DC80ED91EEA1EFB1E3F
:102DE000D8011C964C911C9753962D913C91549769
:102DF000429FC001439F900D11241D962D913C913F
:102E00001E97E5E0220F331FEA95E1F7232F3327C2
:102E10002695820F931F1A962D913C911B97820F36
:102E2000931FE889F9892081318122503109FC8979
:102E3000F29FA001F39F500D1124840F951FC80E1F
:102E4000D91EE11CF11C2D893E894F89588D232BF9
:102E5000242B252B09F43FC0B701A601C3010E9412
:102E6000100AAA89BB892D903D904D905C90B1E0ED
:102E70003B2244245524812C72E0972EA12CB12CA6
:102E800082189308A408B508EE85FF8540E050E05D
:102E9000BA0180E090E02801420C531C2191D2013C
:102EA000A80FB91FA75ABF4F2C9301964F5F5F4FD2
:102EB0006F4F7F4F481559056A057B0579F75A0111
:102EC000B701A601C3010E945B0AEFEFCE1ADE0A2A
:102ED000EE0AFE0A02C0A12CB12CD8011C964C911E
:102EE0001C9753968D919C915497489F9001499FB0
:102EF000300D11241D968D919C911E9755E0880FE1
:102F0000991F5A95E1F7892F99278695280F391F20
:102F10001A968D919C911B97280F391F55968D916C
:102F20009D910D90BC91A02D820F931FA11DB11DED
:102F3000A7019601281B390B4A0B5B0BCA01B9018B
:102F4000D80119962C9130E040E050E00E94392DD4
:102F5000672B682B692B09F008C1C8010E9468140F
:102F60006C01E889F989818190E0D8015D964D91E5
:102F70005C915E97480F591F60E070E0C3010E94AA
:102F8000100AE889F98920813181A9015527440F68
:102F9000551F400F511FFA01E75AFF4FC082ED2C19
:102FA000FF243196E082232F3327D8015D968D913F
:102FB0009C915E9746019924E216F30681F4A401E0
:102FC000440F551F400F511FFA01E75AFF4F2FEFD3
:102FD000208331962083A701480F591F25C0A901DE
:102FE000480F591F60E070E0C3010E945B0AF801BE
:102FF000458D568D4E0D5F1D60E070E0C3010E944F
:10300000100AC401880F991F800F911FFC01E75A15
:10301000FF4F2FEF208331962083D8015D964D918D
:103020005C915E974E0D5F1D60E070E0C3010E94F1
:103030005B0AE889F989818190E0D8015F964D911A
:103040005C919097480F591F60E070E0C3010E94A7
:10305000100AE889F98920813181A9015527440F97
:10306000551F400F511FFA01E75AFF4FC08231969A
:10307000E082232F3327D8015F968D919C91909702
:10308000E216F30681F4A401440F551F400F511FAF
:10309000FA01E75AFF4F2FEF208331962083A701D3
:1030A000480F591F24C0A901480F591F60E070E064
:1030B000C3010E945B0AF801478D50A14E0D5F1DB0
:1030C00060E070E0C3010E94100A880C991C800E19
:1030D000911EF401E75AFF4F8FEF80833196808372
:1030E000D8015F964D915C9190974E0D5F1D60E009
:1030F00070E0C3010E945B0AE889F989D182C0822D
:10310000D8011C964C911C9753962D913C91549745
:10311000429FC001439F900D11241D962D913C911B
:103120001E9745E0220F331F4A95E1F7232F3327DF
:103130002695820F931F1A962D913C911B97820F13
:10314000931FB2E0CB1AD108F80141854C9D900144
:103150004D9D300D1124820F931FC588D688E788B6
:10316000F08CC80ED91EE11CF11C4801F9E58F0E48
:10317000911CB701A601C4010E94100A80E090E0F2
:103180002E853F852A0D3B1DEE85FF850190002091
:10319000E9F731974E855F85E41BF50BEA19FB09CA
:1031A0008E179F0760F4F801E80FF91FE75AFF4FE9
:1031B000D901A80FB91F4C9140830196E5CFE00FCC
:1031C000F11FE75AFF4F8DE08083FA010190002044
:1031D000E9F7E41BF50BEA19FB09E00FF11FE75AC9
:1031E000FF4F8AE08083B701A601C4010E945B0AF9
:1031F000AE85BF850D900020E9F7AD01EE85FF8516
:103200004E1B5F0B4F5F5F4F9801245B3F4FF901EF
:1032100080819181A281B381840F951FA11DB11D71
:1032200080839183A283B383A98DBA8D4D905D90E5
:103230006D907C905801B9E5AB0EB11CB301A201B1
:10324000C5010E94100AB0EECB2EDD24DA948EE286
:10325000382E4801EDE38E0E911CF0E2CF0ED11C0A
:10326000C11422E0D20661F43FEF431A530A630A05
:10327000730AB301A201C5010E94100AC12CD12C0E
:1032800020E030E080E090E07801EC0CFD1CF701DC
:10329000E20FF31FE75AFF4F4081403241F0E1E077
:1032A000F0E0EC0FFD1FE80FF91F408301962F5F40
:1032B0003F4F2830310559F7E1E0F0E0EC0FFD1FFA
:1032C000E80FF91F3082019620E030E0F701E20FAD
:1032D000F31FEF59FF4F4081403241F0E1E0F0E051
:1032E000EC0FFD1FE80FF91F408301962F5F3F4F42
:1032F0002330310559F7E1E0F0E0EC0FFD1FE80F56
:10330000F91F1082B401CE0101960E94A52D892BD0
:1033100009F0A3CFAA89BB893C9111962C911197F2
:1033200012969C91129713968C91F701EB58FF4FD0
:103330003083319620833196908331968083B30118
:10334000A201C5010E945B0A80E090E007C08111E4
:1033500003C080EF9FEF02C081EF9FEF6E960FB624
:10336000F894DEBF0FBECDBFDF91CF911F910F91BB
:10337000FF90EF90DF90CF90BF90AF909F908F9095
:103380007F906F905F904F903F902F900895109294
:1033900035050895CF93CFB7F89480913605811104
:1033A00027C0E9E7F5E08491E5E6F5E09491E82FA0
:1033B000F0E0EE0FFF1FE956FA4FA591B4918C9102
:1033C000892321F461E08AE00E94AD2961E08AE06E
:1033D0000E9474298CB580618CBD8CB580648CBDD5
:1033E00061E08DE00E94742961E08BE00E94742905
:1033F000809136058F5F80933605CFBFCF910895BA
:1034000021E0FC012083089570E085E00C94EC2815
:10341000AF92BF92CF92DF92EF92FF920F931F93E2
:10342000CF93DF93EC0189819A812FE0289F80015F
:10343000299F100D112485E10E94CF28800F911F34
:1034400024E0969587952A95E1F79A8389832881C8
:10345000222391F1AC81AD80B12CC12CD12CE88517
:10346000F9857F0100E010E06E817F819B0140E0E3
:1034700050E08617970728F0BC01E817F90708F411
:10348000BF0180E090E01F921F921F92AF930E94B5
:10349000902B6B830F900F900F900F9070E085E052
:1034A000DF91CF911F910F91FF90EF90DF90CF9020
:1034B000BF90AF900C94EC28DF91CF911F910F91AA
:1034C000FF90EF90DF90CF90BF90AF900895FC01F8
:1034D0008CE39FE09383828384E0818381E084870F
:1034E0000895CF93DF93EC018C819D81892B81F12D
:1034F0008C858F7151F584E10E94CF28BC0188270B
:1035000077FD8095982F0E94062C26EE3FE34EEC27
:1035100050E40E94922C0E94D82B9B017B836A83EB
:103520006115710581F084E08983FE0140E08481AA
:1035300095812817390710F449830AC04F5F3296E6
:103540004430A9F702C08FEF89838C858F5F8C8709
:10355000DF91CF910895FC0188E0808389E0818329
:1035600087E0828386E0838384E0848382E08583AE
:1035700081E186830895DF92EF92FF920F931F936C
:10358000CF93DF937C01EC0100E010E0DD24DA94BE
:1035900062E088810E94742988810E94E329F701F2
:1035A000E00FF11F892B21F487818F5F878308C08B
:1035B0008781882349F08F3F11F4178201C0D78299
:1035C00060E088810E9474290F5F1F4F21960730A9
:1035D0001105F1F6DF91CF911F910F91FF90EF90C0
:1035E000DF900895FC01E60FF11D81E09781913095
:1035F00009F080E00895262F30E0FC01E20FF31F70
:103600008781423028F481508E3F48F080E0089551
:103610008F3FE1F3642F0E94052D9130B9F781E0CF
:1036200008958EBD00000DB407FEFDCF8EB5089540
:10363000DC01643508F053C0403308F050C0909668
:103640008C919097342F359535953595E62FFF273A
:10365000E7FDF095242F2770823099F4DF01A95CF3
:10366000BA4F84E53802A00DB11D11248C9190E071
:10367000022E02C0959587950A94E2F78095817095
:1036800009C0833039F446271C968C91482740FFA7
:1036900003C014C0811112C084E53802E00DF11D91
:1036A0001124E95CFA4F81E090E0022E01C0880FFE
:1036B0000A94EAF780959081982310C084E5380237
:1036C000E00DF11D1124E95CFA4F81E090E0022E3B
:1036D00001C0880F0A94EAF79081982B908308958F
:1036E0001F93CF93DF93EC01162FF89460E08F8542
:1036F0000E94AD29888918161CF460E00E94AD294B
:10370000812F0E94111B888918161CF461E00E9409
:10371000AD297894DF91CF911F91089528EF31E082
:10372000E7E3F5E0DF01A9011D9241505040E1F7C8
:10373000DC0119961C9219971A961C920895DF9233
:10374000EF92FF920F931F93CF93DF93EC018C8541
:103750008F5F8C8787E3E82E85E0F82ED12C6D2DC6
:103760006064CE010E94701B60E8CE010E94701B55
:1037700061E08F850E94AD29888918161CF460E0ED
:103780000E94AD2900E010E0F701E00FF11F8081F9
:103790000E94111B0F5F1F4F04351105A9F788897F
:1037A00018161CF461E00E94AD29D39484E5E80E5C
:1037B000F11C86E0D812D3CF60E4CE01DF91CF9127
:1037C0001F910F91FF90EF90DF900C94701BFC0104
:1037D00060A361A30895FC0160A341A30895CF9263
:1037E000DF92FF920F931F93CF93DF931F92CDB77A
:1037F000DEB76C01062FF42E10E0121754F4412F9F
:103800004F0D602FC60129830E94181B1F5F29815D
:10381000F4CF0F90DF91CF911F910F91FF90DF9028
:10382000CF900895CF92DF92FF920F931F93CF9383
:10383000DF931F92CDB7DEB76C01062FF42E10E098
:10384000121754F4612F600F4F2DC60129830E9477
:10385000181B1F5F2981F4CF0F90DF91CF911F912B
:103860000F91FF90DF90CF900895DF92EF92FF923B
:103870000F931F93CF93DF93EC01E62ED22EF42EFD
:10388000112707FD1095040F111D47FD1A958F2D67
:10389000992787FD90958017910744F42D2D4F2D82
:1038A0006E2DCE010E94121CF394F1CFDF91CF91C7
:1038B0001F910F91FF90EF90DF9008958F929F924C
:1038C000AF92BF92CF92DF92EF92FF920F931F932E
:1038D000CF93DF93EC01E62ED42E122FCC24C39489
:1038E000C21AB22EB194BB0CF12C802F8470A82E7A
:1038F000802F8270982E802F8870882E0170F1168C
:103900000CF04DC0C7FC04C01150B394B394CB0C61
:10391000F3948F2D880F8F5FC80EAA2071F0412F6E
:103920004D0D6F2D6E0DCE010E94181B4F2D4D0DAC
:10393000612F6E0DCE010E94181B992071F04D2D44
:10394000411B6F2D6E0DCE010E94181B4D2D4F197E
:10395000612F6E0DCE010E94181B882071F04F2D33
:103960004D0D6E2D611BCE010E94181B412F4D0D78
:103970006E2D6F19CE010E94181B002309F4BFCFD2
:103980004D2D4F196E2D611BCE010E94181B4D2D20
:10399000411B6E2D6F19CE010E94181BB0CFDF9115
:1039A000CF911F910F91FF90EF90DF90CF90BF903C
:1039B000AF909F908F9008958F929F92AF92BF92F9
:1039C000CF92DF92EF92FF920F931F93CF93DF93EB
:1039D000EC01B62EA42E122FDD24D394D21AC22EBF
:1039E000C194CC0CFF24F394802F8170882E9924ED
:1039F00093949E0C02708FEF8F0D8117C4F5D7FC46
:103A000004C01150C394C394DC0C8F2D880F8F5FBA
:103A1000D80E882099F0212F220F290D4A2D411B05
:103A20006F2D6B0DCE010E94EF1B23E02E0D4A2D52
:103A30004F19612F6B0DCE010E94EF1B002399F0EF
:103A4000212F220F290D4A2D411B6B2D6F19CE01FD
:103A50000E94EF1B23E02E0D4A2D4F196B2D611B89
:103A6000CE010E94EF1BF394E394E394C4CFDF9163
:103A7000CF911F910F91FF90EF90DF90CF90BF906B
:103A8000AF909F908F9008959F92AF92BF92CF92E8
:103A9000DF92EF92FF920F931F93CF93DF93EC018E
:103AA000B62EF42EA22EDE2CD194DD0C9D2C920E7F
:103AB0001E2D160F292D612F0E94121CCC24CA9492
:103AC000C00ECF0C292D4C2D612FCE010E94121C4F
:103AD000D00EFE0C2D2D4F2D6B2DCE010E94EF1B15
:103AE000BA0C6FEF6B0D2D2D4F2DCE010E94EF1BE9
:103AF00001E02E2D4F2D612FCE010E945E1CDE2C89
:103B0000D094DB0C02E02E2D4F2D6D2DCE010E94A6
:103B10005E1CCE1804E02E2D4C2D6D2DCE010E9482
:103B20005E1C08E02E2D4C2D612FCE010E945E1CE4
:103B3000DF91CF911F910F91FF90EF90DF90CF9089
:103B4000BF90AF909F900895AF92BF92CF92DF92B7
:103B5000EF92FF920F931F93CF93DF93EC01A62E6A
:103B6000C42EB22EF02E1E2DE194EE0CD12ED60EC8
:103B70002E2D2B0D6D2D0E94351CFA94FE0CC10EBE
:103B80006FEF6A0D6B0D611BEF2C01E0212F4C2DA7
:103B9000CE010E94DC1C02E0212F4C2D6D2DCE01A8
:103BA0000E94DC1CDF91CF911F910F91FF90EF904D
:103BB000DF90CF90BF90AF9008956F927F928F92D9
:103BC0009F92AF92BF92CF92DF92EF92FF920F93AC
:103BD0001F93CF93DF93F901A49031965491FC0188
:103BE000F0A064350CF00CC1BB24A7FCB094A62F48
:103BF000BB27A7FDB095FD01EA0DFB1D1E161F0694
:103C00000CF0FEC040330CF0FBC0C52E042F112772
:103C100007FD1095E801C50FD11D57FDDA951C165B
:103C20001D060CF0EDC0E90122969501295F3F4F7A
:103C300037FF02C0295F3F4F73E0359527957A958E
:103C4000E1F747FF0AC0C52EC40E209FA001219FA7
:103C5000500D1124C41BD50B40E00C2D112707FD7E
:103C60001095040F111D47FD1A95013311051CF025
:103C700070E3C72EC41A67FD60E0E535F10514F066
:103C8000E4E5F0E01E2FFC0174857427862F992748
:103C900087FD9095FC01EA1BFB0BDF015F01F7E05C
:103CA000AF22BB24E0E8F0E002C0F595E795AA94C6
:103CB000E2F70E2FB7FD179653E0B595A7955A95E5
:103CC000E1F7AC0FBD1FE42FE77051E001C0550FC5
:103CD000EA95EAF7459545954595E4E54E02800D50
:103CE000911D1124895C9A4F40E0DD24C7FCD094DB
:103CF000BB24B3943327E42FF0E0EC15FD050CF062
:103D00007FC0FD01E490F1E0FF1219C0EC01A02E8C
:103D1000FD01862E881A9C2E980C911608F067C01B
:103D20009E2C9A2019F09880952A9882A69429F4BE
:103D30003196E4906894AA24A7F82196ECCFF1106C
:103D40001BC0752E7094EC01A02EFD01862E881AE2
:103D50009C2E980C911608F04AC09E2C9A2019F0BF
:103D6000988097209882A69429F43196E4906894DC
:103D7000AA24A7F82196ECCFE3E0FE1631F0EC017F
:103D8000A02EFD01862E881A2EC0752E7094962EB8
:103D9000EC01A02EFD019116B0F48E2C8A2049F082
:103DA0008880692C672660FE02C0852A01C08720B2
:103DB0008882A69429F43196E4906894AA24A7F8FE
:103DC00093942196E8CF7B2512C09E2C9A2019F05F
:103DD000988095269882A69429F43196E490689468
:103DE000AA24A7F821969C2E980C911670F3550FD3
:103DF00019F48C5A9F4F51E04F5FA20FB31F7BCF36
:103E0000DF91CF911F910F91FF90EF90DF90CF90B6
:103E1000BF90AF909F908F907F906F900895DC013E
:103E2000FB0184918F5F14968C9314973196E491E3
:103E3000EF5F1596EC9315976E5F7F4F5F967C93BF
:103E40006E935E970895EF920F93CF93DF93EC01FB
:103E50004E876D872F87E98A088B81E0888788A342
:103E600019A28F836AE572E0CE010E940F1F0E94A3
:103E7000CA198CB58F7D8CBD8CB58C7F81608CBD53
:103E80008DB581608DBD8CB58C608CBD61E08E85FB
:103E90000E94742961E08D850E94742961E08F85FC
:103EA0000E947429898918161CF461E00E94742903
:103EB000888918161CF461E00E94742989891816F3
:103EC0006CF460E00E94AD296AE070E080E090E070
:103ED0000E946C2861E089890E94AD298D8599270F
:103EE00087FD9095FC01E159FA4FE491F0E0EE0F67
:103EF000FF1FE357FA4F259134913D8B2C8BFC012A
:103F0000E55AFA4F84918B8F8E85992787FD90957E
:103F1000FC01E159FA4FE491F0E0EE0FFF1FE35787
:103F2000FA4F259134913B8B2A8BFC01E55AFA4FCD
:103F300084918A8F8889992787FD9095FC01E159A2
:103F4000FA4FE491F0E0EE0FFF1FE357FA4F25918F
:103F500034913F8B2E8BFC01E55AFA4F84918C8F64
:103F60008F85992787FD9095FC01E159FA4FE491DF
:103F7000F0E0EE0FFF1FE357FA4F25913491398F90
:103F8000288FFC01E55AFA4F84918D8F61E2CE01B2
:103F90000E94701B64E1CE010E94701B8B8587FF1D
:103FA00002C08FE78B876B856068CE010E94701B13
:103FB00060E2CE010E94701B6CE0CE010E94701B7B
:103FC000CE01DF91CF910F91EF900C949F1B6F92D8
:103FD0007F928F929F92AF92BF92CF92DF92EF9299
:103FE000FF920F931F93CF93DF93EC01162FF42EC4
:103FF000B02EE8A064350CF081C08FE284170CF479
:104000007DC0EC81F0E031970E9FC0010F9F900DB5
:104010001124860F911D67FD9A95181619060CF04C
:104020006DC08D81809FC0011124840F911D47FDBB
:104030009A95181619060CF061C0A62E962EC22E5F
:10404000D12C8A2D811B992787FD90952C8130E0FA
:10405000821793070CF051C0215031098217930742
:1040600079F0C29ED001C39EB00DD29EB00D112436
:10407000A80FB91FEE8DFF8DEA0FFB1F749001C0D2
:10408000712C8F2C6F2C282D2F19332727FD30955D
:104090008D8190E0281739076CF570FE11C081E022
:1040A000B81206C0482D6A2DCE010E94181B1EC0F2
:1040B0000B2D2B2D462D692DCE010E94351C16C0CF
:1040C00089A198A1891791F088A381E0B81206C050
:1040D000482D6A2DCE010E94181B07C00B2D2B2DD9
:1040E000462D692DCE010E94351CE8A276946B0CFA
:1040F0008394C9CF9B0CA394A4CFE8A2DF91CF9166
:104100001F910F91FF90EF90DF90CF90BF90AF90F5
:104110009F908F907F906F9008950F93CF93DF9330
:10412000EC01262F6A3039F42D8198858A85299FE4
:10413000800D112422C06D3011F108854A856985F2
:104140000E94E71F48855C812985549F200D11241A
:1041500029878F81882399F0332727FD309584E5BF
:1041600090E0459F801991091124821793073CF430
:104170009D818A85499F800D11248A87198681E057
:1041800090E0DF91CF910F9108958F929F92AF921F
:10419000BF92CF92DF92EF92FF920F931F93CF9334
:1041A000DF93EC015C0186E8A80EB11CD5018C916F
:1041B000882309F44DC08C3018F41CE0181B01C092
:1041C00010E0FE01EA5AFF4F81E080836E01BEE4F9
:1041D000CB0ED11C60E0C6010E94E71B4E01E3E557
:1041E0008E0E911CD4018C9103E0080F9DE2F92EF4
:1041F0004F2D481B410F23E0E22E24E560E0C6016D
:104200000E94A41D61E0C6010E94E71BF4018081A9
:1042100003E0080F4F2D481B410F24E560E0C60165
:104220000E94441DFE01E95AFF4F84E080833196CD
:10423000D4018C91181B115D1083CC57DF4F68811E
:104240007981C6010E945A2AF501808181508083BC
:10425000DF91CF911F910F91FF90EF90DF90CF9062
:10426000BF90AF909F908F900895DF92EF92FF9252
:104270000F931F93CF93DF93EC018C8D9D8D892B32
:1042800009F49CC08E01025B1F4F40E061E0C80151
:104290000E94EB1B85E5FE01EE5AFF4F9081891BC2
:1042A0003596808331961082698D613009F462C041
:1042B00028F0888D653008F074C06FC0CE018596F7
:1042C0000E94262681E0FE01EA5AFF4F80836AE5BC
:1042D00072E0C8010E940F1F1D8E1C8EFE01EC5A59
:1042E000FF4F108238EAD32E7E018AE0E80EF11CDF
:1042F000CE010E94E6218823D9F369E474E0C80165
:104300000E945A2A6A8D7B8D4AE050E0C8010E94C3
:104310008A2B64E374E0C8010E945A2A6D2D6295CD
:104320006F7070E04AE050E0C8010E94752B69E2AE
:1043300074E0C8010E945A2A64E0C7010E94F21A80
:1043400081113CC0DA94A1F660E0CE010E94041A0B
:1043500083B7817F846083BF83B7816083BF83B766
:10436000816083BF889583B78E7F83BF83B78E7F3D
:1043700083BFBECFCF58DF4F488159816A817B818F
:104380004F7055276627772748305105610571051D
:1043900010F467E009C068E707C0882379F06B5F15
:1043A00003C0882359F06FE2C801DF91CF911F91BC
:1043B0000F91FF90EF90DF900C94812ADF91CF91C5
:1043C0001F910F91FF90EF90DF9008958F929F9231
:1043D000AF92BF92EF92FF920F931F93CF93DF9311
:1043E000EC017C0100E8E00EF11CF7018080918077
:1043F000A280B3800E943D2895018401061B170B03
:10440000280B390BB901A8015E011FE7A10EB11CF1
:10441000F501808190E0A0E0B0E08E0105581F4FCB
:1044200084179507A607B70750F4F801808191819A
:10443000A281B381892B8A2B8B2B09F040C0F80114
:1044400080819181A281B381892B8A2B8B2BA9F545
:104450007E01F5E2EF0EF11CC7010E942326C70181
:104460000E949026C7010E945427CE010E94C520B9
:10447000CE010E9435217E012EE4E20EF11CC7011F
:104480000E949F1BFE01EC5AFF4F8081811103C0E7
:10449000C7010E948E1B0E944928F8016083718326
:1044A00082839383FE01EB58FF4FC958DF4F288169
:1044B0003981621B730B7183608380E036C00E9478
:1044C0003D28F5012081620F711D811D911DF701AD
:1044D0006083718382839383FE01EF58FF4F408195
:1044E0005181628173814F5F5F4F6F4F7F4F408378
:1044F000518362837383F8011082118212821382C6
:104500000E944928FE01E958FF4F6083718382832E
:104510009383CE010E94081ACE010A960E94BB1A0C
:10452000CE0148960E94711A81E0DF91CF911F91D0
:104530000F91FF90EF90BF90AF909F908F90089554
:104540000F931F93CF93DF938C01EC01C25BDF4F7E
:10455000CE010E948E1B61E074E0CE010E945A2AB7
:10456000CE010E949F1B8CB583608CBD8DB58E7F64
:104570008DBD85EA91E0EEEFFFE30995F801EC5A75
:10458000FF4F10826CED73E0CE010E949C2ACE0199
:104590000E949F1B065F1F4FC8010E94BB1A64E068
:1045A000C8010E94F21A811107C062E370E080E046
:1045B00090E00E946C28F0CFDF91CF911F910F9176
:1045C00008952F923F924F925F926F927F928F92B7
:1045D0009F92AF92BF92CF92DF92EF92FF920F9392
:1045E0001F93CF93DF93CDB7DEB729970FB6F8941B
:1045F000DEBF0FBECDBF998788871B012A013C0112
:1046000080E7680E711CF3018081882309F402C1E0
:1046100081E0E885F985EA5AFF4F8083E885F985CE
:10462000EB5AFF4F1082E885F985EC5AFF4F108254
:10463000E885F985108E8F01025B1F4F61E0C8018C
:104640000E94E71B888599858D5A9F4F9C838B8399
:10465000C884D98497E5C90ED11CE884F984E8E5BB
:10466000EE0EF11C888599858E5A9F4F9A83898317
:10467000E885F985EF58FF4FFE83ED8388849984A0
:10468000FAE08F0E911CA884B98485E2A80EB11CB3
:10469000888599850E94E6218823D1F3F1018491D0
:1046A000882321F0EB81FC81508101C050E02CE691
:1046B00034E040E060E0C8015F830E94DD1D5F815F
:1046C0004114510439F04CE0450F920160E0C801FB
:1046D0000E94DD1DF60110828CE0F7018083B1019C
:1046E000C8010E945A2AE981FA819081892F880F96
:1046F000890F81958D5AF6018083EB81FC81908131
:10470000892F880F890F8195835DF7018083ED8163
:10471000FE81808184FF03C067E674E002C063E627
:1047200074E0C8010E949C2AE981FA819081892F56
:10473000880F890F81958D5AF6018083F70180815A
:104740008F5F8083E885F98582A5882319F06FE55E
:1047500074E002C06BE574E0C8010E949C2AE98104
:10476000FA819081892F880F890F81958D5AF601E2
:104770008083F70180818F5F808367E574E0C801E3
:104780000E949C2A65E0C4010E94F21A882351F01D
:10479000E885F98562A56F5FC5010E94E627C5011E
:1047A0000E94D02764E0C4010E94F21A811113C054
:1047B000F3012081822F90E0A0E0B0E0ED81FE8146
:1047C0004081518162817381481759076A077B07CD
:1047D000A8F02F3F99F08FEFF301808308851985AA
:1047E0000B5D1F4F60E0C8010E94CD25C8010E94EB
:1047F000A42781E0E885F985808F0CC066E0C401BC
:104800000E94F21A882309F443CF888599850E9473
:10481000A02234CF29960FB6F894DEBF0FBECDBFCD
:10482000DF91CF911F910F91FF90EF90DF90CF908C
:10483000BF90AF909F908F907F906F905F904F90C0
:104840003F902F900895AB016BE674E00C94E12249
:10485000E0E8F7E72591349181E02130304C09F010
:1048600080E00895CF93DF93EC010E9428249E01FD
:10487000275A3F4FDE01A059BF4F882309F43CC09F
:10488000E6E9F7E78491F9018083E7E9F7E7E49146
:10489000EC83E8E9F7E7E491ED83E9E9F7E785914F
:1048A00094919F838E83EBE9F7E7859194919987A3
:1048B0008887EDE9F7E7E491EBA7EEE9F7E7E49104
:1048C000EAA7EFE9F7E7E491EC93E0EAF7E78591EF
:1048D00094919D8F8C8FE2EAF7E7859194919F8F59
:1048E0008E8FE4EAF7E78591949199A388A3E6EA8D
:1048F000F7E78591949120C08CE3F90180831C82B5
:104900002FEF2D8380E293E09F838E8384ED93E0ED
:104910009987888781E08BA78AA72C938CEA9DE0F2
:104920009D8F8C8F8EED9DE09F8F8E8F84E79EE014
:1049300099A388A38CE39FE09BA38AA3DF91CF91E7
:104940000895CF92DF92EF920F93CF93DF93EC0114
:10495000FC01E158FF4F82E38083349741E050E04F
:1049600060E070E040835183628373833B978FEFF5
:104970008083CE010E943224CE010E94001A6FEF84
:10498000CE010E94041A6E018AE0C80ED11CC60135
:104990000E94AB1AC6010E94BB1ACE0148960E9423
:1049A000671A3EE0E32E0FE020E14BE06DE0CE0120
:1049B000825B9F4F0E94231FA596CE010E9439253E
:1049C00065E0C6010E94F21A882351F060E0CE0132
:1049D000DF91CF910F91EF90DF90CF900C94E6276D
:1049E00040E06CED74E0CE01DF91CF910F91EF903C
:1049F000DF90CF900C94D825CF93DF9350E0FA014D
:104A0000EE0FFF1FE80FF91F37852089E32FF22FE4
:104A1000E60FF11DE60FF11D25913491FA01EE0F1D
:104A2000FF1FE80FF91F30A3278FF90165917491DB
:104A3000FC01D481D69FC02D1124E40FF51FC1A322
:104A4000F901A591B4916B2F70E0EC2FF0E0DC013F
:104A5000A40FB51F6E177F0720F4F901259134913B
:104A6000C32FCD9FC02D11249296CC93DF91CF916F
:104A7000089521E0FC01248324E020A72BE335E006
:104A8000308B278740E060E00E94FC2461E070E00A
:104A900083E00E94EC28E1EBF0E08081887F816078
:104AA0008083F89410928000E1E8F0E01082109288
:104AB00085001092840088E191E0909389008093B2
:104AC0008800808188608083808181608083EFE6B8
:104AD000F0E0808182608083789408950F93FC01D8
:104AE000862F642F011129C08230D1F048F4882329
:104AF00091F0813011F540E0CF010F910C94FC242E
:104B00008330A9F08430C9F48481489F602D11243A
:104B1000658F268F12C04B3008F06AE0668B0DC09F
:104B20008481489F602D1124618F228F06C084816B
:104B3000489F602D1124638F248F0F910895FC01ED
:104B400021110EC0648B8481489F402D1124458B18
:104B500015A214A213A281E0878B80933B07108ECD
:104B6000089580913B07882319F08091380701C090
:104B700080E08093B4000895FC0161110DC0178A94
:104B8000158A14A213A2108E1092380710923907BA
:104B900010923B070C94B1250895CF93DF93EC015D
:104BA000611103C00E94BC251982DF91CF91089545
:104BB0000F931F93CF93DF93EC018B0141110EC034
:104BC00060E00E94CD251E870D871B8A1A8A81E02E
:104BD000898389E08E8B198E1B8E1D8EDF91CF917C
:104BE0001F910F910895CF93DF93EC01611128C0BD
:104BF0008881882329F18981811122C089852F81AB
:104C00009885E22FF92FE80FF11DE80FF11D85912E
:104C100094918F3F2FEF920711F4188211C09C8757
:104C20009927880F991FEA85FB85E80FF91F659181
:104C3000749140E0CE010E94D82589858F5F8987D5
:104C4000DF91CF91089560E00C94F32560E00C941F
:104C5000CD250F93CF93DF93EC0161115DC0898166
:104C6000882309F459C08D89811156C02D853E8550
:104C70008A899B89880F991F820F931FFC01859158
:104C800094910097D1F48989882321F01B8A1A8A8C
:104C9000F90111C01982888160E0882331F0CE01CA
:104CA0000E94F3258A899B8925C0CE01DF91CF918F
:104CB0000F910C94BC2585919491BC0176956795D4
:104CC0007695679580FF1DC0AC01A6E05695479587
:104CD000AA95E1F7292F26952695269520514F7103
:104CE0006F7000E0CE010E946E258A899B89019633
:104CF0009B8B8A8B880F991FED85FE85E80FF91F26
:104D0000DACF492F6F7320E0CE010E949F258A8958
:104D10009B8901969B8B8A8BDF91CF910F91089590
:104D200060E00C942926CF93DF93EC016111B9C0A8
:104D30008F89882309F4B5C08D89811105C0CE0102
:104D4000DF91CF910C94BC2581508D8B8DA1811169
:104D500038C08BA19CA101969C01220F331FEF8DBF
:104D6000F8A1E20FF31F25913491422F47704EA313
:104D7000A90163E0569547956A95E1F7BA017695E2
:104D80006795232F269526952FA36F732C81629FFD
:104D9000602D11246DA34170409337079CA38BA312
:104DA00029A130E08217930760F08AA1882329F0B7
:104DB000281B31093CA32BA304C060E0CE010E9454
:104DC000BC258DA181508DA3288D2F5F288F4C8904
:104DD0003FA1340F8C85380F3A836B8D662361F0C9
:104DE00070E0822F992787FD90950E94252D8C8D4C
:104DF000869F300D11243A838A8190E0CB966BE335
:104E000070E00E94252D8A833E893B83698D66234D
:104E100071F0772767FD7095822F992787FD909510
:104E20000E94252D8A8D869F300D11243B836D8D28
:104E3000662391F0822F992787FD909570E00E945C
:104E4000252DCB0162E070E00E94252D2E8D9B81E7
:104E5000289F900D11249B838B814F3339F08A302A
:104E60000CF089E087FD80E08B8301C01B82F89401
:104E7000EA81F0E0E651FB4FE491E0933A0798A510
:104E80008D81989F802D11249B81899F802D1124D5
:104E90009EA1899F802D1124809339078093380724
:104EA0007894DF91CF91089560E00C9493266091FF
:104EB0003907662321F180913C078F5F80933C077F
:104EC00090913A078917D8F080913B0791E08927A4
:104ED00080933B0710923C0780913707882369F045
:104EE0009091270183E4989F802D1124895B809302
:104EF00027010E94052D909338070C94B125089541
:104F00001F920F920FB60F9211242F933F934F933E
:104F10005F936F937F938F939F93AF93BF93EF9321
:104F2000FF930E945727FF91EF91BF91AF919F91FF
:104F30008F917F916F915F914F913F912F910F9042
:104F40000FBE0F901F901895CF93DF93EC0160E098
:104F50000E94CD2583E395E09E878D871B8A1A8A60
:104F600081E0898389E08E8B198E1B8E1D8EDF91E7
:104F7000CF910895CF93DF93EC0160E00E94CD259F
:104F80008BE295E09E878D871B8A1A8A81E0898350
:104F900089E08E8B198E1B8E1D8EDF91CF91089527
:104FA000CF93DF93EC0160E00E94CD2585E295E090
:104FB0009E878D871B8A1A8A81E0898389E08E8B80
:104FC000198E1B8E1D8EDF91CF910895FC01862FC7
:104FD000992787FD9095668170E06F5F7F4F0E94F3
:104FE000252D858308951F920F920FB60F921124DD
:104FF0002F933F938F939F93AF93BF9380913E07DF
:1050000090913F07A0914007B091410730913D0733
:1050100023E0230F2D3720F40196A11DB11D05C0FB
:1050200026E8230F0296A11DB11D20933D07809312
:105030003E0790933F07A0934007B09341078091AC
:10504000420790914307A0914407B091450701960C
:10505000A11DB11D8093420790934307A09344077D
:10506000B0934507BF91AF919F918F913F912F9141
:105070000F900FBE0F901F9018952FB7F894609166
:105080003E0770913F0780914007909141072FBFE5
:1050900008953FB7F8948091420790914307A091FB
:1050A0004407B091450726B5A89B05C02F3F19F0CE
:1050B0000196A11DB11D3FBF6627782F892F9A2F1A
:1050C000620F711D811D911D42E0660F771F881FC1
:1050D000991F4A95D1F70895CF92DF92EF92FF92F0
:1050E000CF93DF936B017C010E944928EB01C1142F
:1050F000D104E104F10489F00E94D72B0E944928D1
:105100006C1B7D0B683E734090F381E0C81AD10898
:10511000E108F108C851DC4FEACFDF91CF91FF9051
:10512000EF90DF90CF900895789484B5826084BD2D
:1051300084B5816084BD85B5826085BD85B581609B
:1051400085BDEEE6F0E0808181608083E1E8F0E0FB
:105150001082808182608083808181608083E0E82A
:10516000F0E0808181608083E1EBF0E08081846009
:105170008083E0EBF0E0808181608083EAE7F0E00B
:10518000808184608083808182608083808181606F
:1051900080838081806880831092C10008958E3062
:1051A00008F08E5087702091280190E4299F90018B
:1051B0001124822B80937C0080917A0080648093FC
:1051C0007A0080917A0086FDFCCF80917800209152
:1051D000790090E0922B08951F93CF93DF93182FBF
:1051E000EB0161E00E947429209711F460E004C093
:1051F000CF3FD10539F461E0812FDF91CF911F912D
:105200000C94AD29E12FF0E0E95BFA4FE491E33033
:10521000F9F048F4E130B9F0E230A1F584B58062EC
:1052200084BDC8BD34C0E730E9F0E83019F1E4309E
:1052300049F580918000806280938000D0938B003C
:10524000C0938A0024C084B5806884BDC7BD1FC0D8
:1052500080918000806880938000D0938900C09303
:10526000880015C08091B00080688093B000C09322
:10527000B3000DC08091B00080628093B000C093F5
:10528000B40005C0C038D1050CF0B5CFAFCFDF9169
:10529000CF911F910895833081F028F4813099F0E7
:1052A0008230A1F008958730A9F08830B9F08430B9
:1052B000D1F4809180008F7D03C0809180008F7732
:1052C00080938000089584B58F7702C084B58F7D68
:1052D00084BD08958091B0008F7703C08091B000A5
:1052E0008F7D8093B0000895CF93DF9390E0FC0111
:1052F000E55AFA4F2491FC01E159FA4F8491882331
:1053000049F190E0880F991FFC01E956FA4FA591E9
:10531000B49183579A4FFC01C591D4919FB7611105
:1053200008C0F8948C91209582238C9388818223E5
:105330000AC0623051F4F8948C91322F3095832357
:105340008C938881822B888304C0F8948C91822B63
:105350008C939FBFDF91CF9108950F931F93CF93AD
:10536000DF931F92CDB7DEB7282F30E0F901E95B5C
:10537000FA4F8491F901E55AFA4F1491F901E15974
:10538000FA4F04910023C9F0882321F069830E9419
:105390004B296981E02FF0E0EE0FFF1FE357FA4F32
:1053A000A591B4919FB7F8948C91611103C01095A9
:1053B000812301C0812B8C939FBF0F90DF91CF91F0
:1053C0001F910F910895CF93DF93282F30E0F901BB
:1053D000E95BFA4F8491F901E55AFA4FD491F9014A
:1053E000E159FA4FC491CC2391F081110E944B29CD
:1053F000EC2FF0E0EE0FFF1FED57FA4FA591B4919F
:105400002C912D2381E090E021F480E002C080E027
:1054100090E0DF91CF91089508950E9494280E9412
:105420000C2A0E946A07C0E0D0E00E94E2052097A3
:10543000E1F30E940000F9CFCF92DF92EF92FF924A
:105440000F931F93CF93DF936C017A01EB01E60E6C
:10545000F71E00E010E0CE15DF0561F06991D6017E
:10546000ED91FC910190F081E02DC6010995080FA6
:10547000191FF1CFC801DF91CF911F910F91FF90BC
:10548000EF90DF90CF9008956115710581F0DB01F9
:105490000D900020E9F7AD0141505109461B570B13
:1054A000DC01ED91FC910280F381E02D099480E014
:1054B00090E00895EF92FF920F931F93CF93DF93A5
:1054C0008C01FB01C0E0D0E064917F018FEFE81A0E
:1054D000F80A662361F0D801ED91FC910190F0810A
:1054E000E02DC8010995C80FD91FF701EDCFCE01F6
:1054F000DF91CF911F910F91FF90EF9008950C9441
:10550000442ADC01ED91FC910190F081E02D099499
:105510000F931F93CF93DF93EC016DE00E94812ADC
:105520008C016AE0CE010E94812A800F911FDF91D9
:10553000CF911F910F9108950F931F93CF93DF93F6
:10554000EC010E945A2A8C01CE010E94882A800F09
:10555000911FDF91CF911F910F9108950F931F938A
:10556000CF93DF93EC010E94442A8C01CE010E946C
:10557000882A800F911FDF91CF911F910F9108957D
:105580000F931F93CF93DF93EC010E94812A8C012C
:10559000CE010E94882A800F911FDF91CF911F9129
:1055A0000F9108958F929F92AF92BF92CF92DF9208
:1055B000EF92FF920F931F93CF93DF93CDB7DEB798
:1055C000A1970FB6F894DEBF0FBECDBF7C01C42EED
:1055D000E52FCB01D22E19A221E02D1510F02AE0E3
:1055E000D22E8E010F5D1F4F8D2C912CA12CB12C32
:1055F0006C2D7E2FA50194010E94392D8C2DD29EF9
:1056000080191124015011098A3014F4805D01C001
:10561000895CF8018083211531054105510521F090
:10562000C22EE32FCA01E4CFB801C7010E94442A69
:10563000A1960FB6F894DEBF0FBECDBFDF91CF911C
:105640001F910F91FF90EF90DF90CF90BF90AF90A0
:105650009F908F900895CF92DF92EF92FF920F93D9
:105660001F93CF93DF93EC016A017B012115310574
:1056700079F4E881F9810190F081E02D642FDF91C8
:10568000CF911F910F91FF90EF90DF90CF900994F1
:105690002A303105E9F477FF1AC06DE20E94812AB1
:1056A0008C0144275527BA014C195D096E097F0901
:1056B0002AE0CE010E94D22A800F911FDF91CF9164
:1056C0001F910F91FF90EF90DF90CF9008952AE007
:1056D000B701A601CE01DF91CF911F910F91FF90ED
:1056E000EF90DF90CF900C94D22A9A01AB016627FD
:1056F00057FD6095762F0C942B2B2115310541F425
:10570000DC01ED91FC910190F081E02D642F099472
:105710000C94D22A9A01AB0160E070E00C947D2BCE
:105720004F925F926F927F92AF92BF92CF92DF9231
:10573000EF92FF920F931F93CF93DF93CDB7DEB716
:1057400029013A01621B730B840B950B29893A8955
:105750004B895C892A193B094C095D09298B3A8BD5
:105760004B8B5C8B9B01AC0169897A898B899C8905
:105770000E94F52CE418F50806091709A8019701FD
:105780000E945B2D2A0D3B1D4C1D5D1DCA01B901F8
:10579000DF91CF911F910F91FF90EF90DF90CF900D
:1057A000BF90AF907F906F905F904F900895089555
:1057B00098D088F09F5790F0B92F9927B751A0F053
:1057C000D1F0660F771F881F991F1AF0BA95C9F795
:1057D00012C0B13081F09FD0B1E008959CC0672F16
:1057E000782F8827B85F39F0B93FCCF38695779545
:1057F0006795B395D9F73EF490958095709561952E
:105800007F4F8F4F9F4F0895E89409C097FB3EF458
:1058100090958095709561957F4F8F4F9F4F9923FD
:10582000A9F0F92F96E9BB279395F695879577957B
:105830006795B795F111F8CFFAF4BB0F11F460FF3B
:105840001BC06F5F7F4F8F4F9F4F16C0882311F093
:1058500096E911C0772321F09EE8872F762F05C0A7
:10586000662371F096E8862F70E060E02AF09A9542
:10587000660F771F881FDAF7880F9695879597F937
:10588000089597F99F6780E870E060E008959FEFC2
:1058900080EC089500240A941616170618060906C7
:1058A000089500240A941216130614060506089596
:1058B000092E0394000C11F4882352F0BB0F40F41E
:1058C000BF2B11F460FF04C06F5F7F4F8F4F9F4F5E
:1058D000089557FD9058440F551F59F05F3F71F0E0
:1058E0004795880F97FB991F61F09F3F79F0879547
:1058F0000895121613061406551FF2CF4695F1DFD0
:1059000008C0161617061806991FF1CF869571055F
:10591000610508940895E894BB2766277727CB0193
:1059200097F908950BD0C4CFB5DF28F0BADF18F08F
:10593000952309F0A6CFABCF1124EECFCADFA0F399
:10594000959FD1F3950F50E0551F629FF001729F14
:10595000BB27F00DB11D639FAA27F00DB11DAA1F33
:10596000649F6627B00DA11D661F829F2227B00D80
:10597000A11D621F739FB00DA11D621F839FA00D0B
:10598000611D221F749F3327A00D611D231F849F5B
:10599000600D211D822F762F6A2F11249F575040B2
:1059A0008AF0E1F088234AF0EE0FFF1FBB1F661F4D
:1059B000771F881F91505040A9F79E3F510570F006
:1059C00060CFAACF5F3FECF3983EDCF386957795E6
:1059D0006795B795F795E7959F5FC1F7FE2B880F01
:1059E000911D9695879597F90895DB018F939F9365
:1059F0000E94892DBF91AF91A29F800D911DA39F01
:105A0000900DB29F900D11240895991B79E004C068
:105A1000991F961708F0961B881F7A95C9F78095ED
:105A20000895AA1BBB1B51E107C0AA1FBB1FA617E5
:105A3000B70710F0A61BB70B881F991F5A95A9F737
:105A400080959095BC01CD01089597FB072E16F423
:105A5000009407D077FD09D00E94112D07FC05D0D6
:105A60003EF4909581959F4F0895709561957F4F75
:105A70000895A1E21A2EAA1BBB1BFD010DC0AA1F8F
:105A8000BB1FEE1FFF1FA217B307E407F50720F0A7
:105A9000A21BB30BE40BF50B661F771F881F991F22
:105AA0001A9469F760957095809590959B01AC016B
:105AB000BD01CF010895052E97FB1EF400940E94AE
:105AC000722D57FD07D00E94392D07FC03D04EF4EC
:105AD0000C94722D50954095309521953F4F4F4F26
