:100000000C94EE030C9416040C9416040C94160431
:100010000C9416040C9416040C9416040C941604F8
:100020000C9416040C9416040C9416040C946F177C
:100030000C9416040C9416040C9416040C941604D8
:100040000C946B1A0C9416040C9416040C9416045D
:100050000C9416040C9416040C9416040C941604B8
:100060000C9416040C9416045820FFFFFFFFFFDFCA
:10007000FFFFFFFFF0FFFFFFC00000001FFFFFF0CA
:10008000FFFFFC0000000001FFFFF0FFFF80000009
:100090000000000FFFF0FFFE00000000000003FF63
:1000A000F0FFE0000000000000003FF0FFC003FF91
:1000B000FFC00000001FF0FE03FFFE0BC3C00000E6
:1000C00003F0FC1FFFF019F0F8000001F0F1FFFF52
:1000D00001DD871F80000070F3FFFC0467C9CFC0FB
:1000E000000070CFFF87CDBFFF1BF0000010DFFCCA
:1000F0007F17FFFF89F8000010F81C975FFFFFECE7
:10010000FE000000E07ABF5FFFFFF4FE000000A4E5
:1001100038FFFFFFFFCC7E000000FFFFFFFFFFFF67
:10012000EC7F00000081FBFFDFFFFFCC7E000000C2
:10013000E07ABF5FFFFFF4FE000000BFC701D7FFFA
:10014000FFC5FC000000DFFC7F17FFFF89F80000FF
:1001500010E7FFF070EBADB7E0000030F3FFFC04F8
:1001600067C9CFC0000070F87FFFC077683E00000D
:1001700000F0FC1FFFF019F0F8000001F0FF007F15
:10018000FFF03E00000007F0FFC003FFFFC00000CB
:10019000001FF0FFF800000000000000FFF0FFFE6D
:1001A00000000000000003FFF0FFFFE0000000007F
:1001B000003FFFF0FFFFFC0000000001FFFFF0FF29
:1001C000FFFFFE000003FFFFFFF04D616E64656CF2
:1001D00075696E6F004D616E64656C75696E6F0058
:1001E00003053F213F1208120A100A0E1C0E0C1EB6
:1001F0000C141A14161F161E131E1E1B1E1E1F1E65
:100200003F213F3A2F3A173D173F213F181F020465
:100210000A041F0E04040E1F0A1F0A0E0E1F0411EB
:100220000E2E252E2F2A2E262929021F02081F08EE
:10023000150E04040E150E15151B151B04060404DB
:100240000C040000000017000300031F0A1F1637EC
:100250001A1904130A153A000300000E11110E00BA
:100260000A040A040E0400300004040400100018FC
:1002700004031F111F121F101D151711151F07044E
:100280001F17151D1F151D01011F1F151F17151FF6
:10029000000A00003200040A110A0A0A110A0401C5
:1002A00015020E11171E051E1F150A0E110A1F1129
:1002B0000E1F15111F05010E111D1F041F111F1107
:1002C00008100F1F041B1F10101F061F1E040F0E07
:1002D000110E1F09060E112E1F051A121509011FF6
:1002E000011F101F0F180F1F0C1F1B041B031C03E3
:1002F000191513001F11030418111F000201022019
:1003000020200001020C121E1F120C0C12120C12E3
:100310001F0C1A14041E05242A1E1F021C141D1073
:1003200020201D1F0814111F101E041E1E021C0C6D
:10033000120C3E0A040C123E1E040214160A020F8E
:10034000120E101E0E100E1E081E120C1226281E53
:10035000322A26041E21001F00211E040102013F33
:10036000213F05077F4141417F3E5B4F5B3E3E6B36
:100370004F6B3E183C783C18183C7E3C181C577D4F
:10038000571C1C5E7F5E1C007E43437E007E7373A1
:100390007E007E7F7F7E7F4141417F30483A060E5E
:1003A00006297929067F4141417F60703F02042A76
:1003B0001C361C2A7F3E1C080000081C3E7F1422AD
:1003C0007F22143C3C3C7EFF18423C817E3E63759C
:1003D000633E3E616B633E3E636B6B3E04027F0295
:1003E0000410207F201008082A1C08081C2A08086E
:1003F000143E554122637569756310181C1810046A
:100400000C1C0C04000000000000005F000000074E
:10041000000700147F147F14042A7F2A1023130876
:10042000646236495620500008070300001C224130
:10043000000041221C002A1C3E1C2A08083E080815
:1004400000E0600000080808080800606000006024
:10045000100804033E5149453E00427F400062516E
:100460004949462141494D331814127F102745450B
:1004700045393C4A49493041211109073649494922
:1004800036064949291E000024000000806400004F
:1004900008142241001414141414004122140802F8
:1004A000015909063E415D594E7C1211127C7F496B
:1004B0004949363E414141227F4141221C7F494901
:1004C00049417F090909013E414151327F0808082D
:1004D0007F00417F41002041413F017F08142241BC
:1004E0007F404040407F020C027F7F0204087F3E35
:1004F0004141413E7F090909063E416141BE7F09F4
:10050000192946264949493201017F01013F4040EE
:10051000403F1F2040201F3F4038403F63140814D5
:100520006303047804036151494543007F4141005E
:1005300003040810600041417F00040201020480AE
:1005400080808080000307080020545478407F2872
:100550004444383844444428384444287F38545468
:100560005418087E09090218A4A49C787F08040482
:100570007800447D4000006080847D7F1010284416
:1005800000417F40007C047804787C0804047838BB
:1005900044444438FC1824241818242418FC7C08EB
:1005A0000404080854545420043F4444203C404070
:1005B000207C1C2040201C3C4020403C442810282B
:1005C000444C9090907C4464544C44000836410064
:1005D00000007F00000041360800180408100C7F5E
:1005E0004141417F0A4E6F20534420636172642071
:1005F0006F720A6E6F204C4F414445522E48455849
:100600000A0A153A45786974001D20466C617368C2
:10061000696E670A20206C6F616465722E2E2E0A47
:100620000A444F4E2754205455524E204F464621DF
:10063000000A0A153A49676E6F7265006D560A0A1C
:10064000504C45415345205455524E204F4646206C
:10065000004C4F5720424154544552592120001715
:100660007361766500166261636B0015747970655D
:10067000000A0A0A153A6F6B617920163A656469B7
:100680007400596F7520656E74657265640A005454
:100690000A03E181867F3E186D830F0F0E0183866A
:1006A0006033186DC3198F1803C38E6033186DE360
:1006B00030CF1803C39E603630CDE360CF3006C71D
:1006C0009E7E3E30CDB360CF300CC6F6603330D95D
:1006D000B660CF33CFCCF66061B0DB1E60CF30D8D0
:1006E0006CE6C061B0DB1E618F19986CC6C063B147
:1006F0009B0E330F0FB078C6FF7E1F1B061E0F1711
:10070000534400161378001613140015102000151A
:10071000201000000005008930080238024978687E
:100720001400004500680100000500680138010060
:10073000000500380168010000F6E8DBCFC3B8AE61
:10074000A49B928A827B746E68625C57524E4945C4
:10075000413E3A3734312E2C29272523211F1D1CD9
:100760001A1917161514131211100F0E0D0C0B0A6F
:100770000908070678077C070101F7030101FF0359
:1007800000000000240027002A00000000002500CF
:1007900028002B000000000023002600290004048C
:1007A0000404040404040202020202020303030319
:1007B00003030102040810204080010204081020F5
:1007C00001020408102000000008000201000003DC
:1007D00004070000000000000000EF0411241FBE09
:1007E000CFEFD8E0DEBFCDBF11E0A0E0B1E0ECE09C
:1007F000FFE302C005900D92A832B107D9F713E0CC
:10080000A8E2B1E001C01D92A03CB107E1F717E0FA
:10081000CCEDD7E004C02297FE010E94801FCA3DA4
:10082000D107C9F70E94DE180C94841F0C940000B5
:100830002F923F924F925F926F927F928F929F92F0
:10084000AF92BF92CF92DF92EF92FF920F931F93DE
:10085000DF93CF93CDB7DEB762970FB6F894DEBFC4
:100860000FBECDBF6B837C838D839E832F833887A0
:1008700049875A87EB86FC860D871E87AF86B88A24
:10088000C98ADA8A9B01AC010E94981E1B012C01C7
:100890006F81788589859A859B01AC010E94981E9D
:1008A0003B014C01C201B101A40193010E94E61C6D
:1008B0002FA138A549A55AA50E944A1D18160CF467
:1008C0008BC08BA59CA5181619060CF085C06B81F2
:1008D0007C818D819E812F81388549855A850E9432
:1008E000981E7B018C01ABA5BCA5BA83A98306C069
:1008F00089819A81181619060CF069C089819A813C
:1009000001979A838983C201B101A40193010E94D6
:10091000E51C2B853C854D855E850E94E61C5B01B0
:100920006C01C801B701A80197010E94E61C2F8540
:10093000388949895A890E94E61C7B018C01C601CD
:10094000B501A60195010E94981E1B012C01C8014A
:10095000B701A80197010E94981E3B014C01C601F6
:10096000B501A80197010E94981E7B018C01C2016C
:10097000B101A40193010E94E61C9B01AC016FA18F
:1009800078A589A59AA50E94941E87FFB1CF2BA5B3
:100990003CA5A981BA812A1B3B0BC90162960FB6FF
:1009A000F894DEBF0FBECDBFCF91DF911F910F91A5
:1009B000FF90EF90DF90CF90BF90AF909F908F907F
:1009C0007F906F905F904F903F902F9008952BA550
:1009D0003CA5281B390BE1CF20E030E0DECF1092A0
:1009E00079011092780183E291E0909377018093EE
:1009F000760108950F931F9308E211E0C8010E9449
:100A00008D1486E791E062E673E00E94040EC8014F
:100A1000859660E00E949F17C80165ED71E048E689
:100A200050E00E942A131092400181E080937C01E3
:100A30001F910F910895CF92DF92EF92FF920F9343
:100A40001F93CF93DF936C018B017A01E90182E35D
:100A500091E064E041E00E945A09882309F450C003
:100A600082E391E061E042E00E945A09882309F0A4
:100A7000BCC082E391E063E042E00E945A0988230F
:100A800019F088818F5F888382E391E060E042E023
:100A90000E945A09882309F097C082E391E062E03E
:100AA00042E00E945A09882321F0F70180818F5F7C
:100AB00080832881F801808190E0820F911DC19789
:100AC00014F021502883F7012081F601808190E005
:100AD000820F911D853591051CF02150F70120836F
:100AE000213009F495C08881813009F48EC0DF91EE
:100AF000CF911F910F91FF90EF90DF90CF900895CD
:100B000082E391E061E042E00E945A09882309F003
:100B10004AC082E391E063E042E00E945A098823E0
:100B200021F0F80180818F5F808382E391E060E0B3
:100B300042E00E945A09882339F582E391E062E09D
:100B400042E00E945A09882321F0F60180818F5FDC
:100B50008083F80140812881842F90E0820F911DCD
:100B6000C19714F041504083F6013081F701208194
:100B7000832F90E0820F911D853591050CF4B7CF3E
:100B80003150F6013083B3CFF60180818823A9F27A
:100B90008150808382E391E062E042E00E945A0942
:100BA0008823B9F2D2CFF8018081882309F4B1CF2C
:100BB0008150808382E391E063E042E00E945A0921
:100BC000882309F4B2CFADCFF7018081882309F4DF
:100BD00064CF8150808382E391E062E042E00E9432
:100BE0005A09882309F465CF60CF8881882309F4E6
:100BF00040CF8150888382E391E063E042E00E942D
:100C00005A09882309F440CF3CCF82E088836FCF14
:100C100082E0F70180838881813009F068CFF5CFC9
:100C20002F923F924F925F926F927F928F929F92FC
:100C3000AF92BF92CF92DF92EF92FF920F931F93EA
:100C4000DF93CF93CDB7DEB761970FB6F894DEBFD1
:100C50000FBECDBF6C837D838E839F8328873987AA
:100C60004A875B87EC86FD860E871F87C601B50124
:100C7000A80197010E94E51C2B013C011B821A82EE
:100C8000688579858A859B852C813D814E815F8130
:100C90000E94E51C7B018C01AA81BB81BD018827D4
:100CA00077FD8095982F0E94E41DA80197010E946E
:100CB000981E20E030E048EA52E40E944E1D9B015D
:100CC000AC016C817D818E819F810E94E61C688BC6
:100CD000798B1C018824992441C031E0398361E07B
:100CE00086E791E00E94150A382D20919601223066
:100CF00009F4DAC0233009F4F7C0882D859585956D
:100D00008595992787FD9095A4E5B0E08A9FF0012D
:100D10008B9FF00D9A9FF00D11244A815B81E40FA7
:100D2000F51FE055FE4F60813770432F552747FD73
:100D30005095222309F081C081E090E002C0880F25
:100D4000991F4A95E2F78095862380830894811C39
:100D5000911C50E38516910409F480C0B4018827E2
:100D600077FD8095982F0E94E41DA30192010E94B7
:100D7000981E20E030E040E452E40E944E1D2C8595
:100D80003D854E855F850E94E61C5B016C0100D0AD
:100D900000D000D02DB73EB72F5F3F4F8EA19FA14F
:100DA000A8A5B9A5EDB7FEB781839283A383B483C9
:100DB000EAA5D9011496EC93149715961C922889EC
:100DC0003989B901C1019501A601E889F9897F0135
:100DD00081010E9418042DB73EB72A5F3F4F0FB61E
:100DE000F8943EBF0FBE2DBF9C012170307080FF74
:100DF00074CF2130310511F0698172CF198260E022
:100E00006FCF882D859585958595992787FD909538
:100E1000A4E5B0E08A9FF0018B9FF00D9A9FF00D42
:100E200011244A815B81E40FF51FE055FE4F60817C
:100E30003770432F552747FD509581E090E002C061
:100E4000880F991F4A95E2F7682B60830894811CEC
:100E5000911C50E38516910409F080CF86E791E05C
:100E60000E944D0F8A819B8101969B838A838435E2
:100E7000910509F005CF61960FB6F894DEBF0FBE5D
:100E8000CDBFCF91DF911F910F91FF90EF90DF9039
:100E9000CF90BF90AF909F908F907F906F905F901A
:100EA0004F903F902F900895882D85958595859535
:100EB00044E58402F00111248A819B81E80FF91F27
:100EC000E055FE4F60813770432F552747FD509501
:100ED000862F90E0042E02C0959587950A94E2F73C
:100EE00021E02827217025CF209182018A819B81D2
:100EF00088259925A1E0B0E08A279B27282720FF95
:100F000080CF882D859585958595992787FD909526
:100F100044E550E0849FF001859FF00D949FF00D13
:100F200011248A819B81E80FF91FE055FE4F6081F3
:100F30003770432F552747FD5095FECE6F927F9215
:100F40008F929F92AF92BF92CF92DF92EF92FF92D9
:100F50000F931F9388E291E00E94B711882369F4F0
:100F60001F910F91FF90EF90DF90CF90BF90AF90C7
:100F70009F908F907F906F90089582E391E066E05C
:100F80000E944609882309F0DFC08091AF018823C1
:100F900009F417C186E791E062E00E94150A86E72E
:100FA00091E060911C0140911A0120911B01009178
:100FB00019010E94550A8CE191E06AE171E04BE170
:100FC00051E029E131E00E941B0586E791E0609144
:100FD0001C0140911A0120911B01009119010E94EE
:100FE000550A82E391E065E00E945009882309F4E4
:100FF000B7CFE0901501F090160100911701109104
:10100000180160911101709112018091130190916A
:101010001401A80197010E94E51C20E030E048EA95
:1010200052E40E944E1D5B016C0160911C0170E056
:10103000882777FD8095982F0E94E41DA6019501D1
:101040000E94981E9B01AC01C801B7010E94E61CDA
:101050007B018C0160931501709316018093170139
:101060009093180160911B0170E0882777FD8095AF
:10107000982F0E94E41DA60195010E94981E9B01D5
:10108000AC01C801B7010E94E61C60931101709386
:1010900012018093130190931401E0900D01F090E0
:1010A0000E0100910F0110911001609109017091E2
:1010B0000A0180910B0190910C01A80197010E94F7
:1010C000E51C20E030E040E452E40E944E1D5B014C
:1010D0006C0160911A0170E0882777FD8095982F48
:1010E0000E94E41DA60195010E94981E9B01AC017F
:1010F000C801B7010E94E61C7B018C0160930D01C1
:1011000070930E0180930F0190931001609119016B
:1011100070E0882777FD8095982F0E94E41DA60136
:1011200095010E94981E9B01AC01C801B7010E9465
:10113000E61C6093090170930A0180930B01909360
:101140000C011092AF010CCF88E291E06AEC71E0E3
:1011500048E650E00E942A131092400181E08093FB
:101160007C0120E030E040E050EC2093150130930A
:101170001601409317015093180180E090E0A0E021
:10118000B0E48093110190931201A0931301B093E6
:10119000140120930D0130930E0140930F015093E1
:1011A00010018093090190930A01A0930B01B09361
:1011B0000C0188E290E0909308018093070110925F
:1011C000AF0100D000D00F9260911501709116010F
:1011D0008091170190911801209111013091120115
:1011E0004091130150911401E0900D01F0900E0117
:1011F00000910F0110911001A0900901B0900A0117
:10120000C0900B01D0900C010F2EF0E06F2EF0E09B
:101210007F2EF0E88F2EF0E49F2EF02DADB7BEB7F5
:1012200011966D927D928D929C921497E091070198
:101230001596EC930E9410060F900F900F900F9050
:101240000F9086E791E062E00E94150A86E791E040
:1012500060911C0140911A0120911B01009119011C
:101260000E94550A81E08093AF017ACEFC0188E0AC
:10127000808389E0818387E0828386E0838384E0C2
:10128000848382E0858381E18683089520E0FC01E8
:10129000E60FF11D8781813009F421E0822F089546
:1012A00020E0FC01E60FF11D87818F3F09F421E06A
:1012B000822F0895E62FF0E0423040F420E0E80F5E
:1012C000F91F878181508E3F88F40FC0E80FF91F06
:1012D00087818F3F11F420E009C020E090E0642F67
:1012E00070E00E941A1F019709F421E0822F0895EF
:1012F0000F931F93CF93DF93EC0110E00FEF8881E2
:1013000062E00E94CC1B88810E946B1C2F81892B7C
:1013100019F42F5F2F8307C0222349F02F3F11F4C8
:101320001F8201C00F83888160E00E94CC1B1F5F79
:101330002196173021F7DF91CF911F910F910895DA
:10134000FC01742F643508F06FC047FD6DC0403359
:101350000CF06AC080A1823021F5842F8595859597
:101360008595992787FD9095462F552747FD5095E0
:1013700024E530E0829FF001839FF00D929FF00DF5
:101380001124E40FF51FE055FE4F808190E0272FD8
:10139000277002C0959587952A95E2F78095817010
:1013A00009C0833039F49485842F8627892780FFEC
:1013B00003C01FC08823E9F4E72FE595E595E5957F
:1013C00084E5E802F0011124862F992787FD909586
:1013D000E80FF91FE055FE4F777081E090E002C002
:1013E000880F991F7A95E2F7809520812823208322
:1013F0000895E72FE595E595E59584E5E802F00188
:101400001124862F992787FD9095E80FF91FE05545
:10141000FE4F777081E090E002C0880F991F7A95A7
:10142000E2F72081282B20830895FC0160A361A3AB
:101430000895FC0160A341A30895EF92FF920F93DA
:101440001F93CF93DF93EC01E62EF42E022F10E0D2
:1014500007C0412F4F0DCE016E2D0E94A0091F5FC6
:101460001017BCF3DF91CF911F910F91FF90EF9078
:101470000895EF92FF920F931F93CF93DF93EC01A8
:10148000E62EF42E022F10E007C0612F6E0DCE0164
:101490004F2D0E94A0091F5F1017BCF3DF91CF9161
:1014A0001F910F91FF90EF900895CF92DF92EF92EE
:1014B000FF920F931F937C01162FD42EC22E0E94F1
:1014C000390A4D2D4150400FC701612F2C2D0E942C
:1014D000390AC701612F4D2D202F0E941D0A11507E
:1014E0001C0DC701612F4D2D202F0E941D0A1F9139
:1014F0000F91FF90EF90DF90CF9008959F92AF9261
:10150000BF92CF92DF92EF92FF920F931F93CF93F0
:10151000DF936C01962EB42EA22EC0E0D0E0E42E14
:10152000FF24E7FCF094112707FD10950E0D1F1DF9
:1015300006C0C601692D2A2D0E94390A21964B2D1D
:101540004C0FCE018E0D9F1D8017910794F3DF91F4
:10155000CF911F910F91FF90EF90DF90CF90BF90B0
:10156000AF909F9008952F923F925F926F927F92DB
:101570008F929F92AF92BF92CF92DF92EF92FF92A3
:101580000F931F93DF93CF9300D000D000D0CDB73F
:10159000DEB79E838D83C62ED42EEE24E394E21A0A
:1015A0008EEF289F502C1124842E8A94962E9A9484
:1015B000A42EA394B62EB394F22E662423E0722EAA
:1015C00010E0C801847090709A838983F801E270FA
:1015D000F070FC83EB8398E0292E312C20223122FD
:1015E0000170107054C0E7FC04C0FA94F2E05F0E82
:1015F000E50C639489819A81892B71F04F2D4D0DF3
:101600008D819E816B2D0E94A0096F2D6C0D8D81A7
:101610009E814A2D0E94A009EB81FC81EF2B71F085
:101620004D2D4F198D819E816B2D0E94A0096F2D2C
:101630006C0D8D819E81482D0E94A00921143104DA
:1016400071F06C2D6F198D819E814A2D0E94A00929
:101650004F2D4D0D8D819E81692D0E94A009011590
:10166000110571F06C2D6F198D819E81482D0E949E
:10167000A0094D2D4F198D819E81692D0E94A009D1
:10168000E70CF2E07F0E8A949A94A394B3946F14BB
:101690000CF4A9CF26960FB6F894DEBF0FBECDBFCF
:1016A000CF91DF911F910F91FF90EF90DF90CF903E
:1016B000BF90AF909F908F907F906F905F903F9082
:1016C0002F9008954F925F926F927F928F929F9288
:1016D000AF92BF92CF92DF92EF92FF920F931F9340
:1016E000CF93DF93EC01A62E742E9E2DFF24F3944E
:1016F000F21A8EEF289F802C1124B42EBA9453E056
:10170000C52ECE0CE22EDD2443E0942E10E031E015
:10171000432E512C40225122692E63940270107086
:1017200034C0F7FC04C0EA9482E0880EF80CD3942D
:101730004114510489F06D2D6A0D472D4E192E2D3F
:10174000220F260DCE010E941D0A6E2D6A0DCE01BC
:101750004B2D2C2D0E941D0A0115110589F06A2DB3
:101760006D19472D4E192E2D220F260DCE010E94E8
:101770001D0A6A2D6E19CE014B2D2C2D0E941D0ABB
:10178000F90C82E0980EBA94C80EDE1454F2DF9180
:10179000CF911F910F91FF90EF90DF90CF90BF906E
:1017A000AF909F908F907F906F905F904F90089533
:1017B0007F928F929F92AF92BF92CF92DF92EF92E1
:1017C000FF920F931F936C01962EA42EF22E7E2C67
:1017D000760E1EEFE19E102D1124812E820E672DB4
:1017E000282D0E94390AB02EBA0CBA94C601672D72
:1017F0004B2D282D0E94390AAE0C100FC601692D01
:101800004A2D212F0E941D0AF90CFA94C6016F2D52
:101810004A2D212F0E941D0AC601672D4A2D2E2D0B
:1018200001E00E94B30AFE18C6016F2D4A2D2E2D2D
:1018300002E00E94B30ABE18C6016F2D4B2D2E2D5B
:1018400004E00E94B30AC601672D4B2D2E2D08E03F
:101850000E94B30A1F910F91FF90EF90DF90CF90FD
:10186000BF90AF909F908F907F9008958F929F929E
:10187000AF92BF92CF92DF92EF92FF920F931F939E
:101880006C01162FA42E922EF02EBE2C8E2C860EBE
:101890002EEFE29EE02C11242E2D290D682D0E94A2
:1018A0007E0AAB0CFA94FE0C1150190D1B19C601DF
:1018B000612F4A2D2B2D01E0EF2C0E94620BC601F7
:1018C000682D4A2D2B2D02E00E94620B1F910F9173
:1018D000FF90EF90DF90CF90BF90AF909F908F9050
:1018E00008952F923F924F925F926F927F928F92C4
:1018F0009F92AF92BF92CF92DF92EF92FF920F939F
:101900001F93DF93CF9300D000D0CDB7DEB74C014B
:10191000D62E142FF9018491319694913197D401E8
:1019200090966C90B3E5B6170CF457C1482F552725
:1019300047FD5095A62EBB24A7FCB0942A014A0C63
:101940005B1C141415040CF048C110330CF045C195
:10195000092F212F332727FD3095892F992787FDC0
:101960009095820F931F181619060CF036C162E08D
:10197000E62EF12CEE0EFF1ECA01079668E070E01D
:101980000E942E1F762E17FF0EC0010F862F90E0AB
:10199000FC01E29FC001E39F900DF29F900D112486
:1019A000E81AF90A10E0802F992787FD9095212FDA
:1019B000332727FD3095820F931FC19714F000E362
:1019C000011BD7FCDD24C2018535910514F084E5A7
:1019D00090E0C82ED4011C969C909126ED2DF0E04D
:1019E000CF018A199B09AC014770507020E830E0A4
:1019F00002C0359527954A95E2F7B22E68E070E06F
:101A00000E942E1FAB014E0D5F1D5C834B83212F67
:101A1000277081E090E0682F01C0660F2A95EAF7F1
:101A200015951595159584E51802A00111244E0F02
:101A30005F1F40555E4F8824202E332427FC3094AE
:101A4000472C5524C4C0EB81FC812491F1E06F1632
:101A500029F5AB81BC817B2D022F7A011D2D1BC086
:101A6000872F90E0202F30E082239323892B21F0D1
:101A7000F7018081862B8083872F90E0959587954D
:101A8000782F882321F41196FD01049170E81F5FDF
:101A90000894E11CF11C1C1518F38DC0662059F543
:101AA000F62EF094AB81BC817B2D022F5A834983A3
:101AB0001D2D1EC0872F90E0202F30E0822393231E
:101AC000892B29F0E981FA8180818F218083872FFA
:101AD00090E095958795782F882321F41196FD0144
:101AE000049170E81F5F89819A8101969A838983A6
:101AF0001C1500F360C093E0691639F0AB81BC811E
:101B00007B2D022F7A011D2D54C0A62EA094AB81EF
:101B1000BC817B2D022F5A8349831D2DE92CFF2484
:101B200028C0872F90E0202F30E082239323892B39
:101B300079F0812F90E08E259F25E981FA819081AF
:101B400080FF02C0962B03C09A21E981FA8190831D
:101B5000872F90E095958795782F882321F411960B
:101B6000FD01049170E81F5F89819A8101969A8333
:101B700089831C15B0F291E099261DC0872F90E053
:101B8000202F30E082239323892B21F0F7018081DD
:101B900086278083872F90E095958795782F8823D7
:101BA00021F41196FD01049170E81F5F0894E11C77
:101BB000F11C1C1518F3660F19F44C5A5F4F61E0C5
:101BC00083948B819C81840D951D9C838B83882DB0
:101BD00090E0821593050CF436CF0F900F900F9084
:101BE0000F90CF91DF911F910F91FF90EF90DF90B9
:101BF000CF90BF90AF909F908F907F906F905F90AD
:101C00004F903F902F900895DC01FB0184918F5FEE
:101C100014968C931497319684918F5F15968C93BC
:101C2000159731965F96FC93EE935E9708953F92D9
:101C30004F925F926F927F928F929F92AF92BF92DC
:101C4000CF92DF92EF92FF920F931F93CF93DF9388
:101C5000EC01862EA42E422F102F38A023E5261744
:101C60000CF4ABC03FE23A150CF4A7C0C02EDD2443
:101C70008C8190E001979C01C29EC001C39E900D93
:101C8000D29E900D1124262F332727FD3095820FE9
:101C9000931F181619060CF090C08D8190E09C01DE
:101CA000C29EC001C39E900DD29E900D11242A2D7C
:101CB000332727FD3095820F931F181619060CF055
:101CC0007CC09924442E55246DC09C012150304085
:101CD0004217530711F460E00EC0429EC001439EBC
:101CE000900D529E900D1124840F951FEE8DFF8D47
:101CF000E80FF91F64914C9DC0014D9D900D5C9DB6
:101D0000900D1124682C680EBB24792C780C3FC0F0
:101D1000E62EFF2460FF19C0113039F44B2D4A0D17
:101D2000CE01672D0E94A0092EC02C9DC0012D9DC3
:101D3000900D3C9D900D11244A2D480FCE01662D2B
:101D4000212F012F0E947E0A1EC099A188A19817F9
:101D5000D1F098A3113039F44B2D4A0DCE01672DE7
:101D60000E94A0090FC02C9DC0012D9D900D3C9D8F
:101D7000900D11244A2D480FCE01662D212F012FE1
:101D80000E947E0A38A2F594E7946E2DB3942B2D11
:101D9000332727FD30958D8190E0281739070CF403
:101DA000B7CF9394492D552747FD50958C8190E0EE
:101DB000481759070CF489CF38A2DF91CF911F91B2
:101DC0000F91FF90EF90DF90CF90BF90AF909F90DA
:101DD0008F907F906F905F904F903F9008950F93FA
:101DE000CF93DF93EC01262F6A3049F48D819885DB
:101DF000899F802D11249A85980F9A8726C06D306F
:101E000029F169854A8508850E94170E9C8168859D
:101E1000969F402D11248985480F49878F818823FB
:101E2000A9F0552747FD5095699F9001112484E53D
:101E300090E0821B930B8417950744F49D81699F62
:101E4000902D11248A85890F8A87198681E090E078
:101E5000DF91CF910F9108951F93CF93DF93EC0102
:101E6000162FF8948F8560E00E94381C8889181618
:101E70001CF460E00E94381C1EBD00000DB407FE7B
:101E8000FDCF8EB5888918161CF461E00E94381CBD
:101E90007894DF91CF911F910895FF920F931F9334
:101EA000CF93DF93EC018C858F5F8C87FF2400E05C
:101EB00010E06F2D6064CE010E942C0FCE0160E80F
:101EC0000E942C0F8F8561E00E94381C88891816AB
:101ED0001CF460E00E94381CF801E055FE4F90E0D1
:101EE00080818EBD00000DB407FEFDCF8EB59F5FD3
:101EF00031969435A9F7888918161CF461E00E9480
:101F0000381CF3940C5A1F4F86E0F81691F6CE0158
:101F100060E40E942C0FDF91CF911F910F91FF90F1
:101F20000895CF93DF93DC0188EF91E0E0EBF1E0DF
:101F3000EF019C01199221503040E1F719961C9253
:101F400019971A961C92DF91CF910895EF920F93F3
:101F5000CF93DF93EC014E876D872F87E98A088B3B
:101F600081E0888788A319A28F83CE0160EE71E09B
:101F70000E94040E0E94E6178CB58F7D8CBD8CB537
:101F80008C7F81608CBD8DB581608DBD8CB58C6082
:101F90008CBD8E8561E00E94CC1B8D8561E00E9426
:101FA000CC1B8F8561E00E94CC1B898918161CF41C
:101FB00061E00E94CC1B888918161CF461E00E9425
:101FC000CC1B898918166CF460E00E94381C6AE00A
:101FD00070E080E090E00E94221B898961E00E940D
:101FE000381CED852E2F332727FD3095F901E25659
:101FF000F84FE491F0E0EE0FFF1FE657F84F8591A0
:1020000094919D8B8C8B2E54384FF90184918B8F3A
:10201000EE852E2F332727FD3095F901E256F84F34
:10202000E491F0E0EE0FFF1FE657F84F8591949191
:102030009B8B8A8B2E54384FF90184918A8FE889C3
:102040002E2F332727FD3095F901E256F84FE49102
:10205000F0E0EE0FFF1FE657F84F859194919F8BAC
:102060008E8B2E54384FF90184918C8FEF852E2F53
:10207000332727FD3095F901E256F84FE491F0E05F
:10208000EE0FFF1FE657F84F85919491998F888F37
:102090002E54384FF90184918D8FCE0161E20E9458
:1020A0002C0FCE0164E10E942C0F8B8587FF02C0AC
:1020B0008FE78B876B856068CE010E942C0FCE0165
:1020C00060E20E942C0FCE016CE00E942C0FCE012A
:1020D0000E944D0FDF91CF910F91EF900895CF9314
:1020E000DF93DC01E0E8F7E785919491ED01C75AB1
:1020F000DF4FAD0140595F4F8150904C09F04EC009
:10210000E6E9F7E7E491E883E7E9F7E7E491149675
:10211000EC931497E8E9F7E7E4911596EC9315979B
:10212000E9E9F7E78591949117969C938E9316971A
:10213000EBE9F7E78591949119969C938E93189704
:10214000EDE9F7E7E4919B96EC939B97EEE9F7E7CF
:10215000E4919A96EC939A97EFE9F7E7E491EA0114
:10216000E883E0EAF7E7859194915D969C938E93DE
:102170005C97E2EAF7E7859194915F969C938E9342
:102180005E97E4EAF7E78591949191969C938E93FC
:102190009097E6EAF7E78591949132C08CE38883C3
:1021A00014961C9214972FEF15962C93159780E296
:1021B00093E017969C938E93169784ED93E019966F
:1021C0009C938E93189781E09B968C939B979A96FD
:1021D0008C939A97FA0120838CEA9DE05D969C93FC
:1021E0008E935C978EED9DE05F969C938E935E97A9
:1021F00084E79EE091969C938E9390978CE39FE06A
:1022000093969C938E939297DF91CF910895EF923E
:10221000FF920F931F93CF93DF937C018C01025B9E
:102220001F4FC8010E94910FC80169E076E00E942B
:102230001919C8010E944D0F8CB583608CBD8DB5F6
:102240008E7F8DBD80E091E0EEEFFFE3099584E5A0
:1022500090E0E80EF91EF7011082C80164EE75E007
:102260000E946419C8010E944D0FE701CA54D04072
:10227000CE010E947809CE0164E00E9446098823BD
:1022800039F462E370E080E090E00E94221BF0CF1E
:10229000DF91CF911F910F91FF90EF900895AF9232
:1022A000BF92CF92DF92EF92FF920F931F93CF9343
:1022B000DF93EC01CA57DF4F8881C658D04088238E
:1022C00009F44AC08C3010F010E002C01CE0181B6A
:1022D000CA5ADF4F81E08883C655D0406EE4C62ECF
:1022E000D12CCC0EDD1EC60160E00E94150A53E51C
:1022F000A52EB12CAC0EBD1EF50100814DE2F42ED1
:102300004F2D401B410F0D5FC60160E024E533E017
:10231000E32E0E94360CC60161E00E94150AF50109
:102320000081F01AF10E0D5FC60160E04F2D24E52B
:102330000E94D80BC95ADF4F84E08993F501808150
:10234000181B115D1883AC9669917991C6010E94A2
:102350001919888181508883DF91CF911F910F9146
:10236000FF90EF90DF90CF90BF90AF900895AF9225
:10237000BF92CF92DF92EF92FF920F931F93CF9372
:10238000DF93EC01E0E8AE2EB12CA80EB91EF501EA
:10239000E080F180028113810E94B31AE61AF70AE5
:1023A000080B190B7FE7C72ED12CCC0EDD1EF601D2
:1023B000808190E0A0E0B0E08E159F05A007B107F6
:1023C00008F081C08E0105581F4FF801808191816E
:1023D000A281B3810097A105B10509F474C00E94E0
:1023E000B31AF6012081620F711D811D911DF50147
:1023F0006083718382839383FE01EF58FF4F808156
:102400009181A281B3810196A11DB11D8083918329
:10241000A283B383F80110821182128213820E9478
:10242000C11AC958DF4F688379838A839B83C75752
:10243000D040CE010E942B18CE010A960E94780946
:10244000CE0148960E949D1881E032C08E010B5D3E
:102450001F4FC8010E94E015C8010E945716C8010D
:102460000E943817CE010E944F11CE010E947012B7
:102470008E01025B1F4FC8010E944D0FCC5ADF4FE7
:102480008881C455D040882319F4C8010E94910F57
:102490000E94C11AC558DF4F688379838A839B8362
:1024A000249728813981621B730B7A936A9380E0A9
:1024B000DF91CF911F910F91FF90EF90DF90CF9020
:1024C000BF90AF900895C558DF4F88819981AA8148
:1024D000BB81CB57D0400097A105B10541F7B6CFDE
:1024E000BF92CF92DF92EF92FF920F931F93CF9301
:1024F000DF93EC018C8D9D8D892B09F4A1C08E0199
:10250000025B1F4FC80161E040E00E94190AFE0112
:10251000E95AFF4FCE5ADF4F85E59881891B8083AA
:1025200026961882C855D040698D613009F469C07B
:10253000613028F0888D653008F07CC076C0CE010F
:1025400085960E949215CA5ADF4F81E08883C6554E
:10255000D040C80160EE71E00E94040E1D8E1C8EFA
:10256000CC5ADF4F1882C455D040AAE0CA2ED12CD5
:10257000CC0EDD1EBC2EED2EF8EAFF2ECE010E9401
:10258000B7118823D9F3C80161E576E00E941919D3
:102590006A8D7B8DC8014AE050E00E94071AC8018D
:1025A0006CE376E00E9419196F2D62956F70C80177
:1025B00070E04AE050E00E94581AC80161E376E0FA
:1025C0000E941919C60164E00E9446098823C1F5DA
:1025D000FA94A1F68B2D9E2D60E00E94261883B7F9
:1025E000817F846083BF83B7816083BF83B781604D
:1025F00083BF889583B78E7F83BF83B78E7F83BF6A
:10260000BDCFCF58DF4F88819981AA81BB818F7060
:102610009070A070B0700897A105B10518F4C801BA
:1026200067E00CC0C80168E709C0882349F06B5F08
:10263000C80104C0882321F0C8016FE20E943C1940
:10264000DF91CF911F910F91FF90EF90DF90CF908E
:10265000BF9008952F923F924F925F926F927F9218
:102660008F929F92AF92BF92CF92DF92EF92FF92A2
:102670000F931F93DF93CF93CDB7DEB72B970FB692
:10268000F894DEBF0FBECDBF9B878A877A836983AC
:102690005C834B838C0100591F4FF8018081882394
:1026A00009F422C18A859B858A5A9F4F9B878A8716
:1026B00081E0EA85FB85808312921292E455F04016
:1026C000FB87EA87108E4EE4E42EF12CEE0EFF1EFF
:1026D000C70161E00E94150A3AE0232E312C8A8559
:1026E0009B85280E391E25E2622E712C680E791EFC
:1026F000E981FA81F491FD83B7E58B2E912C880E48
:10270000991EA8E5CA2ED12CC80ED91EF2E54F2E6F
:10271000512C480E591E8D5A9F4F9F838E83E1E79F
:10272000AE2EB12C8A859B85A80EB91E1987088705
:102730008A859B850E94B7118823D1F39D819923B7
:1027400011F410E003C0EE81FF811081C70160E049
:1027500040E02FE836E00E94710C8B819C81892B30
:1027600041F0145FC70160E0412F2B813C810E9442
:10277000710CF40110828CE0F6018083C70169813D
:102780007A810E941919F201208130E0C901880F75
:10279000991F820F931F909581959F4F8D5AF40139
:1027A0008083EE81FF81208130E0C901880F991F6D
:1027B000820F931F909581959F4F835DF6018083D3
:1027C000F501808184FF04C0C7016FE077E003C09A
:1027D000C7016BE077E00E946419F201208130E0CC
:1027E000C901880F991F820F931F909581959F4F64
:1027F0008D5AF4018083F60180818F5F8083EA85A2
:10280000FB8582A5882321F0C70167E077E003C03C
:10281000C70163E077E00E946419F201808190E0D3
:102820009C01220F331F280F391F309521953F4FF0
:102830002D5AF4012083F60180818F5F8083C701C8
:102840006FEF76E00E946419C10165E00E944609BD
:10285000882351F0EA85FB8562A56F5FC3010E9462
:102860009F17C3010E949917C10164E00E944609A5
:10287000882399F4E885F9856081262F30E040E0CF
:1028800050E0F50180819181A281B3818217930785
:10289000A407B50708F16F3FF9F08A859B85805939
:1028A0009F4F9B878A878FEFEA85FB858083E05760
:1028B000F040FB87EA87C30160E00E948715C301EF
:1028C0000E94931781E0EA85FB85808F0DC08A8581
:1028D0009B850E9407112CCFC10166E00E9446092A
:1028E000882309F425CFF3CF2B960FB6F894DEBFDB
:1028F0000FBECDBFCF91DF911F910F91FF90EF9051
:10290000DF90CF90BF90AF909F908F907F906F900F
:102910005F904F903F902F900895AF92BF92CF92CB
:10292000DF92EF920F93CF93DF936C018FE790E0EC
:10293000C80ED91E82E3F601808381E090E0A0E01A
:10294000B0E0B293A293929382936F0185EF9FEFD1
:10295000C80ED91E8FEFF601808380E99FEFC80E65
:10296000D91EC6010E946F10C6010E942218C6011E
:102970006FEF0E9426186AE0A62EB12CAC0CBD1C8D
:10298000C5010E943609C5010E947809C601489612
:102990000E949318C601825B9F4F6DE04BE020E1DF
:1029A0000FE05EE0E52E0E94A60FE601A596CE019F
:1029B0000E94AC17C50165E00E944609882329F0F2
:1029C000CE0160E00E949F1706C0CE0165E177E06E
:1029D00040E00E949615DF91CF910F91EF90DF902C
:1029E000CF90BF90AF9008950F93DC01002309F0C2
:1029F00069C0623009F443C0633030F4662359F093
:102A0000613009F05FC00DC0633009F444C0643028
:102A100009F058C04CC04B3008F04AE056964C9331
:102A200051C0842F90E0880F991F1F962D913C91E3
:102A30005097280F391FF9018591949190969C9396
:102A40008E935F97FC014591549114968C91149745
:102A5000849F602D112491966C939197252F332795
:102A6000862F90E02817390708F4652F14968C916B
:102A70001497689F802D112492968C9323C01496EE
:102A80008C911497489F802D112459968C935997B7
:102A90005A962C9317C014968C911497489F802DAA
:102AA00011245B968C935B975C962C930BC01496C9
:102AB0008C911497489F802D11245D968C935D977F
:102AC0005E962C930F910895FC01222371F4648B80
:102AD0008481489F802D1124858B15A214A213A2F6
:102AE00081E0878B8093B103108E0895FC016623EB
:102AF00069F4178A158A14A213A2108E1092B403D7
:102B00001092B3031092B1031092B4000895CF93C2
:102B1000DF93EC01662319F40E9476151982DF9188
:102B2000CF91089560E00E94871508950F931F9339
:102B3000CF93DF93EC018B01442371F460E00E949A
:102B400087151E870D871B8A1A8A81E0898389E091
:102B50008E8B198E1B8E1D8EDF91CF911F910F9141
:102B60000895CF93DF93EC01662339F5888188239C
:102B700021F18981882309F5898590E0880F991FC3
:102B8000EF81F885E80FF91F859194912FEF8F3F22
:102B9000920711F4188211C09C8790E0880F991F4A
:102BA000EA85FB85E80FF91F65917491CE0140E03D
:102BB0000E94961589858F5F8987DF91CF9108954F
:102BC00060E00E94B11508950F93CF93DF93EC015D
:102BD000662309F068C08981882309F464C08D895F
:102BE000882309F060C0EA89FB89EE0FFF1F4D853D
:102BF0005E85E40FF51F259134912115310509F00B
:102C000040C08989882331F01B8A1A8AFA012591EC
:102C1000349137C019828881882379F0CE0160E031
:102C20000E94B1158A899B89880F991FED85FE85C1
:102C3000E80FF91F2591349124C0CE0160E00E9475
:102C4000761531C0E6E036952795EA95E1F76F7085
:102C5000422F4F7175E0369527957A95E1F720510F
:102C6000CE0100E00E94F4148A899B8901969B8B17
:102C70008A8B880F991FED85FE85E80FF91F259136
:102C80003491B901769567957695679520FDDACFF1
:102C90006F73432FCE0120E00E9464158A899B89BF
:102CA00001969B8B8A8BDF91CF910F91089560E005
:102CB0000E94E4150895CF93DF93EC01662309F099
:102CC000D4C08F89882309F4D0C08D89882321F44A
:102CD000CE010E947615C9C081508D8B8DA18823AD
:102CE000D1F56BA17CA16F5F7F4FCB01880F991F3E
:102CF000EF8DF8A1E80FF91F85919491282F277087
:102D00002EA3AC01E3E056954795EA95E1F79A01C9
:102D100036952795892F9927869586958FA32F73AA
:102D20008C81289F202D11242DA341704093B50341
:102D30007CA36BA389A190E06817790760F02AA1B2
:102D4000222329F0821B91099CA38BA304C0CE01EE
:102D500060E00E9476158DA181508DA3988D9F5FB4
:102D6000988F2FA18C89280F8C85280F2A836B8D33
:102D7000662369F0892F992787FD909570E00E945E
:102D80002E1F8C8D869F802D1124820F8A838A812D
:102D900090E0CB966BE370E00E942E1F8A832E8911
:102DA0002B83698D662379F0888D772767FD709571
:102DB000992787FD90950E942E1F8A8D869F802DD2
:102DC0001124820F8B836D8D662399F0888D99274E
:102DD00087FD909570E00E942E1FCB0162E070E0AD
:102DE0000E942E1F9E8D899F802D11249B81890F0B
:102DF0008B838B818A300CF089E087FD80E08B83A8
:102E00008C898F3309F41B82F894EA81F0E0E75C47
:102E1000F84FE491E093B2032D8130E08B81992744
:102E200087FD9095A901489F9001499F300D589FBB
:102E3000300D112488A590E0A901489F9001499F79
:102E4000300D589F300D11248EA1992787FD909544
:102E5000AC01249FC001259F900D349F900D11243B
:102E60008093B3038093B4037894DF91CF91089556
:102E700060E00E945B1608956091B303662371F1D0
:102E80008091B0038F5F8093B0039091B203891754
:102E900028F13091B10381E038273093B1031092CB
:102EA000B0038091B5038823A9F080911D0123E42C
:102EB000829FC0011124895B80931D0190E070E026
:102EC0000E941A1F8093B40305C08091B4038093BD
:102ED000B40008953323C9F780E0F9CF08951F9215
:102EE0000F920FB60F9211242F933F934F935F933E
:102EF0006F937F938F939F93AF93BF93EF93FF93C2
:102F00000E943C17FF91EF91BF91AF919F918F91DC
:102F10007F916F915F914F913F912F910F900FBED5
:102F20000F901F90189561E377E040E00E9496159E
:102F3000089563E277E040E00E9496150895FC0151
:102F4000862F668170E06F5F7F4F992787FD909590
:102F50000E942E1F858308950F93FC0181E08483D6
:102F600084E080A784E797E0908B8787CF0161E0BA
:102F700040E020E000E00E94F41483E061E070E0B3
:102F80000E946C1BE1EBF0E08081887F8160808390
:102F9000F89410928000E1E8F0E010821092850031
:102FA0001092840088E191E09093890080938800DA
:102FB000808188608083808181608083EFE6F0E09B
:102FC00080818260808378940F9108951F931FB74A
:102FD000F8948091B603882369F5E8EAF7E0449114
:102FE0008CEB97E0FC012491842F90E0880F991FCF
:102FF0008058984FFC01A591B4918C9190E030E0FD
:1030000082239323892B21F48AE061E00E94381CFB
:103010008AE061E00E94CC1B8CB580618CBD8CB5D0
:1030200080648CBD8DE061E00E94CC1B8BE061E090
:103030000E94CC1B8091B6038F5F8093B6031FBFA5
:103040001F910895FC0181E08083089585E070E080
:103050000E946C1B08956F927F928F929F92AF9205
:10306000BF92CF92DF92EF92FF920F931F93CF9375
:10307000DF93EC0189819A818C0124E0000F111FFC
:103080002A95E1F7081B190B85E10E944A1BBC0138
:10309000600F711F84E0769567958A95E1F77A83D2
:1030A00069838881882381F12E813F8162177307AC
:1030B00010F4B90106C0888599858617970708F42A
:1030C000BC0100D000D080E090E040E050E0E88417
:1030D000F98400E010E0AD80BB24CC24DD246C80BA
:1030E000772488249924EDB7FEB7618272828382A7
:1030F00094820E949B1C6B830F900F900F900F90F7
:1031000085E070E00E946C1BDF91CF911F910F91C1
:10311000FF90EF90DF90CF90BF90AF909F908F90F7
:103120007F906F900895FC018CE39FE093838283EE
:1031300084E0818381E084870895CF93DF93EC015D
:103140008C819D81892BB1F18C8590E08F7190707D
:10315000892B69F584E10E944A1BAA2797FDA09557
:10316000BA2FBC01CD010E94E41D26EE3FE34EECD8
:1031700050E40E94981E0E94B61D9B01AC017B8307
:103180006A836115710589F084E08983B901FE01C4
:1031900020E0848195816817790710F429830AC09B
:1031A0002F5F32962430A9F702C08FEF89838C8578
:1031B0008F5F8C87DF91CF9108950895CF93DF9330
:1031C0000E94E71A0E94DD180E94FA04C0E0D0E0D5
:1031D0000E949E072097E1F30E940000F9CFCF9252
:1031E000DF92EF92FF920F931F93CF93DF937C01B7
:1031F0006B018A01C0E0D0E00FC0D6016D916D0176
:10320000D701ED91FC910190F081E02DC701099566
:10321000C80FD91F015010400115110571F7CE01DB
:10322000DF91CF911F910F91FF90EF90DF90CF90A2
:103230000895EF92FF920F931F93CF93DF937C013A
:103240008B01C0E0D0E0F8010F5F1F4F649166234F
:1032500059F0D701ED91FC910190F081E02DC7016B
:103260000995C80FD91FEFCFCE01DF91CF911F91E4
:103270000F91FF90EF900895DC01ED91FC9101908A
:10328000F081E02D09950895EF92FF920F931F931F
:103290008C01DC01ED91FC910190F081E02D6DE05D
:1032A00009957C01D801ED91FC910190F081E02D10
:1032B000C8016AE009959C012E0D3F1DC9011F91AF
:1032C0000F91FF90EF900895EF92FF920F931F934D
:1032D0007C010E9419198C01C7010E9444199C01AC
:1032E000200F311FC9011F910F91FF90EF9008959A
:1032F000CF93DF93EC016115710519F420E030E004
:103300000FC0DB010D900020E9F71197A61BB70B4A
:10331000E881F9810280F381E02DAD0109959C01DE
:10332000C901DF91CF9108954F925F927F928F9262
:103330009F92AF92BF92CF92DF92EF92FF920F9344
:103340001F93DF93CF93CDB7DEB7A1970FB6F89455
:10335000DEBF0FBECDBF2C01742ECB01223008F48E
:103360002AE019A231E2C32ED12CCC0EDD1E822E12
:103370009924AA24BB24672D752FA50194010E94CE
:10338000411F79018A01C801B701A50194010E947A
:10339000FB1E472D461B0894C108D1084A3014F47F
:1033A000405D01C0495CF6014083E114F104010570
:1033B000110521F07E2C5F2DC801DDCFC201B601C1
:1033C0000E947819A1960FB6F894DEBF0FBECDBF4C
:1033D000CF91DF911F910F91FF90EF90DF90CF90F1
:1033E000BF90AF909F908F907F905F904F90089587
:1033F000DC012115310541F4ED91FC910190F08142
:10340000E02D642F099508950E9494190895EF9274
:10341000FF920F931F939A017B0100E010E0B80127
:10342000A7010E94F8191F910F91FF90EF90089546
:10343000CF92DF92EF92FF920F931F93CF93DF9380
:10344000EC016A017B012115310541F4E881F98124
:103450000190F081E02D642F09951FC02A303105BD
:10346000D1F477FF17C0E881F9810190F081E02D58
:103470006DE209958C0144275527BA014C195D0965
:103480006E097F09CE012AE00E9494199801280F45
:10349000391F04C02AE00E9494199C01C901DF91E0
:1034A000CF911F910F91FF90EF90DF90CF900895F3
:1034B000EF92FF920F931F937B019A010027F7FC75
:1034C0000095102FB801A7010E94181A1F910F91A3
:1034D000FF90EF9008951F920F920FB60F92112454
:1034E0002F933F938F939F93AF93BF938091BB0391
:1034F0009091BC03A091BD03B091BE033091BF0376
:103500000196A11DB11D232F2D5F2D3720F02D57C2
:103510000196A11DB11D2093BF038093BB0390931F
:10352000BC03A093BD03B093BE038091B7039091F9
:10353000B803A091B903B091BA030196A11DB11DC2
:103540008093B7039093B803A093B903B093BA03E1
:10355000BF91AF919F918F913F912F910F900FBE8F
:103560000F901F9018958FB7F8942091BB0330915E
:10357000BC034091BD035091BE038FBFB901CA0186
:1035800008959FB7F8942091B7033091B803409104
:10359000B9035091BA0386B5A89B06C08F3F21F0AE
:1035A0002F5F3F4F4F4F5F4F9FBF542F432F322FFF
:1035B0002227280F311D411D511D82E0220F331F8C
:1035C000441F551F8A95D1F7B901CA01089578940F
:1035D00084B5826084BD84B5816084BD85B5826018
:1035E00085BD85B5816085BDEEE6F0E080818160B6
:1035F0008083E1E8F0E010828081826080838081B6
:1036000081608083E0E8F0E0808181608083E1EB8D
:10361000F0E0808184608083E0EBF0E08081816075
:103620008083EAE7F0E0808184608083808182602B
:103630008083808181608083808180688083109214
:10364000C1000895EF92FF920F931F93CF93DF93E2
:103650007B018C010E94C11AEB0110C00E94E41C86
:103660000E94C11A6C1B7D0B685E7340B8F308940E
:10367000E108F10801091109C851DC4FE114F10416
:103680000105110559F7DF91CF911F910F91FF901F
:10369000EF900895982F8E3008F09E50977080918B
:1036A0001E018295880F880F807C892B80937C0077
:1036B00080917A00806480937A0080917A0086FD00
:1036C000FCCF2091780040917900942F80E030E089
:1036D000282B392BC90108951F93CF93DF93182FFF
:1036E000EB0161E00E94CC1B209709F44AC0CF3F58
:1036F000D10509F449C0E12FF0E0EA53F84F849175
:103700008330C1F0843028F4813051F08230B1F53B
:103710000CC0873019F1883049F1843079F514C034
:1037200084B5806884BDC7BD33C084B5806284BD64
:10373000C8BD2EC080918000806880938000D093A7
:103740008900C093880024C08091800080628093AB
:103750008000D0938B00C0938A001AC08091B00083
:1037600080688093B000C093B30012C08091B00015
:1037700080628093B000C093B4000AC0C038D10505
:103780001CF4812F60E002C0812F61E00E94381C90
:10379000DF91CF911F910895CF93DF93482F50E091
:1037A000CA018E54984FFC0134914256584FFA0189
:1037B0008491882369F190E0880F991FFC01E058FB
:1037C000F84FA591B491FC01E657F84FC591D491FB
:1037D000662351F42FB7F8948C91932F90958923F9
:1037E0008C93888189230BC0623061F42FB7F894E1
:1037F0008C91932F909589238C938881832B888338
:103800002FBF06C09FB7F8948C91832B8C939FBFDA
:10381000DF91CF910895833071F0843028F48130A6
:10382000A1F0823021F514C08730B1F08830D1F09A
:103830008430E9F404C0809180008F7703C08091C8
:1038400080008F7D80938000089584B58F7702C0BB
:1038500084B58F7D84BD08958091B0008F7780936B
:10386000B00008958091B0008F7D8093B0000895DE
:10387000FF920F931F93F62E482F50E0CA018A53F0
:10388000984FFC012491CA018E54984FFC01149169
:103890004256584FFA0104910023C9F0222319F02F
:1038A000822F0E940B1CE02FF0E0EE0FFF1FE65767
:1038B000F84FA591B4919FB7F894FF2021F48C9113
:1038C0001095812302C08C91812B8C939FBF1F91F7
:1038D0000F91FF9008950F931F93482F50E0CA0156
:1038E0008A53984FFC012491CA018E54984FFC01D1
:1038F00004914256584FFA011491112319F420E013
:1039000030E015C0222319F0822F0E940B1C812F5A
:1039100090E0880F991F8C56984FFC01A591B491A7
:103920008C9120E030E0802311F021E030E0C901EB
:103930001F910F9108952F923F924F925F926F9235
:103940007F928F929F92AF92BF92CF92DF92EF922F
:10395000FF920F931F93DF93CF93CDB7DEB73B0159
:103960004C0119012A016D897E898F89988D6A1908
:103970007B098C099D09621A730A840A950AA401BD
:1039800093010E94FB1EE218F30804091509A8011F
:1039900097010E94631F2A0D3B1D4C1D5D1DB9013F
:1039A000CA01CF91DF911F910F91FF90EF90DF90AF
:1039B000CF90BF90AF909F908F907F906F905F90CF
:1039C0004F903F902F90089508955058BB27AA27F5
:1039D0000ED070C161D130F066D120F031F49F3F3C
:1039E00011F41EF456C10EF4E095E7FB4CC1E92F2B
:1039F00072D180F3BA17620773078407950718F02E
:103A000071F49EF58AC10EF4E0950B2EBA2FA02D0D
:103A10000B01B90190010C01CA01A0011124FF277B
:103A2000591B99F0593F50F4503E68F11A16F04076
:103A3000A22F232F342F4427585FF3CF4695379575
:103A40002795A795F0405395C9F77EF41F16BA0B3A
:103A5000620B730B840BBAF09150A1F0FF0FBB1FE8
:103A6000661F771F881FC2F70EC0BA0F621F731F31
:103A7000841F48F4879577956795B795F7959E3F8E
:103A800008F0B3CF9395880F08F09927EE0F97951C
:103A900087950895D4D008F481E008950CD00AC128
:103AA00002D140F0F9D030F021F45F3F19F0EBC0C3
:103AB000511134C1EEC00FD198F39923C9F35523A6
:103AC000B1F3951B550BBB27AA2762177307840711
:103AD00038F09F5F5F4F220F331F441FAA1FA9F3C7
:103AE00033D00E2E3AF0E0E830D091505040E695B9
:103AF000001CCAF729D0FE2F27D0660F771F881F1A
:103B0000BB1F261737074807AB07B0E809F0BB0B08
:103B1000802DBF01FF2793585F4F2AF09E3F51052C
:103B200068F0B1C0FBC05F3FECF3983EDCF38695D4
:103B300077956795B795F7959F5FC9F7880F911DA2
:103B40009695879597F90895E1E0660F771F881F8E
:103B5000BB1F621773078407BA0720F0621B730B41
:103B6000840BBA0BEE1F88F7E0950895BCD088F05F
:103B70009F5790F0B92F9927B751A0F0D1F0660F59
:103B8000771F881F991F1AF0BA95C9F712C0B13074
:103B900081F0C3D0B1E00895C0C0672F782F882787
:103BA000B85F39F0B93FCCF3869577956795B395B3
:103BB000D9F73EF490958095709561957F4F8F4F22
:103BC0009F4F0895E89409C097FB3EF49095809527
:103BD000709561957F4F8F4F9F4F9923A9F0F92FD3
:103BE00096E9BB279395F695879577956795B79551
:103BF000F111F8CFFAF4BB0F11F460FF1BC06F5F37
:103C00007F4F8F4F9F4F16C0882311F096E911C048
:103C1000772321F09EE8872F762F05C0662371F069
:103C200096E8862F70E060E02AF09A95660F771F7D
:103C3000881FDAF7880F9695879597F90895990F59
:103C40000008550FAA0BE0E8FEEF16161706E80766
:103C5000F907C0F012161306E407F50798F0621B87
:103C6000730B840B950B39F40A2661F0232B242B5C
:103C7000252B21F408950A2609F4A140A6958FEF7B
:103C8000811D811D089597F99F6780E870E060E0CD
:103C900008959FEF80EC089500240A9416161706E5
:103CA00018060906089500240A941216130614062D
:103CB00005060895092E0394000C11F4882352F090
:103CC000BB0F40F4BF2B11F460FF04C06F5F7F4F48
:103CD0008F4F9F4F089557FD9058440F551F59F02F
:103CE0005F3F71F04795880F97FB991F61F09F3FE9
:103CF00079F087950895121613061406551FF2CF12
:103D00004695F1DF08C0161617061806991FF1CF61
:103D100086957105610508940895E894BB27662788
:103D20007727CB0197F908958ADF08F48FEF08957C
:103D30000BD0C0CFB1DF28F0B6DF18F0952309F023
:103D4000A2CFA7CF1124EACFC6DFA0F3959FD1F36E
:103D5000950F50E0551F629FF001729FBB27F00D39
:103D6000B11D639FAA27F00DB11DAA1F649F66278E
:103D7000B00DA11D661F829F2227B00DA11D621FDD
:103D8000739FB00DA11D621F839FA00D611D221F97
:103D9000749F3327A00D611D231F849F600D211D7B
:103DA000822F762F6A2F11249F5750408AF0E1F01E
:103DB00088234AF0EE0FFF1FBB1F661F771F881F67
:103DC00091505040A9F79E3F510570F05CCFA6CFAF
:103DD0005F3FECF3983EDCF3869577956795B79552
:103DE000F795E7959F5FC1F7FE2B880F911D96957C
:103DF000879597F90895629FD001739FF001829F84
:103E0000E00DF11D649FE00DF11D929FF00D839F69
:103E1000F00D749FF00D659FF00D9927729FB00D06
:103E2000E11DF91F639FB00DE11DF91FBD01CF0119
:103E300011240895AA1BBB1B51E107C0AA1FBB1F79
:103E4000A617B70710F0A61BB70B881F991F5A9526
:103E5000A9F780959095BC01CD01089597FB092E97
:103E600007260AD077FD04D0E5DF06D000201AF43B
:103E7000709561957F4F0895F6F7909581959F4FC6
:103E80000895A1E21A2EAA1BBB1BFD010DC0AA1F9B
:103E9000BB1FEE1FFF1FA217B307E407F50720F0B3
:103EA000A21BB30BE40BF50B661F771F881F991F2E
:103EB0001A9469F760957095809590959B01AC0177
:103EC000BD01CF01089597FB092E05260ED057FDA1
:103ED00004D0D7DF0AD0001C38F4509540953095B7
:103EE00021953F4F4F4F5F4F0895F6F7909580957E
:103EF000709561957F4F8F4F9F4F0895EE0FFF1F75
:0C3F00000590F491E02D0994F894FFCF97
:103F0C004C4F414445520028000000004000000086
:103F1C00C000000040000000C0140A220A01010089
:083F2C00000000EF0EEF180089
:00000001FF
