:100000000C94C0070C94E8070C94E8070C94E807DC
:100010000C94E8070C94E8070C94E8070C94E807A4
:100020000C94E8070C94E8070C94E8070C94E61687
:100030000C94E8070C94E8070C94E8070C94E80784
:100040000C94DF1A0C94E8070C94E8070C94E8076A
:100050000C94E8070C94E8070C94E8070C94E80764
:100060000C94E8070C94E8074F0055004F0055002A
:100070000000010002000300000001000200030074
:100080000000010002003200050006000700080021
:1000900005000600070017001A00230023002400B3
:1000A0001A002300330025001A0023002300240037
:1000B0001A002300230028004D005F004D005F0060
:1000C0004D005F004D005F004D005F004D005F0080
:1000D0004D005F004D005F00FFFF5F005F005F00AD
:1000E0005F005F005F005F005F002D0038002D00A3
:1000F00038002D0038002D00340037004400370050
:1001000044006000640065006600610063006200F6
:10011000180060006400650066006000640065000F
:100120006600600064006500660067005F005F00B5
:100130005F005F005F005F005F005F005F005F00C7
:100140005F005F005F005F005F00FFFF5F005F0018
:100150005F00560000130113021303130013011371
:1001600002130313001301130213031300130113EB
:100170000213031300130113021303133613361370
:1001800036143616361C361F3622362329132A1308
:100190002B132C18291349134A134B184CE835110B
:1001A0003510351135103511351035113510351123
:1001B000351035115F005F005F005F00FFFF5F00DB
:1001C0005F005F005F005F005F005F0041000E287E
:1001D0000F281028112845304630103016303928A5
:1001E0003A283B283C2839303A303B3040300E2802
:1001F0000F2810281128453046301030163042FCA8
:1002000042FD42FA43FA42FD4200420143024C00E1
:100210005F005F005F005F005F005F005F005F00E6
:100220005F005F005F005F005F005F005F00FFFF37
:100230004D757369632064656D6F00160338035A4A
:10024000037C039E03C003E2030404260448044A1B
:10025000046C046E049004B204D404F60418053A45
:10026000053C053E05400562058405A605C805CA8E
:1002700005EC05EE05F005F205F405F605F805FABE
:1002800005FC051E0640066206640666068806AA88
:1002900006CC06EE06100732073407360738073A51
:1002A000075C077E07A007C207E407060828084A7C
:1002B000086C088E08B008B208B408B608D808FA66
:1002C000081C093E0960098209A409A609A809CAEF
:1002D00009EC090E0A300A520A540A760A780A7A98
:1002E0000A7C0A7E0A800AA20AC40AC60AC80ACA86
:1002F0000ACC0ACE0AD00AD20AD40AF60A180B3A55
:100300000B5C0B7E0BA00BC20BE40B4D757369638A
:100310002064656D6F000804FC040804FC04FC0400
:10032000FC040804FC040804FC04FC04FC04FC04B5
:10033000FC04FC04FC0400000804FC040804FC04A5
:10034000FC04FC040804FC040C04FC04FC04FC0491
:10035000FC04FC04FC04FC0400000C04FC04080481
:10036000FC04FC04FC040804FC040C04FC04FC0471
:10037000FC04FC04FC04FC04FC0400000804FC0471
:100380000C04FC04FC04FC040804FC040804FC0445
:10039000FC04FC04FC04FC04FC04FC040000080451
:1003A000FC040804FC04FC04FC040C04FC04180415
:1003B000FC04FC04FC04FC04FC04FC04FC0400003D
:1003C000E404FC040804FC04E404FC04E404FC0469
:1003D0000804FC04E404FC04E404FC04E404FC0459
:1003E0000000E404FC040804FC04E404FC04E40449
:1003F000FC040C04FC04E404FC04E404FC04E40435
:10040000E4040000E404FC040804FC04E404FC0428
:10041000E404FC040C04FC04E404FC04E404FC0414
:10042000E404FC040000E404FC040C04FC04E40404
:10043000FC04E404FC040804FC04E404E404E40410
:10044000FC04E404E404000000000804FC040804C4
:10045000FC04FC04FC040804FC040C04FC04FC0480
:10046000FC04FC04FC04FC04FC0400000000380450
:10047000FC043804FC04FC04FC043804FC043804C8
:10048000FC04FC04FC04FC04FC04FC04FC0400006C
:100490000804FC040C04FC04FC04FC040804FC0434
:1004A0000804FC04FC04FC04FC04FC04FC04FC0440
:1004B00000000804FC040804FC04FC04FC04080418
:1004C000FC040804FC04FC04FC04FC04FC04FC0420
:1004D000FC0400000804FC040804FC04FC04FC0404
:1004E0000804FC040C04FC04FC04FC04FC04FC04F0
:1004F000FC04FC0400000C04FC040804FC04FC04E0
:10050000FC040804FC040C04FC04FC04FC04FC04CF
:10051000FC04FC04FC0400000804FC040C04FC04BF
:10052000FC04FC040804FC040804FC04FC04FC04B3
:100530001804FC04FC04FC0400000000000000009F
:100540002804FC042C04FC04FC04FC043404FC0417
:100550003804FC04FC04FC04FC04FC04FC04FC045F
:1005600000000804FC040C04FC04FC04FC04140457
:10057000FC041804FC044804FC041804FC044804AB
:10058000FC040000E404FC040C04FC04E404140473
:10059000E40414041804FC04E4041804E404E4046B
:1005A0001804E4040000080408040804080408040B
:1005B000FC040804FC0408040804FC0408040804FF
:1005C000FC040804080400000000E404FC043804EF
:1005D000E404FC040804E40408043804FC04E4040F
:1005E0000804E404FC04E404FC040000000000002F
:1005F000000000000000000000000000E404FC0413
:100600003804E404FC040804E4040C043C04FC0482
:10061000E4040C04E404FC04E404E4040000E40442
:10062000FC043C04E404FC040C04E4040804380462
:10063000FC04E4040804E404E404FC04E40400000E
:10064000E404FC043C04E404FC041404E404140482
:1006500018044804E4047804E404A804E404E4046A
:10066000000000000000E404FC043C04E404FC047A
:100670001404E404140418044804E404D404E40452
:10068000A804E404E40400000804FC043804FC04A6
:10069000FC04FC040804FC043804FC04FC04FC0412
:1006A000FC04FC04FC04FC0400000804FC04380402
:1006B000FC04FC04FC040804FC043804FC04FC04F2
:1006C000FC04FC04FC04FC04FC0400000804FC041E
:1006D0003804FC04FC04FC040804FC043804FC0496
:1006E000FC04FC04FC04FC04FC04FC0400000804FE
:1006F000FC043804FC04FC04FC040804FC04380476
:10070000FC04FC04FC04FC04FC04FC04FC040000E9
:10071000FC04FC0408040804FC04FC040804FC04B5
:1007200008040804FC04FC04FC0408040804FC0499
:10073000000000000000000000000804FC040C049D
:10074000FC04FC04FC041404FC041804FC04FC0475
:10075000FC04E404FC04E404E40400000804FC04D5
:100760000C04FC04FC04FC041404FC041804FC0445
:10077000FC04FC04E404FC04E404E40400000804B5
:10078000FC0408040804FC0408040804FC0408042D
:10079000FC04080408040804FC040804FC04000029
:1007A0000804FC0408040804FC0408040804FC040D
:1007B0000804FC04080408040804FC040804FC04FD
:1007C00000000804FC0408040804FC0408040804ED
:1007D000FC040804FC04080408040804FC040804DD
:1007E000FC0400000804FC0408040804FC040804D9
:1007F0000804FC040804FC04080408040804FC04BD
:100800000804FC0400000804FC0408040804FC04B8
:1008100008040804FC040804FC0408040804080490
:10082000FC040804FC0400000804FC040804080498
:10083000FC0408040804FC040804FC04080408047C
:100840000804FC040804FC0400000804FC04080478
:100850000804FC0408040804FC040804FC0408045C
:1008600008040804FC040804FC0400000804FC0458
:1008700008040804FC0408040804FC040804FC043C
:10088000080408040804FC040804FC04000008042C
:10089000FC0408040804FC0408040804FC0408041C
:1008A000FC04080408040804FC040804FC04000018
:1008B0000000000000000804FC0408040804FC0414
:1008C00008040804FC040804FC04080408040804E0
:1008D000FC040804FC040000FC04FC04FC04FC040C
:1008E000FC04FC04FC04FC04FC04FC04FC04FC0408
:1008F000FC04FC04FC04A8040000FC04FC04FC044C
:10090000FC04FC04FC04FC04FC04FC04FC04FC04E7
:10091000FC04FC04FC04FC04A8040000FC04FC042B
:10092000FC04FC04FC04FC04FC04FC04FC04FC04C7
:10093000FC04FC04FC04FC04FC04A8040000FC040B
:10094000FC04FC04FC04FC04FC04FC04FC04FC04A7
:10095000FC04FC04FC04FC04FC04FC04A8040000EB
:100960000804FC040804FC04FC04FC040804FC0463
:100970000804FC04FC04FC04FC04FC04FC04FC046B
:1009800000000804FC040804FC04FC04FC04080443
:10099000FC040C04FC04FC04FC04FC04FC04FC0447
:1009A000FC040000000000000804FC040804FC042F
:1009B000FC04FC040804FC040C04FC04FC04FC041B
:1009C000FC04FC04FC04FC0400000804FC0408040F
:1009D000FC04FC04FC040804FC040C04FC04FC04FB
:1009E000FC04FC04FC04FC04FC0400000804FC04FB
:1009F0000804FC04FC04FC040804FC040C04FC04CF
:100A0000FC04FC04FC04FC04FC04FC0400000804DA
:100A1000FC040804FC04FC04FC040804FC040C04AE
:100A2000FC04FC04FC04FC04FC04FC04FC040000C6
:100A30000804FC040804FC04FC04FC040804FC0492
:100A40000C04FC04FC04FC04FC04FC04FC04FC0496
:100A5000000000000804FC04FC04FC04FC04FC048A
:100A60000804FC040804FC04FC04FC04FC04FC046E
:100A7000FC04FC0400000000000000000000000076
:100A80000804FC040C04FC04FC04FC041404FC0432
:100A90001804FC04FC04FC04E404FC04E404E40482
:100AA0000000FC04FC04FC04FC04FC04FC04FC0446
:100AB000FC04FC04FC04FC04FC046804FC04FC04CA
:100AC000FC04000000000000000000000000000026
:100AD00000000000FC04FC04FC04FC04FC04FC0416
:100AE000FC04FC04FC04FC04FC04FC04FC04FC0406
:100AF000FC04FC040000FC04FC04FC04FC04FC04F6
:100B0000FC04FC04FC04FC04FC04FC04FC04FC04E5
:100B1000FC04FC04FC040000FC04FC04FC04FC04D5
:100B2000FC04FC04FC04FC04FC04FC04FC04FC04C5
:100B3000FC04FC04FC04FC040000FC04FC04FC04B5
:100B4000FC04FC04FC04FC04FC04FC04FC04FC04A5
:100B5000FC04FC04FC04FC04FC040000FC04FC0495
:100B6000FC04FC04FC04FC04FC04FC04FC04FC0485
:100B7000FC04FC04FC04FC04FC04FC040000FC0475
:100B8000FC04FC04FC04FC04FC04FC04FC04FC0465
:100B9000FC04FC04FC04FC04FC04FC04FC04000055
:100BA000FC04FC04FC04FC04FC04FC04FC04FC0445
:100BB000FC04FC04FC04FC04FC04FC04FC04FC0435
:100BC0000000FC04FC04FC04FC04FC04FC04FC0425
:100BD000FC04FC04FC04FC04FC04FC04FC04FC0415
:100BE000FC040000FC04FC04FC04FC04FC04FC0405
:100BF000FC04FC04FC04FC04FC04FC04FC04FC04F5
:100C0000FC04FC04000003053F213F1208120A10F7
:100C10000A0E1C0E0C1E0C141A14161F161E131E80
:100C20001E1B1E1E1F1E3F213F3A2F3A173D173F26
:100C3000213F181F02040A041F0E04040E1F0A1F7E
:100C40000A0E0E1F04110E2E252E2F2A2E262929BC
:100C5000021F02081F08150E04040E150E15151BA1
:100C6000151B040604040C04000000001700030018
:100C7000031F0A1F16371A1904130A153A00030036
:100C8000000E11110E000A040A040E0400300004C4
:100C900004040010001804031F111F121F101D155B
:100CA0001711151F07041F17151D1F151D01011F03
:100CB0001F151F17151F000A00003200040A110A31
:100CC0000A0A110A040115020E11171E051E1F152E
:100CD0000A0E110A1F110E1F15111F05010E111DFD
:100CE0001F041F111F1108100F1F041B1F10101FBE
:100CF000061F1E040F0E110E1F09060E112E1F05D2
:100D00001A121509011F011F101F0F180F1F0C1FAA
:100D10001B041B031C03191513001F1103041811D6
:100D20001F000201022020200001020C121E1F12CF
:100D30000C0C12120C121F0C1A14041E05242A1E6D
:100D40001F021C141D1020201D1F0814111F101E2F
:100D5000041E1E021C0C120C3E0A040C123E1E0441
:100D60000214160A020F120E101E0E100E1E081E7E
:100D7000120C1226281E322A26041E21001F0021D2
:100D80001E040102013F213F0A4E6F20534420639D
:100D9000617264206F720A6E6F204C4F414445525D
:100DA0002E4845580A0A153A45786974001D2046B0
:100DB0006C617368696E670A20206C6F616465728C
:100DC0002E2E2E0A0A444F4E2754205455524E20A0
:100DD0004F464621000A0A153A49676E6F72650050
:100DE0006D560A0A504C45415345205455524E20E9
:100DF0004F464620004C4F572042415454455259CB
:100E0000212000177361766500166261636B00151F
:100E100074797065000A0A0A153A6F6B61792016B9
:100E20003A6564697400596F7520656E7465726502
:100E3000640A00540A03E181867F3E186D830F0F18
:100E40000E0183866033186DC3198F1803C38E603B
:100E500033186DE330CF1803C39E603630CDE360A6
:100E6000CF3006C79E7E3E30CDB360CF300CC6F685
:100E7000603330D9B660CF33CFCCF66061B0DB1EC3
:100E800060CF30D86CE6C061B0DB1E618F19986C02
:100E9000C6C063B19B0E330F0FB078C6FF7E1F1B19
:100EA000061E0F175344001613780016131400156E
:100EB00010200015201000000005008930080238BD
:100EC00002497868140000450068010000050068C8
:100ED00001380100000500380168010000F6E8DB78
:100EE000CFC3B8AEA49B928A827B746E68625C5753
:100EF000524E4945413E3A3734312E2C292725237D
:100F0000211F1D1C1A1917161514131211100F0E7C
:100F10000D0C0B0A090807061C0F200F0101F7032F
:100F20000101FF0300000000240027002A00000048
:100F30000000250028002B000000000023002600F0
:100F4000290004040404040404040202020202024C
:100F5000030303030303010204081020408001027D
:100F600004081020010204081020000000070002FD
:100F70000100000304060000000000000000EA0772
:100F800011241FBECFEFD8E0DEBFCDBF11E0A0E03F
:100F9000B1E0E0E3F1E402C005900D92AE34B10798
:100FA000D9F714E0AEE4B1E001C01D92A836B10754
:100FB000E1F71FE0C0E8DFE004C02297FE010E94D5
:100FC0009220CE37D107C9F70E940D1D0C949620B0
:100FD0000C94000010921102109210028AE491E029
:100FE00090930F0280930E020895EF920F931F9338
:100FF000CF93DF938EE491E00E941412882309F4CA
:1010000084C08091310290913202A0913302B0915C
:101010003402B095A095909581959F4FAF4FBF4FEB
:1010200042E0B695A795979587954A95D1F7809315
:10103000170288E0809318028EE092E060E071E091
:101040000E94981E809173018823E9F0CBE7D1E0DC
:101050001FE08EE092E069E0412F23E409E033E0F5
:10106000E32E0E94290C8C81882341F06881675F00
:101070008EE092E0412F29E00E94870C185F2196B4
:101080001F3239F715C08EE18093170288E18093F3
:1010900018028EE092E064E271E00E94981E8CE0FB
:1010A000809317028EE092E06DE271E00E94981E3C
:1010B00088E591E066E00E94E809882331F183E742
:1010C00091E00E9461198EE491E060E372E00E9479
:1010D000EA1483E791E068E670E040E00E94761948
:1010E00083E791E06AED70E041E00E94761983E7C2
:1010F00091E06CE471E042E00E94761983E791E0B0
:101100006EEB71E043E00E947619DF91CF911F9161
:101110000F91EF900895EF92FF920F931F930EE4BB
:1011200011E0C8010E94EF14C8016BE073E00E9457
:10113000EA1480EA92E0A0E0B0E08093310290935C
:101140003202A0933302B0933402C8016EE10E94D0
:10115000BA100B5D1F4F5BE3E52E52E0F52EC80180
:10116000B70140E00E946815C801B70141E00E9444
:101170006815C801B70142E00E946815C801B701AF
:1011800043E00E946815C80168E670E040E00E94F4
:101190007619C8016AED70E041E00E947619C80135
:1011A0006CE471E042E00E947619C8016EEB71E0D8
:1011B00043E00E947619C80161E041E020E003E0CD
:1011C0000E9473151F910F91FF90EF90089588234F
:1011D00019F48CB5806202C08CB58F7D8CBD0895EA
:1011E0009CB5937F982B9CBD08952CB5382F3370F8
:1011F0002C7F322B3CBD2DB590E09595879595952C
:10120000879581702E7F822B8DBD08958AE061E0E5
:101210000E94AA1C8AE061E00E943E1C8CB580619D
:101220008CBD8CB580648CBD8DE061E00E943E1C5D
:101230008BE061E00E943E1C0895FC0181E0808308
:10124000089585E070E00E94DE1B08956F927F9202
:101250008F929F92AF92BF92CF92DF92EF92FF92C6
:101260000F931F93CF93DF93EC0189819A818C01B7
:1012700024E0000F111F2A95E1F7081B190B85E1E7
:101280000E94BC1BBC01600F711F84E076956795BE
:101290008A95E1F77A8369838881882381F12E8199
:1012A0003F816217730710F4B90106C088859985DC
:1012B0008617970708F4BC0100D000D080E090E0CA
:1012C00040E050E0E884F98400E010E0AD80BB2409
:1012D000CC24DD246C80772488249924EDB7FEB7D4
:1012E00061827282838294820E949B1E6B830F9024
:1012F0000F900F900F9085E070E00E94DE1BDF9151
:10130000CF911F910F91FF90EF90DF90CF90BF9002
:10131000AF909F908F907F906F900895FC018CE329
:101320009FE09383828384E0818381E084870895B2
:10133000CF93DF93EC018C819D81892BB1F18C855A
:1013400090E08F719070892B69F584E10E94BC1B3D
:10135000AA2797FDA095BA2FBC01CD010E94121FAC
:1013600026EE3FE34EEC50E40E949E1F0E94E41ED6
:101370009B01AC017B836A836115710589F084E070
:101380008983B901FE0120E084819581681779077E
:1013900010F429830AC02F5F32962430A9F702C0C7
:1013A0008FEF89838C858F5F8C87DF91CF91089534
:1013B000FC0188E0808389E0818387E0828386E086
:1013C000838384E0848382E0858381E1868308953A
:1013D00020E0FC01E60FF11D8781813009F421E056
:1013E000822F08950F931F93CF93DF93EC0110E0AA
:1013F0000FEF888162E00E943E1C88810E94DD1C04
:101400002F81892B19F42F5F2F8307C0222349F0E6
:101410002F3F11F41F8201C00F83888160E00E947A
:101420003E1C1F5F2196173021F7DF91CF911F914E
:101430000F910895FC01742F643508F06FC047FDCB
:101440006DC040330CF06AC080A1823021F5842F3A
:10145000859585958595992787FD9095462F5527E4
:1014600047FD509524E530E0829FF001839FF00D09
:10147000929FF00D1124E40FF51FE95BFD4F808171
:1014800090E0272F277002C0959587952A95E2F75F
:101490008095817009C0833039F49485842F862724
:1014A000892780FF03C01FC08823E9F4E72FE59553
:1014B000E595E59584E5E802F0011124862F99274A
:1014C00087FD9095E80FF91FE95BFD4F777081E08C
:1014D00090E002C0880F991F7A95E2F780952081ED
:1014E000282320830895E72FE595E595E59584E584
:1014F000E802F0011124862F992787FD9095E80FC7
:10150000F91FE95BFD4F777081E090E002C0880F22
:10151000991F7A95E2F72081282B20830895FC01FA
:1015200060A361A30895FC0160A341A30895EF9215
:10153000FF920F931F93CF93DF93EC01E62EF42ECF
:10154000022F10E007C0412F4F0DCE016E2D0E94DB
:101550001A0A1F5F1017BCF3DF91CF911F910F91F3
:10156000FF90EF900895EF92FF920F931F93CF9308
:10157000DF93EC01E62EF42E022F10E007C0612F5E
:101580006E0DCE014F2D0E941A0A1F5F1017BCF37B
:10159000DF91CF911F910F91FF90EF9008959F924F
:1015A000AF92BF92CF92DF92EF92FF920F931F9371
:1015B000CF93DF936C01962EB42EA22EC0E0D0E024
:1015C000E42EFF24E7FCF094112707FD10950E0D83
:1015D0001F1D06C0C601692D2A2D0E94B30A21963F
:1015E0004B2D4C0FCE018E0D9F1D8017910794F34C
:1015F000DF91CF911F910F91FF90EF90DF90CF90EF
:10160000BF90AF909F9008952F923F925F926F92FC
:101610007F928F929F92AF92BF92CF92DF92EF9282
:10162000FF920F931F93DF93CF9300D000D000D091
:10163000CDB7DEB79E838D83C62ED42EEE24E394E1
:10164000E21A8EEF289F502C1124842E8A94962E15
:101650009A94A42EA394B62EB394F22E662423E07B
:10166000722E10E0C801847090709A838983F8010B
:10167000E270F070FC83EB8398E0292E312C20225D
:1016800031220170107054C0E7FC04C0FA94F2E0FB
:101690005F0EE50C639489819A81892B71F04F2D3F
:1016A0004D0D8D819E816B2D0E941A0A6F2D6C0D40
:1016B0008D819E814A2D0E941A0AEB81FC81EF2BBD
:1016C00071F04D2D4F198D819E816B2D0E941A0A4C
:1016D0006F2D6C0D8D819E81482D0E941A0A211458
:1016E000310471F06C2D6F198D819E814A2D0E94FD
:1016F0001A0A4F2D4D0D8D819E81692D0E941A0A67
:101700000115110571F06C2D6F198D819E81482D89
:101710000E941A0A4D2D4F198D819E81692D0E94BC
:101720001A0AE70CF2E07F0E8A949A94A394B39479
:101730006F140CF4A9CF26960FB6F894DEBF0FBE37
:10174000CDBFCF91DF911F910F91FF90EF90DF9070
:10175000CF90BF90AF909F908F907F906F905F9051
:101760003F902F9008954F925F926F927F928F9249
:101770009F92AF92BF92CF92DF92EF92FF920F9320
:101780001F93CF93DF93EC01A62E742E9E2DFF2482
:10179000F394F21A8EEF289F802C1124B42EBA9461
:1017A00053E0C52ECE0CE22EDD2443E0942E10E053
:1017B00031E0432E512C40225122692E6394027055
:1017C000107034C0F7FC04C0EA9482E0880EF80C74
:1017D000D3944114510489F06D2D6A0D472D4E1993
:1017E0002E2D220F260DCE010E94970A6E2D6A0D16
:1017F000CE014B2D2C2D0E94970A0115110589F061
:101800006A2D6D19472D4E192E2D220F260DCE0152
:101810000E94970A6A2D6E19CE014B2D2C2D0E9425
:10182000970AF90C82E0980EBA94C80EDE1454F2AE
:10183000DF91CF911F910F91FF90EF90DF90CF90AC
:10184000BF90AF909F908F907F906F905F904F90E0
:1018500008957F928F929F92AF92BF92CF92DF9224
:10186000EF92FF920F931F936C01962EA42EF22EEF
:101870007E2C760E1EEFE19E102D1124812E820EFD
:10188000672D282D0E94B30AB02EBA0CBA94C60157
:10189000672D4B2D282D0E94B30AAE0C100FC601E8
:1018A000692D4A2D212F0E94970AF90CFA94C6013E
:1018B0006F2D4A2D212F0E94970AC601672D4A2DB0
:1018C0002E2D01E00E94040BFE18C6016F2D4A2D3B
:1018D0002E2D02E00E94040BBE18C6016F2D4B2D69
:1018E0002E2D04E00E94040BC601672D4B2D2E2DDA
:1018F00008E00E94040B1F910F91FF90EF90DF9082
:10190000CF90BF90AF909F908F907F9008958F92CF
:101910009F92AF92BF92CF92DF92EF92FF920F937E
:101920001F936C01162FA42E922EF02EBE2C8E2CFF
:10193000860E2EEFE29EE02C11242E2D290D682D0F
:101940000E94CF0AAB0CFA94FE0C1150190D1B1912
:10195000C601612F4A2D2B2D01E0EF2C0E94B30B05
:10196000C601682D4A2D2B2D02E00E94B30B1F915A
:101970000F91FF90EF90DF90CF90BF90AF909F902E
:101980008F9008952F923F924F925F926F927F9225
:101990008F929F92AF92BF92CF92DF92EF92FF927F
:1019A0000F931F93DF93CF9300D000D0CDB7DEB756
:1019B0004C01D62E142FF9018491319694913197D0
:1019C000D40190966C90B3E5B6170CF457C1482F2C
:1019D000552747FD5095A62EBB24A7FCB0942A019D
:1019E0004A0C5B1C141415040CF048C110330CF0A5
:1019F00045C1092F212F332727FD3095892F99279E
:101A000087FD9095820F931F181619060CF036C1AA
:101A100062E0E62EF12CEE0EFF1ECA01079668E08A
:101A200070E00E944020762E17FF0EC0010F862F17
:101A300090E0FC01E29FC001E39F900DF29F900DAA
:101A40001124E81AF90A10E0802F992787FD909554
:101A5000212F332727FD3095820F931FC19714F054
:101A600000E3011BD7FCDD24C2018535910514F08C
:101A700084E590E0C82ED4011C969C909126ED2D13
:101A8000F0E0CF018A199B09AC014770507020E843
:101A900030E002C0359527954A95E2F7B22E68E00E
:101AA00070E00E944020AB014E0D5F1D5C834B83B4
:101AB000212F277081E090E0682F01C0660F2A95E2
:101AC000EAF715951595159584E51802A0011124DE
:101AD0004E0F5F1F495B5D4F8824202E332427FC67
:101AE0003094472C5524C4C0EB81FC812491F1E053
:101AF0006F1629F5AB81BC817B2D022F7A011D2D3C
:101B00001BC0872F90E0202F30E082239323892B66
:101B100021F0F7018081862B8083872F90E09595B7
:101B20008795782F882321F41196FD01049170E8A0
:101B30001F5F0894E11CF11C1C1518F38DC0662072
:101B400059F5F62EF094AB81BC817B2D022F5A8380
:101B500049831D2D1EC0872F90E0202F30E0822367
:101B60009323892B29F0E981FA8180818F21808359
:101B7000872F90E095958795782F882321F41196EB
:101B8000FD01049170E81F5F89819A8101969A8313
:101B900089831C1500F360C093E0691639F0AB81AE
:101BA000BC817B2D022F7A011D2D54C0A62EA0943E
:101BB000AB81BC817B2D022F5A8349831D2DE92CDB
:101BC000FF2428C0872F90E0202F30E0822393232A
:101BD000892B79F0812F90E08E259F25E981FA816C
:101BE000908180FF02C0962B03C09A21E981FA817F
:101BF0009083872F90E095958795782F882321F4FF
:101C00001196FD01049170E81F5F89819A81019608
:101C10009A8389831C15B0F291E099261DC0872F05
:101C200090E0202F30E082239323892B21F0F701CD
:101C3000808186278083872F90E095958795782FE0
:101C4000882321F41196FD01049170E81F5F089428
:101C5000E11CF11C1C1518F3660F19F44C5A5F4F68
:101C600061E083948B819C81840D951D9C838B8383
:101C7000882D90E0821593050CF436CF0F900F90CD
:101C80000F900F90CF91DF911F910F91FF90EF90E8
:101C9000DF90CF90BF90AF909F908F907F906F908C
:101CA0005F904F903F902F900895DC01FB0184914D
:101CB0008F5F14968C931497319684918F5F15964D
:101CC0008C93159731965F96FC93EE935E970895EB
:101CD0003F924F925F926F927F928F929F92AF92BC
:101CE000BF92CF92DF92EF92FF920F931F93CF9309
:101CF000DF93EC01862EA42E422F102F38A023E56F
:101D000026170CF4ABC03FE23A150CF4A7C0C02E66
:101D1000DD248C8190E001979C01C29EC001C39E8E
:101D2000900DD29E900D1124262F332727FD30953C
:101D3000820F931F181619060CF090C08D8190E049
:101D40009C01C29EC001C39E900DD29E900D112495
:101D50002A2D332727FD3095820F931F1816190659
:101D60000CF07CC09924442E55246DC09C01215058
:101D700030404217530711F460E00EC0429EC0018C
:101D8000439E900D529E900D1124840F951FEE8D51
:101D9000FF8DE80FF91F64914C9DC0014D9D900D82
:101DA0005C9D900D1124682C680EBB24792C780C56
:101DB0003FC0E62EFF2460FF19C0113039F44B2DCF
:101DC0004A0DCE01672D0E941A0A2EC02C9DC0011B
:101DD0002D9D900D3C9D900D11244A2D480FCE0154
:101DE000662D212F012F0E94CF0A1EC099A188A124
:101DF0009817D1F098A3113039F44B2D4A0DCE012C
:101E0000672D0E941A0A0FC02C9DC0012D9D900DB8
:101E10003C9D900D11244A2D480FCE01662D212F97
:101E2000012F0E94CF0A38A2F594E7946E2DB39447
:101E30002B2D332727FD30958D8190E0281739070A
:101E40000CF4B7CF9394492D552747FD50958C81BD
:101E500090E0481759070CF489CF38A2DF91CF9151
:101E60001F910F91FF90EF90DF90CF90BF90AF90B8
:101E70009F908F907F906F905F904F903F900895CC
:101E80000F93CF93DF93EC01262F6A3049F48D81B5
:101E90009885899F802D11249A85980F9A8726C04E
:101EA0006D3029F169854A8508850E94680E9C81FC
:101EB0006885969F402D11248985480F49878F8119
:101EC0008823A9F0552747FD5095699F900111245B
:101ED00084E590E0821B930B8417950744F49D8161
:101EE000699F902D11248A85890F8A87198681E040
:101EF00090E0DF91CF910F9108951F93CF93DF93DF
:101F0000EC01162FF8948F8560E00E94AA1C888946
:101F100018161CF460E00E94AA1C1EBD0DB407FE3A
:101F2000FDCF8EB5888918161CF461E00E94AA1CAA
:101F30007894DF91CF911F910895FF920F931F9393
:101F4000CF93DF93EC018C858F5F8C87FF2400E0BB
:101F500010E06F2D6064CE010E947D0FCE0160E81D
:101F60000E947D0F8F8561E00E94AA1C8889181647
:101F70001CF460E00E94AA1CF801E95BFD4F90E0B0
:101F800080818EBD0DB407FEFDCF8EB59F5F31966B
:101F90009435B1F7888918161CF461E00E94AA1CD8
:101FA000F3940C5A1F4F86E0F81699F6CE0160E4C0
:101FB0000E947D0FDF91CF911F910F91FF900895A7
:101FC000CF93DF93DC0188EF91E0E7E4F2E0EF01EB
:101FD0009C01199221503040E1F719961C921997F3
:101FE0001A961C92DF91CF910895EF920F93CF93A1
:101FF000DF93EC014E876D872F87E98A088B81E09C
:10200000888788A319A28F83CE0166E07CE00E94B6
:10201000550E0E94060981E00E94E70885E00E94B3
:10202000F5088CE00E94F0088E8561E00E943E1C5D
:102030008D8561E00E943E1C8F8561E00E943E1C00
:10204000898918161CF461E00E943E1C88891816C4
:102050001CF461E00E943E1C898918166CF460E053
:102060000E94AA1C6AE070E080E090E00E945B1B86
:10207000898961E00E94AA1CED852E2F332727FD58
:102080003095F901EE5BF04FE491F0E0EE0FFF1FA9
:10209000E25DF04F859194919D8B8C8B2A5A304F45
:1020A000F90184918B8FEE852E2F332727FD3095F4
:1020B000F901EE5BF04FE491F0E0EE0FFF1FE25DFF
:1020C000F04F859194919B8B8A8B2A5A304FF9015E
:1020D00084918A8FE8892E2F332727FD3095F901C7
:1020E000EE5BF04FE491F0E0EE0FFF1FE25DF04F8A
:1020F000859194919F8B8E8B2A5A304FF901849150
:102100008C8FEF852E2F332727FD3095F901EE5B5D
:10211000F04FE491F0E0EE0FFF1FE25DF04F85918C
:102120009491998F888F2A5A304FF90184918D8F1D
:10213000CE0161E20E947D0FCE0164E10E947D0F1D
:102140008B8587FF02C08FE78B876B856068CE0128
:102150000E947D0FCE0160E20E947D0FCE016CE0F7
:102160000E947D0FCE010E949D0FDF91CF910F91B4
:10217000EF900895FC01262FEF50FF4F88EE93E07B
:1021800070E00E9440206083E15FF040822F64E1B4
:102190000E942020882309F481E085AB0895CF9325
:1021A000DF93DC01E0E8F7E785919491ED01C553F9
:1021B000DF4FAD014E515F4F8150904C09F04EC042
:1021C000E6E9F7E7E491E883E7E9F7E7E4911496B5
:1021D000EC931497E8E9F7E7E4911596EC931597DB
:1021E000E9E9F7E78591949117969C938E9316975A
:1021F000EBE9F7E78591949119969C938E93189744
:10220000EDE9F7E7E491D796EC93D797EEE9F7E796
:10221000E491D696EC93D697EFE9F7E7E491EA01DB
:10222000E883E0EAF7E7859194915D969C938E931D
:102230005C97E2EAF7E7859194915F969C938E9381
:102240005E97E4EAF7E78591949191969C938E933B
:102250009097E6EAF7E78591949132C08CE3888302
:1022600014961C9214972FEF15962C93159780E2D5
:1022700093E017969C938E93169784ED93E01996AE
:102280009C938E93189781E0D7968C93D797D69688
:102290008C93D697FA0120838CEA9DE05D969C93FF
:1022A0008E935C978EED9DE05F969C938E935E97E8
:1022B00084E79EE091969C938E9390978CE39FE0A9
:1022C00093969C938E939297DF91CF910895EF927E
:1022D000FF920F931F93CF93DF937C018C010054E7
:1022E0001F4FC8010E94E00FC8016DEA7DE00E9407
:1022F000461DC8010E949D0F83E00E94F5088DE3F2
:1023000091E0EEEFFFE3099586EC90E0E80EF91E10
:10231000F7011082C80168E87DE00E94911DC801A4
:102320000E949D0FE701CC5BD040CE010E94F209D4
:10233000CE0164E00E94E809882339F462E370E08A
:1023400080E090E00E945B1BF0CFDF91CF911F9166
:102350000F91FF90EF900895AF92BF92CF92DF92CE
:10236000EF92FF920F931F93CF93DF93EC01C8502E
:10237000DF4F8881C85FD040882309F44AC08C3081
:1023800010F010E002C01CE0181BC853DF4F81E0C2
:102390008883C85CD04060ECC62ED12CCC0EDD1EEC
:1023A000C60160E00E948F0A55ECA52EB12CAC0E40
:1023B000BD1EF50100814DE2F42E4F2D401B410F53
:1023C0000D5FC60160E024E533E0E32E0E94870C38
:1023D000C60161E00E948F0AF5010081F01AF10E3A
:1023E0000D5FC60160E04F2D24E50E94290CC75304
:1023F000DF4F84E08993F5018081181B115D1883FC
:10240000AC9669917991C6010E94461D88818150E0
:102410008883DF91CF911F910F91FF90EF90DF9014
:10242000CF90BF90AF900895AF92BF92CF92DF92BE
:10243000EF92FF920F931F93CF93DF93EC01E2EFA4
:10244000AE2EB12CA80EB91EF501E080F1800281FC
:1024500013810E94271BE61AF70A080B190B71EF6C
:10246000C72ED12CCC0EDD1EF601808190E0A0E0BD
:10247000B0E08E159F05A007B10708F081C08E015E
:1024800003511F4FF80180819181A281B381009790
:10249000A105B10509F474C00E94271BF601208133
:1024A000620F711D811D911DF5016083718382830F
:1024B0009383FE01ED51FF4F80819181A281B38111
:1024C0000196A11DB11D80839183A283B383F8017E
:1024D00010821182128213820E94351BC751DF4F76
:1024E000688379838A839B83C95ED040CE010E9432
:1024F0002609CE010A960E94F209CE0148960E9452
:10250000980981E032C08E010B5D1F4FC8010E9407
:102510004319C8010E944B1AC8010E949B18CE01A2
:102520000E94AC11CE010E94CD128E0100541F4FAB
:10253000C8010E949D0FCA53DF4F8881C65CD040FE
:10254000882319F4C8010E94E00F0E94351BC35173
:10255000DF4F688379838A839B832497288139811D
:10256000621B730B7A936A9380E0DF91CF911F9186
:102570000F91FF90EF90DF90CF90BF90AF900895B4
:10258000C351DF4F88819981AA81BB81CD5ED04044
:102590000097A105B10541F7B6CFBF92CF92DF9268
:1025A000EF92FF920F931F93CF93DF93EC018C8DEB
:1025B0009D8D892B09F4A1C08E0100541F4FC801C5
:1025C00061E040E00E94930AFE01E753FF4FCC53C5
:1025D000DF4F85E59881891B808326961882CA5C27
:1025E000D040698D613009F469C0613028F0888D70
:1025F000653008F07CC076C0CE0185960E94C01878
:10260000C853DF4F81E08883C85CD040C80166E0D2
:102610007CE00E94550E1D8E1C8ECA53DF4F18821F
:10262000C65CD040AAE0CA2ED12CCC0EDD1EBC2E3A
:10263000ED2EF8EAFF2ECE010E9414128823D9F362
:10264000C80165EF7DE00E94461D6A8D7B8DC80143
:102650004AE050E00E94341EC80160EE7DE00E9416
:10266000461D6F2D62956F70C80170E04AE050E022
:102670000E94851EC80165ED7DE00E94461DC601D1
:1026800064E00E94E8098823C1F5FA94A1F68B2D35
:102690009E2D60E00E94210983B7817F846083BF03
:1026A00083B7816083BF83B7816083BF889583B719
:1026B0008E7F83BF83B78E7F83BFBDCFCD51DF4F6A
:1026C00088819981AA81BB818F709070A070B07051
:1026D0000897A105B10518F4C80167E00CC0C8014E
:1026E00068E709C0882349F06B5FC80104C08823EC
:1026F00021F0C8016FE20E94691DDF91CF911F9107
:102700000F91FF90EF90DF90CF90BF9008952F92A0
:102710003F924F925F926F927F928F929F92AF9271
:10272000BF92CF92DF92EF92FF920F931F93DF93AE
:10273000CF93CDB7DEB72B970FB6F894DEBF0FBEA1
:10274000CDBF9B878A877A8369835C834B838C01A7
:102750000E511F4FF8018081882309F422C18A8518
:102760009B8588539F4F9B878A8781E0EA85FB85FD
:10277000808312921292E65CF040FB87EA87108E0B
:1027800040ECE42EF12CEE0EFF1EC70161E00E942A
:102790008F0A3AE0232E312C8A859B85280E391E1C
:1027A00025E2622E712C680E791EE981FA81F4917E
:1027B000FD83B9EC8B2E912C880E991EAAECCA2EA3
:1027C000D12CC80ED91EF4EC4F2E512C480E591E98
:1027D0008B539F4F9F838E83E3EEAE2EB12C8A8561
:1027E0009B85A80EB91E198708878A859B850E943C
:1027F00014128823D1F39D81992311F410E003C0B2
:10280000EE81FF811081C70160E040E023E33EE0FC
:102810000E94C20C8B819C81892B41F0145FC701FF
:1028200060E0412F2B813C810E94C20CF401108298
:102830008CE0F6018083C70169817A810E94461D80
:10284000F201208130E0C901880F991F820F931F88
:10285000909581959F4F8D5AF4018083EE81FF8181
:10286000208130E0C901880F991F820F931F909536
:1028700081959F4F835DF6018083F501808184FF00
:1028800004C0C70163EB7EE003C0C7016FEA7EE0CE
:102890000E94911DF201208130E0C901880F991F2B
:1028A000820F931F909581959F4F8D5AF4018083DD
:1028B000F60180818F5F8083EA85FB8586A9882366
:1028C00021F0C7016BEA7EE003C0C70167EA7EE042
:1028D0000E94911DF201808190E09C01220F331F24
:1028E000280F391F309521953F4F2D5AF401208331
:1028F000F60180818F5F8083C70163EA7EE00E94DA
:10290000911DC10165E00E94E809882351F0EA8524
:10291000FB8566A96F5FC3010E946C1AC3010E9408
:10292000661AC10164E00E94E809882399F4E885E9
:10293000F9856081262F30E040E050E0F50180818C
:102940009181A281B38182179307A407B50708F18B
:102950006F3FF9F08A859B858E519F4F9B878A87B1
:102960008FEFEA85FB858083E25EF040FB87EA8794
:10297000C30160E00E94B018C3010E94601A81E0A8
:10298000EA85FB85808F0DC08A859B850E94671133
:102990002CCFC10166E00E94E809882309F425CF05
:1029A000F3CF2B960FB6F894DEBF0FBECDBFCF91FD
:1029B000DF911F910F91FF90EF90DF90CF90BF902C
:1029C000AF909F908F907F906F905F904F903F90CF
:1029D0002F90089540E050E00E9487130895AF9231
:1029E000BF92CF92DF92EF920F93CF93DF936C0160
:1029F00081EF90E0C80ED91E82E3F601808381E06A
:102A000090E0A0E0B0E0B293A293929382936F0122
:102A100085EF9FEFC80ED91E8FEFF60180838EE100
:102A20009FEFC80ED91EC6010E94CF10C6010E949A
:102A30001D09C6016FEF0E9421096AE0A62EB12C84
:102A4000AC0CBD1CC5010E94D809C5010E94F20949
:102A5000C60148960E948E09C60180549F4F6DE0C2
:102A60004BE020E10FE05EE0E52E0E94F50FE6016D
:102A7000A596CE010E94791AC50165E00E94E80979
:102A8000882329F0CE0160E00E946C1A18C0CE01A4
:102A900069EB7EE040E00E94D518CE0169EB7EE054
:102AA00041E00E94D518CE0169EB7EE042E00E9431
:102AB000D518CE0169EB7EE043E00E94D518DF9186
:102AC000CF910F91EF90DF90CF90BF90AF9008958E
:102AD000443040F4E42FF0E0EE0FFF1FE80FF91F41
:102AE00070A3678F08950F93CF93DF93EC010430A9
:102AF00008F06BC0623009F450C0633030F46623D4
:102B000059F0613009F061C011C0633009F44BC065
:102B1000643009F05AC04DC0FC01E00FF11DE15BCB
:102B2000FF4F4B3008F04AE040834FC0A02FB0E089
:102B3000BD01660F771F680F791F842F90E0880F03
:102B4000991FFB0123A934A9280F391FF901859189
:102B500094916D587F4FFB0191838083FC014591D7
:102B60005491FE01EA0FFB1FE558FF4F8889849FAF
:102B7000002D11240083252F3327802F90E0281764
:102B8000390708F4052FAC0FBD1FA158BF4F888926
:102B9000089F802D11248C9318C0FC01E00FF11DBB
:102BA000E55AFF4F0BC0FC01E00FF11DED59FF4F3F
:102BB00005C0FC01E00FF11DE559FF4F8889489FD2
:102BC000802D1124808334962083DF91CF910F9143
:102BD0000895CF93DF93EC01243010F5A22FB0E0DD
:102BE000FC01EA0FFB1FE95BFF4F60833496888985
:102BF000489F802D11248083E05CFF4F1082CD011F
:102C0000880F991FC80FD91FCD57DF4F198218821F
:102C1000F89781E08083A55BBB4F8C93349610823C
:102C2000DF91CF91089580914B04882311F490E0B7
:102C300002C09091570480914C04882319F0809130
:102C40005804980F80914D04882319F080915904FD
:102C5000980F80914E04882319F080915A04980FA0
:102C60009093B400089560915304662341F18091DC
:102C700047048F5F8093470490914F048917F8F0C1
:102C800090E080914B04882309F491E090934B04E9
:102C90001092470480915B04882379F0809144016D
:102CA00023E4829FC0011124895B8093440190E05A
:102CB00070E00E942C208093570421E001C020E0A6
:102CC00060915404662339F1809148048F5F8093AA
:102CD0004804909150048917F0F090E080914C04E2
:102CE000882309F491E090934C0410924804809159
:102CF0005C04882379F08091440123E4829FC00121
:102D00001124895B8093440190E070E00E942C20A4
:102D10008093580421E060915504662339F1809135
:102D200049048F5F80934904909151048917F0F012
:102D300090E080914D04882309F491E090934D0434
:102D40001092490480915D04882379F080914401B8
:102D500023E4829FC0011124895B8093440190E0A9
:102D600070E00E942C208093590421E06091560469
:102D7000662339F180914A048F5F80934A049091D1
:102D800052048917F0F090E080914E04882309F4F2
:102D900091E090934E0410924A0480915E0488233F
:102DA00091F08091440123E4829FC0011124895B4A
:102DB0008093440190E070E00E942C2080935A049C
:102DC00002C0222311F00E94131608951F920F9241
:102DD0000FB60F9211242F933F934F935F936F93EE
:102DE0007F938F939F93AF93BF93EF93FF930E9433
:102DF0003316FF91EF91BF91AF919F918F917F918A
:102E00006F915F914F913F912F910F900FBE0F9057
:102E10001F901895CF93DF93EC01643010F5A62F27
:102E2000B0E0FC01EA0FFB1FED5AFF4F108238970C
:102E30001082CD01880F991FC80FD91FCD57DF4FC2
:102E4000198218823C961082FD01E95AFB4F1082CC
:102E5000FD01ED5AFB4F1082A55BBB4F1C920E94F7
:102E60001316DF91CF910895DF92EF92FF920F93A7
:102E70001F93CF93DF937C01D62E43E0461708F4CF
:102E800052C1062F10E0DC01A00FB11FAD5ABF4F99
:102E90008C91A355B040882309F445C1FD01E55B41
:102EA000FF4F8081882321F4C7010E940A173BC18C
:102EB00081508083BD0165577F4FFB01808188234E
:102EC00009F052C0F801EE0FFF1FEE0DFF1DEF01DC
:102ED000CD57DF4F888199810196880F991FED5852
:102EE000FF4F0190F081E02DE80FF91F25913491FB
:102EF000A157BF4F822F87708C93A901F3E056959D
:102F00004795FA95E1F7CA01969587951496232F70
:102F10003327269526952C938F73F7012089829F5E
:102F2000802D1124FB018083F801E55AFB4F41708D
:102F300040838881998101969983888358972C9141
:102F4000AB57B04030E08217930770F0A158BF4FE5
:102F50008C91882329F0281B31093983288304C0E8
:102F6000C7016D2D0E940A17E701C00FD11FFE0196
:102F7000E557FF4F808181508083FE01E95AFF4F62
:102F800090819F5F9083FE01ED56FF4FC95BDF4F3D
:102F9000E0818881C754D040E80F8FA1E80FE8870F
:102FA000CD59DF4F6881C356D040662389F0892F01
:102FB000992787FD909570E00E944020C959DF4F06
:102FC0008881C756D040869F802D11248E0F888718
:102FD000F701E00FF11F808590E0CB966BE370E086
:102FE0000E9440208087E15BFF4F2081EF54F0403A
:102FF0002487E55AFF4F6081EB55F0406623A1F02E
:10300000E95AFF4F8081772767FD7095992787FDE3
:1030100090950E94402038968081EF55F040869F21
:10302000802D1124820F8487F701E00FF11FE559ED
:10303000FF4F6081EB56F0406623C1F0E95AFF4F25
:103040008081992787FD909570E00E944020CB01F8
:1030500062E070E00E94402078969081EF56F04048
:10306000899F802D11249485890F8487F701E00FB3
:10307000F11F84858A300CF089E0F701E00FF11F21
:1030800087FD80E08487F701E00FF11FE95BFF4FC8
:103090008081E754F0408F3309F41486F894A70137
:1030A000400F511FDA011896EC91F0E0E352F14F16
:1030B000E491D801A15BBB4FEC93FA01248533273F
:1030C00027FD309549565F4FDA018C9190E0F90168
:1030D000E89F9001E99F300DF89F300D1124D70132
:1030E00051968C9190E0F901E89F9001E99F300D95
:1030F000F89F300D112448505040DA018C919927E7
:1031000087FD9095FC012E9FC0012F9F900D3E9F43
:10311000900D1124F801ED5AFB4F8083095A1B4F83
:10312000D8018C937894DF91CF911F910F91FF90EC
:10313000EF90DF9008950F931F938C0160E00E9441
:103140003417C80161E00E943417C80162E00E9490
:103150003417C80163E00E9434171F910F9108953E
:103160001F93CF93DF93EC01162F643028F40E9455
:103170000A17C10FD11D1C82DF91CF911F910895B5
:103180000F931F938C0160E00E94B018C80161E0AA
:103190000E94B018C80162E00E94B018C80163E044
:1031A0000E94B0181F910F910895EF92FF921F9304
:1031B000CF93DF93EC017B01142F4430F0F4642FA4
:1031C0000E94B018812F90E0FC01EE0FFF1FEC0F62
:1031D000FD1FF4A6E3A6FF9611821082FE01E80F00
:1031E000F91F81E08483E15BFF4F89E080833C9697
:1031F00010823896108238961082DF91CF911F91FD
:10320000FF90EF9008951F93CF93DF93AC01162F9B
:103210006430A8F5262F30E0EC01C20FD31F88815F
:10322000882369F18C81882351F5D901AA0FBB1F2E
:10323000A40FB51F8B8D90E0880F991F5396ED91C9
:10324000FC915497E80FF91F859194912FEF8F3FD0
:10325000920711F4188213C09FA390E0880F991F62
:103260005F96ED91FC919097E80FF91F659174912D
:10327000CA01412F0E94D5188B8D8F5F8B8FDF91F4
:10328000CF911F9108950F931F938C0160E00E94CE
:103290000319C80161E00E940319C80162E00E949D
:1032A0000319C80163E00E9403191F910F9108954B
:1032B000643030F4FC01E60FF11D10820E94B0185A
:1032C00008950F931F938C0160E00E945819C80164
:1032D00061E00E945819C80162E00E945819C801B3
:1032E00063E00E9458191F910F910895EF92FF9289
:1032F0001F93CF93DF93EC017B01142F443098F49C
:10330000642F0E945819E12FF0E0DE01AE0FBF1FBD
:103310005B961C925B97EE0FFF1FEC0FFD1FF48A6C
:10332000E38A81E08C93DF91CF911F91FF90EF9022
:1033300008958F929F92BF92CF92DF92EF92FF9269
:103340000F931F93CF93DF937C01B62E83E08617F4
:1033500008F495C0C62EDD24D701AC0DBD1D149612
:103360008C911497882309F48AC0A55BBF4F8C9178
:10337000AB54B040882309F082C04601880C991CE8
:103380008E0C9F1C8401015C1F4FE801E881F981CC
:10339000EE0FFF1FE4014BA55CA5E40FF51F25917F
:1033A00034912115310509F047C0DB968C91DB97EC
:1033B000813039F4F80111821082FA01259134919B
:1033C0003BC014961C9214978C91882381F0C701FE
:1033D0000E940319D8018D919C91880F991FE401D7
:1033E000EBA5FCA5E80FF91F2591349125C0C70175
:1033F0000E940A1744C0E6E036952795EA95E1F762
:103400006F70422F4F7175E0369527957A95E1F7E9
:103410002051C7010B2D0E94731588819981019657
:1034200099838883880F991FD601ED91FC91E80F4D
:10343000F91F259134910DC04601880C991CC701D4
:10344000880D991DEC01EF964BE2C42ED12CC80ECD
:10345000D91EB901769567957695679520FDCBCFF6
:103460006F73432FC7012B2D0E94E915F701E80D5B
:10347000F91DFF9680819181019691838083DF9170
:10348000CF911F910F91FF90EF90DF90CF90BF9061
:103490009F908F9008950F931F938C0160E00E947E
:1034A0009919C80161E00E949919C80162E00E945F
:1034B0009919C80163E00E9499191F910F9108950D
:1034C00065ED7EE040E00E94D518089567EC7EE04F
:1034D00040E00E94D5180895FC01862F628970E0B3
:1034E0006F5F7F4F992787FD90950E944020818BC9
:1034F00008959F92AF92BF92CF92DF92EF92FF9288
:103500000F931F93CF93DF93EC0181E0888B47E902
:10351000C42ED12CCC0EDD1E33E3E32EF12CEC0EA9
:10352000FD1E10E09924939428E1A22E2FE0B22EE4
:10353000F60191926F01F701A192B1927F01CE0144
:1035400061E040E020E0012F0E9473151F5F1430FE
:1035500079F783E061E070E00E94DE1B8091B100AA
:10356000887F81608093B100F8941092800010925F
:103570008100109285001092840088E191E0909380
:103580008900809388008091810088608093810009
:103590008091810081608093810080916F008260C2
:1035A00080936F007894DF91CF911F910F91FF90DE
:1035B000EF90DF90CF90BF90AF909F9008951F92B3
:1035C0000F920FB60F9211242F933F938F939F93D7
:1035D000AF93BF938091630490916404A0916504BC
:1035E000B0916604309167040196A11DB11D232F8F
:1035F0002D5F2D3720F02D570196A11DB11D209371
:1036000067048093630490936404A0936504B0936B
:10361000660480915F0490916004A0916104B09170
:1036200062040196A11DB11D80935F049093600414
:10363000A0936104B0936204BF91AF919F918F9169
:103640003F912F910F900FBE0F901F9018958FB73D
:10365000F894209163043091640440916504509182
:1036600066048FBFB901CA0108959FB7F8942091ED
:103670005F0430916004409161045091620486B50A
:10368000A89B06C08F3F21F02F5F3F4F4F4F5F4FEA
:103690009FBF542F432F322F2227280F311D411D4A
:1036A000511D82E0220F331F441F551F8A95D1F709
:1036B000B901CA010895EF92FF920F931F93CF9320
:1036C000DF937B018C010E94351BEB010EC00E9431
:1036D000351B6C1B7D0B685E7340C8F30894E108D2
:1036E000F10801091109C851DC4FE114F104010589
:1036F000110569F7DF91CF911F910F91FF90EF9026
:103700000895789484B5826084BD84B5816084BD59
:1037100085B5826085BD85B5816085BDEEE6F0E04A
:10372000808181608083E1E8F0E0108280818260A6
:103730008083808181608083E0E8F0E08081816027
:103740008083E1EBF0E0808184608083E0EBF0E057
:10375000808181608083EAE7F0E0808184608083FB
:1037600080818260808380818160808380818068A5
:1037700080831092C1000895982F8E3008F09E50DB
:103780009770809145018295880F880F807C892BE6
:1037900080937C0080917A00806480937A0080918D
:1037A0007A0086FDFCCF2091780040917900942F1B
:1037B00080E030E0282B392BC90108951F93CF9367
:1037C000DF93182FEB0161E00E943E1C209709F463
:1037D0004AC0CF3FD10509F449C0E12FF0E0E659D6
:1037E000F04F84918330C1F0843028F4813051F05F
:1037F0008230B1F50CC0863019F1873049F1843040
:1038000079F514C084B5806884BDC7BD33C084B564
:10381000806284BDC8BD2EC0809180008068809386
:103820008000D0938900C093880024C080918000DC
:10383000806280938000D0938B00C0938A001AC06E
:103840008091B00080688093B000C093B30012C034
:103850008091B00080628093B000C093B4000AC031
:10386000C038D1051CF4812F60E002C0812F61E0D7
:103870000E94AA1CDF91CF911F910895CF93DF93EF
:10388000482F50E0CA018A5A904FFC0134914E5B98
:10389000504FFA018491882369F190E0880F991FB5
:1038A000FC01EC5DF04FA591B491FC01E25DF04F9D
:1038B000C591D491662351F42FB7F8948C91932F2E
:1038C000909589238C93888189230BC0623061F4A1
:1038D0002FB7F8948C91932F909589238C9388819E
:1038E000832B88832FBF06C09FB7F8948C91832BBE
:1038F0008C939FBFDF91CF910895833071F0843016
:1039000028F48130A1F0823021F514C08630B1F066
:103910008730D1F08430E9F404C0809180008F7743
:1039200003C0809180008F7D80938000089584B5CE
:103930008F7702C084B58F7D84BD08958091B000DB
:103940008F778093B00008958091B0008F7D809331
:10395000B0000895FF920F931F93F62E482F50E06A
:10396000CA018659904FFC012491CA018A5A904F8E
:10397000FC0114914E5B504FFA0104910023C9F0F1
:10398000222319F0822F0E947D1CE02FF0E0EE0F21
:10399000FF1FE25DF04FA591B4919FB7F894FF200F
:1039A00021F48C911095812302C08C91812B8C93F2
:1039B0009FBF1F910F91FF9008950F931F93482F62
:1039C00050E0CA018659904FFC012491CA018A5ADD
:1039D000904FFC0104914E5B504FFA01149111235A
:1039E00019F420E030E015C0222319F0822F0E9444
:1039F0007D1C812F90E0880F991F885C904FFC01FF
:103A0000A591B4918C9120E030E0802311F021E069
:103A100030E0C9011F910F910895CF93DF930E9469
:103A2000811B0E948B08C0E0D0E00E94F507209720
:103A3000E1F30E940000F9CFCF92DF92EF92FF9264
:103A40000F931F93CF93DF937C016B018A01C0E03A
:103A5000D0E00FC0D6016D916D01D701ED91FC91C1
:103A60000190F081E02DC7010995C80FD91F0150C1
:103A700010400115110571F7CE01DF91CF911F9113
:103A80000F91FF90EF90DF90CF900895EF92FF920B
:103A90000F931F93CF93DF937C018B01C0E0D0E0A5
:103AA000F8010F5F1F4F6491662359F0D701ED9124
:103AB000FC910190F081E02DC7010995C80FD91F35
:103AC000EFCFCE01DF91CF911F910F91FF90EF903B
:103AD0000895DC01ED91FC910190F081E02D0995B4
:103AE0000895EF92FF920F931F938C01DC01ED91EB
:103AF000FC910190F081E02D6DE009957C01D801E9
:103B0000ED91FC910190F081E02DC8016AE00995EA
:103B10009C012E0D3F1DC9011F910F91FF90EF9049
:103B20000895EF92FF920F931F937C010E94461D10
:103B30008C01C7010E94711D9C01200F311FC9011A
:103B40001F910F91FF90EF900895CF93DF93EC01B9
:103B50006115710519F420E030E00FC0DB010D9014
:103B60000020E9F71197A61BB70BE881F9810280C5
:103B7000F381E02DAD0109959C01C901DF91CF9141
:103B800008954F925F927F928F929F92AF92BF92D1
:103B9000CF92DF92EF92FF920F931F93DF93CF9319
:103BA000CDB7DEB7A1970FB6F894DEBF0FBECDBF7D
:103BB0002C01742ECB01223008F42AE019A231E244
:103BC000C32ED12CCC0EDD1E822E9924AA24BB2418
:103BD000672D752FA50194010E94532079018A0158
:103BE000C801B701A50194010E940120472D461B81
:103BF0000894C108D1084A3014F4405D01C0495C02
:103C0000F6014083E114F1040105110521F07E2C39
:103C10005F2DC801DDCFC201B6010E94A51DA1968E
:103C20000FB6F894DEBF0FBECDBFCF91DF911F91CD
:103C30000F91FF90EF90DF90CF90BF90AF909F904B
:103C40008F907F905F904F900895DC012115310592
:103C500041F4ED91FC910190F081E02D642F0995E4
:103C600008950E94C11D0895EF92FF920F931F9334
:103C70009A017B0100E010E0B801A7010E94251E17
:103C80001F910F91FF90EF900895CF92DF92EF92E6
:103C9000FF920F931F93CF93DF93EC016A017B0197
:103CA0002115310541F4E881F9810190F081E02D81
:103CB000642F09951FC02A303105D1F477FF17C052
:103CC000E881F9810190F081E02D6DE209958C0188
:103CD00044275527BA014C195D096E097F09CE01A9
:103CE0002AE00E94C11D9801280F391F04C02AE054
:103CF0000E94C11D9C01C901DF91CF911F910F91BD
:103D0000FF90EF90DF90CF900895EF92FF920F9386
:103D10001F937B019A010027F7FC0095102FB80133
:103D2000A7010E94451E1F910F91FF90EF900895EB
:103D30000E94A51D08952F923F924F925F926F921D
:103D40007F928F929F92AF92BF92CF92DF92EF922B
:103D5000FF920F931F93DF93CF93CDB7DEB73B0155
:103D60004C0119012A016D897E898F89988D6A1904
:103D70007B098C099D09621A730A840A950AA401B9
:103D800093010E940120E218F30804091509A80113
:103D900097010E9475202A0D3B1D4C1D5D1DB90128
:103DA000CA01CF91DF911F910F91FF90EF90DF90AB
:103DB000CF90BF90AF909F908F907F906F905F90CB
:103DC0004F903F902F90089598D088F09F5790F093
:103DD000B92F9927B751A0F0D1F0660F771F881F30
:103DE000991F1AF0BA95C9F712C0B13081F09FD06F
:103DF000B1E008959CC0672F782F8827B85F39F00D
:103E0000B93FCCF3869577956795B395D9F73EF48E
:103E100090958095709561957F4F8F4F9F4F089536
:103E2000E89409C097FB3EF4909580957095619554
:103E30007F4F8F4F9F4F9923A9F0F92F96E9BB270A
:103E40009395F695879577956795B795F111F8CF86
:103E5000FAF4BB0F11F460FF1BC06F5F7F4F8F4FF1
:103E60009F4F16C0882311F096E911C0772321F0E7
:103E70009EE8872F762F05C0662371F096E8862F7F
:103E800070E060E02AF09A95660F771F881FDAF7D6
:103E9000880F9695879597F9089597F99F6780E819
:103EA00070E060E008959FEF80EC089500240A948C
:103EB0001616170618060906089500240A94121605
:103EC0001306140605060895092E0394000C11F438
:103ED000882352F0BB0F40F4BF2B11F460FF04C0E5
:103EE0006F5F7F4F8F4F9F4F089557FD9058440F3E
:103EF000551F59F05F3F71F04795880F97FB991F49
:103F000061F09F3F79F08795089512161306140605
:103F1000551FF2CF4695F1DF08C016161706180692
:103F2000991FF1CF86957105610508940895E8946D
:103F3000BB2766277727CB0197F908950BD0C4CF0D
:103F4000B5DF28F0BADF18F0952309F0A6CFABCF84
:103F50001124EECFCADFA0F3959FD1F3950F50E067
:103F6000551F629FF001729FBB27F00DB11D639F2B
:103F7000AA27F00DB11DAA1F649F6627B00DA11DD1
:103F8000661F829F2227B00DA11D621F739FB00D77
:103F9000A11D621F839FA00D611D221F749F3327E7
:103FA000A00D611D231F849F600D211D822F762F80
:103FB0006A2F11249F5750408AF0E1F088234AF07D
:103FC000EE0FFF1FBB1F661F771F881F91505040C9
:103FD000A9F79E3F510570F060CFAACF5F3FECF389
:103FE000983EDCF3869577956795B795F795E795B5
:103FF0009F5FC1F7FE2B880F911D9695879597F9C6
:104000000895629FD001739FF001829FE00DF11D22
:10401000649FE00DF11D929FF00D839FF00D749F42
:10402000F00D659FF00D9927729FB00DE11DF91FEE
:10403000639FB00DE11DF91FBD01CF01112408954B
:10404000991B79E004C0991F961708F0961B881FEA
:104050007A95C9F780950895AA1BBB1B51E107C04B
:10406000AA1FBB1FA617B70710F0A61BB70B881F08
:10407000991F5A95A9F780959095BC01CD01089597
:1040800097FB092E07260AD077FD04D0E5DF06D07E
:1040900000201AF4709561957F4F0895F6F790957A
:1040A00081959F4F0895A1E21A2EAA1BBB1BFD010B
:1040B0000DC0AA1FBB1FEE1FFF1FA217B307E40707
:1040C000F50720F0A21BB30BE40BF50B661F771F5F
:1040D000881F991F1A9469F760957095809590953F
:1040E0009B01AC01BD01CF01089597FB092E052668
:1040F0000ED057FD04D0D7DF0AD0001C38F45095FD
:104100004095309521953F4F4F4F5F4F0895F6F7FB
:1041100090958095709561957F4F8F4F9F4F089533
:10412000EE0FFF1F0590F491E02D0994F894FFCF56
:104130004D757369633A20546865204F74686572E1
:104140002044617973202D20436F64653A20526FBB
:10415000646F74005448414E4B530A0A0050524554
:104160005353201720544F2045584954004C4F4179
:0E41700044455200010100000000400F1C1DDC
:00000001FF
