:100000000C94F4080C941C090C941C090C941C0905
:100010000C941C090C941C090C941C090C941C09CC
:100020000C941C090C941C090C941C090C941A299E
:100030000C941C090C941C090C941C090C941C09AC
:100040000C9477290C941C090C941C090C941C0921
:100050000C941C090C941C090C941C090C941C098C
:100060000C941C090C941C0905A84CCDB2D44EB9B3
:100070003836A9020C50B9918688083CA6AAAA2A4B
:10008000BE000000803F2003002021002002001F4E
:10009000007072657373206320627574746F6E00F4
:1000A0002F00456E6E656D6965206B696C6C203A3A
:1000B00020004465617468203A2000536176652011
:1000C0003A20004024000B29D1DDD9D000FFFB915C
:1000D000111D149FFF000B11DDD5D490000000000E
:1000E000000001A0000000000000029000000000DD
:1000F0000000049000000000000004A000000000C8
:10010000000004A200040000000004940006000F98
:10011000FFFF84880007804002000488000C80E014
:100120003FC00484001481B0F1F004A30024815F77
:10013000F8980491000481B1FFCC0481000280E0B2
:100140001FFE0489000280400FFF04850006800026
:10015000030844A17C2480001FFF8491C8148010F0
:1001600000000481520D80080000048A54048FD0DE
:100170000000048758049020040004A24884A05082
:10018000080004924642B089900004824522A819D2
:10019000E000048B5514A429700004864D08A3CBFD
:1001A000180004A2452AA24A080004924549A24A1E
:1001B000086024835508A24A4820948A4D08A24E1C
:1001C0006C20CC86452AA24C0320BCA24549A249FA
:1001D00011F894935508A24900CC94824DFFFFFF7B
:1001E000FFFFFFFFFF080891421825A4184291085D
:1001F0000800002418182400001811000100000154
:10020000800001C00001E00001F0FFFFF8FFFFFCEB
:10021000FFFFFEFFFFFFFFFFFEFFFFFCFFFFF800F9
:1002200001F00001E00001C00001800001000805AC
:100230004000E040A0080540A04040A0180B8848BE
:100240008044910023E2001F3C00888C004CDA00BF
:100250002EB90013F08023E8004484008842001087
:10026000183FFC300EE006C003800180019E7972C9
:100270004E06600A50124812480A5007E002400237
:10028000400240024002401A5826644242466284BC
:1002900021180B89C88047FB003FFE003FFF00BFCD
:1002A000FF005FFE003FFD001FFC802FFC0047F4B5
:1002B0000089C20010183FFC3FFEFFFEFFFFFFFF5A
:1002C000FFFFFFFF73CE07E00FF01FF81FF80FF0DE
:1002D00007E003C003C003C003C003C01BD83FFC3A
:1002E0007FFE7FFEFFFF200A7FFFFC0000100080E2
:1002F00000FF01C003FFC3E007FFFFE00FFFE3E0E3
:100300001FFE01C03FFC0080843000007FFE000023
:10031000180BFFFF8000800003E0000FF8000FF8CB
:10032000000FF8000FF80007F00003E000041000D1
:100330000C1800200A07FFFFC020010000701FE01A
:1003400000F87FF800FFFFFC00F8FFFE00700FFFD1
:10035000002007FF8000018420000FFFC0200A7FDB
:10036000FFFC000010008000FF01C003E3C3600633
:1003700047FEA00CFFE3601FFE01C03FFC0080842D
:100380003000007FFE0000200A07FFFFC0200100B0
:1003900000701FE000D878F800AFFC4C00D8FFE6F2
:1003A00000700FFF002007FF8000018420000FFF76
:1003B000C0180BFFFF8000800003E0000E3800082B
:1003C00008000C98000EB80007F00003E0000410CD
:1003D000000C1800101803C005A01BD827E44FF22A
:1003E000DDBBB99DB7EDCBD373CE03C003C003C053
:1003F00003C003C003C383C243C66BD437EC21845C
:1004000073CE7DBEFC3F101800000000000000000D
:100410000000000000000000000003C00C301FF8C6
:100420001FF80E7007E0C3C343C267E63FFC33CC3E
:100430002184724E7C3EFDBF1018000000000000B9
:1004400000000000000000000000000000000000AC
:1004500000000000000000000000400266663FFC53
:100460002FF437EC7E7E7C3EFC3F18088018C0C01D
:100470000C60600630308F1818D90C0C70060630EE
:1004800003031801100A0000000002000D00128092
:100490002500ECE0FFF0AF7870E0100A200050007B
:1004A000A00040404440FC78FFF8AF7850A02040C6
:1004B000180A0800780420A8025158019AA80F2DA4
:1004C0005870F7F8400018DDFFF0662AA8441FF0C6
:1004D000180A07EFF8005AA801FD58010AA87F0D75
:1004E00058C0F7F87C001857FFF0282AA8101FF012
:1004F000180A0100806280405C40A088205048407B
:10050000282780F83C8318167FF02A2AA8115FF06C
:10051000180A000A8000054001FAA00109507F086E
:10052000A8C0F7F87C001857FFF0282AA8101FF081
:10053000180A0000001F00002100004F8580534B67
:10054000402132202084201FFFC00AAA8007FF001C
:10055000180A003C007FC2000082000F838012FD59
:10056000402102202000201FFFC00AAA8007FF00B0
:10057000100800000600097011D0231047F81A2C4B
:100580003FF81008010000C003F0FE1002100FF841
:100590001A2C0FF8302800000000000000000000B6
:1005A00000000000000000000000007000000000DB
:1005B000009800000000005400000000003200001D
:1005C000000001120000000308B200000005945270
:1005D0000000000963938000001120134000009187
:1005E0001015600000D10899100000F54991200015
:1005F00001992B21400002910825800004910829CF
:100600004200009548A12700005929A12A800051E5
:100610000B25328000D108292280049548212A80A8
:10062000029928A1328001B10999228000910B150D
:100630002280209548132A8030992813328028512F
:100640000895228024510995228022954B392A80D1
:10065000211928213280255108252280293108A915
:100660002280211549A12A8021192B213280255170
:100670000825228029310829228021110821228081
:10068000FFFFFFFFFFC03028000000000000000057
:100690000001800000000003400000600005200011
:1006A00000D0000910000148000908000248000DB0
:1006B0004400025000096400025100093400024A5B
:1006C000000904000244000D4400024400096400D3
:1006D0000242000934000251800904000248800DE2
:1006E0004400024080096400024480093400024250
:1006F000800904000250BE0D04000248E4092400F1
:100700000240A909150002452A0D4F000243AC1F03
:100710002D0002512425110002492344A100024169
:1007200022A461000245AA944100024326844100AC
:10073000025122844100024922A551001241AA9788
:1007400059004A4526844D006643228441005E518B
:1007500022A441004A49AA9551004A4126875900DE
:100760004A4522844D004A4322B441004A4122B402
:100770004100FFFFFFFFFFC0302800000003000022
:100780000000000580000600000940000B00031176
:100790002000128005A12000224009416000424053
:1007A0000923800042C0091A00004B800512000096
:1007B00052000553C00042006531600042005515EB
:1007C00020004B805919200052C045512000424062
:1007D000493130004240511128004AC0411564009F
:1007E000524045592200425869312100426451115A
:1007F00029004AC6911125005241155563004259FE
:10080000193921004241111129004AC11111250055
:10081000524555512300424D793561004259111915
:1008200029004AC1111125005241155123004245AA
:1008300059312100424D711569004AD9111925001D
:10084000524115512300424119312100425D511599
:100850006100425D711923005A5D155123005A5DF4
:1008600015512300FFFFFFFFFFC0302800000000EC
:100870000000000000000000000000000000000078
:1008800000018000000C0002C00000140004A00061
:100890000E14000890000B24001090000BE40022BE
:1008A0009000082400449C0008AC0040960009A475
:1008B000004895000B24007894800824000A968054
:1008C00008AC0004958009A4000294800B24C002A7
:1008D00094800825601E968008AE5032958009A449
:1008E000582494800AE85C2094800CB15268968069
:1008F000089256B09580108859A2948022A850A4DE
:10090000948026B9512096802C8A5568958020883D
:100910005930948020885122948022A951249680B5
:1009200026BA556095802C885928948020885130AB
:10093000948020895122968022AA5564958026B8F9
:10094000592094802C8851289480208B5130948099
:10095000208B51209480FFFFFFFFFFC03028003024
:100960000000000000680000000000A40000180063
:100970000122300034000121680052000120A4004F
:10098000910005A9220090800F2621009080152259
:100990002080D4802522A8809280252324809080E6
:1009A00025AA2280908025262080D4803522A88008
:1009B0009280252324809080252222B0908025AA31
:1009C00020E8D4803526A8A4928025232522908073
:1009D000252222219080252222A8D48035AAABACE2
:1009E000928025272626908025222220908025226D
:1009F0002220D4803522AAA8928025AB27AC9080F3
:100A000025262226908025222220D4803522AA2045
:100A10009280252326A8908025AA23AC90802526A5
:100A20002226D4803522AA20928025232620908059
:100A300025AA22AE9080352623AE90803522AA2E9C
:100A400096803522AA2E9680FFFFFFFFFFC0302838
:100A50000000000000000000000180000000000312
:100A6000400000600005200000D00009100001488F
:100A7000000908000244000D44000242000964001D
:100A80000251000934000E48800904001A40800D0C
:100A900044002A44800964004A42800934005A50C4
:100AA000800904006A48800D44004A4080096400BF
:100AB0004A4480C934005A4281A904006A50B29D58
:100AC00044004A48EC8964004A40A485D4005A4551
:100AD00022A34C006A43AA9244004A512684420051
:100AE0004A49228551005A4122A759006A45AA94D1
:100AF0004D004A43268441004A51228441005A490C
:100B000022A551006A41AA9759004A4526844D0002
:100B10004A43228441005A5122A441006A49AA95BD
:100B200051004A41268759004A4522844D004A43D4
:100B300022B441004A4122B44100FFFFFFFFFFC041
:100B4000302800000000000000600000000000B03D
:100B50000000000001280001800002240002C00003
:100B600004240004A00008AC0008900009A40010B0
:100B700090000B2400229000082400449C0008AC44
:100B80000040960009A4004895000B240050948072
:100B900008240042968008AC0044958009A40040D7
:100BA00094800B24C048948008256050968008AE3D
:100BB0005342958009A44DC494800AE8494094802A
:100BC0000CB1512896800892557095801088592252
:100BD000948022A85124948026B9512096802C8A92
:100BE00055689580208859309480208851229480BF
:100BF00022A95124968026BA556095802C885928C0
:100C0000948020885130948020895122968022AA95
:100C10005564958026B8592094802C88512894805A
:100C2000208B51309480208B51209480FFFFFFFF58
:100C3000FFC0302800000003000000000005800015
:100C40000600000940000B0003112000128005A1DE
:100C50002000224009412000424011256800424006
:100C600021193C004AC041112A0052404551290037
:100C70004240493129004240511569004AC041199A
:100C80002900524045512B0042404931290042433E
:100C9000511129004AC5C1156900524945592B0017
:100CA0004251293129004261111129004AC55111CF
:100CB0002900524D75556B0042591939290042419E
:100CC000111129004AC111112900524555512B001B
:100CD000424D793569004259111929004AC1111153
:100CE0002900524115512B00424559312900424DEE
:100CF000711569004AD911192900524115512B006B
:100D0000424119312900425D51156900425D711956
:100D10002B005A5D15512B005A5D15512B00FFFF1A
:100D2000FFFFFFC0030307050705040505040503CE
:100D300006030207020201020203020E090E0E0D53
:100D40000E0E0F0E070507050307050F050705071C
:100D5000060701020502000702020700020702005F
:100D60000207020007060306070702020505020143
:100D70000202040200050202050006070505070538
:100D8000020302020602000000000B00030003073A
:100D90000507040701050205070704000300000713
:100DA00005050700050005020702000C000202020B
:100DB00000040004020107050705070401070405F4
:100DC00007020302070407010706060101070707D8
:100DD00007030307000500000D00020500050505D7
:100DE0000005020107030F090306030607070202B5
:100DF00005050707020707050703010705060702A0
:100E00000705070504040307020507040407030791
:100E10000701060705070703030705030703060481
:100E2000070101070107040703040307060705027A
:100E3000050106010107040007050102040507007A
:100E40000201020808080003000603060707020261
:100E50000505070502070705070301070506070241
:100E60000705070504040307020507040407030731
:100E70000701060705070703030705030703060421
:100E8000070101070107040703040307060705021A
:100E90000501060101070402070500070005070216
:100EA00006020307050703053F213F1208120A1037
:100EB0000A0E1C0E0C1E0C141A14161F161E131EDE
:100EC0001E1B1E1E1F1E3F213F3A2F3A173D173F84
:100ED000213F181F02040A041F0E04040E1F0A1FDC
:100EE0000A0E0E1F04110E2E252E2F2A2E2629291A
:100EF000021F02081F08150E04040E150E15151BFF
:100F0000151B040604040C04000000001700030075
:100F1000031F0A1F16371A1904130A153A00030093
:100F2000000E11110E000A040A040E040030000421
:100F300004040010001804031F111F121F101D15B8
:100F40001711151F07041F17151D1F151D01011F60
:100F50001F151F17151F000A00003200040A110A8E
:100F60000A0A110A040115020E11171E051E1F158B
:100F70000A0E110A1F110E1F15111F05010E111D5A
:100F80001F041F111F1108100F1F041B1F10101F1B
:100F9000061F1E040F0E110E1F09060E112E1F052F
:100FA0001A121509011F011F101F0F180F1F0C1F08
:100FB0001B041B031C03191513001F110304181134
:100FC0001F000201022020200001020C121E1F122D
:100FD0000C0C12120C121F0C1A14041E05242A1ECB
:100FE0001F021C141D1020201D1F0814111F101E8D
:100FF000041E1E021C0C120C3E0A040C123E1E049F
:101000000214160A020F120E101E0E100E1E081EDB
:10101000120C1226281E322A26041E21001F00212F
:101020001E040102013F213F0A4E6F2053442063FA
:10103000617264206F720A6E6F204C4F41444552BA
:101040002E4845580A0A153A45786974001D20460D
:101050006C617368696E670A20206C6F61646572E9
:101060002E2E2E0A0A444F4E2754205455524E20FD
:101070004F464621000A0A153A49676E6F726500AD
:101080006D560A0A504C45415345205455524E2046
:101090004F464620004C4F57204241545445525928
:1010A000212000175344001613780016131400155E
:1010B0001020001520100000540A03E181867F3EB5
:1010C000186D830F0F0E0183866033186DC3198F5F
:1010D0001803C38E6033186DE330CF1803C39E60CE
:1010E0003630CDE360CF3006C79E7E3E30CDB36054
:1010F000CF300CC6F6603330D9B660CF33CFCCF6E4
:101100006061B0DB1E60CF30D86CE6C061B0DB1E22
:10111000618F19986CC6C063B19B0E330F0FB07806
:10112000C6FF7E1F1B061E0F05008930080238020D
:10113000497868140000F6E8DBCFC3B8AEA49B92F0
:101140008A827B746E68625C57524E4945413E3AD2
:101150003734312E2C29272523211F1D1C1A19173E
:10116000161514131211100F0E0D0C0B0A09080797
:10117000064500680100000500380168010000878D
:101180001183110101FF030101F7030000000800B2
:10119000020100000304070000000000000000013D
:1011A00002040810204080010204081020010204FB
:1011B00008102004040404040404040202020202CD
:1011C0000203030303030300000000230026002999
:1011D0000000000000250028002B00000000002473
:1011E0000027002A0000BA1A11241FBECFEFD8E052
:1011F000DEBFCDBF12E0A0E0B1E0E4E1F3E602C063
:1012000005900D92A23EB107D9F727E0A2EEB2E019
:1012100001C01D92A934B207E1F711E1C8EED1E196
:1012200004C02297FE010E941031C63ED107C9F7C3
:101230000E94912B0C9488310C940000DC016435E1
:1012400008F053C0403308F050C090968C919097AE
:10125000342F359535953595E62FFF27E7FDF09529
:10126000242F2770823099F4DF01A65CBA4F84E501
:101270003802A00DB11D11248C9190E0022E02C005
:10128000959587950A94E2F78095817009C083301F
:1012900039F446271C968C91482740FF03C014C0A0
:1012A000811112C084E53802E00DF11D1124E65CC5
:1012B000FA4F81E090E0022E01C0880F0A94EAF70D
:1012C00080959081982310C084E53802E00DF11DCF
:1012D0001124E65CFA4F81E090E0022E01C0880FF5
:1012E0000A94EAF79081982B908308951F93CF93E7
:1012F000DF931092CA04E4E2F1E09FE02FE739E1C6
:1013000043E255E0DF011A978C91843371F028F4A1
:10131000823349F0833349F00CC0853341F0863382
:1013200041F4408307C0508305C0908303C03083DD
:1013300001C020833D9682E0E73BF80719F782E081
:101340008093AD028AE08093E40280E090E0AAE717
:10135000B4E48093F1029093F202A093F302B0936D
:10136000F4021092CA031092C90380E090E0A0E456
:10137000B0E48093010390930203A0930303B0931E
:1013800004038AE28093E602CBECD3E013E01883F7
:101390002CE13CE040E050E06CE474E080E090E060
:1013A0000E94302D7A8369832CE230E040E050E0E7
:1013B00067E270E080E090E00E94302D7E836D83D4
:1013C00089819A819C838B83279684E0C23BD807CE
:1013D000F1F6EBE0F3E01082739683E0E93CF80766
:1013E000D1F7DF91CF911F910895AF92BF92CF9225
:1013F000DF92EF92FF920F931F93CF93DF9363E0FF
:1014000080E095E00E948A1C00E010E0C0E0D0E09F
:101410003AE2C32ED12C48E0E42EF12C6091F10287
:101420007091F2028091F3029091F4020E94682E72
:10143000CB01B6010E94AE305C01CB01B7010E9426
:10144000AE308C0F9D1FB7010E94AE309927880FD8
:10145000991F865F9E4FFC0120813181B8016A1976
:101460007B0940E080E095E00E94401F2196065DE8
:101470001F4FC330D10591F661E080E095E00E94F6
:101480008A1C24E547E260E080E095E0DF91CF919F
:101490001F910F91FF90EF90DF90CF90BF90AF9092
:1014A0000C94B51C0F931F93CF93DF93162F98E0E6
:1014B000899FE0011124C654DD4F062F20E04E81A4
:1014C00060E087ED94E00E94082720E0488161E019
:1014D00087ED94E00E9408272C8121954D8162E0E0
:1014E00087ED94E00E9408272A812A534B8163E00C
:1014F00087ED94E00E940827212F4F81698187EDB5
:1015000094E0DF91CF911F910F910C9439272F9286
:101510003F924F925F926F927F928F929F92AF9283
:10152000BF92CF92DF92EF92FF920F931F93CF93D0
:10153000DF9300D000D0CDB7DEB70AE111E026E29C
:1015400031E03A83298354E2252E51E0352ED8012B
:101550008C9181119CC02DEC3CEC4CE45EE36091DD
:10156000E9027091EA028091EB029091EC020E94F4
:10157000F92D87FF54C220E030E040E252E4609150
:10158000F5027091F6028091F7029091F8020E94A4
:10159000842F18160CF043C26091E602772767FD8E
:1015A0007095872F972F0E949B2E2091F1023091EA
:1015B000F2024091F3025091F4020E94952D6B01CA
:1015C0007C01F80161817281645F7F4F80E090E06F
:1015D0000E94992E9B01AC01C701B6010E94942D77
:1015E0006B017C0120E030E0A9010E94842F1816D5
:1015F0005CF420E030E040EA51E4C701B6010E940B
:10160000F92D87FF0CC20BC020E030E040EA51EC1E
:10161000C701B6010E94842F18160CF000C2F0908A
:10162000E5021F140CF0FBC16091230570912405A5
:10163000809125059091260524E130E040E050E0BE
:101640000E94C230672B682B692B09F0E8C1EBECD4
:10165000F3E080E090E02081223099F427E0289F99
:10166000F001299FF00D1124E553FC4F31E0308348
:10167000FA94F092E5028091CA038F5F8093CA03C7
:10168000CEC1019637968132910529F7C8C18233C0
:1016900008F4C5C1D1018C9118160CF0C0C180901E
:1016A000F1029090F202A090F302B090F4026091E7
:1016B000E602772767FD7095872F972F0E949B2E54
:1016C0009B01AC01C501B4010E94952D2B013C0189
:1016D000F801E180F280B70180E090E00E94992E4D
:1016E0009B01AC01C301B2010E94942D2B013C016E
:1016F00020E030E0A9010E94842F18165CF420E05D
:1017000030E040EB52E4C301B2010E94F92D87FFA3
:1017100086C10BC020E030E040EB52ECC301B201C7
:101720000E94842F18160CF07AC1D8011396CD9020
:10173000DC901497B1E3CB16D104D0F0609123056F
:1017400070912405809125059091260525E030E0D3
:1017500040E050E00E94C230672B682B692B41F4B7
:10176000E1E0CE1AD108D8011496DC92CE921397FC
:1017700080910703882369F1C0900903D0900A0380
:10178000B70180E090E00E94992EA50194010E948B
:10179000942D0E946D2E70E06C157D054CF4625FF7
:1017A0007F4F6C157D0524F0F1018081815080838D
:1017B000D1018C9118166CF060E080E00E94520A12
:1017C0001092AE02F801818192819093B1028093D0
:1017D000B002D8018C91823309F06FC06091E602AB
:1017E000772767FD7095872F972F0E949B2E20915A
:1017F000F1023091F2024091F3025091F4020E9402
:10180000952D4B015C01F8010180F281E02DFC83F4
:10181000EB83BF0180E090E00E94992E2B013C01F8
:101820009B01AC01C501B4010E94942D6B017C01A8
:1018300020E030E0A9010E94842F18165CF420E01B
:1018400030E040E751E4C701B6010E94842F18162A
:101850005CF033C020E030E040E751ECC701B60156
:101860000E94F92D87FF29C06091230570912405FE
:10187000809125059091260523E030E040E050E07E
:101880000E94C230672B682B692BB9F4A301920127
:10189000C501B4010E94842F18164CF48B819C81E1
:1018A0000196D80112969C938E93119706C08B8156
:1018B0009C810197F80192838183D80113968D91C1
:1018C0009C911497C49708F0AAC0E981FA813197D6
:1018D0002081332727FD3095432F532F6091230517
:1018E0007091240580912505909126050E94C230B3
:1018F000672B682B692B09F092C0EBE0F3E0C12C59
:10190000D12C8081811182C028EC30E040E050E091
:1019100060E070E0CB010E94302D0E949B2E905819
:1019200020E030E048EC52E40E94002EB3E1BC9D80
:101930007001BD9DF00C1124F701E55FFC4F7F01A4
:101940006787708B818B928B20E030E040E050E421
:101950000E94952DF701638774878587968720916C
:10196000230520FD07C0DC01CB01B0588387948795
:10197000A587B687F3E1FC9D7001FD9DF00C112455
:101980009701255F3C4F7901D80111968D919C916B
:1019900012970A96BC0180E090E00E94992EF70110
:1019A0006383748385839683F1013597808120E377
:1019B00030E0281B3109B901882777FD8095982FE1
:1019C0000E949B2ED70117966D937D938D939C93C8
:1019D0001A97F80180818553823030F4F8E7FC9340
:1019E00021E012962C9305C0ECE3D701EC931296FC
:1019F0001C9223E12C9DF0012D9DF00D1124E55F3B
:101A0000FC4FA981BA818C91818309C0BFEFCB1AA9
:101A1000DB0A73962AE0C216D10409F072CF035F85
:101A20001F4F89819A810D969A8389839DE0290EA3
:101A3000311CA2E00D3A1A0709F089CD0F900F90E2
:101A40000F900F90DF91CF911F910F91FF90EF902A
:101A5000DF90CF90BF90AF909F908F907F906F90CE
:101A60005F904F903F902F9008950F931F93CF93C7
:101A7000DF93CBE1D1E004E211E06881798180E07D
:101A800090E00E94992E2091F1023091F202409153
:101A9000F3025091F4020E94942D0E94682E9B0143
:101AA000205B3F4F293A310590F4F801208112164E
:101AB0001CF42D813E8102C02F8138854A81F801B6
:101AC00035975081451B80E095E00E94401F2D9680
:101AD000035F1F4FF2E0CE3ADF0779F6DF91CF9137
:101AE0001F910F910895CF93C091AE02C330B0F40F
:101AF0002091AF0230E040E050E06091230570910A
:101B0000240580912505909126050E94C230672BFF
:101B1000682B692B19F4CF5FC093AE02CF91089563
:101B2000CF93DF93D091AE02D330F0F56091B00245
:101B30007091B10280E090E00E94992E2091F10214
:101B40003091F2024091F3025091F4020E94942DE0
:101B50000E94682EC62FD11109C02091B202309187
:101B6000B30248E180E095E00E94401F8091AE0200
:101B7000813051F42091B4023091B50248E16C2FCC
:101B800080E095E00E94401F8091AE02823061F4B7
:101B90002091B6023091B70248E16C2F80E095E0C9
:101BA000DF91CF910C94401FDF91CF9108958F92D8
:101BB0009F92AF92BF92CF92DF92EF92FF920F93DC
:101BC0001F93CF93DF938091E20218161CF481508B
:101BD0008093E2028091E40218160CF0BDC162E02D
:101BE0008CEB94E00E94ED1B882301F18091E202CE
:101BF0001816CCF420E030E040EC5FE36091010384
:101C00007091020380910303909104030E94952D2B
:101C10006093010370930203809303039093040382
:101C20001092E20203C08AE08093E20260E08CEB53
:101C300094E00E94ED1B882301F18091E2021816C6
:101C4000CCF420E030E040EC5FE360910103709160
:101C5000020380910303909104030E94942D6093EA
:101C60000103709302038093030390930403109283
:101C7000E20203C08AE08093E20241E062E08CEB82
:101C800094E00E94F61B882309F478C02DEC3CEC0C
:101C90004CE45DE36091FD027091FE028091FF02D1
:101CA000909100030E94952D8B01D82FC92F2AE90E
:101CB00039E949E15FE30E94F92D87FD04C00AE993
:101CC00019E9D9E1CFE3A8016D2F7C2F4093FD02E4
:101CD0005093FE026093FF02709300032CEE31E5F7
:101CE00048E35EE36091E9027091EA028091EB02C1
:101CF0009091EC020E94952D8B01D82FC92F20E0E6
:101D000030E040E850E40E94F92D87FD04C000E077
:101D100010E0D0E8C0E4A8016D2F7C2F4093E902C9
:101D20005093EA026093EB027093EC022DEC3CECD2
:101D30004CE45DE36091ED027091EE028091EF0260
:101D40009091F0020E94942D8B01D82FC92F20E092
:101D500030E040E850EC0E94842F181624F000E098
:101D600010E0D0E8C0ECA8016D2F7C2F4093ED026D
:101D70005093EE026093EF027093F00241E060E056
:101D80008CEB94E00E94F61B882309F478C02DECBC
:101D90003CEC4CE45DE36091FD027091FE028091A9
:101DA000FF02909100030E94942D8B01D82FC92F20
:101DB0002AE939E949E15FEB0E94842F181624F0E3
:101DC0000AE919E9D9E1CFEBA8016D2F7C2F4093E7
:101DD000FD025093FE026093FF02709300032CEE0D
:101DE00031E548E35EE36091E9027091EA02809197
:101DF000EB029091EC020E94942D8B01D82FC92FF9
:101E000020E030E040E850EC0E94842F181624F0C7
:101E100000E010E0D0E8C0ECA8016D2F7C2F4093CB
:101E2000E9025093EA026093EB027093EC022DEC0E
:101E30003CEC4CE45DE36091ED027091EE02809128
:101E4000EF029091F0020E94942D8B01D82FC92FA0
:101E500020E030E040E850EC0E94842F181624F077
:101E600000E010E0D0E8C0ECA8016D2F7C2F40937B
:101E7000ED025093EE026093EF027093F00241E0A6
:101E800061E08CEB94E00E94F61B882341F12AE983
:101E900039E949E15EE36091ED027091EE028091D3
:101EA000EF029091F0020E94942D8B01D82FC92F40
:101EB00020E030E040E850EC0E94842F181624F017
:101EC00000E010E0D0E8C0ECA8016D2F7C2F40931B
:101ED000ED025093EE026093EF027093F00241E046
:101EE00063E08CEB94E00E94F61B882341F12DEC1B
:101EF0003CEC4CE45EE36091ED027091EE02809167
:101F0000EF029091F0020E94952D8B01D82FC92FDE
:101F100020E030E040E850E40E94F92D87FD04C045
:101F200000E010E0D0E8C0E4A8016D2F7C2F4093C2
:101F3000ED025093EE026093EF027093F0028091F5
:101F400008038111CCC041E064E08CEB94E00E9476
:101F5000F61B8111D3C2C3C0109207038091E30224
:101F6000811103C080E58093E3028091E3028150F8
:101F70008093E302811110C08091AD028150809363
:101F8000AD021092FD021092FE021092FF0210921A
:101F900000038AE08093E4029091E50219169CF018
:101FA0008090F5029090F602A090F702B090F802AF
:101FB00020E030E048E252E4C501B4010E94F92D6E
:101FC00087FD15C0B0C28091C903EBECF3E020811E
:101FD000223019F410828F5F9150379624E0E23B53
:101FE000F207A9F79093E5028093C903D9CF2DECAE
:101FF0003CEC4CE45EE36091FD027091FE02809146
:10200000FF02909100030E94952D6093FD02709352
:10201000FE028093FF02909300032AE939E949E91F
:102020005EE36091ED027091EE028091EF0290917B
:10203000F0020E94952D8B01D82FC92F20E030E0AF
:1020400040E850E40E94F92D87FD04C000E010E054
:10205000D0E8C0E4A8016D2F7C2F4093ED0250938F
:10206000EE026093EF027093F0022FE832EC45E746
:102070005FE36091E9027091EA028091EB02909136
:10208000EC020E94882F9B01AC016093E9027093DF
:10209000EA028093EB029093EC026091F10270915E
:1020A000F2028091F3029091F4020E94952D6093C8
:1020B000F1027093F2028093F3029093F40298017C
:1020C0004D2F5C2FC501B4010E94952D6093F50240
:1020D0007093F6028093F7029093F80224C2109254
:1020E0000703C091E7021C16DCF42091080330E0DE
:1020F0002F5F3F4F442737FD4095542F60912305B4
:102100007091240580912505909126050E94C2308A
:10211000672B682B692B41F4C150C093E70204C0C0
:10212000C11102C0109208038091E80281111AC007
:10213000C091E402CA30DCF460912305709124055B
:10214000809125059091260523E030E040E050E0A5
:102150000E94C230672B682B692B49F4CF5FC09374
:10216000E40205C018161CF481508093E80265E073
:102170008CEB94E00E94ED1B8090E9029090EA02C3
:10218000A090EB02B090EC0220E030E040E05FE392
:10219000C501B4010E94842F181684F420E030E0B9
:1021A00040E450E4609101037091020380910303C5
:1021B000909104030E94F92D87FD12C0C090010385
:1021C000D0900203E0900303F09004032DEC3CEC6C
:1021D0004CEC5DEBC701B6010E94F92D87FF0FC0E3
:1021E0002DEC3CEC4CE45DE3609101037091020343
:1021F00080910303909104030E94952D25C020E057
:1022000030E040E05FEBC501B4010E94F92D87FF8B
:1022100009C020E030E0A901C701B6010E94842F67
:10222000181654F026E636E646E450E4C701B60137
:102230000E94842F181684F42DEC3CEC4CE45DE3F2
:10224000C701B6010E94942D6093010370930203AD
:102250008093030390930403C0900103D090020382
:10226000E0900303F090040320E030E040E05FE3FF
:10227000C701B6010E94F92DC091E60287FF03C095
:10228000C134ECF523C020E030E040E250E4C70167
:10229000B6010E94842F18161CF4C53184F102C0C7
:1022A000CB3294F0C150C093E60220E030E040E829
:1022B0005FE36091F1027091F2028091F3029091DC
:1022C000F4020E94952D13C0CA32C9F0CF5FC093AB
:1022D000E60220E030E040E85FE36091F1027091B7
:1022E000F2028091F3029091F4020E94942D609387
:1022F000F1027093F2028093F3029093F40226E6C7
:1023000036E646E65FE36091FD027091FE02809141
:10231000FF02909100030E94882F6093FD0270934A
:10232000FE028093FF029093000323E333E343E72D
:102330005FE3C501B4010E94882F4B015C016093EB
:10234000E9027093EA028093EB029093EC022DEC89
:102350003CEC4CE45DE36091ED027091EE02809103
:10236000EF029091F0020E94952D8B01D82FC92F7A
:1023700020E030E040E850E40E94F92D87FD04C0E1
:1023800000E010E0D0E8C0E4C801AD2FBC2F80937E
:10239000ED029093EE02A093EF02B093F002A5013C
:1023A00094016091F1027091F2028091F302909198
:1023B000F4020E94952D6093F1027093F2028093D3
:1023C000F3029093F4022091F5023091F6024091CD
:1023D000F7025091F802B8018D2F9C2F0E94952D85
:1023E0004B015C0120E030E048E252E40E94842F7F
:1023F00018164CF08092F5029092F602A092F70225
:10240000B092F80256C020E030E0A901B8018D2F4B
:102410009C2F0E94842F181664F420E030E040E0E6
:102420005FE3B8018D2F9C2F0E94842F181664F053
:102430002CC020E030E040E05FEBB8018D2F9C2FF6
:102440000E94F92D87FF21C098014D2F5C2FC501F7
:10245000B4010E94942D6093F5027093F60280936C
:10246000F7029093F8022DEC3CEC4CE45EEBB801E3
:102470008D2F9C2F0E94882F6093ED027093EE02A7
:102480008093EF029093F00214C080E090E0A8E205
:10249000B2E48093F5029093F602A093F702B09312
:1024A000F8021092ED021092EE021092EF021092DA
:1024B000F00220E030E040E251E46091F5027091DA
:1024C000F6028091F7029091F8020E94F92D87FFA1
:1024D0002AC080E090E0A0E2B1E48093F5029093FE
:1024E000F602A093F702B093F8021092ED02109258
:1024F000EE021092EF021092F00215C060E081E04F
:102500000E94520A91E0909307038091E7028F5F47
:102510008093E7028A320CF407CE89E28093E702C7
:102520009093080301CEDF91CF911F910F91FF90FF
:10253000EF90DF90CF90BF90AF909F908F900895D5
:102540008F929F92AF92BF92CF92DF92EF92FF92C3
:102550000F931F93CF93DF931F92CDB7DEB74B013D
:102560005C01042F80910703882309F4DDC02091CA
:10257000F5023091F6024091F7025091F80260E0C6
:1025800070E080E492E40E94942D0E94682E8827D7
:1025900077FD8095982F0E949B2E6B017C01C501D1
:1025A000B4010E94FD2D9B01AC01C701B6010E9440
:1025B000002E0E94682E882777FD8095982F0E9414
:1025C0009B2E9B01AC010E94882F4B015C01A7014F
:1025D0009601C701B6010E94882F9B01AC01C5017D
:1025E000B4010E94942D0E94F52F4B015C01609173
:1025F000E602772767FD7095872F972F0E949B2E05
:102600006B017C01602F772767FD7095872F972FCF
:102610000E949B2E9B01AC01C501B4010E94882F32
:102620009B01AC01C701B6010E94952D0E94682E46
:10263000B62E6093090370930A03E12CF12C6EEF20
:10264000D62EDB0C1EE226E030E040E050E061E0F8
:1026500070E080E090E00E94302D8E2D880F8D0D6F
:10266000012F061B282F4EE2682F80E095E00E9484
:10267000291D8FEFE81AF80AE3E0EE16F10419F7C6
:10268000C0900103D0900203E0900303F090040394
:1026900020E030E040E05FE3C701B6010E94F92D81
:1026A00087FD0CC020E030E040E250E4C701B601F5
:1026B0000E94842F181624F402E003C006EF01C024
:1026C0000BEF609123057091240580912505909171
:1026D000260523E030E040E050E00E94C230672B46
:1026E000682B692B09F523E030E040E050E060E022
:1026F00070E0CB010E94302D2FEF2B0D260F609143
:10270000F5027091F6028091F7029091F802298308
:102710000E94682E462F6091E602600F0EE229812A
:1027200080E095E00E94291D0F90DF91CF911F91CD
:102730000F91FF90EF90DF90CF90BF90AF909F9060
:102740008F9008952F923F924F925F926F927F9257
:102750008F929F92AF92BF92CF92DF92EF92FF92B1
:102760000F931F93CF93DF93CDB7DEB76B970FB661
:10277000F894DEBF0FBECDBF888B698B470158012F
:10278000FA01F491FB8F8F2FFA013196949199837E
:10279000FB8C87FDF394F594E980E7FCE394E594E2
:1027A000DA011296BB87AA87F9013296FD87EC877A
:1027B000C501B4010E94FD2D6A837B838C839D83B8
:1027C000C501B4010E94EB2F6E837F8388879987B0
:1027D000FB8D2F2F332727FD3095C901079697FDD5
:1027E00007969C0173E0359527957A95E1F73F8729
:1027F0002E8700E010E0212C312C4F2D552747FD6E
:1028000050955F8B4E8B8E2D992787FD9095998FD4
:10281000888FB9812B160CF0ACC01A8EC101E88DDF
:10282000F98D8E1B9F0B9C01442737FD4095542F3B
:102830002A8B3B8B4C8B5D8B4A8D5B8D45170CF047
:1028400090C08A8D87FD895F8595859585959801CE
:10285000280F311D87FD3A95EC85FD85E20FF31FAA
:10286000E4918A8D877887FF03C08150886F8F5FDE
:10287000A0E8B0E002C0B595A7958A95E2F7F0E030
:10288000EA23FB23EF2B09F468C0EA85FB85E20FFE
:10289000F31F249130E02A233B23232B11F061E026
:1028A00001C060E080E095E00E948A1CBA8D6B2F29
:1028B000772767FD7095EE89FF896E1B7F0B882750
:1028C00077FD8095982F0E949B2E4B015C016A89B1
:1028D0007B898C899D890E949B2E6B017C012E81B6
:1028E0003F8148855985C501B4010E94882F2B017D
:1028F0003C012A813B814C815D81C701B6010E9468
:10290000882F9B01AC01C301B2010E94952D0E944A
:10291000682E762EF9897F0E2A813B814C815D815C
:10292000C501B4010E94882F4B015C012E813F81BB
:1029300048855985C701B6010E94882F9B01AC01CB
:10294000C501B4010E94942D0E94682E2889620F4F
:10295000472D80E095E00E941E093A8D3F5F3A8F37
:102960006BCF8FEF281A380AAE85BF850A0F1B1F61
:1029700050CF61E080E095E06B960FB6F894DEBF33
:102980000FBECDBFDF91CF911F910F91FF90EF90C0
:10299000DF90CF90BF90AF909F908F907F906F907F
:1029A0005F904F903F902F900C948A1C8F929F9233
:1029B000AF92BF92CF92DF92EF92FF920F931F934D
:1029C0008091E40218160CF090C080900103909062
:1029D0000203A0900303B090040320E030E040E045
:1029E0005FE3C501B4010E94F92DC090FD02D090B3
:1029F000FE02E090FF02F090000387FF24C0609188
:102A0000F5027091F6028091F7029091F8020E940F
:102A1000682E8701760126EE32E04DE553E0809185
:102A2000E6020E94A21326E636E646E65FE36091E0
:102A3000FD027091FE028091FF02909100030E94BE
:102A4000952D4FEF46C020E030E040E250E4C50154
:102A5000B4010E94842F181624F56091F50270913C
:102A6000F6028091F7029091F8020E94682E870189
:102A7000760123E333E047E853E08091E6020E94C9
:102A8000A2132091FD023091FE024091FF0250916D
:102A9000000366E676E686E69FE30E94942D41E019
:102AA00018C06091F5027091F6028091F702909142
:102AB000F8020E94682E8701760120E133E041EBA5
:102AC00053E08091E6020E94A21341E060E070E0D2
:102AD000CB011F910F91FF90EF90DF90CF90BF90AF
:102AE000AF909F908F900C94A012C090F502D09060
:102AF000F602E090F702F090F80220E030E048E2C1
:102B000052E4C701B6010E94F92D87FF13C08090DF
:102B1000FD029090FE02A090FF02B0900003C7015A
:102B2000B6010E94682E8501740121E932E04CE370
:102B300052E008C0E12CF12C870124EB32E04FE594
:102B400052E062E28091E6020E94A2131F910F916F
:102B5000FF90EF90DF90CF90BF90AF909F908F90BD
:102B600008954F925F926F927F928F929F92AF9251
:102B7000BF92CF92DF92EF92FF92CF93DF93CBEC95
:102B8000D3E0888183300CF483C069817A818827FF
:102B900077FD8095982F0E949B2E6B017C01809081
:102BA000F1029090F202A090F302B090F402A5011D
:102BB00094010E94942D2B013C0120E030E0A901FA
:102BC0000E94842F18165CF420E030E048EC52E4B8
:102BD000C301B2010E94F92D87FF5AC00BC020E04B
:102BE00030E048EC52ECC301B2010E94842F181669
:102BF0000CF04EC06091230570912405809125054D
:102C00009091260526E030E040E050E00E94C2307E
:102C10002091E6026330710581059105D0F0622FA5
:102C2000772767FD7095872F972F0E949B2E9B011A
:102C3000AC01C501B4010E94942D9B01AC01C701F8
:102C4000B6010E94942D0E94682E25E332E04D814A
:102C50001BC07D807A94622F772767FD7095872F40
:102C6000972F0E949B2E9B01AC01C501B4010E94CD
:102C7000942D9B01AC01C701B6010E94942D0E94C6
:102C8000682E2EE232E0472D80E095E00E94401F42
:102C9000279684E0C23BD80709F073CFDF91CF912C
:102CA000FF90EF90DF90CF90BF90AF909F908F906C
:102CB0007F906F905F904F9008958F929F92AF9208
:102CC000BF92CF92DF92EF92FF920F931F93CF9319
:102CD000DF93CBECD3E0888183300CF414C1809077
:102CE000F1029090F202A090F302B090F402698198
:102CF0007A81882777FD8095982F0E949B2E6B0103
:102D00007C016091E602772767FD7095872F972FEA
:102D10000E949B2E9B01AC01C501B4010E94942D21
:102D20009B01AC01C701B6010E94942D6B017C018F
:102D300020E030E0A9010E94842F18165CF420E006
:102D400030E048EC52E4C701B6010E94F92D87FF3C
:102D5000DAC00BC020E030E048EC52ECC701B6010D
:102D60000E94842F18160CF0CEC080910703882390
:102D7000B9F00091090310910A03C701B6010E943E
:102D80006D2E70E0601771075CF46E5F7F4F601707
:102D9000710734F08091C9038F5F8093C903188253
:102DA000888183300CF4AFC02DEC3CEC4CE45EE346
:102DB0006091E9027091EA028091EB029091EC023D
:102DC0000E94F92D87FF6CC020E030E040E252E421
:102DD0006091F5027091F6028091F7029091F802ED
:102DE0000E94842F18160CF05BC020E030E040EA0F
:102DF00050E4C501B4010E94952D0E94682E6B011C
:102E00007C0120E030E040EA50E4C501B4010E94BA
:102E1000942D0E94682EA70196010E94302D7C837C
:102E20006B838091E5028830DCF569817A8188279F
:102E300077FD8095982F0E949B2E2091F102309172
:102E4000F2024091F3025091F4020E94942D6B0122
:102E50007C0120E030E0A9010E94842F18165CF468
:102E600020E030E040EA50E4C701B6010E94F92DAD
:102E700087FF16C00AC020E030E040EA50ECC701EE
:102E8000B6010E94842F18165CF460E082E00E9474
:102E9000520A8091E5028F5F8093E50282E0888389
:102EA0006B817C8189819A816817790701F59B0183
:102EB000265F3F4F442737FD4095542F6A507109D4
:102EC000882777FD8095982F0E94302D7C836B8317
:102ED0006436710564F428E730E040E050E06EE6C7
:102EE00070E080E090E00E94302D7C836B838981CC
:102EF0009A812B813C818217930714F4019601C0BB
:102F000001979A838983279684E0C23BD80709F00A
:102F1000E2CEDF91CF911F910F91FF90EF90DF9064
:102F2000CF90BF90AF909F908F900895CF93DF93F5
:102F3000E4E2F1E0C0E0D0E0DF011A978C91823347
:102F400028F0CF5F808118160CF0DF5F3D9682E09D
:102F5000E73BF80789F76BEB70E080E095E00E94B3
:102F6000DE2B4AE050E06091CA0380E095E00E94C9
:102F7000EF2C62EB70E080E095E00E94DE2B4AE0EF
:102F800050E06091C90380E095E00E94EF2C62EA76
:102F900070E080E095E00E94DE2B4AE050E06D2F6B
:102FA00080E095E00E94E82C60EA70E080E095E027
:102FB0000E94DE2B4AE050E06C2F80E095E00E94FA
:102FC000EF2C61E970E080E095E0DF91CF910C9407
:102FD000DE2B8091E7022AE08202C001112469E21F
:102FE00070E00E94AE30862F08950F931F93CF9309
:102FF000DF9320E030E048E454E46091F102709106
:10300000F2028091F3029091F4020E94F92D87FF61
:103010001BC0609123057091240580912505909136
:10302000260524E130E040E050E00E94C2306F30DD
:1030300071058105910540F429EF31E044E16AE032
:1030400080E095E00E94401F64E27DE080E095E032
:103050000E9472206FE870E080E095E00E94DE2B15
:103060006091E502772767FD70954AE050E080E0C7
:1030700095E00E94D32C6CE870E080E095E00E941F
:10308000DE2B4AE050E06091CA0380E095E00E94A8
:10309000E82C69E870E080E095E00E94DE2B4AE0D1
:1030A00050E06091C90380E095E00E94E82C66EA58
:1030B0007EE080E095E00E94722003E02CE040E09A
:1030C00068E280E095E00E94D81C2091E40241E093
:1030D00069E280E095E00E94B51C2CE040E066E3E8
:1030E00080E095E00E94D81C0E94E917282F41E05B
:1030F00067E380E095E00E94B51C10E0C4E1D0E0F9
:103100008091AD02811778F0CE01811B9109880F63
:10311000880F8093090566E870E080E095E00E94E2
:10312000DE2B1F5FEDCFDF91CF911F910F9108959F
:103130002F923F924F925F926F927F928F929F92C7
:10314000AF92BF92CF92DF92EF92FF920F931F93B5
:10315000CF93DF93CDB7DEB72A970FB6F894DEBFD3
:103160000FBECDBF8BE093E09A878987ADE02A2E12
:10317000A3E03A2EA985BA851C9111160CF026C140
:10318000F1018081813041F52DEC3CEC4CEC5CE3AD
:103190001F966D917D918D919C9152970E94952DD6
:1031A000A985BA851F966D937D938D939C935297B5
:1031B00020E030E040E252E417966D917D918D91D0
:1031C0009C911A970E94842F181634F41B3024F017
:1031D0002AE0E985FA852083A985BA851B962D9179
:1031E0003D914D915C911E9713966D917D918D91BE
:1031F0009C9116970E94952D69837A838B839C837B
:10320000E985FA856383748385839683278530896E
:103210004189528967817085818592850E94952DAB
:103220006B017C01A985BA8517966D937D938D936B
:103230009C931A9720E030E040E251EC0E94F92D77
:1032400087FD3EC04090F1025090F2026090F30280
:103250007090F4021091E602612F772767FD709558
:10326000872F972F0E949B2E9B01AC01C301B201B7
:103270000E94952D9B01AC0169817A818B819C8193
:103280000E94942D4B015C0120E030E0A9010E94D6
:10329000842F18165CF420E030E048EC52E4C501BD
:1032A000B4010E94842F18165CF00EC020E030E0BC
:1032B00048EC52ECC501B4010E94F92D87FF04C00F
:1032C000E985FA8510827BC06091F5027091F60263
:1032D0008091F7029091F8020E94682E4B015C01E8
:1032E000612F772767FD70956B507109882777FDEF
:1032F0008095982F0E949B2E9B01AC01C301B201C7
:103300000E94952D0E94682E9B01AC01C701B60159
:103310002D833E834F8358870E94682E2B013C01EA
:1033200069817A818B819C810E94682EE8E0CE2E93
:10333000D12CF6E1EF2EF12C84012D813E81A201EA
:1033400082EB94E00E9477268823C9F11091E40271
:10335000111694F5F10131978081181B1093E40246
:10336000F2E5F093E802C090FD02D090FE02E090FA
:10337000FF02F090000320E030E0A901C701B60190
:103380000E94F92D2DEC3CEC4CE45EE387FF05C078
:10339000C701B6010E94952D04C0C701B6010E9465
:1033A000942D6093FD027093FE028093FF02909330
:1033B000000317FD1092E402A985BA851C92E985E5
:1033C000FA8580818150808387FD108289859A8566
:1033D00043969A87898793E1290E311CA985BA857E
:1033E000A95CB34009F0C6CE2A960FB6F894DEBFAA
:1033F0000FBECDBFDF91CF911F910F91FF90EF9046
:10340000DF90CF90BF90AF909F908F907F906F9004
:103410005F904F903F902F9008950F931F93CF93FD
:10342000DF93CDE0D3E0FE013297108111160CF04E
:103430004DC02091F1023091F2024091F30250917F
:10344000F40269817A818B819C810E94942D0E9473
:10345000682E062F862F972F97FF03C09195819591
:1034600091098935910594F58881813011F51A30DB
:1034700004F5045020E030E040E850E46D817E81A6
:103480008F819885163044F00E94942D0E94682EFA
:10349000462F2FEE31E007C00E94942D0E94682E27
:1034A000462F25EE31E0602F80E095E00E94401F1E
:1034B0000DC06D817E818F8198850E94682E462F78
:1034C00021E0602F80E095E00E94871E639683E0F4
:1034D000CB3CD80709F0A7CFDF91CF911F910F9177
:1034E000089563EC70E082EB94E00E949E250C94BA
:1034F000760982EB94E00E941C260E94711A69E210
:1035000082EB94E00C94282282EB94E00E946123E9
:10351000882379F166E08CEB94E00E94ED1B811129
:103520000E94711A2091CA038091C90390E0820F12
:10353000911D8197E4F48091AD028823C1F00E942F
:10354000D70D0E945D160E94870A0E9498180E945B
:10355000730D0E94F5090E940D1A0E94350D0E94FC
:10356000D6140E94B1150E94900D0C94F5170C947E
:1035700096170895109203051092020586ED92E0C9
:1035800090930105809300050895CF93CFB7F894E9
:1035900080913905811127C0EDEBF1E18491E9EAD1
:1035A000F1E19491E82FF0E0EE0FFF1FE552FE4E9F
:1035B000A591B4918C91892321F461E08AE00E9465
:1035C000312B61E08AE00E94F82A8CB580618CBDC5
:1035D0008CB580648CBD61E08DE00E94F82A61E0CA
:1035E0008BE00E94F82A809139058F5F809339051E
:1035F000CFBFCF91089521E0FC012083089570E0B2
:1036000085E00C94702AAF92BF92CF92DF92EF9236
:10361000FF920F931F93CF93DF93EC0189819A81DF
:103620002FE0289F8001299F100D112485E10E9421
:10363000532A800F911F24E0969587952A95E1F7EC
:103640009A8389832881222391F1AC81AD80B12CAA
:10365000C12CD12CE885F9857F0100E010E06E8156
:103660007F819B0140E050E08617970728F0BC015E
:10367000E817F90708F4BF0180E090E01F921F925D
:103680001F92AF930E944C2D6B830F900F900F9061
:103690000F9070E085E0DF91CF911F910F91FF9027
:1036A000EF90DF90CF90BF90AF900C94702ADF9195
:1036B000CF911F910F91FF90EF90DF90CF90BF902F
:1036C000AF900895FC018CE39FE09383828384E0B4
:1036D000818381E084870895CF93DF93EC018C810F
:1036E0009D81892B81F18C858F7151F584E10E9438
:1036F000532ABC01882777FD8095982F0E949B2E26
:1037000026EE3FE34EEC50E40E94882F0E946D2E7F
:103710009B017B836A836115710581F084E0898355
:10372000FE0140E0848195812817390710F4498310
:103730000AC04F5F32964430A9F702C08FEF8983E9
:103740008C858F5F8C87DF91CF910895FC0188E095
:10375000808389E0818387E0828386E0838384E0BD
:10376000848382E0858381E186830895DF92EF92EE
:10377000FF920F931F93CF93DF937C01EC0100E046
:1037800010E0DD24DA9462E088810E94F82A8881C2
:103790000E94672BF701E00FF11F892B21F487812D
:1037A0008F5F878308C08781882349F08F3F11F49A
:1037B000178201C0D78260E088810E94F82A0F5FDB
:1037C0001F4F219607301105F1F6DF91CF911F9120
:1037D0000F91FF90EF90DF900895FC01E60FF11D2F
:1037E00081E09781913009F080E00895262F30E044
:1037F000FC01E20FF31F8781423028F481508E3F95
:1038000048F080E008958F3FE1F3642F0E948E30EE
:103810009130B9F781E008958EBD00000DB407FE28
:10382000FDCF8EB508951F93CF93DF93EC01162F34
:10383000F89460E08F850E94312B888918161CF45B
:1038400060E00E94312B812F0E940C1C8889181681
:103850001CF461E00E94312B7894DF91CF911F918D
:10386000089528EF31E0EAE3F5E0DF01A9011D92B8
:1038700041505040E1F7DC0119961C9219971A96B5
:103880001C920895DF92EF92FF920F931F93CF93B4
:10389000DF93EC018C858F5F8C878AE3E82E85E0CF
:1038A000F82ED12C6D2D6064CE010E94131C60E8AF
:1038B000CE010E94131C61E08F850E94312B888904
:1038C00018161CF460E00E94312B00E010E0F701B4
:1038D000E00FF11F80810E940C1C0F5F1F4F043509
:1038E0001105A9F7888918161CF461E00E94312B94
:1038F000D39484E5E80EF11C86E0D812D3CF60E4BF
:10390000CE01DF91CF911F910F91FF90EF90DF904B
:103910000C94131CFC0160A361A30895FC0160A337
:1039200041A30895CF92DF92FF920F931F93CF93FD
:10393000DF931F92CDB7DEB76C01062FF42E10E097
:10394000121754F4412F4F0D602FC60129830E9496
:103950001E091F5F2981F4CF0F90DF91CF911F9136
:103960000F91FF90DF90CF900895CF92DF92FF925A
:103970000F931F93CF93DF931F92CDB7DEB76C01E8
:10398000062FF42E10E0121754F4612F600F4F2D04
:10399000C60129830E941E091F5F2981F4CF0F9061
:1039A000DF91CF911F910F91FF90DF90CF900895FD
:1039B000EF92FF920F931F93CF93DF93EC01F62EBC
:1039C000142FE22E0E94B51C4FEF400F410F2E2DF9
:1039D0006F2DCE010E94B51C202F412F6F2DCE01DF
:1039E0000E94921C6FEF6E0D6F0D202F412FCE01A4
:1039F000DF91CF911F910F91FF90EF900C94921C4B
:103A0000DF92EF92FF920F931F93CF93DF93EC011E
:103A1000E62ED22EF42E112707FD1095040F111D4E
:103A200047FD1A958F2D992787FD9095801791074F
:103A300044F42D2D4F2D6E2DCE010E94B51CF39414
:103A4000F1CFDF91CF911F910F91FF90EF90DF9019
:103A50000895AF92BF92CF92DF92EF92FF920F93B1
:103A60001F93CF93DF93EC01162FF42EE22EA02F9D
:103A7000BB27A7FDB095A41BB10947FDB395B7FFC0
:103A800003C0B195A195B109EE2DFF27E7FDF09593
:103A9000E11BF10917FDF395F7FF03C0F195E195DF
:103AA000F109BB24B394EA17FB0714F0B12C06C04C
:103AB0008E2DE02E082F812F1F2DF82EE11634F4C5
:103AC0008F2DF02E082F812F1E2DE82ECE2CC11AFF
:103AD000E02FFF27E7FDF095EF19F109F7FCF395CB
:103AE000F7FF03C0F195E195F109AE2EDC2CC7FE7E
:103AF00003C0DD24D394DC0CD594F01614F401E05B
:103B00000FC00FEF0DC0BB2071F0412F6F2DCE0104
:103B10000E941E09DA18D7FE02C0F00EDC0C1F5FEF
:103B2000E1168CF703C04F2D612FF1CFDF91CF91BC
:103B30001F910F91FF90EF90DF90CF90BF90AF90CB
:103B400008958F929F92AF92BF92CF92DF92EF92A1
:103B5000FF920F931F93CF93DF93EC01E62ED42EA9
:103B6000122FCC24C394C21AB22EB194BB0CF12CE8
:103B7000802F8470A82E802F8270982E802F8870BE
:103B8000882E0170F1160CF04DC0C7FC04C0115016
:103B9000B394B394CB0CF3948F2D880F8F5FC80E22
:103BA000AA2071F0412F4D0D6F2D6E0DCE010E9498
:103BB0001E094F2D4D0D612F6E0DCE010E941E0965
:103BC000992071F04D2D411B6F2D6E0DCE010E947D
:103BD0001E094D2D4F19612F6E0DCE010E941E0939
:103BE000882071F04F2D4D0D6E2D611BCE010E946E
:103BF0001E09412F4D0D6E2D6F19CE010E941E0919
:103C0000002309F4BFCF4D2D4F196E2D611BCE013E
:103C10000E941E094D2D411B6E2D6F19CE010E9471
:103C20001E09B0CFDF91CF911F910F91FF90EF90C0
:103C3000DF90CF90BF90AF909F908F9008958F921C
:103C40009F92AF92BF92CF92DF92EF92FF920F932B
:103C50001F93CF93DF93EC01B62EA42E122FDD24F9
:103C6000D394D21AC22EC194CC0CFF24F394802F8B
:103C70008170882E992493949E0C02708FEF8F0D83
:103C80008117C4F5D7FC04C01150C394C394DC0C55
:103C90008F2D880F8F5FD80E882099F0212F220F4B
:103CA000290D4A2D411B6F2D6B0DCE010E94921CD8
:103CB00023E02E0D4A2D4F19612F6B0DCE010E946E
:103CC000921C002399F0212F220F290D4A2D411B10
:103CD0006B2D6F19CE010E94921C23E02E0D4A2DF0
:103CE0004F196B2D611BCE010E94921CF394E3943B
:103CF000E394C4CFDF91CF911F910F91FF90EF908C
:103D0000DF90CF90BF90AF909F908F900895DF92FB
:103D1000EF92FF920F931F93CF93DF93EC01F62E58
:103D2000D42E122F220F2F5F411B0E94921CE12CD8
:103D300003E0212F4D2D6F2DCE010E941F1EDF911C
:103D4000CF911F910F91FF90EF90DF9008959F9278
:103D5000AF92BF92CF92DF92EF92FF920F931F9399
:103D6000CF93DF93EC01B62EF42EA22EDE2CD1944D
:103D7000DD0C9D2C920E1E2D160F292D612F0E94F9
:103D8000B51CCC24CA94C00ECF0C292D4C2D612F0C
:103D9000CE010E94B51CD00EFE0C2D2D4F2D6B2D8B
:103DA000CE010E94921CBA0C6FEF6B0D2D2D4F2D82
:103DB000CE010E94921C01E02E2D4F2D612FCE01CD
:103DC0000E94A11DDE2CD094DB0C02E02E2D4F2D85
:103DD0006D2DCE010E94A11DCE1804E02E2D4C2D7C
:103DE0006D2DCE010E94A11D08E02E2D4C2D612FBE
:103DF000CE010E94A11DDF91CF911F910F91FF90E5
:103E0000EF90DF90CF90BF90AF909F900895AF92CA
:103E1000BF92CF92DF92EF92FF920F931F93CF93B7
:103E2000DF93EC01A62EC42EB22EF02E1E2DE194AF
:103E3000EE0CD12ED60E2E2D2B0D6D2D0E94001DB9
:103E4000FA94FE0CC10E6FEF6A0D6B0D611BEF2C27
:103E500001E0212F4C2DCE010E941F1E02E0212FD8
:103E60004C2D6D2DCE010E941F1EDF91CF911F9111
:103E70000F91FF90EF90DF90CF90BF90AF9008959B
:103E80006F927F928F929F92AF92BF92CF92DF926A
:103E9000EF92FF920F931F93CF93DF93F901A490BA
:103EA00031965491FC01F0A064350CF00CC1BB2498
:103EB000A7FCB094A62FBB27A7FDB095FD01EA0D86
:103EC000FB1D1E161F060CF0FEC040330CF0FBC09D
:103ED000C52E042F112707FD1095E801C50FD11D30
:103EE00057FDDA951C161D060CF0EDC0E90122966F
:103EF0009501295F3F4F37FF02C0295F3F4F73E0B5
:103F0000359527957A95E1F747FF0AC0C52EC40E6F
:103F1000209FA001219F500D1124C41BD50B40E010
:103F20000C2D112707FD1095040F111D47FD1A9543
:103F3000013311051CF070E3C72EC41A67FD60E061
:103F4000E535F10514F0E4E5F0E01E2FFC01748581
:103F50007427862F992787FD9095FC01EA1BFB0BA0
:103F6000DF015F01F7E0AF22BB24E0E8F0E002C030
:103F7000F595E795AA94E2F70E2FB7FD179653E053
:103F8000B595A7955A95E1F7AC0FBD1FE42FE770E3
:103F900051E001C0550FEA95EAF7459545954595DD
:103FA000E4E54E02800D911D1124865C9A4F40E09D
:103FB000DD24C7FCD094BB24B3943327E42FF0E076
:103FC000EC15FD050CF07FC0FD01E490F1E0FF125F
:103FD00019C0EC01A02EFD01862E881A9C2E980C8B
:103FE000911608F067C09E2C9A2019F09880952AA7
:103FF0009882A69429F43196E4906894AA24A7F8AC
:104000002196ECCFF1101BC0752E7094EC01A02E00
:10401000FD01862E881A9C2E980C911608F04AC035
:104020009E2C9A2019F0988097209882A69429F4C3
:104030003196E4906894AA24A7F82196ECCFE3E0A7
:10404000FE1631F0EC01A02EFD01862E881A2EC03E
:10405000752E7094962EEC01A02EFD019116B0F4F1
:104060008E2C8A2049F08880692C672660FE02C069
:10407000852A01C087208882A69429F43196E4908D
:104080006894AA24A7F893942196E8CF7B2512C0C0
:104090009E2C9A2019F0988095269882A69429F44F
:1040A0003196E4906894AA24A7F821969C2E980C47
:1040B000911670F3550F19F48C5A9F4F51E04F5FD2
:1040C000A20FB31F7BCFDF91CF911F910F91FF9074
:1040D000EF90DF90CF90BF90AF909F908F907F90A8
:1040E0006F900895DC01FB0184918F5F14968C938F
:1040F00014973196E491EF5F1596EC9315976E5FE8
:104100007F4F5F967C936E935E970895EF920F9327
:10411000CF93DF93EC014E876D872F87E98A088B59
:1041200081E0888788A319A28F8366EA7EE0CE01AA
:104130000E9472200E94C51A8CB58F7D8CBD8CB5F3
:104140008C7F81608CBD8DB581608DBD8CB58C60A0
:104150008CBD61E08E850E94F82A61E08D850E9409
:10416000F82A61E08F850E94F82A898918161CF4C4
:1041700061E00E94F82A888918161CF461E00E9408
:10418000F82A898918166CF460E00E94312B6AE0E5
:1041900070E080E090E00E94F02961E089890E944F
:1041A000312B8D85992787FD9095FC01ED54FE4EAE
:1041B000E491F0E0EE0FFF1FEF52FE4E2591349197
:1041C0003D8B2C8BFC01E156FE4E84918B8F8E85AE
:1041D000992787FD9095FC01ED54FE4EE491F0E0A7
:1041E000EE0FFF1FEF52FE4E259134913B8B2A8B31
:1041F000FC01E156FE4E84918A8F8889992787FDBC
:104200009095FC01ED54FE4EE491F0E0EE0FFF1F9F
:10421000EF52FE4E259134913F8B2E8BFC01E156DF
:10422000FE4E84918C8F8F85992787FD9095FC0198
:10423000ED54FE4EE491F0E0EE0FFF1FEF52FE4E04
:1042400025913491398F288FFC01E156FE4E8491DF
:104250008D8F61E2CE010E94131C64E1CE010E94A9
:10426000131C8B8587FF02C08FE78B876B85606887
:10427000CE010E94131C60E2CE010E94131C6CE070
:10428000CE010E94131CCE01DF91CF910F91EF90D0
:104290000C94421C6F927F928F929F92AF92BF922A
:1042A000CF92DF92EF92FF920F931F93CF93DF9302
:1042B000EC01162FF42EB02EE8A064350CF081C06E
:1042C0008FE284170CF47DC0EC81F0E031970E9FF3
:1042D000C0010F9F900D1124860F911D67FD9A95C7
:1042E000181619060CF06DC08D81809FC001112435
:1042F000840F911D47FD9A95181619060CF061C0A0
:10430000A62E962EC22ED12C8A2D811B992787FD91
:1043100090952C8130E0821793070CF051C021500A
:1043200031098217930779F0C29ED001C39EB00D68
:10433000D29EB00D1124A80FB91FEE8DFF8DEA0F8C
:10434000FB1F749001C0712C8F2C6F2C282D2F19FE
:10435000332727FD30958D8190E0281739076CF5BC
:1043600070FE11C081E0B81206C0482D6A2DCE0142
:104370000E941E091EC00B2D2B2D462D692DCE012E
:104380000E94001D16C089A198A1891791F088A3E9
:1043900081E0B81206C0482D6A2DCE010E941E0988
:1043A00007C00B2D2B2D462D692DCE010E94001D1F
:1043B000E8A276946B0C8394C9CF9B0CA394A4CFF2
:1043C000E8A2DF91CF911F910F91FF90EF90DF90C6
:1043D000CF90BF90AF909F908F907F906F900895F7
:1043E0000F93CF93DF93EC01262F6A3039F42D81A0
:1043F00098858A85299F800D112422C06D3011F186
:1044000008854A8569850E944A2148855C812985FD
:10441000549F200D112429878F81882399F03327F9
:1044200027FD309584E590E0459F8019910911247E
:10443000821793073CF49D818A85499F800D112442
:104440008A87198681E090E0DF91CF910F910895DE
:10445000CF93DF93FC01462FEC01C158DF4F70E092
:1044600088EE93E00E94AE306883842F64E10E945E
:104470008E30811101C081E081A7DF91CF91089535
:104480008F929F92AF92BF92CF92DF92EF92FF9264
:104490000F931F93CF93DF93EC015C0186E8A80E86
:1044A000B11CD5018C91882309F44DC08C3018F4CF
:1044B0001CE0181B01C010E0FE01EA5AFF4F81E02A
:1044C00080836E01BEE4CB0ED11C60E0C6010E9469
:1044D0008A1C4E01E3E58E0E911CD4018C9103E001
:1044E000080F9DE2F92E4F2D481B410F23E0E22ECD
:1044F00024E560E0C6010E94071F61E0C6010E943A
:104500008A1CF401808103E0080F4F2D481B410FE6
:1045100024E560E0C6010E94A71EFE01E95AFF4F94
:1045200084E080833196D4018C91181B115D108337
:10453000CC57DF4F68817981C6010E94DE2BF501DF
:10454000808181508083DF91CF911F910F91FF90E7
:10455000EF90DF90CF90BF90AF909F908F90089595
:10456000DF92EF92FF920F931F93CF93DF93EC01B3
:104570008C8D9D8D892B09F49CC08E01025B1F4F91
:1045800040E061E0C8010E948E1C85E5FE01EE5A04
:10459000FF4F9081891B3596808331961082698DFB
:1045A000613009F462C028F0888D653008F074C06D
:1045B0006FC0CE0185960E94C02781E0FE01EA5AB5
:1045C000FF4F808366EA7EE0C8010E9472201D8E44
:1045D0001C8EFE01EC5AFF4F108238EAD32E7E016A
:1045E0008AE0E80EF11CCE010E9461238823D9F3F2
:1045F00065E970E1C8010E94DE2B6A8D7B8D4AE07F
:1046000050E0C8010E94062D60E870E1C8010E94D8
:10461000DE2B6D2D62956F7070E04AE050E0C801AE
:104620000E94D32C65E770E1C8010E94DE2B64E094
:10463000C7010E94ED1B81113CC0DA94A1F660E035
:10464000CE010E94FF1A83B7817F846083BF83B746
:10465000816083BF83B7816083BF889583B78E7F76
:1046600083BF83B78E7F83BFBECFCF58DF4F4881D4
:1046700059816A817B814F7055276627772748309B
:1046800051056105710510F467E009C068E707C0CE
:10469000882379F06B5F03C0882359F06FE2C8016B
:1046A000DF91CF911F910F91FF90EF90DF900C94CD
:1046B000032CDF91CF911F910F91FF90EF90DF902E
:1046C00008958F929F92AF92BF92EF92FF920F93B5
:1046D0001F93CF93DF93EC017C0100E8E00EF11C07
:1046E000F70180809180A280B3800E94C12995014A
:1046F0008401061B170B280B390BB901A8015E01B9
:104700001FE7A10EB11CF501808190E0A0E0B0E0B0
:104710008E0105581F4F84179507A607B70750F459
:10472000F80180819181A281B381892B8A2B8B2B07
:1047300009F040C0F80180819181A281B381892B69
:104740008A2B8B2BA9F57E01F5E2EF0EF11CC70138
:104750000E94BD27C7010E942A28C7010E94EE2897
:10476000CE010E944022CE010E94B0227E012EE4A2
:10477000E20EF11CC7010E94421CFE01EC5AFF4FE1
:104780008081811103C0C7010E94311C0E94CD2984
:10479000F8016083718382839383FE01EB58FF4F9E
:1047A000C958DF4F28813981621B730B7183608385
:1047B00080E036C00E94C129F5012081620F711D81
:1047C000811D911DF7016083718382839383FE01B4
:1047D000EF58FF4F40815181628173814F5F5F4F7E
:1047E0006F4F7F4F4083518362837383F801108240
:1047F0001182128213820E94CD29FE01E958FF4FD7
:104800006083718382839383CE010E94031BCE0158
:104810000A960E94B61BCE0148960E946C1B81E04E
:10482000DF91CF911F910F91FF90EF90BF90AF90CC
:104830009F908F9008950F931F93CF93DF938C01D8
:10484000EC01C25BDF4FCE010E94311C6DE470E1D0
:10485000CE010E94DE2BCE010E94421C8CB58360EB
:104860008CBD8DB58E7F8DBD8AED92E0EEEFFFE3BE
:104870000995F801EC5AFF4F108268E270E1CE0111
:104880000E941E2CCE010E94421C065F1F4FC801D1
:104890000E94B61B64E0C8010E94ED1B811107C095
:1048A00062E370E080E090E00E94F029F0CFDF91B9
:1048B000CF911F910F9108952F923F924F925F9247
:1048C0006F927F928F929F92AF92BF92CF92DF9220
:1048D000EF92FF920F931F93CF93DF93CDB7DEB785
:1048E00029970FB6F894DEBF0FBECDBF9987888792
:1048F0001B012A013C0180E7680E711CF3018081D5
:10490000882309F402C181E0E885F985EA5AFF4F5E
:104910008083E885F985EB5AFF4F1082E885F98599
:10492000EC5AFF4F1082E885F985108E8F01025BEB
:104930001F4F61E0C8010E948A1C888599858D5AA5
:104940009F4F9C838B83C884D98497E5C90ED11C63
:10495000E884F984E8E5EE0EF11C888599858E5A85
:104960009F4F9A838983E885F985EF58FF4FFE832F
:10497000ED8388849984FAE08F0E911CA884B98411
:1049800085E2A80EB11C888599850E946123882341
:10499000D1F3F1018491882321F0EB81FC815081D6
:1049A00001C050E028EB30E140E060E0C8015F83E7
:1049B0000E94401F5F814114510439F04CE0450FC3
:1049C000920160E0C8010E94401FF60110828CE055
:1049D000F7018083B101C8010E94DE2BE981FA81D1
:1049E0009081892F880F890F81958D5AF6018083D8
:1049F000EB81FC819081892F880F890F8195835DE0
:104A0000F7018083ED81FE81808184FF03C063EB29
:104A100070E102C06FEA70E1C8010E941E2CE981BA
:104A2000FA819081892F880F890F81958D5AF6011F
:104A30008083F70180818F5F8083E885F98582A577
:104A4000882319F06BEA70E102C067EA70E1C801DF
:104A50000E941E2CE981FA819081892F880F890F8D
:104A600081958D5AF6018083F70180818F5F808365
:104A700063EA70E1C8010E941E2C65E0C4010E9437
:104A8000ED1B882351F0E885F98562A56F5FC501AC
:104A90000E946A29C5010E94542964E0C4010E9451
:104AA000ED1B811113C0F3012081822F90E0A0E063
:104AB000B0E0ED81FE8140815181628173814817B0
:104AC00059076A077B07A8F02F3F99F08FEFF30192
:104AD0008083088519850B5D1F4F60E0C8010E9427
:104AE0006727C8010E943E2981E0E885F985808F0B
:104AF0000CC066E0C4010E94ED1B882309F443CF7B
:104B0000888599850E941B2434CF29960FB6F89486
:104B1000DEBF0FBECDBFDF91CF911F910F91FF90F0
:104B2000EF90DF90CF90BF90AF909F908F907F904D
:104B30006F905F904F903F902F900895AB0167EB7F
:104B400070E10C945C24E0E8F7E72591349181E072
:104B50002130304C09F080E00895CF93DF93EC01D1
:104B60000E94A3259E01275A3F4FDE01A059BF4F47
:104B7000882309F43CC0E6E9F7E78491F9018083D2
:104B8000E7E9F7E7E491EC83E8E9F7E7E491ED83FF
:104B9000E9E9F7E7859194919F838E83EBE9F7E745
:104BA0008591949199878887EDE9F7E7E491EBA7E0
:104BB000EEE9F7E7E491EAA7EFE9F7E7E491EC9390
:104BC000E0EAF7E7859194919D8F8C8FE2EAF7E711
:104BD000859194919F8F8E8FE4EAF7E78591949168
:104BE00099A388A3E6EAF7E78591949120C08CE326
:104BF000F90180831C822FEF2D8380E293E09F8355
:104C00008E8384ED93E09987888781E08BA78AA7BC
:104C10002C938CEA9DE09D8F8C8F8EED9DE09F8F75
:104C20008E8F84E79EE099A388A38CE39FE09BA3EB
:104C30008AA3DF91CF910895CF92DF92EF920F93E5
:104C4000CF93DF93EC01FC01E158FF4F82E38083B7
:104C5000349741E050E060E070E04083518362832C
:104C600073833B978FEF8083CE010E94AD25CE01E9
:104C70000E94FB1A6FEFCE010E94FF1A6E018AE0BC
:104C8000C80ED11CC6010E94A61BC6010E94B61BFD
:104C9000CE0148960E94621B3EE0E32E0FE020E129
:104CA0004BE06DE0CE01825B9F4F0E948620A5966F
:104CB000CE010E94D32665E0C6010E94ED1B882329
:104CC00051F060E0CE01DF91CF910F91EF90DF9036
:104CD000CF900C946A2940E068E271E1CE01DF9147
:104CE000CF910F91EF90DF90CF900C947227CF92DD
:104CF000DF92EF92FF920F931F936217730774F086
:104D00002E0D3F1D621773074CF44017510734F006
:104D10000C0D1D1D81E0401751070CF080E01F9124
:104D20000F91FF90EF90DF90CF900895CF93DF9396
:104D300050E0FA01EE0FFF1FE80FF91F37852089B9
:104D4000E32FF22FE60FF11DE60FF11D25913491AF
:104D5000FA01EE0FFF1FE80FF91F30A3278FF901AB
:104D600065917491FC01D481D69FC02D1124E40F6C
:104D7000F51FC1A3F901A591B4916B2F70E0EC2F41
:104D8000F0E0DC01A40FB51F6E177F0720F4F901D6
:104D900025913491C32FCD9FC02D11249296CC9391
:104DA000DF91CF91089521E0FC01248324E020A726
:104DB0002FE731E1308B278740E060E00E949626A4
:104DC00061E070E083E00E94702AE1EBF0E0808116
:104DD000887F81608083F89410928000E1E8F0E0A1
:104DE0001082109285001092840088E191E09093E7
:104DF00089008093880080818860808380818160C1
:104E00008083EFE6F0E0808182608083789408956B
:104E10000F93FC01862F642F011129C08230D1F03D
:104E200048F4882391F0813011F540E0CF010F91D3
:104E30000C9496268330A9F08430C9F48481489F6D
:104E4000602D1124658F268F12C04B3008F06AE068
:104E5000668B0DC08481489F602D1124618F228F45
:104E600006C08481489F602D1124638F248F0F9189
:104E70000895FC0121110EC0648B8481489F402D50
:104E80001124458B15A214A213A281E0878B809375
:104E90003E07108E089580913E07882319F0809177
:104EA0003B0701C080E08093B4000895FC016111CC
:104EB0000DC0178A158A14A213A2108E10923B07F8
:104EC00010923C0710923E070C944B270895CF9305
:104ED000DF93EC01611103C00E9456271982DF9114
:104EE000CF9108950F931F93CF93DF93EC018B0124
:104EF00041110EC060E00E9467271E870D871B8A44
:104F00001A8A81E0898389E08E8B198E1B8E1D8E13
:104F1000DF91CF911F910F910895CF93DF93EC0113
:104F2000611128C08881882329F18981811122C0DB
:104F300089852F819885E22FF92FE80FF11DE80F61
:104F4000F11D859194918F3F2FEF920711F41882F4
:104F500011C09C879927880F991FEA85FB85E80F68
:104F6000F91F6591749140E0CE010E9472278985F6
:104F70008F5F8987DF91CF91089560E00C948D2732
:104F800060E00C9467270F93CF93DF93EC016111DE
:104F90005DC08981882309F459C08D89811156C06B
:104FA0002D853E858A899B89880F991F820F931FC3
:104FB000FC01859194910097D1F48989882321F08F
:104FC0001B8A1A8AF90111C01982888160E088233E
:104FD00031F0CE010E948D278A899B8925C0CE01A0
:104FE000DF91CF910F910C94562785919491BC013C
:104FF000769567957695679580FF1DC0AC01A6E014
:1050000056954795AA95E1F7292F26952695269539
:1050100020514F716F7000E0CE010E9408278A89ED
:105020009B8901969B8B8A8B880F991FED85FE8546
:10503000E80FF91FDACF492F6F7320E0CE010E94ED
:1050400039278A899B8901969B8B8A8BDF91CF9127
:105050000F91089560E00C94C327CF93DF93EC0188
:105060006111B9C08F89882309F4B5C08D89811178
:1050700005C0CE01DF91CF910C94562781508D8BC6
:105080008DA1811138C08BA19CA101969C01220F9A
:10509000331FEF8DF8A1E20FF31F25913491422FBA
:1050A00047704EA3A90163E0569547956A95E1F7CD
:1050B000BA0176956795232F269526952FA36F73B2
:1050C0002C81629F602D11246DA3417040933A079B
:1050D0009CA38BA329A130E08217930760F08AA1DB
:1050E000882329F0281B31093CA32BA304C060E0CE
:1050F000CE010E9456278DA181508DA3288D2F5F50
:10510000288F4C893FA1340F8C85380F3A836B8DE3
:10511000662361F070E0822F992787FD90950E94A9
:10512000AE308C8D869F300D11243A838A8190E0B9
:10513000CB966BE370E00E94AE308A833E893B835E
:10514000698D662371F0772767FD7095822F992707
:1051500087FD90950E94AE308A8D869F300D112478
:105160003B836D8D662391F0822F992787FD909563
:1051700070E00E94AE30CB0162E070E00E94AE3081
:105180002E8D9B81289F900D11249B838B814F3303
:1051900039F08A300CF089E087FD80E08B8301C014
:1051A0001B82F894EA81F0E0EA5CFE4EE491E09321
:1051B0003D0798A58D81989F802D11249B81899F03
:1051C000802D11249EA1899F802D112480933C075E
:1051D00080933B077894DF91CF91089560E00C9421
:1051E0002D2860913C07662321F180913F078F5F56
:1051F00080933F0790913D078917D8F080913E0733
:1052000091E0892780933E0710923F0780913A07EB
:10521000882369F09091B80283E4989F802D11242F
:10522000895B8093B8020E948E3090933B070C9468
:105230004B2708951F920F920FB60F9211242F93B0
:105240003F934F935F936F937F938F939F93AF930E
:10525000BF93EF93FF930E94F128FF91EF91BF91CD
:10526000AF919F918F917F916F915F914F913F91FE
:105270002F910F900FBE0F901F901895CF93DF9333
:10528000EC0160E00E94672787E791E19E878D87A8
:105290001B8A1A8A81E0898389E08E8B198E1B8E86
:1052A0001D8EDF91CF910895CF93DF93EC0160E0E5
:1052B0000E94672781E791E19E878D871B8A1A8A62
:1052C00081E0898389E08E8B198E1B8E1D8EDF9184
:1052D000CF910895FC01862F992787FD90956681CF
:1052E00070E06F5F7F4F0E94AE30858308951F92FC
:1052F0000F920FB60F9211242F933F938F939F938A
:10530000AF93BF938091410790914207A0914307CB
:10531000B09144073091400723E0230F2D3720F44C
:105320000196A11DB11D05C026E8230F0296A11DFF
:10533000B11D209340078093410790934207A093AB
:105340004307B09344078091450790914607A09189
:105350004707B09148070196A11DB11D80934507ED
:1053600090934607A0934707B0934807BF91AF912A
:105370009F918F913F912F910F900FBE0F901F9093
:1053800018952FB7F894609141077091420780916A
:105390004307909144072FBF08953FB7F894809139
:1053A000450790914607A0914707B091480726B559
:1053B000A89B05C02F3F19F00196A11DB11D3FBF4D
:1053C0006627782F892F9A2F620F711D811D911DDD
:1053D00042E0660F771F881F991F4A95D1F70895FD
:1053E000CF92DF92EF92FF92CF93DF936B017C011C
:1053F0000E94CD29EB01C114D104E104F10489F02C
:105400000E94932D0E94CD296C1B7D0B683E73403A
:1054100090F381E0C81AD108E108F108C851DC4FC7
:10542000EACFDF91CF91FF90EF90DF90CF9008957A
:10543000789484B5826084BD84B5816084BD85B56F
:10544000826085BD85B5816085BDEEE6F0E0808136
:1054500081608083E1E8F0E0108280818260808357
:10546000808181608083E0E8F0E0808181608083DA
:10547000E1EBF0E0808184608083E0EBF0E080810C
:1054800081608083EAE7F0E08081846080838081AE
:105490008260808380818160808380818068808356
:1054A0001092C10008958E3008F08E5087702091C0
:1054B000B90290E4299F90011124822B80937C00F3
:1054C00080917A00806480937A0080917A0086FDD2
:1054D000FCCF809178002091790090E0922B089584
:1054E0001F93CF93DF93182FEB0161E00E94F82AFE
:1054F000209711F460E004C0CF3FD10539F461E09A
:10550000812FDF91CF911F910C94312BE12FF0E08F
:10551000E557FE4EE491E330F9F048F4E130B9F09C
:10552000E230A1F584B5806284BDC8BD34C0E730E7
:10553000E9F0E83019F1E43049F5809180008062AB
:1055400080938000D0938B00C0938A0024C084B5E0
:10555000806884BDC7BD1FC0809180008068809333
:105560008000D0938900C093880015C08091B0005E
:1055700080688093B000C093B3000DC08091B000EC
:1055800080628093B000C093B40005C0C038D105DC
:105590000CF0B5CFAFCFDF91CF911F91089583303D
:1055A00081F028F4813099F08230A1F0089587309D
:1055B000A9F08830B9F08430D1F4809180008F7DDB
:1055C00003C0809180008F7780938000089584B518
:1055D0008F7702C084B58F7D84BD08958091B0001F
:1055E0008F7703C08091B0008F7D8093B0000895C5
:1055F000CF93DF9390E0FC01E156FE4E2491FC0135
:10560000ED54FE4E8491882349F190E0880F991F54
:10561000FC01E552FE4EA591B4918F529E4EFC01C5
:10562000C591D4919FB7611108C0F8948C912095D1
:1056300082238C93888182230AC0623051F4F894CB
:105640008C91322F309583238C938881822B888391
:1056500004C0F8948C91822B8C939FBFDF91CF91E3
:1056600008950F931F93CF93DF931F92CDB7DEB7AB
:10567000282F30E0F901E557FE4E8491F901E156FB
:10568000FE4E1491F901ED54FE4E04910023C9F031
:10569000882321F069830E94CF2A6981E02FF0E0FE
:1056A000EE0FFF1FEF52FE4EA591B4919FB7F894F5
:1056B0008C91611103C01095812301C0812B8C93C3
:1056C0009FBF0F90DF91CF911F910F910895CF93BE
:1056D000DF93282F30E0F901E557FE4E8491F90160
:1056E000E156FE4ED491F901ED54FE4EC491CC2307
:1056F00091F081110E94CF2AEC2FF0E0EE0FFF1FF6
:10570000E953FE4EA591B4912C912D2381E090E0B8
:1057100021F480E002C080E090E0DF91CF91089515
:1057200008950E94182A0E94902B0E94791AC0E0C6
:10573000D0E00E94841A2097E1F30E940000F9CF84
:10574000CF92DF92EF92FF920F931F93CF93DF934D
:105750006C017A01EB01E60EF71E00E010E0CE15B9
:10576000DF0561F06991D601ED91FC910190F08126
:10577000E02DC6010995080F191FF1CFC801DF916F
:10578000CF911F910F91FF90EF90DF90CF900895F0
:105790006115710581F0DB010D900020E9F7AD0185
:1057A00041505109461B570BDC01ED91FC910280E1
:1057B000F381E02D099480E090E00895EF92FF924C
:1057C0000F931F93CF93DF938C01FB01C0E0D0E0D8
:1057D00064917F018FEFE81AF80A662361F0D8011F
:1057E000ED91FC910190F081E02DC8010995C80F61
:1057F000D91FF701EDCFCE01DF91CF911F910F910E
:10580000FF90EF900895DC01ED91FC910190F08103
:10581000E02D09940F931F93CF93DF93EC016DE07C
:105820000E94032C8C016AE0CE010E94032C800FA1
:10583000911FDF91CF911F910F9108950F931F93A7
:10584000CF93DF93EC010E94DE2B8C01CE010E94EE
:105850000A2C800F911FDF91CF911F910F91089516
:105860008F929F92AF92BF92CF92DF92EF92FF9270
:105870000F931F93CF93DF93CDB7DEB7A1970FB6EA
:10588000F894DEBF0FBECDBF7C01C42EE52FCB0147
:10589000D22E19A221E02D1510F02AE0D22E8E0171
:1058A0000F5D1F4F8D2C912CA12CB12C6C2D7E2FB8
:1058B000A50194010E94C2308C2DD29E8019112422
:1058C000015011098A3014F4805D01C0895CF8012F
:1058D0008083211531054105510521F0C22EE32FAA
:1058E000CA01E4CFB801C7010E94C82BA1960FB628
:1058F000F894DEBF0FBECDBFDF91CF911F910F9106
:10590000FF90EF90DF90CF90BF90AF909F908F90DF
:105910000895CF92DF92EF92FF920F931F93CF9350
:10592000DF93EC016A017B012115310579F4E881EF
:10593000F9810190F081E02D642FDF91CF911F91CB
:105940000F91FF90EF90DF90CF9009942A303105AE
:10595000E9F477FF1AC06DE20E94032C8C01442702
:105960005527BA014C195D096E097F092AE0CE015D
:105970000E94302C800F911FDF91CF911F910F91CA
:10598000FF90EF90DF90CF9008952AE0B701A60135
:10599000CE01DF91CF911F910F91FF90EF90DF909B
:1059A000CF900C94302C9A01AB01662757FD60957F
:1059B000762F0C94892C2115310541F4DC01ED91F1
:1059C000FC910190F081E02D642F09940C94302C0F
:1059D0009A01462F50E060E070E00C94DB2C0F93AE
:1059E0001F93CF93DF93EC019A01462F50E060E0C4
:1059F00070E00E94DB2C8C01CE010E940A2C800FEB
:105A0000911FDF91CF911F910F9108959A01AB01E2
:105A100060E070E00C94DB2CCF93DF9300D000D0DB
:105A2000CDB7DEB79B01AC0161157105810591050C
:105A300069F069833A834B835C830E9472312981C8
:105A40003A814B815C810E94E43003C060E070E0E9
:105A5000CB010F900F900F900F90DF91CF91089591
:105A6000CF92DF92EF92FF926B017C016217730776
:105A70008407950764F4CA01B9016C197D098E0980
:105A80009F090E940C2D6C0D7D1D8E1D9F1DFF908A
:105A9000EF90DF90CF9008954F925F926F927F9238
:105AA000AF92BF92CF92DF92EF92FF920F931F932C
:105AB000CF93DF93CDB7DEB729013A01621B730B99
:105AC000840B950B29893A894B895C892A193B09F2
:105AD0004C095D09298B3A8B4B8B5C8B9B01AC018C
