:100000000C944C060C9474060C9474060C947406B0
:100010000C9474060C9474060C9474060C94740678
:100020000C9474060C9474060C9474060C94E222DE
:100030000C9474060C9474060C9474060C94740658
:100040000C9458230C9474060C9474060C94740647
:100050000C9474060C9474060C9474060C94740638
:100060000C9474060C94740605A84CCDB2D44EB909
:100070003836A9020C50B9918688083CA6AAAA2A4B
:10008000BE000000803F2F00566F6C756D653A0012
:100090004261636B6C696768743A004C69676874A5
:1000A0003A002F3400426174206C766C3A006D5631
:1000B000004261743A00153A5361766520173A455B
:1000C000786974000A576F72737420202020200012
:1000D0000A4265737420202020202000596F757219
:1000E0002074696D6520004E4557204849474853A4
:1000F000434F524500424553542054494D45530007
:100100004E4557204C41502100DCEEEEEEEEEEEE77
:10011000EEEEEEEEEEEEEEEEADF001710000000060
:10012000D000000DD00000055FF00CEEEEEEEA000E
:10013000F00D000FF00000005FF000D555005D00ED
:10014000F00FD00FF00D50000FF080F500000F0001
:10015000F00FF00FF00FCA800FF000F000D00B008E
:10016000F04FF00FF00F55000FF080F0D0F50005C4
:10017000F44FF00BB00F50005FF000F0B0F55555A4
:10018000F46FF000000F00005FF080F000BCEEEABA
:10019000B66FF000000F008CAFF000F500000066B5
:1001A000666FBCEEEEAF50005FF040B555000666DE
:1001B000666F0000000B55000FF5000CEEEEEEEE42
:1001C000EEAB000000CEEA000FF55000CEEEEEEEF2
:1001D000EEEEEEEEEEEEEA005FF5550000000055A3
:1001E000CEEA5508888800005FF5555000000000F1
:1001F00003300000000000055FBCEEEEEEEEEEEE18
:10020000EEEEEEA88888CEEEAB0000000000000005
:1002100000000000000000000000000000000000DE
:1002200000000000000000000000000000000000CE
:1002300000000000000000000000000000000000BE
:1002400000000000000000000000000000000000AE
:10025000000000000000000000000000000000009E
:10026000000000000000000000000000000000008E
:10027000000000000000000000000000000000007E
:10028000000000000000000000000000000000006E
:10029000000000000000000000000000000000005E
:1002A000000000000000000000000000000000004E
:1002B000000000000000000000000000000000003E
:1002C000000000000000000000000000000000002E
:1002D000000000000000000000000000000000001E
:1002E000000000000000000000000000000000000E
:1002F00000000000000000000000000000000000FE
:100300000000000000000000001010981818199854
:100310001818199818181998181819981818199859
:1003200018181998181819981818191010AAAA004E
:10033000000000FFFFFFFF000000000000000000C1
:10034000000000FFFFFFFF0000000055551010AA3D
:10035000AA000180000FF19FF81C3998181819980D
:100360001818199818181998181819981818191091
:1003700010AAAA000080000FFF9FFF1C0098001821
:1003800000980018009C001FFF8FFF0000800055A0
:1003900055101098181819981818199818181998AD
:1003A000181819981818199C381FF98FF000018037
:1003B0000055551010AAAA00010000FFF1FFF80037
:1003C0003900180019001800190038FFF9FFF00073
:1003D00001000055551010AAAA000180000FF19FDE
:1003E000F81C3998181819981818199C381FF98F83
:1003F000F00001800055551010AAAA000180000FDE
:10040000F19FF81C3999981A599A5819999C381FD4
:10041000F98FF00001800055551010000000000019
:1004200000199819980660066019981998066006D0
:1004300060199819980000000000001010000004D6
:100440001008201040208041008008001100220484
:100450004008801000201000200040008010100094
:100460002020020480800800001044020040220086
:10047000000888000142000040000884001080103D
:100480001000000180024004200810100820043CE5
:100490003C0420042004200420042007E000000085
:1004A0000010100000000003000500090011FC20EE
:1004B0000440044004200411FC090005000300006E
:1004C00000000010100000000007E00420042004D9
:1004D00020042004203C3C200410080810042002C2
:1004E000400180000010100000000000C000A000CB
:1004F000903F8820042002200220043F88009000C2
:10050000A000C00000000010100000200200000049
:1005100000000010400000000000000080000040CB
:100520000000000008040000004024FFFFFFFFFF60
:10053000FFFFFF800000000030400180000000004D
:1005400060E001819BE78000C1F001819BEFC00169
:10055000C1F801819B0CC003FDF001819B0CC0031D
:10056000FCE401819B0CC007F84001819BECC00FAB
:10057000F00001819BECC01818C201819B0CC038AF
:100580003CE601819B0CC0307FE701819B0CC07F62
:10059000FDFF01819B0CC0FF3DFF81819B0CC1FED3
:1005A00018CF8181FB0FC1FC00CE4180F30783048B
:1005B000100621800000060E38841F800000000F06
:1005C00079843F9F060F3E1FFBCE3F9F861FBE1FB5
:1005D0007FDF7F998F19B00E7BFF01998F19B006CD
:1005E00033DE01998F19B004218E019F8F183002DC
:1005F0000104119F9F99BE026007E19F1F9B3E006F
:10060000738FC19B19983001F7DFC19B1999B00016
:10061000FFFF819B1F99B000F7C0019BBFD9B000BD
:10062000E3800199B0DFBE0061040199B0CF3E00C4
:10063000000001800000006533B3B98001800072C2
:100640003AAA91FFFFFFFF722BB393750669065D0F
:100650000653064D61696E204D656E7500537973C2
:1006600074656D20496E666F004869676820736322
:100670006F72657300506C61790005004001500194
:100680005C01700180016C015401600174018401FE
:100690004C015C0168017C018C01000003053F21D5
:1006A0003F1208120A100A0E1C0E0C1E0C141A140B
:1006B000161F161E131E1E1B1E1E1F1E3F213F3A15
:1006C0002F3A173D173F213F181F02040A041F0E3F
:1006D00004040E1F0A1F0A0E0E1F04110E2E252ED3
:1006E0002F2A2E262929021F02081F08150E04048E
:1006F0000E150E15151B151B040604040C04000032
:10070000000017000300031F0A1F16371A190413ED
:100710000A153A000300000E11110E000A040A0423
:100720000E040030000404040010001804031F111C
:100730001F121F101D151711151F07041F17151D58
:100740001F151D01011F1F151F17151F000A00008F
:100750003200040A110A0A0A110A040115020E11D4
:10076000171E051E1F150A0E110A1F110E1F151147
:100770001F05010E111D1F041F111F1108100F1F4F
:10078000041B1F10101F061F1E040F0E110E1F0941
:10079000060E112E1F051A121509011F011F101F29
:1007A0000F180F1F0C1F1B041B031C03191513002C
:1007B0001F11030418111F00020102202020000154
:1007C000020C121E1F120C0C12120C121F0C1A1407
:1007D000041E05242A1E1F021C141D1020201D1F8C
:1007E0000814111F101E041E1E021C0C120C3E0ABF
:1007F000040C123E1E040214160A020F120E101EE2
:100800000E100E1E081E120C1226281E322A260456
:100810001E21001F00211E040102013F213F050788
:100820007F4141417F3E5B4F5B3E3E6B4F6B3E18CD
:100830003C783C18183C7E3C181C577D571C1C5EAD
:100840007F5E1C007E43437E007E73737E007E7F4E
:100850007F7E7F4141417F30483A060E0629792943
:10086000067F4141417F60703F02042A1C361C2AEA
:100870007F3E1C080000081C3E7F14227F22143C8F
:100880003C3C7EFF18423C817E3E6375633E3E6188
:100890006B633E3E636B6B3E04027F020410207F5D
:1008A000201008082A1C08081C2A0808143E554174
:1008B00022637569756310181C1810040C1C0C0455
:1008C000000000000000005F0000000700070014A7
:1008D0007F147F14042A7F2A102313086462364988
:1008E0005620500008070300001C2241000041224E
:1008F0001C002A1C3E1C2A08083E080800E0600074
:100900000008080808080060600000601008040380
:100910003E5149453E00427F4000625149494621CF
:1009200041494D331814127F1027454545393C4A3B
:100930004949304121110907364949493606494993
:10094000291E0000240000008064000008142241D9
:100950000014141414140041221408020159090649
:100960003E415D594E7C1211127C7F494949363E09
:10097000414141227F4141221C7F494949417F0930
:100980000909013E414151327F0808087F00417F3B
:1009900041002041413F017F081422417F404040F7
:1009A000407F020C027F7F0204087F3E4141413EAE
:1009B0007F090909063E416141BE7F091929462682
:1009C0004949493201017F01013F4040403F1F201A
:1009D00040201F3F4038403F6314081463030478ED
:1009E00004036151494543007F414100030408105D
:1009F000600041417F000402010204808080808009
:100A0000000307080020545478407F2844443838B5
:100A100044444428384444287F3854545418087EA9
:100A200009090218A4A49C787F0804047800447D76
:100A30004000006080847D7F1010284400417F408A
:100A4000007C047804787C080404783844444438F2
:100A5000FC1824241818242418FC7C080404080812
:100A600054545420043F4444203C4040207C1C20EB
:100A700040201C3C4020403C44281028444C90908E
:100A8000907C4464544C44000836410000007F00D0
:100A9000000041360800180408100C7F4141417FD6
:100AA0000A4E6F2053442063617264206F720A6E95
:100AB0006F204C4F414445522E4845580A0A153A7A
:100AC00045786974001D20466C617368696E670A19
:100AD00020206C6F616465722E2E2E0A0A444F4EE0
:100AE0002754205455524E204F464621000A0A15DD
:100AF0003A49676E6F7265006D560A0A504C45415F
:100B00005345205455524E204F464620004C4F57D7
:100B10002042415454455259212000177361766593
:100B200000166261636B001574797065000A0A0A29
:100B3000153A6F6B617920163A6564697400596FD4
:100B40007520656E74657265640A0017534400165B
:100B50001378001613140015102000152010000043
:100B6000540A03E181867F3E186D830F0F0E0183C7
:100B7000866033186DC3198F1803C38E6033186DE8
:100B8000E330CF1803C39E603630CDE360CF30062C
:100B9000C79E7E3E30CDB360CF300CC6F66033309A
:100BA000D9B660CF33CFCCF66061B0DB1E60CF30FA
:100BB000D86CE6C061B0DB1E618F19986CC6C0634B
:100BC000B19B0E330F0FB078C6FF7E1F1B061E0FA2
:100BD0000500893008023802497868140000F6E8F8
:100BE000DBCFC3B8AEA49B928A827B746E68625CD2
:100BF00057524E4945413E3A3734312E2C2927254C
:100C000023211F1D1C1A1917161514131211100F6A
:100C10000E0D0C0B0A0908070645006801000005C7
:100C20000068013801000005003801680100003744
:100C30000C330C0101FF030101F703000000080061
:100C40000201000003040700000000000000000192
:100C50000204081020408001020408102001020450
:100C60000810200404040404040404020202020222
:100C700002030303030303000000002300260029EE
:100C80000000000000250028002B000000000024C8
:100C90000027002A0000BB1011241FBECFEFD8E0B0
:100CA000DEBFCDBF11E0A0E0B1E0E6E1F6E502C0B5
:100CB00005900D92AC33B107D9F724E0ACE3B1E075
:100CC00001C01D92A433B207E1F71CE0C8E9DCE0E3
:100CD00004C02297FE010E94742AC639D107C9F7C1
:100CE0000E9472250C94092B0C940000DC016435E1
:100CF00008F053C0403308F050C090968C91909704
:100D0000342F359535953595E62FFF27E7FDF0957E
:100D1000242F2770823099F4DF01AB5DBD4F84E54D
:100D20003802A00DB11D11248C9190E0022E02C05A
:100D3000959587950A94E2F78095817009C0833074
:100D400039F446271C968C91482740FF03C014C0F5
:100D5000811112C084E53802E00DF11D1124EB5D14
:100D6000FD4F81E090E0022E01C0880F0A94EAF75F
:100D700080959081982310C084E53802E00DF11D24
:100D80001124EB5DFD4F81E090E0022E01C0880F41
:100D90000A94EAF79081982B90830895AF92BF92BE
:100DA000CF92DF92EF92FF920F931F93CF93DF9337
:100DB0009FE8E92E91E0F92E28E5C22E21E0D22EFF
:100DC000CAE0D0E000E010E05E018AE0A81AB108B5
:100DD000C8018A0D9B1D0E94EB2AF601E00FF11F4E
:100DE00080830F5F1F4F0A30110591F7CE010E94DB
:100DF000EB2A082F10E0F70111830083CE01019642
:100E00000E94EB2A282F30E0322F2227200F311F9B
:100E10002115310511F42FE037E2F70121933193C9
:100E20007F012C96FBE0CF0ED11CC634D10551F6C4
:100E3000DF91CF911F910F91FF90EF90DF90CF90B6
:100E4000BF90AF900895BF92CF92DF92EF92FF9242
:100E50000F931F93CF93DF9335E1E32EF12C8DE9B0
:100E600091E00E9468198823D1F322E030E040E04D
:100E700050E060E070E0CB010E944927675F60931B
:100E8000F40122E030E040E050E060E070E0CB01AF
:100E90000E9449276093F50165EF70E08BEE91E0C9
:100EA0000E9401261092F2011092F4018091F0014B
:100EB0008093F501CFE8D1E008E511E0BB24B394BD
:100EC0006E0188819981892B31F46DE28BEE91E07E
:100ED0000E94E62505C0B8018BEE91E00E94E42552
:100EE0008091EF019701281B3109C901880F880FF4
:100EF0008093F4018091F001B89E802D112480939D
:100F0000F5012296F601608171814AE050E08BEE96
:100F100091E00E94BE26B394055F1F4FF6E0BF121A
:100F2000CFCF64E087EA91E00E94EE11882369F058
:100F300082EC91E0DF91CF911F910F91FF90EF90A4
:100F4000DF90CF90BF900C94062365E087EA91E094
:100F50000E94EE118111ECCF66E087EA91E00E94D9
:100F6000EE118111E5CF7BCF0F931F93CF93DF93CA
:100F7000EC0140E06AE776E082EC91E00E943A21E1
:100F80001CE008E28DE991E00E9468198823D1F302
:100F900022E030E040E050E060E070E0CB010E94F1
:100FA00049276E5F6093F40122E030E040E050E0BA
:100FB00060E070E0CB010E9449276093F50167EE85
:100FC00070E08BEE91E00E94BF251092F401109327
:100FD000F5016CED70E08BEE91E00E94BF254AE0D8
:100FE00050E0BE018BEE91E00E94012760ED70E0C1
:100FF0008BEE91E00E94BF2560918F01709190016E
:101000004AE050E08BEE91E00E94B62664EC70E07E
:101010008BEE91E00E94BF2560919701709198013D
:101020004AE050E08BEE91E00E94B6261092F40167
:101030000093F50166EB70E08BEE91E00E94BF2516
:1010400064E087EA91E00E94EE11882331F082EC9F
:1010500091E00E94062381E00DC066E087EA91E0FE
:101060000E94EE11882309F48DCF82EC91E00E945A
:101070001C2380E0DF91CF911F910F9108958F92F3
:101080009F92AF92BF92CF92DF92EF92FF920F9317
:101090001F93CF93DF93CDB7DEB72A970FB6F8949F
:1010A000DEBF0FBECDBF8C0180919701909198015A
:1010B0000817190708F091C0C8010E94B4078823D7
:1010C00009F4A4C064E871E08DE991E00E94422037
:1010D0004BE064E871E08DE991E00E94741B10938D
:1010E00098010093970107E911E069E7E62E61E0B6
:1010F000F62EF801D290C2908F01A280B380AC147A
:10110000BD045CF04FE8C42E41E0D42E58E5A52E76
:1011100051E0B52E0AE010E020C0B701CE010196E3
:101120000E94E42A4701FBE08F0E911CB401C70125
:101130000E94E42ABE016F5F7F4FC4010E94E42A2F
:10114000F801B182A082D382C282FBE0EF1AF108DB
:1011500081E00F38180769F6D5CFE12CF12C480152
:10116000EAE08E1A9108F501EE0DFF1D6081C701BE
:10117000880D991D0E94F32AEFEFEE1AFE0AFAE09D
:10118000EF16F10481F7F6016081C8010E94F32A8D
:10119000F6016181F2E0CF0ED11CC80101960E94D8
:1011A000F32A045F1F4F8BE0A80EB11C0634110513
:1011B000A1F62A960FB6F894DEBF0FBECDBFDF9121
:1011C000CF911F910F91FF90EF90DF90CF90BF9044
:1011D000AF909F908F900C94230744E160E071E002
:1011E0008DE991E02A960FB6F894DEBF0FBECDBF11
:1011F000DF91CF911F910F91FF90EF90DF90CF90F3
:10120000BF90AF909F908F900C943E182A960FB687
:10121000F894DEBF0FBECDBFDF91CF911F910F912C
:10122000FF90EF90DF90CF90BF90AF909F908F9006
:10123000089583E08093570180E090E0A0EAB1E454
:1012400080933F0190934001A0934101B0934201EC
:101250008093430190934401A0934501B0934601CC
:1012600010924701109248011092490110924A01D0
:1012700010924B0110924C0110924D0110924E01B0
:1012800010924F0110925001109251011092520190
:101290001092530110925401109255011092560170
:1012A00008954F925F926F927F928F929F92AF922A
:1012B000BF92CF92DF92EF92FF920F93CF93DF9383
:1012C00000D000D0CDB7DEB760913F0170914001F2
:1012D00080914101909142010E94152820919B012B
:1012E00030919C014B01821A930A609143017091E5
:1012F00044018091450190914601E0909901F09060
:101300009A019401205F3F4F2536310508F082C0D5
:101310000E9415285B01AE18BF08C50140968134B4
:10132000910508F077C0209157014A2D682D8BEE6A
:1013300091E00E94601460E08BEE91E00E948B12BD
:10134000C0905301D0905401E0905501F0905601A7
:10135000C701B6010E9498292B013C01C701B601C3
:101360000E9412286B017C01B501882777FD8095CA
:10137000982F0E94482869837A838B839C8320E07E
:1013800030E040E850E4C301B2010E9435299B01DE
:10139000AC0169817A818B819C810E94AE270E9479
:1013A0001528062FB401882777FD8095982F0E9475
:1013B00048282B013C0120E030E040E850E4C70120
:1013C000B6010E9435299B01AC01C301B2010E9404
:1013D000AE270E941528262F4A2D682D8BEE91E00E
:1013E0000E94021361E08BEE91E00F900F900F903E
:1013F0000F90DF91CF910F91FF90EF90DF90CF9002
:10140000BF90AF909F908F907F906F905F904F9024
:101410000C948B120F900F900F900F90DF91CF9143
:101420000F91FF90EF90DF90CF90BF90AF909F9083
:101430008F907F906F905F904F90089510923E0133
:1014400010923D0110923C0108951092B5010E9446
:1014500019090C941E0A1092F40180E39091F00196
:10146000891B8093F50140E061E08BEE91E00E94E2
:101470008F1260913D0170913E014AE050E08BEE89
:1014800091E00C94012769E275E08DE991E00E94FA
:10149000691F8DE991E00C9401188DE991E00E949B
:1014A000E71F6EE178E08BEE91E00E944B160E9400
:1014B000CE060C94430A982F9695E62FF0E074E040
:1014C000EE0FFF1F7A95E1F7E90FF11DE75FFE4F81
:1014D00080FF02C0849102C0849182958F7008952C
:1014E0004F925F926F927F928F929F92AF92BF9234
:1014F000CF92DF92EF92FF92CF93DF9341E062E0D1
:1015000087EA91E00E94F7118823B1F025E438EDD5
:1015100040E25EE360915301709154018091550166
:10152000909156010E94AE2760935301709354012D
:10153000809355019093560141E060E087EA91E085
:101540000E94F7118823B1F025E438ED40E25EE314
:101550006091530170915401809155019091560111
:101560000E94AD27609353017093540180935501FD
:101570009093560141E064E087EA91E00E94F71100
:101580008823B1F02AE037ED43EA5CE3609147013C
:10159000709148018091490190914A010E94AE27C3
:1015A00060934701709348018093490190934A01E9
:1015B00041E065E087EA91E00E94F711882309F491
:1015C00042C02DEC3CEC4CE45FE36091470170912C
:1015D00048018091490190914A010E943529609308
:1015E0004701709348018093490190934A012DEC83
:1015F0003CEC4CE45FE360914B0170914C018091B5
:101600004D0190914E010E94352960934B017093DA
:101610004C0180934D0190934E012DEC3CEC4CE439
:101620005FE360914F017091500180915101909161
:1016300052010E94352960934F01709350018093AD
:1016400051019093520120E030E040E85DE3609169
:1016500043017091440180914501909146010E949F
:1016600035290E941A28C62F20E030E040E85DE3CB
:1016700060913F0170914001809141019091420140
:101680000E9435290E941A28862F6C2F0E945B0A1F
:10169000C82F8530B1F1863009F46EC023E333E3FF
:1016A00043E75FE3609147017091480180914901F0
:1016B00090914A01C11177C00E943529609347017A
:1016C000709348018093490190934A0126E636E6DB
:1016D00046E65FE360914B0170914C0180914D01B2
:1016E00090914E010E94352960934B0170934C01FB
:1016F00080934D0190934E0126E636E646E65FE381
:1017000030C026E636E646E65FE360914701709119
:1017100048018091490190914A010E9435296093C6
:101720004701709348018093490190934A012DEC41
:101730003CEC4CE45FE360914B0170914C01809173
:101740004D0190914E010E94352960934B01709399
:101750004C0180934D0190934E012DEC3CEC4CE4F8
:101760005FE360914F017091500180915101909120
:1017700052010E94352980C023E333E343E35FE352
:1017800060914701709148018091490190914A010F
:101790000E94352960934701709348018093490165
:1017A00090934A0171C00E9435296093470170935C
:1017B00048018093490190934A0126E636E646E6C1
:1017C0005FE360914B0170914C0180914D019091CC
:1017D0004E010E9435296B017C0160934B0170938F
:1017E0004C0180934D0190934E0126E636E646E685
:1017F0005FE360914F017091500180915101909190
:1018000052010E94352960934F01709350018093DB
:10181000510190935201C230B9F058F4C130A1F592
:1018200020E030E040E85FE3C701B6010E94AE2748
:101830001AC0C33081F0C43039F520E030E040E810
:101840005FE30E94AD2718C020E030E040E85FE38E
:101850000E94AE2711C020E030E040E85FE3C701FE
:10186000B6010E94AD2760934B0170934C018093A9
:101870004D0190934E0108C060934F017093500149
:101880008093510190935201409053015090540124
:101890006090550170905601C301B2010E94122858
:1018A0008090470190904801A0904901B0904A0172
:1018B000A50194010E94352920914B0130914C01E2
:1018C00040914D0150914E010E94AE276B017C0169
:1018D00060934B0170934C0180934D0190934E01A6
:1018E000C301B2010E949829A50194010E943529E3
:1018F0009B01AC0160914F017091500180915101A9
:10190000909152010E94AE2760934F017093500155
:10191000809351019093520120913F0130914001F9
:101920004091410150914201C701B6010E94AE278A
:101930006B017C0160933F017093400180934101F2
:101940009093420120E030E040E85DE36091430184
:101950007091440180914501909146010E94352982
:101960000E941A28C62F20E030E040E85DE3C7015E
:10197000B6010E9435290E941A28862F6C2F0E94DA
:101980005B0AC82F883008F467C0C0904B01D09024
:101990004C01E0904D01F0904E01A701960160913D
:1019A0003F017091400180914101909142010E945C
:1019B000AD2760933F017093400180934101909364
:1019C0004201C830F9F420E030E0A901C701B601B6
:1019D0000E94312987FD05C080E090E0A0ECB0ECCA
:1019E00004C080E090E0A0ECB0E480934B019093C1
:1019F0004C01A0934D01B0934E0182EC91E00E9406
:101A0000062314C020E030E040E05FEBC701B601E0
:101A10000E94352960934B0170934C0180934D01D6
:101A200090934E0182EC91E00E94322320E030E05E
:101A300040E05FE360914701709148018091490166
:101A400090914A010E9435296093470170934801A3
:101A50008093490190934A0120914F0130915001A8
:101A600040915101509152016091430170914401A4
:101A700080914501909146010E94AE2760934301F9
:101A800070934401809345019093460120E030E03B
:101A900040E85DE30E9435290E941A28C62F20E005
:101AA00030E040E85DE360913F017091400180913A
:101AB0004101909142010E9435290E941A28862FE7
:101AC0006C2F0E945B0AC82F883008F467C0C09052
:101AD0004F01D0905001E0905101F0905201A701C8
:101AE000960160914301709144018091450190916C
:101AF00046010E94AD276093430170934401809397
:101B0000450190934601C830F9F420E030E0A90186
:101B1000C701B6010E94312987FD05C080E090E031
:101B2000A0ECB0EC04C080E090E0A0ECB0E48093C6
:101B30004F0190935001A0935101B093520182EC58
:101B400091E00E94062314C020E030E040E05FEB0B
:101B5000C701B6010E94352960934F01709350016F
:101B6000809351019093520182EC91E00E943223C4
:101B700020E030E040E05FE3609147017091480170
:101B80008091490190914A010E9435296093470153
:101B9000709348018093490190934A0180905301CA
:101BA00090905401A0905501B0905601C501B40128
:101BB0000E9412282B013C01C0904701D09048019F
:101BC000E0904901F0904A01C501B4010E949829B2
:101BD000A70196010E94352920E030E040E852E458
:101BE0000E943529209143013091440140914501E3
:101BF000509146010E94AE2720E030E040EC51E4D5
:101C00000E94AD270E9415284B015C0180919B0129
:101C100090919C01EC01CC0FDD1FC80FD91FA701CB
:101C20009601C301B2010E94352920E030E040E86E
:101C300052E40E94352920913F01309140014091AA
:101C40004101509142010E94AE2720E030E048E27D
:101C500052E40E94AD270E9415286C0F7D1F77FF6C
:101C600002C06D5F7F4F7595679575956795709309
:101C70009C0160939B012091990130919A01C901C7
:101C8000880F991F820F931F880D991D97FD03964A
:101C9000959587959595879590939A01809399014D
:101CA000DF91CF91FF90EF90DF90CF90BF90AF90FA
:101CB0009F908F907F906F905F904F900895CF93FB
:101CC00020E030E040E85DE3609143017091440121
:101CD00080914501909146010E9435290E941A2861
:101CE000C62F20E030E040E85DE360913F01709155
:101CF000400180914101909142010E9435290E944A
:101D00001A28862F6C2F0E945B0A873041F580913C
:101D10003C01811108C081E080933C0110923E019A
:101D200010923D011CC080913D0190913E0145976C
:101D3000B0F06EE178E08BEE91E00E944B1680915E
:101D40003D0190913E010E943F086CE976E08BEEE8
:101D500091E00E944B160E941E0A0E941909809170
:101D60003C01882349F080913D0190913E0101960C
:101D700090933E0180933D01CF910895EF92FF92A1
:101D80000F931F93CF93DF936091990170919A0104
:101D9000613F2FEF72075CF077FF02C0615F7F4FFA
:101DA000E4E075956795EA95E1F7162F03C010E01A
:101DB00001C01F5F412F50E02091990130919A019D
:101DC000203D81E038075CF4C901C09697FD0F966D
:101DD000C4E095958795CA95E1F7019602C080E227
:101DE00090E0481759070CF05BC080919B019091DF
:101DF0009C01813F2FEF92074CF097FD0F9674E006
:101E0000959587957A95E1F7082F01C000E07A0152
:101E100064E0EE0CFF1C6A95E1F7C02FD0E0209142
:101E20009B0130919C012C3A81E0380774F42C5AC4
:101E30003F4F37FF02C0215F3F4F84E03595279524
:101E40008A95E1F72F5F3F4F02C020E230E0C217D2
:101E5000D3070CF0AECF612F802F0E945B0AE82FD2
:101E6000F0E0EE0FFF1FE65FFE4F20813181809191
:101E7000990190919A01A701481B590BBE0154E0AA
:101E8000660F771F5A95E1F780919B0190919C0115
:101E9000681B790B8BEE91E00E9419150F5FBDCF87
:101EA000DF91CF911F910F91FF90EF9008952F92A6
:101EB0003F924F925F926F927F928F929F92AF92DA
:101EC000BF92CF92DF92EF92FF920F931F93CF9327
:101ED000DF9302E122E140E060E08BEE91E00E94BE
:101EE000D91260E08BEE91E00E948B12C0E0D0E04E
:101EF00000E010E02E01662457FC6094762C3C2E06
:101F000033948090430190904401A0904501B0909B
:101F10004601B801882777FD8095982F0E944828B0
:101F20006B017C0120E030E040E85DE360913F011F
:101F30007091400180914101909142010E943529A8
:101F40009B01AC01C701B6010E94AE2720E030E042
:101F500040E051E40E94AD270E941528262E80E221
:101F6000821550F1C301B2010E9448286B017C0127
:101F700020E030E040E85DE3C501B4010E9435296E
:101F80009B01AC01C701B6010E94AE2720E030E002
:101F900040E051E40E94AD270E941528613260F4B0
:101FA000822D0E945B0A883038F4432D61E0600F77
:101FB0008BEE91E00E9476060F5F1F4F00311105F6
:101FC00009F09FCF2196C031D10509F091CF61E092
:101FD0008BEE91E00E948B1249E069E08BEE91E07C
:101FE000DF91CF911F910F91FF90EF90DF90CF90F5
:101FF000BF90AF909F908F907F906F905F904F9029
:102000003F902F900C9476066CE976E08BEE91E091
:102010000E944B168DE991E00E9468198823D1F344
:1020200066E087EA91E00E94EE11882331F06EE1CC
:1020300078E08BEE91E00C944B160E94700A0E949F
:102040005F0E0E94BE0E0E94570F0E942B0A0E9434
:102050005109E0CF44E06BE476E08DE991E00E9425
:10206000221A813049F0823009F46FC081117FC09B
:102070000E94250A0C9404100C94230761EB70E075
:102080008BEE91E00E94BF256091B7017091B8017D
:102090004AE050E08BEE91E00E9401276EEA70E08A
:1020A0008BEE91E00E94012665EA70E08BEE91E0F4
:1020B0000E94BF254AE050E06091B6018BEE91E0AE
:1020C0000E94E32662EA70E08BEE91E00E94012616
:1020D0006BE970E08BEE91E00E94BF2560919E015C
:1020E00070919F014AE050E08BEE91E00E9407273B
:1020F00060E970E08BEE91E00E94BF254AE050E07D
:102100006091A0018BEE91E00E94EA2668E870E001
:102110008BEE91E00E94BF2582EC91E00E94552356
:102120004AE050E0682F8BEE91E00E94E32666E8DB
:1021300070E08BEE91E00E94BF254AE050E0609194
:10214000C8018BEE91E00E94EA268DE991E00E94A1
:1021500068198823D1F366E087EA91E00E94EE11C6
:10216000882309F48BCF82EC91E00C941C230C940F
:10217000430A0C942A101092EE011092ED0180E3B4
:1021800091E09093EC018093EB010895CF93CFB74A
:10219000F89480912402811127C0EDE6FCE084913F
:1021A000E9E5FCE09491E82FF0E0EE0FFF1FE55722
:1021B000F34FA591B4918C91892321F461E08AE0D9
:1021C0000E94122561E08AE00E94D9248CB58061CA
:1021D0008CBD8CB580648CBD61E08DE00E94D924FB
:1021E00061E08BE00E94D924809124028F5F80936C
:1021F0002402CFBFCF91089521E0FC0120830895F0
:1022000070E085E00C945124AF92BF92CF92DF92A0
:10221000EF92FF920F931F93CF93DF93EC0189818D
:102220009A812FE0289F8001299F100D112485E1BC
:102230000E943424800F911F24E0969587952A955B
:10224000E1F79A8389832881222391F1AC81AD80C3
:10225000B12CC12CD12CE885F9857F0100E010E07C
:102260006E817F819B0140E050E08617970728F040
:10227000BC01E817F90708F4BF0180E090E01F9265
:102280001F921F92AF930E9465276B830F900F9050
:102290000F900F9070E085E0DF91CF911F910F912B
:1022A000FF90EF90DF90CF90BF90AF900C945124AF
:1022B000DF91CF911F910F91FF90EF90DF90CF9022
:1022C000BF90AF900895FC018CE39FE093838283DD
:1022D00084E0818381E084870895CF93DF93EC01CC
:1022E0008C819D81892B81F18C858F7151F584E1E1
:1022F0000E943424BC01882777FD8095982F0E9486
:10230000482826EE3FE34EEC50E40E9435290E9417
:102310001A289B017B836A836115710581F084E033
:102320008983FE0140E0848195812817390710F4E4
:1023300049830AC04F5F32964430A9F702C08FEF3D
:1023400089838C858F5F8C87DF91CF910895FC0105
:1023500088E0808389E0818387E0828386E08383CD
:1023600084E0848382E0858381E186830895DF921F
:10237000EF92FF920F931F93CF93DF937C01EC01B9
:1023800000E010E0DD24DA9462E088810E94D92424
:1023900088810E944825F701E00FF11F892B21F465
:1023A00087818F5F878308C08781882349F08F3FAB
:1023B00011F4178201C0D78260E088810E94D9247D
:1023C0000F5F1F4F219607301105F1F6DF91CF9176
:1023D0001F910F91FF90EF90DF900895FC01E60FA1
:1023E000F11D81E09781913009F080E00895262F5A
:1023F00030E0FC01E20FF31F8781423028F4815066
:102400008E3F48F080E008958F3FE1F3642F0E94F3
:10241000F2299130B9F781E008958EBD00000DB426
:1024200007FEFDCF8EB508951F93CF93DF93EC0188
:10243000162FF89460E08F850E941225888918165F
:102440001CF460E00E941225812F0E940D128889E1
:1024500018161CF461E00E9412257894DF91CF9148
:102460001F91089528EF31E0E5E2F2E0DF01A901D4
:102470001D9241505040E1F7DC0119961C921997CA
:102480001A961C920895DF92EF92FF920F931F937A
:10249000CF93DF93EC018C858F5F8C8785E2E82EEC
:1024A00082E0F82ED12C6D2D6064CE010E941412B2
:1024B00060E8CE010E94141261E08F850E9412250F
:1024C000888918161CF460E00E94122500E010E0D4
:1024D000F701E00FF11F80810E940D120F5F1F4F67
:1024E00004351105A9F7888918161CF461E00E94CB
:1024F0001225D39484E5E80EF11C86E0D812D3CFE0
:1025000060E4CE01DF91CF911F910F91FF90EF908A
:10251000DF900C941412FC0160A361A30895FC01E8
:1025200060A341A30895CF92DF92FF920F931F9370
:10253000CF93DF931F92CDB7DEB76C01062FF42E39
:1025400010E0121754F4412F4F0D602FC60129835C
:102550000E9476061F5F2981F4CF0F90DF91CF9103
:102560001F910F91FF90DF90CF900895CF92DF924F
:10257000FF920F931F93CF93DF931F92CDB7DEB7D8
:102580006C01062FF42E10E0121754F4612F600F27
:102590004F2DC60129830E9476061F5F2981F4CF43
:1025A0000F90DF91CF911F910F91FF90DF90CF900F
:1025B0000895DF92EF92FF920F931F93CF93DF93D3
:1025C000EC01E62ED22EF42E112707FD1095040FF4
:1025D000111D47FD1A958F2D992787FD909580171E
:1025E000910744F42D2D4F2D6E2DCE010E94B61271
:1025F000F394F1CFDF91CF911F910F91FF90EF9066
:10260000DF900895AF92BF92CF92DF92EF92FF9248
:102610000F931F93CF93DF93EC01162FF42EE22E2E
:10262000A02FBB27A7FDB095A41BB10947FDB3950B
:10263000B7FF03C0B195A195B109EE2DFF27E7FDC6
:10264000F095E11BF10917FDF395F7FF03C0F19534
:10265000E195F109BB24B394EA17FB0714F0B12C00
:1026600006C08E2DE02E082F812F1F2DF82EE1168B
:1026700034F48F2DF02E082F812F1E2DE82ECE2C16
:10268000C11AE02FFF27E7FDF095EF19F109F7FCDC
:10269000F395F7FF03C0F195E195F109AE2EDC2C1F
:1026A000C7FE03C0DD24D394DC0CD594F01614F4DB
:1026B00001E00FC00FEF0DC0BB2071F0412F6F2D57
:1026C000CE010E947606DA18D7FE02C0F00EDC0CAE
:1026D0001F5FE1168CF703C04F2D612FF1CFDF9103
:1026E000CF911F910F91FF90EF90DF90CF90BF900F
:1026F000AF9008958F929F92AF92BF92CF92DF9248
:10270000EF92FF920F931F93CF93DF93EC01E62E8E
:10271000D42E122FCC24C394C21AB22EB194BB0C67
:10272000F12C802F8470A82E802F8270982E802FFD
:102730008870882E0170F1160CF04DC0C7FC04C0E3
:102740001150B394B394CB0CF3948F2D880F8F5FFB
:10275000C80EAA2071F0412F4D0D6F2D6E0DCE01C8
:102760000E9476064F2D4D0D612F6E0DCE010E94F9
:102770007606992071F04D2D411B6F2D6E0DCE0107
:102780000E9476064D2D4F19612F6E0DCE010E94CD
:102790007606882071F04F2D4D0D6E2D611BCE01F8
:1027A0000E947606412F4D0D6E2D6F19CE010E94AD
:1027B0007606002309F4BFCF4D2D4F196E2D611BF6
:1027C000CE010E9476064D2D411B6E2D6F19CE0154
:1027D0000E947606B0CFDF91CF911F910F91FF90AD
:1027E000EF90DF90CF90BF90AF909F908F90089523
:1027F0008F929F92AF92BF92CF92DF92EF92FF9211
:102800000F931F93CF93DF93EC01B62EA42E122FBC
:10281000DD24D394D21AC22EC194CC0CFF24F3949D
:10282000802F8170882E992493949E0C02708FEFD4
:102830008F0D8117C4F5D7FC04C01150C394C39405
:10284000DC0C8F2D880F8F5FD80E882099F0212FF8
:10285000220F290D4A2D411B6F2D6B0DCE010E94B9
:10286000931223E02E0D4A2D4F19612F6B0DCE01CF
:102870000E949312002399F0212F220F290D4A2D37
:10288000411B6B2D6F19CE010E94931223E02E0D78
:102890004A2D4F196B2D611BCE010E949312F394A8
:1028A000E394E394C4CFDF91CF911F910F91FF90F8
:1028B000EF90DF90CF90BF90AF909F908F90089552
:1028C000DF92EF92FF920F931F93CF93DF93EC0170
:1028D000F62ED42E122F220F2F5F411B0E9493122F
:1028E000E12C03E0212F4D2D6F2DCE010E94F81316
:1028F000DF91CF911F910F91FF90EF90DF9008959E
:102900009F92AF92BF92CF92DF92EF92FF920F937E
:102910001F93CF93DF93EC01B62EF42EA22EDE2C64
:10292000D194DD0C9D2C920E1E2D160F292D612F9A
:102930000E94B612CC24CA94C00ECF0C292D4C2D67
:10294000612FCE010E94B612D00EFE0C2D2D4F2D00
:102950006B2DCE010E949312BA0C6FEF6B0D2D2DD3
:102960004F2DCE010E94931201E02E2D4F2D612F8D
:10297000CE010E947A13DE2CD094DB0C02E02E2DC7
:102980004F2D6D2DCE010E947A13CE1804E02E2D0E
:102990004C2D6D2DCE010E947A1308E02E2D4C2D6A
:1029A000612FCE010E947A13DF91CF911F910F9179
:1029B000FF90EF90DF90CF90BF90AF909F900895E1
:1029C000AF92BF92CF92DF92EF92FF920F931F933D
:1029D000CF93DF93EC01A62EC42EB22EF02E1E2D27
:1029E000E194EE0CD12ED60E2E2D2B0D6D2D0E94C6
:1029F000D912FA94FE0CC10E6FEF6A0D6B0D611BBC
:102A0000EF2C01E0212F4C2DCE010E94F81302E0A3
:102A1000212F4C2D6D2DCE010E94F813DF91CF9107
:102A20001F910F91FF90EF90DF90CF90BF90AF90EC
:102A300008956F927F928F929F92AF92BF92CF92A2
:102A4000DF92EF92FF920F931F93CF93DF93F901E1
:102A5000A49031965491FC01F0A064350CF00CC1A7
:102A6000BB24A7FCB094A62FBB27A7FDB095FD0102
:102A7000EA0DFB1D1E161F060CF0FEC040330CF0C5
:102A8000FBC0C52E042F112707FD1095E801C50FC7
:102A9000D11D57FDDA951C161D060CF0EDC0E9019D
:102AA00022969501295F3F4F37FF02C0295F3F4FB4
:102AB00073E0359527957A95E1F747FF0AC0C52E53
:102AC000C40E209FA001219F500D1124C41BD50BC3
:102AD00040E00C2D112707FD1095040F111D47FD37
:102AE0001A95013311051CF070E3C72EC41A67FD57
:102AF00060E0E535F10514F0E4E5F0E01E2FFC019F
:102B000074857427862F992787FD9095FC01EA1B11
:102B1000FB0BDF015F01F7E0AF22BB24E0E8F0E050
:102B200002C0F595E795AA94E2F70E2FB7FD179628
:102B300053E0B595A7955A95E1F7AC0FBD1FE42F6B
:102B4000E77051E001C0550FEA95EAF745954595C4
:102B50004595E4E54E02800D911D11248B5D9D4F3E
:102B600040E0DD24C7FCD094BB24B3943327E42F8A
:102B7000F0E0EC15FD050CF07FC0FD01E490F1E004
:102B8000FF1219C0EC01A02EFD01862E881A9C2E82
:102B9000980C911608F067C09E2C9A2019F0988026
:102BA000952A9882A69429F43196E4906894AA24F0
:102BB000A7F82196ECCFF1101BC0752E7094EC0194
:102BC000A02EFD01862E881A9C2E980C911608F0D6
:102BD0004AC09E2C9A2019F0988097209882A6943B
:102BE00029F43196E4906894AA24A7F82196ECCFB2
:102BF000E3E0FE1631F0EC01A02EFD01862E881ACE
:102C00002EC0752E7094962EEC01A02EFD0191160B
:102C1000B0F48E2C8A2049F08880692C672660FEEB
:102C200002C0852A01C087208882A69429F43196A3
:102C3000E4906894AA24A7F893942196E8CF7B2582
:102C400012C09E2C9A2019F0988095269882A694FE
:102C500029F43196E4906894AA24A7F821969C2E32
:102C6000980C911670F3550F19F48C5A9F4F51E040
:102C70004F5FA20FB31F7BCFDF91CF911F910F91B9
:102C8000FF90EF90DF90CF90BF90AF909F908F908C
:102C90007F906F900895DC01FB0184918F5F149603
:102CA0008C9314973196E491EF5F1596EC931597FA
:102CB0006E5F7F4F5F967C936E935E970895EF9261
:102CC0000F93CF93DF93EC014E876D872F87E98AAF
:102CD000088B81E0888788A319A28F836CE976E04E
:102CE000CE010E944B160E94C6108CB58F7D8CBD04
:102CF0008CB58C7F81608CBD8DB581608DBD8CB5B0
:102D00008C608CBD61E08E850E94D92461E08D8548
:102D10000E94D92461E08F850E94D92489891816E0
:102D20001CF461E00E94D924888918161CF461E023
:102D30000E94D924898918166CF460E00E9412253B
:102D40006AE070E080E090E00E94D12361E0898930
:102D50000E9412258D85992787FD9095FC01ED59DC
:102D6000F34FE491F0E0EE0FFF1FEF57F34F259183
:102D700034913D8B2C8BFC01E15BF34F84918B8F65
:102D80008E85992787FD9095FC01ED59F34FE491CD
:102D9000F0E0EE0FFF1FEF57F34F259134913B8B7F
:102DA0002A8BFC01E15BF34F84918A8F88899927F4
:102DB00087FD9095FC01ED59F34FE491F0E0EE0FA3
:102DC000FF1FEF57F34F259134913F8B2E8BFC0162
:102DD000E15BF34F84918C8F8F85992787FD9095C8
:102DE000FC01ED59F34FE491F0E0EE0FFF1FEF57B8
:102DF000F34F25913491398F288FFC01E15BF34F1C
:102E000084918D8F61E2CE010E94141264E1CE01A3
:102E10000E9414128B8587FF02C08FE78B876B851A
:102E20006068CE010E94141260E2CE010E9414126A
:102E30006CE0CE010E941412CE01DF91CF910F9170
:102E4000EF900C9443126F927F928F929F92AF9269
:102E5000BF92CF92DF92EF92FF920F931F93CF9387
:102E6000DF93EC01162FF42EB02EE8A064350CF0A1
:102E700081C08FE284170CF47DC0EC81F0E03197C3
:102E80000E9FC0010F9F900D1124860F911D67FDAD
:102E90009A95181619060CF06DC08D81809FC0019F
:102EA0001124840F911D47FD9A95181619060CF0F0
:102EB00061C0A62E962EC22ED12C8A2D811B992759
:102EC00087FD90952C8130E0821793070CF051C05C
:102ED000215031098217930779F0C29ED001C39E19
:102EE000B00DD29EB00D1124A80FB91FEE8DFF8D2D
:102EF000EA0FFB1F749001C0712C8F2C6F2C282DB2
:102F00002F19332727FD30958D8190E02817390739
:102F10006CF570FE11C081E0B81206C0482D6A2D14
:102F2000CE010E9476061EC00B2D2B2D462D692D3D
:102F3000CE010E94D91216C089A198A1891791F0DB
:102F400088A381E0B81206C0482D6A2DCE010E94E8
:102F5000760607C00B2D2B2D462D692DCE010E9424
:102F6000D912E8A276946B0C8394C9CF9B0CA394DE
:102F7000A4CFE8A2DF91CF911F910F91FF90EF9026
:102F8000DF90CF90BF90AF909F908F907F906F9089
:102F900008950F93CF93DF93EC01262F6A3039F415
:102FA0002D8198858A85299F800D112422C06D303E
:102FB00011F108854A8569850E94231748855C813F
:102FC0002985549F200D112429878F81882399F00A
:102FD000332727FD309584E590E0459F80199109BE
:102FE0001124821793073CF49D818A85499F800DA7
:102FF00011248A87198681E090E0DF91CF910F91AB
:103000000895CF92DF92EF92FF920F931F93CF9389
:10301000DF93EC010A8D1B8D009510950E94AE2365
:103020006B017C010E94AE23C094D094E094F09494
:103030006095709580959095C69E9001C79E300DC5
:10304000D69E300D1124209F7001219FF00C309FDF
:10305000F00C11240980DA81C02D0E94AE23CE012C
:10306000860F971F8E0D9F1DDF91CF911F910F919E
:10307000FF90EF90DF90CF900C941D27FC01EC5750
:10308000FF4F718360833296445F408308958F922F
:103090009F92AF92BF92CF92DF92EF92FF920F93E7
:1030A0001F93CF93DF93EC015C0186E8A80EB11C5F
:1030B000D5018C91882309F44DC08C3018F41CE0A4
:1030C000181B01C010E0FE01EA5AFF4F81E0808327
:1030D0006E01BEE4CB0ED11C60E0C6010E948B12D3
:1030E0004E01E3E58E0E911CD4018C9103E0080F94
:1030F0009DE2F92E4F2D481B410F23E0E22E24E5DF
:1031000060E0C6010E94E01461E0C6010E948B12DB
:10311000F401808103E0080F4F2D481B410F24E587
:1031200060E0C6010E948014FE01E95AFF4F84E06E
:1031300080833196D4018C91181B115D1083CC577C
:10314000DF4F68817981C6010E94BF25F50180812A
:1031500081508083DF91CF911F910F91FF90EF906D
:10316000DF90CF90BF90AF909F908F900895DF92A7
:10317000EF92FF920F931F93CF93DF93EC018C8D0F
:103180009D8D892B09F49CC08E01025B1F4F40E08E
:1031900061E0C8010E948F1285E5FE01EE5AFF4FE3
:1031A0009081891B3596808331961082698D6130BC
:1031B00009F462C028F0888D653008F074C06FC0D3
:1031C000CE0185960E94882181E0FE01EA5AFF4FD8
:1031D00080836CE976E0C8010E944B161D8E1C8E20
:1031E000FE01EC5AFF4F108238EAD32E7E018AE0AE
:1031F000E80EF11CCE010E9468198823D9F36DE016
:103200007BE0C8010E94BF256A8D7B8D4AE050E0BB
:10321000C8010E94012768EF7AE0C8010E94BF251B
:103220006D2D62956F7070E04AE050E0C8010E9419
:10323000B6266DEE7AE0C8010E94BF2564E0C701A2
:103240000E94EE1181113CC0DA94A1F660E0CE013B
:103250000E94001183B7817F846083BF83B7816040
:1032600083BF83B7816083BF889583B78E7F83BF19
:1032700083B78E7F83BFBECFCF58DF4F4881598140
:103280006A817B814F705527662777274830510523
:103290006105710510F467E009C068E707C088237D
:1032A00079F06B5F03C0882359F06FE2C801DF91AA
:1032B000CF911F910F91FF90EF90DF900C94E62536
:1032C000DF91CF911F910F91FF90EF90DF900895C4
:1032D0008F929F92AF92BF92EF92FF920F931F93A4
:1032E000CF93DF93EC017C0100E8E00EF11CF701C5
:1032F00080809180A280B3800E94A22395018401E6
:10330000061B170B280B390BB901A8015E011FE73B
:10331000A10EB11CF501808190E0A0E0B0E08E012B
:1033200005581F4F84179507A607B70750F4F801F3
:1033300080819181A281B381892B8A2B8B2B09F00B
:1033400040C0F80180819181A281B381892B8A2BB1
:103350008B2BA9F57E01F5E2EF0EF11CC7010E944F
:103360008521C7010E94F221C7010E94B622CE0129
:103370000E944718CE010E94B7187E012EE4E20E8B
:10338000F11CC7010E944312FE01EC5AFF4F8081DD
:10339000811103C0C7010E9432120E94AE23F801BE
:1033A0006083718382839383FE01EB58FF4FC9587A
:1033B000DF4F28813981621B730B7183608380E04A
:1033C00036C00E94A223F5012081620F711D811D6C
:1033D000911DF7016083718382839383FE01EF580F
:1033E000FF4F40815181628173814F5F5F4F6F4F0B
:1033F0007F4F4083518362837383F801108211826F
:10340000128213820E94AE23FE01E958FF4F6083AF
:10341000718382839383CE010E940411CE010A96A8
:103420000E94B711CE0148960E946D1181E0DF9194
:10343000CF911F910F91FF90EF90BF90AF909F9011
:103440008F9008952F923F924F925F926F927F924A
:103450008F929F92AF92BF92CF92DF92EF92FF92A4
:103460000F931F93CF93DF93CDB7DEB766970FB659
:10347000F894DEBF0FBECDBF9E8B8D8B6F87788B90
:10348000942EFC01EC5AFF4F108288248A941C82EF
:10349000A12C30E33B83B12C6C018AE0C80ED11C17
:1034A0006D887E8893E5690E711CED89FE89B5965D
:1034B0002F01242F30E03A8729878D899E89895AE8
:1034C0009F4F9E838D83ED89FE89E85AFF4FF887D1
:1034D000EF832D893E892A5A3F4F3C872B878D8960
:1034E0009E898B5A9F4F9E878D87ED89FE89E25B6F
:1034F000FF4F1F018D899E890E9468198823D1F38F
:1035000064E0C6010E94EE113B81032F112707FDE5
:10351000109581113EC065E0C6010E94EE11811137
:1035200038C066E0C6010E94EE11811132C03C81B4
:10353000311142C044E063E0C6010E94F7118823C4
:1035400021F0B394C2010E94322344E061E0C6013D
:103550000E94F711882321F0BA94C2010E943223FD
:103560008B2D992787FD9095E985FA858E179F0702
:1035700031F0B7FE05C0BB24BA94B90C01C0B12C20
:10358000F301808174E0A72EA80E8B9DA018112452
:103590001DC0F301A08064E0C6010E94EE118823E3
:1035A00009F484C0C2010E9406238B2CA194A99C1B
:1035B000A02C1124AA94AA94C8018A199109A7FCE5
:1035C000939502970CF476C031E03C830A0D111DEF
:1035D000A7FC1A9517FF02C00F5F1F4FC8019595F2
:1035E00087959A83898329812B83ED81FE811082BF
:1035F000EF81F885808381E0EB85FC858083ED8514
:10360000FE8510820F851889E12CF12C4B2D552752
:1036100047FD509533E0E91420F5E416F50669F40A
:10362000ED81FE813083F3018081F22FB89EF00D91
:1036300011248F2FEF81F8858083F80165917491B3
:10364000C101298B3C8B4A8B5B8B0E940126FFEFCB
:10365000EF1AFF0A0E5F1F4F5B894A893C8929894F
:10366000DACF60E0C1010E948B12F30180814981B1
:10367000B89E400D1124415024E560E0C1010E9434
:10368000B61261E0C1010E948B12F301808103E058
:10369000080F4981B89E400D1124425053E0E52E99
:1036A00024E560E0C1010E94801424CFC2010E9481
:1036B0001C237CCF882D66960FB6F894DEBF0FBE14
:1036C000CDBFDF91CF911F910F91FF90EF90DF90D1
:1036D000CF90BF90AF909F908F907F906F905F90B2
:1036E0004F903F902F9008952F923F924F925F926C
:1036F0006F927F928F929F92AF92BF92CF92DF9202
:10370000EF92FF920F931F93CF93DF93CDB7DEB766
:1037100063970FB6F894DEBF0FBECDBF6C011B01DF
:10372000442EFC01EC5AFF4F1082842F90E0FB01E5
:10373000E80FF91F3197108230E3398734E53A8773
:1037400022E0622E712C512C560143E5A40EB11CCF
:10375000460152E5850E911CD601A25BBF4FBB8B83
:10376000AA8BF601E95AFF4FFE83ED839601285A92
:103770003F4F38872F839C878B8701979E878D8744
:10378000C6010E9468198823D9F38601065F1F4F7E
:1037900044E063E0C8010E94F711882329F0639494
:1037A000C60185960E94322344E061E0C8010E9470
:1037B000F711882329F06A94C60185960E94322366
:1037C00044E062E0C8010E94F711882329F0739455
:1037D000C60185960E94322344E060E0C8010E9441
:1037E000F711882329F07A94C60185960E94322326
:1037F00030E1731629F077FE04C08FE0782E01C007
:10380000712C48E0641629F067FE04C0B7E06B2E07
:1038100001C0612CD5013C91F40120812095279DA8
:10382000202D1124295DFA858F2F992787FD9095EA
:10383000820F911D27FD9A9597FD0196AC01559534
:1038400047955A83498359815F875A8724E1231B0F
:103850003095369D200D11243985832F992787FDBA
:103860009095820F911D27FD9A9597FD0196AC01C9
:10387000559547955C834B835B81588B598764E0F2
:10388000C8010E94EE11882351F1E52DFF27E7FDC5
:10389000F0954D855E85E417F50794F4872D50E18A
:1038A000659E800D1124882309F46ACF8A3009F4BB
:1038B00067CF8D3009F464CFE20DF31D8083118250
:1038C0005394C60185960E940623852D992787FD6E
:1038D0009095AB85BC85A817B9070CF4542C65E00E
:1038E000C8010E94EE11882379F05A94C60185968A
:1038F0000E941C2357FC07C0F101E50DF11D57FC88
:10390000FA95108201C0512C66E0C8010E94EE11A8
:10391000882309F447C07601B5E2EB0EF11CC7011C
:103920000E940623C6010E9468198823D9F36EE31A
:103930007BE08A899B890E940126B1018A899B8943
:103940000E94E4256DE27BE08A899B890E94012622
:1039500064E0C8010E94EE118823D9F0C701639684
:103960000FB6F894DEBF0FBECDBFDF91CF911F9190
:103970000F91FF90EF90DF90CF90BF90AF909F900E
:103980008F907F906F905F904F903F902F900C940E
:10399000062365E0C8010E94EE11882319F2C701D1
:1039A0000E941C2330E0F12C10E0212F230FF501A1
:1039B00080814F2DF89E400D11245889450FD40168
:1039C0008C91612F189F600D11245F85650F01E0B8
:1039D0008A899B89398B0E9423171F5F398910318F
:1039E00021F7F394305F88E0F812DECFD4018C9198
:1039F0001AEFB981819FB00D11248B2F8250ED8178
:103A0000FE818083D5018C918F5FBB818B0FEF810D
:103A1000F885808367E27BE08A899B890E94BF25C5
:103A2000D4018C91B981819FB00D11248B2F8250CC
:103A3000ED81FE818083D5018C91880F8E5FBB81E3
:103A40008B0FEF81F885808361E27BE08A899B8917
:103A50000E94BF25D4018C91B981819FB00D1124A2
:103A60008B2F8250ED81FE818083D5018C9190E077
:103A70000196982F990F980FBB819B0FEF81F885C6
:103A800090836BE17BE08A899B890E94BF2560E07F
:103A90008A899B890E948B12D5018C91462D689E44
:103AA000400D11244250BB814B0FF4018081672DE2
:103AB000789E600D11246150F9816F0F27E08A898B
:103AC0009B890E94B61261E08A899B890E948B12B1
:103AD000D5013C91F4012081E22FF0E005E0030FD5
:103AE0002E5FCF01019762E070E00E94122A280F3A
:103AF000462D639E400D112443503B81430F672D9B
:103B00007E9E600D112462505981650FE3E0EE2E18
:103B10008A899B890E9480144EE2D5018C91481BB2
:103B200024E560E08A899B890E94B61260E08A8958
:103B30009B890E948B12F501808101E0080F4FE202
:103B4000481B24E560E08A899B890E94D912AD81D7
:103B5000BE811C9210E3F5018081F12FF81BAF812B
:103B6000B885FC9361E08A899B890E948B12B10120
:103B70008A899B890E94E425F601EF58FF4F8081D6
:103B80009181A281B38187709927AA27BB270497C7
:103B9000A105B10508F0F4CD852D992787FD9095F5
:103BA000ED85FE858E179F070CF0EACDD5018C912F
:103BB000412F481BF4016081569E602D112401E0C5
:103BC0002FE58A899B890E942317DACD0F931F93D3
:103BD000CF93DF938C01EC01C25BDF4FCE010E94DB
:103BE000321265EC7AE0CE010E94BF25CE010E9420
:103BF00043128CB583608CBD8DB58E7F8DBD84E303
:103C000091E0EEEFFFE30995F801EC5AFF4F1082C7
:103C100060EA7AE0CE010E940126CE010E944312A2
:103C2000065F1F4FC8010E94B71164E0C8010E94DF
:103C3000EE11811107C062E370E080E090E00E9425
:103C4000D123F0CFDF91CF911F910F9108952F9243
:103C50003F924F925F926F927F928F929F92AF921C
:103C6000BF92CF92DF92EF92FF920F931F93CF9369
:103C7000DF93CDB7DEB729970FB6F894DEBF0FBE3E
:103C8000CDBF998788871B012A013C0180E7680E18
:103C9000711CF3018081882309F402C181E0E88569
:103CA000F985EA5AFF4F8083E885F985EB5AFF4F83
:103CB0001082E885F985EC5AFF4F1082E885F98576
:103CC000108E8F01025B1F4F61E0C8010E948B12B2
:103CD000888599858D5A9F4F9C838B83C884D9840E
:103CE00097E5C90ED11CE884F984E8E5EE0EF11CD5
:103CF000888599858E5A9F4F9A838983E885F985AF
:103D0000EF58FF4FFE83ED8388849984FAE08F0E8D
:103D1000911CA884B98485E2A80EB11C8885998578
:103D20000E9468198823D1F3F1018491882321F03E
:103D3000EB81FC81508101C050E020E63BE040E097
:103D400060E0C8015F830E9419155F81411451042E
:103D500039F04CE0450F920160E0C8010E9419154E
:103D6000F60110828CE0F7018083B101C8010E9446
:103D7000BF25E981FA819081892F880F890F81956C
:103D80008D5AF6018083EB81FC819081892F880F09
:103D9000890F8195835DF7018083ED81FE818081AC
:103DA00084FF03C06BE57BE002C067E57BE0C801F0
:103DB0000E940126E981FA819081892F880F890F5D
:103DC00081958D5AF6018083F70180818F5F808312
:103DD000E885F98582A5882319F063E57BE002C0B8
:103DE0006FE47BE0C8010E940126E981FA8190819D
:103DF000892F880F890F81958D5AF6018083F701ED
:103E000080818F5F80836BE47BE0C8010E94012684
:103E100065E0C4010E94EE11882351F0E885F98520
:103E200062A56F5FC5010E944823C5010E9432232D
:103E300064E0C4010E94EE11811113C0F3012081DE
:103E4000822F90E0A0E0B0E0ED81FE8140815181C1
:103E500062817381481759076A077B07A8F02F3FD3
:103E600099F08FEFF3018083088519850B5D1F4F53
:103E700060E0C8010E942F21C8010E94062381E052
:103E8000E885F985808F0CC066E0C4010E94EE11C0
:103E9000882309F443CF888599850E94E61D34CF95
:103EA00029960FB6F894DEBF0FBECDBFDF91CF913C
:103EB0001F910F91FF90EF90DF90CF90BF90AF9048
:103EC0009F908F907F906F905F904F903F902F903A
:103ED0000895AB016FE57BE00C94271EE0E8F7E75F
:103EE0002591349181E02130304C09F080E0089533
:103EF000CF93DF93EC010E946E1F9E01275A3F4F24
:103F0000DE01A059BF4F882309F43CC0E6E9F7E77A
:103F10008491F9018083E7E9F7E7E491EC83E8E92C
:103F2000F7E7E491ED83E9E9F7E7859194919F83C1
:103F30008E83EBE9F7E78591949199878887EDE97E
:103F4000F7E7E491EBA7EEE9F7E7E491EAA7EFE9F9
:103F5000F7E7E491EC93E0EAF7E7859194919D8F80
:103F60008C8FE2EAF7E7859194919F8F8E8FE4EA38
:103F7000F7E78591949199A388A3E6EAF7E78591FD
:103F8000949120C08CE3F90180831C822FEF2D8354
:103F900080E293E09F838E8384ED93E09987888706
:103FA00081E08BA78AA72C938CEA9DE09D8F8C8F54
:103FB0008EED9DE09F8F8E8F84E79EE099A388A36E
:103FC0008CE39FE09BA38AA3DF91CF910895CF92CA
:103FD000DF92EF920F93CF93DF93EC01FC01E15856
:103FE000FF4F82E38083349741E050E060E070E06F
:103FF00040835183628373833B978FEF8083CE012D
:104000000E94781FCE010E94FC106FEFCE010E942B
:1040100000116E018AE0C80ED11CC6010E94A711D2
:10402000C6010E94B711CE0148960E9463113EE07E
:10403000E32E0FE020E14BE06DE0CE01825B9F4F6D
:104040000E945F16A596CE010E949B2065E0C601E6
:104050000E94EE11882351F060E0CE01DF91CF91F4
:104060000F91EF90DF90CF900C94482340E060EDEB
:104070007BE0CE01DF91CF910F91EF90DF90CF9059
:104080000C943A21CF93DF9300D0CDB7DEB769838C
:104090007A830E946E1F69817A81882351F0DB0147
:1040A000EBE8F7E784918D933196E53987E7F807D8
:1040B000C9F70F900F90DF91CF910895CF93DF93C1
:1040C00050E0FA01EE0FFF1FE80FF91F3785208936
:1040D000E32FF22FE60FF11DE60FF11D259134912C
:1040E000FA01EE0FFF1FE80FF91F30A3278FF90128
:1040F00065917491FC01D481D69FC02D1124E40FE9
:10410000F51FC1A3F901A591B4916B2F70E0EC2FBD
:10411000F0E0DC01A40FB51F6E177F0720F4F90152
:1041200025913491C32FCD9FC02D11249296CC930D
:10413000DF91CF91089521E0FC01248324E020A7A2
:104140002FE23CE0308B278740E060E00E945E2059
:1041500061E070E083E00E945124E1EBF0E08081B7
:10416000887F81608083F89410928000E1E8F0E01D
:104170001082109285001092840088E191E0909363
:10418000890080938800808188608083808181603D
:104190008083EFE6F0E080818260808378940895E8
:1041A0000F93FC01862F642F011129C08230D1F0BA
:1041B00048F4882391F0813011F540E0CF010F9150
:1041C0000C945E208330A9F08430C9F48481489F28
:1041D000602D1124658F268F12C04B3008F06AE0E5
:1041E000668B0DC08481489F602D1124618F228FC2
:1041F00006C08481489F602D1124638F248F0F9106
:104200000895FC0121110EC0648B8481489F402DCC
:104210001124458B15A214A213A281E0878B8093F1
:104220002904108E089580912904882319F0809123
:10423000260401C080E08093B4000895FC01611160
:104240000DC0178A158A14A213A2108E109226048C
:1042500010922704109229040C9413210895CF93EF
:10426000DF93EC01611103C00E941E211982DF91CE
:10427000CF9108950F931F93CF93DF93EC018B01A0
:1042800041110EC060E00E942F211E870D871B8AFE
:104290001A8A81E0898389E08E8B198E1B8E1D8E90
:1042A000DF91CF911F910F910895CF93DF93EC0190
:1042B000611128C08881882329F18981811122C058
:1042C00089852F819885E22FF92FE80FF11DE80FDE
:1042D000F11D859194918F3F2FEF920711F4188271
:1042E00011C09C879927880F991FEA85FB85E80FE5
:1042F000F91F6591749140E0CE010E943A218985B1
:104300008F5F8987DF91CF91089560E00C945521EC
:1043100060E00C942F210F93CF93DF93EC01611198
:104320005DC08981882309F459C08D89811156C0E7
:104330002D853E858A899B89880F991F820F931F3F
:10434000FC01859194910097D1F48989882321F00B
:104350001B8A1A8AF90111C01982888160E08823BA
:1043600031F0CE010E9455218A899B8925C0CE015A
:10437000DF91CF910F910C941E2185919491BC01F6
:10438000769567957695679580FF1DC0AC01A6E090
:1043900056954795AA95E1F7292F269526952695B6
:1043A00020514F716F7000E0CE010E94D0208A89A9
:1043B0009B8901969B8B8A8B880F991FED85FE85C3
:1043C000E80FF91FDACF492F6F7320E0CE010E946A
:1043D00001218A899B8901969B8B8A8BDF91CF91E2
:1043E0000F91089560E00C948B21CF93DF93EC0143
:1043F0006111B9C08F89882309F4B5C08D898111F5
:1044000005C0CE01DF91CF910C941E2181508D8B80
:104410008DA1811138C08BA19CA101969C01220F16
:10442000331FEF8DF8A1E20FF31F25913491422F36
:1044300047704EA3A90163E0569547956A95E1F749
:10444000BA0176956795232F269526952FA36F732E
:104450002C81629F602D11246DA34170409325042F
:104460009CA38BA329A130E08217930760F08AA157
:10447000882329F0281B31093CA32BA304C060E04A
:10448000CE010E941E218DA181508DA3288D2F5F0A
:10449000288F4C893FA1340F8C85380F3A836B8D60
:1044A000662361F070E0822F992787FD90950E9426
:1044B000122A8C8D869F300D11243A838A8190E0D8
:1044C000CB966BE370E00E94122A8A833E893B837D
:1044D000698D662371F0772767FD7095822F992784
:1044E00087FD90950E94122A8A8D869F300D112497
:1044F0003B836D8D662391F0822F992787FD9095E0
:1045000070E00E94122ACB0162E070E00E94122A41
:104510002E8D9B81289F900D11249B838B814F337F
:1045200039F08A300CF089E087FD80E08B8301C090
:104530001B82F894EA81F0E0E252F44FE491E093B8
:10454000280498A58D81989F802D11249B81899F97
:10455000802D11249EA1899F802D112480932704F2
:10456000809326047894DF91CF91089560E00C94B5
:10457000F52160912704662321F180912A048F5F41
:1045800080932A04909128048917D8F080912904F7
:1045900091E089278093290410922A0480912504B0
:1045A000882369F090912A0183E4989F802D11243B
:1045B000895B80932A010E94F229909326040C942F
:1045C000132108951F920F920FB60F9211242F936B
:1045D0003F934F935F936F937F938F939F93AF938B
:1045E000BF93EF93FF930E94B922FF91EF91BF9188
:1045F000AF919F918F917F916F915F914F913F917B
:104600002F910F900FBE0F901F901895CF93DF93AF
:10461000EC0160E00E942F2187E29CE09E878D875D
:104620001B8A1A8A81E0898389E08E8B198E1B8E02
:104630001D8EDF91CF910895CF93DF93EC0160E061
:104640000E942F218FE19CE09E878D871B8A1A8A0A
:1046500081E0898389E08E8B198E1B8E1D8EDF9100
:10466000CF910895CF93DF93EC0160E00E942F215A
:1046700089E19CE09E878D871B8A1A8A81E0898365
:1046800089E08E8B198E1B8E1D8EDF91CF91089540
:10469000FC01862F992787FD9095668170E06F5FFA
:1046A0007F4F0E94122A85830895FC018581089519
:1046B0001F920F920FB60F9211242F933F938F9357
:1046C0009F93AF93BF9380912C0490912D04A09160
:1046D0002E04B0912F0430912B0423E0230F2D37AB
:1046E00020F40196A11DB11D05C026E8230F0296F6
:1046F000A11DB11D20932B0480932C0490932D04B5
:10470000A0932E04B0932F04809130049091310433
:10471000A0913204B09133040196A11DB11D809384
:10472000300490933104A0933204B0933304BF91CA
:10473000AF919F918F913F912F910F900FBE0F904E
:104740001F9018952FB7F89460912C0470912D0448
:1047500080912E0490912F042FBF08953FB7F894B5
:104760008091300490913104A0913204B0913304CF
:1047700026B5A89B05C02F3F19F00196A11DB11DBC
:104780003FBF6627782F892F9A2F620F711D811DD9
:10479000911D42E0660F771F881F991F4A95D1F738
:1047A0000895CF92DF92EF92FF92CF93DF936B0148
:1047B0007C010E94AE23EB01C114D104E104F10499
:1047C00089F00E94AC270E94AE236C1B7D0B683ED3
:1047D000734090F381E0C81AD108E108F108C8518C
:1047E000DC4FEACFDF91CF91FF90EF90DF90CF9039
:1047F0000895789484B5826084BD84B5816084BD59
:1048000085B5826085BD85B5816085BDEEE6F0E049
:10481000808181608083E1E8F0E0108280818260A5
:104820008083808181608083E0E8F0E08081816026
:104830008083E1EBF0E0808184608083E0EBF0E056
:10484000808181608083EAE7F0E0808184608083FA
:1048500080818260808380818160808380818068A4
:1048600080831092C10008958E3008F08E508770BA
:1048700020912B0190E4299F90011124822B809399
:104880007C0080917A00806480937A0080917A0025
:1048900086FDFCCF809178002091790090E0922BEA
:1048A00008951F93CF93DF93182FEB0161E00E94CF
:1048B000D924209711F460E004C0CF3FD10539F42A
:1048C00061E0812FDF91CF911F910C941225E12F90
:1048D000F0E0E55CF34FE491E330F9F048F4E130C7
:1048E000B9F0E230A1F584B5806284BDC8BD34C0A2
:1048F000E730E9F0E83019F1E43049F580918000C3
:10490000806280938000D0938B00C0938A0024C083
:1049100084B5806884BDC7BD1FC080918000806859
:1049200080938000D0938900C093880015C0809147
:10493000B00080688093B000C093B3000DC0809138
:10494000B00080628093B000C093B40005C0C0384E
:10495000D1050CF0B5CFAFCFDF91CF911F91089566
:10496000833081F028F4813099F08230A1F00895ED
:104970008730A9F08830B9F08430D1F4809180007C
:104980008F7D03C0809180008F7780938000089591
:1049900084B58F7702C084B58F7D84BD08958091E2
:1049A000B0008F7703C08091B0008F7D8093B000FE
:1049B0000895CF93DF9390E0FC01E15BF34F2491E6
:1049C000FC01ED59F34F8491882349F190E0880F61
:1049D000991FFC01E557F34FA591B4918F57934F61
:1049E000FC01C591D4919FB7611108C0F8948C91D6
:1049F000209582238C93888182230AC0623051F4EF
:104A0000F8948C91322F309583238C938881822B5C
:104A1000888304C0F8948C91822B8C939FBFDF9184
:104A2000CF9108950F931F93CF93DF931F92CDB72C
:104A3000DEB7282F30E0F901E55CF34F8491F901EE
:104A4000E15BF34F1491F901ED59F34F0491002309
:104A5000C9F0882321F069830E94B0246981E02F86
:104A6000F0E0EE0FFF1FEF57F34FA591B4919FB702
:104A7000F8948C91611103C01095812301C0812BA2
:104A80008C939FBF0F90DF91CF911F910F9108954D
:104A9000CF93DF93282F30E0F901E55CF34F849149
:104AA000F901E15BF34FD491F901ED59F34FC49152
:104AB000CC2391F081110E94B024EC2FF0E0EE0F96
:104AC000FF1FE958F34FA591B4912C912D2381E05C
:104AD00090E021F480E002C080E090E0DF91CF918F
:104AE000089508950E94F9230E9471250E944D0A9D
:104AF000C0E0D0E00E94B9102097E1F30E940000CE
:104B0000F9CFCF92DF92EF92FF920F931F93CF9343
:104B1000DF936C017A01EB01E60EF71E00E010E076
:104B2000CE15DF0561F06991D601ED91FC91019000
:104B3000F081E02DC6010995080F191FF1CFC801BA
:104B4000DF91CF911F910F91FF90EF90DF90CF9069
:104B500008956115710581F0DB010D900020E9F7E2
:104B6000AD0141505109461B570BDC01ED91FC9101
:104B70000280F381E02D099480E090E00895EF92A7
:104B8000FF920F931F93CF93DF938C01FB01C0E043
:104B9000D0E064917F018FEFE81AF80A662361F094
:104BA000D801ED91FC910190F081E02DC8010995AB
:104BB000C80FD91FF701EDCFCE01DF91CF911F9123
:104BC0000F91FF90EF9008950C94A925DC01ED91D1
:104BD000FC910190F081E02D09940F931F93CF93E6
:104BE000DF93EC016DE00E94E6258C016AE0CE01C6
:104BF0000E94E625800F911FDF91CF911F910F91A9
:104C000008950F931F93CF93DF93EC010E94BF256C
:104C10008C01CE010E94ED25800F911FDF91CF9175
:104C20001F910F9108958F929F92AF92BF92CF9252
:104C3000DF92EF92FF920F931F93CF93DF93CDB745
:104C4000DEB7A1970FB6F894DEBF0FBECDBF7C01D3
:104C5000C42EE52FCB01D22E19A221E02D1510F084
:104C60002AE0D22E8E010F5D1F4F8D2C912CA12C8E
:104C7000B12C6C2D7E2FA50194010E94262A8C2D2B
:104C8000D29E80191124015011098A3014F4805DDC
:104C900001C0895CF801808321153105410551056A
:104CA00021F0C22EE32FCA01E4CFB801C7010E9450
:104CB000A925A1960FB6F894DEBF0FBECDBFDF9138
:104CC000CF911F910F91FF90EF90DF90CF90BF9009
:104CD000AF909F908F900895CF92DF92EF92FF92C6
:104CE0000F931F93CF93DF93EC016A017B01211592
:104CF000310579F4E881F9810190F081E02D642F8C
:104D0000DF91CF911F910F91FF90EF90DF90CF90A7
:104D100009942A303105E9F477FF1AC06DE20E9448
:104D2000E6258C0144275527BA014C195D096E0907
:104D30007F092AE0CE010E941326800F911FDF9188
:104D4000CF911F910F91FF90EF90DF90CF9008953A
:104D50002AE0B701A601CE01DF91CF911F910F91FB
:104D6000FF90EF90DF90CF900C9413269A01AB0147
:104D7000662757FD6095762F0C946C260F931F9332
:104D8000CF93DF93EC019A01AB01662757FD609545
:104D9000762F0E946C268C01CE010E94ED25800F9B
:104DA000911FDF91CF911F910F910895211531052A
:104DB00041F4DC01ED91FC910190F081E02D642F34
:104DC00009940C9413269A01462F50E060E070E09D
:104DD0000C94D6260F931F93CF93DF93EC019A0187
:104DE000462F50E060E070E00E94D6268C01CE0194
:104DF0000E94ED25800F911FDF91CF911F910F91A0
:104E000008959A01AB0160E070E00C94D6260F93F0
:104E10001F93CF93DF93EC019A01AB0160E070E048
:104E20000E94D6268C01CE010E94ED25800F911F95
:104E3000DF91CF911F910F910895009729F0BC0148
:104E400080E090E00C94DB2A0895CF93DF9300D0AC
:104E500000D0CDB7DEB79B01AC01611571058105AE
:104E6000910569F069833A834B835C830E94D62A5B
:104E700029813A814B815C810E94482A03C060E00D
:104E800070E0CB010F900F900F900F90DF91CF91BA
:104E90000895CF92DF92EF92FF926B017C0162172F
:104EA00073078407950764F4CA01B9016C197D0979
:104EB0008E099F090E9425276C0D7D1D8E1D9F1D4B
:104EC000FF90EF90DF90CF9008954F925F926F9296
:104ED0007F92AF92BF92CF92DF92EF92FF920F93A9
:104EE0001F93CF93DF93CDB7DEB729013A01621B41
:104EF000730B840B950B29893A894B895C892A1994
:104F00003B094C095D09298B3A8B4B8B5C8B9B01D0
:104F1000AC0169897A898B899C890E94E229E4180D
:104F2000F50806091709A80197010E94482A2A0DC9
:104F30003B1D4C1D5D1DCA01B901DF91CF911F9131
:104F40000F91FF90EF90DF90CF90BF90AF907F9048
:104F50006F905F904F90089508955058BB27AA27EF
:104F60000ED034C1FDD030F002D120F031F49F3F9B
:104F700011F41EF4F2C00EF4E095E7FBE8C0E92F4F
:104F800047D180F3BA17620773078407950718F0B3
:104F900071F49EF55FC10EF4E0950B2EBA2FA02D93
:104FA0000B01B90190010C01CA01A0011124FF27D6
:104FB000591B99F0593F50F4503E68F11A16F040D1
:104FC000A22F232F342F4427585FF3CF46953795D0
:104FD0002795A795F0405395C9F77EF41F16BA0B95
:104FE000620B730B840BBAF09150A1F0FF0FBB1F43
:104FF000661F771F881FC2F70EC0BA0F621F731F8C
:10500000841F48F4879577956795B795F7959E3FE8
:1050100008F0B3CF9395880F08F09927EE0F979576
:1050200087950895ACD0E395E2C004D06894B1119F
:1050300012C10895F5D088F09F5790F0B92F9927A5
:10504000B751A0F0D1F0660F771F881F991F1AF093
:10505000BA95C9F712C0B13081F0FCD0B1E0089523
:10506000F9C0672F782F8827B85F39F0B93FCCF3A4
:10507000869577956795B395D9F73EF49095809589
:10508000709561957F4F8F4F9F4F0895E89409C0A9
:1050900097FB3EF490958095709561957F4F8F4F6B
:1050A0009F4F9923A9F0F92F96E9BB279395F69581
:1050B000879577956795B795F111F8CFFAF4BB0FFF
:1050C00011F460FF1BC06F5F7F4F8F4F9F4F16C063
:1050D000882311F096E911C0772321F09EE8872FED
:1050E000762F05C0662371F096E8862F70E060E0A9
:1050F0002AF09A95660F771F881FDAF7880F969522
:10510000879597F90895990F0008550FAA0BE0E8C5
:10511000FEEF16161706E807F907C0F01216130679
:10512000E407F50798F0621B730B840B950B39F4B9
:105130000A2661F0232B242B252B21F408950A261F
:1051400009F4A140A6958FEF811D811D089597F95F
:105150009F6780E870E060E008959FEF80EC08951D
:1051600000240A9416161706180609060895002446
:105170000A9412161306140605060895EECF50D0B1
:10518000E8F3E894E0E0BB279F57F0F02AED3FE01A
:1051900049EC06C0EE0FBB0F661F771F881F28F073
:1051A000B23A62077307840728F0B25A620B730B96
:1051B000840BE3959A9572F7803830F49A95BB0F7B
:1051C000661F771F881FD2F79048BAC0092E039434
:1051D000000C11F4882352F0BB0F40F4BF2B11F4E4
:1051E00060FF04C06F5F7F4F8F4F9F4F0895EF9315
:1051F000E0FF06C0A2EA2AED3FE049EC5FEBBFDE2C
:10520000E5DF0F90039401FC9058E8E6F0E0A4C0BD
:1052100057FD9058440F551F59F05F3F71F0479567
:10522000880F97FB991F61F09F3F79F0879508954C
:10523000121613061406551FF2CF4695F1DF08C06B
:10524000161617061806991FF1CF86957105610588
:1052500008940895E894BB2766277727CB0197F930
:10526000089551DF08F48FEF08950BD0AFCF78DFAA
:1052700028F07DDF18F0952309F069CF6ECF112457
:10528000EACFC6DFA0F3959FD1F3950F50E0551FED
:10529000629FF001729FBB27F00DB11D639FAA278B
:1052A000F00DB11DAA1F649F6627B00DA11D661FDA
:1052B000829F2227B00DA11D621F739FB00DA11DFB
:1052C000621F839FA00D611D221F749F3327A00DB5
:1052D000611D231F849F600D211D822F762F6A2F51
:1052E00011249F5750408AF0E1F088234AF0EE0FD6
:1052F000FF1FBB1F661F771F881F91505040A9F7E3
:105300009E3F510570F023CFA6CF5F3FECF3983E50
:10531000DCF3869577956795B795F795E7959F5F49
:10532000C1F7FE2B880F911D9695879597F90895E3
:105330009F9325DF0F9007FCEE5F59CF9F3F31F021
:10534000915020F4879577956795B795880F911DB3
:105350009695879597F908959F938F937F936F9371
:10536000FF93EF939B01AC0180DFEF91FF9105D09C
:105370002F913F914F915F9178CFDF93CF931F9300
:105380000F93FF92EF92DF927B018C01689405C02E
:10539000DA2EEF0176DFFE01E894A5912591359193
:1053A00045915591AEF3EF01EADDFE019701A801A9
:1053B000DA9479F7DF90EF90FF900F911F91CF91E2
:1053C000DF910895DB018F939F930E94672ABF911D
:1053D000AF91A29F800D911DA39F900DB29F900D44
:1053E00011240895991B79E004C0991F961708F0BD
:1053F000961B881F7A95C9F780950895AA1BBB1B39
:1054000051E107C0AA1FBB1FA617B70710F0A61BC4
:10541000B70B881F991F5A95A9F780959095BC01E5
:10542000CD01089597FB072E16F4009407D077FD61
:1054300009D00E94FE2907FC05D03EF49095819585
:105440009F4F0895709561957F4F0895A1E21A2EA0
:10545000AA1BBB1BFD010DC0AA1FBB1FEE1FFF1F18
:10546000A217B307E407F50720F0A21BB30BE40B68
:10547000F50B661F771F881F991F1A9469F76095AF
:105480007095809590959B01AC01BD01CF01089569
:10549000052E97FB1EF400940E945F2A57FD07D04B
:1054A0000E94262A07FC03D04EF40C945F2A5095E4
:1054B0004095309521953F4F4F4F5F4F0895909500
:1054C0008095709561957F4F8F4F9F4F08950E94F3
:1054D000782AA59F900DB49F900DA49F800D911DDB
:1054E00011240895EE0FFF1F0590F491E02D09940B
:1054F000A29FB001B39FC001A39F700D811D112415
:10550000911DB29F700D811D1124911D08958F92E0
:105510009F92AF92BF92CF92DF92EF92FF92CF9382
:10552000DF93EC01688179818A819B816115710526
:105530008105910521F464E279ED8BE597E02DE199
:1055400033EF41E050E00E94482A49015A019B0193
:10555000AC01A7EAB1E40E94672A6B017C01ACEEC2
:10556000B4EFA50194010E94042BC60ED71EE81EBD
:10557000F91EF7FE06C081E0C81AD108E10880E8EC
:10558000F80AC882D982EA82FB82C701B6019F77F6
:10559000DF91CF91FF90EF90DF90CF90BF90AF90D1
:1055A0009F908F9008950E94872A089586E091E049
:1055B0000E94872A089560930601709307018093E3
:1055C0000801909309010895FB01DC0101900D92FF
:1055D0000020E1F70895F999FECF92BD81BDF89AB8
:1055E000992780B50895262FF999FECF1FBA92BD4D
:1055F00081BD20BD0FB6F894FA9AF99A0FBE0196B4
:105600000895B7FF0C94672A0E94672A821B930BA8
:065610000895F894FFCF9D
:10561600000034048000010000000705E504C3040F
:10562600A1047F045D043B041904F703D503B30307
:1056360091036F034D032B030903010100000000D2
:0C564600C91781254C4F4144455200001B
:00000001FF
