:100000000C94F10A0C94190B0C94190B0C94190B09
:100010000C94190B0C94190B0C94190B0C94190BD0
:100020000C94190B0C94190B0C94190B0C9493242D
:100030000C94190B0C94190B0C94190B0C94190BB0
:100040000C94F0240C94190B0C94190B0C94190BB0
:100050000C94190B0C94190B0C94190B0C94190B90
:100060000C94190B0C94190B9E0FA20FA60FAA0F3C
:10007000AE0FB20FB60FBA0FBE0F0110C20FC60FF0
:10008000CA0FCE0FD20FD60FDA0FDE0FE20FE60F38
:10009000EA0FEE0FF20FF60FFA0F5830FFFFFFFFD7
:1000A000FFFFFFFFFFFFFFFFFFFFFFFFFFFFFFFF60
:1000B000FFFFFFFFFFFFFFFFFFFFFFFFFFFFFFFF50
:1000C000FFFFFFFFFFFFFFFFFFFFFFFFFFFFFFFF40
:1000D000FFFFFFFFFFFFFE000003FFFFFFFFFFFF2B
:1000E000FFFE000003FFFFFFFFFFFFFFFEC0606396
:1000F000FFFFFFFFFFFFFFFE402013FFFFFFFFFF9B
:10010000FFFFFE452023FFFFFFFFFFFFFFFE5520FF
:1001100013FFFFFFFFFFFFFFFEF22863FFFFFFFF5C
:10012000FFFFFFFE000003FFFFFFFFFFFFFFFE00DA
:100130000003FFFFFFFFFFFFFFFFFFFFFFFFFFFFCA
:10014000FFFFFFFFFFFFFFFFFFFFFFFFFFFFFFFFBF
:10015000FFFFFFFFFFFFFFFFFFFFFFFFFFFFFFFFAF
:10016000FFFF9088408007410A8BE3F29FA0842024
:10017000801AC20C51FFF45FC082108075640820A1
:10018000BE083F80810F80AAB80C5145143F808083
:1001900084807FF00A8A28A3FF81E0C2800840099A
:1001A000041047DFC213A1007FFC3E8A28BFBFFFB7
:1001B000FF10808002415145FC1FBC0C0840BFFA73
:1001C0005D2083FFFF84080420A00A55515F9C1F17
:1001D00084080210A00A558A7E2A3F87F80108A0E9
:1001E0000A5507F9495F840803FEA00A558F8888DD
:1001F0009F84080202BFFA5D7F49495F83F00202D3
:10020000800241FA2A2A3F80000202800241CC1C6F
:100210001C1FFFFFFFFFFFFFFFFFFFFFFF8000002E
:10022000000000000000001F80000000000000002F
:1002300000001F800000000000000000001F800080
:1002400000000000000000001FFFFFFFFFFFFFFF96
:10025000FFFFFFFFFFFFFFFFFFFFFFFFFFFFFFFFAE
:10026000FFFFFFFFFFFFFFFFFFFFFFFFFFFFFFFF9E
:10027000FFFFFFFFFFFFFFFFFFFFFFFFFFFFFFFF8E
:10028000FFFFFFFFFFFFFFFFFFFFFFFFFFFFFFFF7E
:10029000FFFFFFFFFFFFFFFFFFFFFFFFFFFFFFFF6E
:1002A000FFFFFFFFFFFFFFFFFFFFFFFF5830FFFFD4
:1002B000FFFFFFFFFFFFFFFFFFFFFFFFFFFFFFFF4E
:1002C000FFFFFFFFFFFFFFFFFFFFFFFFFFFFFFFF3E
:1002D000FFFFFFFFFFFFFFFFFFFFFFFFFFFFFFFF2E
:1002E000FFFFFFFFFFFFFFFFFC000003FFFFFFFF1B
:1002F000FFFFFFFC000003FFFFFFFFFFFFFFFCC04D
:100300006063FFFFFFFFFFFFFFFC402013FFFFFFC5
:10031000FFFFFFFFFC452023FFFFFFFFFFFFFFFC68
:10032000552043FFFFFFFFFFFFFFFCF22873FFFF95
:10033000FFFFFFFFFFFC000003FFFFFFFFFFFFFFCA
:10034000FC000003FFFFFFFFFFFFFFFFFFFFFFFFBA
:10035000FFFFFFFFFFFFFFFFFFFFFFFFFFFFFFFFAD
:10036000FFFFFFFFFFFFFFFFFFFFFFFFFFFFFFFF9D
:10037000FFFFFFFFD55521000000000003555FAAD5
:10038000AB40800000000002AABFD555FFC00000AE
:10039000000003555FAAAB40800000000003AABF25
:1003A000D5554E80000400000154DFAAAB4E80FEFC
:1003B0000A000001ACBFD3554EC1AA0A0000015487
:1003C000DFB18A4EBEAA0F800001ACBFD8367FAA2B
:1003D000FE1FC00000DDDFAC6C4AEBFE14E0000045
:1003E00039BFD4D84EBE82387000FE097FECF04A87
:1003F0008082283801FE091FBC804E8082701C005C
:1004000084091F84804A8082500E03FE089F8480E6
:100410004E8082E007E7FE189F84804A8082A00316
:10042000C294105FFFFFFFFFFFFFFFFFFFFFFF8092
:100430000000000000000000001F8000000000001D
:10044000000000001F800000000000000000001FEE
:10045000800000000000000000001FFFFFFFFFFF02
:10046000FFFFFFFFFFFFFFFFFFFFFFFFFFFFFFFF9C
:10047000FFFFFFFFFFFFFFFFFFFFFFFFFFFFFFFF8C
:10048000FFFFFFFFFFFFFFFFFFFFFFFFFFFFFFFF7C
:10049000FFFFFFFFFFFFFFFFFFFFFFFFFFFFFFFF6C
:1004A000FFFFFFFFFFFFFFFFFFFFFFFFFFFFFFFF5C
:1004B000FFFFFFFFFFFFFFFFFFFFFFFFFFFF5830C2
:1004C000FFFFFFFFFFFFFFFFFFFFFFFFFFFFFFFF3C
:1004D000FFFFFFFFFFFFFFFFFFFFFFFFFFFFFFFF2C
:1004E000FFFFFFFFFFFFFFFFFFFFFFFFFFFFFFFF1C
:1004F000FFFFFFFFFFFFFFFFFFFFFC000003FFFF09
:10050000FFFFFFFFFFFC000003FFFFFFFFFFFFFFF8
:10051000FCC06023FFFFFFFFFFFFFFFC402063FFE5
:10052000FFFFFFFFFFFFFC452023FFFFFFFFFFFF53
:10053000FFFC552023FFFFFFFFFFFFFFFCF22873A6
:10054000FFFFFFFFFFFFFFFC000003FFFFFFFFFFB8
:10055000FFFFFC000003FFFFFFFFFFFFFFFFFFFFA8
:10056000FFFFFFFFFFFFFFFFFFFFFFFFFFFFFFFF9B
:10057000FFFFFFFFFFFFFFFFFFFFFFFFFFFFFFFF8B
:10058000FFFFFFFFFFFFA800000527F3F92200048B
:100590005FA80000052000012200045FBC00000FDE
:1005A00027F3F91C00039FA4FE1FC92412090800A9
:1005B000011FA48210492412090800011FB88210EB
:1005C00047241209083F811FA882104524120908F8
:1005D00040411FA88210452FFFFD0883A11FBC8248
:1005E000104F280C050884611FA5FF104927F3F957
:1005F00008FFE11FA50111492000010900111FB8E2
:10060000FE1147200601096AD11FA80010452003EA
:10061000811D75D39FA8001045200F811D00139FD9
:10062000BC00104F21FF011CFFE39FA400104921D3
:10063000FFC11CC0639FFFFFFFFFFC9DAFFFFFFFDB
:10064000FF8000000001FD200000001F800000006E
:100650000060C00000001F800000000000000000DB
:10066000001F800000000000000000001FFFFFFFCF
:10067000FFFFFFFFFFFFFFFFFFFFFFFFFFFFFFFF8A
:10068000FFFFFFFFFFFFFFFFFFFFFFFFFFFFFFFF7A
:10069000FFFFFFFFFFFFFFFFFFFFFFFFFFFFFFFF6A
:1006A000FFFFFFFFFFFFFFFFFFFFFFFFFFFFFFFF5A
:1006B000FFFFFFFFFFFFFFFFFFFFFFFFFFFFFFFF4A
:1006C000FFFFFFFFFFFFFFFFFFFFFFFFFFFFFFFF3A
:1006D0005830FFFFFFFFFFFFFFFFFFFFFFFFFFFFA0
:1006E000FFFFFFFFFFFFFFFFFFFFFFFFFFFFFFFF1A
:1006F000FFFFFFFFFFFFC7FFFFFFFFFFFFFFFFFF42
:10070000FF83FFFFFFFFFFFFFFFFFFFF9BFFFFFFD9
:10071000FFFFFFFFFFFFFFCDFFFFFFFFFFFFFFFF1B
:10072000FFFFE3FFFFFFFFFFFFFFFFFFFFD7FFFF1D
:10073000FFFFFFFFFFFFFFFFFBFFFFFFFFFFFFFFCD
:10074000FFFFFFFBFFFFFFFFFFFFFFFFFFFFFBFFC1
:10075000FFFFFFFFFFFFFFFFFFF7FFFFFFFFFFFFB1
:10076000FFFFFFFFFD7FFFFFFFFFFFFFFFFFFFFD1D
:100770007FFFFFFFFFFFFFFFFFFFA92FFFFE00002E
:10078000003FFFFFFFF3C7FFFE7731783FFFFFFE1B
:10079000FD87FFFE829B203FFFFFFD6F97FFFE82DC
:1007A00095303FFFFFFD2713FFFE9391203FFFFF92
:1007B000F9211BFFFE76B1783FFFFFFB3113FFFEEF
:1007C0000000003FFFFFF93913FFFE0000003FFF6C
:1007D000FFF9A535FFFE0000003FFFFFF1A139FF43
:1007E000FE0000003FFFFFE3A37AFFFE0322F73F76
:1007F000FFFFF32119FFFE04A242BFFFFFEF419E5E
:10080000FFFE049462BFFFFFAE488E7FFE04944358
:100810003FFFFF2E50CF3FFE0308F6BFFFFEFEE076
:100820004FBFFE0000003FFFFCFCE4679FFFFFFF9F
:10083000FFFFFFFD7DDEE75FFFFFFFFFFFFFFBFD2B
:10084000FF76DFFFFFFFFFFFFFFBFF7FFFDFFFFF05
:10085000FFFFFFFFFDFE3F9FBFFFFFFFFFFFFFFF0B
:10086000FE3F0FFFFFFFFFFFFFFFFFFC3F8FFFFF7C
:10087000FFFFFFFFFFFFFC3F8FFFFFFFFFFFFFFFBB
:10088000FFFC7FC7FFFFFFFFFFFFFFFFF27FEBFFD4
:10089000FFFFFFFFFFFFFFC0FFFDFFFFFFFFFFFFA9
:1008A000FFFFCCFFF6FFFFFFFFFFFFFFFFBFFFFFD4
:1008B000FFFFFFFFFFFFFFFFFFFFFDFFFFFFFFFF4A
:1008C000FFFFFFFFFFFFFFFFFFFFFFFFFFFFFFFF38
:1008D000FFFFFFFFFFFFFFFFFFFFFFFFFFFFFFFF28
:1008E000FFFF5830FFFFFFFFFFFFFFFFFFFFFFFC91
:1008F0003FFFFFFFFFFFFFFFFFFFF81FFFFFFFFFAF
:10090000FFFFFFFFFFF027FFFFFFFFFFFFFFFFFFDE
:10091000F043FFFFFFFFFFFFFFFFFFF71FFF3FFF5A
:10092000FFFFFFC0FEFFF01FFFFFFFFFFFFF81FC87
:10093000EFF01FFFCFFFFFFFFF83CDFFF83FFFFF6B
:10094000FDFFFFFF85FF8FF87FFFFFCBFFFFFF87D6
:10095000EFFFFCFFFF000F3FFFFF22FDFFF40C0045
:10096000700DF3FFFF80FBFFE3800303FEFC7FFFBE
:1009700081FEFFC3C0055FFFE0000002FFBFC7A309
:10098000FE3FFFE0000001FFFFC387FC7FFFE800A0
:100990000000FFFFC38FFC7FFFF8000000FFFFC3D4
:1009A000CFFFFFFFFE3F0000FFFFC3CFFFFFFFFFB2
:1009B000C03000FFFFC3CFFFFFFFFFBC0000FFFF01
:1009C00083CFFFFFFFFC000000FFFF83C7FFFFFF97
:1009D000F8000001FFFF83C7FFFFFFFA000001FFDF
:1009E000FF93C7FFFFFFFE118000FFFF83C7FFFFDC
:1009F000FFFFC72001FFFFDBC7FFFFFFFFFFF00086
:100A0000FFFF87E7FFFFFFFFFFE000FFFFC01FFFC3
:100A1000FFFFEFFFC007FFFFF81FFFFFFFFFFF0013
:100A200007FFFFE01FFFFFFFFFFF0007FFFFE01FC3
:100A3000FFFFFFFFFF0007FFFFF41FFFFFFFFFFFA8
:100A40000007FFFFE01FFFFFFFFFFF0003FFFFFFA7
:100A5000FFFFFFFFFFFFFFFFFFFF80000000000020
:100A6000000000001F800000000000000000001FC8
:100A7000873327739F6D8E7DCCC91F8849A8295560
:100A800024855492691F8849682944248510925905
:100A90001F88496931C424A71092581F8733276BD8
:100AA0004E19ED39CCC91F80000000000000000085
:100AB000001F800000000000000000001FFFFFFF7B
:100AC000FFFFFFFFFFFFFFFFFFFFFFFFFFFFFFFF36
:100AD000FFFFFFFFFFFFFFFFFFFFFFFFFFFFFFFF26
:100AE000FFFFFFFFFFFFFFFFFFFFFFFFFFFFFFFF16
:100AF000FFFFFFFF4823000000000000000000008F
:100B000000000000000000000000000000000000E5
:100B1000000001C004018000000000004004420009
:100B200000000000008DA703128D80000001155504
:100B300042245500000001D9564192D8800000009F
:100B400000000020100000000FFFFFFFFFD7F000A3
:100B50000000000000000000000000000000000095
:100B60000000000000000000000000000000000085
:100B70000000000000000000000000000000000075
:100B8000000000007E000001500000000081000015
:100B900003E3000000008080000451F0000007FF24
:100BA00080000C89F800000083800F140B84000083
:100BB00000D38018998B0000000081802A519A2F61
:100BC000800000B88031D4091F80000099002DD426
:100BD000693D40000041002048F0B8C002023E00DC
:100BE0001747E1AA4003FC17801683C1E1C0003F0C
:100BF000F9C01107F9F380001C22E01A0FE5EF009D
:100C00000007FCE03FCBD5DE00000614E03F2C9946
:100C1000DA40000016E03FBF83FD80000013E03E95
:100C20005F83FE40000008407E1F83BE0000000876
:100C300040102C0000000000000000000000000038
:100C40000000003AB813B012B80000399831543996
:100C5000580000000000000000000000000000003C
:100C60000000000000000000000000000000000084
:100C70000000000000000000000000000000000074
:100C8000000000000000000000FFFF180D008000C1
:100C900001400001400001F00003F800029C000741
:100CA0000E000507000E03800A01C01C00FC1400A2
:100CB00078FFFFFF10090004000E01B001C003809F
:100CC0002D80718003C0FFFF18130C00001200007C
:100CD0003F0000408000FFC0004080004E80004E7A
:100CE00080FE4EC1AA4EBEAA7FAAFE4AEBFE4EBEB1
:100CF000824A80824E80824A80824E80824A8082EE
:100D0000FFFFFF100A03FC040407FC02081FFC207D
:100D1000043FFC12481248FFFF0813387C44444447
:100D200038101010101010101038383838FF100A12
:100D30003FC020203FE010403FF821043FFC124814
:100D40001248FFFF1813D55555AAAAABD55556AA78
:100D5000AAAAD55556EAAAAA5553566AB2AA555315
:100D6000566AB2AC3577580FA6B00025E0002400D3
:100D7000002400002200006200004100FFFFFF1875
:100D800013D55555AAAAABD55555AAAAABD55555D5
:100D9000AAAAABD55555AAAAABD535556B18AA3515
:100DA00083561AC6AC0D4D7806CFC003C800004864
:100DB00000004800004800FFFFFF181300FF001F5D
:100DC00000F8204E042EAAE42AEC842CAA842800E1
:100DD0006420FF043F00FC30000C30000C78001E43
:100DE000FC003F4800124800124800124800124818
:100DF0000012FFFFFF28131554002AA83FFDC03F33
:100E0000FC7FFC01BFFEFFFC243FFFFFFC7E3FFF99
:100E10004004FF2002439DFFA03A64440030024A90
:100E2000A47E27E249248108124EE500800A492564
:100E3000668C0A4924660C8A492CFF3C62492500CD
:100E4000AC524FE566AFCA700500A00A401FFFFF15
:100E5000FEFFFFFFFFFF38130A8E001E8A23FC09E6
:100E6000070079041FE80A8BE3F28A7F080C51FF20
:100E7000F453FC180820BE082FCA280C5145143F13
:100E800049480A8A28A3F8888809041047C94948AC
:100E90003E8A28BFAA2A28415145FC1C1C185D2007
:100EA00083FFFFFFF855515F9C1C1C18558A7E2A52
:100EB0002A2A285507F949494948558F888888883A
:100EC000885D7F494949494841FA2A2A2A2A284106
:100ED000CC1C1C1C1C18FFFFFFFFFFFFFF10131F83
:100EE000F02AA840047FFC3FF87FFC40043FF8084C
:100EF00020FFFE8002BFFAA00AA00AA00ABFFA8063
:100F0000028002FFFF101378003FC06AB855576A8D
:100F1000B83FC0784008407FFC8002BFFAA00AA01A
:100F20000AA00AA00ABFFA80028002FFFF10130085
:100F300071018F07411AC27564AAB87FF008407F1B
:100F4000FC8002BFFAA00AA00AA00AA00ABFFA8089
:100F5000028002FFFF3013040884A1210004090865
:100F600090FF8007FA10884080040C2084208004C1
:100F7000184082108003F080810F8000210080845F
:100F800080004301E0C2800085C213A1000108FF78
:100F9000FF108002103C0C084004200408042008C4
:100FA0004004080210108007F801087FC0040803FD
:100FB000FE404004080202404003F00202404000AC
:100FC000000202FFFFFFFFFFFF101303C004200415
:100FD000100808080808041004100410081008106D
:100FE000100810041003E00140014001400140FFDF
:100FF000FF201300841080010220400102204001E4
:10100000394E400145514001455140028360A002E4
:101010008360A00201C0200201C0200200802002E3
:1010200003E02000041000000410003FFFFFFC203C
:101030000000041C00003808000010FFFFFFFF083C
:1010400001FF20133800001C7C00003E44000022F9
:10105000440000223800001C1000000810000008A6
:10106000107F000810808008110740081108C00890
:1010700011FFC0081200200812D5A0083AEBA01CEE
:101080003A00201C39FFC01C3980C01CFFFFFFFF45
:1010900018155FFFFA50180A4FE7F24000024FE7B9
:1010A000F24824124824124824124824125FFFFAFE
:1010B00050180A4FE7F2400002400C02400702407D
:1010C0001F0243FE0243FF82F93B5F03FA4000C167
:1010D0008020134006AA82400EBFC2401AA04240A0
:1010E0003ADF82406AA00240EB400241AA9FC2431D
:1010F000AD104246AA11424EB412425AA814425AA6
:10110000D011424AA012424B4014424A8010424D34
:10111000001FC24A00000254000002FFFFFFFF1838
:10112000154000024FE7F2482412482412482412C6
:101130004824124824124FE7F240000240000240C7
:10114000000240000243F8024444024442024FFFBE
:10115000825000425606C2F9097F19F9C0060600FE
:1011600020137200004E51FFFF8A5000000A7BFFDF
:10117000DFDE4A0050524A0450527208504E52105C
:10118000504A5204504A7A08505E4A1050524A005F
:1011900058527200504E53FFD04A5000104A780007
:1011A000105E4800105248001052FFFFFFFF20134E
:1011B00048000012480000125000000A5000000AC7
:1011C0007800001E49FC3F92490420927104208E51
:1011D0005104208A5104208A7904209E4BFE2092DB
:1011E0004A02229271FC228E5000208A5000208AEE
:1011F0007800209E48002092FFFFFFFF102C000087
:1012000000000000000000000000000000000C884A
:10121000114815400D88000000000000000000008B
:1012200000000000000000000000000000000000BE
:1012300000000000000000000000000000000000AE
:10124000000000000000000000000000000000009E
:1012500000000000FFFF08068080C0C0E0600803B7
:101260003EF86008034040600803A0A0F0080A3878
:101270007E7C7C381038383838080471FAAFFF08A3
:10128000127CFEFEB6FEFEAB577F3FFFFF7F3F3F67
:10129000337777080D1C3E3E0E1C0E7E1E0E0E0A86
:1012A0000A1E080A1C1C1C083C1C0C1C16320305D8
:1012B0003F213F1208120A100A0E1C0E0C1E0C14BD
:1012C0001A14161F161E131E1E1B1E1E1F1E3F2144
:1012D0003F3A2F3A173D173F213F181F02040A04D7
:1012E0001F0E04040E1F0A1F0A0E0E1F04110E2EDD
:1012F000252E2F2A2E262929021F02081F08150E27
:1013000004040E150E15151B151B040604040C040D
:101310000000000017000300031F0A1F16371A19E8
:1013200004130A153A000300000E11110E000A04FE
:101330000A040E0400300004040400100018040322
:101340001F111F121F101D151711151F07041F173E
:10135000151D1F151D01011F1F151F17151F000A41
:1013600000003200040A110A0A0A110A04011502D7
:101370000E11171E051E1F150A0E110A1F110E1F32
:1013800015111F05010E111D1F041F111F1108103B
:101390000F1F041B1F10101F061F1E040F0E110E1F
:1013A0001F09060E112E1F051A121509011F011F14
:1013B000101F0F180F1F0C1F1B041B031C031915F4
:1013C00013001F11030418111F0002010220202026
:1013D0000001020C121E1F120C0C12120C121F0C18
:1013E0001A14041E05242A1E1F021C141D1020207E
:1013F0001D1F0814111F101E041E1E021C0C120CAF
:101400003E0A040C123E1E040214160A020F120EAB
:10141000101E0E100E1E081E120C1226281E322A36
:1014200026041E21001F00211E040102013F213F4E
:101430000A4E6F2053442063617264206F720A6EFB
:101440006F204C4F414445522E4845580A0A153AE0
:1014500045786974001D20466C617368696E670A7F
:1014600020206C6F616465722E2E2E0A0A444F4E46
:101470002754205455524E204F464621006D560A9F
:101480000A504C454153450A5455524E204F46464A
:10149000004C4F5720424154544552590A001753AB
:1014A00044001613780016131400151020001520A0
:1014B000100000540A03E181867F3E186D830F0FF0
:1014C0000E0183866033186DC3198F1803C38E60B5
:1014D00033186DE330CF1803C39E603630CDE36020
:1014E000CF3006C79E7E3E30CDB360CF300CC6F6FF
:1014F000603330D9B660CF33CFCCF66061B0DB1E3D
:1015000060CF30D86CE6C061B0DB1E618F19986C7B
:10151000C6C063B19B0E330F0FB078C6FF7E1F1B92
:10152000061E0F0500893008023802497868140049
:1015300000F6E8DBCFC3B8AEA49B928A827B746EC0
:1015400068625C57524E4945413E3A3734312E2C41
:1015500029272523211F1D1C1A19171615141312CC
:1015600011100F0E0D0C0B0A090807064500680143
:101570000000050038016801000082157E15010198
:10158000FF030101F703000000080002010000034F
:101590000407000000000000000001020408102001
:1015A00040800102040810200102040810200404F5
:1015B00004040404040402020202020203030303FB
:1015C00003030000000023002600290000000000A3
:1015D000250028002B0000000000240027002A001E
:1015E000A81611241FBECFEFD8E0DEBFCDBF11E09B
:1015F000A0E0B1E0E8E3F6E502C005900D92A83A5C
:10160000B107D9F727E0A8EAB1E001C01D92AC36D6
:10161000B207E1F715E1C2EED5E104C02297FE0161
:101620000E94972AC03ED107C9F70E940A270C944E
:101630001A2B0C940000CF92DF92EF92FF920F933F
:101640001F93CF93DF931092F6048091DC04909166
:10165000DD0401969093DD048093DC0461E070E08A
:101660007093DB046093DA041092D9041092D804CA
:101670001092D7041092D6041092D5041092D4047C
:101680001092D3041092D2041092D1041092D0047C
:1016900040E250E05093CF044093CE041092CD042A
:1016A0001092CC0470937B0460937A0410927904B6
:1016B0001092780410927704109276045093750477
:1016C00040937404E2E0F0E0F0937304E09372045A
:1016D000109271041092700426E030E030936F0491
:1016E00020936E0410926D0410926C04A1E0A093FC
:1016F0006B0410926A0410926904109268041092AC
:1017000067041092660470936504609364048130EA
:10171000910509F065C044E150E05093CD04409339
:10172000CC0445E050E05093690440936804509322
:1017300067044093660490937D0480937C04F09347
:101740007F04E0937E0463E070E070938104609313
:101750008004A4E0B0E0B0938304A093820450938B
:101760008504409384043093870420938604709307
:10177000890460938804B0938B04A0938A045093E7
:101780008D0440938C04F0938F04E0938E04309387
:101790009104209390049093930480939204B093C7
:1017A0009504A093940470939704609396045093C7
:1017B00099044093980430939B0420939A04F093E7
:1017C0009D04E0939C0490939F0480939E047093E7
:1017D000A1046093A0043093A3042093A20468C1E1
:1017E0008230910509F0B7C084E290E09093CD0477
:1017F0008093CC04E8E0F0E0F0936904E09368049F
:10180000F0936704E093660481E190E090937D0497
:1018100080937C04A2E1B0E0B0937F04A0937E04A7
:10182000C3E1D0E0D0938104C093800425E130E08F
:10183000309383042093820444E150E05093850464
:1018400040938404F0938704E093860406E110E05B
:10185000109389040093880430938B0420938A04A6
:10186000D0938D04C0938C04B0938F04A0938E0406
:1018700030939104209390045093930440939204E6
:1018800088E190E0909395048093940487E190E040
:10189000909397048093960489E190E09093990443
:1018A0008093980410939B0400939A0430939D04B2
:1018B00020939C0469E070E070939F0460939E0401
:1018C0005093A1044093A00487E090E09093A30478
:1018D0008093A2047093A5046093A4049093A7043A
:1018E0008093A6041093A9040093A8047093AB04FA
:1018F0006093AA04F093AD04E093AC047093AF043A
:101900006093AE045093B1044093B0049093B30439
:101910008093B2043093B5042093B404D093B704F9
:10192000C093B604B093B904A093B8043093BB0439
:101930002093BA045093BD044093BC049093BF0419
:101940008093BE049093C1048093C0049093C30419
:101950008093C204ADC0039709F0AAC05093CD0490
:101960004093CC048AE090E09093690480936804EB
:10197000909367048093660489E090E090937D04DF
:1019800080937C0490937F0480937E0490938104E1
:101990008093800421E130E030938304209382041B
:1019A00090938504809384049093870480938604A5
:1019B000909389048093880425E130E030938B0470
:1019C00020938A0447E050E050938D0440938C04A8
:1019D0006BE070E070938F0460938E0450939104D9
:1019E00040939004309393042093920462E170E05A
:1019F0007093950460939404E3E1F0E0F09397040E
:101A0000E0939604A0E1B0E0B0939904A093980409
:101A1000F0939B04E0939A0470939D0460939C045C
:101A200030939F0420939E0464E170E07093A104BE
:101A30006093A0045093A3044093A20466E170E075
:101A40007093A5046093A4043093A7042093A60484
:101A50006CE070E07093A9046093A8046DE070E0FE
:101A60007093AB046093AA046EE070E07093AD04D1
:101A70006093AC043093AF042093AE049093B10410
:101A80008093B0049093B3048093B2042FE030E0CD
:101A90003093B5042093B4049093B7048093B604B4
:101AA0009093B9048093B8045093BB044093BA0454
:101AB0004091CC045091CD048091CE049091CF04FC
:101AC000ACE7B4E020E030E0241735077CF4ED917A
:101AD000FD91EE0FFF1FEE0FFF1FE05EFE4F6081D6
:101AE00071812F5F3F4F860F971FEECF9093CF04EA
:101AF0008093CE04C8EAD1E000E010E0EE24E39445
:101B0000F12C42E0C42ED12C80916804909169049C
:101B1000081719070CF03FC0F982E882FB82EA82BD
:101B200097FD0196959587956091D0047091D104A9
:101B30009B01081719074CF42A503109442737FD37
:101B40004095542F6253710908C026573F4F4427D0
:101B500037FD4095542F685A7F4F882777FD809531
:101B6000982F0E948F287D836C8321E230E040E033
:101B700050E06FE070E080E090E00E948F287F836B
:101B80006E83D986C8861B861A861D861C860F5FC3
:101B90001F4F2E96B9CFDF91CF911F910F91FF90DC
:101BA000EF90DF90CF9008951092F60464EF7AE002
:101BB0008EED94E00E9436211092DD041092DC0438
:101BC0000C941B0B8EED94E00E94B4210C94D40D68
:101BD0008EED94E00E94F91E8823D1F320ED36E0CB
:101BE00040E060E08CE295E00E94F51A65E088EE46
:101BF00094E00E94D717882359F30C94D40D8EEDEE
:101C000094E00E94F91E8823D1F322EE38E040E0F0
:101C100060E08CE295E00E94F51A65E088EE94E0C1
:101C20000E94D717882359F30C94D40DEF920F9389
:101C300020916A0490916C0480916B04409174042B
:101C400060917604465F211147C091111FC06E5FFD
:101C5000882319F028E632E102C023E632E18CE263
:101C600095E00E94F51A2DE632E1409174046091EE
:101C700076048CE295E00E94F51A409174044A5F64
:101C8000609176046B5F2EE532E145C06350EE242F
:101C9000E39400E0882319F028E632E102C023E64D
:101CA00032E18CE295E00E94751B609176046150F0
:101CB000EE24E39400E02DE632E1409174048CE2DE
:101CC00095E00E94751B409174044A5F6091760410
:101CD00066502EE532E14AC0911123C06E5F882321
:101CE00019F028E632E102C023E632E18CE295E009
:101CF0000E94F51A2DE632E1409174046091760459
:101D00008CE295E00E94F51A609176046A5F26E500
:101D100032E1409174048CE295E00F91EF900C94C5
:101D2000F51A6350EE24E39400E0882319F028E6C6
:101D300032E102C023E632E18CE295E00E94751B9D
:101D4000609176046150EE24E39400E02DE632E1E8
:101D5000409174048CE295E00E94751B40917404DC
:101D6000425060917604665026E532E18CE295E0BF
:101D70000E94751B0F91EF900895009739F06091C4
:101D80004B0576E440E050E0B1E011C089E3809378
:101D900035058AE2809336056CE071E08CE295E0CF
:101DA0000C947C27743538F04F5F5F4F7E5F481787
:101DB0005907C4F335C0272F30E0623049F4F901E8
:101DC000E75FF84FE081E2FBEE27E0F9EB2701C087
:101DD000E62FE11106C0F901E75FF84FA081AB7F64
:101DE00005C0F901E75FF84FA081A460A0836230CD
:101DF000C1F4F901E75FF84FE081E3FBEE27E0F97A
:101E0000EB27E11106C0F901E75FF84F2081277F3A
:101E100005C0F901E75FF84F208128602083C4CF17
:101E20000895E62FEECF109235051092360564E145
:101E300071E08CE295E00E947C276091DC04709157
:101E4000DD044AE050E08CE295E00E94502868E111
:101E500071E08CE295E00E947C276091DA04709139
:101E6000DB044AE050E08CE295E00C945028CF92DD
:101E7000DF92EF92FF920F931F93CF93DF93109215
:101E8000D3041092D2046091D0047091D1048827B9
:101E90009927861B970B0F968736910540F461951D
:101EA0002CEF31E147EE8CE295E00E94F51A80912B
:101EB000D2049091D30440969093D3048093D2049B
:101EC0000CE714E0C0E0D0E033E1E32EF12C2091E8
:101ED000CC043091CD048091D0049091D1046091D4
:101EE000D2047091D304C217D3070CF096C0D80166
:101EF000ED91FD918D01DF01AA0FBB1FAA0FBB1F42
:101F0000A05EBE4FCD90DC90119712962D913C9122
:101F10001397AB01481B590B495A5F4F4F3A510574
:101F200008F06FC0A701421B530B3197E931F1054F
:101F300008F067C0EC5CFF4F0C94952A681B2EEAF2
:101F400031E15BC0681B20E631E157C0681B2FE11F
:101F500031E153C0681B21ED30E14FC0681B20E91F
:101F600030E14BC0681B22E430E147C0681B2FE31F
:101F700030E143C0681B21EF3FE03FC0681B29EC04
:101F80003FE03BC0681B25E53FE037C0681B2DE202
:101F90003FE033C0681B25E03FE02FC0681B2DEDFC
:101FA0003EE02BC0681B26E53EE027C0681B25EFFE
:101FB0003DE023C0681B2AEB3DE01FC0681B2FE7F4
:101FC0003DE01BC0681B24E43DE017C0681B2EE207
:101FD0003DE013C0681B29E13DE00FC0681B23E012
:101FE0003DE00BC0681B28EC3CE007C0681B24EBFD
:101FF0003CE003C0681B2BE83CE08CE295E00E94CB
:10200000F51A8091D2049091D3048C0D9D1D90936C
:10201000D3048093D20421965ACF9B01281B390BFD
:10202000215F3F4F2736310580F4681B21E33CE0F8
:1020300047EE8CE295E0DF91CF911F910F91FF90D9
:10204000EF90DF90CF900C94F51ADF91CF911F9114
:102050000F91FF90EF90DF90CF9008952F923F92D5
:102060004F925F926F927F928F929F92AF92BF92A8
:10207000CF92DF92EF920F931F93CF93DF938091D4
:10208000660490916704892B69F0C8EAD1E0412C7D
:10209000512C77EE672E73E0772EE7EE2E2EE3E0DD
:1020A0003E2E6CC12091DA043091DB042F5F3F4F4C
:1020B0003093DB042093DA048091D0049091D10412
:1020C0009093D5048093D4048091DC049091DD0436
:1020D000820F931F059690936904809368049093F0
:1020E000670480936604C8EAD1E0C12CD12C01E0DA
:1020F00010E058E7952E62E0A62EB12C809168047E
:10210000909169042091DA043091DB04C816D90655
:102110000CF042C0198308831B830A8397FD019644
:102120009595879521503109929EB001939E700D2F
:102130001124C816D90644F49B01442737FD409565
:10214000542F6654710909C09B0126573F4F4427FD
:1021500037FD4095542F685A7F4F882777FD80952B
:10216000982F0E948F287D836C8321E230E040E02D
:1021700050E06FE070E080E090E00E948F287F8365
:102180006E83B986A8861B861A861D861C862FEF4D
:10219000C21AD20A2E96B2CF2230310581F40197AD
:1021A0004EE0489FF001499FF00D1124E855FE4F85
:1021B0003183208381E090E091878087B4C323300E
:1021C000310519F59C0121503109AEE0A29FF001C3
:1021D000A39FF00D1124E855FE4F42E050E05183DB
:1021E000408321E030E031872087BC0162507109D3
:1021F000A69FF001A79FF00D1124E855FE4F5183D3
:10220000408331872087039737C024303105D1F5CB
:102210009C0121503109AEE0A29FF001A39FF00D77
:102220001124E855FE4F23E030E03183208322E182
:1022300030E0318720879C0122503109A29FF001B4
:10224000A39FF00D1124E855FE4F42E050E051836A
:10225000408321E030E031872087BC016350710961
:10226000A69FF001A79FF00D1124E855FE4F518362
:102270004083318720870497A89FF001A99FF00D24
:10228000112450C02530310509F04DC342E050E023
:102290005093A9014093A80121E030E03093B101AF
:1022A0002093B0015093B7014093B6013093BF0122
:1022B0002093BE01A3E0B0E0B093C501A093C40198
:1022C0006DEB71E07093C9016093C80162E170E049
:1022D0007093CD016093CC01EC0121971EE01C9F0F
:1022E000F0011D9FF00D1124E855FE4FB183A0832E
:1022F000ABE5B2E0B583A48371876087BC0162500F
:102300007109169FF001179FF00D1124E855FE4F3B
:1023100051834083318720870397189FF001199FCD
:10232000F00D1124E855FE4F5183408331872087FB
:10233000FAC2288139818A809B80CC80DD80AE8082
:10234000BF80488559858A859B852130310509F0F4
:10235000D2C046E084169104C9F42091D004309193
:10236000D104A601421B530B495F5F4F4F35510506
:1023700008F44FC04FEF441A540A2E968091680417
:102380009091690448165906A4F27EC2009789F517
:1023900062E070E07B876A8740917804509179040D
:1023A000C416D5060CF4A5C29601215031093D830F
:1023B0002C831D861C862091740430917504B6010F
:1023C000641B750BAB01425F5F4FA216B3063CF076
:1023D0004D31510510F695012150310907C04D319D
:1023E000510508F0BACF95012F5F3F4F3F832E83F1
:1023F000B4CFAC01415051095B874A8775E087161D
:10240000910409F0AACF452B09F0A7CF3B832A837B
:10241000A4CF45E08416910421F4897F019761F4EB
:1024200023C056E08516910439F46C2D621B29E710
:1024300032E14AE04A0D09C08C859D856C2D621BF6
:10244000892B41F423E932E14A2D8CE295E00E9488
:10245000F51A0AC0EE24E39400E023E932E14A2DA4
:102460008CE295E00E94751B809174049091750434
:102470009C012A5F3F4F2A153B050CF47BCF64E09B
:10248000A60EB11CA816B9060CF474CF20916D04E9
:102490008091780490917904222311F176E08716D7
:1024A0009104F1F09601281B390B121613064CF417
:1024B0002615370534F440916C04411102C03901EE
:1024C00012019C012C193D09121613064CF4261515
:1024D000370534F440916C04442311F039011201A2
:1024E000960124503109821793070CF443CF26E05C
:1024F000C20ED11CB6C12230310509F0CBC046E076
:102500008416910409F441C0009781F561E070E000
:102510007B876A872091780430917904A601C216DE
:10252000D3060CF4EEC1425051095D834C831D86E5
:102530001C864091740450917504B601621B730BA4
:102540009B01225F3F4FA416B5063CF02D313105AB
:10255000E0F495012250310906C02D313105A8F46F
:1025600095012E5F3F4F3F832E830FC09C0121506A
:1025700031093B872A8775E08716910431F4232BB4
:1025800021F421E030E03B832A832091D004309174
:10259000D104A601421B530B495F5F4F4F355105D4
:1025A00008F0E8CE45E08416910421F4897F019774
:1025B00061F423C056E08516910439F46C2D621B3A
:1025C00029E732E14AE04A0D09C08C859D856C2DD2
:1025D000621B892B41F422EA32E14A2D8CE295E01C
:1025E0000E94F51A0AC0EE24E39400E022EA32E1E8
:1025F0004A2D8CE295E00E94751B809174049091A5
:1026000075049C012A5F3F4F2A153B050CF4B2CE9E
:10261000A816B9060CF4AECE20916D048091780412
:1026200090917904222311F166E086169104F1F06D
:102630009601281B390B121613064CF42615370584
:1026400034F440916C04411102C0390112019C0123
:102650002C193D09121613064CF42615370534F4CF
:1026600040916C04442311F039011201960122506B
:102670003109821793070CF47DCE74E0C70ED11C8C
:10268000C816D9060CF476CE86E08816910409F0B7
:10269000F1C070CE2330310509F06CCE26E08216F1
:1026A000910409F460C0009709F04EC062E070E048
:1026B0007B876A8749305105DCF024E030E03B87B6
:1026C0002A874B305105A4F04D3051052CF446E0DB
:1026D00050E05B874A870CC04F3051052CF468E00E
:1026E00070E07B876A8704C02AE030E03B872A8756
:1026F0002091780430917904A601C216D3060CF417
:1027000009C1425051095D834C831D861C8640914E
:10271000740450917504B601621B730B9B01225F18
:102720003F4FA416B5063CF02D313105E0F495017C
:102730002250310906C02D313105A8F495012E5FD4
:102740003F4F3F832E830FC09C01215031093B87AF
:102750002A8775E08716910431F4232B21F421E0B8
:1027600030E03B832A832091D0043091D104A6012C
:10277000421B530B495F5F4F4F35510508F0FACDAF
:1027800045E08416910421F4897F019761F423C008
:1027900056E08516910439F46C2D621B29E732E16D
:1027A0004AE04A0D09C08C859D856C2D621B892BE2
:1027B00041F42FE732E14A2D8CE295E00E94F51AB0
:1027C0000AC0EE24E39400E02FE732E14A2D8CE2C8
:1027D00095E00E94751B8091740490917504950199
:1027E00024503109821793070CF4C4CD66E0A60E7D
:1027F000B11CA816B9060CF4BDCD20916D048091D2
:10280000780490917904222311F176E087169104DF
:10281000F1F09601281B390B121613064CF42615FD
:10282000370534F440916C04411102C039011201A2
:102830009C012C193D09121613064CF42615370578
:1028400034F440916C04442311F0390112019601D3
:1028500022503109821793070CF48CCD24E0C20E6C
:10286000D11CC816D9060CF485CD36E08316910428
:1028700009F480CD80917004909171040196909339
:1028800071048093700476CD80916D04882309F4DF
:102890004AC057EE251653E035060CF044C08EE0D2
:1028A000829DF001839DF00D1124E855FE4F828139
:1028B00093810597C1F180859185019791878087E4
:1028C000892B71F486E090E0938382838091660483
:1028D000909167040197909367048093660423C0E6
:1028E00085E090E09383828387E090E093878287FE
:1028F0001AC0B6016F5F7F4F7D836C833D872C8745
:102900005ACD4E5F5F4F5D834C8361E070E07D8701
:102910006C870FCE4E5F5F4F5D834C8341E050E08C
:102920005D874C87F4CEDF91CF911F910F91EF908F
:10293000DF90CF90BF90AF909F908F907F906F90DF
:102940005F904F903F902F9008958EED94E00E94FD
:10295000F91E882309F4FBC180917A0490917B04CD
:102960000197B9F58091DC049091DD04019741F461
:102970002EEB34E040E060E08CE295E00E94F51A36
:102980008091DC049091DD04029741F42CEA32E05E
:1029900040E060E08CE295E00E94F51A8091DC0452
:1029A0009091DD04039741F42AE930E040E060E0D3
:1029B0008CE295E00E94F51A64E088EE94E00E94B3
:1029C000D717882309F4C3C110927B0410927A04AC
:1029D000089566E088EE94E00E94D71781110E9466
:1029E000D40D8091DA049091DB04019748E7489F69
:1029F0009001499F300D11243093D9042093D804BD
:102A000028583F4F3093D7042093D6048091CE04AA
:102A10009091CF048217930724F49093D704809366
:102A2000D60410926D0464E088EE94E00E94D717FB
:102A3000882341F080916E0490916F041816190656
:102A40000CF470C141E062E088EE94E00E94E0176F
:102A5000811118C041E060E088EE94E00E94E01728
:102A6000811110C041E061E088EE94E00E94E0171F
:102A7000811108C041E063E088EE94E00E94E01715
:102A8000882339F080916B04882309F45CC110928B
:102A90006B0441E061E088EE94E00E94E017882337
:102AA00089F080917404909175048031910554F0FF
:102AB0002091720430917304821B930B90937504E0
:102AC0008093740441E063E088EE94E00E94E01794
:102AD000882389F0209174043091750424323105E3
:102AE00054F48091720490917304820F931F909319
:102AF00075048093740441E062E088EE94E00E94E3
:102B0000E017882309F458C010926C0420917804CF
:102B1000309179046091D4047091D504FB01B8968A
:102B200080917204909173044091D6045091D7041F
:102B3000E217F30754F5FA01B8972E173F072CF563
:102B4000E091D004F091D104DF01A85ABF4FA4173F
:102B5000B507DCF4280F391F3093790420937804EB
:102B6000E80FF91FF093D104E093D0042091D8042A
:102B70003091D904621773070CF069C0860F971F54
:102B80009093D5048093D40462C0280F391F475016
:102B90005109241735070CF05AC03093790420935B
:102BA00078042091760430917704280F391F3093F0
:102BB0007704209376044BC041E060E088EE94E017
:102BC0000E94E017882309F442C081E080936C04DE
:102BD00020917804309179044091D4045091D50427
:102BE000BA01685D7F4F80917204909173046217FF
:102BF0007307BCF46091D6047091D70468527109D0
:102C00002617370774F46091D0047091D1044617E9
:102C100057073CF4681B790B7093D1046093D00480
:102C200010C0B901680F791F6417750784F04091CF
:102C3000760450917704481B590B509377044093C6
:102C40007604281B390B309379042093780465E0CF
:102C500088EE94E00E94D717811104C080916A0425
:102C6000882389F010926A0480916E0490916F0419
:102C70008630910544F421E020936A0401969093F4
:102C80006F0480936E048091700490917104019799
:102C900011F40E94E80D80917804909179040F96C8
:102CA0002091CE043091CF04821793075CF080917D
:102CB000DC049091DD04039719F40E94FF0D02C01B
:102CC0000E941B0B2091D4043091D5048091D8042C
:102CD0009091D9042817390764F48EE18093350563
:102CE00086E2809336056AE171E08CE295E00E940D
:102CF0009B270E94370F2091D4043091D5048091F6
:102D0000D8049091D9042817390711F40E942E1085
:102D10000E94130F80916E0490916F040E94BD0E6B
:102D20000C94160E83E095E00E94CD2481E0809300
:102D30006D0480916E0490916F04019790936F04DD
:102D400080936E047FCE81E080936B04A2CE0895C1
:102D500010922F0510922E058CE891E090932D058E
:102D600080932C050895CF93CFB7F8948091640594
:102D7000811127C0E8EBF5E18491E4EAF5E1949153
:102D8000E82FF0E0EE0FFF1FEA52FA4EA591B49142
:102D90008C91892321F461E08AE00E94AA2661E0F7
:102DA0008AE00E9471268CB580618CBD8CB58064F0
:102DB0008CBD61E08DE00E94712661E08BE00E9495
:102DC0007126809164058F5F80936405CFBFCF919A
:102DD000089521E0FC012083089570E085E00C94C3
:102DE000E925AF92BF92CF92DF92EF92FF920F93BD
:102DF0001F93CF93DF93EC0189819A812FE0289F65
:102E00008001299F100D112485E10E94CC25800F9F
:102E1000911F24E0969587952A95E1F79A838983F7
:102E20002881222391F1AC81AD80B12CC12CD12C11
:102E3000E885F9857F0100E010E06E817F819B01CC
:102E400040E050E08617970728F0BC01E817F90723
:102E500008F4BF0180E090E01F921F921F92AF9391
:102E60000E94AB286B830F900F900F900F9070E033
:102E700085E0DF91CF911F910F91FF90EF90DF9050
:102E8000CF90BF90AF900C94E925DF91CF911F9127
:102E90000F91FF90EF90DF90CF90BF90AF9008958B
:102EA000FC018CE39FE09383828384E0818381E053
:102EB00084870895CF93DF93EC018C858F7151F552
:102EC00084E10E94CC25BC01882777FD8095982F4E
:102ED0000E94212926EE3FE34EEC50E40E94AD29EA
:102EE0000E94F3289B017B836A836115710581F041
:102EF00084E08983FE0140E08481958128173907A9
:102F000010F449830AC04F5F32964430A9F702C0DB
:102F10008FEF89838C858F5F8C87DF91CF910895A8
:102F2000FC0188E0808389E0818387E0828386E0FA
:102F3000838384E0848382E0858381E186830895AE
:102F4000DF92EF92FF920F931F93CF93DF937C0159
:102F5000EC0100E010E0DD24DA9462E088810E9458
:102F6000712688810E94E026F701E00FF11F892B6E
:102F700021F487818F5F878308C08781882349F088
:102F80008F3F11F4178201C0D78260E088810E94D0
:102F900071260F5F1F4F219607301105F1F6DF9163
:102FA000CF911F910F91FF90EF90DF900895FC015A
:102FB000E60FF11D81E09781913009F080E00895DE
:102FC000262F30E0FC01E20FF31F8781423028F406
:102FD00081508E3F48F080E008958F3FE1F3642FE9
:102FE0000E94202A9130B9F781E008958EBD00003B
:102FF0000DB407FEFDCF8EB50895643508F047C0C7
:10300000403308F044C0FC01878D242F2595259579
:103010002595E62FFF27E7FDF0954770823091F464
:10302000DF01AB59BA4F84E52802A00DB11D112470
:103030008C9190E0042E02C0959587950A94E2F752
:1030400080958170811112C084E52802E00DF11D88
:103050001124EB59FA4F81E090E0042E01C0880F53
:103060000A94EAF780959081982310C084E528029D
:10307000E00DF11D1124EB59FA4F81E090E0042E90
:1030800001C0880F0A94EAF79081982B90830895E5
:103090001F93CF93DF93EC01162FF89460E08E8599
:1030A0000E94AA268F8518161CF460E00E94AA26AA
:1030B000812F0E94F6178F8518161CF461E00E947C
:1030C000AA267894DF91CF911F91089528EF31E0DF
:1030D000E5E6F5E0DF01A9011D9241505040E1F71E
:1030E000DC0119961C9219971A961C920895DF928A
:1030F000EF92FF920F931F93CF93DF93EC0185E63E
:10310000E82E85E0F82ED12C6D2D6064CE010E9452
:10311000481860E8CE010E94481861E08E850E9440
:10312000AA268F8518161CF460E00E94AA2600E0EB
:1031300010E0F701E00FF11F80810E94F6170F5F8A
:103140001F4F04351105A9F78F8518161CF461E08F
:103150000E94AA26D39484E5E80EF11C86E0D812DA
:10316000D3CF60E4CE01DF91CF911F910F91FF90FB
:10317000EF90DF900C944818FC01678F60A30895CE
:10318000FC01678F40A30895AF92BF92CF92DF9268
:10319000EF92FF920F931F93CF93DF93EC01162FC3
:1031A000F42EE22EA02FBB27A7FDB095A41BB109DA
:1031B00047FDB395B7FF03C0B195A195B109EE2DB9
:1031C000FF27E7FDF095E11BF10917FDF395F7FFE8
:1031D00003C0F195E195F109BB24B394EA17FB070D
:1031E00014F0B12C06C08E2DE02E082F812F1F2D3C
:1031F000F82EE11634F48F2DF02E082F812F1E2D7E
:10320000E82ECE2CC11AE02FFF27E7FDF095EF192D
:10321000F109F7FCF395F7FF03C0F195E195F1098A
:10322000AE2EDC2CC7FE03C0DD24D394DC0CD59479
:10323000F01614F401E00FC00FEF0DC0BB2071F0C9
:10324000412F6F2DCE010E94FD17DA18D7FE02C064
:10325000F00EDC0C1F5FE1168CF703C04F2D612FC1
:10326000F1CFDF91CF911F910F91FF90EF90DF9001
:10327000CF90BF90AF9008950F93022F0150040F8D
:10328000262F0E94C4180F910895DF92EF92FF92AB
:103290000F931F93CF93DF937C01D42E162FC22F51
:1032A000DD27C7FDD095C60FD11D67FDDA95812FAB
:1032B000992787FD90958C179D0744F4202F4D2D5D
:1032C000612FC7010E943C191F5FF1CFDF91CF91A1
:1032D0001F910F91FF90EF90DF9008950F93215071
:1032E000260F042F0E94C4180F9108958F929F9269
:1032F000AF92BF92CF92DF92EF92FF920F931F9304
:10330000CF93DF93EC01E62ED42E122FCC24C3945E
:10331000C21AB22EB194BB0CF12C802F8470A82E4F
:10332000802F8270982E802F8870882E0170F11661
:103330000CF04DC0C7FC04C01150B394B394CB0C37
:10334000F3948F2D880F8F5FC80EAA2071F0412F44
:103350004D0D6F2D6E0DCE010E94FD174F2D4D0DA1
:10336000612F6E0DCE010E94FD17992071F04D2D39
:10337000411B6F2D6E0DCE010E94FD174D2D4F1973
:10338000612F6E0DCE010E94FD17882071F04F2D28
:103390004D0D6E2D611BCE010E94FD17412F4D0D6D
:1033A0006E2D6F19CE010E94FD17002309F4BFCFC7
:1033B0004D2D4F196E2D611BCE010E94FD174D2D15
:1033C000411B6E2D6F19CE010E94FD17B0CFDF910A
:1033D000CF911F910F91FF90EF90DF90CF90BF9012
:1033E000AF909F908F9008958F929F92AF92BF92CF
:1033F000CF92DF92EF92FF920F931F93CF93DF93C1
:10340000EC01B62EA42E122FDD24D394D21AC22E94
:10341000C194CC0CFF24F394802F8170882E9924C2
:1034200093949E0C02708FEF8F0D8117C4F5D7FC1B
:1034300004C01150C394C394DC0C8F2D880F8F5F90
:10344000D80E882099F0212F220F290D4A2D411BDB
:103450006F2D6B0DCE010E943C1923E02E0D4A2DDD
:103460004F19612F6B0DCE010E943C19002399F07A
:10347000212F220F290D4A2D411B6B2D6F19CE01D3
:103480000E943C1923E02E0D4A2D4F196B2D611B14
:10349000CE010E943C19F394E394E394C4CFDF91EE
:1034A000CF911F910F91FF90EF90DF90CF90BF9041
:1034B000AF909F908F9008959F92AF92BF92CF92BE
:1034C000DF92EF92FF920F931F93CF93DF93EC0164
:1034D000B62EF42EA22EDE2CD194DD0C9D2C920E55
:1034E0001E2D160F292D612F0E946E19CC24CA940F
:1034F000C00ECF0C292D4C2D612FCE010E946E19CC
:10350000D00EFE0C2D2D4F2D6B2DCE010E943C199F
:10351000BA0C6FEF6B0D2D2D4F2DCE010E943C1973
:1035200001E02E2D4F2D612FCE010E947619DE2C49
:10353000D094DB0C02E02E2D4F2D6D2DCE010E947C
:103540007619CE1804E02E2D4C2D6D2DCE010E9443
:10355000761908E02E2D4C2D612FCE010E94761990
:10356000DF91CF911F910F91FF90EF90DF90CF905F
:10357000BF90AF909F900895AF92BF92CF92DF928D
:10358000EF92FF920F931F93CF93DF93EC01A62E40
:10359000C42EB22EF02E1E2DE194EE0CD12ED60E9E
:1035A0002E2D2B0D6D2D0E944519FA94FE0CC10E87
:1035B0006FEF6A0D6B0D611BEF2C01E0212F4C2D7D
:1035C000CE010E94F41902E0212F4C2D6D2DCE0169
:1035D0000E94F419DF91CF911F910F91FF90EF900E
:1035E000DF90CF90BF90AF9008952F923F924F926F
:1035F0005F926F927F928F929F92AF92BF92CF9283
:10360000DF92EF92FF920F931F93CF93DF931F925E
:10361000CDB7DEB78C01862E942EF90174903196C9
:1036200064907901F2E0EF0EF11C872D992787FD58
:103630009095DC011796B7FD17966D0193E0D59430
:10364000C7949A95E1F7212C312C512C20E8A22E19
:10365000B12C5614B4F520E0452C490C27156CF517
:10366000822F27FF02C087E0820F8595859585957B
:10367000F101E80FF11D87FDFA95EE0DFF1DE491B4
:10368000F0E0A22FA778A7FF03C0A150A86FAF5FFB
:10369000C50102C095958795AA95E2F7DC01AE2396
:1036A000BF23AB2B41F0442D622F680DC801298345
:1036B0000E94FD1729812F5FD1CF53942C0C3D1C04
:1036C000C8CF0F90DF91CF911F910F91FF90EF9096
:1036D000DF90CF90BF90AF909F908F907F906F9032
:1036E0005F904F903F902F9008952F923F924F926E
:1036F0005F926F927F928F929F92AF92BF92CF9282
:10370000DF92EF92FF920F931F93CF93DF9300D03E
:1037100000D000D0CDB7DEB76C01762E642E01113B
:103720001CC0E1101AC026960FB6F894DEBF0FBE7B
:10373000CDBFDF91CF911F910F91FF90EF90DF9060
:10374000CF90BF90AF909F908F907F906F905F9041
:103750004F903F902F900C94F51AF90144903196B8
:1037600024905901F2E0AF0EB11C302F3370842D3C
:10377000992787FD90954C0127E0820E911C97FEBA
:1037800004C04C01EEE08E0E911C43E095948794AA
:103790004A95E1F733243A94320C1E821D82F12CB3
:1037A0005FEF540D00E810E0F2140CF064C0552EE9
:1037B00020E024150CF056C0822F27FF02C087E0BE
:1037C000820F859585958595ED81FE81E80FF11D28
:1037D00087FDFA95EA0DFB1DE491F0E0A22FA77892
:1037E000A7FF03C0A150A86FAF5FC80102C09595A5
:1037F0008795AA95E2F7DC01AE23BF23AB2B79F1C5
:10380000323039F0333041F0313049F4452D6F2DED
:1038100008C0652D432D05C0632D422F02C04F2DDA
:10382000622FEE2069F07E2D7370E0FE03C0942DB0
:10383000961B692FE1FE05C0E22DE41B4E2F01C04F
:1038400070E0670D460DC6012A833B835C83798354
:103850000E94FD177981E72E5C813B812A812F5FD1
:103860005A94A7CFF3948D819E81880D991D9E83D4
:103870008D833A9499CF26960FB6F894DEBF0FBE8B
:10388000CDBFDF91CF911F910F91FF90EF90DF900F
:10389000CF90BF90AF909F908F907F906F905F90F0
:1038A0004F903F902F900895DC01FB0184918F5F32
:1038B00014968C9314973196E491EF5F1596EC93E0
:1038C00015976E5F7F4F5E967C936E935D9708951C
:1038D000EF920F93CF93DF93EC014D876C872E8788
:1038E000E88A0F8781E088878F8F18A28F836EEA1E
:1038F00072E1CE010E94541C0E94B3168CB58F7DDC
:103900008CBD8CB58C7F81608CBD8DB581608DBD8B
:103910008CB58C608CBD61E08D850E94712661E064
:103920008C850E94712661E08E850E9471268889AF
:1039300018161CF461E00E9471268F8518161CF47D
:1039400061E00E947126888918166CF460E00E947C
:10395000AA266AE070E080E090E00E94692561E0BC
:1039600088890E94AA268C85992787FD9095FC015D
:10397000E255FA4EE491F0E0EE0FFF1FE453FA4EE9
:10398000259134913C8B2B8BFC01E656FA4E8491A9
:103990008A8F8D85992787FD9095FC01E255FA4E17
:1039A000E491F0E0EE0FFF1FE453FA4E25913491BD
:1039B0003A8B298BFC01E656FA4E8491898F8F85CC
:1039C000992787FD9095FC01E255FA4EE491F0E0CD
:1039D000EE0FFF1FE453FA4E259134913E8B2D8B51
:1039E000FC01E656FA4E84918B8F8E85992787FDD0
:1039F0009095FC01E255FA4EE491F0E0EE0FFF1FC6
:103A0000E453FA4E25913491388F2F8BFC01E65602
:103A1000FA4E84918C8F61E2CE010E94481864E1D5
:103A2000CE010E9448188B8587FF02C08FE78B87E5
:103A30006B856068CE010E94481860E2CE010E944A
:103A400048186CE0CE010E944818CE01DF91CF915A
:103A50000F91EF900C9477186F927F928F929F92B4
:103A6000AF92BF92CF92DF92EF92FF920F931F938C
:103A7000CF93DF93EC01162FF42EB02EEF8C64352C
:103A80000CF081C08FE284170CF47DC0EC81F0E073
:103A900031970E9FC0010F9F900D1124860F911D2D
:103AA00067FD9A95181619060CF06DC08D81809FE0
:103AB000C0011124840F911D47FD9A95181619060F
:103AC0000CF061C0A62E962EC22ED12C8A2D811B01
:103AD000992787FD90952C8130E0821793070CF091
:103AE00051C0215031098217930779F0C29ED0014D
:103AF000C39EB00DD29EB00D1124A80FB91FED8D3D
:103B0000FE8DEA0FFB1F749001C0712C8F2C6F2C5F
:103B1000282D2F19332727FD30958D8190E0281708
:103B200039076CF570FE11C081E0B81206C0482D4F
:103B30006A2DCE010E94FD171EC00B2D2B2D462D88
:103B4000692DCE010E94451916C088A19F8D891745
:103B500091F08F8F81E0B81206C0482D6A2DCE01FA
:103B60000E94FD1707C00B2D2B2D462D692DCE0170
:103B70000E944519EF8E76946B0C8394C9CF9B0CF1
:103B8000A394A4CFEF8EDF91CF911F910F91FF905F
:103B9000EF90DF90CF90BF90AF909F908F907F90ED
:103BA0006F9008950F93CF93DF93EC01262F6A3027
:103BB00039F42D8198858A85299F800D112422C092
:103BC0006D3011F108854A8569850E942C1D488554
:103BD0005C812985549F200D112429878F8188239A
:103BE00099F0332727FD309584E590E0459F8019B3
:103BF00091091124821793073CF49D818A85499F7E
:103C0000800D11248A87198681E090E0DF91CF91A1
:103C10000F9108958F929F92AF92BF92CF92DF92B1
:103C2000EF92FF920F931F93CF93DF93EC015C0110
:103C300085E8A80EB11CD5018C91882309F44DC0EC
:103C40008C3018F41CE0181B01C010E0FE01EA5A89
:103C5000FF4F81E080836E01BEE4CB0ED11C60E09B
:103C6000C6010E94BC184E01E3E58E0E911CD401E2
:103C70008C9103E0080F9DE2F92E4F2D481B410F58
:103C800023E0E22E24E560E0C6010E94BC1A61E058
:103C9000C6010E94BC18F401808103E0080F4F2D7B
:103CA000481B410F24E560E0C6010E945C1AFE013A
:103CB000E95AFF4F84E080833196D4018C91181B20
:103CC000115D1083CD57DF4F68817981C6010E9455
:103CD0005727F501808181508083DF91CF911F911B
:103CE0000F91FF90EF90DF90CF90BF90AF909F909B
:103CF0008F9008950F931F93CF93DF93EC018C0166
:103D0000025B1F4F40E061E0C8010E94C018FE0145
:103D1000E95AFF4FDE01AE5ABF4F85E59C91891BE2
:103D2000808331961082698D613009F43CC028F09F
:103D3000888D653008F04EC049C0CE0185960E943E
:103D4000392360E0CE010E94ED16C8010E9466187A
:103D5000FE01EA5AFF4F81E0808361E974E1C80106
:103D60000E9457276A8D7B8D4AE050E0C8010E946F
:103D700065286DE774E1C8010E945727C8010E94B9
:103D8000771883B7817F846083BF83B7816083BFE7
:103D900083B7816083BF889583B78E7F83BF83B7E6
:103DA0008E7F83BF21C0C059DF4F488159816A810E
:103DB0007B814F705527662777274830510561056D
:103DC000710510F467E009C068E707C0882361F057
:103DD0006B5F03C0882341F06FE2C801DF91CF9190
:103DE0001F910F910C947E27DF91CF911F910F911E
:103DF00008958F929F92AF92BF92EF92FF920F938E
:103E00001F93CF93DF93EC017C010FE7E00EF11CD1
:103E1000F70180809180A280B3800E943A259501AD
:103E20008401061B170B280B390BB901A8015E0191
:103E30001EE7A10EB11CF501808190E0A0E0B0E08A
:103E40008E0106581F4F84179507A607B70750F431
:103E5000F80180819181A281B381892B8A2B8B2BE0
:103E600009F040C0F80180819181A281B381892B42
:103E70008A2B8B2BA9F57E01F5E2EF0EF11CC70111
:103E80000E943623C7010E94A323C7010E94672412
:103E9000CE010E940A1ECE010E947A1E7E012EE4EF
:103EA000E20EF11CC7010E947718FE01EC5AFF4F89
:103EB0008081811103C0C7010E9466180E944625B7
:103EC000F8016083718382839383FE01EC58FF4F76
:103ED000CA58DF4F28813981621B730B718360835D
:103EE00080E036C00E943A25F5012081620F711DE5
:103EF000811D911DF7016083718382839383FE018D
:103F0000E059FF4F40815181628173814F5F5F4F64
:103F10006F4F7F4F4083518362837383F801108218
:103F20001182128213820E944625FE01EA58FF4F39
:103F30006083718382839383CE010E94F116CE0148
:103F40000A960E94A017CE0148960E945A1781E057
:103F5000DF91CF911F910F91FF90EF90BF90AF90A5
:103F60009F908F9008950F931F93CF93DF938C01B1
:103F7000EC01C25BDF4FCE010E94661865E574E17B
:103F8000CE010E945727CE010E9477188CB583601E
:103F90008CBD8DB58E7F8DBD80E991E0EEEFFFE3A6
:103FA0000995F801EC5AFF4F108260E374E1CE01ED
:103FB0000E948927CE010E947718065F1F4FC80113
:103FC0000E94A01764E0C8010E94D717811107C0A2
:103FD00062E370E080E090E00E946925F0CFDF911D
:103FE000CF911F910F9108952F923F924F925F9220
:103FF0006F927F928F929F92AF92BF92CF92DF92F9
:10400000EF92FF920F931F93CF93DF93CDB7DEB75D
:1040100029970FB6F894DEBF0FBECDBF998788876A
:104020001B012A013C018FE6680E711CF30180819F
:10403000882309F402C181E0E885F985EA5AFF4F37
:104040008083E885F985EB5AFF4F1082E885F98572
:10405000EC5AFF4F1082E885F985108E8F01025BC4
:104060001F4F61E0C8010E94BC18888599858D5A50
:104070009F4F9C838B83C884D98497E5C90ED11C3C
:10408000E884F984E8E5EE0EF11C888599858E5A5E
:104090009F4F9A838983E885F985E059FF4FFE8316
:1040A000ED8388849984FAE08F0E911CA884B984EA
:1040B00085E2A80EB11C888599850E94F91E882387
:1040C000D1F3F1018491882321F0EB81FC815081AF
:1040D00001C050E023EB34E140E060E0C8015F83C1
:1040E0000E94F51A5F814114510439F04CE0450FEC
:1040F000920160E0C8010E94F51AF60110828CE07E
:10410000F7018083B101C8010E945727E981FA8134
:104110009081892F880F890F81958D5AF6018083B0
:10412000EB81FC819081892F880F890F8195835DB8
:10413000F7018083ED81FE81808184FF03C06EEAF8
:1041400074E102C06AEA74E1C8010E948927E9812A
:10415000FA819081892F880F890F81958D5AF601F8
:104160008083F70180818F5F8083E885F98582A550
:10417000882319F066EA74E102C062EA74E1C801BA
:104180000E948927E981FA819081892F880F890F00
:1041900081958D5AF6018083F70180818F5F80833E
:1041A0006EE974E1C8010E94892765E0C4010E949C
:1041B000D717882351F0E885F98562A56F5FC5019F
:1041C0000E94E324C5010E94CD2464E0C4010E9442
:1041D000D717811113C0F3012081822F90E0A0E056
:1041E000B0E0ED81FE814081518162817381481789
:1041F00059076A077B07A8F02F3F99F08FEFF3016B
:104200008083088519850B5D1F4F60E0C8010E94FF
:10421000E022C8010E94B72481E0E885F985808FFB
:104220000CC066E0C4010E94D717882309F443CF6D
:10423000888599850E94B31F34CF29960FB6F894CC
:10424000DEBF0FBECDBFDF91CF911F910F91FF90C9
:10425000EF90DF90CF90BF90AF909F908F907F9026
:104260006F905F904F903F902F900895AB0162EB5D
:1042700074E10C94F41FE0E8F7E72591349181E0B4
:104280002130304C09F080E00895CF93DF93EC01AA
:104290000E943B219E01275A3F4FDE01A159BF4F8B
:1042A000882309F43CC0E6E9F7E78491F9018083AB
:1042B000E7E9F7E7E491EC83E8E9F7E7E491ED83D8
:1042C000E9E9F7E7859194919F838E83EBE9F7E71E
:1042D0008591949199878887EDE9F7E7E491EBA7B9
:1042E000EEE9F7E7E491EAA7EFE9F7E7E491EC9369
:1042F000E0EAF7E7859194919D8F8C8FE2EAF7E7EA
:10430000859194919F8F8E8FE4EAF7E78591949140
:1043100099A388A3E6EAF7E78591949120C08CE3FE
:10432000F90180831C822FEF2D8380E293E09F832D
:104330008E8384ED93E09987888781E08BA78AA795
:104340002C938CEA9DE09D8F8C8F8EED9DE09F8F4E
:104350008E8F84E79EE099A388A38CE39FE09BA3C4
:104360008AA3DF91CF910895CF92DF92EF920F93BE
:10437000CF93DF93EC01FC01E258FF4F82E380838F
:10438000349741E050E060E070E040835183628305
:1043900073833B978FEF8083CE010E944521CE012E
:1043A0000E94E9166FEFCE010E94ED166E018AE0C1
:1043B000C80ED11CC6010E949017C6010E94A0170A
:1043C000CE0148960E9450170EE0E02E0FE020E14B
:1043D0004BE06DE0CE01825B9F4F0E94681CA5966A
:1043E000CE010E944C2265E0C6010E94D7178823A7
:1043F00051F060E0CE01DF91CF910F91EF90DF900F
:10440000CF900C94E32440E063E275E1CE01DF91AC
:10441000CF910F91EF90DF90CF900C94EB22CF9340
:10442000DF9350E0FA01EE0FFF1FE80FF91F378509
:104430002089E32FF22FE60FF11DE60FF11D2591E4
:104440003491FA01EE0FFF1FE80FF91F30A3278FF9
:10445000F90165917491FC01D481D69FC02D11247E
:10446000E40FF51FC1A3F901A591B4916B2F70E082
:10447000EC2FF0E0DC01A40FB51F6E177F0720F4CE
:10448000F90125913491C32FCD9FC02D112492960F
:10449000CC93DF91CF91089521E0FC01248324E0A7
:1044A00020A72AE735E1308B278740E060E00E94B3
:1044B0000F2261E070E083E00E94E925E1EBF0E08B
:1044C0008081887F81608083F89410928000E1E889
:1044D000F0E01082109285001092840088E191E053
:1044E0009093890080938800808188608083808198
:1044F00081608083EFE6F0E0808182608083789441
:1045000008950F93FC01862F642F011129C082307A
:10451000D1F048F4882391F0813011F540E0CF01CB
:104520000F910C940F228330A9F08430C9F4848158
:10453000489F602D1124658F268F12C04B3008F0E4
:104540006AE0668B0DC08481489F602D1124618FC5
:10455000228F06C08481489F602D1124638F248F91
:104560000F910895FC0121110EC0648B8481489F36
:10457000402D1124458B15A214A213A281E0878B34
:1045800080936107108E089580916107882319F048
:1045900080915E0701C080E08093B4000895FC0123
:1045A00061110DC0178A158A14A213A2108E1092E1
:1045B0005E0710925F07109261070C94C422089561
:1045C000CF93DF93EC01611103C00E94CF221982C7
:1045D000DF91CF9108950F931F93CF93DF93EC0159
:1045E0008B0141110EC060E00E94E0221E870D8702
:1045F0001B8A1A8A81E0898389E08E8B198E1B8E33
:104600001D8EDF91CF911F910F910895CF93DF936E
:10461000EC01611128C08881882329F189818111E9
:1046200022C089852F819885E22FF92FE80FF11D8F
:10463000E80FF11D859194918F3F2FEF920711F4B0
:10464000188211C09C879927880F991FEA85FB85DE
:10465000E80FF91F6591749140E0CE010E94EB22B2
:1046600089858F5F8987DF91CF91089560E00C94F1
:10467000062360E00C94E0220F93CF93DF93EC01CC
:1046800061115DC08981882309F459C08D89811128
:1046900056C02D853E858A899B89880F991F820F78
:1046A000931FFC01859194910097D1F48989882307
:1046B00021F01B8A1A8AF90111C01982888160E0F1
:1046C000882331F0CE010E9406238A899B8925C068
:1046D000CE01DF91CF910F910C94CF2285919491CF
:1046E000BC01769567957695679580FF1DC0AC01F6
:1046F000A6E056954795AA95E1F7292F2695269588
:10470000269520514F716F7000E0CE010E948122EA
:104710008A899B8901969B8B8A8B880F991FED85CF
:10472000FE85E80FF91FDACF492F6F7320E0CE0125
:104730000E94B2228A899B8901969B8B8A8BDF918A
:10474000CF910F91089560E00C943C23CF93DF93B9
:10475000EC016111B9C08F89882309F4B5C08D8936
:10476000811105C0CE01DF91CF910C94CF228150F1
:104770008D8B8DA1811138C08BA19CA101969C01CC
:10478000220F331FEF8DF8A1E20FF31F2591349113
:10479000422F47704EA3A90163E0569547956A954D
:1047A000E1F7BA0176956795232F269526952FA3D5
:1047B0006F732C81629F602D11246DA34170409313
:1047C0005D079CA38BA329A130E08217930760F0BB
:1047D0008AA1882329F0281B31093CA32BA304C0FC
:1047E00060E0CE010E94CF228DA181508DA3288D43
:1047F0002F5F288F4C893FA1340F8C85380F3A8367
:104800006B8D662361F070E0822F992787FD90956C
:104810000E94402A8C8D869F300D11243A838A8114
:1048200090E0CB966BE370E00E94402A8A833E8939
:104830003B83698D662371F0772767FD7095822F22
:10484000992787FD90950E94402A8A8D869F300D7A
:1048500011243B836D8D662391F0822F992787FD6C
:10486000909570E00E94402ACB0162E070E00E94C7
:10487000402A2E8D9B81289F900D11249B838B8134
:104880004F3339F08A300CF089E087FD80E08B836C
:1048900001C01B82F894EA81F0E0EF5CFA4EE491EB
:1048A000E093600798A58D81989F802D11249B81AE
:1048B000899F802D11249EA1899F802D1124809392
:1048C0005F0780935E077894DF91CF91089560E051
:1048D0000C94A62360915F07662321F18091620703
:1048E0008F5F80936207909160078917D8F080915D
:1048F000610791E089278093610710926207809198
:104900005D07882369F090910A0183E4989F802DC8
:104910001124895B80930A010E94202A90935E07EC
:104920000C94C42208951F920F920FB60F92112477
:104930002F933F934F935F936F937F938F939F93A7
:10494000AF93BF93EF93FF930E946A24FF91EF917F
:10495000BF91AF919F918F917F916F915F914F9197
:104960003F912F910F900FBE0F901F901895CF93EE
:10497000DF93EC0160E00E94E02282E795E19E87F0
:104980008D871B8A1A8A81E0898389E08E8B198E34
:104990001B8E1D8EDF91CF910895CF93DF93EC0195
:1049A00060E00E94E0228CE695E19E878D871B8A5D
:1049B0001A8A81E0898389E08E8B198E1B8E1D8E69
:1049C000DF91CF910895FC01862F992787FD90955F
:1049D000668170E06F5F7F4F0E94402A8583089553
:1049E0001F920F920FB60F9211242F933F938F9324
:1049F0009F93AF93BF938091640790916507A091B7
:104A00006607B09167073091630723E0230F2D37C6
:104A100020F40196A11DB11D05C026E8230F0296C2
:104A2000A11DB11D209363078093640790936507D0
:104A3000A0936607B0936707809168079091690714
:104A4000A0916A07B0916B070196A11DB11D8093DB
:104A5000680790936907A0936A07B0936B07BF91AB
:104A6000AF919F918F913F912F910F900FBE0F901B
:104A70001F9018952FB7F89460916407709165079F
:104A800080916607909167072FBF08953FB7F8940C
:104A90008091680790916907A0916A07B0916B07B0
:104AA00026B5A89B05C02F3F19F00196A11DB11D89
:104AB0003FBF6627782F892F9A2F620F711D811DA6
:104AC000911D42E0660F771F881F991F4A95D1F705
:104AD0000895CF92DF92EF92FF92CF93DF936B0115
:104AE0007C010E944625EB01C114D104E104F104CC
:104AF00089F00E94F2280E9446256C1B7D0B683EBF
:104B0000734090F381E0C81AD108E108F108C85158
:104B1000DC4FEACFDF91CF91FF90EF90DF90CF9005
:104B20000895789484B5826084BD84B5816084BD25
:104B300085B5826085BD85B5816085BDEEE6F0E016
:104B4000808181608083E1E8F0E010828081826072
:104B50008083808181608083E0E8F0E080818160F3
:104B60008083E1EBF0E0808184608083E0EBF0E023
:104B7000808181608083EAE7F0E0808184608083C7
:104B80008081826080838081816080838081806871
:104B900080831092C10008958E3008F08E50877087
:104BA00020910B0190E4299F90011124822B809386
:104BB0007C0080917A00806480937A0080917A00F2
:104BC00086FDFCCF809178002091790090E0922BB7
:104BD00008951F93CF93DF93182FEB0161E00E949C
:104BE0007126209711F460E004C0CF3FD10539F45D
:104BF00061E0812FDF91CF911F910C94AA26E12FC4
:104C0000F0E0EA57FA4EE491E330F9F048F4E1308D
:104C1000B9F0E230A1F584B5806284BDC8BD34C06E
:104C2000E730E9F0E83019F1E43049F5809180008F
:104C3000806280938000D0938B00C0938A0024C050
:104C400084B5806884BDC7BD1FC080918000806826
:104C500080938000D0938900C093880015C0809114
:104C6000B00080688093B000C093B3000DC0809105
:104C7000B00080628093B000C093B40005C0C0381B
:104C8000D1050CF0B5CFAFCFDF91CF911F91089533
:104C9000833081F028F4813099F08230A1F00895BA
:104CA0008730A9F08830B9F08430D1F48091800049
:104CB0008F7D03C0809180008F778093800008955E
:104CC00084B58F7702C084B58F7D84BD08958091AF
:104CD000B0008F7703C08091B0008F7D8093B000CB
:104CE0000895CF93DF9390E0FC01E656FA4E2491AD
:104CF000FC01E255FA4E8491882349F190E0880F37
:104D0000991FFC01EA52FA4EA591B49184539A4E30
:104D1000FC01C591D4919FB7611108C0F8948C91A2
:104D2000209582238C93888182230AC0623051F4BB
:104D3000F8948C91322F309583238C938881822B29
:104D4000888304C0F8948C91822B8C939FBFDF9151
:104D5000CF9108950F931F93CF93DF931F92CDB7F9
:104D6000DEB7282F30E0F901EA57FA4E8491F901B5
:104D7000E656FA4E1491F901E255FA4E04910023D9
:104D8000C9F0882321F069830E9448266981E02FB9
:104D9000F0E0EE0FFF1FE453FA4EA591B4919FB7D8
:104DA000F8948C91611103C01095812301C0812B6F
:104DB0008C939FBF0F90DF91CF911F910F9108951A
:104DC000CF93DF93282F30E0F901EA57FA4E849110
:104DD000F901E656FA4ED491F901E255FA4EC49122
:104DE000CC2391F081110E944826EC2FF0E0EE0FC9
:104DF000FF1FEE53FA4EA591B4912C912D2381E023
:104E000090E021F480E002C080E090E0DF91CF915B
:104E1000089508950E9491250E9409270E94E20D9D
:104E2000C0E0D0E00E94A5142097E1F30E940000AA
:104E3000F9CFCF92DF92EF92FF920F931F93CF9310
:104E4000DF936C017A01EB01E60EF71E00E010E043
:104E5000CE15DF0561F06991D601ED91FC910190CD
:104E6000F081E02DC6010995080F191FF1CFC80187
:104E7000DF91CF911F910F91FF90EF90DF90CF9036
:104E800008956115710581F0DB010D900020E9F7AF
:104E9000AD0141505109461B570BDC01ED91FC91CE
:104EA0000280F381E02D099480E090E00895EF9274
:104EB000FF920F931F93CF93DF938C01FB01C0E010
:104EC000D0E064917F018FEFE81AF80A662361F061
:104ED000D801ED91FC910190F081E02DC801099578
:104EE000C80FD91FF701EDCFCE01DF91CF911F91F0
:104EF0000F91FF90EF9008950C944127DC01ED9104
:104F0000FC910190F081E02D099467E971E00C9427
:104F100041270F931F93CF93DF93EC010E945727F4
:104F20008C01CE010E948527800F911FDF91CF91C8
:104F30001F910F9108950F931F93CF93DF93EC016F
:104F40000E9441278C01CE010E948527800F911F6E
:104F5000DF91CF911F910F9108958F929F92AF9201
:104F6000BF92CF92DF92EF92FF920F931F93CF9356
:104F7000DF93CDB7DEB7A1970FB6F894DEBF0FBEB3
:104F8000CDBF7C01C42EE52FCB01D22E19A221E08A
:104F90002D1510F02AE0D22E8E010F5D1F4F8D2CA3
:104FA000912CA12CB12C6C2D7E2FA50194010E9477
:104FB000542A8C2DD29E80191124015011098A3057
:104FC00014F4805D01C0895CF801808321153105EE
:104FD0004105510521F0C22EE32FCA01E4CFB801EB
:104FE000C7010E944127A1960FB6F894DEBF0FBEFD
:104FF000CDBFDF91CF911F910F91FF90EF90DF9088
:10500000CF90BF90AF909F908F900895CF92DF92F6
:10501000EF92FF920F931F93CF93DF93EC016A01FE
:105020007B012115310579F4E881F9810190F08146
:10503000E02D642FDF91CF911F910F91FF90EF90A2
:10504000DF90CF9009942A303105E9F477FF1AC038
:105050006DE20E947E278C0144275527BA014C1926
:105060005D096E097F092AE0CE010E94AD27800FFD
:10507000911FDF91CF911F910F91FF90EF90DF90E3
:10508000CF9008952AE0B701A601CE01DF91CF911C
:105090001F910F91FF90EF90DF90CF900C94AD2770
:1050A0009A01AB01662757FD6095762F0C94062870
:1050B0002115310541F4DC01ED91FC910190F08165
:1050C000E02D642F09940C94AD279A01AB0160E0A8
:1050D00070E00C945828CF93DF9300D000D0CDB768
:1050E000DEB79B01AC01611571058105910569F081
:1050F00069833A834B835C830E94042B29813A8124
:105100004B815C810E94762A03C060E070E0CB0195
:105110000F900F900F900F90DF91CF910895CF9245
:10512000DF92EF92FF926B017C0162177307840795
:10513000950764F4CA01B9016C197D098E099F09AC
:105140000E946B286C0D7D1D8E1D9F1DFF90EF90A2
:10515000DF90CF9008954F925F926F927F92AF92BF
:10516000BF92CF92DF92EF92FF920F931F93CF9354
:10517000DF93CDB7DEB729013A01621B730B840BB5
:10518000950B29893A894B895C892A193B094C0975
:105190005D09298B3A8B4B8B5C8B9B01AC01698938
:1051A0007A898B899C890E94102AE418F5080609DF
:1051B0001709A80197010E94762A2A0D3B1D4C1D54
:1051C0005D1DCA01B901DF91CF911F910F91FF9031
:1051D000EF90DF90CF90BF90AF907F906F905F90F7
:1051E0004F900895089598D088F09F5790F0B92F68
:1051F0009927B751A0F0D1F0660F771F881F991F2C
:105200001AF0BA95C9F712C0B13081F09FD0B1E061
:1052100008959CC0672F782F8827B85F39F0B93F71
:10522000CCF3869577956795B395D9F73EF490952D
:105230008095709561957F4F8F4F9F4F0895E894AB
:1052400009C097FB3EF490958095709561957F4FCE
:105250008F4F9F4F9923A9F0F92F96E9BB2793957C
:10526000F695879577956795B795F111F8CFFAF48C
:10527000BB0F11F460FF1BC06F5F7F4F8F4F9F4FBD
:1052800016C0882311F096E911C0772321F09EE81B
:10529000872F762F05C0662371F096E8862F70E081
:1052A00060E02AF09A95660F771F881FDAF7880F5B
:1052B0009695879597F9089597F99F6780E870E02C
:1052C00060E008959FEF80EC089500240A9416167C
:1052D000170618060906089500240A9412161306E4
:1052E000140605060895092E0394000C11F4882372
:1052F00052F0BB0F40F4BF2B11F460FF04C06F5F8E
:105300007F4F8F4F9F4F089557FD9058440F551F63
:1053100059F05F3F71F04795880F97FB991F61F037
:105320009F3F79F087950895121613061406551FAE
:10533000F2CF4695F1DF08C0161617061806991F1A
:10534000F1CF86957105610508940895E894BB270F
:1053500066277727CB0197F908950BD0C4CFB5DF27
:1053600028F0BADF18F0952309F0A6CFABCF1124AF
:10537000EECFCADFA0F3959FD1F3950F50E0551FF4
:10538000629FF001729FBB27F00DB11D639FAA279A
:10539000F00DB11DAA1F649F6627B00DA11D661FE9
:1053A000829F2227B00DA11D621F739FB00DA11D0A
:1053B000621F839FA00D611D221F749F3327A00DC4
:1053C000611D231F849F600D211D822F762F6A2F60
:1053D00011249F5750408AF0E1F088234AF0EE0FE5
:1053E000FF1FBB1F661F771F881F91505040A9F7F2
:1053F0009E3F510570F060CFAACF5F3FECF3983E1F
:10540000DCF3869577956795B795F795E7959F5F58
:10541000C1F7FE2B880F911D9695879597F90895F2
:10542000DB018F939F930E949B2ABF91AF91A29F14
:10543000800D911DA39F900DB29F900D1124089592
:10544000991B79E004C0991F961708F0961B881FD6
:105450007A95C9F780950895AA1BBB1B51E107C037
:10546000AA1FBB1FA617B70710F0A61BB70B881FF4
:10547000991F5A95A9F780959095BC01CD01089583
:1054800097FB072E16F4009407D077FD09D00E94F1
:105490002C2A07FC05D03EF4909581959F4F0895E6
:1054A000709561957F4F0895A1E21A2EAA1BBB1B30
:1054B000FD010DC0AA1FBB1FEE1FFF1FA217B307E0
:1054C000E407F50720F0A21BB30BE40BF50B661FF6
:1054D000771F881F991F1A9469F7609570958095BA
:1054E00090959B01AC01BD01CF010895052E97FB5E
:1054F0001EF400940E948D2A57FD07D00E94542A62
:1055000007FC03D04EF40C948D2A509540953095AD
:1055100021953F4F4F4F5F4F08959095809570951F
:1055200061957F4F8F4F9F4F0895EE0FFF1F05909E
:10553000F491E02D09940E94A62AA59F900DB49F96
:10554000900DA49F800D911D11240895A29FB0017C
:10555000B39FC001A39F700D811D1124911DB29FA7
:10556000700D811D1124911D08958F929F92AF920D
:10557000BF92CF92DF92EF92FF92CF93DF93EC0135
:10558000688179818A819B81611571058105910509
:1055900021F464E279ED8BE597E02DE133EF41E012
:1055A00050E00E94762A49015A019B01AC01A7EA0A
:1055B000B1E40E949B2A6B017C01ACEEB4EFA50123
:1055C00094010E94152BC60ED71EE81EF91EF7FE89
:1055D00006C081E0C81AD108E10880E8F80AC8824C
:1055E000D982EA82FB82C701B6019F77DF91CF9112
:1055F000FF90EF90DF90CF90BF90AF909F908F90F3
:1056000008950E94B52A089586E091E00E94B52A87
:1056100008956093060170930701809308019093A9
:1056200009010895B7FF0C949B2A0E949B2A821BB4
:08563000930B0895F894FFCFDD
:1056380000006C07800001000000010152656C6FDA
:10564800616421004C766C002D00476F203D3E00C0
:1056580000000000200013002000130018001300B1
:105668002000130018001300200013000800010098
:105678002000130010001300000000003000130089
:10568800100013001000130010001300380013005E
:105698002800130018001300180013001800130046
:1056A80010000A000800130010000A001800130078
:1056B8001000090018000D0000000000D21D192775
:1056C8004C4F41444552000D0A006E616E00696EF0
:0856D80066006F7666002E00EB
:00000001FF
